{
	"importControl.sol": {
		"ControlContract": {
			"abi": [
				{
					"inputs": [
						{
							"internalType": "address",
							"name": "_mintAddress",
							"type": "address"
						}
					],
					"stateMutability": "nonpayable",
					"type": "constructor"
				},
				{
					"anonymous": false,
					"inputs": [
						{
							"indexed": false,
							"internalType": "uint256",
							"name": "tokenId",
							"type": "uint256"
						},
						{
							"indexed": false,
							"internalType": "address",
							"name": "from",
							"type": "address"
						},
						{
							"indexed": false,
							"internalType": "address",
							"name": "to",
							"type": "address"
						}
					],
					"name": "OwnershipTransferred",
					"type": "event"
				},
				{
					"anonymous": false,
					"inputs": [
						{
							"indexed": false,
							"internalType": "uint256",
							"name": "tokenId",
							"type": "uint256"
						},
						{
							"indexed": false,
							"internalType": "string",
							"name": "qrCode",
							"type": "string"
						},
						{
							"indexed": false,
							"internalType": "address",
							"name": "owner",
							"type": "address"
						}
					],
					"name": "ProductRegistered",
					"type": "event"
				},
				{
					"anonymous": false,
					"inputs": [
						{
							"indexed": false,
							"internalType": "uint256",
							"name": "tokenId",
							"type": "uint256"
						},
						{
							"indexed": false,
							"internalType": "address",
							"name": "verifier",
							"type": "address"
						}
					],
					"name": "ProductVerified",
					"type": "event"
				},
				{
					"inputs": [
						{
							"internalType": "address",
							"name": "verifier",
							"type": "address"
						}
					],
					"name": "addVerifier",
					"outputs": [],
					"stateMutability": "nonpayable",
					"type": "function"
				},
				{
					"inputs": [
						{
							"internalType": "address",
							"name": "",
							"type": "address"
						}
					],
					"name": "authorisedVerifiers",
					"outputs": [
						{
							"internalType": "bool",
							"name": "",
							"type": "bool"
						}
					],
					"stateMutability": "view",
					"type": "function"
				},
				{
					"inputs": [
						{
							"internalType": "uint256",
							"name": "tokenId",
							"type": "uint256"
						}
					],
					"name": "getHistory",
					"outputs": [
						{
							"internalType": "address[]",
							"name": "",
							"type": "address[]"
						}
					],
					"stateMutability": "view",
					"type": "function"
				},
				{
					"inputs": [],
					"name": "manufacturer",
					"outputs": [
						{
							"internalType": "address",
							"name": "",
							"type": "address"
						}
					],
					"stateMutability": "view",
					"type": "function"
				},
				{
					"inputs": [],
					"name": "mintContract",
					"outputs": [
						{
							"internalType": "contract ISimpleMint",
							"name": "",
							"type": "address"
						}
					],
					"stateMutability": "view",
					"type": "function"
				},
				{
					"inputs": [
						{
							"internalType": "uint256",
							"name": "",
							"type": "uint256"
						}
					],
					"name": "products",
					"outputs": [
						{
							"internalType": "uint256",
							"name": "tokenID",
							"type": "uint256"
						},
						{
							"internalType": "string",
							"name": "qrCode",
							"type": "string"
						},
						{
							"internalType": "bool",
							"name": "verified",
							"type": "bool"
						},
						{
							"internalType": "address",
							"name": "currentOwner",
							"type": "address"
						}
					],
					"stateMutability": "view",
					"type": "function"
				},
				{
					"inputs": [
						{
							"internalType": "uint256",
							"name": "tokenId",
							"type": "uint256"
						},
						{
							"internalType": "string",
							"name": "qrCode",
							"type": "string"
						}
					],
					"name": "register",
					"outputs": [],
					"stateMutability": "nonpayable",
					"type": "function"
				},
				{
					"inputs": [],
					"name": "saleContract",
					"outputs": [
						{
							"internalType": "address",
							"name": "",
							"type": "address"
						}
					],
					"stateMutability": "view",
					"type": "function"
				},
				{
					"inputs": [
						{
							"internalType": "address",
							"name": "_saleContract",
							"type": "address"
						}
					],
					"name": "setSaleContract",
					"outputs": [],
					"stateMutability": "nonpayable",
					"type": "function"
				},
				{
					"inputs": [
						{
							"internalType": "uint256",
							"name": "tokenId",
							"type": "uint256"
						},
						{
							"internalType": "address",
							"name": "newOwner",
							"type": "address"
						}
					],
					"name": "transferOwnership",
					"outputs": [],
					"stateMutability": "nonpayable",
					"type": "function"
				},
				{
					"inputs": [
						{
							"internalType": "uint256",
							"name": "tokenId",
							"type": "uint256"
						}
					],
					"name": "verify",
					"outputs": [],
					"stateMutability": "nonpayable",
					"type": "function"
				}
			],
			"devdoc": {
				"kind": "dev",
				"methods": {},
				"version": 1
			},
			"evm": {
				"assembly": "    /* \"importControl.sol\":162:3030  contract ControlContract {... */\n  mstore(0x40, 0x80)\n    /* \"importControl.sol\":1189:1318  constructor(address _mintAddress) {... */\n  callvalue\n  dup1\n  iszero\n  tag_1\n  jumpi\n  0x00\n  dup1\n  revert\ntag_1:\n  pop\n  mload(0x40)\n  sub(codesize, bytecodeSize)\n  dup1\n  bytecodeSize\n  dup4\n  codecopy\n  dup2\n  dup2\n  add\n  0x40\n  mstore\n  dup2\n  add\n  swap1\n  tag_2\n  swap2\n  swap1\n  tag_3\n  jump\t// in\ntag_2:\n    /* \"importControl.sol\":1249:1259  msg.sender */\n  caller\n    /* \"importControl.sol\":1234:1246  manufacturer */\n  0x01\n  0x00\n    /* \"importControl.sol\":1234:1259  manufacturer = msg.sender */\n  0x0100\n  exp\n  dup2\n  sload\n  dup2\n  0xffffffffffffffffffffffffffffffffffffffff\n  mul\n  not\n  and\n  swap1\n  dup4\n  0xffffffffffffffffffffffffffffffffffffffff\n  and\n  mul\n  or\n  swap1\n  sstore\n  pop\n    /* \"importControl.sol\":1297:1309  _mintAddress */\n  dup1\n    /* \"importControl.sol\":1270:1282  mintContract */\n  0x00\n  dup1\n    /* \"importControl.sol\":1270:1310  mintContract = ISimpleMint(_mintAddress) */\n  0x0100\n  exp\n  dup2\n  sload\n  dup2\n  0xffffffffffffffffffffffffffffffffffffffff\n  mul\n  not\n  and\n  swap1\n  dup4\n  0xffffffffffffffffffffffffffffffffffffffff\n  and\n  mul\n  or\n  swap1\n  sstore\n  pop\n    /* \"importControl.sol\":1189:1318  constructor(address _mintAddress) {... */\n  pop\n    /* \"importControl.sol\":162:3030  contract ControlContract {... */\n  jump(tag_6)\n    /* \"#utility.yul\":88:205   */\ntag_8:\n    /* \"#utility.yul\":197:198   */\n  0x00\n    /* \"#utility.yul\":194:195   */\n  dup1\n    /* \"#utility.yul\":187:199   */\n  revert\n    /* \"#utility.yul\":334:460   */\ntag_10:\n    /* \"#utility.yul\":371:378   */\n  0x00\n    /* \"#utility.yul\":411:453   */\n  0xffffffffffffffffffffffffffffffffffffffff\n    /* \"#utility.yul\":404:409   */\n  dup3\n    /* \"#utility.yul\":400:454   */\n  and\n    /* \"#utility.yul\":389:454   */\n  swap1\n  pop\n    /* \"#utility.yul\":334:460   */\n  swap2\n  swap1\n  pop\n  jump\t// out\n    /* \"#utility.yul\":466:562   */\ntag_11:\n    /* \"#utility.yul\":503:510   */\n  0x00\n    /* \"#utility.yul\":532:556   */\n  tag_20\n    /* \"#utility.yul\":550:555   */\n  dup3\n    /* \"#utility.yul\":532:556   */\n  tag_10\n  jump\t// in\ntag_20:\n    /* \"#utility.yul\":521:556   */\n  swap1\n  pop\n    /* \"#utility.yul\":466:562   */\n  swap2\n  swap1\n  pop\n  jump\t// out\n    /* \"#utility.yul\":568:690   */\ntag_12:\n    /* \"#utility.yul\":641:665   */\n  tag_22\n    /* \"#utility.yul\":659:664   */\n  dup2\n    /* \"#utility.yul\":641:665   */\n  tag_11\n  jump\t// in\ntag_22:\n    /* \"#utility.yul\":634:639   */\n  dup2\n    /* \"#utility.yul\":631:666   */\n  eq\n    /* \"#utility.yul\":621:684   */\n  tag_23\n  jumpi\n    /* \"#utility.yul\":680:681   */\n  0x00\n    /* \"#utility.yul\":677:678   */\n  dup1\n    /* \"#utility.yul\":670:682   */\n  revert\n    /* \"#utility.yul\":621:684   */\ntag_23:\n    /* \"#utility.yul\":568:690   */\n  pop\n  jump\t// out\n    /* \"#utility.yul\":696:839   */\ntag_13:\n    /* \"#utility.yul\":753:758   */\n  0x00\n    /* \"#utility.yul\":784:790   */\n  dup2\n    /* \"#utility.yul\":778:791   */\n  mload\n    /* \"#utility.yul\":769:791   */\n  swap1\n  pop\n    /* \"#utility.yul\":800:833   */\n  tag_25\n    /* \"#utility.yul\":827:832   */\n  dup2\n    /* \"#utility.yul\":800:833   */\n  tag_12\n  jump\t// in\ntag_25:\n    /* \"#utility.yul\":696:839   */\n  swap3\n  swap2\n  pop\n  pop\n  jump\t// out\n    /* \"#utility.yul\":845:1196   */\ntag_3:\n    /* \"#utility.yul\":915:921   */\n  0x00\n    /* \"#utility.yul\":964:966   */\n  0x20\n    /* \"#utility.yul\":952:961   */\n  dup3\n    /* \"#utility.yul\":943:950   */\n  dup5\n    /* \"#utility.yul\":939:962   */\n  sub\n    /* \"#utility.yul\":935:967   */\n  slt\n    /* \"#utility.yul\":932:1051   */\n  iszero\n  tag_27\n  jumpi\n    /* \"#utility.yul\":970:1049   */\n  tag_28\n  tag_8\n  jump\t// in\ntag_28:\n    /* \"#utility.yul\":932:1051   */\ntag_27:\n    /* \"#utility.yul\":1090:1091   */\n  0x00\n    /* \"#utility.yul\":1115:1179   */\n  tag_29\n    /* \"#utility.yul\":1171:1178   */\n  dup5\n    /* \"#utility.yul\":1162:1168   */\n  dup3\n    /* \"#utility.yul\":1151:1160   */\n  dup6\n    /* \"#utility.yul\":1147:1169   */\n  add\n    /* \"#utility.yul\":1115:1179   */\n  tag_13\n  jump\t// in\ntag_29:\n    /* \"#utility.yul\":1105:1179   */\n  swap2\n  pop\n    /* \"#utility.yul\":1061:1189   */\n  pop\n    /* \"#utility.yul\":845:1196   */\n  swap3\n  swap2\n  pop\n  pop\n  jump\t// out\n    /* \"importControl.sol\":162:3030  contract ControlContract {... */\ntag_6:\n  dataSize(sub_0)\n  dup1\n  dataOffset(sub_0)\n  0x00\n  codecopy\n  0x00\n  return\nstop\n\nsub_0: assembly {\n        /* \"importControl.sol\":162:3030  contract ControlContract {... */\n      mstore(0x40, 0x80)\n      callvalue\n      dup1\n      iszero\n      tag_1\n      jumpi\n      0x00\n      dup1\n      revert\n    tag_1:\n      pop\n      jumpi(tag_2, lt(calldatasize, 0x04))\n      shr(0xe0, calldataload(0x00))\n      dup1\n      0x9000b3d6\n      gt\n      tag_14\n      jumpi\n      dup1\n      0x9000b3d6\n      eq\n      tag_8\n      jumpi\n      dup1\n      0xa00fd3c8\n      eq\n      tag_9\n      jumpi\n      dup1\n      0xc8691b2a\n      eq\n      tag_10\n      jumpi\n      dup1\n      0xd0b6b6db\n      eq\n      tag_11\n      jumpi\n      dup1\n      0xdaf6ca30\n      eq\n      tag_12\n      jumpi\n      dup1\n      0xf9281222\n      eq\n      tag_13\n      jumpi\n      jump(tag_2)\n    tag_14:\n      dup1\n      0x0593d244\n      eq\n      tag_3\n      jumpi\n      dup1\n      0x29507f73\n      eq\n      tag_4\n      jumpi\n      dup1\n      0x74754282\n      eq\n      tag_5\n      jumpi\n      dup1\n      0x7acc0b20\n      eq\n      tag_6\n      jumpi\n      dup1\n      0x8753367f\n      eq\n      tag_7\n      jumpi\n    tag_2:\n      0x00\n      dup1\n      revert\n        /* \"importControl.sol\":1326:1447  function setSaleContract(address _saleContract) external onlyManufacturer {... */\n    tag_3:\n      tag_15\n      0x04\n      dup1\n      calldatasize\n      sub\n      dup2\n      add\n      swap1\n      tag_16\n      swap2\n      swap1\n      tag_17\n      jump\t// in\n    tag_16:\n      tag_18\n      jump\t// in\n    tag_15:\n      stop\n        /* \"importControl.sol\":2274:2688  function transferOwnership(uint256 tokenId, address newOwner) external onlySaleContract {... */\n    tag_4:\n      tag_19\n      0x04\n      dup1\n      calldatasize\n      sub\n      dup2\n      add\n      swap1\n      tag_20\n      swap2\n      swap1\n      tag_21\n      jump\t// in\n    tag_20:\n      tag_22\n      jump\t// in\n    tag_19:\n      stop\n        /* \"importControl.sol\":232:259  address public manufacturer */\n    tag_5:\n      tag_23\n      tag_24\n      jump\t// in\n    tag_23:\n      mload(0x40)\n      tag_25\n      swap2\n      swap1\n      tag_26\n      jump\t// in\n    tag_25:\n      mload(0x40)\n      dup1\n      swap2\n      sub\n      swap1\n      return\n        /* \"importControl.sol\":466:509  mapping(uint256 => Product) public products */\n    tag_6:\n      tag_27\n      0x04\n      dup1\n      calldatasize\n      sub\n      dup2\n      add\n      swap1\n      tag_28\n      swap2\n      swap1\n      tag_29\n      jump\t// in\n    tag_28:\n      tag_30\n      jump\t// in\n    tag_27:\n      mload(0x40)\n      tag_31\n      swap5\n      swap4\n      swap3\n      swap2\n      swap1\n      tag_32\n      jump\t// in\n    tag_31:\n      mload(0x40)\n      dup1\n      swap2\n      sub\n      swap1\n      return\n        /* \"importControl.sol\":2031:2266  function verify(uint256 tokenId) public onlyVerifier {... */\n    tag_7:\n      tag_33\n      0x04\n      dup1\n      calldatasize\n      sub\n      dup2\n      add\n      swap1\n      tag_34\n      swap2\n      swap1\n      tag_29\n      jump\t// in\n    tag_34:\n      tag_35\n      jump\t// in\n    tag_33:\n      stop\n        /* \"importControl.sol\":2909:3027  function addVerifier(address verifier) public onlyManufacturer {... */\n    tag_8:\n      tag_36\n      0x04\n      dup1\n      calldatasize\n      sub\n      dup2\n      add\n      swap1\n      tag_37\n      swap2\n      swap1\n      tag_17\n      jump\t// in\n    tag_37:\n      tag_38\n      jump\t// in\n    tag_36:\n      stop\n        /* \"importControl.sol\":1455:2023  function register(uint256 tokenId, string memory qrCode) public onlyManufacturer {... */\n    tag_9:\n      tag_39\n      0x04\n      dup1\n      calldatasize\n      sub\n      dup2\n      add\n      swap1\n      tag_40\n      swap2\n      swap1\n      tag_41\n      jump\t// in\n    tag_40:\n      tag_42\n      jump\t// in\n    tag_39:\n      stop\n        /* \"importControl.sol\":2696:2901  function getHistory(uint256 tokenId) external view returns (address[] memory) {... */\n    tag_10:\n      tag_43\n      0x04\n      dup1\n      calldatasize\n      sub\n      dup2\n      add\n      swap1\n      tag_44\n      swap2\n      swap1\n      tag_29\n      jump\t// in\n    tag_44:\n      tag_45\n      jump\t// in\n    tag_43:\n      mload(0x40)\n      tag_46\n      swap2\n      swap1\n      tag_47\n      jump\t// in\n    tag_46:\n      mload(0x40)\n      dup1\n      swap2\n      sub\n      swap1\n      return\n        /* \"importControl.sol\":194:225  ISimpleMint public mintContract */\n    tag_11:\n      tag_48\n      tag_49\n      jump\t// in\n    tag_48:\n      mload(0x40)\n      tag_50\n      swap2\n      swap1\n      tag_51\n      jump\t// in\n    tag_50:\n      mload(0x40)\n      dup1\n      swap2\n      sub\n      swap1\n      return\n        /* \"importControl.sol\":266:293  address public saleContract */\n    tag_12:\n      tag_52\n      tag_53\n      jump\t// in\n    tag_52:\n      mload(0x40)\n      tag_54\n      swap2\n      swap1\n      tag_26\n      jump\t// in\n    tag_54:\n      mload(0x40)\n      dup1\n      swap2\n      sub\n      swap1\n      return\n        /* \"importControl.sol\":516:567  mapping(address => bool) public authorisedVerifiers */\n    tag_13:\n      tag_55\n      0x04\n      dup1\n      calldatasize\n      sub\n      dup2\n      add\n      swap1\n      tag_56\n      swap2\n      swap1\n      tag_17\n      jump\t// in\n    tag_56:\n      tag_57\n      jump\t// in\n    tag_55:\n      mload(0x40)\n      tag_58\n      swap2\n      swap1\n      tag_59\n      jump\t// in\n    tag_58:\n      mload(0x40)\n      dup1\n      swap2\n      sub\n      swap1\n      return\n        /* \"importControl.sol\":1326:1447  function setSaleContract(address _saleContract) external onlyManufacturer {... */\n    tag_18:\n        /* \"importControl.sol\":855:867  manufacturer */\n      0x01\n      0x00\n      swap1\n      sload\n      swap1\n      0x0100\n      exp\n      swap1\n      div\n      0xffffffffffffffffffffffffffffffffffffffff\n      and\n        /* \"importControl.sol\":841:867  msg.sender == manufacturer */\n      0xffffffffffffffffffffffffffffffffffffffff\n      and\n        /* \"importControl.sol\":841:851  msg.sender */\n      caller\n        /* \"importControl.sol\":841:867  msg.sender == manufacturer */\n      0xffffffffffffffffffffffffffffffffffffffff\n      and\n      eq\n        /* \"importControl.sol\":833:898  require(msg.sender == manufacturer, \"Only manufacturer can call\") */\n      tag_61\n      jumpi\n      mload(0x40)\n      0x08c379a000000000000000000000000000000000000000000000000000000000\n      dup2\n      mstore\n      0x04\n      add\n      tag_62\n      swap1\n      tag_63\n      jump\t// in\n    tag_62:\n      mload(0x40)\n      dup1\n      swap2\n      sub\n      swap1\n      revert\n    tag_61:\n        /* \"importControl.sol\":1426:1439  _saleContract */\n      dup1\n        /* \"importControl.sol\":1411:1423  saleContract */\n      0x02\n      0x00\n        /* \"importControl.sol\":1411:1439  saleContract = _saleContract */\n      0x0100\n      exp\n      dup2\n      sload\n      dup2\n      0xffffffffffffffffffffffffffffffffffffffff\n      mul\n      not\n      and\n      swap1\n      dup4\n      0xffffffffffffffffffffffffffffffffffffffff\n      and\n      mul\n      or\n      swap1\n      sstore\n      pop\n        /* \"importControl.sol\":1326:1447  function setSaleContract(address _saleContract) external onlyManufacturer {... */\n      pop\n      jump\t// out\n        /* \"importControl.sol\":2274:2688  function transferOwnership(uint256 tokenId, address newOwner) external onlySaleContract {... */\n    tag_22:\n        /* \"importControl.sol\":1118:1130  saleContract */\n      0x02\n      0x00\n      swap1\n      sload\n      swap1\n      0x0100\n      exp\n      swap1\n      div\n      0xffffffffffffffffffffffffffffffffffffffff\n      and\n        /* \"importControl.sol\":1104:1130  msg.sender == saleContract */\n      0xffffffffffffffffffffffffffffffffffffffff\n      and\n        /* \"importControl.sol\":1104:1114  msg.sender */\n      caller\n        /* \"importControl.sol\":1104:1130  msg.sender == saleContract */\n      0xffffffffffffffffffffffffffffffffffffffff\n      and\n      eq\n        /* \"importControl.sol\":1096:1161  require(msg.sender == saleContract, \"Only SaleContract can call\") */\n      tag_66\n      jumpi\n      mload(0x40)\n      0x08c379a000000000000000000000000000000000000000000000000000000000\n      dup2\n      mstore\n      0x04\n      add\n      tag_67\n      swap1\n      tag_68\n      jump\t// in\n    tag_67:\n      mload(0x40)\n      dup1\n      swap2\n      sub\n      swap1\n      revert\n    tag_66:\n        /* \"importControl.sol\":2410:2411  0 */\n      0x00\n        /* \"importControl.sol\":2381:2389  products */\n      0x03\n        /* \"importControl.sol\":2381:2398  products[tokenId] */\n      0x00\n        /* \"importControl.sol\":2390:2397  tokenId */\n      dup5\n        /* \"importControl.sol\":2381:2398  products[tokenId] */\n      dup2\n      mstore\n      0x20\n      add\n      swap1\n      dup2\n      mstore\n      0x20\n      add\n      0x00\n      keccak256\n        /* \"importControl.sol\":2381:2406  products[tokenId].tokenID */\n      0x00\n      add\n      sload\n        /* \"importControl.sol\":2381:2411  products[tokenId].tokenID != 0 */\n      sub\n        /* \"importControl.sol\":2373:2438  require(products[tokenId].tokenID != 0, \"Product not registered\") */\n      tag_70\n      jumpi\n      mload(0x40)\n      0x08c379a000000000000000000000000000000000000000000000000000000000\n      dup2\n      mstore\n      0x04\n      add\n      tag_71\n      swap1\n      tag_72\n      jump\t// in\n    tag_71:\n      mload(0x40)\n      dup1\n      swap2\n      sub\n      swap1\n      revert\n    tag_70:\n        /* \"importControl.sol\":2451:2472  address previousOwner */\n      0x00\n        /* \"importControl.sol\":2475:2483  products */\n      0x03\n        /* \"importControl.sol\":2475:2492  products[tokenId] */\n      0x00\n        /* \"importControl.sol\":2484:2491  tokenId */\n      dup5\n        /* \"importControl.sol\":2475:2492  products[tokenId] */\n      dup2\n      mstore\n      0x20\n      add\n      swap1\n      dup2\n      mstore\n      0x20\n      add\n      0x00\n      keccak256\n        /* \"importControl.sol\":2475:2505  products[tokenId].currentOwner */\n      0x02\n      add\n      0x01\n      swap1\n      sload\n      swap1\n      0x0100\n      exp\n      swap1\n      div\n      0xffffffffffffffffffffffffffffffffffffffff\n      and\n        /* \"importControl.sol\":2451:2505  address previousOwner = products[tokenId].currentOwner */\n      swap1\n      pop\n        /* \"importControl.sol\":2549:2557  newOwner */\n      dup2\n        /* \"importControl.sol\":2516:2524  products */\n      0x03\n        /* \"importControl.sol\":2516:2533  products[tokenId] */\n      0x00\n        /* \"importControl.sol\":2525:2532  tokenId */\n      dup6\n        /* \"importControl.sol\":2516:2533  products[tokenId] */\n      dup2\n      mstore\n      0x20\n      add\n      swap1\n      dup2\n      mstore\n      0x20\n      add\n      0x00\n      keccak256\n        /* \"importControl.sol\":2516:2546  products[tokenId].currentOwner */\n      0x02\n      add\n      0x01\n        /* \"importControl.sol\":2516:2557  products[tokenId].currentOwner = newOwner */\n      0x0100\n      exp\n      dup2\n      sload\n      dup2\n      0xffffffffffffffffffffffffffffffffffffffff\n      mul\n      not\n      and\n      swap1\n      dup4\n      0xffffffffffffffffffffffffffffffffffffffff\n      and\n      mul\n      or\n      swap1\n      sstore\n      pop\n        /* \"importControl.sol\":2568:2576  products */\n      0x03\n        /* \"importControl.sol\":2568:2585  products[tokenId] */\n      0x00\n        /* \"importControl.sol\":2577:2584  tokenId */\n      dup5\n        /* \"importControl.sol\":2568:2585  products[tokenId] */\n      dup2\n      mstore\n      0x20\n      add\n      swap1\n      dup2\n      mstore\n      0x20\n      add\n      0x00\n      keccak256\n        /* \"importControl.sol\":2568:2593  products[tokenId].history */\n      0x03\n      add\n        /* \"importControl.sol\":2599:2607  newOwner */\n      dup3\n        /* \"importControl.sol\":2568:2608  products[tokenId].history.push(newOwner) */\n      swap1\n      dup1\n      0x01\n      dup2\n      sload\n      add\n      dup1\n      dup3\n      sstore\n      dup1\n      swap2\n      pop\n      pop\n      0x01\n      swap1\n      sub\n      swap1\n      0x00\n      mstore\n      keccak256(0x00, 0x20)\n      add\n      0x00\n      swap1\n      swap2\n      swap1\n      swap2\n      swap1\n      swap2\n      0x0100\n      exp\n      dup2\n      sload\n      dup2\n      0xffffffffffffffffffffffffffffffffffffffff\n      mul\n      not\n      and\n      swap1\n      dup4\n      0xffffffffffffffffffffffffffffffffffffffff\n      and\n      mul\n      or\n      swap1\n      sstore\n      pop\n        /* \"importControl.sol\":2626:2680  OwnershipTransferred(tokenId, previousOwner, newOwner) */\n      0x16b85f49bf01212961345d3016c9a531894accf62eb7680f2045d79185cc0ec0\n        /* \"importControl.sol\":2647:2654  tokenId */\n      dup4\n        /* \"importControl.sol\":2656:2669  previousOwner */\n      dup3\n        /* \"importControl.sol\":2671:2679  newOwner */\n      dup5\n        /* \"importControl.sol\":2626:2680  OwnershipTransferred(tokenId, previousOwner, newOwner) */\n      mload(0x40)\n      tag_74\n      swap4\n      swap3\n      swap2\n      swap1\n      tag_75\n      jump\t// in\n    tag_74:\n      mload(0x40)\n      dup1\n      swap2\n      sub\n      swap1\n      log1\n        /* \"importControl.sol\":2362:2688  {... */\n      pop\n        /* \"importControl.sol\":2274:2688  function transferOwnership(uint256 tokenId, address newOwner) external onlySaleContract {... */\n      pop\n      pop\n      jump\t// out\n        /* \"importControl.sol\":232:259  address public manufacturer */\n    tag_24:\n      0x01\n      0x00\n      swap1\n      sload\n      swap1\n      0x0100\n      exp\n      swap1\n      div\n      0xffffffffffffffffffffffffffffffffffffffff\n      and\n      dup2\n      jump\t// out\n        /* \"importControl.sol\":466:509  mapping(uint256 => Product) public products */\n    tag_30:\n      mstore(0x20, 0x03)\n      dup1\n      0x00\n      mstore\n      keccak256(0x00, 0x40)\n      0x00\n      swap2\n      pop\n      swap1\n      pop\n      dup1\n      0x00\n      add\n      sload\n      swap1\n      dup1\n      0x01\n      add\n      dup1\n      sload\n      tag_76\n      swap1\n      tag_77\n      jump\t// in\n    tag_76:\n      dup1\n      0x1f\n      add\n      0x20\n      dup1\n      swap2\n      div\n      mul\n      0x20\n      add\n      mload(0x40)\n      swap1\n      dup2\n      add\n      0x40\n      mstore\n      dup1\n      swap3\n      swap2\n      swap1\n      dup2\n      dup2\n      mstore\n      0x20\n      add\n      dup3\n      dup1\n      sload\n      tag_78\n      swap1\n      tag_77\n      jump\t// in\n    tag_78:\n      dup1\n      iszero\n      tag_79\n      jumpi\n      dup1\n      0x1f\n      lt\n      tag_80\n      jumpi\n      0x0100\n      dup1\n      dup4\n      sload\n      div\n      mul\n      dup4\n      mstore\n      swap2\n      0x20\n      add\n      swap2\n      jump(tag_79)\n    tag_80:\n      dup3\n      add\n      swap2\n      swap1\n      0x00\n      mstore\n      keccak256(0x00, 0x20)\n      swap1\n    tag_81:\n      dup2\n      sload\n      dup2\n      mstore\n      swap1\n      0x01\n      add\n      swap1\n      0x20\n      add\n      dup1\n      dup4\n      gt\n      tag_81\n      jumpi\n      dup3\n      swap1\n      sub\n      0x1f\n      and\n      dup3\n      add\n      swap2\n    tag_79:\n      pop\n      pop\n      pop\n      pop\n      pop\n      swap1\n      dup1\n      0x02\n      add\n      0x00\n      swap1\n      sload\n      swap1\n      0x0100\n      exp\n      swap1\n      div\n      0xff\n      and\n      swap1\n      dup1\n      0x02\n      add\n      0x01\n      swap1\n      sload\n      swap1\n      0x0100\n      exp\n      swap1\n      div\n      0xffffffffffffffffffffffffffffffffffffffff\n      and\n      swap1\n      pop\n      dup5\n      jump\t// out\n        /* \"importControl.sol\":2031:2266  function verify(uint256 tokenId) public onlyVerifier {... */\n    tag_35:\n        /* \"importControl.sol\":969:988  authorisedVerifiers */\n      0x04\n        /* \"importControl.sol\":969:1000  authorisedVerifiers[msg.sender] */\n      0x00\n        /* \"importControl.sol\":989:999  msg.sender */\n      caller\n        /* \"importControl.sol\":969:1000  authorisedVerifiers[msg.sender] */\n      0xffffffffffffffffffffffffffffffffffffffff\n      and\n      0xffffffffffffffffffffffffffffffffffffffff\n      and\n      dup2\n      mstore\n      0x20\n      add\n      swap1\n      dup2\n      mstore\n      0x20\n      add\n      0x00\n      keccak256\n      0x00\n      swap1\n      sload\n      swap1\n      0x0100\n      exp\n      swap1\n      div\n      0xff\n      and\n        /* \"importControl.sol\":961:1029  require(authorisedVerifiers[msg.sender], \"Not authorised to verify\") */\n      tag_83\n      jumpi\n      mload(0x40)\n      0x08c379a000000000000000000000000000000000000000000000000000000000\n      dup2\n      mstore\n      0x04\n      add\n      tag_84\n      swap1\n      tag_85\n      jump\t// in\n    tag_84:\n      mload(0x40)\n      dup1\n      swap2\n      sub\n      swap1\n      revert\n    tag_83:\n        /* \"importControl.sol\":2132:2133  0 */\n      0x00\n        /* \"importControl.sol\":2103:2111  products */\n      0x03\n        /* \"importControl.sol\":2103:2120  products[tokenId] */\n      0x00\n        /* \"importControl.sol\":2112:2119  tokenId */\n      dup4\n        /* \"importControl.sol\":2103:2120  products[tokenId] */\n      dup2\n      mstore\n      0x20\n      add\n      swap1\n      dup2\n      mstore\n      0x20\n      add\n      0x00\n      keccak256\n        /* \"importControl.sol\":2103:2128  products[tokenId].tokenID */\n      0x00\n      add\n      sload\n        /* \"importControl.sol\":2103:2133  products[tokenId].tokenID != 0 */\n      sub\n        /* \"importControl.sol\":2095:2160  require(products[tokenId].tokenID != 0, \"Product not registered\") */\n      tag_87\n      jumpi\n      mload(0x40)\n      0x08c379a000000000000000000000000000000000000000000000000000000000\n      dup2\n      mstore\n      0x04\n      add\n      tag_88\n      swap1\n      tag_72\n      jump\t// in\n    tag_88:\n      mload(0x40)\n      dup1\n      swap2\n      sub\n      swap1\n      revert\n    tag_87:\n        /* \"importControl.sol\":2202:2206  true */\n      0x01\n        /* \"importControl.sol\":2173:2181  products */\n      0x03\n        /* \"importControl.sol\":2173:2190  products[tokenId] */\n      0x00\n        /* \"importControl.sol\":2182:2189  tokenId */\n      dup4\n        /* \"importControl.sol\":2173:2190  products[tokenId] */\n      dup2\n      mstore\n      0x20\n      add\n      swap1\n      dup2\n      mstore\n      0x20\n      add\n      0x00\n      keccak256\n        /* \"importControl.sol\":2173:2199  products[tokenId].verified */\n      0x02\n      add\n      0x00\n        /* \"importControl.sol\":2173:2206  products[tokenId].verified = true */\n      0x0100\n      exp\n      dup2\n      sload\n      dup2\n      0xff\n      mul\n      not\n      and\n      swap1\n      dup4\n      iszero\n      iszero\n      mul\n      or\n      swap1\n      sstore\n      pop\n        /* \"importControl.sol\":2222:2258  ProductVerified(tokenId, msg.sender) */\n      0xab60911bebc6d3ab48620594e409545834da76f4995297ebc48ca5589f25437b\n        /* \"importControl.sol\":2238:2245  tokenId */\n      dup2\n        /* \"importControl.sol\":2247:2257  msg.sender */\n      caller\n        /* \"importControl.sol\":2222:2258  ProductVerified(tokenId, msg.sender) */\n      mload(0x40)\n      tag_89\n      swap3\n      swap2\n      swap1\n      tag_90\n      jump\t// in\n    tag_89:\n      mload(0x40)\n      dup1\n      swap2\n      sub\n      swap1\n      log1\n        /* \"importControl.sol\":2031:2266  function verify(uint256 tokenId) public onlyVerifier {... */\n      pop\n      jump\t// out\n        /* \"importControl.sol\":2909:3027  function addVerifier(address verifier) public onlyManufacturer {... */\n    tag_38:\n        /* \"importControl.sol\":855:867  manufacturer */\n      0x01\n      0x00\n      swap1\n      sload\n      swap1\n      0x0100\n      exp\n      swap1\n      div\n      0xffffffffffffffffffffffffffffffffffffffff\n      and\n        /* \"importControl.sol\":841:867  msg.sender == manufacturer */\n      0xffffffffffffffffffffffffffffffffffffffff\n      and\n        /* \"importControl.sol\":841:851  msg.sender */\n      caller\n        /* \"importControl.sol\":841:867  msg.sender == manufacturer */\n      0xffffffffffffffffffffffffffffffffffffffff\n      and\n      eq\n        /* \"importControl.sol\":833:898  require(msg.sender == manufacturer, \"Only manufacturer can call\") */\n      tag_92\n      jumpi\n      mload(0x40)\n      0x08c379a000000000000000000000000000000000000000000000000000000000\n      dup2\n      mstore\n      0x04\n      add\n      tag_93\n      swap1\n      tag_63\n      jump\t// in\n    tag_93:\n      mload(0x40)\n      dup1\n      swap2\n      sub\n      swap1\n      revert\n    tag_92:\n        /* \"importControl.sol\":3015:3019  true */\n      0x01\n        /* \"importControl.sol\":2983:3002  authorisedVerifiers */\n      0x04\n        /* \"importControl.sol\":2983:3012  authorisedVerifiers[verifier] */\n      0x00\n        /* \"importControl.sol\":3003:3011  verifier */\n      dup4\n        /* \"importControl.sol\":2983:3012  authorisedVerifiers[verifier] */\n      0xffffffffffffffffffffffffffffffffffffffff\n      and\n      0xffffffffffffffffffffffffffffffffffffffff\n      and\n      dup2\n      mstore\n      0x20\n      add\n      swap1\n      dup2\n      mstore\n      0x20\n      add\n      0x00\n      keccak256\n      0x00\n        /* \"importControl.sol\":2983:3019  authorisedVerifiers[verifier] = true */\n      0x0100\n      exp\n      dup2\n      sload\n      dup2\n      0xff\n      mul\n      not\n      and\n      swap1\n      dup4\n      iszero\n      iszero\n      mul\n      or\n      swap1\n      sstore\n      pop\n        /* \"importControl.sol\":2909:3027  function addVerifier(address verifier) public onlyManufacturer {... */\n      pop\n      jump\t// out\n        /* \"importControl.sol\":1455:2023  function register(uint256 tokenId, string memory qrCode) public onlyManufacturer {... */\n    tag_42:\n        /* \"importControl.sol\":855:867  manufacturer */\n      0x01\n      0x00\n      swap1\n      sload\n      swap1\n      0x0100\n      exp\n      swap1\n      div\n      0xffffffffffffffffffffffffffffffffffffffff\n      and\n        /* \"importControl.sol\":841:867  msg.sender == manufacturer */\n      0xffffffffffffffffffffffffffffffffffffffff\n      and\n        /* \"importControl.sol\":841:851  msg.sender */\n      caller\n        /* \"importControl.sol\":841:867  msg.sender == manufacturer */\n      0xffffffffffffffffffffffffffffffffffffffff\n      and\n      eq\n        /* \"importControl.sol\":833:898  require(msg.sender == manufacturer, \"Only manufacturer can call\") */\n      tag_96\n      jumpi\n      mload(0x40)\n      0x08c379a000000000000000000000000000000000000000000000000000000000\n      dup2\n      mstore\n      0x04\n      add\n      tag_97\n      swap1\n      tag_63\n      jump\t// in\n    tag_97:\n      mload(0x40)\n      dup1\n      swap2\n      sub\n      swap1\n      revert\n    tag_96:\n        /* \"importControl.sol\":1584:1585  0 */\n      0x00\n        /* \"importControl.sol\":1555:1563  products */\n      0x03\n        /* \"importControl.sol\":1555:1572  products[tokenId] */\n      0x00\n        /* \"importControl.sol\":1564:1571  tokenId */\n      dup5\n        /* \"importControl.sol\":1555:1572  products[tokenId] */\n      dup2\n      mstore\n      0x20\n      add\n      swap1\n      dup2\n      mstore\n      0x20\n      add\n      0x00\n      keccak256\n        /* \"importControl.sol\":1555:1580  products[tokenId].tokenID */\n      0x00\n      add\n      sload\n        /* \"importControl.sol\":1555:1585  products[tokenId].tokenID == 0 */\n      eq\n        /* \"importControl.sol\":1547:1608  require(products[tokenId].tokenID == 0, \"Already registered\") */\n      tag_99\n      jumpi\n      mload(0x40)\n      0x08c379a000000000000000000000000000000000000000000000000000000000\n      dup2\n      mstore\n      0x04\n      add\n      tag_100\n      swap1\n      tag_101\n      jump\t// in\n    tag_100:\n      mload(0x40)\n      dup1\n      swap2\n      sub\n      swap1\n      revert\n    tag_99:\n        /* \"importControl.sol\":1619:1639  address currentOwner */\n      0x00\n        /* \"importControl.sol\":1642:1654  mintContract */\n      dup1\n      0x00\n      swap1\n      sload\n      swap1\n      0x0100\n      exp\n      swap1\n      div\n      0xffffffffffffffffffffffffffffffffffffffff\n      and\n        /* \"importControl.sol\":1642:1662  mintContract.ownerOf */\n      0xffffffffffffffffffffffffffffffffffffffff\n      and\n      0x6352211e\n        /* \"importControl.sol\":1663:1670  tokenId */\n      dup5\n        /* \"importControl.sol\":1642:1671  mintContract.ownerOf(tokenId) */\n      mload(0x40)\n      dup3\n      0xffffffff\n      and\n      0xe0\n      shl\n      dup2\n      mstore\n      0x04\n      add\n      tag_102\n      swap2\n      swap1\n      tag_103\n      jump\t// in\n    tag_102:\n      0x20\n      mload(0x40)\n      dup1\n      dup4\n      sub\n      dup2\n      dup7\n      gas\n      staticcall\n      iszero\n      dup1\n      iszero\n      tag_105\n      jumpi\n      returndatasize\n      0x00\n      dup1\n      returndatacopy\n      revert(0x00, returndatasize)\n    tag_105:\n      pop\n      pop\n      pop\n      pop\n      mload(0x40)\n      returndatasize\n      not(0x1f)\n      0x1f\n      dup3\n      add\n      and\n      dup3\n      add\n      dup1\n      0x40\n      mstore\n      pop\n      dup2\n      add\n      swap1\n      tag_106\n      swap2\n      swap1\n      tag_107\n      jump\t// in\n    tag_106:\n        /* \"importControl.sol\":1619:1671  address currentOwner = mintContract.ownerOf(tokenId) */\n      swap1\n      pop\n        /* \"importControl.sol\":1704:1895  Product({... */\n      mload(0x40)\n      dup1\n      0xa0\n      add\n      0x40\n      mstore\n      dup1\n        /* \"importControl.sol\":1736:1743  tokenId */\n      dup5\n        /* \"importControl.sol\":1704:1895  Product({... */\n      dup2\n      mstore\n      0x20\n      add\n        /* \"importControl.sol\":1766:1772  qrCode */\n      dup4\n        /* \"importControl.sol\":1704:1895  Product({... */\n      dup2\n      mstore\n      0x20\n      add\n        /* \"importControl.sol\":1797:1802  false */\n      0x00\n        /* \"importControl.sol\":1704:1895  Product({... */\n      iszero\n      iszero\n      dup2\n      mstore\n      0x20\n      add\n        /* \"importControl.sol\":1831:1843  currentOwner */\n      dup3\n        /* \"importControl.sol\":1704:1895  Product({... */\n      0xffffffffffffffffffffffffffffffffffffffff\n      and\n      dup2\n      mstore\n      0x20\n      add\n        /* \"importControl.sol\":1881:1882  0 */\n      0x00\n        /* \"importControl.sol\":1867:1883  new address[](0) */\n      0xffffffffffffffff\n      dup2\n      gt\n      iszero\n      tag_108\n      jumpi\n      tag_109\n      tag_110\n      jump\t// in\n    tag_109:\n    tag_108:\n      mload(0x40)\n      swap1\n      dup1\n      dup3\n      mstore\n      dup1\n      0x20\n      mul\n      0x20\n      add\n      dup3\n      add\n      0x40\n      mstore\n      dup1\n      iszero\n      tag_111\n      jumpi\n      dup2\n      0x20\n      add\n      0x20\n      dup3\n      mul\n      dup1\n      calldatasize\n      dup4\n      calldatacopy\n      dup1\n      dup3\n      add\n      swap2\n      pop\n      pop\n      swap1\n      pop\n    tag_111:\n      pop\n        /* \"importControl.sol\":1704:1895  Product({... */\n      dup2\n      mstore\n      pop\n        /* \"importControl.sol\":1684:1692  products */\n      0x03\n        /* \"importControl.sol\":1684:1701  products[tokenId] */\n      0x00\n        /* \"importControl.sol\":1693:1700  tokenId */\n      dup6\n        /* \"importControl.sol\":1684:1701  products[tokenId] */\n      dup2\n      mstore\n      0x20\n      add\n      swap1\n      dup2\n      mstore\n      0x20\n      add\n      0x00\n      keccak256\n        /* \"importControl.sol\":1684:1895  products[tokenId] = Product({... */\n      0x00\n      dup3\n      add\n      mload\n      dup2\n      0x00\n      add\n      sstore\n      0x20\n      dup3\n      add\n      mload\n      dup2\n      0x01\n      add\n      swap1\n      dup2\n      tag_112\n      swap2\n      swap1\n      tag_113\n      jump\t// in\n    tag_112:\n      pop\n      0x40\n      dup3\n      add\n      mload\n      dup2\n      0x02\n      add\n      exp(0x0100, 0x00)\n      dup2\n      sload\n      dup2\n      0xff\n      mul\n      not\n      and\n      swap1\n      dup4\n      iszero\n      iszero\n      mul\n      or\n      swap1\n      sstore\n      pop\n      0x60\n      dup3\n      add\n      mload\n      dup2\n      0x02\n      add\n      exp(0x0100, 0x01)\n      dup2\n      sload\n      dup2\n      0xffffffffffffffffffffffffffffffffffffffff\n      mul\n      not\n      and\n      swap1\n      dup4\n      0xffffffffffffffffffffffffffffffffffffffff\n      and\n      mul\n      or\n      swap1\n      sstore\n      pop\n      0x80\n      dup3\n      add\n      mload\n      dup2\n      0x03\n      add\n      swap1\n      dup1\n      mload\n      swap1\n      0x20\n      add\n      swap1\n      tag_114\n      swap3\n      swap2\n      swap1\n      tag_115\n      jump\t// in\n    tag_114:\n      pop\n      swap1\n      pop\n      pop\n        /* \"importControl.sol\":1937:1949  currentOwner */\n      dup1\n        /* \"importControl.sol\":1906:1914  products */\n      0x03\n        /* \"importControl.sol\":1906:1923  products[tokenId] */\n      0x00\n        /* \"importControl.sol\":1915:1922  tokenId */\n      dup6\n        /* \"importControl.sol\":1906:1923  products[tokenId] */\n      dup2\n      mstore\n      0x20\n      add\n      swap1\n      dup2\n      mstore\n      0x20\n      add\n      0x00\n      keccak256\n        /* \"importControl.sol\":1906:1931  products[tokenId].history */\n      0x03\n      add\n        /* \"importControl.sol\":1932:1933  0 */\n      0x00\n        /* \"importControl.sol\":1906:1934  products[tokenId].history[0] */\n      dup2\n      sload\n      dup2\n      lt\n      tag_116\n      jumpi\n      tag_117\n      tag_118\n      jump\t// in\n    tag_117:\n    tag_116:\n      swap1\n      0x00\n      mstore\n      keccak256(0x00, 0x20)\n      add\n      0x00\n        /* \"importControl.sol\":1906:1949  products[tokenId].history[0] = currentOwner */\n      0x0100\n      exp\n      dup2\n      sload\n      dup2\n      0xffffffffffffffffffffffffffffffffffffffff\n      mul\n      not\n      and\n      swap1\n      dup4\n      0xffffffffffffffffffffffffffffffffffffffff\n      and\n      mul\n      or\n      swap1\n      sstore\n      pop\n        /* \"importControl.sol\":1967:2015  ProductRegistered(tokenId, qrCode, currentOwner) */\n      0xd810998a0248808a33b20218e71759cb2ec1a182b398350ad606d742587c012c\n        /* \"importControl.sol\":1985:1992  tokenId */\n      dup4\n        /* \"importControl.sol\":1994:2000  qrCode */\n      dup4\n        /* \"importControl.sol\":2002:2014  currentOwner */\n      dup4\n        /* \"importControl.sol\":1967:2015  ProductRegistered(tokenId, qrCode, currentOwner) */\n      mload(0x40)\n      tag_120\n      swap4\n      swap3\n      swap2\n      swap1\n      tag_121\n      jump\t// in\n    tag_120:\n      mload(0x40)\n      dup1\n      swap2\n      sub\n      swap1\n      log1\n        /* \"importControl.sol\":1536:2023  {... */\n      pop\n        /* \"importControl.sol\":1455:2023  function register(uint256 tokenId, string memory qrCode) public onlyManufacturer {... */\n      pop\n      pop\n      jump\t// out\n        /* \"importControl.sol\":2696:2901  function getHistory(uint256 tokenId) external view returns (address[] memory) {... */\n    tag_45:\n        /* \"importControl.sol\":2756:2772  address[] memory */\n      0x60\n        /* \"importControl.sol\":2822:2823  0 */\n      0x00\n        /* \"importControl.sol\":2793:2801  products */\n      0x03\n        /* \"importControl.sol\":2793:2810  products[tokenId] */\n      0x00\n        /* \"importControl.sol\":2802:2809  tokenId */\n      dup5\n        /* \"importControl.sol\":2793:2810  products[tokenId] */\n      dup2\n      mstore\n      0x20\n      add\n      swap1\n      dup2\n      mstore\n      0x20\n      add\n      0x00\n      keccak256\n        /* \"importControl.sol\":2793:2818  products[tokenId].tokenID */\n      0x00\n      add\n      sload\n        /* \"importControl.sol\":2793:2823  products[tokenId].tokenID != 0 */\n      sub\n        /* \"importControl.sol\":2785:2850  require(products[tokenId].tokenID != 0, \"Product not registered\") */\n      tag_123\n      jumpi\n      mload(0x40)\n      0x08c379a000000000000000000000000000000000000000000000000000000000\n      dup2\n      mstore\n      0x04\n      add\n      tag_124\n      swap1\n      tag_72\n      jump\t// in\n    tag_124:\n      mload(0x40)\n      dup1\n      swap2\n      sub\n      swap1\n      revert\n    tag_123:\n        /* \"importControl.sol\":2868:2876  products */\n      0x03\n        /* \"importControl.sol\":2868:2885  products[tokenId] */\n      0x00\n        /* \"importControl.sol\":2877:2884  tokenId */\n      dup4\n        /* \"importControl.sol\":2868:2885  products[tokenId] */\n      dup2\n      mstore\n      0x20\n      add\n      swap1\n      dup2\n      mstore\n      0x20\n      add\n      0x00\n      keccak256\n        /* \"importControl.sol\":2868:2893  products[tokenId].history */\n      0x03\n      add\n        /* \"importControl.sol\":2861:2893  return products[tokenId].history */\n      dup1\n      sload\n      dup1\n      0x20\n      mul\n      0x20\n      add\n      mload(0x40)\n      swap1\n      dup2\n      add\n      0x40\n      mstore\n      dup1\n      swap3\n      swap2\n      swap1\n      dup2\n      dup2\n      mstore\n      0x20\n      add\n      dup3\n      dup1\n      sload\n      dup1\n      iszero\n      tag_125\n      jumpi\n      0x20\n      mul\n      dup3\n      add\n      swap2\n      swap1\n      0x00\n      mstore\n      keccak256(0x00, 0x20)\n      swap1\n    tag_126:\n      dup2\n      0x00\n      swap1\n      sload\n      swap1\n      0x0100\n      exp\n      swap1\n      div\n      0xffffffffffffffffffffffffffffffffffffffff\n      and\n      0xffffffffffffffffffffffffffffffffffffffff\n      and\n      dup2\n      mstore\n      0x20\n      add\n      swap1\n      0x01\n      add\n      swap1\n      dup1\n      dup4\n      gt\n      tag_126\n      jumpi\n    tag_125:\n      pop\n      pop\n      pop\n      pop\n      pop\n      swap1\n      pop\n        /* \"importControl.sol\":2696:2901  function getHistory(uint256 tokenId) external view returns (address[] memory) {... */\n      swap2\n      swap1\n      pop\n      jump\t// out\n        /* \"importControl.sol\":194:225  ISimpleMint public mintContract */\n    tag_49:\n      0x00\n      dup1\n      sload\n      swap1\n      0x0100\n      exp\n      swap1\n      div\n      0xffffffffffffffffffffffffffffffffffffffff\n      and\n      dup2\n      jump\t// out\n        /* \"importControl.sol\":266:293  address public saleContract */\n    tag_53:\n      0x02\n      0x00\n      swap1\n      sload\n      swap1\n      0x0100\n      exp\n      swap1\n      div\n      0xffffffffffffffffffffffffffffffffffffffff\n      and\n      dup2\n      jump\t// out\n        /* \"importControl.sol\":516:567  mapping(address => bool) public authorisedVerifiers */\n    tag_57:\n      mstore(0x20, 0x04)\n      dup1\n      0x00\n      mstore\n      keccak256(0x00, 0x40)\n      0x00\n      swap2\n      pop\n      sload\n      swap1\n      0x0100\n      exp\n      swap1\n      div\n      0xff\n      and\n      dup2\n      jump\t// out\n    tag_115:\n      dup3\n      dup1\n      sload\n      dup3\n      dup3\n      sstore\n      swap1\n      0x00\n      mstore\n      keccak256(0x00, 0x20)\n      swap1\n      dup2\n      add\n      swap3\n      dup3\n      iszero\n      tag_127\n      jumpi\n      swap2\n      0x20\n      mul\n      dup3\n      add\n    tag_128:\n      dup3\n      dup2\n      gt\n      iszero\n      tag_129\n      jumpi\n      dup3\n      mload\n      dup3\n      exp(0x0100, 0x00)\n      dup2\n      sload\n      dup2\n      0xffffffffffffffffffffffffffffffffffffffff\n      mul\n      not\n      and\n      swap1\n      dup4\n      0xffffffffffffffffffffffffffffffffffffffff\n      and\n      mul\n      or\n      swap1\n      sstore\n      pop\n      swap2\n      0x20\n      add\n      swap2\n      swap1\n      0x01\n      add\n      swap1\n      jump(tag_128)\n    tag_129:\n    tag_127:\n      pop\n      swap1\n      pop\n      tag_130\n      swap2\n      swap1\n      tag_131\n      jump\t// in\n    tag_130:\n      pop\n      swap1\n      jump\t// out\n    tag_131:\n    tag_132:\n      dup1\n      dup3\n      gt\n      iszero\n      tag_133\n      jumpi\n      0x00\n      dup2\n      0x00\n      swap1\n      sstore\n      pop\n      0x01\n      add\n      jump(tag_132)\n    tag_133:\n      pop\n      swap1\n      jump\t// out\n        /* \"#utility.yul\":7:82   */\n    tag_134:\n        /* \"#utility.yul\":40:46   */\n      0x00\n        /* \"#utility.yul\":73:75   */\n      0x40\n        /* \"#utility.yul\":67:76   */\n      mload\n        /* \"#utility.yul\":57:76   */\n      swap1\n      pop\n        /* \"#utility.yul\":7:82   */\n      swap1\n      jump\t// out\n        /* \"#utility.yul\":88:205   */\n    tag_135:\n        /* \"#utility.yul\":197:198   */\n      0x00\n        /* \"#utility.yul\":194:195   */\n      dup1\n        /* \"#utility.yul\":187:199   */\n      revert\n        /* \"#utility.yul\":211:328   */\n    tag_136:\n        /* \"#utility.yul\":320:321   */\n      0x00\n        /* \"#utility.yul\":317:318   */\n      dup1\n        /* \"#utility.yul\":310:322   */\n      revert\n        /* \"#utility.yul\":334:460   */\n    tag_137:\n        /* \"#utility.yul\":371:378   */\n      0x00\n        /* \"#utility.yul\":411:453   */\n      0xffffffffffffffffffffffffffffffffffffffff\n        /* \"#utility.yul\":404:409   */\n      dup3\n        /* \"#utility.yul\":400:454   */\n      and\n        /* \"#utility.yul\":389:454   */\n      swap1\n      pop\n        /* \"#utility.yul\":334:460   */\n      swap2\n      swap1\n      pop\n      jump\t// out\n        /* \"#utility.yul\":466:562   */\n    tag_138:\n        /* \"#utility.yul\":503:510   */\n      0x00\n        /* \"#utility.yul\":532:556   */\n      tag_205\n        /* \"#utility.yul\":550:555   */\n      dup3\n        /* \"#utility.yul\":532:556   */\n      tag_137\n      jump\t// in\n    tag_205:\n        /* \"#utility.yul\":521:556   */\n      swap1\n      pop\n        /* \"#utility.yul\":466:562   */\n      swap2\n      swap1\n      pop\n      jump\t// out\n        /* \"#utility.yul\":568:690   */\n    tag_139:\n        /* \"#utility.yul\":641:665   */\n      tag_207\n        /* \"#utility.yul\":659:664   */\n      dup2\n        /* \"#utility.yul\":641:665   */\n      tag_138\n      jump\t// in\n    tag_207:\n        /* \"#utility.yul\":634:639   */\n      dup2\n        /* \"#utility.yul\":631:666   */\n      eq\n        /* \"#utility.yul\":621:684   */\n      tag_208\n      jumpi\n        /* \"#utility.yul\":680:681   */\n      0x00\n        /* \"#utility.yul\":677:678   */\n      dup1\n        /* \"#utility.yul\":670:682   */\n      revert\n        /* \"#utility.yul\":621:684   */\n    tag_208:\n        /* \"#utility.yul\":568:690   */\n      pop\n      jump\t// out\n        /* \"#utility.yul\":696:835   */\n    tag_140:\n        /* \"#utility.yul\":742:747   */\n      0x00\n        /* \"#utility.yul\":780:786   */\n      dup2\n        /* \"#utility.yul\":767:787   */\n      calldataload\n        /* \"#utility.yul\":758:787   */\n      swap1\n      pop\n        /* \"#utility.yul\":796:829   */\n      tag_210\n        /* \"#utility.yul\":823:828   */\n      dup2\n        /* \"#utility.yul\":796:829   */\n      tag_139\n      jump\t// in\n    tag_210:\n        /* \"#utility.yul\":696:835   */\n      swap3\n      swap2\n      pop\n      pop\n      jump\t// out\n        /* \"#utility.yul\":841:1170   */\n    tag_17:\n        /* \"#utility.yul\":900:906   */\n      0x00\n        /* \"#utility.yul\":949:951   */\n      0x20\n        /* \"#utility.yul\":937:946   */\n      dup3\n        /* \"#utility.yul\":928:935   */\n      dup5\n        /* \"#utility.yul\":924:947   */\n      sub\n        /* \"#utility.yul\":920:952   */\n      slt\n        /* \"#utility.yul\":917:1036   */\n      iszero\n      tag_212\n      jumpi\n        /* \"#utility.yul\":955:1034   */\n      tag_213\n      tag_135\n      jump\t// in\n    tag_213:\n        /* \"#utility.yul\":917:1036   */\n    tag_212:\n        /* \"#utility.yul\":1075:1076   */\n      0x00\n        /* \"#utility.yul\":1100:1153   */\n      tag_214\n        /* \"#utility.yul\":1145:1152   */\n      dup5\n        /* \"#utility.yul\":1136:1142   */\n      dup3\n        /* \"#utility.yul\":1125:1134   */\n      dup6\n        /* \"#utility.yul\":1121:1143   */\n      add\n        /* \"#utility.yul\":1100:1153   */\n      tag_140\n      jump\t// in\n    tag_214:\n        /* \"#utility.yul\":1090:1153   */\n      swap2\n      pop\n        /* \"#utility.yul\":1046:1163   */\n      pop\n        /* \"#utility.yul\":841:1170   */\n      swap3\n      swap2\n      pop\n      pop\n      jump\t// out\n        /* \"#utility.yul\":1176:1253   */\n    tag_141:\n        /* \"#utility.yul\":1213:1220   */\n      0x00\n        /* \"#utility.yul\":1242:1247   */\n      dup2\n        /* \"#utility.yul\":1231:1247   */\n      swap1\n      pop\n        /* \"#utility.yul\":1176:1253   */\n      swap2\n      swap1\n      pop\n      jump\t// out\n        /* \"#utility.yul\":1259:1381   */\n    tag_142:\n        /* \"#utility.yul\":1332:1356   */\n      tag_217\n        /* \"#utility.yul\":1350:1355   */\n      dup2\n        /* \"#utility.yul\":1332:1356   */\n      tag_141\n      jump\t// in\n    tag_217:\n        /* \"#utility.yul\":1325:1330   */\n      dup2\n        /* \"#utility.yul\":1322:1357   */\n      eq\n        /* \"#utility.yul\":1312:1375   */\n      tag_218\n      jumpi\n        /* \"#utility.yul\":1371:1372   */\n      0x00\n        /* \"#utility.yul\":1368:1369   */\n      dup1\n        /* \"#utility.yul\":1361:1373   */\n      revert\n        /* \"#utility.yul\":1312:1375   */\n    tag_218:\n        /* \"#utility.yul\":1259:1381   */\n      pop\n      jump\t// out\n        /* \"#utility.yul\":1387:1526   */\n    tag_143:\n        /* \"#utility.yul\":1433:1438   */\n      0x00\n        /* \"#utility.yul\":1471:1477   */\n      dup2\n        /* \"#utility.yul\":1458:1478   */\n      calldataload\n        /* \"#utility.yul\":1449:1478   */\n      swap1\n      pop\n        /* \"#utility.yul\":1487:1520   */\n      tag_220\n        /* \"#utility.yul\":1514:1519   */\n      dup2\n        /* \"#utility.yul\":1487:1520   */\n      tag_142\n      jump\t// in\n    tag_220:\n        /* \"#utility.yul\":1387:1526   */\n      swap3\n      swap2\n      pop\n      pop\n      jump\t// out\n        /* \"#utility.yul\":1532:2006   */\n    tag_21:\n        /* \"#utility.yul\":1600:1606   */\n      0x00\n        /* \"#utility.yul\":1608:1614   */\n      dup1\n        /* \"#utility.yul\":1657:1659   */\n      0x40\n        /* \"#utility.yul\":1645:1654   */\n      dup4\n        /* \"#utility.yul\":1636:1643   */\n      dup6\n        /* \"#utility.yul\":1632:1655   */\n      sub\n        /* \"#utility.yul\":1628:1660   */\n      slt\n        /* \"#utility.yul\":1625:1744   */\n      iszero\n      tag_222\n      jumpi\n        /* \"#utility.yul\":1663:1742   */\n      tag_223\n      tag_135\n      jump\t// in\n    tag_223:\n        /* \"#utility.yul\":1625:1744   */\n    tag_222:\n        /* \"#utility.yul\":1783:1784   */\n      0x00\n        /* \"#utility.yul\":1808:1861   */\n      tag_224\n        /* \"#utility.yul\":1853:1860   */\n      dup6\n        /* \"#utility.yul\":1844:1850   */\n      dup3\n        /* \"#utility.yul\":1833:1842   */\n      dup7\n        /* \"#utility.yul\":1829:1851   */\n      add\n        /* \"#utility.yul\":1808:1861   */\n      tag_143\n      jump\t// in\n    tag_224:\n        /* \"#utility.yul\":1798:1861   */\n      swap3\n      pop\n        /* \"#utility.yul\":1754:1871   */\n      pop\n        /* \"#utility.yul\":1910:1912   */\n      0x20\n        /* \"#utility.yul\":1936:1989   */\n      tag_225\n        /* \"#utility.yul\":1981:1988   */\n      dup6\n        /* \"#utility.yul\":1972:1978   */\n      dup3\n        /* \"#utility.yul\":1961:1970   */\n      dup7\n        /* \"#utility.yul\":1957:1979   */\n      add\n        /* \"#utility.yul\":1936:1989   */\n      tag_140\n      jump\t// in\n    tag_225:\n        /* \"#utility.yul\":1926:1989   */\n      swap2\n      pop\n        /* \"#utility.yul\":1881:1999   */\n      pop\n        /* \"#utility.yul\":1532:2006   */\n      swap3\n      pop\n      swap3\n      swap1\n      pop\n      jump\t// out\n        /* \"#utility.yul\":2012:2130   */\n    tag_144:\n        /* \"#utility.yul\":2099:2123   */\n      tag_227\n        /* \"#utility.yul\":2117:2122   */\n      dup2\n        /* \"#utility.yul\":2099:2123   */\n      tag_138\n      jump\t// in\n    tag_227:\n        /* \"#utility.yul\":2094:2097   */\n      dup3\n        /* \"#utility.yul\":2087:2124   */\n      mstore\n        /* \"#utility.yul\":2012:2130   */\n      pop\n      pop\n      jump\t// out\n        /* \"#utility.yul\":2136:2358   */\n    tag_26:\n        /* \"#utility.yul\":2229:2233   */\n      0x00\n        /* \"#utility.yul\":2267:2269   */\n      0x20\n        /* \"#utility.yul\":2256:2265   */\n      dup3\n        /* \"#utility.yul\":2252:2270   */\n      add\n        /* \"#utility.yul\":2244:2270   */\n      swap1\n      pop\n        /* \"#utility.yul\":2280:2351   */\n      tag_229\n        /* \"#utility.yul\":2348:2349   */\n      0x00\n        /* \"#utility.yul\":2337:2346   */\n      dup4\n        /* \"#utility.yul\":2333:2350   */\n      add\n        /* \"#utility.yul\":2324:2330   */\n      dup5\n        /* \"#utility.yul\":2280:2351   */\n      tag_144\n      jump\t// in\n    tag_229:\n        /* \"#utility.yul\":2136:2358   */\n      swap3\n      swap2\n      pop\n      pop\n      jump\t// out\n        /* \"#utility.yul\":2364:2693   */\n    tag_29:\n        /* \"#utility.yul\":2423:2429   */\n      0x00\n        /* \"#utility.yul\":2472:2474   */\n      0x20\n        /* \"#utility.yul\":2460:2469   */\n      dup3\n        /* \"#utility.yul\":2451:2458   */\n      dup5\n        /* \"#utility.yul\":2447:2470   */\n      sub\n        /* \"#utility.yul\":2443:2475   */\n      slt\n        /* \"#utility.yul\":2440:2559   */\n      iszero\n      tag_231\n      jumpi\n        /* \"#utility.yul\":2478:2557   */\n      tag_232\n      tag_135\n      jump\t// in\n    tag_232:\n        /* \"#utility.yul\":2440:2559   */\n    tag_231:\n        /* \"#utility.yul\":2598:2599   */\n      0x00\n        /* \"#utility.yul\":2623:2676   */\n      tag_233\n        /* \"#utility.yul\":2668:2675   */\n      dup5\n        /* \"#utility.yul\":2659:2665   */\n      dup3\n        /* \"#utility.yul\":2648:2657   */\n      dup6\n        /* \"#utility.yul\":2644:2666   */\n      add\n        /* \"#utility.yul\":2623:2676   */\n      tag_143\n      jump\t// in\n    tag_233:\n        /* \"#utility.yul\":2613:2676   */\n      swap2\n      pop\n        /* \"#utility.yul\":2569:2686   */\n      pop\n        /* \"#utility.yul\":2364:2693   */\n      swap3\n      swap2\n      pop\n      pop\n      jump\t// out\n        /* \"#utility.yul\":2699:2817   */\n    tag_145:\n        /* \"#utility.yul\":2786:2810   */\n      tag_235\n        /* \"#utility.yul\":2804:2809   */\n      dup2\n        /* \"#utility.yul\":2786:2810   */\n      tag_141\n      jump\t// in\n    tag_235:\n        /* \"#utility.yul\":2781:2784   */\n      dup3\n        /* \"#utility.yul\":2774:2811   */\n      mstore\n        /* \"#utility.yul\":2699:2817   */\n      pop\n      pop\n      jump\t// out\n        /* \"#utility.yul\":2823:2922   */\n    tag_146:\n        /* \"#utility.yul\":2875:2881   */\n      0x00\n        /* \"#utility.yul\":2909:2914   */\n      dup2\n        /* \"#utility.yul\":2903:2915   */\n      mload\n        /* \"#utility.yul\":2893:2915   */\n      swap1\n      pop\n        /* \"#utility.yul\":2823:2922   */\n      swap2\n      swap1\n      pop\n      jump\t// out\n        /* \"#utility.yul\":2928:3097   */\n    tag_147:\n        /* \"#utility.yul\":3012:3023   */\n      0x00\n        /* \"#utility.yul\":3046:3052   */\n      dup3\n        /* \"#utility.yul\":3041:3044   */\n      dup3\n        /* \"#utility.yul\":3034:3053   */\n      mstore\n        /* \"#utility.yul\":3086:3090   */\n      0x20\n        /* \"#utility.yul\":3081:3084   */\n      dup3\n        /* \"#utility.yul\":3077:3091   */\n      add\n        /* \"#utility.yul\":3062:3091   */\n      swap1\n      pop\n        /* \"#utility.yul\":2928:3097   */\n      swap3\n      swap2\n      pop\n      pop\n      jump\t// out\n        /* \"#utility.yul\":3103:3242   */\n    tag_148:\n        /* \"#utility.yul\":3192:3198   */\n      dup3\n        /* \"#utility.yul\":3187:3190   */\n      dup2\n        /* \"#utility.yul\":3182:3185   */\n      dup4\n        /* \"#utility.yul\":3176:3199   */\n      mcopy\n        /* \"#utility.yul\":3233:3234   */\n      0x00\n        /* \"#utility.yul\":3224:3230   */\n      dup4\n        /* \"#utility.yul\":3219:3222   */\n      dup4\n        /* \"#utility.yul\":3215:3231   */\n      add\n        /* \"#utility.yul\":3208:3235   */\n      mstore\n        /* \"#utility.yul\":3103:3242   */\n      pop\n      pop\n      pop\n      jump\t// out\n        /* \"#utility.yul\":3248:3350   */\n    tag_149:\n        /* \"#utility.yul\":3289:3295   */\n      0x00\n        /* \"#utility.yul\":3340:3342   */\n      0x1f\n        /* \"#utility.yul\":3336:3343   */\n      not\n        /* \"#utility.yul\":3331:3333   */\n      0x1f\n        /* \"#utility.yul\":3324:3329   */\n      dup4\n        /* \"#utility.yul\":3320:3334   */\n      add\n        /* \"#utility.yul\":3316:3344   */\n      and\n        /* \"#utility.yul\":3306:3344   */\n      swap1\n      pop\n        /* \"#utility.yul\":3248:3350   */\n      swap2\n      swap1\n      pop\n      jump\t// out\n        /* \"#utility.yul\":3356:3733   */\n    tag_150:\n        /* \"#utility.yul\":3444:3447   */\n      0x00\n        /* \"#utility.yul\":3472:3511   */\n      tag_241\n        /* \"#utility.yul\":3505:3510   */\n      dup3\n        /* \"#utility.yul\":3472:3511   */\n      tag_146\n      jump\t// in\n    tag_241:\n        /* \"#utility.yul\":3527:3598   */\n      tag_242\n        /* \"#utility.yul\":3591:3597   */\n      dup2\n        /* \"#utility.yul\":3586:3589   */\n      dup6\n        /* \"#utility.yul\":3527:3598   */\n      tag_147\n      jump\t// in\n    tag_242:\n        /* \"#utility.yul\":3520:3598   */\n      swap4\n      pop\n        /* \"#utility.yul\":3607:3672   */\n      tag_243\n        /* \"#utility.yul\":3665:3671   */\n      dup2\n        /* \"#utility.yul\":3660:3663   */\n      dup6\n        /* \"#utility.yul\":3653:3657   */\n      0x20\n        /* \"#utility.yul\":3646:3651   */\n      dup7\n        /* \"#utility.yul\":3642:3658   */\n      add\n        /* \"#utility.yul\":3607:3672   */\n      tag_148\n      jump\t// in\n    tag_243:\n        /* \"#utility.yul\":3697:3726   */\n      tag_244\n        /* \"#utility.yul\":3719:3725   */\n      dup2\n        /* \"#utility.yul\":3697:3726   */\n      tag_149\n      jump\t// in\n    tag_244:\n        /* \"#utility.yul\":3692:3695   */\n      dup5\n        /* \"#utility.yul\":3688:3727   */\n      add\n        /* \"#utility.yul\":3681:3727   */\n      swap2\n      pop\n        /* \"#utility.yul\":3448:3733   */\n      pop\n        /* \"#utility.yul\":3356:3733   */\n      swap3\n      swap2\n      pop\n      pop\n      jump\t// out\n        /* \"#utility.yul\":3739:3829   */\n    tag_151:\n        /* \"#utility.yul\":3773:3780   */\n      0x00\n        /* \"#utility.yul\":3816:3821   */\n      dup2\n        /* \"#utility.yul\":3809:3822   */\n      iszero\n        /* \"#utility.yul\":3802:3823   */\n      iszero\n        /* \"#utility.yul\":3791:3823   */\n      swap1\n      pop\n        /* \"#utility.yul\":3739:3829   */\n      swap2\n      swap1\n      pop\n      jump\t// out\n        /* \"#utility.yul\":3835:3944   */\n    tag_152:\n        /* \"#utility.yul\":3916:3937   */\n      tag_247\n        /* \"#utility.yul\":3931:3936   */\n      dup2\n        /* \"#utility.yul\":3916:3937   */\n      tag_151\n      jump\t// in\n    tag_247:\n        /* \"#utility.yul\":3911:3914   */\n      dup3\n        /* \"#utility.yul\":3904:3938   */\n      mstore\n        /* \"#utility.yul\":3835:3944   */\n      pop\n      pop\n      jump\t// out\n        /* \"#utility.yul\":3950:4582   */\n    tag_32:\n        /* \"#utility.yul\":4141:4145   */\n      0x00\n        /* \"#utility.yul\":4179:4182   */\n      0x80\n        /* \"#utility.yul\":4168:4177   */\n      dup3\n        /* \"#utility.yul\":4164:4183   */\n      add\n        /* \"#utility.yul\":4156:4183   */\n      swap1\n      pop\n        /* \"#utility.yul\":4193:4264   */\n      tag_249\n        /* \"#utility.yul\":4261:4262   */\n      0x00\n        /* \"#utility.yul\":4250:4259   */\n      dup4\n        /* \"#utility.yul\":4246:4263   */\n      add\n        /* \"#utility.yul\":4237:4243   */\n      dup8\n        /* \"#utility.yul\":4193:4264   */\n      tag_145\n      jump\t// in\n    tag_249:\n        /* \"#utility.yul\":4311:4320   */\n      dup2\n        /* \"#utility.yul\":4305:4309   */\n      dup2\n        /* \"#utility.yul\":4301:4321   */\n      sub\n        /* \"#utility.yul\":4296:4298   */\n      0x20\n        /* \"#utility.yul\":4285:4294   */\n      dup4\n        /* \"#utility.yul\":4281:4299   */\n      add\n        /* \"#utility.yul\":4274:4322   */\n      mstore\n        /* \"#utility.yul\":4339:4417   */\n      tag_250\n        /* \"#utility.yul\":4412:4416   */\n      dup2\n        /* \"#utility.yul\":4403:4409   */\n      dup7\n        /* \"#utility.yul\":4339:4417   */\n      tag_150\n      jump\t// in\n    tag_250:\n        /* \"#utility.yul\":4331:4417   */\n      swap1\n      pop\n        /* \"#utility.yul\":4427:4493   */\n      tag_251\n        /* \"#utility.yul\":4489:4491   */\n      0x40\n        /* \"#utility.yul\":4478:4487   */\n      dup4\n        /* \"#utility.yul\":4474:4492   */\n      add\n        /* \"#utility.yul\":4465:4471   */\n      dup6\n        /* \"#utility.yul\":4427:4493   */\n      tag_152\n      jump\t// in\n    tag_251:\n        /* \"#utility.yul\":4503:4575   */\n      tag_252\n        /* \"#utility.yul\":4571:4573   */\n      0x60\n        /* \"#utility.yul\":4560:4569   */\n      dup4\n        /* \"#utility.yul\":4556:4574   */\n      add\n        /* \"#utility.yul\":4547:4553   */\n      dup5\n        /* \"#utility.yul\":4503:4575   */\n      tag_144\n      jump\t// in\n    tag_252:\n        /* \"#utility.yul\":3950:4582   */\n      swap6\n      swap5\n      pop\n      pop\n      pop\n      pop\n      pop\n      jump\t// out\n        /* \"#utility.yul\":4588:4705   */\n    tag_153:\n        /* \"#utility.yul\":4697:4698   */\n      0x00\n        /* \"#utility.yul\":4694:4695   */\n      dup1\n        /* \"#utility.yul\":4687:4699   */\n      revert\n        /* \"#utility.yul\":4711:4828   */\n    tag_154:\n        /* \"#utility.yul\":4820:4821   */\n      0x00\n        /* \"#utility.yul\":4817:4818   */\n      dup1\n        /* \"#utility.yul\":4810:4822   */\n      revert\n        /* \"#utility.yul\":4834:5014   */\n    tag_110:\n        /* \"#utility.yul\":4882:4959   */\n      0x4e487b7100000000000000000000000000000000000000000000000000000000\n        /* \"#utility.yul\":4879:4880   */\n      0x00\n        /* \"#utility.yul\":4872:4960   */\n      mstore\n        /* \"#utility.yul\":4979:4983   */\n      0x41\n        /* \"#utility.yul\":4976:4977   */\n      0x04\n        /* \"#utility.yul\":4969:4984   */\n      mstore\n        /* \"#utility.yul\":5003:5007   */\n      0x24\n        /* \"#utility.yul\":5000:5001   */\n      0x00\n        /* \"#utility.yul\":4993:5008   */\n      revert\n        /* \"#utility.yul\":5020:5301   */\n    tag_155:\n        /* \"#utility.yul\":5103:5130   */\n      tag_257\n        /* \"#utility.yul\":5125:5129   */\n      dup3\n        /* \"#utility.yul\":5103:5130   */\n      tag_149\n      jump\t// in\n    tag_257:\n        /* \"#utility.yul\":5095:5101   */\n      dup2\n        /* \"#utility.yul\":5091:5131   */\n      add\n        /* \"#utility.yul\":5233:5239   */\n      dup2\n        /* \"#utility.yul\":5221:5231   */\n      dup2\n        /* \"#utility.yul\":5218:5240   */\n      lt\n        /* \"#utility.yul\":5197:5215   */\n      0xffffffffffffffff\n        /* \"#utility.yul\":5185:5195   */\n      dup3\n        /* \"#utility.yul\":5182:5216   */\n      gt\n        /* \"#utility.yul\":5179:5241   */\n      or\n        /* \"#utility.yul\":5176:5264   */\n      iszero\n      tag_258\n      jumpi\n        /* \"#utility.yul\":5244:5262   */\n      tag_259\n      tag_110\n      jump\t// in\n    tag_259:\n        /* \"#utility.yul\":5176:5264   */\n    tag_258:\n        /* \"#utility.yul\":5284:5294   */\n      dup1\n        /* \"#utility.yul\":5280:5282   */\n      0x40\n        /* \"#utility.yul\":5273:5295   */\n      mstore\n        /* \"#utility.yul\":5063:5301   */\n      pop\n        /* \"#utility.yul\":5020:5301   */\n      pop\n      pop\n      jump\t// out\n        /* \"#utility.yul\":5307:5436   */\n    tag_156:\n        /* \"#utility.yul\":5341:5347   */\n      0x00\n        /* \"#utility.yul\":5368:5388   */\n      tag_261\n      tag_134\n      jump\t// in\n    tag_261:\n        /* \"#utility.yul\":5358:5388   */\n      swap1\n      pop\n        /* \"#utility.yul\":5397:5430   */\n      tag_262\n        /* \"#utility.yul\":5425:5429   */\n      dup3\n        /* \"#utility.yul\":5417:5423   */\n      dup3\n        /* \"#utility.yul\":5397:5430   */\n      tag_155\n      jump\t// in\n    tag_262:\n        /* \"#utility.yul\":5307:5436   */\n      swap2\n      swap1\n      pop\n      jump\t// out\n        /* \"#utility.yul\":5442:5750   */\n    tag_157:\n        /* \"#utility.yul\":5504:5508   */\n      0x00\n        /* \"#utility.yul\":5594:5612   */\n      0xffffffffffffffff\n        /* \"#utility.yul\":5586:5592   */\n      dup3\n        /* \"#utility.yul\":5583:5613   */\n      gt\n        /* \"#utility.yul\":5580:5636   */\n      iszero\n      tag_264\n      jumpi\n        /* \"#utility.yul\":5616:5634   */\n      tag_265\n      tag_110\n      jump\t// in\n    tag_265:\n        /* \"#utility.yul\":5580:5636   */\n    tag_264:\n        /* \"#utility.yul\":5654:5683   */\n      tag_266\n        /* \"#utility.yul\":5676:5682   */\n      dup3\n        /* \"#utility.yul\":5654:5683   */\n      tag_149\n      jump\t// in\n    tag_266:\n        /* \"#utility.yul\":5646:5683   */\n      swap1\n      pop\n        /* \"#utility.yul\":5738:5742   */\n      0x20\n        /* \"#utility.yul\":5732:5736   */\n      dup2\n        /* \"#utility.yul\":5728:5743   */\n      add\n        /* \"#utility.yul\":5720:5743   */\n      swap1\n      pop\n        /* \"#utility.yul\":5442:5750   */\n      swap2\n      swap1\n      pop\n      jump\t// out\n        /* \"#utility.yul\":5756:5904   */\n    tag_158:\n        /* \"#utility.yul\":5854:5860   */\n      dup3\n        /* \"#utility.yul\":5849:5852   */\n      dup2\n        /* \"#utility.yul\":5844:5847   */\n      dup4\n        /* \"#utility.yul\":5831:5861   */\n      calldatacopy\n        /* \"#utility.yul\":5895:5896   */\n      0x00\n        /* \"#utility.yul\":5886:5892   */\n      dup4\n        /* \"#utility.yul\":5881:5884   */\n      dup4\n        /* \"#utility.yul\":5877:5893   */\n      add\n        /* \"#utility.yul\":5870:5897   */\n      mstore\n        /* \"#utility.yul\":5756:5904   */\n      pop\n      pop\n      pop\n      jump\t// out\n        /* \"#utility.yul\":5910:6335   */\n    tag_159:\n        /* \"#utility.yul\":5988:5993   */\n      0x00\n        /* \"#utility.yul\":6013:6079   */\n      tag_269\n        /* \"#utility.yul\":6029:6078   */\n      tag_270\n        /* \"#utility.yul\":6071:6077   */\n      dup5\n        /* \"#utility.yul\":6029:6078   */\n      tag_157\n      jump\t// in\n    tag_270:\n        /* \"#utility.yul\":6013:6079   */\n      tag_156\n      jump\t// in\n    tag_269:\n        /* \"#utility.yul\":6004:6079   */\n      swap1\n      pop\n        /* \"#utility.yul\":6102:6108   */\n      dup3\n        /* \"#utility.yul\":6095:6100   */\n      dup2\n        /* \"#utility.yul\":6088:6109   */\n      mstore\n        /* \"#utility.yul\":6140:6144   */\n      0x20\n        /* \"#utility.yul\":6133:6138   */\n      dup2\n        /* \"#utility.yul\":6129:6145   */\n      add\n        /* \"#utility.yul\":6178:6181   */\n      dup5\n        /* \"#utility.yul\":6169:6175   */\n      dup5\n        /* \"#utility.yul\":6164:6167   */\n      dup5\n        /* \"#utility.yul\":6160:6176   */\n      add\n        /* \"#utility.yul\":6157:6182   */\n      gt\n        /* \"#utility.yul\":6154:6266   */\n      iszero\n      tag_271\n      jumpi\n        /* \"#utility.yul\":6185:6264   */\n      tag_272\n      tag_154\n      jump\t// in\n    tag_272:\n        /* \"#utility.yul\":6154:6266   */\n    tag_271:\n        /* \"#utility.yul\":6275:6329   */\n      tag_273\n        /* \"#utility.yul\":6322:6328   */\n      dup5\n        /* \"#utility.yul\":6317:6320   */\n      dup3\n        /* \"#utility.yul\":6312:6315   */\n      dup6\n        /* \"#utility.yul\":6275:6329   */\n      tag_158\n      jump\t// in\n    tag_273:\n        /* \"#utility.yul\":5994:6335   */\n      pop\n        /* \"#utility.yul\":5910:6335   */\n      swap4\n      swap3\n      pop\n      pop\n      pop\n      jump\t// out\n        /* \"#utility.yul\":6355:6695   */\n    tag_160:\n        /* \"#utility.yul\":6411:6416   */\n      0x00\n        /* \"#utility.yul\":6460:6463   */\n      dup3\n        /* \"#utility.yul\":6453:6457   */\n      0x1f\n        /* \"#utility.yul\":6445:6451   */\n      dup4\n        /* \"#utility.yul\":6441:6458   */\n      add\n        /* \"#utility.yul\":6437:6464   */\n      slt\n        /* \"#utility.yul\":6427:6549   */\n      tag_275\n      jumpi\n        /* \"#utility.yul\":6468:6547   */\n      tag_276\n      tag_153\n      jump\t// in\n    tag_276:\n        /* \"#utility.yul\":6427:6549   */\n    tag_275:\n        /* \"#utility.yul\":6585:6591   */\n      dup2\n        /* \"#utility.yul\":6572:6592   */\n      calldataload\n        /* \"#utility.yul\":6610:6689   */\n      tag_277\n        /* \"#utility.yul\":6685:6688   */\n      dup5\n        /* \"#utility.yul\":6677:6683   */\n      dup3\n        /* \"#utility.yul\":6670:6674   */\n      0x20\n        /* \"#utility.yul\":6662:6668   */\n      dup7\n        /* \"#utility.yul\":6658:6675   */\n      add\n        /* \"#utility.yul\":6610:6689   */\n      tag_159\n      jump\t// in\n    tag_277:\n        /* \"#utility.yul\":6601:6689   */\n      swap2\n      pop\n        /* \"#utility.yul\":6417:6695   */\n      pop\n        /* \"#utility.yul\":6355:6695   */\n      swap3\n      swap2\n      pop\n      pop\n      jump\t// out\n        /* \"#utility.yul\":6701:7355   */\n    tag_41:\n        /* \"#utility.yul\":6779:6785   */\n      0x00\n        /* \"#utility.yul\":6787:6793   */\n      dup1\n        /* \"#utility.yul\":6836:6838   */\n      0x40\n        /* \"#utility.yul\":6824:6833   */\n      dup4\n        /* \"#utility.yul\":6815:6822   */\n      dup6\n        /* \"#utility.yul\":6811:6834   */\n      sub\n        /* \"#utility.yul\":6807:6839   */\n      slt\n        /* \"#utility.yul\":6804:6923   */\n      iszero\n      tag_279\n      jumpi\n        /* \"#utility.yul\":6842:6921   */\n      tag_280\n      tag_135\n      jump\t// in\n    tag_280:\n        /* \"#utility.yul\":6804:6923   */\n    tag_279:\n        /* \"#utility.yul\":6962:6963   */\n      0x00\n        /* \"#utility.yul\":6987:7040   */\n      tag_281\n        /* \"#utility.yul\":7032:7039   */\n      dup6\n        /* \"#utility.yul\":7023:7029   */\n      dup3\n        /* \"#utility.yul\":7012:7021   */\n      dup7\n        /* \"#utility.yul\":7008:7030   */\n      add\n        /* \"#utility.yul\":6987:7040   */\n      tag_143\n      jump\t// in\n    tag_281:\n        /* \"#utility.yul\":6977:7040   */\n      swap3\n      pop\n        /* \"#utility.yul\":6933:7050   */\n      pop\n        /* \"#utility.yul\":7117:7119   */\n      0x20\n        /* \"#utility.yul\":7106:7115   */\n      dup4\n        /* \"#utility.yul\":7102:7120   */\n      add\n        /* \"#utility.yul\":7089:7121   */\n      calldataload\n        /* \"#utility.yul\":7148:7166   */\n      0xffffffffffffffff\n        /* \"#utility.yul\":7140:7146   */\n      dup2\n        /* \"#utility.yul\":7137:7167   */\n      gt\n        /* \"#utility.yul\":7134:7251   */\n      iszero\n      tag_282\n      jumpi\n        /* \"#utility.yul\":7170:7249   */\n      tag_283\n      tag_136\n      jump\t// in\n    tag_283:\n        /* \"#utility.yul\":7134:7251   */\n    tag_282:\n        /* \"#utility.yul\":7275:7338   */\n      tag_284\n        /* \"#utility.yul\":7330:7337   */\n      dup6\n        /* \"#utility.yul\":7321:7327   */\n      dup3\n        /* \"#utility.yul\":7310:7319   */\n      dup7\n        /* \"#utility.yul\":7306:7328   */\n      add\n        /* \"#utility.yul\":7275:7338   */\n      tag_160\n      jump\t// in\n    tag_284:\n        /* \"#utility.yul\":7265:7338   */\n      swap2\n      pop\n        /* \"#utility.yul\":7060:7348   */\n      pop\n        /* \"#utility.yul\":6701:7355   */\n      swap3\n      pop\n      swap3\n      swap1\n      pop\n      jump\t// out\n        /* \"#utility.yul\":7361:7475   */\n    tag_161:\n        /* \"#utility.yul\":7428:7434   */\n      0x00\n        /* \"#utility.yul\":7462:7467   */\n      dup2\n        /* \"#utility.yul\":7456:7468   */\n      mload\n        /* \"#utility.yul\":7446:7468   */\n      swap1\n      pop\n        /* \"#utility.yul\":7361:7475   */\n      swap2\n      swap1\n      pop\n      jump\t// out\n        /* \"#utility.yul\":7481:7665   */\n    tag_162:\n        /* \"#utility.yul\":7580:7591   */\n      0x00\n        /* \"#utility.yul\":7614:7620   */\n      dup3\n        /* \"#utility.yul\":7609:7612   */\n      dup3\n        /* \"#utility.yul\":7602:7621   */\n      mstore\n        /* \"#utility.yul\":7654:7658   */\n      0x20\n        /* \"#utility.yul\":7649:7652   */\n      dup3\n        /* \"#utility.yul\":7645:7659   */\n      add\n        /* \"#utility.yul\":7630:7659   */\n      swap1\n      pop\n        /* \"#utility.yul\":7481:7665   */\n      swap3\n      swap2\n      pop\n      pop\n      jump\t// out\n        /* \"#utility.yul\":7671:7803   */\n    tag_163:\n        /* \"#utility.yul\":7738:7742   */\n      0x00\n        /* \"#utility.yul\":7761:7764   */\n      dup2\n        /* \"#utility.yul\":7753:7764   */\n      swap1\n      pop\n        /* \"#utility.yul\":7791:7795   */\n      0x20\n        /* \"#utility.yul\":7786:7789   */\n      dup3\n        /* \"#utility.yul\":7782:7796   */\n      add\n        /* \"#utility.yul\":7774:7796   */\n      swap1\n      pop\n        /* \"#utility.yul\":7671:7803   */\n      swap2\n      swap1\n      pop\n      jump\t// out\n        /* \"#utility.yul\":7809:7917   */\n    tag_164:\n        /* \"#utility.yul\":7886:7910   */\n      tag_289\n        /* \"#utility.yul\":7904:7909   */\n      dup2\n        /* \"#utility.yul\":7886:7910   */\n      tag_138\n      jump\t// in\n    tag_289:\n        /* \"#utility.yul\":7881:7884   */\n      dup3\n        /* \"#utility.yul\":7874:7911   */\n      mstore\n        /* \"#utility.yul\":7809:7917   */\n      pop\n      pop\n      jump\t// out\n        /* \"#utility.yul\":7923:8102   */\n    tag_165:\n        /* \"#utility.yul\":7992:8002   */\n      0x00\n        /* \"#utility.yul\":8013:8059   */\n      tag_291\n        /* \"#utility.yul\":8055:8058   */\n      dup4\n        /* \"#utility.yul\":8047:8053   */\n      dup4\n        /* \"#utility.yul\":8013:8059   */\n      tag_164\n      jump\t// in\n    tag_291:\n        /* \"#utility.yul\":8091:8095   */\n      0x20\n        /* \"#utility.yul\":8086:8089   */\n      dup4\n        /* \"#utility.yul\":8082:8096   */\n      add\n        /* \"#utility.yul\":8068:8096   */\n      swap1\n      pop\n        /* \"#utility.yul\":7923:8102   */\n      swap3\n      swap2\n      pop\n      pop\n      jump\t// out\n        /* \"#utility.yul\":8108:8221   */\n    tag_166:\n        /* \"#utility.yul\":8178:8182   */\n      0x00\n        /* \"#utility.yul\":8210:8214   */\n      0x20\n        /* \"#utility.yul\":8205:8208   */\n      dup3\n        /* \"#utility.yul\":8201:8215   */\n      add\n        /* \"#utility.yul\":8193:8215   */\n      swap1\n      pop\n        /* \"#utility.yul\":8108:8221   */\n      swap2\n      swap1\n      pop\n      jump\t// out\n        /* \"#utility.yul\":8257:8989   */\n    tag_167:\n        /* \"#utility.yul\":8376:8379   */\n      0x00\n        /* \"#utility.yul\":8405:8459   */\n      tag_294\n        /* \"#utility.yul\":8453:8458   */\n      dup3\n        /* \"#utility.yul\":8405:8459   */\n      tag_161\n      jump\t// in\n    tag_294:\n        /* \"#utility.yul\":8475:8561   */\n      tag_295\n        /* \"#utility.yul\":8554:8560   */\n      dup2\n        /* \"#utility.yul\":8549:8552   */\n      dup6\n        /* \"#utility.yul\":8475:8561   */\n      tag_162\n      jump\t// in\n    tag_295:\n        /* \"#utility.yul\":8468:8561   */\n      swap4\n      pop\n        /* \"#utility.yul\":8585:8641   */\n      tag_296\n        /* \"#utility.yul\":8635:8640   */\n      dup4\n        /* \"#utility.yul\":8585:8641   */\n      tag_163\n      jump\t// in\n    tag_296:\n        /* \"#utility.yul\":8664:8671   */\n      dup1\n        /* \"#utility.yul\":8695:8696   */\n      0x00\n        /* \"#utility.yul\":8680:8964   */\n    tag_297:\n        /* \"#utility.yul\":8705:8711   */\n      dup4\n        /* \"#utility.yul\":8702:8703   */\n      dup2\n        /* \"#utility.yul\":8699:8712   */\n      lt\n        /* \"#utility.yul\":8680:8964   */\n      iszero\n      tag_299\n      jumpi\n        /* \"#utility.yul\":8781:8787   */\n      dup2\n        /* \"#utility.yul\":8775:8788   */\n      mload\n        /* \"#utility.yul\":8808:8871   */\n      tag_300\n        /* \"#utility.yul\":8867:8870   */\n      dup9\n        /* \"#utility.yul\":8852:8865   */\n      dup3\n        /* \"#utility.yul\":8808:8871   */\n      tag_165\n      jump\t// in\n    tag_300:\n        /* \"#utility.yul\":8801:8871   */\n      swap8\n      pop\n        /* \"#utility.yul\":8894:8954   */\n      tag_301\n        /* \"#utility.yul\":8947:8953   */\n      dup4\n        /* \"#utility.yul\":8894:8954   */\n      tag_166\n      jump\t// in\n    tag_301:\n        /* \"#utility.yul\":8884:8954   */\n      swap3\n      pop\n        /* \"#utility.yul\":8740:8964   */\n      pop\n        /* \"#utility.yul\":8727:8728   */\n      0x01\n        /* \"#utility.yul\":8724:8725   */\n      dup2\n        /* \"#utility.yul\":8720:8729   */\n      add\n        /* \"#utility.yul\":8715:8729   */\n      swap1\n      pop\n        /* \"#utility.yul\":8680:8964   */\n      jump(tag_297)\n    tag_299:\n        /* \"#utility.yul\":8684:8698   */\n      pop\n        /* \"#utility.yul\":8980:8983   */\n      dup6\n        /* \"#utility.yul\":8973:8983   */\n      swap4\n      pop\n        /* \"#utility.yul\":8381:8989   */\n      pop\n      pop\n      pop\n        /* \"#utility.yul\":8257:8989   */\n      swap3\n      swap2\n      pop\n      pop\n      jump\t// out\n        /* \"#utility.yul\":8995:9368   */\n    tag_47:\n        /* \"#utility.yul\":9138:9142   */\n      0x00\n        /* \"#utility.yul\":9176:9178   */\n      0x20\n        /* \"#utility.yul\":9165:9174   */\n      dup3\n        /* \"#utility.yul\":9161:9179   */\n      add\n        /* \"#utility.yul\":9153:9179   */\n      swap1\n      pop\n        /* \"#utility.yul\":9225:9234   */\n      dup2\n        /* \"#utility.yul\":9219:9223   */\n      dup2\n        /* \"#utility.yul\":9215:9235   */\n      sub\n        /* \"#utility.yul\":9211:9212   */\n      0x00\n        /* \"#utility.yul\":9200:9209   */\n      dup4\n        /* \"#utility.yul\":9196:9213   */\n      add\n        /* \"#utility.yul\":9189:9236   */\n      mstore\n        /* \"#utility.yul\":9253:9361   */\n      tag_303\n        /* \"#utility.yul\":9356:9360   */\n      dup2\n        /* \"#utility.yul\":9347:9353   */\n      dup5\n        /* \"#utility.yul\":9253:9361   */\n      tag_167\n      jump\t// in\n    tag_303:\n        /* \"#utility.yul\":9245:9361   */\n      swap1\n      pop\n        /* \"#utility.yul\":8995:9368   */\n      swap3\n      swap2\n      pop\n      pop\n      jump\t// out\n        /* \"#utility.yul\":9374:9434   */\n    tag_168:\n        /* \"#utility.yul\":9402:9405   */\n      0x00\n        /* \"#utility.yul\":9423:9428   */\n      dup2\n        /* \"#utility.yul\":9416:9428   */\n      swap1\n      pop\n        /* \"#utility.yul\":9374:9434   */\n      swap2\n      swap1\n      pop\n      jump\t// out\n        /* \"#utility.yul\":9440:9582   */\n    tag_169:\n        /* \"#utility.yul\":9490:9499   */\n      0x00\n        /* \"#utility.yul\":9523:9576   */\n      tag_306\n        /* \"#utility.yul\":9541:9575   */\n      tag_307\n        /* \"#utility.yul\":9550:9574   */\n      tag_308\n        /* \"#utility.yul\":9568:9573   */\n      dup5\n        /* \"#utility.yul\":9550:9574   */\n      tag_137\n      jump\t// in\n    tag_308:\n        /* \"#utility.yul\":9541:9575   */\n      tag_168\n      jump\t// in\n    tag_307:\n        /* \"#utility.yul\":9523:9576   */\n      tag_137\n      jump\t// in\n    tag_306:\n        /* \"#utility.yul\":9510:9576   */\n      swap1\n      pop\n        /* \"#utility.yul\":9440:9582   */\n      swap2\n      swap1\n      pop\n      jump\t// out\n        /* \"#utility.yul\":9588:9714   */\n    tag_170:\n        /* \"#utility.yul\":9638:9647   */\n      0x00\n        /* \"#utility.yul\":9671:9708   */\n      tag_310\n        /* \"#utility.yul\":9702:9707   */\n      dup3\n        /* \"#utility.yul\":9671:9708   */\n      tag_169\n      jump\t// in\n    tag_310:\n        /* \"#utility.yul\":9658:9708   */\n      swap1\n      pop\n        /* \"#utility.yul\":9588:9714   */\n      swap2\n      swap1\n      pop\n      jump\t// out\n        /* \"#utility.yul\":9720:9863   */\n    tag_171:\n        /* \"#utility.yul\":9787:9796   */\n      0x00\n        /* \"#utility.yul\":9820:9857   */\n      tag_312\n        /* \"#utility.yul\":9851:9856   */\n      dup3\n        /* \"#utility.yul\":9820:9857   */\n      tag_170\n      jump\t// in\n    tag_312:\n        /* \"#utility.yul\":9807:9857   */\n      swap1\n      pop\n        /* \"#utility.yul\":9720:9863   */\n      swap2\n      swap1\n      pop\n      jump\t// out\n        /* \"#utility.yul\":9869:10034   */\n    tag_172:\n        /* \"#utility.yul\":9973:10027   */\n      tag_314\n        /* \"#utility.yul\":10021:10026   */\n      dup2\n        /* \"#utility.yul\":9973:10027   */\n      tag_171\n      jump\t// in\n    tag_314:\n        /* \"#utility.yul\":9968:9971   */\n      dup3\n        /* \"#utility.yul\":9961:10028   */\n      mstore\n        /* \"#utility.yul\":9869:10034   */\n      pop\n      pop\n      jump\t// out\n        /* \"#utility.yul\":10040:10296   */\n    tag_51:\n        /* \"#utility.yul\":10150:10154   */\n      0x00\n        /* \"#utility.yul\":10188:10190   */\n      0x20\n        /* \"#utility.yul\":10177:10186   */\n      dup3\n        /* \"#utility.yul\":10173:10191   */\n      add\n        /* \"#utility.yul\":10165:10191   */\n      swap1\n      pop\n        /* \"#utility.yul\":10201:10289   */\n      tag_316\n        /* \"#utility.yul\":10286:10287   */\n      0x00\n        /* \"#utility.yul\":10275:10284   */\n      dup4\n        /* \"#utility.yul\":10271:10288   */\n      add\n        /* \"#utility.yul\":10262:10268   */\n      dup5\n        /* \"#utility.yul\":10201:10289   */\n      tag_172\n      jump\t// in\n    tag_316:\n        /* \"#utility.yul\":10040:10296   */\n      swap3\n      swap2\n      pop\n      pop\n      jump\t// out\n        /* \"#utility.yul\":10302:10512   */\n    tag_59:\n        /* \"#utility.yul\":10389:10393   */\n      0x00\n        /* \"#utility.yul\":10427:10429   */\n      0x20\n        /* \"#utility.yul\":10416:10425   */\n      dup3\n        /* \"#utility.yul\":10412:10430   */\n      add\n        /* \"#utility.yul\":10404:10430   */\n      swap1\n      pop\n        /* \"#utility.yul\":10440:10505   */\n      tag_318\n        /* \"#utility.yul\":10502:10503   */\n      0x00\n        /* \"#utility.yul\":10491:10500   */\n      dup4\n        /* \"#utility.yul\":10487:10504   */\n      add\n        /* \"#utility.yul\":10478:10484   */\n      dup5\n        /* \"#utility.yul\":10440:10505   */\n      tag_152\n      jump\t// in\n    tag_318:\n        /* \"#utility.yul\":10302:10512   */\n      swap3\n      swap2\n      pop\n      pop\n      jump\t// out\n        /* \"#utility.yul\":10518:10694   */\n    tag_173:\n        /* \"#utility.yul\":10658:10686   */\n      0x4f6e6c79206d616e7566616374757265722063616e2063616c6c000000000000\n        /* \"#utility.yul\":10654:10655   */\n      0x00\n        /* \"#utility.yul\":10646:10652   */\n      dup3\n        /* \"#utility.yul\":10642:10656   */\n      add\n        /* \"#utility.yul\":10635:10687   */\n      mstore\n        /* \"#utility.yul\":10518:10694   */\n      pop\n      jump\t// out\n        /* \"#utility.yul\":10700:11066   */\n    tag_174:\n        /* \"#utility.yul\":10842:10845   */\n      0x00\n        /* \"#utility.yul\":10863:10930   */\n      tag_321\n        /* \"#utility.yul\":10927:10929   */\n      0x1a\n        /* \"#utility.yul\":10922:10925   */\n      dup4\n        /* \"#utility.yul\":10863:10930   */\n      tag_147\n      jump\t// in\n    tag_321:\n        /* \"#utility.yul\":10856:10930   */\n      swap2\n      pop\n        /* \"#utility.yul\":10939:11032   */\n      tag_322\n        /* \"#utility.yul\":11028:11031   */\n      dup3\n        /* \"#utility.yul\":10939:11032   */\n      tag_173\n      jump\t// in\n    tag_322:\n        /* \"#utility.yul\":11057:11059   */\n      0x20\n        /* \"#utility.yul\":11052:11055   */\n      dup3\n        /* \"#utility.yul\":11048:11060   */\n      add\n        /* \"#utility.yul\":11041:11060   */\n      swap1\n      pop\n        /* \"#utility.yul\":10700:11066   */\n      swap2\n      swap1\n      pop\n      jump\t// out\n        /* \"#utility.yul\":11072:11491   */\n    tag_63:\n        /* \"#utility.yul\":11238:11242   */\n      0x00\n        /* \"#utility.yul\":11276:11278   */\n      0x20\n        /* \"#utility.yul\":11265:11274   */\n      dup3\n        /* \"#utility.yul\":11261:11279   */\n      add\n        /* \"#utility.yul\":11253:11279   */\n      swap1\n      pop\n        /* \"#utility.yul\":11325:11334   */\n      dup2\n        /* \"#utility.yul\":11319:11323   */\n      dup2\n        /* \"#utility.yul\":11315:11335   */\n      sub\n        /* \"#utility.yul\":11311:11312   */\n      0x00\n        /* \"#utility.yul\":11300:11309   */\n      dup4\n        /* \"#utility.yul\":11296:11313   */\n      add\n        /* \"#utility.yul\":11289:11336   */\n      mstore\n        /* \"#utility.yul\":11353:11484   */\n      tag_324\n        /* \"#utility.yul\":11479:11483   */\n      dup2\n        /* \"#utility.yul\":11353:11484   */\n      tag_174\n      jump\t// in\n    tag_324:\n        /* \"#utility.yul\":11345:11484   */\n      swap1\n      pop\n        /* \"#utility.yul\":11072:11491   */\n      swap2\n      swap1\n      pop\n      jump\t// out\n        /* \"#utility.yul\":11497:11673   */\n    tag_175:\n        /* \"#utility.yul\":11637:11665   */\n      0x4f6e6c792053616c65436f6e74726163742063616e2063616c6c000000000000\n        /* \"#utility.yul\":11633:11634   */\n      0x00\n        /* \"#utility.yul\":11625:11631   */\n      dup3\n        /* \"#utility.yul\":11621:11635   */\n      add\n        /* \"#utility.yul\":11614:11666   */\n      mstore\n        /* \"#utility.yul\":11497:11673   */\n      pop\n      jump\t// out\n        /* \"#utility.yul\":11679:12045   */\n    tag_176:\n        /* \"#utility.yul\":11821:11824   */\n      0x00\n        /* \"#utility.yul\":11842:11909   */\n      tag_327\n        /* \"#utility.yul\":11906:11908   */\n      0x1a\n        /* \"#utility.yul\":11901:11904   */\n      dup4\n        /* \"#utility.yul\":11842:11909   */\n      tag_147\n      jump\t// in\n    tag_327:\n        /* \"#utility.yul\":11835:11909   */\n      swap2\n      pop\n        /* \"#utility.yul\":11918:12011   */\n      tag_328\n        /* \"#utility.yul\":12007:12010   */\n      dup3\n        /* \"#utility.yul\":11918:12011   */\n      tag_175\n      jump\t// in\n    tag_328:\n        /* \"#utility.yul\":12036:12038   */\n      0x20\n        /* \"#utility.yul\":12031:12034   */\n      dup3\n        /* \"#utility.yul\":12027:12039   */\n      add\n        /* \"#utility.yul\":12020:12039   */\n      swap1\n      pop\n        /* \"#utility.yul\":11679:12045   */\n      swap2\n      swap1\n      pop\n      jump\t// out\n        /* \"#utility.yul\":12051:12470   */\n    tag_68:\n        /* \"#utility.yul\":12217:12221   */\n      0x00\n        /* \"#utility.yul\":12255:12257   */\n      0x20\n        /* \"#utility.yul\":12244:12253   */\n      dup3\n        /* \"#utility.yul\":12240:12258   */\n      add\n        /* \"#utility.yul\":12232:12258   */\n      swap1\n      pop\n        /* \"#utility.yul\":12304:12313   */\n      dup2\n        /* \"#utility.yul\":12298:12302   */\n      dup2\n        /* \"#utility.yul\":12294:12314   */\n      sub\n        /* \"#utility.yul\":12290:12291   */\n      0x00\n        /* \"#utility.yul\":12279:12288   */\n      dup4\n        /* \"#utility.yul\":12275:12292   */\n      add\n        /* \"#utility.yul\":12268:12315   */\n      mstore\n        /* \"#utility.yul\":12332:12463   */\n      tag_330\n        /* \"#utility.yul\":12458:12462   */\n      dup2\n        /* \"#utility.yul\":12332:12463   */\n      tag_176\n      jump\t// in\n    tag_330:\n        /* \"#utility.yul\":12324:12463   */\n      swap1\n      pop\n        /* \"#utility.yul\":12051:12470   */\n      swap2\n      swap1\n      pop\n      jump\t// out\n        /* \"#utility.yul\":12476:12648   */\n    tag_177:\n        /* \"#utility.yul\":12616:12640   */\n      0x50726f64756374206e6f74207265676973746572656400000000000000000000\n        /* \"#utility.yul\":12612:12613   */\n      0x00\n        /* \"#utility.yul\":12604:12610   */\n      dup3\n        /* \"#utility.yul\":12600:12614   */\n      add\n        /* \"#utility.yul\":12593:12641   */\n      mstore\n        /* \"#utility.yul\":12476:12648   */\n      pop\n      jump\t// out\n        /* \"#utility.yul\":12654:13020   */\n    tag_178:\n        /* \"#utility.yul\":12796:12799   */\n      0x00\n        /* \"#utility.yul\":12817:12884   */\n      tag_333\n        /* \"#utility.yul\":12881:12883   */\n      0x16\n        /* \"#utility.yul\":12876:12879   */\n      dup4\n        /* \"#utility.yul\":12817:12884   */\n      tag_147\n      jump\t// in\n    tag_333:\n        /* \"#utility.yul\":12810:12884   */\n      swap2\n      pop\n        /* \"#utility.yul\":12893:12986   */\n      tag_334\n        /* \"#utility.yul\":12982:12985   */\n      dup3\n        /* \"#utility.yul\":12893:12986   */\n      tag_177\n      jump\t// in\n    tag_334:\n        /* \"#utility.yul\":13011:13013   */\n      0x20\n        /* \"#utility.yul\":13006:13009   */\n      dup3\n        /* \"#utility.yul\":13002:13014   */\n      add\n        /* \"#utility.yul\":12995:13014   */\n      swap1\n      pop\n        /* \"#utility.yul\":12654:13020   */\n      swap2\n      swap1\n      pop\n      jump\t// out\n        /* \"#utility.yul\":13026:13445   */\n    tag_72:\n        /* \"#utility.yul\":13192:13196   */\n      0x00\n        /* \"#utility.yul\":13230:13232   */\n      0x20\n        /* \"#utility.yul\":13219:13228   */\n      dup3\n        /* \"#utility.yul\":13215:13233   */\n      add\n        /* \"#utility.yul\":13207:13233   */\n      swap1\n      pop\n        /* \"#utility.yul\":13279:13288   */\n      dup2\n        /* \"#utility.yul\":13273:13277   */\n      dup2\n        /* \"#utility.yul\":13269:13289   */\n      sub\n        /* \"#utility.yul\":13265:13266   */\n      0x00\n        /* \"#utility.yul\":13254:13263   */\n      dup4\n        /* \"#utility.yul\":13250:13267   */\n      add\n        /* \"#utility.yul\":13243:13290   */\n      mstore\n        /* \"#utility.yul\":13307:13438   */\n      tag_336\n        /* \"#utility.yul\":13433:13437   */\n      dup2\n        /* \"#utility.yul\":13307:13438   */\n      tag_178\n      jump\t// in\n    tag_336:\n        /* \"#utility.yul\":13299:13438   */\n      swap1\n      pop\n        /* \"#utility.yul\":13026:13445   */\n      swap2\n      swap1\n      pop\n      jump\t// out\n        /* \"#utility.yul\":13451:13893   */\n    tag_75:\n        /* \"#utility.yul\":13600:13604   */\n      0x00\n        /* \"#utility.yul\":13638:13640   */\n      0x60\n        /* \"#utility.yul\":13627:13636   */\n      dup3\n        /* \"#utility.yul\":13623:13641   */\n      add\n        /* \"#utility.yul\":13615:13641   */\n      swap1\n      pop\n        /* \"#utility.yul\":13651:13722   */\n      tag_338\n        /* \"#utility.yul\":13719:13720   */\n      0x00\n        /* \"#utility.yul\":13708:13717   */\n      dup4\n        /* \"#utility.yul\":13704:13721   */\n      add\n        /* \"#utility.yul\":13695:13701   */\n      dup7\n        /* \"#utility.yul\":13651:13722   */\n      tag_145\n      jump\t// in\n    tag_338:\n        /* \"#utility.yul\":13732:13804   */\n      tag_339\n        /* \"#utility.yul\":13800:13802   */\n      0x20\n        /* \"#utility.yul\":13789:13798   */\n      dup4\n        /* \"#utility.yul\":13785:13803   */\n      add\n        /* \"#utility.yul\":13776:13782   */\n      dup6\n        /* \"#utility.yul\":13732:13804   */\n      tag_144\n      jump\t// in\n    tag_339:\n        /* \"#utility.yul\":13814:13886   */\n      tag_340\n        /* \"#utility.yul\":13882:13884   */\n      0x40\n        /* \"#utility.yul\":13871:13880   */\n      dup4\n        /* \"#utility.yul\":13867:13885   */\n      add\n        /* \"#utility.yul\":13858:13864   */\n      dup5\n        /* \"#utility.yul\":13814:13886   */\n      tag_144\n      jump\t// in\n    tag_340:\n        /* \"#utility.yul\":13451:13893   */\n      swap5\n      swap4\n      pop\n      pop\n      pop\n      pop\n      jump\t// out\n        /* \"#utility.yul\":13899:14079   */\n    tag_179:\n        /* \"#utility.yul\":13947:14024   */\n      0x4e487b7100000000000000000000000000000000000000000000000000000000\n        /* \"#utility.yul\":13944:13945   */\n      0x00\n        /* \"#utility.yul\":13937:14025   */\n      mstore\n        /* \"#utility.yul\":14044:14048   */\n      0x22\n        /* \"#utility.yul\":14041:14042   */\n      0x04\n        /* \"#utility.yul\":14034:14049   */\n      mstore\n        /* \"#utility.yul\":14068:14072   */\n      0x24\n        /* \"#utility.yul\":14065:14066   */\n      0x00\n        /* \"#utility.yul\":14058:14073   */\n      revert\n        /* \"#utility.yul\":14085:14405   */\n    tag_77:\n        /* \"#utility.yul\":14129:14135   */\n      0x00\n        /* \"#utility.yul\":14166:14167   */\n      0x02\n        /* \"#utility.yul\":14160:14164   */\n      dup3\n        /* \"#utility.yul\":14156:14168   */\n      div\n        /* \"#utility.yul\":14146:14168   */\n      swap1\n      pop\n        /* \"#utility.yul\":14213:14214   */\n      0x01\n        /* \"#utility.yul\":14207:14211   */\n      dup3\n        /* \"#utility.yul\":14203:14215   */\n      and\n        /* \"#utility.yul\":14234:14252   */\n      dup1\n        /* \"#utility.yul\":14224:14305   */\n      tag_343\n      jumpi\n        /* \"#utility.yul\":14290:14294   */\n      0x7f\n        /* \"#utility.yul\":14282:14288   */\n      dup3\n        /* \"#utility.yul\":14278:14295   */\n      and\n        /* \"#utility.yul\":14268:14295   */\n      swap2\n      pop\n        /* \"#utility.yul\":14224:14305   */\n    tag_343:\n        /* \"#utility.yul\":14352:14354   */\n      0x20\n        /* \"#utility.yul\":14344:14350   */\n      dup3\n        /* \"#utility.yul\":14341:14355   */\n      lt\n        /* \"#utility.yul\":14321:14339   */\n      dup2\n        /* \"#utility.yul\":14318:14356   */\n      sub\n        /* \"#utility.yul\":14315:14399   */\n      tag_344\n      jumpi\n        /* \"#utility.yul\":14371:14389   */\n      tag_345\n      tag_179\n      jump\t// in\n    tag_345:\n        /* \"#utility.yul\":14315:14399   */\n    tag_344:\n        /* \"#utility.yul\":14136:14405   */\n      pop\n        /* \"#utility.yul\":14085:14405   */\n      swap2\n      swap1\n      pop\n      jump\t// out\n        /* \"#utility.yul\":14411:14585   */\n    tag_180:\n        /* \"#utility.yul\":14551:14577   */\n      0x4e6f7420617574686f726973656420746f207665726966790000000000000000\n        /* \"#utility.yul\":14547:14548   */\n      0x00\n        /* \"#utility.yul\":14539:14545   */\n      dup3\n        /* \"#utility.yul\":14535:14549   */\n      add\n        /* \"#utility.yul\":14528:14578   */\n      mstore\n        /* \"#utility.yul\":14411:14585   */\n      pop\n      jump\t// out\n        /* \"#utility.yul\":14591:14957   */\n    tag_181:\n        /* \"#utility.yul\":14733:14736   */\n      0x00\n        /* \"#utility.yul\":14754:14821   */\n      tag_348\n        /* \"#utility.yul\":14818:14820   */\n      0x18\n        /* \"#utility.yul\":14813:14816   */\n      dup4\n        /* \"#utility.yul\":14754:14821   */\n      tag_147\n      jump\t// in\n    tag_348:\n        /* \"#utility.yul\":14747:14821   */\n      swap2\n      pop\n        /* \"#utility.yul\":14830:14923   */\n      tag_349\n        /* \"#utility.yul\":14919:14922   */\n      dup3\n        /* \"#utility.yul\":14830:14923   */\n      tag_180\n      jump\t// in\n    tag_349:\n        /* \"#utility.yul\":14948:14950   */\n      0x20\n        /* \"#utility.yul\":14943:14946   */\n      dup3\n        /* \"#utility.yul\":14939:14951   */\n      add\n        /* \"#utility.yul\":14932:14951   */\n      swap1\n      pop\n        /* \"#utility.yul\":14591:14957   */\n      swap2\n      swap1\n      pop\n      jump\t// out\n        /* \"#utility.yul\":14963:15382   */\n    tag_85:\n        /* \"#utility.yul\":15129:15133   */\n      0x00\n        /* \"#utility.yul\":15167:15169   */\n      0x20\n        /* \"#utility.yul\":15156:15165   */\n      dup3\n        /* \"#utility.yul\":15152:15170   */\n      add\n        /* \"#utility.yul\":15144:15170   */\n      swap1\n      pop\n        /* \"#utility.yul\":15216:15225   */\n      dup2\n        /* \"#utility.yul\":15210:15214   */\n      dup2\n        /* \"#utility.yul\":15206:15226   */\n      sub\n        /* \"#utility.yul\":15202:15203   */\n      0x00\n        /* \"#utility.yul\":15191:15200   */\n      dup4\n        /* \"#utility.yul\":15187:15204   */\n      add\n        /* \"#utility.yul\":15180:15227   */\n      mstore\n        /* \"#utility.yul\":15244:15375   */\n      tag_351\n        /* \"#utility.yul\":15370:15374   */\n      dup2\n        /* \"#utility.yul\":15244:15375   */\n      tag_181\n      jump\t// in\n    tag_351:\n        /* \"#utility.yul\":15236:15375   */\n      swap1\n      pop\n        /* \"#utility.yul\":14963:15382   */\n      swap2\n      swap1\n      pop\n      jump\t// out\n        /* \"#utility.yul\":15388:15720   */\n    tag_90:\n        /* \"#utility.yul\":15509:15513   */\n      0x00\n        /* \"#utility.yul\":15547:15549   */\n      0x40\n        /* \"#utility.yul\":15536:15545   */\n      dup3\n        /* \"#utility.yul\":15532:15550   */\n      add\n        /* \"#utility.yul\":15524:15550   */\n      swap1\n      pop\n        /* \"#utility.yul\":15560:15631   */\n      tag_353\n        /* \"#utility.yul\":15628:15629   */\n      0x00\n        /* \"#utility.yul\":15617:15626   */\n      dup4\n        /* \"#utility.yul\":15613:15630   */\n      add\n        /* \"#utility.yul\":15604:15610   */\n      dup6\n        /* \"#utility.yul\":15560:15631   */\n      tag_145\n      jump\t// in\n    tag_353:\n        /* \"#utility.yul\":15641:15713   */\n      tag_354\n        /* \"#utility.yul\":15709:15711   */\n      0x20\n        /* \"#utility.yul\":15698:15707   */\n      dup4\n        /* \"#utility.yul\":15694:15712   */\n      add\n        /* \"#utility.yul\":15685:15691   */\n      dup5\n        /* \"#utility.yul\":15641:15713   */\n      tag_144\n      jump\t// in\n    tag_354:\n        /* \"#utility.yul\":15388:15720   */\n      swap4\n      swap3\n      pop\n      pop\n      pop\n      jump\t// out\n        /* \"#utility.yul\":15726:15894   */\n    tag_182:\n        /* \"#utility.yul\":15866:15886   */\n      0x416c726561647920726567697374657265640000000000000000000000000000\n        /* \"#utility.yul\":15862:15863   */\n      0x00\n        /* \"#utility.yul\":15854:15860   */\n      dup3\n        /* \"#utility.yul\":15850:15864   */\n      add\n        /* \"#utility.yul\":15843:15887   */\n      mstore\n        /* \"#utility.yul\":15726:15894   */\n      pop\n      jump\t// out\n        /* \"#utility.yul\":15900:16266   */\n    tag_183:\n        /* \"#utility.yul\":16042:16045   */\n      0x00\n        /* \"#utility.yul\":16063:16130   */\n      tag_357\n        /* \"#utility.yul\":16127:16129   */\n      0x12\n        /* \"#utility.yul\":16122:16125   */\n      dup4\n        /* \"#utility.yul\":16063:16130   */\n      tag_147\n      jump\t// in\n    tag_357:\n        /* \"#utility.yul\":16056:16130   */\n      swap2\n      pop\n        /* \"#utility.yul\":16139:16232   */\n      tag_358\n        /* \"#utility.yul\":16228:16231   */\n      dup3\n        /* \"#utility.yul\":16139:16232   */\n      tag_182\n      jump\t// in\n    tag_358:\n        /* \"#utility.yul\":16257:16259   */\n      0x20\n        /* \"#utility.yul\":16252:16255   */\n      dup3\n        /* \"#utility.yul\":16248:16260   */\n      add\n        /* \"#utility.yul\":16241:16260   */\n      swap1\n      pop\n        /* \"#utility.yul\":15900:16266   */\n      swap2\n      swap1\n      pop\n      jump\t// out\n        /* \"#utility.yul\":16272:16691   */\n    tag_101:\n        /* \"#utility.yul\":16438:16442   */\n      0x00\n        /* \"#utility.yul\":16476:16478   */\n      0x20\n        /* \"#utility.yul\":16465:16474   */\n      dup3\n        /* \"#utility.yul\":16461:16479   */\n      add\n        /* \"#utility.yul\":16453:16479   */\n      swap1\n      pop\n        /* \"#utility.yul\":16525:16534   */\n      dup2\n        /* \"#utility.yul\":16519:16523   */\n      dup2\n        /* \"#utility.yul\":16515:16535   */\n      sub\n        /* \"#utility.yul\":16511:16512   */\n      0x00\n        /* \"#utility.yul\":16500:16509   */\n      dup4\n        /* \"#utility.yul\":16496:16513   */\n      add\n        /* \"#utility.yul\":16489:16536   */\n      mstore\n        /* \"#utility.yul\":16553:16684   */\n      tag_360\n        /* \"#utility.yul\":16679:16683   */\n      dup2\n        /* \"#utility.yul\":16553:16684   */\n      tag_183\n      jump\t// in\n    tag_360:\n        /* \"#utility.yul\":16545:16684   */\n      swap1\n      pop\n        /* \"#utility.yul\":16272:16691   */\n      swap2\n      swap1\n      pop\n      jump\t// out\n        /* \"#utility.yul\":16697:16919   */\n    tag_103:\n        /* \"#utility.yul\":16790:16794   */\n      0x00\n        /* \"#utility.yul\":16828:16830   */\n      0x20\n        /* \"#utility.yul\":16817:16826   */\n      dup3\n        /* \"#utility.yul\":16813:16831   */\n      add\n        /* \"#utility.yul\":16805:16831   */\n      swap1\n      pop\n        /* \"#utility.yul\":16841:16912   */\n      tag_362\n        /* \"#utility.yul\":16909:16910   */\n      0x00\n        /* \"#utility.yul\":16898:16907   */\n      dup4\n        /* \"#utility.yul\":16894:16911   */\n      add\n        /* \"#utility.yul\":16885:16891   */\n      dup5\n        /* \"#utility.yul\":16841:16912   */\n      tag_145\n      jump\t// in\n    tag_362:\n        /* \"#utility.yul\":16697:16919   */\n      swap3\n      swap2\n      pop\n      pop\n      jump\t// out\n        /* \"#utility.yul\":16925:17068   */\n    tag_184:\n        /* \"#utility.yul\":16982:16987   */\n      0x00\n        /* \"#utility.yul\":17013:17019   */\n      dup2\n        /* \"#utility.yul\":17007:17020   */\n      mload\n        /* \"#utility.yul\":16998:17020   */\n      swap1\n      pop\n        /* \"#utility.yul\":17029:17062   */\n      tag_364\n        /* \"#utility.yul\":17056:17061   */\n      dup2\n        /* \"#utility.yul\":17029:17062   */\n      tag_139\n      jump\t// in\n    tag_364:\n        /* \"#utility.yul\":16925:17068   */\n      swap3\n      swap2\n      pop\n      pop\n      jump\t// out\n        /* \"#utility.yul\":17074:17425   */\n    tag_107:\n        /* \"#utility.yul\":17144:17150   */\n      0x00\n        /* \"#utility.yul\":17193:17195   */\n      0x20\n        /* \"#utility.yul\":17181:17190   */\n      dup3\n        /* \"#utility.yul\":17172:17179   */\n      dup5\n        /* \"#utility.yul\":17168:17191   */\n      sub\n        /* \"#utility.yul\":17164:17196   */\n      slt\n        /* \"#utility.yul\":17161:17280   */\n      iszero\n      tag_366\n      jumpi\n        /* \"#utility.yul\":17199:17278   */\n      tag_367\n      tag_135\n      jump\t// in\n    tag_367:\n        /* \"#utility.yul\":17161:17280   */\n    tag_366:\n        /* \"#utility.yul\":17319:17320   */\n      0x00\n        /* \"#utility.yul\":17344:17408   */\n      tag_368\n        /* \"#utility.yul\":17400:17407   */\n      dup5\n        /* \"#utility.yul\":17391:17397   */\n      dup3\n        /* \"#utility.yul\":17380:17389   */\n      dup6\n        /* \"#utility.yul\":17376:17398   */\n      add\n        /* \"#utility.yul\":17344:17408   */\n      tag_184\n      jump\t// in\n    tag_368:\n        /* \"#utility.yul\":17334:17408   */\n      swap2\n      pop\n        /* \"#utility.yul\":17290:17418   */\n      pop\n        /* \"#utility.yul\":17074:17425   */\n      swap3\n      swap2\n      pop\n      pop\n      jump\t// out\n        /* \"#utility.yul\":17431:17572   */\n    tag_185:\n        /* \"#utility.yul\":17480:17484   */\n      0x00\n        /* \"#utility.yul\":17503:17506   */\n      dup2\n        /* \"#utility.yul\":17495:17506   */\n      swap1\n      pop\n        /* \"#utility.yul\":17526:17529   */\n      dup2\n        /* \"#utility.yul\":17523:17524   */\n      0x00\n        /* \"#utility.yul\":17516:17530   */\n      mstore\n        /* \"#utility.yul\":17560:17564   */\n      0x20\n        /* \"#utility.yul\":17557:17558   */\n      0x00\n        /* \"#utility.yul\":17547:17565   */\n      keccak256\n        /* \"#utility.yul\":17539:17565   */\n      swap1\n      pop\n        /* \"#utility.yul\":17431:17572   */\n      swap2\n      swap1\n      pop\n      jump\t// out\n        /* \"#utility.yul\":17578:17671   */\n    tag_186:\n        /* \"#utility.yul\":17615:17621   */\n      0x00\n        /* \"#utility.yul\":17662:17664   */\n      0x20\n        /* \"#utility.yul\":17657:17659   */\n      0x1f\n        /* \"#utility.yul\":17650:17655   */\n      dup4\n        /* \"#utility.yul\":17646:17660   */\n      add\n        /* \"#utility.yul\":17642:17665   */\n      div\n        /* \"#utility.yul\":17632:17665   */\n      swap1\n      pop\n        /* \"#utility.yul\":17578:17671   */\n      swap2\n      swap1\n      pop\n      jump\t// out\n        /* \"#utility.yul\":17677:17784   */\n    tag_187:\n        /* \"#utility.yul\":17721:17729   */\n      0x00\n        /* \"#utility.yul\":17771:17776   */\n      dup3\n        /* \"#utility.yul\":17765:17769   */\n      dup3\n        /* \"#utility.yul\":17761:17777   */\n      shl\n        /* \"#utility.yul\":17740:17777   */\n      swap1\n      pop\n        /* \"#utility.yul\":17677:17784   */\n      swap3\n      swap2\n      pop\n      pop\n      jump\t// out\n        /* \"#utility.yul\":17790:18183   */\n    tag_188:\n        /* \"#utility.yul\":17859:17865   */\n      0x00\n        /* \"#utility.yul\":17909:17910   */\n      0x08\n        /* \"#utility.yul\":17897:17907   */\n      dup4\n        /* \"#utility.yul\":17893:17911   */\n      mul\n        /* \"#utility.yul\":17932:18029   */\n      tag_373\n        /* \"#utility.yul\":17962:18028   */\n      0xffffffffffffffffffffffffffffffffffffffffffffffffffffffffffffffff\n        /* \"#utility.yul\":17951:17960   */\n      dup3\n        /* \"#utility.yul\":17932:18029   */\n      tag_187\n      jump\t// in\n    tag_373:\n        /* \"#utility.yul\":18050:18089   */\n      tag_374\n        /* \"#utility.yul\":18080:18088   */\n      dup7\n        /* \"#utility.yul\":18069:18078   */\n      dup4\n        /* \"#utility.yul\":18050:18089   */\n      tag_187\n      jump\t// in\n    tag_374:\n        /* \"#utility.yul\":18038:18089   */\n      swap6\n      pop\n        /* \"#utility.yul\":18122:18126   */\n      dup1\n        /* \"#utility.yul\":18118:18127   */\n      not\n        /* \"#utility.yul\":18111:18116   */\n      dup5\n        /* \"#utility.yul\":18107:18128   */\n      and\n        /* \"#utility.yul\":18098:18128   */\n      swap4\n      pop\n        /* \"#utility.yul\":18171:18175   */\n      dup1\n        /* \"#utility.yul\":18161:18169   */\n      dup7\n        /* \"#utility.yul\":18157:18176   */\n      and\n        /* \"#utility.yul\":18150:18155   */\n      dup5\n        /* \"#utility.yul\":18147:18177   */\n      or\n        /* \"#utility.yul\":18137:18177   */\n      swap3\n      pop\n        /* \"#utility.yul\":17866:18183   */\n      pop\n      pop\n        /* \"#utility.yul\":17790:18183   */\n      swap4\n      swap3\n      pop\n      pop\n      pop\n      jump\t// out\n        /* \"#utility.yul\":18189:18331   */\n    tag_189:\n        /* \"#utility.yul\":18239:18248   */\n      0x00\n        /* \"#utility.yul\":18272:18325   */\n      tag_376\n        /* \"#utility.yul\":18290:18324   */\n      tag_377\n        /* \"#utility.yul\":18299:18323   */\n      tag_378\n        /* \"#utility.yul\":18317:18322   */\n      dup5\n        /* \"#utility.yul\":18299:18323   */\n      tag_141\n      jump\t// in\n    tag_378:\n        /* \"#utility.yul\":18290:18324   */\n      tag_168\n      jump\t// in\n    tag_377:\n        /* \"#utility.yul\":18272:18325   */\n      tag_141\n      jump\t// in\n    tag_376:\n        /* \"#utility.yul\":18259:18325   */\n      swap1\n      pop\n        /* \"#utility.yul\":18189:18331   */\n      swap2\n      swap1\n      pop\n      jump\t// out\n        /* \"#utility.yul\":18337:18412   */\n    tag_190:\n        /* \"#utility.yul\":18380:18383   */\n      0x00\n        /* \"#utility.yul\":18401:18406   */\n      dup2\n        /* \"#utility.yul\":18394:18406   */\n      swap1\n      pop\n        /* \"#utility.yul\":18337:18412   */\n      swap2\n      swap1\n      pop\n      jump\t// out\n        /* \"#utility.yul\":18418:18687   */\n    tag_191:\n        /* \"#utility.yul\":18528:18567   */\n      tag_381\n        /* \"#utility.yul\":18559:18566   */\n      dup4\n        /* \"#utility.yul\":18528:18567   */\n      tag_189\n      jump\t// in\n    tag_381:\n        /* \"#utility.yul\":18589:18680   */\n      tag_382\n        /* \"#utility.yul\":18638:18679   */\n      tag_383\n        /* \"#utility.yul\":18662:18678   */\n      dup3\n        /* \"#utility.yul\":18638:18679   */\n      tag_190\n      jump\t// in\n    tag_383:\n        /* \"#utility.yul\":18630:18636   */\n      dup5\n        /* \"#utility.yul\":18623:18627   */\n      dup5\n        /* \"#utility.yul\":18617:18628   */\n      sload\n        /* \"#utility.yul\":18589:18680   */\n      tag_188\n      jump\t// in\n    tag_382:\n        /* \"#utility.yul\":18583:18587   */\n      dup3\n        /* \"#utility.yul\":18576:18681   */\n      sstore\n        /* \"#utility.yul\":18494:18687   */\n      pop\n        /* \"#utility.yul\":18418:18687   */\n      pop\n      pop\n      pop\n      jump\t// out\n        /* \"#utility.yul\":18693:18766   */\n    tag_192:\n        /* \"#utility.yul\":18738:18741   */\n      0x00\n        /* \"#utility.yul\":18693:18766   */\n      swap1\n      jump\t// out\n        /* \"#utility.yul\":18772:18961   */\n    tag_193:\n        /* \"#utility.yul\":18849:18881   */\n      tag_386\n      tag_192\n      jump\t// in\n    tag_386:\n        /* \"#utility.yul\":18890:18955   */\n      tag_387\n        /* \"#utility.yul\":18948:18954   */\n      dup2\n        /* \"#utility.yul\":18940:18946   */\n      dup5\n        /* \"#utility.yul\":18934:18938   */\n      dup5\n        /* \"#utility.yul\":18890:18955   */\n      tag_191\n      jump\t// in\n    tag_387:\n        /* \"#utility.yul\":18825:18961   */\n      pop\n        /* \"#utility.yul\":18772:18961   */\n      pop\n      pop\n      jump\t// out\n        /* \"#utility.yul\":18967:19153   */\n    tag_194:\n        /* \"#utility.yul\":19027:19147   */\n    tag_389:\n        /* \"#utility.yul\":19044:19047   */\n      dup2\n        /* \"#utility.yul\":19037:19042   */\n      dup2\n        /* \"#utility.yul\":19034:19048   */\n      lt\n        /* \"#utility.yul\":19027:19147   */\n      iszero\n      tag_391\n      jumpi\n        /* \"#utility.yul\":19098:19137   */\n      tag_392\n        /* \"#utility.yul\":19135:19136   */\n      0x00\n        /* \"#utility.yul\":19128:19133   */\n      dup3\n        /* \"#utility.yul\":19098:19137   */\n      tag_193\n      jump\t// in\n    tag_392:\n        /* \"#utility.yul\":19071:19072   */\n      0x01\n        /* \"#utility.yul\":19064:19069   */\n      dup2\n        /* \"#utility.yul\":19060:19073   */\n      add\n        /* \"#utility.yul\":19051:19073   */\n      swap1\n      pop\n        /* \"#utility.yul\":19027:19147   */\n      jump(tag_389)\n    tag_391:\n        /* \"#utility.yul\":18967:19153   */\n      pop\n      pop\n      jump\t// out\n        /* \"#utility.yul\":19159:19702   */\n    tag_195:\n        /* \"#utility.yul\":19260:19262   */\n      0x1f\n        /* \"#utility.yul\":19255:19258   */\n      dup3\n        /* \"#utility.yul\":19252:19263   */\n      gt\n        /* \"#utility.yul\":19249:19695   */\n      iszero\n      tag_394\n      jumpi\n        /* \"#utility.yul\":19294:19332   */\n      tag_395\n        /* \"#utility.yul\":19326:19331   */\n      dup2\n        /* \"#utility.yul\":19294:19332   */\n      tag_185\n      jump\t// in\n    tag_395:\n        /* \"#utility.yul\":19378:19407   */\n      tag_396\n        /* \"#utility.yul\":19396:19406   */\n      dup5\n        /* \"#utility.yul\":19378:19407   */\n      tag_186\n      jump\t// in\n    tag_396:\n        /* \"#utility.yul\":19368:19376   */\n      dup2\n        /* \"#utility.yul\":19364:19408   */\n      add\n        /* \"#utility.yul\":19561:19563   */\n      0x20\n        /* \"#utility.yul\":19549:19559   */\n      dup6\n        /* \"#utility.yul\":19546:19564   */\n      lt\n        /* \"#utility.yul\":19543:19592   */\n      iszero\n      tag_397\n      jumpi\n        /* \"#utility.yul\":19582:19590   */\n      dup2\n        /* \"#utility.yul\":19567:19590   */\n      swap1\n      pop\n        /* \"#utility.yul\":19543:19592   */\n    tag_397:\n        /* \"#utility.yul\":19605:19685   */\n      tag_398\n        /* \"#utility.yul\":19661:19683   */\n      tag_399\n        /* \"#utility.yul\":19679:19682   */\n      dup6\n        /* \"#utility.yul\":19661:19683   */\n      tag_186\n      jump\t// in\n    tag_399:\n        /* \"#utility.yul\":19651:19659   */\n      dup4\n        /* \"#utility.yul\":19647:19684   */\n      add\n        /* \"#utility.yul\":19634:19645   */\n      dup3\n        /* \"#utility.yul\":19605:19685   */\n      tag_194\n      jump\t// in\n    tag_398:\n        /* \"#utility.yul\":19264:19695   */\n      pop\n      pop\n        /* \"#utility.yul\":19249:19695   */\n    tag_394:\n        /* \"#utility.yul\":19159:19702   */\n      pop\n      pop\n      pop\n      jump\t// out\n        /* \"#utility.yul\":19708:19825   */\n    tag_196:\n        /* \"#utility.yul\":19762:19770   */\n      0x00\n        /* \"#utility.yul\":19812:19817   */\n      dup3\n        /* \"#utility.yul\":19806:19810   */\n      dup3\n        /* \"#utility.yul\":19802:19818   */\n      shr\n        /* \"#utility.yul\":19781:19818   */\n      swap1\n      pop\n        /* \"#utility.yul\":19708:19825   */\n      swap3\n      swap2\n      pop\n      pop\n      jump\t// out\n        /* \"#utility.yul\":19831:20000   */\n    tag_197:\n        /* \"#utility.yul\":19875:19881   */\n      0x00\n        /* \"#utility.yul\":19908:19959   */\n      tag_402\n        /* \"#utility.yul\":19956:19957   */\n      0x00\n        /* \"#utility.yul\":19952:19958   */\n      not\n        /* \"#utility.yul\":19944:19949   */\n      dup5\n        /* \"#utility.yul\":19941:19942   */\n      0x08\n        /* \"#utility.yul\":19937:19950   */\n      mul\n        /* \"#utility.yul\":19908:19959   */\n      tag_196\n      jump\t// in\n    tag_402:\n        /* \"#utility.yul\":19904:19960   */\n      not\n        /* \"#utility.yul\":19989:19993   */\n      dup1\n        /* \"#utility.yul\":19983:19987   */\n      dup4\n        /* \"#utility.yul\":19979:19994   */\n      and\n        /* \"#utility.yul\":19969:19994   */\n      swap2\n      pop\n        /* \"#utility.yul\":19882:20000   */\n      pop\n        /* \"#utility.yul\":19831:20000   */\n      swap3\n      swap2\n      pop\n      pop\n      jump\t// out\n        /* \"#utility.yul\":20005:20300   */\n    tag_198:\n        /* \"#utility.yul\":20081:20085   */\n      0x00\n        /* \"#utility.yul\":20227:20256   */\n      tag_404\n        /* \"#utility.yul\":20252:20255   */\n      dup4\n        /* \"#utility.yul\":20246:20250   */\n      dup4\n        /* \"#utility.yul\":20227:20256   */\n      tag_197\n      jump\t// in\n    tag_404:\n        /* \"#utility.yul\":20219:20256   */\n      swap2\n      pop\n        /* \"#utility.yul\":20289:20292   */\n      dup3\n        /* \"#utility.yul\":20286:20287   */\n      0x02\n        /* \"#utility.yul\":20282:20293   */\n      mul\n        /* \"#utility.yul\":20276:20280   */\n      dup3\n        /* \"#utility.yul\":20273:20294   */\n      or\n        /* \"#utility.yul\":20265:20294   */\n      swap1\n      pop\n        /* \"#utility.yul\":20005:20300   */\n      swap3\n      swap2\n      pop\n      pop\n      jump\t// out\n        /* \"#utility.yul\":20305:21700   */\n    tag_113:\n        /* \"#utility.yul\":20422:20459   */\n      tag_406\n        /* \"#utility.yul\":20455:20458   */\n      dup3\n        /* \"#utility.yul\":20422:20459   */\n      tag_146\n      jump\t// in\n    tag_406:\n        /* \"#utility.yul\":20524:20542   */\n      0xffffffffffffffff\n        /* \"#utility.yul\":20516:20522   */\n      dup2\n        /* \"#utility.yul\":20513:20543   */\n      gt\n        /* \"#utility.yul\":20510:20566   */\n      iszero\n      tag_407\n      jumpi\n        /* \"#utility.yul\":20546:20564   */\n      tag_408\n      tag_110\n      jump\t// in\n    tag_408:\n        /* \"#utility.yul\":20510:20566   */\n    tag_407:\n        /* \"#utility.yul\":20590:20628   */\n      tag_409\n        /* \"#utility.yul\":20622:20626   */\n      dup3\n        /* \"#utility.yul\":20616:20627   */\n      sload\n        /* \"#utility.yul\":20590:20628   */\n      tag_77\n      jump\t// in\n    tag_409:\n        /* \"#utility.yul\":20675:20742   */\n      tag_410\n        /* \"#utility.yul\":20735:20741   */\n      dup3\n        /* \"#utility.yul\":20727:20733   */\n      dup3\n        /* \"#utility.yul\":20721:20725   */\n      dup6\n        /* \"#utility.yul\":20675:20742   */\n      tag_195\n      jump\t// in\n    tag_410:\n        /* \"#utility.yul\":20769:20770   */\n      0x00\n        /* \"#utility.yul\":20793:20797   */\n      0x20\n        /* \"#utility.yul\":20780:20797   */\n      swap1\n      pop\n        /* \"#utility.yul\":20825:20827   */\n      0x1f\n        /* \"#utility.yul\":20817:20823   */\n      dup4\n        /* \"#utility.yul\":20814:20828   */\n      gt\n        /* \"#utility.yul\":20842:20843   */\n      0x01\n        /* \"#utility.yul\":20837:21455   */\n      dup2\n      eq\n      tag_412\n      jumpi\n        /* \"#utility.yul\":21499:21500   */\n      0x00\n        /* \"#utility.yul\":21516:21522   */\n      dup5\n        /* \"#utility.yul\":21513:21590   */\n      iszero\n      tag_413\n      jumpi\n        /* \"#utility.yul\":21565:21574   */\n      dup3\n        /* \"#utility.yul\":21560:21563   */\n      dup8\n        /* \"#utility.yul\":21556:21575   */\n      add\n        /* \"#utility.yul\":21550:21576   */\n      mload\n        /* \"#utility.yul\":21541:21576   */\n      swap1\n      pop\n        /* \"#utility.yul\":21513:21590   */\n    tag_413:\n        /* \"#utility.yul\":21616:21683   */\n      tag_414\n        /* \"#utility.yul\":21676:21682   */\n      dup6\n        /* \"#utility.yul\":21669:21674   */\n      dup3\n        /* \"#utility.yul\":21616:21683   */\n      tag_198\n      jump\t// in\n    tag_414:\n        /* \"#utility.yul\":21610:21614   */\n      dup7\n        /* \"#utility.yul\":21603:21684   */\n      sstore\n        /* \"#utility.yul\":21472:21694   */\n      pop\n        /* \"#utility.yul\":20807:21694   */\n      jump(tag_411)\n        /* \"#utility.yul\":20837:21455   */\n    tag_412:\n        /* \"#utility.yul\":20889:20893   */\n      0x1f\n        /* \"#utility.yul\":20885:20894   */\n      not\n        /* \"#utility.yul\":20877:20883   */\n      dup5\n        /* \"#utility.yul\":20873:20895   */\n      and\n        /* \"#utility.yul\":20923:20960   */\n      tag_415\n        /* \"#utility.yul\":20955:20959   */\n      dup7\n        /* \"#utility.yul\":20923:20960   */\n      tag_185\n      jump\t// in\n    tag_415:\n        /* \"#utility.yul\":20982:20983   */\n      0x00\n        /* \"#utility.yul\":20996:21204   */\n    tag_416:\n        /* \"#utility.yul\":21010:21017   */\n      dup3\n        /* \"#utility.yul\":21007:21008   */\n      dup2\n        /* \"#utility.yul\":21004:21018   */\n      lt\n        /* \"#utility.yul\":20996:21204   */\n      iszero\n      tag_418\n      jumpi\n        /* \"#utility.yul\":21089:21098   */\n      dup5\n        /* \"#utility.yul\":21084:21087   */\n      dup10\n        /* \"#utility.yul\":21080:21099   */\n      add\n        /* \"#utility.yul\":21074:21100   */\n      mload\n        /* \"#utility.yul\":21066:21072   */\n      dup3\n        /* \"#utility.yul\":21059:21101   */\n      sstore\n        /* \"#utility.yul\":21140:21141   */\n      0x01\n        /* \"#utility.yul\":21132:21138   */\n      dup3\n        /* \"#utility.yul\":21128:21142   */\n      add\n        /* \"#utility.yul\":21118:21142   */\n      swap2\n      pop\n        /* \"#utility.yul\":21187:21189   */\n      0x20\n        /* \"#utility.yul\":21176:21185   */\n      dup6\n        /* \"#utility.yul\":21172:21190   */\n      add\n        /* \"#utility.yul\":21159:21190   */\n      swap5\n      pop\n        /* \"#utility.yul\":21033:21037   */\n      0x20\n        /* \"#utility.yul\":21030:21031   */\n      dup2\n        /* \"#utility.yul\":21026:21038   */\n      add\n        /* \"#utility.yul\":21021:21038   */\n      swap1\n      pop\n        /* \"#utility.yul\":20996:21204   */\n      jump(tag_416)\n    tag_418:\n        /* \"#utility.yul\":21232:21238   */\n      dup7\n        /* \"#utility.yul\":21223:21230   */\n      dup4\n        /* \"#utility.yul\":21220:21239   */\n      lt\n        /* \"#utility.yul\":21217:21396   */\n      iszero\n      tag_419\n      jumpi\n        /* \"#utility.yul\":21290:21299   */\n      dup5\n        /* \"#utility.yul\":21285:21288   */\n      dup10\n        /* \"#utility.yul\":21281:21300   */\n      add\n        /* \"#utility.yul\":21275:21301   */\n      mload\n        /* \"#utility.yul\":21333:21381   */\n      tag_420\n        /* \"#utility.yul\":21375:21379   */\n      0x1f\n        /* \"#utility.yul\":21367:21373   */\n      dup10\n        /* \"#utility.yul\":21363:21380   */\n      and\n        /* \"#utility.yul\":21352:21361   */\n      dup3\n        /* \"#utility.yul\":21333:21381   */\n      tag_197\n      jump\t// in\n    tag_420:\n        /* \"#utility.yul\":21325:21331   */\n      dup4\n        /* \"#utility.yul\":21318:21382   */\n      sstore\n        /* \"#utility.yul\":21240:21396   */\n      pop\n        /* \"#utility.yul\":21217:21396   */\n    tag_419:\n        /* \"#utility.yul\":21442:21443   */\n      0x01\n        /* \"#utility.yul\":21438:21439   */\n      0x02\n        /* \"#utility.yul\":21430:21436   */\n      dup9\n        /* \"#utility.yul\":21426:21440   */\n      mul\n        /* \"#utility.yul\":21422:21444   */\n      add\n        /* \"#utility.yul\":21416:21420   */\n      dup9\n        /* \"#utility.yul\":21409:21445   */\n      sstore\n        /* \"#utility.yul\":20844:21455   */\n      pop\n      pop\n      pop\n        /* \"#utility.yul\":20807:21694   */\n    tag_411:\n      pop\n        /* \"#utility.yul\":20397:21700   */\n      pop\n      pop\n      pop\n        /* \"#utility.yul\":20305:21700   */\n      pop\n      pop\n      jump\t// out\n        /* \"#utility.yul\":21706:21886   */\n    tag_118:\n        /* \"#utility.yul\":21754:21831   */\n      0x4e487b7100000000000000000000000000000000000000000000000000000000\n        /* \"#utility.yul\":21751:21752   */\n      0x00\n        /* \"#utility.yul\":21744:21832   */\n      mstore\n        /* \"#utility.yul\":21851:21855   */\n      0x32\n        /* \"#utility.yul\":21848:21849   */\n      0x04\n        /* \"#utility.yul\":21841:21856   */\n      mstore\n        /* \"#utility.yul\":21875:21879   */\n      0x24\n        /* \"#utility.yul\":21872:21873   */\n      0x00\n        /* \"#utility.yul\":21865:21880   */\n      revert\n        /* \"#utility.yul\":21892:22425   */\n    tag_121:\n        /* \"#utility.yul\":22061:22065   */\n      0x00\n        /* \"#utility.yul\":22099:22101   */\n      0x60\n        /* \"#utility.yul\":22088:22097   */\n      dup3\n        /* \"#utility.yul\":22084:22102   */\n      add\n        /* \"#utility.yul\":22076:22102   */\n      swap1\n      pop\n        /* \"#utility.yul\":22112:22183   */\n      tag_423\n        /* \"#utility.yul\":22180:22181   */\n      0x00\n        /* \"#utility.yul\":22169:22178   */\n      dup4\n        /* \"#utility.yul\":22165:22182   */\n      add\n        /* \"#utility.yul\":22156:22162   */\n      dup7\n        /* \"#utility.yul\":22112:22183   */\n      tag_145\n      jump\t// in\n    tag_423:\n        /* \"#utility.yul\":22230:22239   */\n      dup2\n        /* \"#utility.yul\":22224:22228   */\n      dup2\n        /* \"#utility.yul\":22220:22240   */\n      sub\n        /* \"#utility.yul\":22215:22217   */\n      0x20\n        /* \"#utility.yul\":22204:22213   */\n      dup4\n        /* \"#utility.yul\":22200:22218   */\n      add\n        /* \"#utility.yul\":22193:22241   */\n      mstore\n        /* \"#utility.yul\":22258:22336   */\n      tag_424\n        /* \"#utility.yul\":22331:22335   */\n      dup2\n        /* \"#utility.yul\":22322:22328   */\n      dup6\n        /* \"#utility.yul\":22258:22336   */\n      tag_150\n      jump\t// in\n    tag_424:\n        /* \"#utility.yul\":22250:22336   */\n      swap1\n      pop\n        /* \"#utility.yul\":22346:22418   */\n      tag_425\n        /* \"#utility.yul\":22414:22416   */\n      0x40\n        /* \"#utility.yul\":22403:22412   */\n      dup4\n        /* \"#utility.yul\":22399:22417   */\n      add\n        /* \"#utility.yul\":22390:22396   */\n      dup5\n        /* \"#utility.yul\":22346:22418   */\n      tag_144\n      jump\t// in\n    tag_425:\n        /* \"#utility.yul\":21892:22425   */\n      swap5\n      swap4\n      pop\n      pop\n      pop\n      pop\n      jump\t// out\n\n    auxdata: 0xa2646970667358221220878922bfe9086f91308295ecfd5c2d0f4c8579dab88e971cd8cc50d041c1953564736f6c634300081a0033\n}\n",
				"bytecode": {
					"linkReferences": {},
					"object": "608060405234801561000f575f80fd5b50604051611a37380380611a3783398181016040528101906100319190610114565b3360015f6101000a81548173ffffffffffffffffffffffffffffffffffffffff021916908373ffffffffffffffffffffffffffffffffffffffff160217905550805f806101000a81548173ffffffffffffffffffffffffffffffffffffffff021916908373ffffffffffffffffffffffffffffffffffffffff1602179055505061013f565b5f80fd5b5f73ffffffffffffffffffffffffffffffffffffffff82169050919050565b5f6100e3826100ba565b9050919050565b6100f3816100d9565b81146100fd575f80fd5b50565b5f8151905061010e816100ea565b92915050565b5f60208284031215610129576101286100b6565b5b5f61013684828501610100565b91505092915050565b6118eb8061014c5f395ff3fe608060405234801561000f575f80fd5b50600436106100a7575f3560e01c80639000b3d61161006f5780639000b3d614610150578063a00fd3c81461016c578063c8691b2a14610188578063d0b6b6db146101b8578063daf6ca30146101d6578063f9281222146101f4576100a7565b80630593d244146100ab57806329507f73146100c757806374754282146100e35780637acc0b20146101015780638753367f14610134575b5f80fd5b6100c560048036038101906100c09190610e14565b610224565b005b6100e160048036038101906100dc9190610e72565b6102f6565b005b6100eb610517565b6040516100f89190610ebf565b60405180910390f35b61011b60048036038101906101169190610ed8565b61053c565b60405161012b9493929190610f9c565b60405180910390f35b61014e60048036038101906101499190610ed8565b61061a565b005b61016a60048036038101906101659190610e14565b610760565b005b61018660048036038101906101819190611112565b610847565b005b6101a2600480360381019061019d9190610ed8565b610bae565b6040516101af9190611223565b60405180910390f35b6101c0610ca2565b6040516101cd919061129e565b60405180910390f35b6101de610cc5565b6040516101eb9190610ebf565b60405180910390f35b61020e60048036038101906102099190610e14565b610cea565b60405161021b91906112b7565b60405180910390f35b60015f9054906101000a900473ffffffffffffffffffffffffffffffffffffffff1673ffffffffffffffffffffffffffffffffffffffff163373ffffffffffffffffffffffffffffffffffffffff16146102b3576040517f08c379a00000000000000000000000000000000000000000000000000000000081526004016102aa9061131a565b60405180910390fd5b8060025f6101000a81548173ffffffffffffffffffffffffffffffffffffffff021916908373ffffffffffffffffffffffffffffffffffffffff16021790555050565b60025f9054906101000a900473ffffffffffffffffffffffffffffffffffffffff1673ffffffffffffffffffffffffffffffffffffffff163373ffffffffffffffffffffffffffffffffffffffff1614610385576040517f08c379a000000000000000000000000000000000000000000000000000000000815260040161037c90611382565b60405180910390fd5b5f60035f8481526020019081526020015f205f0154036103da576040517f08c379a00000000000000000000000000000000000000000000000000000000081526004016103d1906113ea565b60405180910390fd5b5f60035f8481526020019081526020015f2060020160019054906101000a900473ffffffffffffffffffffffffffffffffffffffff1690508160035f8581526020019081526020015f2060020160016101000a81548173ffffffffffffffffffffffffffffffffffffffff021916908373ffffffffffffffffffffffffffffffffffffffff16021790555060035f8481526020019081526020015f2060030182908060018154018082558091505060019003905f5260205f20015f9091909190916101000a81548173ffffffffffffffffffffffffffffffffffffffff021916908373ffffffffffffffffffffffffffffffffffffffff1602179055507f16b85f49bf01212961345d3016c9a531894accf62eb7680f2045d79185cc0ec083828460405161050a93929190611408565b60405180910390a1505050565b60015f9054906101000a900473ffffffffffffffffffffffffffffffffffffffff1681565b6003602052805f5260405f205f91509050805f0154908060010180546105619061146a565b80601f016020809104026020016040519081016040528092919081815260200182805461058d9061146a565b80156105d85780601f106105af576101008083540402835291602001916105d8565b820191905f5260205f20905b8154815290600101906020018083116105bb57829003601f168201915b505050505090806002015f9054906101000a900460ff16908060020160019054906101000a900473ffffffffffffffffffffffffffffffffffffffff16905084565b60045f3373ffffffffffffffffffffffffffffffffffffffff1673ffffffffffffffffffffffffffffffffffffffff1681526020019081526020015f205f9054906101000a900460ff166106a3576040517f08c379a000000000000000000000000000000000000000000000000000000000815260040161069a906114e4565b60405180910390fd5b5f60035f8381526020019081526020015f205f0154036106f8576040517f08c379a00000000000000000000000000000000000000000000000000000000081526004016106ef906113ea565b60405180910390fd5b600160035f8381526020019081526020015f206002015f6101000a81548160ff0219169083151502179055507fab60911bebc6d3ab48620594e409545834da76f4995297ebc48ca5589f25437b8133604051610755929190611502565b60405180910390a150565b60015f9054906101000a900473ffffffffffffffffffffffffffffffffffffffff1673ffffffffffffffffffffffffffffffffffffffff163373ffffffffffffffffffffffffffffffffffffffff16146107ef576040517f08c379a00000000000000000000000000000000000000000000000000000000081526004016107e69061131a565b60405180910390fd5b600160045f8373ffffffffffffffffffffffffffffffffffffffff1673ffffffffffffffffffffffffffffffffffffffff1681526020019081526020015f205f6101000a81548160ff02191690831515021790555050565b60015f9054906101000a900473ffffffffffffffffffffffffffffffffffffffff1673ffffffffffffffffffffffffffffffffffffffff163373ffffffffffffffffffffffffffffffffffffffff16146108d6576040517f08c379a00000000000000000000000000000000000000000000000000000000081526004016108cd9061131a565b60405180910390fd5b5f60035f8481526020019081526020015f205f01541461092b576040517f08c379a000000000000000000000000000000000000000000000000000000000815260040161092290611573565b60405180910390fd5b5f805f9054906101000a900473ffffffffffffffffffffffffffffffffffffffff1673ffffffffffffffffffffffffffffffffffffffff16636352211e846040518263ffffffff1660e01b81526004016109859190611591565b602060405180830381865afa1580156109a0573d5f803e3d5ffd5b505050506040513d601f19601f820116820180604052508101906109c491906115be565b90506040518060a001604052808481526020018381526020015f151581526020018273ffffffffffffffffffffffffffffffffffffffff1681526020015f67ffffffffffffffff811115610a1b57610a1a610fee565b5b604051908082528060200260200182016040528015610a495781602001602082028036833780820191505090505b5081525060035f8581526020019081526020015f205f820151815f01556020820151816001019081610a7b919061177d565b506040820151816002015f6101000a81548160ff02191690831515021790555060608201518160020160016101000a81548173ffffffffffffffffffffffffffffffffffffffff021916908373ffffffffffffffffffffffffffffffffffffffff1602179055506080820151816003019080519060200190610afe929190610d07565b509050508060035f8581526020019081526020015f206003015f81548110610b2957610b2861184c565b5b905f5260205f20015f6101000a81548173ffffffffffffffffffffffffffffffffffffffff021916908373ffffffffffffffffffffffffffffffffffffffff1602179055507fd810998a0248808a33b20218e71759cb2ec1a182b398350ad606d742587c012c838383604051610ba193929190611879565b60405180910390a1505050565b60605f60035f8481526020019081526020015f205f015403610c05576040517f08c379a0000000000000000000000000000000000000000000000000000000008152600401610bfc906113ea565b60405180910390fd5b60035f8381526020019081526020015f20600301805480602002602001604051908101604052809291908181526020018280548015610c9657602002820191905f5260205f20905b815f9054906101000a900473ffffffffffffffffffffffffffffffffffffffff1673ffffffffffffffffffffffffffffffffffffffff1681526020019060010190808311610c4d575b50505050509050919050565b5f8054906101000a900473ffffffffffffffffffffffffffffffffffffffff1681565b60025f9054906101000a900473ffffffffffffffffffffffffffffffffffffffff1681565b6004602052805f5260405f205f915054906101000a900460ff1681565b828054828255905f5260205f20908101928215610d7d579160200282015b82811115610d7c578251825f6101000a81548173ffffffffffffffffffffffffffffffffffffffff021916908373ffffffffffffffffffffffffffffffffffffffff16021790555091602001919060010190610d25565b5b509050610d8a9190610d8e565b5090565b5b80821115610da5575f815f905550600101610d8f565b5090565b5f604051905090565b5f80fd5b5f80fd5b5f73ffffffffffffffffffffffffffffffffffffffff82169050919050565b5f610de382610dba565b9050919050565b610df381610dd9565b8114610dfd575f80fd5b50565b5f81359050610e0e81610dea565b92915050565b5f60208284031215610e2957610e28610db2565b5b5f610e3684828501610e00565b91505092915050565b5f819050919050565b610e5181610e3f565b8114610e5b575f80fd5b50565b5f81359050610e6c81610e48565b92915050565b5f8060408385031215610e8857610e87610db2565b5b5f610e9585828601610e5e565b9250506020610ea685828601610e00565b9150509250929050565b610eb981610dd9565b82525050565b5f602082019050610ed25f830184610eb0565b92915050565b5f60208284031215610eed57610eec610db2565b5b5f610efa84828501610e5e565b91505092915050565b610f0c81610e3f565b82525050565b5f81519050919050565b5f82825260208201905092915050565b8281835e5f83830152505050565b5f601f19601f8301169050919050565b5f610f5482610f12565b610f5e8185610f1c565b9350610f6e818560208601610f2c565b610f7781610f3a565b840191505092915050565b5f8115159050919050565b610f9681610f82565b82525050565b5f608082019050610faf5f830187610f03565b8181036020830152610fc18186610f4a565b9050610fd06040830185610f8d565b610fdd6060830184610eb0565b95945050505050565b5f80fd5b5f80fd5b7f4e487b71000000000000000000000000000000000000000000000000000000005f52604160045260245ffd5b61102482610f3a565b810181811067ffffffffffffffff8211171561104357611042610fee565b5b80604052505050565b5f611055610da9565b9050611061828261101b565b919050565b5f67ffffffffffffffff8211156110805761107f610fee565b5b61108982610f3a565b9050602081019050919050565b828183375f83830152505050565b5f6110b66110b184611066565b61104c565b9050828152602081018484840111156110d2576110d1610fea565b5b6110dd848285611096565b509392505050565b5f82601f8301126110f9576110f8610fe6565b5b81356111098482602086016110a4565b91505092915050565b5f806040838503121561112857611127610db2565b5b5f61113585828601610e5e565b925050602083013567ffffffffffffffff81111561115657611155610db6565b5b611162858286016110e5565b9150509250929050565b5f81519050919050565b5f82825260208201905092915050565b5f819050602082019050919050565b61119e81610dd9565b82525050565b5f6111af8383611195565b60208301905092915050565b5f602082019050919050565b5f6111d18261116c565b6111db8185611176565b93506111e683611186565b805f5b838110156112165781516111fd88826111a4565b9750611208836111bb565b9250506001810190506111e9565b5085935050505092915050565b5f6020820190508181035f83015261123b81846111c7565b905092915050565b5f819050919050565b5f61126661126161125c84610dba565b611243565b610dba565b9050919050565b5f6112778261124c565b9050919050565b5f6112888261126d565b9050919050565b6112988161127e565b82525050565b5f6020820190506112b15f83018461128f565b92915050565b5f6020820190506112ca5f830184610f8d565b92915050565b7f4f6e6c79206d616e7566616374757265722063616e2063616c6c0000000000005f82015250565b5f611304601a83610f1c565b915061130f826112d0565b602082019050919050565b5f6020820190508181035f830152611331816112f8565b9050919050565b7f4f6e6c792053616c65436f6e74726163742063616e2063616c6c0000000000005f82015250565b5f61136c601a83610f1c565b915061137782611338565b602082019050919050565b5f6020820190508181035f83015261139981611360565b9050919050565b7f50726f64756374206e6f742072656769737465726564000000000000000000005f82015250565b5f6113d4601683610f1c565b91506113df826113a0565b602082019050919050565b5f6020820190508181035f830152611401816113c8565b9050919050565b5f60608201905061141b5f830186610f03565b6114286020830185610eb0565b6114356040830184610eb0565b949350505050565b7f4e487b71000000000000000000000000000000000000000000000000000000005f52602260045260245ffd5b5f600282049050600182168061148157607f821691505b6020821081036114945761149361143d565b5b50919050565b7f4e6f7420617574686f726973656420746f2076657269667900000000000000005f82015250565b5f6114ce601883610f1c565b91506114d98261149a565b602082019050919050565b5f6020820190508181035f8301526114fb816114c2565b9050919050565b5f6040820190506115155f830185610f03565b6115226020830184610eb0565b9392505050565b7f416c7265616479207265676973746572656400000000000000000000000000005f82015250565b5f61155d601283610f1c565b915061156882611529565b602082019050919050565b5f6020820190508181035f83015261158a81611551565b9050919050565b5f6020820190506115a45f830184610f03565b92915050565b5f815190506115b881610dea565b92915050565b5f602082840312156115d3576115d2610db2565b5b5f6115e0848285016115aa565b91505092915050565b5f819050815f5260205f209050919050565b5f6020601f8301049050919050565b5f82821b905092915050565b5f600883026116457fffffffffffffffffffffffffffffffffffffffffffffffffffffffffffffffff8261160a565b61164f868361160a565b95508019841693508086168417925050509392505050565b5f61168161167c61167784610e3f565b611243565b610e3f565b9050919050565b5f819050919050565b61169a83611667565b6116ae6116a682611688565b848454611616565b825550505050565b5f90565b6116c26116b6565b6116cd818484611691565b505050565b5b818110156116f0576116e55f826116ba565b6001810190506116d3565b5050565b601f82111561173557611706816115e9565b61170f846115fb565b8101602085101561171e578190505b61173261172a856115fb565b8301826116d2565b50505b505050565b5f82821c905092915050565b5f6117555f198460080261173a565b1980831691505092915050565b5f61176d8383611746565b9150826002028217905092915050565b61178682610f12565b67ffffffffffffffff81111561179f5761179e610fee565b5b6117a9825461146a565b6117b48282856116f4565b5f60209050601f8311600181146117e5575f84156117d3578287015190505b6117dd8582611762565b865550611844565b601f1984166117f3866115e9565b5f5b8281101561181a578489015182556001820191506020850194506020810190506117f5565b868310156118375784890151611833601f891682611746565b8355505b6001600288020188555050505b505050505050565b7f4e487b71000000000000000000000000000000000000000000000000000000005f52603260045260245ffd5b5f60608201905061188c5f830186610f03565b818103602083015261189e8185610f4a565b90506118ad6040830184610eb0565b94935050505056fea2646970667358221220878922bfe9086f91308295ecfd5c2d0f4c8579dab88e971cd8cc50d041c1953564736f6c634300081a0033",
					"opcodes": "PUSH1 0x80 PUSH1 0x40 MSTORE CALLVALUE DUP1 ISZERO PUSH2 0xF JUMPI PUSH0 DUP1 REVERT JUMPDEST POP PUSH1 0x40 MLOAD PUSH2 0x1A37 CODESIZE SUB DUP1 PUSH2 0x1A37 DUP4 CODECOPY DUP2 DUP2 ADD PUSH1 0x40 MSTORE DUP2 ADD SWAP1 PUSH2 0x31 SWAP2 SWAP1 PUSH2 0x114 JUMP JUMPDEST CALLER PUSH1 0x1 PUSH0 PUSH2 0x100 EXP DUP2 SLOAD DUP2 PUSH20 0xFFFFFFFFFFFFFFFFFFFFFFFFFFFFFFFFFFFFFFFF MUL NOT AND SWAP1 DUP4 PUSH20 0xFFFFFFFFFFFFFFFFFFFFFFFFFFFFFFFFFFFFFFFF AND MUL OR SWAP1 SSTORE POP DUP1 PUSH0 DUP1 PUSH2 0x100 EXP DUP2 SLOAD DUP2 PUSH20 0xFFFFFFFFFFFFFFFFFFFFFFFFFFFFFFFFFFFFFFFF MUL NOT AND SWAP1 DUP4 PUSH20 0xFFFFFFFFFFFFFFFFFFFFFFFFFFFFFFFFFFFFFFFF AND MUL OR SWAP1 SSTORE POP POP PUSH2 0x13F JUMP JUMPDEST PUSH0 DUP1 REVERT JUMPDEST PUSH0 PUSH20 0xFFFFFFFFFFFFFFFFFFFFFFFFFFFFFFFFFFFFFFFF DUP3 AND SWAP1 POP SWAP2 SWAP1 POP JUMP JUMPDEST PUSH0 PUSH2 0xE3 DUP3 PUSH2 0xBA JUMP JUMPDEST SWAP1 POP SWAP2 SWAP1 POP JUMP JUMPDEST PUSH2 0xF3 DUP2 PUSH2 0xD9 JUMP JUMPDEST DUP2 EQ PUSH2 0xFD JUMPI PUSH0 DUP1 REVERT JUMPDEST POP JUMP JUMPDEST PUSH0 DUP2 MLOAD SWAP1 POP PUSH2 0x10E DUP2 PUSH2 0xEA JUMP JUMPDEST SWAP3 SWAP2 POP POP JUMP JUMPDEST PUSH0 PUSH1 0x20 DUP3 DUP5 SUB SLT ISZERO PUSH2 0x129 JUMPI PUSH2 0x128 PUSH2 0xB6 JUMP JUMPDEST JUMPDEST PUSH0 PUSH2 0x136 DUP5 DUP3 DUP6 ADD PUSH2 0x100 JUMP JUMPDEST SWAP2 POP POP SWAP3 SWAP2 POP POP JUMP JUMPDEST PUSH2 0x18EB DUP1 PUSH2 0x14C PUSH0 CODECOPY PUSH0 RETURN INVALID PUSH1 0x80 PUSH1 0x40 MSTORE CALLVALUE DUP1 ISZERO PUSH2 0xF JUMPI PUSH0 DUP1 REVERT JUMPDEST POP PUSH1 0x4 CALLDATASIZE LT PUSH2 0xA7 JUMPI PUSH0 CALLDATALOAD PUSH1 0xE0 SHR DUP1 PUSH4 0x9000B3D6 GT PUSH2 0x6F JUMPI DUP1 PUSH4 0x9000B3D6 EQ PUSH2 0x150 JUMPI DUP1 PUSH4 0xA00FD3C8 EQ PUSH2 0x16C JUMPI DUP1 PUSH4 0xC8691B2A EQ PUSH2 0x188 JUMPI DUP1 PUSH4 0xD0B6B6DB EQ PUSH2 0x1B8 JUMPI DUP1 PUSH4 0xDAF6CA30 EQ PUSH2 0x1D6 JUMPI DUP1 PUSH4 0xF9281222 EQ PUSH2 0x1F4 JUMPI PUSH2 0xA7 JUMP JUMPDEST DUP1 PUSH4 0x593D244 EQ PUSH2 0xAB JUMPI DUP1 PUSH4 0x29507F73 EQ PUSH2 0xC7 JUMPI DUP1 PUSH4 0x74754282 EQ PUSH2 0xE3 JUMPI DUP1 PUSH4 0x7ACC0B20 EQ PUSH2 0x101 JUMPI DUP1 PUSH4 0x8753367F EQ PUSH2 0x134 JUMPI JUMPDEST PUSH0 DUP1 REVERT JUMPDEST PUSH2 0xC5 PUSH1 0x4 DUP1 CALLDATASIZE SUB DUP2 ADD SWAP1 PUSH2 0xC0 SWAP2 SWAP1 PUSH2 0xE14 JUMP JUMPDEST PUSH2 0x224 JUMP JUMPDEST STOP JUMPDEST PUSH2 0xE1 PUSH1 0x4 DUP1 CALLDATASIZE SUB DUP2 ADD SWAP1 PUSH2 0xDC SWAP2 SWAP1 PUSH2 0xE72 JUMP JUMPDEST PUSH2 0x2F6 JUMP JUMPDEST STOP JUMPDEST PUSH2 0xEB PUSH2 0x517 JUMP JUMPDEST PUSH1 0x40 MLOAD PUSH2 0xF8 SWAP2 SWAP1 PUSH2 0xEBF JUMP JUMPDEST PUSH1 0x40 MLOAD DUP1 SWAP2 SUB SWAP1 RETURN JUMPDEST PUSH2 0x11B PUSH1 0x4 DUP1 CALLDATASIZE SUB DUP2 ADD SWAP1 PUSH2 0x116 SWAP2 SWAP1 PUSH2 0xED8 JUMP JUMPDEST PUSH2 0x53C JUMP JUMPDEST PUSH1 0x40 MLOAD PUSH2 0x12B SWAP5 SWAP4 SWAP3 SWAP2 SWAP1 PUSH2 0xF9C JUMP JUMPDEST PUSH1 0x40 MLOAD DUP1 SWAP2 SUB SWAP1 RETURN JUMPDEST PUSH2 0x14E PUSH1 0x4 DUP1 CALLDATASIZE SUB DUP2 ADD SWAP1 PUSH2 0x149 SWAP2 SWAP1 PUSH2 0xED8 JUMP JUMPDEST PUSH2 0x61A JUMP JUMPDEST STOP JUMPDEST PUSH2 0x16A PUSH1 0x4 DUP1 CALLDATASIZE SUB DUP2 ADD SWAP1 PUSH2 0x165 SWAP2 SWAP1 PUSH2 0xE14 JUMP JUMPDEST PUSH2 0x760 JUMP JUMPDEST STOP JUMPDEST PUSH2 0x186 PUSH1 0x4 DUP1 CALLDATASIZE SUB DUP2 ADD SWAP1 PUSH2 0x181 SWAP2 SWAP1 PUSH2 0x1112 JUMP JUMPDEST PUSH2 0x847 JUMP JUMPDEST STOP JUMPDEST PUSH2 0x1A2 PUSH1 0x4 DUP1 CALLDATASIZE SUB DUP2 ADD SWAP1 PUSH2 0x19D SWAP2 SWAP1 PUSH2 0xED8 JUMP JUMPDEST PUSH2 0xBAE JUMP JUMPDEST PUSH1 0x40 MLOAD PUSH2 0x1AF SWAP2 SWAP1 PUSH2 0x1223 JUMP JUMPDEST PUSH1 0x40 MLOAD DUP1 SWAP2 SUB SWAP1 RETURN JUMPDEST PUSH2 0x1C0 PUSH2 0xCA2 JUMP JUMPDEST PUSH1 0x40 MLOAD PUSH2 0x1CD SWAP2 SWAP1 PUSH2 0x129E JUMP JUMPDEST PUSH1 0x40 MLOAD DUP1 SWAP2 SUB SWAP1 RETURN JUMPDEST PUSH2 0x1DE PUSH2 0xCC5 JUMP JUMPDEST PUSH1 0x40 MLOAD PUSH2 0x1EB SWAP2 SWAP1 PUSH2 0xEBF JUMP JUMPDEST PUSH1 0x40 MLOAD DUP1 SWAP2 SUB SWAP1 RETURN JUMPDEST PUSH2 0x20E PUSH1 0x4 DUP1 CALLDATASIZE SUB DUP2 ADD SWAP1 PUSH2 0x209 SWAP2 SWAP1 PUSH2 0xE14 JUMP JUMPDEST PUSH2 0xCEA JUMP JUMPDEST PUSH1 0x40 MLOAD PUSH2 0x21B SWAP2 SWAP1 PUSH2 0x12B7 JUMP JUMPDEST PUSH1 0x40 MLOAD DUP1 SWAP2 SUB SWAP1 RETURN JUMPDEST PUSH1 0x1 PUSH0 SWAP1 SLOAD SWAP1 PUSH2 0x100 EXP SWAP1 DIV PUSH20 0xFFFFFFFFFFFFFFFFFFFFFFFFFFFFFFFFFFFFFFFF AND PUSH20 0xFFFFFFFFFFFFFFFFFFFFFFFFFFFFFFFFFFFFFFFF AND CALLER PUSH20 0xFFFFFFFFFFFFFFFFFFFFFFFFFFFFFFFFFFFFFFFF AND EQ PUSH2 0x2B3 JUMPI PUSH1 0x40 MLOAD PUSH32 0x8C379A000000000000000000000000000000000000000000000000000000000 DUP2 MSTORE PUSH1 0x4 ADD PUSH2 0x2AA SWAP1 PUSH2 0x131A JUMP JUMPDEST PUSH1 0x40 MLOAD DUP1 SWAP2 SUB SWAP1 REVERT JUMPDEST DUP1 PUSH1 0x2 PUSH0 PUSH2 0x100 EXP DUP2 SLOAD DUP2 PUSH20 0xFFFFFFFFFFFFFFFFFFFFFFFFFFFFFFFFFFFFFFFF MUL NOT AND SWAP1 DUP4 PUSH20 0xFFFFFFFFFFFFFFFFFFFFFFFFFFFFFFFFFFFFFFFF AND MUL OR SWAP1 SSTORE POP POP JUMP JUMPDEST PUSH1 0x2 PUSH0 SWAP1 SLOAD SWAP1 PUSH2 0x100 EXP SWAP1 DIV PUSH20 0xFFFFFFFFFFFFFFFFFFFFFFFFFFFFFFFFFFFFFFFF AND PUSH20 0xFFFFFFFFFFFFFFFFFFFFFFFFFFFFFFFFFFFFFFFF AND CALLER PUSH20 0xFFFFFFFFFFFFFFFFFFFFFFFFFFFFFFFFFFFFFFFF AND EQ PUSH2 0x385 JUMPI PUSH1 0x40 MLOAD PUSH32 0x8C379A000000000000000000000000000000000000000000000000000000000 DUP2 MSTORE PUSH1 0x4 ADD PUSH2 0x37C SWAP1 PUSH2 0x1382 JUMP JUMPDEST PUSH1 0x40 MLOAD DUP1 SWAP2 SUB SWAP1 REVERT JUMPDEST PUSH0 PUSH1 0x3 PUSH0 DUP5 DUP2 MSTORE PUSH1 0x20 ADD SWAP1 DUP2 MSTORE PUSH1 0x20 ADD PUSH0 KECCAK256 PUSH0 ADD SLOAD SUB PUSH2 0x3DA JUMPI PUSH1 0x40 MLOAD PUSH32 0x8C379A000000000000000000000000000000000000000000000000000000000 DUP2 MSTORE PUSH1 0x4 ADD PUSH2 0x3D1 SWAP1 PUSH2 0x13EA JUMP JUMPDEST PUSH1 0x40 MLOAD DUP1 SWAP2 SUB SWAP1 REVERT JUMPDEST PUSH0 PUSH1 0x3 PUSH0 DUP5 DUP2 MSTORE PUSH1 0x20 ADD SWAP1 DUP2 MSTORE PUSH1 0x20 ADD PUSH0 KECCAK256 PUSH1 0x2 ADD PUSH1 0x1 SWAP1 SLOAD SWAP1 PUSH2 0x100 EXP SWAP1 DIV PUSH20 0xFFFFFFFFFFFFFFFFFFFFFFFFFFFFFFFFFFFFFFFF AND SWAP1 POP DUP2 PUSH1 0x3 PUSH0 DUP6 DUP2 MSTORE PUSH1 0x20 ADD SWAP1 DUP2 MSTORE PUSH1 0x20 ADD PUSH0 KECCAK256 PUSH1 0x2 ADD PUSH1 0x1 PUSH2 0x100 EXP DUP2 SLOAD DUP2 PUSH20 0xFFFFFFFFFFFFFFFFFFFFFFFFFFFFFFFFFFFFFFFF MUL NOT AND SWAP1 DUP4 PUSH20 0xFFFFFFFFFFFFFFFFFFFFFFFFFFFFFFFFFFFFFFFF AND MUL OR SWAP1 SSTORE POP PUSH1 0x3 PUSH0 DUP5 DUP2 MSTORE PUSH1 0x20 ADD SWAP1 DUP2 MSTORE PUSH1 0x20 ADD PUSH0 KECCAK256 PUSH1 0x3 ADD DUP3 SWAP1 DUP1 PUSH1 0x1 DUP2 SLOAD ADD DUP1 DUP3 SSTORE DUP1 SWAP2 POP POP PUSH1 0x1 SWAP1 SUB SWAP1 PUSH0 MSTORE PUSH1 0x20 PUSH0 KECCAK256 ADD PUSH0 SWAP1 SWAP2 SWAP1 SWAP2 SWAP1 SWAP2 PUSH2 0x100 EXP DUP2 SLOAD DUP2 PUSH20 0xFFFFFFFFFFFFFFFFFFFFFFFFFFFFFFFFFFFFFFFF MUL NOT AND SWAP1 DUP4 PUSH20 0xFFFFFFFFFFFFFFFFFFFFFFFFFFFFFFFFFFFFFFFF AND MUL OR SWAP1 SSTORE POP PUSH32 0x16B85F49BF01212961345D3016C9A531894ACCF62EB7680F2045D79185CC0EC0 DUP4 DUP3 DUP5 PUSH1 0x40 MLOAD PUSH2 0x50A SWAP4 SWAP3 SWAP2 SWAP1 PUSH2 0x1408 JUMP JUMPDEST PUSH1 0x40 MLOAD DUP1 SWAP2 SUB SWAP1 LOG1 POP POP POP JUMP JUMPDEST PUSH1 0x1 PUSH0 SWAP1 SLOAD SWAP1 PUSH2 0x100 EXP SWAP1 DIV PUSH20 0xFFFFFFFFFFFFFFFFFFFFFFFFFFFFFFFFFFFFFFFF AND DUP2 JUMP JUMPDEST PUSH1 0x3 PUSH1 0x20 MSTORE DUP1 PUSH0 MSTORE PUSH1 0x40 PUSH0 KECCAK256 PUSH0 SWAP2 POP SWAP1 POP DUP1 PUSH0 ADD SLOAD SWAP1 DUP1 PUSH1 0x1 ADD DUP1 SLOAD PUSH2 0x561 SWAP1 PUSH2 0x146A JUMP JUMPDEST DUP1 PUSH1 0x1F ADD PUSH1 0x20 DUP1 SWAP2 DIV MUL PUSH1 0x20 ADD PUSH1 0x40 MLOAD SWAP1 DUP2 ADD PUSH1 0x40 MSTORE DUP1 SWAP3 SWAP2 SWAP1 DUP2 DUP2 MSTORE PUSH1 0x20 ADD DUP3 DUP1 SLOAD PUSH2 0x58D SWAP1 PUSH2 0x146A JUMP JUMPDEST DUP1 ISZERO PUSH2 0x5D8 JUMPI DUP1 PUSH1 0x1F LT PUSH2 0x5AF JUMPI PUSH2 0x100 DUP1 DUP4 SLOAD DIV MUL DUP4 MSTORE SWAP2 PUSH1 0x20 ADD SWAP2 PUSH2 0x5D8 JUMP JUMPDEST DUP3 ADD SWAP2 SWAP1 PUSH0 MSTORE PUSH1 0x20 PUSH0 KECCAK256 SWAP1 JUMPDEST DUP2 SLOAD DUP2 MSTORE SWAP1 PUSH1 0x1 ADD SWAP1 PUSH1 0x20 ADD DUP1 DUP4 GT PUSH2 0x5BB JUMPI DUP3 SWAP1 SUB PUSH1 0x1F AND DUP3 ADD SWAP2 JUMPDEST POP POP POP POP POP SWAP1 DUP1 PUSH1 0x2 ADD PUSH0 SWAP1 SLOAD SWAP1 PUSH2 0x100 EXP SWAP1 DIV PUSH1 0xFF AND SWAP1 DUP1 PUSH1 0x2 ADD PUSH1 0x1 SWAP1 SLOAD SWAP1 PUSH2 0x100 EXP SWAP1 DIV PUSH20 0xFFFFFFFFFFFFFFFFFFFFFFFFFFFFFFFFFFFFFFFF AND SWAP1 POP DUP5 JUMP JUMPDEST PUSH1 0x4 PUSH0 CALLER PUSH20 0xFFFFFFFFFFFFFFFFFFFFFFFFFFFFFFFFFFFFFFFF AND PUSH20 0xFFFFFFFFFFFFFFFFFFFFFFFFFFFFFFFFFFFFFFFF AND DUP2 MSTORE PUSH1 0x20 ADD SWAP1 DUP2 MSTORE PUSH1 0x20 ADD PUSH0 KECCAK256 PUSH0 SWAP1 SLOAD SWAP1 PUSH2 0x100 EXP SWAP1 DIV PUSH1 0xFF AND PUSH2 0x6A3 JUMPI PUSH1 0x40 MLOAD PUSH32 0x8C379A000000000000000000000000000000000000000000000000000000000 DUP2 MSTORE PUSH1 0x4 ADD PUSH2 0x69A SWAP1 PUSH2 0x14E4 JUMP JUMPDEST PUSH1 0x40 MLOAD DUP1 SWAP2 SUB SWAP1 REVERT JUMPDEST PUSH0 PUSH1 0x3 PUSH0 DUP4 DUP2 MSTORE PUSH1 0x20 ADD SWAP1 DUP2 MSTORE PUSH1 0x20 ADD PUSH0 KECCAK256 PUSH0 ADD SLOAD SUB PUSH2 0x6F8 JUMPI PUSH1 0x40 MLOAD PUSH32 0x8C379A000000000000000000000000000000000000000000000000000000000 DUP2 MSTORE PUSH1 0x4 ADD PUSH2 0x6EF SWAP1 PUSH2 0x13EA JUMP JUMPDEST PUSH1 0x40 MLOAD DUP1 SWAP2 SUB SWAP1 REVERT JUMPDEST PUSH1 0x1 PUSH1 0x3 PUSH0 DUP4 DUP2 MSTORE PUSH1 0x20 ADD SWAP1 DUP2 MSTORE PUSH1 0x20 ADD PUSH0 KECCAK256 PUSH1 0x2 ADD PUSH0 PUSH2 0x100 EXP DUP2 SLOAD DUP2 PUSH1 0xFF MUL NOT AND SWAP1 DUP4 ISZERO ISZERO MUL OR SWAP1 SSTORE POP PUSH32 0xAB60911BEBC6D3AB48620594E409545834DA76F4995297EBC48CA5589F25437B DUP2 CALLER PUSH1 0x40 MLOAD PUSH2 0x755 SWAP3 SWAP2 SWAP1 PUSH2 0x1502 JUMP JUMPDEST PUSH1 0x40 MLOAD DUP1 SWAP2 SUB SWAP1 LOG1 POP JUMP JUMPDEST PUSH1 0x1 PUSH0 SWAP1 SLOAD SWAP1 PUSH2 0x100 EXP SWAP1 DIV PUSH20 0xFFFFFFFFFFFFFFFFFFFFFFFFFFFFFFFFFFFFFFFF AND PUSH20 0xFFFFFFFFFFFFFFFFFFFFFFFFFFFFFFFFFFFFFFFF AND CALLER PUSH20 0xFFFFFFFFFFFFFFFFFFFFFFFFFFFFFFFFFFFFFFFF AND EQ PUSH2 0x7EF JUMPI PUSH1 0x40 MLOAD PUSH32 0x8C379A000000000000000000000000000000000000000000000000000000000 DUP2 MSTORE PUSH1 0x4 ADD PUSH2 0x7E6 SWAP1 PUSH2 0x131A JUMP JUMPDEST PUSH1 0x40 MLOAD DUP1 SWAP2 SUB SWAP1 REVERT JUMPDEST PUSH1 0x1 PUSH1 0x4 PUSH0 DUP4 PUSH20 0xFFFFFFFFFFFFFFFFFFFFFFFFFFFFFFFFFFFFFFFF AND PUSH20 0xFFFFFFFFFFFFFFFFFFFFFFFFFFFFFFFFFFFFFFFF AND DUP2 MSTORE PUSH1 0x20 ADD SWAP1 DUP2 MSTORE PUSH1 0x20 ADD PUSH0 KECCAK256 PUSH0 PUSH2 0x100 EXP DUP2 SLOAD DUP2 PUSH1 0xFF MUL NOT AND SWAP1 DUP4 ISZERO ISZERO MUL OR SWAP1 SSTORE POP POP JUMP JUMPDEST PUSH1 0x1 PUSH0 SWAP1 SLOAD SWAP1 PUSH2 0x100 EXP SWAP1 DIV PUSH20 0xFFFFFFFFFFFFFFFFFFFFFFFFFFFFFFFFFFFFFFFF AND PUSH20 0xFFFFFFFFFFFFFFFFFFFFFFFFFFFFFFFFFFFFFFFF AND CALLER PUSH20 0xFFFFFFFFFFFFFFFFFFFFFFFFFFFFFFFFFFFFFFFF AND EQ PUSH2 0x8D6 JUMPI PUSH1 0x40 MLOAD PUSH32 0x8C379A000000000000000000000000000000000000000000000000000000000 DUP2 MSTORE PUSH1 0x4 ADD PUSH2 0x8CD SWAP1 PUSH2 0x131A JUMP JUMPDEST PUSH1 0x40 MLOAD DUP1 SWAP2 SUB SWAP1 REVERT JUMPDEST PUSH0 PUSH1 0x3 PUSH0 DUP5 DUP2 MSTORE PUSH1 0x20 ADD SWAP1 DUP2 MSTORE PUSH1 0x20 ADD PUSH0 KECCAK256 PUSH0 ADD SLOAD EQ PUSH2 0x92B JUMPI PUSH1 0x40 MLOAD PUSH32 0x8C379A000000000000000000000000000000000000000000000000000000000 DUP2 MSTORE PUSH1 0x4 ADD PUSH2 0x922 SWAP1 PUSH2 0x1573 JUMP JUMPDEST PUSH1 0x40 MLOAD DUP1 SWAP2 SUB SWAP1 REVERT JUMPDEST PUSH0 DUP1 PUSH0 SWAP1 SLOAD SWAP1 PUSH2 0x100 EXP SWAP1 DIV PUSH20 0xFFFFFFFFFFFFFFFFFFFFFFFFFFFFFFFFFFFFFFFF AND PUSH20 0xFFFFFFFFFFFFFFFFFFFFFFFFFFFFFFFFFFFFFFFF AND PUSH4 0x6352211E DUP5 PUSH1 0x40 MLOAD DUP3 PUSH4 0xFFFFFFFF AND PUSH1 0xE0 SHL DUP2 MSTORE PUSH1 0x4 ADD PUSH2 0x985 SWAP2 SWAP1 PUSH2 0x1591 JUMP JUMPDEST PUSH1 0x20 PUSH1 0x40 MLOAD DUP1 DUP4 SUB DUP2 DUP7 GAS STATICCALL ISZERO DUP1 ISZERO PUSH2 0x9A0 JUMPI RETURNDATASIZE PUSH0 DUP1 RETURNDATACOPY RETURNDATASIZE PUSH0 REVERT JUMPDEST POP POP POP POP PUSH1 0x40 MLOAD RETURNDATASIZE PUSH1 0x1F NOT PUSH1 0x1F DUP3 ADD AND DUP3 ADD DUP1 PUSH1 0x40 MSTORE POP DUP2 ADD SWAP1 PUSH2 0x9C4 SWAP2 SWAP1 PUSH2 0x15BE JUMP JUMPDEST SWAP1 POP PUSH1 0x40 MLOAD DUP1 PUSH1 0xA0 ADD PUSH1 0x40 MSTORE DUP1 DUP5 DUP2 MSTORE PUSH1 0x20 ADD DUP4 DUP2 MSTORE PUSH1 0x20 ADD PUSH0 ISZERO ISZERO DUP2 MSTORE PUSH1 0x20 ADD DUP3 PUSH20 0xFFFFFFFFFFFFFFFFFFFFFFFFFFFFFFFFFFFFFFFF AND DUP2 MSTORE PUSH1 0x20 ADD PUSH0 PUSH8 0xFFFFFFFFFFFFFFFF DUP2 GT ISZERO PUSH2 0xA1B JUMPI PUSH2 0xA1A PUSH2 0xFEE JUMP JUMPDEST JUMPDEST PUSH1 0x40 MLOAD SWAP1 DUP1 DUP3 MSTORE DUP1 PUSH1 0x20 MUL PUSH1 0x20 ADD DUP3 ADD PUSH1 0x40 MSTORE DUP1 ISZERO PUSH2 0xA49 JUMPI DUP2 PUSH1 0x20 ADD PUSH1 0x20 DUP3 MUL DUP1 CALLDATASIZE DUP4 CALLDATACOPY DUP1 DUP3 ADD SWAP2 POP POP SWAP1 POP JUMPDEST POP DUP2 MSTORE POP PUSH1 0x3 PUSH0 DUP6 DUP2 MSTORE PUSH1 0x20 ADD SWAP1 DUP2 MSTORE PUSH1 0x20 ADD PUSH0 KECCAK256 PUSH0 DUP3 ADD MLOAD DUP2 PUSH0 ADD SSTORE PUSH1 0x20 DUP3 ADD MLOAD DUP2 PUSH1 0x1 ADD SWAP1 DUP2 PUSH2 0xA7B SWAP2 SWAP1 PUSH2 0x177D JUMP JUMPDEST POP PUSH1 0x40 DUP3 ADD MLOAD DUP2 PUSH1 0x2 ADD PUSH0 PUSH2 0x100 EXP DUP2 SLOAD DUP2 PUSH1 0xFF MUL NOT AND SWAP1 DUP4 ISZERO ISZERO MUL OR SWAP1 SSTORE POP PUSH1 0x60 DUP3 ADD MLOAD DUP2 PUSH1 0x2 ADD PUSH1 0x1 PUSH2 0x100 EXP DUP2 SLOAD DUP2 PUSH20 0xFFFFFFFFFFFFFFFFFFFFFFFFFFFFFFFFFFFFFFFF MUL NOT AND SWAP1 DUP4 PUSH20 0xFFFFFFFFFFFFFFFFFFFFFFFFFFFFFFFFFFFFFFFF AND MUL OR SWAP1 SSTORE POP PUSH1 0x80 DUP3 ADD MLOAD DUP2 PUSH1 0x3 ADD SWAP1 DUP1 MLOAD SWAP1 PUSH1 0x20 ADD SWAP1 PUSH2 0xAFE SWAP3 SWAP2 SWAP1 PUSH2 0xD07 JUMP JUMPDEST POP SWAP1 POP POP DUP1 PUSH1 0x3 PUSH0 DUP6 DUP2 MSTORE PUSH1 0x20 ADD SWAP1 DUP2 MSTORE PUSH1 0x20 ADD PUSH0 KECCAK256 PUSH1 0x3 ADD PUSH0 DUP2 SLOAD DUP2 LT PUSH2 0xB29 JUMPI PUSH2 0xB28 PUSH2 0x184C JUMP JUMPDEST JUMPDEST SWAP1 PUSH0 MSTORE PUSH1 0x20 PUSH0 KECCAK256 ADD PUSH0 PUSH2 0x100 EXP DUP2 SLOAD DUP2 PUSH20 0xFFFFFFFFFFFFFFFFFFFFFFFFFFFFFFFFFFFFFFFF MUL NOT AND SWAP1 DUP4 PUSH20 0xFFFFFFFFFFFFFFFFFFFFFFFFFFFFFFFFFFFFFFFF AND MUL OR SWAP1 SSTORE POP PUSH32 0xD810998A0248808A33B20218E71759CB2EC1A182B398350AD606D742587C012C DUP4 DUP4 DUP4 PUSH1 0x40 MLOAD PUSH2 0xBA1 SWAP4 SWAP3 SWAP2 SWAP1 PUSH2 0x1879 JUMP JUMPDEST PUSH1 0x40 MLOAD DUP1 SWAP2 SUB SWAP1 LOG1 POP POP POP JUMP JUMPDEST PUSH1 0x60 PUSH0 PUSH1 0x3 PUSH0 DUP5 DUP2 MSTORE PUSH1 0x20 ADD SWAP1 DUP2 MSTORE PUSH1 0x20 ADD PUSH0 KECCAK256 PUSH0 ADD SLOAD SUB PUSH2 0xC05 JUMPI PUSH1 0x40 MLOAD PUSH32 0x8C379A000000000000000000000000000000000000000000000000000000000 DUP2 MSTORE PUSH1 0x4 ADD PUSH2 0xBFC SWAP1 PUSH2 0x13EA JUMP JUMPDEST PUSH1 0x40 MLOAD DUP1 SWAP2 SUB SWAP1 REVERT JUMPDEST PUSH1 0x3 PUSH0 DUP4 DUP2 MSTORE PUSH1 0x20 ADD SWAP1 DUP2 MSTORE PUSH1 0x20 ADD PUSH0 KECCAK256 PUSH1 0x3 ADD DUP1 SLOAD DUP1 PUSH1 0x20 MUL PUSH1 0x20 ADD PUSH1 0x40 MLOAD SWAP1 DUP2 ADD PUSH1 0x40 MSTORE DUP1 SWAP3 SWAP2 SWAP1 DUP2 DUP2 MSTORE PUSH1 0x20 ADD DUP3 DUP1 SLOAD DUP1 ISZERO PUSH2 0xC96 JUMPI PUSH1 0x20 MUL DUP3 ADD SWAP2 SWAP1 PUSH0 MSTORE PUSH1 0x20 PUSH0 KECCAK256 SWAP1 JUMPDEST DUP2 PUSH0 SWAP1 SLOAD SWAP1 PUSH2 0x100 EXP SWAP1 DIV PUSH20 0xFFFFFFFFFFFFFFFFFFFFFFFFFFFFFFFFFFFFFFFF AND PUSH20 0xFFFFFFFFFFFFFFFFFFFFFFFFFFFFFFFFFFFFFFFF AND DUP2 MSTORE PUSH1 0x20 ADD SWAP1 PUSH1 0x1 ADD SWAP1 DUP1 DUP4 GT PUSH2 0xC4D JUMPI JUMPDEST POP POP POP POP POP SWAP1 POP SWAP2 SWAP1 POP JUMP JUMPDEST PUSH0 DUP1 SLOAD SWAP1 PUSH2 0x100 EXP SWAP1 DIV PUSH20 0xFFFFFFFFFFFFFFFFFFFFFFFFFFFFFFFFFFFFFFFF AND DUP2 JUMP JUMPDEST PUSH1 0x2 PUSH0 SWAP1 SLOAD SWAP1 PUSH2 0x100 EXP SWAP1 DIV PUSH20 0xFFFFFFFFFFFFFFFFFFFFFFFFFFFFFFFFFFFFFFFF AND DUP2 JUMP JUMPDEST PUSH1 0x4 PUSH1 0x20 MSTORE DUP1 PUSH0 MSTORE PUSH1 0x40 PUSH0 KECCAK256 PUSH0 SWAP2 POP SLOAD SWAP1 PUSH2 0x100 EXP SWAP1 DIV PUSH1 0xFF AND DUP2 JUMP JUMPDEST DUP3 DUP1 SLOAD DUP3 DUP3 SSTORE SWAP1 PUSH0 MSTORE PUSH1 0x20 PUSH0 KECCAK256 SWAP1 DUP2 ADD SWAP3 DUP3 ISZERO PUSH2 0xD7D JUMPI SWAP2 PUSH1 0x20 MUL DUP3 ADD JUMPDEST DUP3 DUP2 GT ISZERO PUSH2 0xD7C JUMPI DUP3 MLOAD DUP3 PUSH0 PUSH2 0x100 EXP DUP2 SLOAD DUP2 PUSH20 0xFFFFFFFFFFFFFFFFFFFFFFFFFFFFFFFFFFFFFFFF MUL NOT AND SWAP1 DUP4 PUSH20 0xFFFFFFFFFFFFFFFFFFFFFFFFFFFFFFFFFFFFFFFF AND MUL OR SWAP1 SSTORE POP SWAP2 PUSH1 0x20 ADD SWAP2 SWAP1 PUSH1 0x1 ADD SWAP1 PUSH2 0xD25 JUMP JUMPDEST JUMPDEST POP SWAP1 POP PUSH2 0xD8A SWAP2 SWAP1 PUSH2 0xD8E JUMP JUMPDEST POP SWAP1 JUMP JUMPDEST JUMPDEST DUP1 DUP3 GT ISZERO PUSH2 0xDA5 JUMPI PUSH0 DUP2 PUSH0 SWAP1 SSTORE POP PUSH1 0x1 ADD PUSH2 0xD8F JUMP JUMPDEST POP SWAP1 JUMP JUMPDEST PUSH0 PUSH1 0x40 MLOAD SWAP1 POP SWAP1 JUMP JUMPDEST PUSH0 DUP1 REVERT JUMPDEST PUSH0 DUP1 REVERT JUMPDEST PUSH0 PUSH20 0xFFFFFFFFFFFFFFFFFFFFFFFFFFFFFFFFFFFFFFFF DUP3 AND SWAP1 POP SWAP2 SWAP1 POP JUMP JUMPDEST PUSH0 PUSH2 0xDE3 DUP3 PUSH2 0xDBA JUMP JUMPDEST SWAP1 POP SWAP2 SWAP1 POP JUMP JUMPDEST PUSH2 0xDF3 DUP2 PUSH2 0xDD9 JUMP JUMPDEST DUP2 EQ PUSH2 0xDFD JUMPI PUSH0 DUP1 REVERT JUMPDEST POP JUMP JUMPDEST PUSH0 DUP2 CALLDATALOAD SWAP1 POP PUSH2 0xE0E DUP2 PUSH2 0xDEA JUMP JUMPDEST SWAP3 SWAP2 POP POP JUMP JUMPDEST PUSH0 PUSH1 0x20 DUP3 DUP5 SUB SLT ISZERO PUSH2 0xE29 JUMPI PUSH2 0xE28 PUSH2 0xDB2 JUMP JUMPDEST JUMPDEST PUSH0 PUSH2 0xE36 DUP5 DUP3 DUP6 ADD PUSH2 0xE00 JUMP JUMPDEST SWAP2 POP POP SWAP3 SWAP2 POP POP JUMP JUMPDEST PUSH0 DUP2 SWAP1 POP SWAP2 SWAP1 POP JUMP JUMPDEST PUSH2 0xE51 DUP2 PUSH2 0xE3F JUMP JUMPDEST DUP2 EQ PUSH2 0xE5B JUMPI PUSH0 DUP1 REVERT JUMPDEST POP JUMP JUMPDEST PUSH0 DUP2 CALLDATALOAD SWAP1 POP PUSH2 0xE6C DUP2 PUSH2 0xE48 JUMP JUMPDEST SWAP3 SWAP2 POP POP JUMP JUMPDEST PUSH0 DUP1 PUSH1 0x40 DUP4 DUP6 SUB SLT ISZERO PUSH2 0xE88 JUMPI PUSH2 0xE87 PUSH2 0xDB2 JUMP JUMPDEST JUMPDEST PUSH0 PUSH2 0xE95 DUP6 DUP3 DUP7 ADD PUSH2 0xE5E JUMP JUMPDEST SWAP3 POP POP PUSH1 0x20 PUSH2 0xEA6 DUP6 DUP3 DUP7 ADD PUSH2 0xE00 JUMP JUMPDEST SWAP2 POP POP SWAP3 POP SWAP3 SWAP1 POP JUMP JUMPDEST PUSH2 0xEB9 DUP2 PUSH2 0xDD9 JUMP JUMPDEST DUP3 MSTORE POP POP JUMP JUMPDEST PUSH0 PUSH1 0x20 DUP3 ADD SWAP1 POP PUSH2 0xED2 PUSH0 DUP4 ADD DUP5 PUSH2 0xEB0 JUMP JUMPDEST SWAP3 SWAP2 POP POP JUMP JUMPDEST PUSH0 PUSH1 0x20 DUP3 DUP5 SUB SLT ISZERO PUSH2 0xEED JUMPI PUSH2 0xEEC PUSH2 0xDB2 JUMP JUMPDEST JUMPDEST PUSH0 PUSH2 0xEFA DUP5 DUP3 DUP6 ADD PUSH2 0xE5E JUMP JUMPDEST SWAP2 POP POP SWAP3 SWAP2 POP POP JUMP JUMPDEST PUSH2 0xF0C DUP2 PUSH2 0xE3F JUMP JUMPDEST DUP3 MSTORE POP POP JUMP JUMPDEST PUSH0 DUP2 MLOAD SWAP1 POP SWAP2 SWAP1 POP JUMP JUMPDEST PUSH0 DUP3 DUP3 MSTORE PUSH1 0x20 DUP3 ADD SWAP1 POP SWAP3 SWAP2 POP POP JUMP JUMPDEST DUP3 DUP2 DUP4 MCOPY PUSH0 DUP4 DUP4 ADD MSTORE POP POP POP JUMP JUMPDEST PUSH0 PUSH1 0x1F NOT PUSH1 0x1F DUP4 ADD AND SWAP1 POP SWAP2 SWAP1 POP JUMP JUMPDEST PUSH0 PUSH2 0xF54 DUP3 PUSH2 0xF12 JUMP JUMPDEST PUSH2 0xF5E DUP2 DUP6 PUSH2 0xF1C JUMP JUMPDEST SWAP4 POP PUSH2 0xF6E DUP2 DUP6 PUSH1 0x20 DUP7 ADD PUSH2 0xF2C JUMP JUMPDEST PUSH2 0xF77 DUP2 PUSH2 0xF3A JUMP JUMPDEST DUP5 ADD SWAP2 POP POP SWAP3 SWAP2 POP POP JUMP JUMPDEST PUSH0 DUP2 ISZERO ISZERO SWAP1 POP SWAP2 SWAP1 POP JUMP JUMPDEST PUSH2 0xF96 DUP2 PUSH2 0xF82 JUMP JUMPDEST DUP3 MSTORE POP POP JUMP JUMPDEST PUSH0 PUSH1 0x80 DUP3 ADD SWAP1 POP PUSH2 0xFAF PUSH0 DUP4 ADD DUP8 PUSH2 0xF03 JUMP JUMPDEST DUP2 DUP2 SUB PUSH1 0x20 DUP4 ADD MSTORE PUSH2 0xFC1 DUP2 DUP7 PUSH2 0xF4A JUMP JUMPDEST SWAP1 POP PUSH2 0xFD0 PUSH1 0x40 DUP4 ADD DUP6 PUSH2 0xF8D JUMP JUMPDEST PUSH2 0xFDD PUSH1 0x60 DUP4 ADD DUP5 PUSH2 0xEB0 JUMP JUMPDEST SWAP6 SWAP5 POP POP POP POP POP JUMP JUMPDEST PUSH0 DUP1 REVERT JUMPDEST PUSH0 DUP1 REVERT JUMPDEST PUSH32 0x4E487B7100000000000000000000000000000000000000000000000000000000 PUSH0 MSTORE PUSH1 0x41 PUSH1 0x4 MSTORE PUSH1 0x24 PUSH0 REVERT JUMPDEST PUSH2 0x1024 DUP3 PUSH2 0xF3A JUMP JUMPDEST DUP2 ADD DUP2 DUP2 LT PUSH8 0xFFFFFFFFFFFFFFFF DUP3 GT OR ISZERO PUSH2 0x1043 JUMPI PUSH2 0x1042 PUSH2 0xFEE JUMP JUMPDEST JUMPDEST DUP1 PUSH1 0x40 MSTORE POP POP POP JUMP JUMPDEST PUSH0 PUSH2 0x1055 PUSH2 0xDA9 JUMP JUMPDEST SWAP1 POP PUSH2 0x1061 DUP3 DUP3 PUSH2 0x101B JUMP JUMPDEST SWAP2 SWAP1 POP JUMP JUMPDEST PUSH0 PUSH8 0xFFFFFFFFFFFFFFFF DUP3 GT ISZERO PUSH2 0x1080 JUMPI PUSH2 0x107F PUSH2 0xFEE JUMP JUMPDEST JUMPDEST PUSH2 0x1089 DUP3 PUSH2 0xF3A JUMP JUMPDEST SWAP1 POP PUSH1 0x20 DUP2 ADD SWAP1 POP SWAP2 SWAP1 POP JUMP JUMPDEST DUP3 DUP2 DUP4 CALLDATACOPY PUSH0 DUP4 DUP4 ADD MSTORE POP POP POP JUMP JUMPDEST PUSH0 PUSH2 0x10B6 PUSH2 0x10B1 DUP5 PUSH2 0x1066 JUMP JUMPDEST PUSH2 0x104C JUMP JUMPDEST SWAP1 POP DUP3 DUP2 MSTORE PUSH1 0x20 DUP2 ADD DUP5 DUP5 DUP5 ADD GT ISZERO PUSH2 0x10D2 JUMPI PUSH2 0x10D1 PUSH2 0xFEA JUMP JUMPDEST JUMPDEST PUSH2 0x10DD DUP5 DUP3 DUP6 PUSH2 0x1096 JUMP JUMPDEST POP SWAP4 SWAP3 POP POP POP JUMP JUMPDEST PUSH0 DUP3 PUSH1 0x1F DUP4 ADD SLT PUSH2 0x10F9 JUMPI PUSH2 0x10F8 PUSH2 0xFE6 JUMP JUMPDEST JUMPDEST DUP2 CALLDATALOAD PUSH2 0x1109 DUP5 DUP3 PUSH1 0x20 DUP7 ADD PUSH2 0x10A4 JUMP JUMPDEST SWAP2 POP POP SWAP3 SWAP2 POP POP JUMP JUMPDEST PUSH0 DUP1 PUSH1 0x40 DUP4 DUP6 SUB SLT ISZERO PUSH2 0x1128 JUMPI PUSH2 0x1127 PUSH2 0xDB2 JUMP JUMPDEST JUMPDEST PUSH0 PUSH2 0x1135 DUP6 DUP3 DUP7 ADD PUSH2 0xE5E JUMP JUMPDEST SWAP3 POP POP PUSH1 0x20 DUP4 ADD CALLDATALOAD PUSH8 0xFFFFFFFFFFFFFFFF DUP2 GT ISZERO PUSH2 0x1156 JUMPI PUSH2 0x1155 PUSH2 0xDB6 JUMP JUMPDEST JUMPDEST PUSH2 0x1162 DUP6 DUP3 DUP7 ADD PUSH2 0x10E5 JUMP JUMPDEST SWAP2 POP POP SWAP3 POP SWAP3 SWAP1 POP JUMP JUMPDEST PUSH0 DUP2 MLOAD SWAP1 POP SWAP2 SWAP1 POP JUMP JUMPDEST PUSH0 DUP3 DUP3 MSTORE PUSH1 0x20 DUP3 ADD SWAP1 POP SWAP3 SWAP2 POP POP JUMP JUMPDEST PUSH0 DUP2 SWAP1 POP PUSH1 0x20 DUP3 ADD SWAP1 POP SWAP2 SWAP1 POP JUMP JUMPDEST PUSH2 0x119E DUP2 PUSH2 0xDD9 JUMP JUMPDEST DUP3 MSTORE POP POP JUMP JUMPDEST PUSH0 PUSH2 0x11AF DUP4 DUP4 PUSH2 0x1195 JUMP JUMPDEST PUSH1 0x20 DUP4 ADD SWAP1 POP SWAP3 SWAP2 POP POP JUMP JUMPDEST PUSH0 PUSH1 0x20 DUP3 ADD SWAP1 POP SWAP2 SWAP1 POP JUMP JUMPDEST PUSH0 PUSH2 0x11D1 DUP3 PUSH2 0x116C JUMP JUMPDEST PUSH2 0x11DB DUP2 DUP6 PUSH2 0x1176 JUMP JUMPDEST SWAP4 POP PUSH2 0x11E6 DUP4 PUSH2 0x1186 JUMP JUMPDEST DUP1 PUSH0 JUMPDEST DUP4 DUP2 LT ISZERO PUSH2 0x1216 JUMPI DUP2 MLOAD PUSH2 0x11FD DUP9 DUP3 PUSH2 0x11A4 JUMP JUMPDEST SWAP8 POP PUSH2 0x1208 DUP4 PUSH2 0x11BB JUMP JUMPDEST SWAP3 POP POP PUSH1 0x1 DUP2 ADD SWAP1 POP PUSH2 0x11E9 JUMP JUMPDEST POP DUP6 SWAP4 POP POP POP POP SWAP3 SWAP2 POP POP JUMP JUMPDEST PUSH0 PUSH1 0x20 DUP3 ADD SWAP1 POP DUP2 DUP2 SUB PUSH0 DUP4 ADD MSTORE PUSH2 0x123B DUP2 DUP5 PUSH2 0x11C7 JUMP JUMPDEST SWAP1 POP SWAP3 SWAP2 POP POP JUMP JUMPDEST PUSH0 DUP2 SWAP1 POP SWAP2 SWAP1 POP JUMP JUMPDEST PUSH0 PUSH2 0x1266 PUSH2 0x1261 PUSH2 0x125C DUP5 PUSH2 0xDBA JUMP JUMPDEST PUSH2 0x1243 JUMP JUMPDEST PUSH2 0xDBA JUMP JUMPDEST SWAP1 POP SWAP2 SWAP1 POP JUMP JUMPDEST PUSH0 PUSH2 0x1277 DUP3 PUSH2 0x124C JUMP JUMPDEST SWAP1 POP SWAP2 SWAP1 POP JUMP JUMPDEST PUSH0 PUSH2 0x1288 DUP3 PUSH2 0x126D JUMP JUMPDEST SWAP1 POP SWAP2 SWAP1 POP JUMP JUMPDEST PUSH2 0x1298 DUP2 PUSH2 0x127E JUMP JUMPDEST DUP3 MSTORE POP POP JUMP JUMPDEST PUSH0 PUSH1 0x20 DUP3 ADD SWAP1 POP PUSH2 0x12B1 PUSH0 DUP4 ADD DUP5 PUSH2 0x128F JUMP JUMPDEST SWAP3 SWAP2 POP POP JUMP JUMPDEST PUSH0 PUSH1 0x20 DUP3 ADD SWAP1 POP PUSH2 0x12CA PUSH0 DUP4 ADD DUP5 PUSH2 0xF8D JUMP JUMPDEST SWAP3 SWAP2 POP POP JUMP JUMPDEST PUSH32 0x4F6E6C79206D616E7566616374757265722063616E2063616C6C000000000000 PUSH0 DUP3 ADD MSTORE POP JUMP JUMPDEST PUSH0 PUSH2 0x1304 PUSH1 0x1A DUP4 PUSH2 0xF1C JUMP JUMPDEST SWAP2 POP PUSH2 0x130F DUP3 PUSH2 0x12D0 JUMP JUMPDEST PUSH1 0x20 DUP3 ADD SWAP1 POP SWAP2 SWAP1 POP JUMP JUMPDEST PUSH0 PUSH1 0x20 DUP3 ADD SWAP1 POP DUP2 DUP2 SUB PUSH0 DUP4 ADD MSTORE PUSH2 0x1331 DUP2 PUSH2 0x12F8 JUMP JUMPDEST SWAP1 POP SWAP2 SWAP1 POP JUMP JUMPDEST PUSH32 0x4F6E6C792053616C65436F6E74726163742063616E2063616C6C000000000000 PUSH0 DUP3 ADD MSTORE POP JUMP JUMPDEST PUSH0 PUSH2 0x136C PUSH1 0x1A DUP4 PUSH2 0xF1C JUMP JUMPDEST SWAP2 POP PUSH2 0x1377 DUP3 PUSH2 0x1338 JUMP JUMPDEST PUSH1 0x20 DUP3 ADD SWAP1 POP SWAP2 SWAP1 POP JUMP JUMPDEST PUSH0 PUSH1 0x20 DUP3 ADD SWAP1 POP DUP2 DUP2 SUB PUSH0 DUP4 ADD MSTORE PUSH2 0x1399 DUP2 PUSH2 0x1360 JUMP JUMPDEST SWAP1 POP SWAP2 SWAP1 POP JUMP JUMPDEST PUSH32 0x50726F64756374206E6F74207265676973746572656400000000000000000000 PUSH0 DUP3 ADD MSTORE POP JUMP JUMPDEST PUSH0 PUSH2 0x13D4 PUSH1 0x16 DUP4 PUSH2 0xF1C JUMP JUMPDEST SWAP2 POP PUSH2 0x13DF DUP3 PUSH2 0x13A0 JUMP JUMPDEST PUSH1 0x20 DUP3 ADD SWAP1 POP SWAP2 SWAP1 POP JUMP JUMPDEST PUSH0 PUSH1 0x20 DUP3 ADD SWAP1 POP DUP2 DUP2 SUB PUSH0 DUP4 ADD MSTORE PUSH2 0x1401 DUP2 PUSH2 0x13C8 JUMP JUMPDEST SWAP1 POP SWAP2 SWAP1 POP JUMP JUMPDEST PUSH0 PUSH1 0x60 DUP3 ADD SWAP1 POP PUSH2 0x141B PUSH0 DUP4 ADD DUP7 PUSH2 0xF03 JUMP JUMPDEST PUSH2 0x1428 PUSH1 0x20 DUP4 ADD DUP6 PUSH2 0xEB0 JUMP JUMPDEST PUSH2 0x1435 PUSH1 0x40 DUP4 ADD DUP5 PUSH2 0xEB0 JUMP JUMPDEST SWAP5 SWAP4 POP POP POP POP JUMP JUMPDEST PUSH32 0x4E487B7100000000000000000000000000000000000000000000000000000000 PUSH0 MSTORE PUSH1 0x22 PUSH1 0x4 MSTORE PUSH1 0x24 PUSH0 REVERT JUMPDEST PUSH0 PUSH1 0x2 DUP3 DIV SWAP1 POP PUSH1 0x1 DUP3 AND DUP1 PUSH2 0x1481 JUMPI PUSH1 0x7F DUP3 AND SWAP2 POP JUMPDEST PUSH1 0x20 DUP3 LT DUP2 SUB PUSH2 0x1494 JUMPI PUSH2 0x1493 PUSH2 0x143D JUMP JUMPDEST JUMPDEST POP SWAP2 SWAP1 POP JUMP JUMPDEST PUSH32 0x4E6F7420617574686F726973656420746F207665726966790000000000000000 PUSH0 DUP3 ADD MSTORE POP JUMP JUMPDEST PUSH0 PUSH2 0x14CE PUSH1 0x18 DUP4 PUSH2 0xF1C JUMP JUMPDEST SWAP2 POP PUSH2 0x14D9 DUP3 PUSH2 0x149A JUMP JUMPDEST PUSH1 0x20 DUP3 ADD SWAP1 POP SWAP2 SWAP1 POP JUMP JUMPDEST PUSH0 PUSH1 0x20 DUP3 ADD SWAP1 POP DUP2 DUP2 SUB PUSH0 DUP4 ADD MSTORE PUSH2 0x14FB DUP2 PUSH2 0x14C2 JUMP JUMPDEST SWAP1 POP SWAP2 SWAP1 POP JUMP JUMPDEST PUSH0 PUSH1 0x40 DUP3 ADD SWAP1 POP PUSH2 0x1515 PUSH0 DUP4 ADD DUP6 PUSH2 0xF03 JUMP JUMPDEST PUSH2 0x1522 PUSH1 0x20 DUP4 ADD DUP5 PUSH2 0xEB0 JUMP JUMPDEST SWAP4 SWAP3 POP POP POP JUMP JUMPDEST PUSH32 0x416C726561647920726567697374657265640000000000000000000000000000 PUSH0 DUP3 ADD MSTORE POP JUMP JUMPDEST PUSH0 PUSH2 0x155D PUSH1 0x12 DUP4 PUSH2 0xF1C JUMP JUMPDEST SWAP2 POP PUSH2 0x1568 DUP3 PUSH2 0x1529 JUMP JUMPDEST PUSH1 0x20 DUP3 ADD SWAP1 POP SWAP2 SWAP1 POP JUMP JUMPDEST PUSH0 PUSH1 0x20 DUP3 ADD SWAP1 POP DUP2 DUP2 SUB PUSH0 DUP4 ADD MSTORE PUSH2 0x158A DUP2 PUSH2 0x1551 JUMP JUMPDEST SWAP1 POP SWAP2 SWAP1 POP JUMP JUMPDEST PUSH0 PUSH1 0x20 DUP3 ADD SWAP1 POP PUSH2 0x15A4 PUSH0 DUP4 ADD DUP5 PUSH2 0xF03 JUMP JUMPDEST SWAP3 SWAP2 POP POP JUMP JUMPDEST PUSH0 DUP2 MLOAD SWAP1 POP PUSH2 0x15B8 DUP2 PUSH2 0xDEA JUMP JUMPDEST SWAP3 SWAP2 POP POP JUMP JUMPDEST PUSH0 PUSH1 0x20 DUP3 DUP5 SUB SLT ISZERO PUSH2 0x15D3 JUMPI PUSH2 0x15D2 PUSH2 0xDB2 JUMP JUMPDEST JUMPDEST PUSH0 PUSH2 0x15E0 DUP5 DUP3 DUP6 ADD PUSH2 0x15AA JUMP JUMPDEST SWAP2 POP POP SWAP3 SWAP2 POP POP JUMP JUMPDEST PUSH0 DUP2 SWAP1 POP DUP2 PUSH0 MSTORE PUSH1 0x20 PUSH0 KECCAK256 SWAP1 POP SWAP2 SWAP1 POP JUMP JUMPDEST PUSH0 PUSH1 0x20 PUSH1 0x1F DUP4 ADD DIV SWAP1 POP SWAP2 SWAP1 POP JUMP JUMPDEST PUSH0 DUP3 DUP3 SHL SWAP1 POP SWAP3 SWAP2 POP POP JUMP JUMPDEST PUSH0 PUSH1 0x8 DUP4 MUL PUSH2 0x1645 PUSH32 0xFFFFFFFFFFFFFFFFFFFFFFFFFFFFFFFFFFFFFFFFFFFFFFFFFFFFFFFFFFFFFFFF DUP3 PUSH2 0x160A JUMP JUMPDEST PUSH2 0x164F DUP7 DUP4 PUSH2 0x160A JUMP JUMPDEST SWAP6 POP DUP1 NOT DUP5 AND SWAP4 POP DUP1 DUP7 AND DUP5 OR SWAP3 POP POP POP SWAP4 SWAP3 POP POP POP JUMP JUMPDEST PUSH0 PUSH2 0x1681 PUSH2 0x167C PUSH2 0x1677 DUP5 PUSH2 0xE3F JUMP JUMPDEST PUSH2 0x1243 JUMP JUMPDEST PUSH2 0xE3F JUMP JUMPDEST SWAP1 POP SWAP2 SWAP1 POP JUMP JUMPDEST PUSH0 DUP2 SWAP1 POP SWAP2 SWAP1 POP JUMP JUMPDEST PUSH2 0x169A DUP4 PUSH2 0x1667 JUMP JUMPDEST PUSH2 0x16AE PUSH2 0x16A6 DUP3 PUSH2 0x1688 JUMP JUMPDEST DUP5 DUP5 SLOAD PUSH2 0x1616 JUMP JUMPDEST DUP3 SSTORE POP POP POP POP JUMP JUMPDEST PUSH0 SWAP1 JUMP JUMPDEST PUSH2 0x16C2 PUSH2 0x16B6 JUMP JUMPDEST PUSH2 0x16CD DUP2 DUP5 DUP5 PUSH2 0x1691 JUMP JUMPDEST POP POP POP JUMP JUMPDEST JUMPDEST DUP2 DUP2 LT ISZERO PUSH2 0x16F0 JUMPI PUSH2 0x16E5 PUSH0 DUP3 PUSH2 0x16BA JUMP JUMPDEST PUSH1 0x1 DUP2 ADD SWAP1 POP PUSH2 0x16D3 JUMP JUMPDEST POP POP JUMP JUMPDEST PUSH1 0x1F DUP3 GT ISZERO PUSH2 0x1735 JUMPI PUSH2 0x1706 DUP2 PUSH2 0x15E9 JUMP JUMPDEST PUSH2 0x170F DUP5 PUSH2 0x15FB JUMP JUMPDEST DUP2 ADD PUSH1 0x20 DUP6 LT ISZERO PUSH2 0x171E JUMPI DUP2 SWAP1 POP JUMPDEST PUSH2 0x1732 PUSH2 0x172A DUP6 PUSH2 0x15FB JUMP JUMPDEST DUP4 ADD DUP3 PUSH2 0x16D2 JUMP JUMPDEST POP POP JUMPDEST POP POP POP JUMP JUMPDEST PUSH0 DUP3 DUP3 SHR SWAP1 POP SWAP3 SWAP2 POP POP JUMP JUMPDEST PUSH0 PUSH2 0x1755 PUSH0 NOT DUP5 PUSH1 0x8 MUL PUSH2 0x173A JUMP JUMPDEST NOT DUP1 DUP4 AND SWAP2 POP POP SWAP3 SWAP2 POP POP JUMP JUMPDEST PUSH0 PUSH2 0x176D DUP4 DUP4 PUSH2 0x1746 JUMP JUMPDEST SWAP2 POP DUP3 PUSH1 0x2 MUL DUP3 OR SWAP1 POP SWAP3 SWAP2 POP POP JUMP JUMPDEST PUSH2 0x1786 DUP3 PUSH2 0xF12 JUMP JUMPDEST PUSH8 0xFFFFFFFFFFFFFFFF DUP2 GT ISZERO PUSH2 0x179F JUMPI PUSH2 0x179E PUSH2 0xFEE JUMP JUMPDEST JUMPDEST PUSH2 0x17A9 DUP3 SLOAD PUSH2 0x146A JUMP JUMPDEST PUSH2 0x17B4 DUP3 DUP3 DUP6 PUSH2 0x16F4 JUMP JUMPDEST PUSH0 PUSH1 0x20 SWAP1 POP PUSH1 0x1F DUP4 GT PUSH1 0x1 DUP2 EQ PUSH2 0x17E5 JUMPI PUSH0 DUP5 ISZERO PUSH2 0x17D3 JUMPI DUP3 DUP8 ADD MLOAD SWAP1 POP JUMPDEST PUSH2 0x17DD DUP6 DUP3 PUSH2 0x1762 JUMP JUMPDEST DUP7 SSTORE POP PUSH2 0x1844 JUMP JUMPDEST PUSH1 0x1F NOT DUP5 AND PUSH2 0x17F3 DUP7 PUSH2 0x15E9 JUMP JUMPDEST PUSH0 JUMPDEST DUP3 DUP2 LT ISZERO PUSH2 0x181A JUMPI DUP5 DUP10 ADD MLOAD DUP3 SSTORE PUSH1 0x1 DUP3 ADD SWAP2 POP PUSH1 0x20 DUP6 ADD SWAP5 POP PUSH1 0x20 DUP2 ADD SWAP1 POP PUSH2 0x17F5 JUMP JUMPDEST DUP7 DUP4 LT ISZERO PUSH2 0x1837 JUMPI DUP5 DUP10 ADD MLOAD PUSH2 0x1833 PUSH1 0x1F DUP10 AND DUP3 PUSH2 0x1746 JUMP JUMPDEST DUP4 SSTORE POP JUMPDEST PUSH1 0x1 PUSH1 0x2 DUP9 MUL ADD DUP9 SSTORE POP POP POP JUMPDEST POP POP POP POP POP POP JUMP JUMPDEST PUSH32 0x4E487B7100000000000000000000000000000000000000000000000000000000 PUSH0 MSTORE PUSH1 0x32 PUSH1 0x4 MSTORE PUSH1 0x24 PUSH0 REVERT JUMPDEST PUSH0 PUSH1 0x60 DUP3 ADD SWAP1 POP PUSH2 0x188C PUSH0 DUP4 ADD DUP7 PUSH2 0xF03 JUMP JUMPDEST DUP2 DUP2 SUB PUSH1 0x20 DUP4 ADD MSTORE PUSH2 0x189E DUP2 DUP6 PUSH2 0xF4A JUMP JUMPDEST SWAP1 POP PUSH2 0x18AD PUSH1 0x40 DUP4 ADD DUP5 PUSH2 0xEB0 JUMP JUMPDEST SWAP5 SWAP4 POP POP POP POP JUMP INVALID LOG2 PUSH5 0x6970667358 0x22 SLT KECCAK256 DUP8 DUP10 0x22 0xBF 0xE9 ADDMOD PUSH16 0x91308295ECFD5C2D0F4C8579DAB88E97 SHR 0xD8 0xCC POP 0xD0 COINBASE 0xC1 SWAP6 CALLDATALOAD PUSH5 0x736F6C6343 STOP ADDMOD BYTE STOP CALLER "
				},
				"gasEstimates": {
					"creation": {
						"codeDepositCost": "1275800",
						"executionCost": "infinite",
						"totalCost": "infinite"
					},
					"external": {
						"addVerifier(address)": "26972",
						"authorisedVerifiers(address)": "2943",
						"getHistory(uint256)": "infinite",
						"manufacturer()": "2553",
						"mintContract()": "infinite",
						"products(uint256)": "infinite",
						"register(uint256,string)": "infinite",
						"saleContract()": "2596",
						"setSaleContract(address)": "26885",
						"transferOwnership(uint256,address)": "infinite",
						"verify(uint256)": "infinite"
					}
				},
				"methodIdentifiers": {
					"addVerifier(address)": "9000b3d6",
					"authorisedVerifiers(address)": "f9281222",
					"getHistory(uint256)": "c8691b2a",
					"manufacturer()": "74754282",
					"mintContract()": "d0b6b6db",
					"products(uint256)": "7acc0b20",
					"register(uint256,string)": "a00fd3c8",
					"saleContract()": "daf6ca30",
					"setSaleContract(address)": "0593d244",
					"transferOwnership(uint256,address)": "29507f73",
					"verify(uint256)": "8753367f"
				}
			},
			"storageLayout": {
				"storage": [
					{
						"astId": 12,
						"contract": "importControl.sol:ControlContract",
						"label": "mintContract",
						"offset": 0,
						"slot": "0",
						"type": "t_contract(ISimpleMint)9"
					},
					{
						"astId": 14,
						"contract": "importControl.sol:ControlContract",
						"label": "manufacturer",
						"offset": 0,
						"slot": "1",
						"type": "t_address"
					},
					{
						"astId": 16,
						"contract": "importControl.sol:ControlContract",
						"label": "saleContract",
						"offset": 0,
						"slot": "2",
						"type": "t_address"
					},
					{
						"astId": 33,
						"contract": "importControl.sol:ControlContract",
						"label": "products",
						"offset": 0,
						"slot": "3",
						"type": "t_mapping(t_uint256,t_struct(Product)28_storage)"
					},
					{
						"astId": 37,
						"contract": "importControl.sol:ControlContract",
						"label": "authorisedVerifiers",
						"offset": 0,
						"slot": "4",
						"type": "t_mapping(t_address,t_bool)"
					}
				],
				"types": {
					"t_address": {
						"encoding": "inplace",
						"label": "address",
						"numberOfBytes": "20"
					},
					"t_array(t_address)dyn_storage": {
						"base": "t_address",
						"encoding": "dynamic_array",
						"label": "address[]",
						"numberOfBytes": "32"
					},
					"t_bool": {
						"encoding": "inplace",
						"label": "bool",
						"numberOfBytes": "1"
					},
					"t_contract(ISimpleMint)9": {
						"encoding": "inplace",
						"label": "contract ISimpleMint",
						"numberOfBytes": "20"
					},
					"t_mapping(t_address,t_bool)": {
						"encoding": "mapping",
						"key": "t_address",
						"label": "mapping(address => bool)",
						"numberOfBytes": "32",
						"value": "t_bool"
					},
					"t_mapping(t_uint256,t_struct(Product)28_storage)": {
						"encoding": "mapping",
						"key": "t_uint256",
						"label": "mapping(uint256 => struct ControlContract.Product)",
						"numberOfBytes": "32",
						"value": "t_struct(Product)28_storage"
					},
					"t_string_storage": {
						"encoding": "bytes",
						"label": "string",
						"numberOfBytes": "32"
					},
					"t_struct(Product)28_storage": {
						"encoding": "inplace",
						"label": "struct ControlContract.Product",
						"members": [
							{
								"astId": 18,
								"contract": "importControl.sol:ControlContract",
								"label": "tokenID",
								"offset": 0,
								"slot": "0",
								"type": "t_uint256"
							},
							{
								"astId": 20,
								"contract": "importControl.sol:ControlContract",
								"label": "qrCode",
								"offset": 0,
								"slot": "1",
								"type": "t_string_storage"
							},
							{
								"astId": 22,
								"contract": "importControl.sol:ControlContract",
								"label": "verified",
								"offset": 0,
								"slot": "2",
								"type": "t_bool"
							},
							{
								"astId": 24,
								"contract": "importControl.sol:ControlContract",
								"label": "currentOwner",
								"offset": 1,
								"slot": "2",
								"type": "t_address"
							},
							{
								"astId": 27,
								"contract": "importControl.sol:ControlContract",
								"label": "history",
								"offset": 0,
								"slot": "3",
								"type": "t_array(t_address)dyn_storage"
							}
						],
						"numberOfBytes": "128"
					},
					"t_uint256": {
						"encoding": "inplace",
						"label": "uint256",
						"numberOfBytes": "32"
					}
				}
			},
			"userdoc": {
				"kind": "user",
				"methods": {},
				"version": 1
			}
		}
	}
}