{
	"Control.sol": {
		"ControlContract": {
			"abi": [
				{
					"inputs": [
						{
							"internalType": "address",
							"name": "_mintAddress",
							"type": "address"
						}
					],
					"stateMutability": "nonpayable",
					"type": "constructor"
				},
				{
					"anonymous": false,
					"inputs": [
						{
							"indexed": false,
							"internalType": "uint256",
							"name": "tokenId",
							"type": "uint256"
						},
						{
							"indexed": false,
							"internalType": "address",
							"name": "from",
							"type": "address"
						},
						{
							"indexed": false,
							"internalType": "address",
							"name": "to",
							"type": "address"
						}
					],
					"name": "OwnershipTransferred",
					"type": "event"
				},
				{
					"anonymous": false,
					"inputs": [
						{
							"indexed": false,
							"internalType": "uint256",
							"name": "tokenId",
							"type": "uint256"
						},
						{
							"indexed": false,
							"internalType": "string",
							"name": "qrCode",
							"type": "string"
						},
						{
							"indexed": false,
							"internalType": "address",
							"name": "owner",
							"type": "address"
						}
					],
					"name": "ProductRegistered",
					"type": "event"
				},
				{
					"anonymous": false,
					"inputs": [
						{
							"indexed": false,
							"internalType": "uint256",
							"name": "tokenId",
							"type": "uint256"
						},
						{
							"indexed": false,
							"internalType": "address",
							"name": "verifier",
							"type": "address"
						}
					],
					"name": "ProductVerified",
					"type": "event"
				},
				{
					"inputs": [
						{
							"internalType": "address",
							"name": "verifier",
							"type": "address"
						}
					],
					"name": "addVerifier",
					"outputs": [],
					"stateMutability": "nonpayable",
					"type": "function"
				},
				{
					"inputs": [
						{
							"internalType": "address",
							"name": "",
							"type": "address"
						}
					],
					"name": "authorisedVerifiers",
					"outputs": [
						{
							"internalType": "bool",
							"name": "",
							"type": "bool"
						}
					],
					"stateMutability": "view",
					"type": "function"
				},
				{
					"inputs": [
						{
							"internalType": "uint256",
							"name": "tokenId",
							"type": "uint256"
						}
					],
					"name": "getHistory",
					"outputs": [
						{
							"internalType": "address[]",
							"name": "",
							"type": "address[]"
						}
					],
					"stateMutability": "view",
					"type": "function"
				},
				{
					"inputs": [],
					"name": "manufacturer",
					"outputs": [
						{
							"internalType": "address",
							"name": "",
							"type": "address"
						}
					],
					"stateMutability": "view",
					"type": "function"
				},
				{
					"inputs": [],
					"name": "mintContract",
					"outputs": [
						{
							"internalType": "contract ISimpleMint",
							"name": "",
							"type": "address"
						}
					],
					"stateMutability": "view",
					"type": "function"
				},
				{
					"inputs": [
						{
							"internalType": "uint256",
							"name": "tokenId",
							"type": "uint256"
						},
						{
							"internalType": "address",
							"name": "owner",
							"type": "address"
						}
					],
					"name": "onMint",
					"outputs": [],
					"stateMutability": "nonpayable",
					"type": "function"
				},
				{
					"inputs": [
						{
							"internalType": "uint256",
							"name": "",
							"type": "uint256"
						}
					],
					"name": "products",
					"outputs": [
						{
							"internalType": "uint256",
							"name": "tokenID",
							"type": "uint256"
						},
						{
							"internalType": "string",
							"name": "qrCode",
							"type": "string"
						},
						{
							"internalType": "bool",
							"name": "verified",
							"type": "bool"
						},
						{
							"internalType": "address",
							"name": "currentOwner",
							"type": "address"
						}
					],
					"stateMutability": "view",
					"type": "function"
				},
				{
					"inputs": [
						{
							"internalType": "uint256",
							"name": "tokenId",
							"type": "uint256"
						},
						{
							"internalType": "string",
							"name": "qrCode",
							"type": "string"
						}
					],
					"name": "register",
					"outputs": [],
					"stateMutability": "nonpayable",
					"type": "function"
				},
				{
					"inputs": [
						{
							"internalType": "uint256",
							"name": "tokenId",
							"type": "uint256"
						},
						{
							"internalType": "address",
							"name": "newOwner",
							"type": "address"
						}
					],
					"name": "transferOwnership",
					"outputs": [],
					"stateMutability": "nonpayable",
					"type": "function"
				},
				{
					"inputs": [
						{
							"internalType": "uint256",
							"name": "tokenId",
							"type": "uint256"
						}
					],
					"name": "verify",
					"outputs": [],
					"stateMutability": "nonpayable",
					"type": "function"
				}
			],
			"devdoc": {
				"kind": "dev",
				"methods": {},
				"version": 1
			},
			"evm": {
				"assembly": "    /* \"Control.sol\":162:3317  contract ControlContract {... */\n  mstore(0x40, 0x80)\n    /* \"Control.sol\":1023:1152  constructor(address _mintAddress) {... */\n  callvalue\n  dup1\n  iszero\n  tag_1\n  jumpi\n  0x00\n  dup1\n  revert\ntag_1:\n  pop\n  mload(0x40)\n  sub(codesize, bytecodeSize)\n  dup1\n  bytecodeSize\n  dup4\n  codecopy\n  dup2\n  dup2\n  add\n  0x40\n  mstore\n  dup2\n  add\n  swap1\n  tag_2\n  swap2\n  swap1\n  tag_3\n  jump\t// in\ntag_2:\n    /* \"Control.sol\":1083:1093  msg.sender */\n  caller\n    /* \"Control.sol\":1068:1080  manufacturer */\n  0x01\n  0x00\n    /* \"Control.sol\":1068:1093  manufacturer = msg.sender */\n  0x0100\n  exp\n  dup2\n  sload\n  dup2\n  0xffffffffffffffffffffffffffffffffffffffff\n  mul\n  not\n  and\n  swap1\n  dup4\n  0xffffffffffffffffffffffffffffffffffffffff\n  and\n  mul\n  or\n  swap1\n  sstore\n  pop\n    /* \"Control.sol\":1131:1143  _mintAddress */\n  dup1\n    /* \"Control.sol\":1104:1116  mintContract */\n  0x00\n  dup1\n    /* \"Control.sol\":1104:1144  mintContract = ISimpleMint(_mintAddress) */\n  0x0100\n  exp\n  dup2\n  sload\n  dup2\n  0xffffffffffffffffffffffffffffffffffffffff\n  mul\n  not\n  and\n  swap1\n  dup4\n  0xffffffffffffffffffffffffffffffffffffffff\n  and\n  mul\n  or\n  swap1\n  sstore\n  pop\n    /* \"Control.sol\":1023:1152  constructor(address _mintAddress) {... */\n  pop\n    /* \"Control.sol\":162:3317  contract ControlContract {... */\n  jump(tag_6)\n    /* \"#utility.yul\":88:205   */\ntag_8:\n    /* \"#utility.yul\":197:198   */\n  0x00\n    /* \"#utility.yul\":194:195   */\n  dup1\n    /* \"#utility.yul\":187:199   */\n  revert\n    /* \"#utility.yul\":334:460   */\ntag_10:\n    /* \"#utility.yul\":371:378   */\n  0x00\n    /* \"#utility.yul\":411:453   */\n  0xffffffffffffffffffffffffffffffffffffffff\n    /* \"#utility.yul\":404:409   */\n  dup3\n    /* \"#utility.yul\":400:454   */\n  and\n    /* \"#utility.yul\":389:454   */\n  swap1\n  pop\n    /* \"#utility.yul\":334:460   */\n  swap2\n  swap1\n  pop\n  jump\t// out\n    /* \"#utility.yul\":466:562   */\ntag_11:\n    /* \"#utility.yul\":503:510   */\n  0x00\n    /* \"#utility.yul\":532:556   */\n  tag_20\n    /* \"#utility.yul\":550:555   */\n  dup3\n    /* \"#utility.yul\":532:556   */\n  tag_10\n  jump\t// in\ntag_20:\n    /* \"#utility.yul\":521:556   */\n  swap1\n  pop\n    /* \"#utility.yul\":466:562   */\n  swap2\n  swap1\n  pop\n  jump\t// out\n    /* \"#utility.yul\":568:690   */\ntag_12:\n    /* \"#utility.yul\":641:665   */\n  tag_22\n    /* \"#utility.yul\":659:664   */\n  dup2\n    /* \"#utility.yul\":641:665   */\n  tag_11\n  jump\t// in\ntag_22:\n    /* \"#utility.yul\":634:639   */\n  dup2\n    /* \"#utility.yul\":631:666   */\n  eq\n    /* \"#utility.yul\":621:684   */\n  tag_23\n  jumpi\n    /* \"#utility.yul\":680:681   */\n  0x00\n    /* \"#utility.yul\":677:678   */\n  dup1\n    /* \"#utility.yul\":670:682   */\n  revert\n    /* \"#utility.yul\":621:684   */\ntag_23:\n    /* \"#utility.yul\":568:690   */\n  pop\n  jump\t// out\n    /* \"#utility.yul\":696:839   */\ntag_13:\n    /* \"#utility.yul\":753:758   */\n  0x00\n    /* \"#utility.yul\":784:790   */\n  dup2\n    /* \"#utility.yul\":778:791   */\n  mload\n    /* \"#utility.yul\":769:791   */\n  swap1\n  pop\n    /* \"#utility.yul\":800:833   */\n  tag_25\n    /* \"#utility.yul\":827:832   */\n  dup2\n    /* \"#utility.yul\":800:833   */\n  tag_12\n  jump\t// in\ntag_25:\n    /* \"#utility.yul\":696:839   */\n  swap3\n  swap2\n  pop\n  pop\n  jump\t// out\n    /* \"#utility.yul\":845:1196   */\ntag_3:\n    /* \"#utility.yul\":915:921   */\n  0x00\n    /* \"#utility.yul\":964:966   */\n  0x20\n    /* \"#utility.yul\":952:961   */\n  dup3\n    /* \"#utility.yul\":943:950   */\n  dup5\n    /* \"#utility.yul\":939:962   */\n  sub\n    /* \"#utility.yul\":935:967   */\n  slt\n    /* \"#utility.yul\":932:1051   */\n  iszero\n  tag_27\n  jumpi\n    /* \"#utility.yul\":970:1049   */\n  tag_28\n  tag_8\n  jump\t// in\ntag_28:\n    /* \"#utility.yul\":932:1051   */\ntag_27:\n    /* \"#utility.yul\":1090:1091   */\n  0x00\n    /* \"#utility.yul\":1115:1179   */\n  tag_29\n    /* \"#utility.yul\":1171:1178   */\n  dup5\n    /* \"#utility.yul\":1162:1168   */\n  dup3\n    /* \"#utility.yul\":1151:1160   */\n  dup6\n    /* \"#utility.yul\":1147:1169   */\n  add\n    /* \"#utility.yul\":1115:1179   */\n  tag_13\n  jump\t// in\ntag_29:\n    /* \"#utility.yul\":1105:1179   */\n  swap2\n  pop\n    /* \"#utility.yul\":1061:1189   */\n  pop\n    /* \"#utility.yul\":845:1196   */\n  swap3\n  swap2\n  pop\n  pop\n  jump\t// out\n    /* \"Control.sol\":162:3317  contract ControlContract {... */\ntag_6:\n  dataSize(sub_0)\n  dup1\n  dataOffset(sub_0)\n  0x00\n  codecopy\n  0x00\n  return\nstop\n\nsub_0: assembly {\n        /* \"Control.sol\":162:3317  contract ControlContract {... */\n      mstore(0x40, 0x80)\n      callvalue\n      dup1\n      iszero\n      tag_1\n      jumpi\n      0x00\n      dup1\n      revert\n    tag_1:\n      pop\n      jumpi(tag_2, lt(calldatasize, 0x04))\n      shr(0xe0, calldataload(0x00))\n      dup1\n      0x9000b3d6\n      gt\n      tag_13\n      jumpi\n      dup1\n      0x9000b3d6\n      eq\n      tag_8\n      jumpi\n      dup1\n      0xa00fd3c8\n      eq\n      tag_9\n      jumpi\n      dup1\n      0xc8691b2a\n      eq\n      tag_10\n      jumpi\n      dup1\n      0xd0b6b6db\n      eq\n      tag_11\n      jumpi\n      dup1\n      0xf9281222\n      eq\n      tag_12\n      jumpi\n      jump(tag_2)\n    tag_13:\n      dup1\n      0x154f265f\n      eq\n      tag_3\n      jumpi\n      dup1\n      0x29507f73\n      eq\n      tag_4\n      jumpi\n      dup1\n      0x74754282\n      eq\n      tag_5\n      jumpi\n      dup1\n      0x7acc0b20\n      eq\n      tag_6\n      jumpi\n      dup1\n      0x8753367f\n      eq\n      tag_7\n      jumpi\n    tag_2:\n      0x00\n      dup1\n      revert\n        /* \"Control.sol\":1216:1784  function onMint(uint256 tokenId, address owner) external {... */\n    tag_3:\n      tag_14\n      0x04\n      dup1\n      calldatasize\n      sub\n      dup2\n      add\n      swap1\n      tag_15\n      swap2\n      swap1\n      tag_16\n      jump\t// in\n    tag_15:\n      tag_17\n      jump\t// in\n    tag_14:\n      stop\n        /* \"Control.sol\":2852:3188  function transferOwnership(uint256 tokenId, address newOwner) public {... */\n    tag_4:\n      tag_18\n      0x04\n      dup1\n      calldatasize\n      sub\n      dup2\n      add\n      swap1\n      tag_19\n      swap2\n      swap1\n      tag_16\n      jump\t// in\n    tag_19:\n      tag_20\n      jump\t// in\n    tag_18:\n      stop\n        /* \"Control.sol\":232:259  address public manufacturer */\n    tag_5:\n      tag_21\n      tag_22\n      jump\t// in\n    tag_21:\n      mload(0x40)\n      tag_23\n      swap2\n      swap1\n      tag_24\n      jump\t// in\n    tag_23:\n      mload(0x40)\n      dup1\n      swap2\n      sub\n      swap1\n      return\n        /* \"Control.sol\":432:475  mapping(uint256 => Product) public products */\n    tag_6:\n      tag_25\n      0x04\n      dup1\n      calldatasize\n      sub\n      dup2\n      add\n      swap1\n      tag_26\n      swap2\n      swap1\n      tag_27\n      jump\t// in\n    tag_26:\n      tag_28\n      jump\t// in\n    tag_25:\n      mload(0x40)\n      tag_29\n      swap5\n      swap4\n      swap3\n      swap2\n      swap1\n      tag_30\n      jump\t// in\n    tag_29:\n      mload(0x40)\n      dup1\n      swap2\n      sub\n      swap1\n      return\n        /* \"Control.sol\":2398:2633  function verify(uint256 tokenId) public onlyVerifier {... */\n    tag_7:\n      tag_31\n      0x04\n      dup1\n      calldatasize\n      sub\n      dup2\n      add\n      swap1\n      tag_32\n      swap2\n      swap1\n      tag_27\n      jump\t// in\n    tag_32:\n      tag_33\n      jump\t// in\n    tag_31:\n      stop\n        /* \"Control.sol\":3196:3314  function addVerifier(address verifier) public onlyManufacturer {... */\n    tag_8:\n      tag_34\n      0x04\n      dup1\n      calldatasize\n      sub\n      dup2\n      add\n      swap1\n      tag_35\n      swap2\n      swap1\n      tag_36\n      jump\t// in\n    tag_35:\n      tag_37\n      jump\t// in\n    tag_34:\n      stop\n        /* \"Control.sol\":1792:2390  function register(uint256 tokenId, string memory qrCode) public onlyManufacturer {... */\n    tag_9:\n      tag_38\n      0x04\n      dup1\n      calldatasize\n      sub\n      dup2\n      add\n      swap1\n      tag_39\n      swap2\n      swap1\n      tag_40\n      jump\t// in\n    tag_39:\n      tag_41\n      jump\t// in\n    tag_38:\n      stop\n        /* \"Control.sol\":2641:2844  function getHistory(uint256 tokenId) public view returns (address[] memory) {... */\n    tag_10:\n      tag_42\n      0x04\n      dup1\n      calldatasize\n      sub\n      dup2\n      add\n      swap1\n      tag_43\n      swap2\n      swap1\n      tag_27\n      jump\t// in\n    tag_43:\n      tag_44\n      jump\t// in\n    tag_42:\n      mload(0x40)\n      tag_45\n      swap2\n      swap1\n      tag_46\n      jump\t// in\n    tag_45:\n      mload(0x40)\n      dup1\n      swap2\n      sub\n      swap1\n      return\n        /* \"Control.sol\":194:225  ISimpleMint public mintContract */\n    tag_11:\n      tag_47\n      tag_48\n      jump\t// in\n    tag_47:\n      mload(0x40)\n      tag_49\n      swap2\n      swap1\n      tag_50\n      jump\t// in\n    tag_49:\n      mload(0x40)\n      dup1\n      swap2\n      sub\n      swap1\n      return\n        /* \"Control.sol\":482:533  mapping(address => bool) public authorisedVerifiers */\n    tag_12:\n      tag_51\n      0x04\n      dup1\n      calldatasize\n      sub\n      dup2\n      add\n      swap1\n      tag_52\n      swap2\n      swap1\n      tag_36\n      jump\t// in\n    tag_52:\n      tag_53\n      jump\t// in\n    tag_51:\n      mload(0x40)\n      tag_54\n      swap2\n      swap1\n      tag_55\n      jump\t// in\n    tag_54:\n      mload(0x40)\n      dup1\n      swap2\n      sub\n      swap1\n      return\n        /* \"Control.sol\":1216:1784  function onMint(uint256 tokenId, address owner) external {... */\n    tag_17:\n        /* \"Control.sol\":1314:1326  mintContract */\n      0x00\n      dup1\n      sload\n      swap1\n      0x0100\n      exp\n      swap1\n      div\n      0xffffffffffffffffffffffffffffffffffffffff\n      and\n        /* \"Control.sol\":1292:1327  msg.sender == address(mintContract) */\n      0xffffffffffffffffffffffffffffffffffffffff\n      and\n        /* \"Control.sol\":1292:1302  msg.sender */\n      caller\n        /* \"Control.sol\":1292:1327  msg.sender == address(mintContract) */\n      0xffffffffffffffffffffffffffffffffffffffff\n      and\n      eq\n        /* \"Control.sol\":1284:1359  require(msg.sender == address(mintContract), \"Only mint contract can call\") */\n      tag_57\n      jumpi\n      mload(0x40)\n      0x08c379a000000000000000000000000000000000000000000000000000000000\n      dup2\n      mstore\n      0x04\n      add\n      tag_58\n      swap1\n      tag_59\n      jump\t// in\n    tag_58:\n      mload(0x40)\n      dup1\n      swap2\n      sub\n      swap1\n      revert\n    tag_57:\n        /* \"Control.sol\":1407:1408  0 */\n      0x00\n        /* \"Control.sol\":1378:1386  products */\n      0x02\n        /* \"Control.sol\":1378:1395  products[tokenId] */\n      0x00\n        /* \"Control.sol\":1387:1394  tokenId */\n      dup5\n        /* \"Control.sol\":1378:1395  products[tokenId] */\n      dup2\n      mstore\n      0x20\n      add\n      swap1\n      dup2\n      mstore\n      0x20\n      add\n      0x00\n      keccak256\n        /* \"Control.sol\":1378:1403  products[tokenId].tokenID */\n      0x00\n      add\n      sload\n        /* \"Control.sol\":1378:1408  products[tokenId].tokenID == 0 */\n      eq\n        /* \"Control.sol\":1370:1431  require(products[tokenId].tokenID == 0, \"Already registered\") */\n      tag_60\n      jumpi\n      mload(0x40)\n      0x08c379a000000000000000000000000000000000000000000000000000000000\n      dup2\n      mstore\n      0x04\n      add\n      tag_61\n      swap1\n      tag_62\n      jump\t// in\n    tag_61:\n      mload(0x40)\n      dup1\n      swap2\n      sub\n      swap1\n      revert\n    tag_60:\n        /* \"Control.sol\":1494:1674  Product({... */\n      mload(0x40)\n      dup1\n      0xa0\n      add\n      0x40\n      mstore\n      dup1\n        /* \"Control.sol\":1526:1533  tokenId */\n      dup4\n        /* \"Control.sol\":1494:1674  Product({... */\n      dup2\n      mstore\n      0x20\n      add\n      mload(0x40)\n      dup1\n      0x20\n      add\n      0x40\n      mstore\n      dup1\n      0x00\n      dup2\n      mstore\n      pop\n      dup2\n      mstore\n      0x20\n      add\n        /* \"Control.sol\":1583:1588  false */\n      0x00\n        /* \"Control.sol\":1494:1674  Product({... */\n      iszero\n      iszero\n      dup2\n      mstore\n      0x20\n      add\n        /* \"Control.sol\":1617:1622  owner */\n      dup3\n        /* \"Control.sol\":1494:1674  Product({... */\n      0xffffffffffffffffffffffffffffffffffffffff\n      and\n      dup2\n      mstore\n      0x20\n      add\n        /* \"Control.sol\":1660:1661  1 */\n      0x01\n        /* \"Control.sol\":1646:1662  new address[](1) */\n      0xffffffffffffffff\n      dup2\n      gt\n      iszero\n      tag_63\n      jumpi\n      tag_64\n      tag_65\n      jump\t// in\n    tag_64:\n    tag_63:\n      mload(0x40)\n      swap1\n      dup1\n      dup3\n      mstore\n      dup1\n      0x20\n      mul\n      0x20\n      add\n      dup3\n      add\n      0x40\n      mstore\n      dup1\n      iszero\n      tag_66\n      jumpi\n      dup2\n      0x20\n      add\n      0x20\n      dup3\n      mul\n      dup1\n      calldatasize\n      dup4\n      calldatacopy\n      dup1\n      dup3\n      add\n      swap2\n      pop\n      pop\n      swap1\n      pop\n    tag_66:\n      pop\n        /* \"Control.sol\":1494:1674  Product({... */\n      dup2\n      mstore\n      pop\n        /* \"Control.sol\":1474:1482  products */\n      0x02\n        /* \"Control.sol\":1474:1491  products[tokenId] */\n      0x00\n        /* \"Control.sol\":1483:1490  tokenId */\n      dup5\n        /* \"Control.sol\":1474:1491  products[tokenId] */\n      dup2\n      mstore\n      0x20\n      add\n      swap1\n      dup2\n      mstore\n      0x20\n      add\n      0x00\n      keccak256\n        /* \"Control.sol\":1474:1674  products[tokenId] = Product({... */\n      0x00\n      dup3\n      add\n      mload\n      dup2\n      0x00\n      add\n      sstore\n      0x20\n      dup3\n      add\n      mload\n      dup2\n      0x01\n      add\n      swap1\n      dup2\n      tag_67\n      swap2\n      swap1\n      tag_68\n      jump\t// in\n    tag_67:\n      pop\n      0x40\n      dup3\n      add\n      mload\n      dup2\n      0x02\n      add\n      exp(0x0100, 0x00)\n      dup2\n      sload\n      dup2\n      0xff\n      mul\n      not\n      and\n      swap1\n      dup4\n      iszero\n      iszero\n      mul\n      or\n      swap1\n      sstore\n      pop\n      0x60\n      dup3\n      add\n      mload\n      dup2\n      0x02\n      add\n      exp(0x0100, 0x01)\n      dup2\n      sload\n      dup2\n      0xffffffffffffffffffffffffffffffffffffffff\n      mul\n      not\n      and\n      swap1\n      dup4\n      0xffffffffffffffffffffffffffffffffffffffff\n      and\n      mul\n      or\n      swap1\n      sstore\n      pop\n      0x80\n      dup3\n      add\n      mload\n      dup2\n      0x03\n      add\n      swap1\n      dup1\n      mload\n      swap1\n      0x20\n      add\n      swap1\n      tag_69\n      swap3\n      swap2\n      swap1\n      tag_70\n      jump\t// in\n    tag_69:\n      pop\n      swap1\n      pop\n      pop\n        /* \"Control.sol\":1716:1721  owner */\n      dup1\n        /* \"Control.sol\":1685:1693  products */\n      0x02\n        /* \"Control.sol\":1685:1702  products[tokenId] */\n      0x00\n        /* \"Control.sol\":1694:1701  tokenId */\n      dup5\n        /* \"Control.sol\":1685:1702  products[tokenId] */\n      dup2\n      mstore\n      0x20\n      add\n      swap1\n      dup2\n      mstore\n      0x20\n      add\n      0x00\n      keccak256\n        /* \"Control.sol\":1685:1710  products[tokenId].history */\n      0x03\n      add\n        /* \"Control.sol\":1711:1712  0 */\n      0x00\n        /* \"Control.sol\":1685:1713  products[tokenId].history[0] */\n      dup2\n      sload\n      dup2\n      lt\n      tag_71\n      jumpi\n      tag_72\n      tag_73\n      jump\t// in\n    tag_72:\n    tag_71:\n      swap1\n      0x00\n      mstore\n      keccak256(0x00, 0x20)\n      add\n      0x00\n        /* \"Control.sol\":1685:1721  products[tokenId].history[0] = owner */\n      0x0100\n      exp\n      dup2\n      sload\n      dup2\n      0xffffffffffffffffffffffffffffffffffffffff\n      mul\n      not\n      and\n      swap1\n      dup4\n      0xffffffffffffffffffffffffffffffffffffffff\n      and\n      mul\n      or\n      swap1\n      sstore\n      pop\n        /* \"Control.sol\":1739:1776  ProductRegistered(tokenId, \"\", owner) */\n      0xd810998a0248808a33b20218e71759cb2ec1a182b398350ad606d742587c012c\n        /* \"Control.sol\":1757:1764  tokenId */\n      dup3\n        /* \"Control.sol\":1770:1775  owner */\n      dup3\n        /* \"Control.sol\":1739:1776  ProductRegistered(tokenId, \"\", owner) */\n      mload(0x40)\n      tag_75\n      swap3\n      swap2\n      swap1\n      tag_76\n      jump\t// in\n    tag_75:\n      mload(0x40)\n      dup1\n      swap2\n      sub\n      swap1\n      log1\n        /* \"Control.sol\":1216:1784  function onMint(uint256 tokenId, address owner) external {... */\n      pop\n      pop\n      jump\t// out\n        /* \"Control.sol\":2852:3188  function transferOwnership(uint256 tokenId, address newOwner) public {... */\n    tag_20:\n        /* \"Control.sol\":2974:2984  msg.sender */\n      caller\n        /* \"Control.sol\":2940:2984  products[tokenId].currentOwner == msg.sender */\n      0xffffffffffffffffffffffffffffffffffffffff\n      and\n        /* \"Control.sol\":2940:2948  products */\n      0x02\n        /* \"Control.sol\":2940:2957  products[tokenId] */\n      0x00\n        /* \"Control.sol\":2949:2956  tokenId */\n      dup5\n        /* \"Control.sol\":2940:2957  products[tokenId] */\n      dup2\n      mstore\n      0x20\n      add\n      swap1\n      dup2\n      mstore\n      0x20\n      add\n      0x00\n      keccak256\n        /* \"Control.sol\":2940:2970  products[tokenId].currentOwner */\n      0x02\n      add\n      0x01\n      swap1\n      sload\n      swap1\n      0x0100\n      exp\n      swap1\n      div\n      0xffffffffffffffffffffffffffffffffffffffff\n      and\n        /* \"Control.sol\":2940:2984  products[tokenId].currentOwner == msg.sender */\n      0xffffffffffffffffffffffffffffffffffffffff\n      and\n      eq\n        /* \"Control.sol\":2932:3006  require(products[tokenId].currentOwner == msg.sender, \"Not current owner\") */\n      tag_78\n      jumpi\n      mload(0x40)\n      0x08c379a000000000000000000000000000000000000000000000000000000000\n      dup2\n      mstore\n      0x04\n      add\n      tag_79\n      swap1\n      tag_80\n      jump\t// in\n    tag_79:\n      mload(0x40)\n      dup1\n      swap2\n      sub\n      swap1\n      revert\n    tag_78:\n        /* \"Control.sol\":3052:3060  newOwner */\n      dup1\n        /* \"Control.sol\":3019:3027  products */\n      0x02\n        /* \"Control.sol\":3019:3036  products[tokenId] */\n      0x00\n        /* \"Control.sol\":3028:3035  tokenId */\n      dup5\n        /* \"Control.sol\":3019:3036  products[tokenId] */\n      dup2\n      mstore\n      0x20\n      add\n      swap1\n      dup2\n      mstore\n      0x20\n      add\n      0x00\n      keccak256\n        /* \"Control.sol\":3019:3049  products[tokenId].currentOwner */\n      0x02\n      add\n      0x01\n        /* \"Control.sol\":3019:3060  products[tokenId].currentOwner = newOwner */\n      0x0100\n      exp\n      dup2\n      sload\n      dup2\n      0xffffffffffffffffffffffffffffffffffffffff\n      mul\n      not\n      and\n      swap1\n      dup4\n      0xffffffffffffffffffffffffffffffffffffffff\n      and\n      mul\n      or\n      swap1\n      sstore\n      pop\n        /* \"Control.sol\":3071:3079  products */\n      0x02\n        /* \"Control.sol\":3071:3088  products[tokenId] */\n      0x00\n        /* \"Control.sol\":3080:3087  tokenId */\n      dup4\n        /* \"Control.sol\":3071:3088  products[tokenId] */\n      dup2\n      mstore\n      0x20\n      add\n      swap1\n      dup2\n      mstore\n      0x20\n      add\n      0x00\n      keccak256\n        /* \"Control.sol\":3071:3096  products[tokenId].history */\n      0x03\n      add\n        /* \"Control.sol\":3102:3110  newOwner */\n      dup2\n        /* \"Control.sol\":3071:3111  products[tokenId].history.push(newOwner) */\n      swap1\n      dup1\n      0x01\n      dup2\n      sload\n      add\n      dup1\n      dup3\n      sstore\n      dup1\n      swap2\n      pop\n      pop\n      0x01\n      swap1\n      sub\n      swap1\n      0x00\n      mstore\n      keccak256(0x00, 0x20)\n      add\n      0x00\n      swap1\n      swap2\n      swap1\n      swap2\n      swap1\n      swap2\n      0x0100\n      exp\n      dup2\n      sload\n      dup2\n      0xffffffffffffffffffffffffffffffffffffffff\n      mul\n      not\n      and\n      swap1\n      dup4\n      0xffffffffffffffffffffffffffffffffffffffff\n      and\n      mul\n      or\n      swap1\n      sstore\n      pop\n        /* \"Control.sol\":3129:3180  OwnershipTransferred(tokenId, msg.sender, newOwner) */\n      0x16b85f49bf01212961345d3016c9a531894accf62eb7680f2045d79185cc0ec0\n        /* \"Control.sol\":3150:3157  tokenId */\n      dup3\n        /* \"Control.sol\":3159:3169  msg.sender */\n      caller\n        /* \"Control.sol\":3171:3179  newOwner */\n      dup4\n        /* \"Control.sol\":3129:3180  OwnershipTransferred(tokenId, msg.sender, newOwner) */\n      mload(0x40)\n      tag_82\n      swap4\n      swap3\n      swap2\n      swap1\n      tag_83\n      jump\t// in\n    tag_82:\n      mload(0x40)\n      dup1\n      swap2\n      sub\n      swap1\n      log1\n        /* \"Control.sol\":2852:3188  function transferOwnership(uint256 tokenId, address newOwner) public {... */\n      pop\n      pop\n      jump\t// out\n        /* \"Control.sol\":232:259  address public manufacturer */\n    tag_22:\n      0x01\n      0x00\n      swap1\n      sload\n      swap1\n      0x0100\n      exp\n      swap1\n      div\n      0xffffffffffffffffffffffffffffffffffffffff\n      and\n      dup2\n      jump\t// out\n        /* \"Control.sol\":432:475  mapping(uint256 => Product) public products */\n    tag_28:\n      mstore(0x20, 0x02)\n      dup1\n      0x00\n      mstore\n      keccak256(0x00, 0x40)\n      0x00\n      swap2\n      pop\n      swap1\n      pop\n      dup1\n      0x00\n      add\n      sload\n      swap1\n      dup1\n      0x01\n      add\n      dup1\n      sload\n      tag_84\n      swap1\n      tag_85\n      jump\t// in\n    tag_84:\n      dup1\n      0x1f\n      add\n      0x20\n      dup1\n      swap2\n      div\n      mul\n      0x20\n      add\n      mload(0x40)\n      swap1\n      dup2\n      add\n      0x40\n      mstore\n      dup1\n      swap3\n      swap2\n      swap1\n      dup2\n      dup2\n      mstore\n      0x20\n      add\n      dup3\n      dup1\n      sload\n      tag_86\n      swap1\n      tag_85\n      jump\t// in\n    tag_86:\n      dup1\n      iszero\n      tag_87\n      jumpi\n      dup1\n      0x1f\n      lt\n      tag_88\n      jumpi\n      0x0100\n      dup1\n      dup4\n      sload\n      div\n      mul\n      dup4\n      mstore\n      swap2\n      0x20\n      add\n      swap2\n      jump(tag_87)\n    tag_88:\n      dup3\n      add\n      swap2\n      swap1\n      0x00\n      mstore\n      keccak256(0x00, 0x20)\n      swap1\n    tag_89:\n      dup2\n      sload\n      dup2\n      mstore\n      swap1\n      0x01\n      add\n      swap1\n      0x20\n      add\n      dup1\n      dup4\n      gt\n      tag_89\n      jumpi\n      dup3\n      swap1\n      sub\n      0x1f\n      and\n      dup3\n      add\n      swap2\n    tag_87:\n      pop\n      pop\n      pop\n      pop\n      pop\n      swap1\n      dup1\n      0x02\n      add\n      0x00\n      swap1\n      sload\n      swap1\n      0x0100\n      exp\n      swap1\n      div\n      0xff\n      and\n      swap1\n      dup1\n      0x02\n      add\n      0x01\n      swap1\n      sload\n      swap1\n      0x0100\n      exp\n      swap1\n      div\n      0xffffffffffffffffffffffffffffffffffffffff\n      and\n      swap1\n      pop\n      dup5\n      jump\t// out\n        /* \"Control.sol\":2398:2633  function verify(uint256 tokenId) public onlyVerifier {... */\n    tag_33:\n        /* \"Control.sol\":935:954  authorisedVerifiers */\n      0x03\n        /* \"Control.sol\":935:966  authorisedVerifiers[msg.sender] */\n      0x00\n        /* \"Control.sol\":955:965  msg.sender */\n      caller\n        /* \"Control.sol\":935:966  authorisedVerifiers[msg.sender] */\n      0xffffffffffffffffffffffffffffffffffffffff\n      and\n      0xffffffffffffffffffffffffffffffffffffffff\n      and\n      dup2\n      mstore\n      0x20\n      add\n      swap1\n      dup2\n      mstore\n      0x20\n      add\n      0x00\n      keccak256\n      0x00\n      swap1\n      sload\n      swap1\n      0x0100\n      exp\n      swap1\n      div\n      0xff\n      and\n        /* \"Control.sol\":927:995  require(authorisedVerifiers[msg.sender], \"Not authorised to verify\") */\n      tag_91\n      jumpi\n      mload(0x40)\n      0x08c379a000000000000000000000000000000000000000000000000000000000\n      dup2\n      mstore\n      0x04\n      add\n      tag_92\n      swap1\n      tag_93\n      jump\t// in\n    tag_92:\n      mload(0x40)\n      dup1\n      swap2\n      sub\n      swap1\n      revert\n    tag_91:\n        /* \"Control.sol\":2499:2500  0 */\n      0x00\n        /* \"Control.sol\":2470:2478  products */\n      0x02\n        /* \"Control.sol\":2470:2487  products[tokenId] */\n      0x00\n        /* \"Control.sol\":2479:2486  tokenId */\n      dup4\n        /* \"Control.sol\":2470:2487  products[tokenId] */\n      dup2\n      mstore\n      0x20\n      add\n      swap1\n      dup2\n      mstore\n      0x20\n      add\n      0x00\n      keccak256\n        /* \"Control.sol\":2470:2495  products[tokenId].tokenID */\n      0x00\n      add\n      sload\n        /* \"Control.sol\":2470:2500  products[tokenId].tokenID != 0 */\n      sub\n        /* \"Control.sol\":2462:2527  require(products[tokenId].tokenID != 0, \"Product not registered\") */\n      tag_95\n      jumpi\n      mload(0x40)\n      0x08c379a000000000000000000000000000000000000000000000000000000000\n      dup2\n      mstore\n      0x04\n      add\n      tag_96\n      swap1\n      tag_97\n      jump\t// in\n    tag_96:\n      mload(0x40)\n      dup1\n      swap2\n      sub\n      swap1\n      revert\n    tag_95:\n        /* \"Control.sol\":2569:2573  true */\n      0x01\n        /* \"Control.sol\":2540:2548  products */\n      0x02\n        /* \"Control.sol\":2540:2557  products[tokenId] */\n      0x00\n        /* \"Control.sol\":2549:2556  tokenId */\n      dup4\n        /* \"Control.sol\":2540:2557  products[tokenId] */\n      dup2\n      mstore\n      0x20\n      add\n      swap1\n      dup2\n      mstore\n      0x20\n      add\n      0x00\n      keccak256\n        /* \"Control.sol\":2540:2566  products[tokenId].verified */\n      0x02\n      add\n      0x00\n        /* \"Control.sol\":2540:2573  products[tokenId].verified = true */\n      0x0100\n      exp\n      dup2\n      sload\n      dup2\n      0xff\n      mul\n      not\n      and\n      swap1\n      dup4\n      iszero\n      iszero\n      mul\n      or\n      swap1\n      sstore\n      pop\n        /* \"Control.sol\":2589:2625  ProductVerified(tokenId, msg.sender) */\n      0xab60911bebc6d3ab48620594e409545834da76f4995297ebc48ca5589f25437b\n        /* \"Control.sol\":2605:2612  tokenId */\n      dup2\n        /* \"Control.sol\":2614:2624  msg.sender */\n      caller\n        /* \"Control.sol\":2589:2625  ProductVerified(tokenId, msg.sender) */\n      mload(0x40)\n      tag_98\n      swap3\n      swap2\n      swap1\n      tag_99\n      jump\t// in\n    tag_98:\n      mload(0x40)\n      dup1\n      swap2\n      sub\n      swap1\n      log1\n        /* \"Control.sol\":2398:2633  function verify(uint256 tokenId) public onlyVerifier {... */\n      pop\n      jump\t// out\n        /* \"Control.sol\":3196:3314  function addVerifier(address verifier) public onlyManufacturer {... */\n    tag_37:\n        /* \"Control.sol\":821:833  manufacturer */\n      0x01\n      0x00\n      swap1\n      sload\n      swap1\n      0x0100\n      exp\n      swap1\n      div\n      0xffffffffffffffffffffffffffffffffffffffff\n      and\n        /* \"Control.sol\":807:833  msg.sender == manufacturer */\n      0xffffffffffffffffffffffffffffffffffffffff\n      and\n        /* \"Control.sol\":807:817  msg.sender */\n      caller\n        /* \"Control.sol\":807:833  msg.sender == manufacturer */\n      0xffffffffffffffffffffffffffffffffffffffff\n      and\n      eq\n        /* \"Control.sol\":799:864  require(msg.sender == manufacturer, \"Only manufacturer can call\") */\n      tag_101\n      jumpi\n      mload(0x40)\n      0x08c379a000000000000000000000000000000000000000000000000000000000\n      dup2\n      mstore\n      0x04\n      add\n      tag_102\n      swap1\n      tag_103\n      jump\t// in\n    tag_102:\n      mload(0x40)\n      dup1\n      swap2\n      sub\n      swap1\n      revert\n    tag_101:\n        /* \"Control.sol\":3302:3306  true */\n      0x01\n        /* \"Control.sol\":3270:3289  authorisedVerifiers */\n      0x03\n        /* \"Control.sol\":3270:3299  authorisedVerifiers[verifier] */\n      0x00\n        /* \"Control.sol\":3290:3298  verifier */\n      dup4\n        /* \"Control.sol\":3270:3299  authorisedVerifiers[verifier] */\n      0xffffffffffffffffffffffffffffffffffffffff\n      and\n      0xffffffffffffffffffffffffffffffffffffffff\n      and\n      dup2\n      mstore\n      0x20\n      add\n      swap1\n      dup2\n      mstore\n      0x20\n      add\n      0x00\n      keccak256\n      0x00\n        /* \"Control.sol\":3270:3306  authorisedVerifiers[verifier] = true */\n      0x0100\n      exp\n      dup2\n      sload\n      dup2\n      0xff\n      mul\n      not\n      and\n      swap1\n      dup4\n      iszero\n      iszero\n      mul\n      or\n      swap1\n      sstore\n      pop\n        /* \"Control.sol\":3196:3314  function addVerifier(address verifier) public onlyManufacturer {... */\n      pop\n      jump\t// out\n        /* \"Control.sol\":1792:2390  function register(uint256 tokenId, string memory qrCode) public onlyManufacturer {... */\n    tag_41:\n        /* \"Control.sol\":821:833  manufacturer */\n      0x01\n      0x00\n      swap1\n      sload\n      swap1\n      0x0100\n      exp\n      swap1\n      div\n      0xffffffffffffffffffffffffffffffffffffffff\n      and\n        /* \"Control.sol\":807:833  msg.sender == manufacturer */\n      0xffffffffffffffffffffffffffffffffffffffff\n      and\n        /* \"Control.sol\":807:817  msg.sender */\n      caller\n        /* \"Control.sol\":807:833  msg.sender == manufacturer */\n      0xffffffffffffffffffffffffffffffffffffffff\n      and\n      eq\n        /* \"Control.sol\":799:864  require(msg.sender == manufacturer, \"Only manufacturer can call\") */\n      tag_106\n      jumpi\n      mload(0x40)\n      0x08c379a000000000000000000000000000000000000000000000000000000000\n      dup2\n      mstore\n      0x04\n      add\n      tag_107\n      swap1\n      tag_103\n      jump\t// in\n    tag_107:\n      mload(0x40)\n      dup1\n      swap2\n      sub\n      swap1\n      revert\n    tag_106:\n        /* \"Control.sol\":1884:1904  address currentOwner */\n      0x00\n        /* \"Control.sol\":1907:1919  mintContract */\n      dup1\n      0x00\n      swap1\n      sload\n      swap1\n      0x0100\n      exp\n      swap1\n      div\n      0xffffffffffffffffffffffffffffffffffffffff\n      and\n        /* \"Control.sol\":1907:1927  mintContract.ownerOf */\n      0xffffffffffffffffffffffffffffffffffffffff\n      and\n      0x6352211e\n        /* \"Control.sol\":1928:1935  tokenId */\n      dup5\n        /* \"Control.sol\":1907:1936  mintContract.ownerOf(tokenId) */\n      mload(0x40)\n      dup3\n      0xffffffff\n      and\n      0xe0\n      shl\n      dup2\n      mstore\n      0x04\n      add\n      tag_109\n      swap2\n      swap1\n      tag_110\n      jump\t// in\n    tag_109:\n      0x20\n      mload(0x40)\n      dup1\n      dup4\n      sub\n      dup2\n      dup7\n      gas\n      staticcall\n      iszero\n      dup1\n      iszero\n      tag_112\n      jumpi\n      returndatasize\n      0x00\n      dup1\n      returndatacopy\n      revert(0x00, returndatasize)\n    tag_112:\n      pop\n      pop\n      pop\n      pop\n      mload(0x40)\n      returndatasize\n      not(0x1f)\n      0x1f\n      dup3\n      add\n      and\n      dup3\n      add\n      dup1\n      0x40\n      mstore\n      pop\n      dup2\n      add\n      swap1\n      tag_113\n      swap2\n      swap1\n      tag_114\n      jump\t// in\n    tag_113:\n        /* \"Control.sol\":1884:1936  address currentOwner = mintContract.ownerOf(tokenId) */\n      swap1\n      pop\n        /* \"Control.sol\":1984:1985  0 */\n      0x00\n        /* \"Control.sol\":1955:1963  products */\n      0x02\n        /* \"Control.sol\":1955:1972  products[tokenId] */\n      0x00\n        /* \"Control.sol\":1964:1971  tokenId */\n      dup6\n        /* \"Control.sol\":1955:1972  products[tokenId] */\n      dup2\n      mstore\n      0x20\n      add\n      swap1\n      dup2\n      mstore\n      0x20\n      add\n      0x00\n      keccak256\n        /* \"Control.sol\":1955:1980  products[tokenId].tokenID */\n      0x00\n      add\n      sload\n        /* \"Control.sol\":1955:1985  products[tokenId].tokenID == 0 */\n      eq\n        /* \"Control.sol\":1947:2008  require(products[tokenId].tokenID == 0, \"Already registered\") */\n      tag_115\n      jumpi\n      mload(0x40)\n      0x08c379a000000000000000000000000000000000000000000000000000000000\n      dup2\n      mstore\n      0x04\n      add\n      tag_116\n      swap1\n      tag_62\n      jump\t// in\n    tag_116:\n      mload(0x40)\n      dup1\n      swap2\n      sub\n      swap1\n      revert\n    tag_115:\n        /* \"Control.sol\":2071:2262  Product({... */\n      mload(0x40)\n      dup1\n      0xa0\n      add\n      0x40\n      mstore\n      dup1\n        /* \"Control.sol\":2103:2110  tokenId */\n      dup5\n        /* \"Control.sol\":2071:2262  Product({... */\n      dup2\n      mstore\n      0x20\n      add\n        /* \"Control.sol\":2133:2139  qrCode */\n      dup4\n        /* \"Control.sol\":2071:2262  Product({... */\n      dup2\n      mstore\n      0x20\n      add\n        /* \"Control.sol\":2164:2169  false */\n      0x00\n        /* \"Control.sol\":2071:2262  Product({... */\n      iszero\n      iszero\n      dup2\n      mstore\n      0x20\n      add\n        /* \"Control.sol\":2198:2210  currentOwner */\n      dup3\n        /* \"Control.sol\":2071:2262  Product({... */\n      0xffffffffffffffffffffffffffffffffffffffff\n      and\n      dup2\n      mstore\n      0x20\n      add\n        /* \"Control.sol\":2248:2249  1 */\n      0x01\n        /* \"Control.sol\":2234:2250  new address[](1) */\n      0xffffffffffffffff\n      dup2\n      gt\n      iszero\n      tag_117\n      jumpi\n      tag_118\n      tag_65\n      jump\t// in\n    tag_118:\n    tag_117:\n      mload(0x40)\n      swap1\n      dup1\n      dup3\n      mstore\n      dup1\n      0x20\n      mul\n      0x20\n      add\n      dup3\n      add\n      0x40\n      mstore\n      dup1\n      iszero\n      tag_119\n      jumpi\n      dup2\n      0x20\n      add\n      0x20\n      dup3\n      mul\n      dup1\n      calldatasize\n      dup4\n      calldatacopy\n      dup1\n      dup3\n      add\n      swap2\n      pop\n      pop\n      swap1\n      pop\n    tag_119:\n      pop\n        /* \"Control.sol\":2071:2262  Product({... */\n      dup2\n      mstore\n      pop\n        /* \"Control.sol\":2051:2059  products */\n      0x02\n        /* \"Control.sol\":2051:2068  products[tokenId] */\n      0x00\n        /* \"Control.sol\":2060:2067  tokenId */\n      dup6\n        /* \"Control.sol\":2051:2068  products[tokenId] */\n      dup2\n      mstore\n      0x20\n      add\n      swap1\n      dup2\n      mstore\n      0x20\n      add\n      0x00\n      keccak256\n        /* \"Control.sol\":2051:2262  products[tokenId] = Product({... */\n      0x00\n      dup3\n      add\n      mload\n      dup2\n      0x00\n      add\n      sstore\n      0x20\n      dup3\n      add\n      mload\n      dup2\n      0x01\n      add\n      swap1\n      dup2\n      tag_120\n      swap2\n      swap1\n      tag_68\n      jump\t// in\n    tag_120:\n      pop\n      0x40\n      dup3\n      add\n      mload\n      dup2\n      0x02\n      add\n      exp(0x0100, 0x00)\n      dup2\n      sload\n      dup2\n      0xff\n      mul\n      not\n      and\n      swap1\n      dup4\n      iszero\n      iszero\n      mul\n      or\n      swap1\n      sstore\n      pop\n      0x60\n      dup3\n      add\n      mload\n      dup2\n      0x02\n      add\n      exp(0x0100, 0x01)\n      dup2\n      sload\n      dup2\n      0xffffffffffffffffffffffffffffffffffffffff\n      mul\n      not\n      and\n      swap1\n      dup4\n      0xffffffffffffffffffffffffffffffffffffffff\n      and\n      mul\n      or\n      swap1\n      sstore\n      pop\n      0x80\n      dup3\n      add\n      mload\n      dup2\n      0x03\n      add\n      swap1\n      dup1\n      mload\n      swap1\n      0x20\n      add\n      swap1\n      tag_121\n      swap3\n      swap2\n      swap1\n      tag_70\n      jump\t// in\n    tag_121:\n      pop\n      swap1\n      pop\n      pop\n        /* \"Control.sol\":2304:2316  currentOwner */\n      dup1\n        /* \"Control.sol\":2273:2281  products */\n      0x02\n        /* \"Control.sol\":2273:2290  products[tokenId] */\n      0x00\n        /* \"Control.sol\":2282:2289  tokenId */\n      dup6\n        /* \"Control.sol\":2273:2290  products[tokenId] */\n      dup2\n      mstore\n      0x20\n      add\n      swap1\n      dup2\n      mstore\n      0x20\n      add\n      0x00\n      keccak256\n        /* \"Control.sol\":2273:2298  products[tokenId].history */\n      0x03\n      add\n        /* \"Control.sol\":2299:2300  0 */\n      0x00\n        /* \"Control.sol\":2273:2301  products[tokenId].history[0] */\n      dup2\n      sload\n      dup2\n      lt\n      tag_122\n      jumpi\n      tag_123\n      tag_73\n      jump\t// in\n    tag_123:\n    tag_122:\n      swap1\n      0x00\n      mstore\n      keccak256(0x00, 0x20)\n      add\n      0x00\n        /* \"Control.sol\":2273:2316  products[tokenId].history[0] = currentOwner */\n      0x0100\n      exp\n      dup2\n      sload\n      dup2\n      0xffffffffffffffffffffffffffffffffffffffff\n      mul\n      not\n      and\n      swap1\n      dup4\n      0xffffffffffffffffffffffffffffffffffffffff\n      and\n      mul\n      or\n      swap1\n      sstore\n      pop\n        /* \"Control.sol\":2334:2382  ProductRegistered(tokenId, qrCode, currentOwner) */\n      0xd810998a0248808a33b20218e71759cb2ec1a182b398350ad606d742587c012c\n        /* \"Control.sol\":2352:2359  tokenId */\n      dup4\n        /* \"Control.sol\":2361:2367  qrCode */\n      dup4\n        /* \"Control.sol\":2369:2381  currentOwner */\n      dup4\n        /* \"Control.sol\":2334:2382  ProductRegistered(tokenId, qrCode, currentOwner) */\n      mload(0x40)\n      tag_125\n      swap4\n      swap3\n      swap2\n      swap1\n      tag_126\n      jump\t// in\n    tag_125:\n      mload(0x40)\n      dup1\n      swap2\n      sub\n      swap1\n      log1\n        /* \"Control.sol\":1873:2390  {... */\n      pop\n        /* \"Control.sol\":1792:2390  function register(uint256 tokenId, string memory qrCode) public onlyManufacturer {... */\n      pop\n      pop\n      jump\t// out\n        /* \"Control.sol\":2641:2844  function getHistory(uint256 tokenId) public view returns (address[] memory) {... */\n    tag_44:\n        /* \"Control.sol\":2699:2715  address[] memory */\n      0x60\n        /* \"Control.sol\":2765:2766  0 */\n      0x00\n        /* \"Control.sol\":2736:2744  products */\n      0x02\n        /* \"Control.sol\":2736:2753  products[tokenId] */\n      0x00\n        /* \"Control.sol\":2745:2752  tokenId */\n      dup5\n        /* \"Control.sol\":2736:2753  products[tokenId] */\n      dup2\n      mstore\n      0x20\n      add\n      swap1\n      dup2\n      mstore\n      0x20\n      add\n      0x00\n      keccak256\n        /* \"Control.sol\":2736:2761  products[tokenId].tokenID */\n      0x00\n      add\n      sload\n        /* \"Control.sol\":2736:2766  products[tokenId].tokenID != 0 */\n      sub\n        /* \"Control.sol\":2728:2793  require(products[tokenId].tokenID != 0, \"Product not registered\") */\n      tag_128\n      jumpi\n      mload(0x40)\n      0x08c379a000000000000000000000000000000000000000000000000000000000\n      dup2\n      mstore\n      0x04\n      add\n      tag_129\n      swap1\n      tag_97\n      jump\t// in\n    tag_129:\n      mload(0x40)\n      dup1\n      swap2\n      sub\n      swap1\n      revert\n    tag_128:\n        /* \"Control.sol\":2811:2819  products */\n      0x02\n        /* \"Control.sol\":2811:2828  products[tokenId] */\n      0x00\n        /* \"Control.sol\":2820:2827  tokenId */\n      dup4\n        /* \"Control.sol\":2811:2828  products[tokenId] */\n      dup2\n      mstore\n      0x20\n      add\n      swap1\n      dup2\n      mstore\n      0x20\n      add\n      0x00\n      keccak256\n        /* \"Control.sol\":2811:2836  products[tokenId].history */\n      0x03\n      add\n        /* \"Control.sol\":2804:2836  return products[tokenId].history */\n      dup1\n      sload\n      dup1\n      0x20\n      mul\n      0x20\n      add\n      mload(0x40)\n      swap1\n      dup2\n      add\n      0x40\n      mstore\n      dup1\n      swap3\n      swap2\n      swap1\n      dup2\n      dup2\n      mstore\n      0x20\n      add\n      dup3\n      dup1\n      sload\n      dup1\n      iszero\n      tag_130\n      jumpi\n      0x20\n      mul\n      dup3\n      add\n      swap2\n      swap1\n      0x00\n      mstore\n      keccak256(0x00, 0x20)\n      swap1\n    tag_131:\n      dup2\n      0x00\n      swap1\n      sload\n      swap1\n      0x0100\n      exp\n      swap1\n      div\n      0xffffffffffffffffffffffffffffffffffffffff\n      and\n      0xffffffffffffffffffffffffffffffffffffffff\n      and\n      dup2\n      mstore\n      0x20\n      add\n      swap1\n      0x01\n      add\n      swap1\n      dup1\n      dup4\n      gt\n      tag_131\n      jumpi\n    tag_130:\n      pop\n      pop\n      pop\n      pop\n      pop\n      swap1\n      pop\n        /* \"Control.sol\":2641:2844  function getHistory(uint256 tokenId) public view returns (address[] memory) {... */\n      swap2\n      swap1\n      pop\n      jump\t// out\n        /* \"Control.sol\":194:225  ISimpleMint public mintContract */\n    tag_48:\n      0x00\n      dup1\n      sload\n      swap1\n      0x0100\n      exp\n      swap1\n      div\n      0xffffffffffffffffffffffffffffffffffffffff\n      and\n      dup2\n      jump\t// out\n        /* \"Control.sol\":482:533  mapping(address => bool) public authorisedVerifiers */\n    tag_53:\n      mstore(0x20, 0x03)\n      dup1\n      0x00\n      mstore\n      keccak256(0x00, 0x40)\n      0x00\n      swap2\n      pop\n      sload\n      swap1\n      0x0100\n      exp\n      swap1\n      div\n      0xff\n      and\n      dup2\n      jump\t// out\n    tag_70:\n      dup3\n      dup1\n      sload\n      dup3\n      dup3\n      sstore\n      swap1\n      0x00\n      mstore\n      keccak256(0x00, 0x20)\n      swap1\n      dup2\n      add\n      swap3\n      dup3\n      iszero\n      tag_132\n      jumpi\n      swap2\n      0x20\n      mul\n      dup3\n      add\n    tag_133:\n      dup3\n      dup2\n      gt\n      iszero\n      tag_134\n      jumpi\n      dup3\n      mload\n      dup3\n      exp(0x0100, 0x00)\n      dup2\n      sload\n      dup2\n      0xffffffffffffffffffffffffffffffffffffffff\n      mul\n      not\n      and\n      swap1\n      dup4\n      0xffffffffffffffffffffffffffffffffffffffff\n      and\n      mul\n      or\n      swap1\n      sstore\n      pop\n      swap2\n      0x20\n      add\n      swap2\n      swap1\n      0x01\n      add\n      swap1\n      jump(tag_133)\n    tag_134:\n    tag_132:\n      pop\n      swap1\n      pop\n      tag_135\n      swap2\n      swap1\n      tag_136\n      jump\t// in\n    tag_135:\n      pop\n      swap1\n      jump\t// out\n    tag_136:\n    tag_137:\n      dup1\n      dup3\n      gt\n      iszero\n      tag_138\n      jumpi\n      0x00\n      dup2\n      0x00\n      swap1\n      sstore\n      pop\n      0x01\n      add\n      jump(tag_137)\n    tag_138:\n      pop\n      swap1\n      jump\t// out\n        /* \"#utility.yul\":7:82   */\n    tag_139:\n        /* \"#utility.yul\":40:46   */\n      0x00\n        /* \"#utility.yul\":73:75   */\n      0x40\n        /* \"#utility.yul\":67:76   */\n      mload\n        /* \"#utility.yul\":57:76   */\n      swap1\n      pop\n        /* \"#utility.yul\":7:82   */\n      swap1\n      jump\t// out\n        /* \"#utility.yul\":88:205   */\n    tag_140:\n        /* \"#utility.yul\":197:198   */\n      0x00\n        /* \"#utility.yul\":194:195   */\n      dup1\n        /* \"#utility.yul\":187:199   */\n      revert\n        /* \"#utility.yul\":211:328   */\n    tag_141:\n        /* \"#utility.yul\":320:321   */\n      0x00\n        /* \"#utility.yul\":317:318   */\n      dup1\n        /* \"#utility.yul\":310:322   */\n      revert\n        /* \"#utility.yul\":334:411   */\n    tag_142:\n        /* \"#utility.yul\":371:378   */\n      0x00\n        /* \"#utility.yul\":400:405   */\n      dup2\n        /* \"#utility.yul\":389:405   */\n      swap1\n      pop\n        /* \"#utility.yul\":334:411   */\n      swap2\n      swap1\n      pop\n      jump\t// out\n        /* \"#utility.yul\":417:539   */\n    tag_143:\n        /* \"#utility.yul\":490:514   */\n      tag_214\n        /* \"#utility.yul\":508:513   */\n      dup2\n        /* \"#utility.yul\":490:514   */\n      tag_142\n      jump\t// in\n    tag_214:\n        /* \"#utility.yul\":483:488   */\n      dup2\n        /* \"#utility.yul\":480:515   */\n      eq\n        /* \"#utility.yul\":470:533   */\n      tag_215\n      jumpi\n        /* \"#utility.yul\":529:530   */\n      0x00\n        /* \"#utility.yul\":526:527   */\n      dup1\n        /* \"#utility.yul\":519:531   */\n      revert\n        /* \"#utility.yul\":470:533   */\n    tag_215:\n        /* \"#utility.yul\":417:539   */\n      pop\n      jump\t// out\n        /* \"#utility.yul\":545:684   */\n    tag_144:\n        /* \"#utility.yul\":591:596   */\n      0x00\n        /* \"#utility.yul\":629:635   */\n      dup2\n        /* \"#utility.yul\":616:636   */\n      calldataload\n        /* \"#utility.yul\":607:636   */\n      swap1\n      pop\n        /* \"#utility.yul\":645:678   */\n      tag_217\n        /* \"#utility.yul\":672:677   */\n      dup2\n        /* \"#utility.yul\":645:678   */\n      tag_143\n      jump\t// in\n    tag_217:\n        /* \"#utility.yul\":545:684   */\n      swap3\n      swap2\n      pop\n      pop\n      jump\t// out\n        /* \"#utility.yul\":690:816   */\n    tag_145:\n        /* \"#utility.yul\":727:734   */\n      0x00\n        /* \"#utility.yul\":767:809   */\n      0xffffffffffffffffffffffffffffffffffffffff\n        /* \"#utility.yul\":760:765   */\n      dup3\n        /* \"#utility.yul\":756:810   */\n      and\n        /* \"#utility.yul\":745:810   */\n      swap1\n      pop\n        /* \"#utility.yul\":690:816   */\n      swap2\n      swap1\n      pop\n      jump\t// out\n        /* \"#utility.yul\":822:918   */\n    tag_146:\n        /* \"#utility.yul\":859:866   */\n      0x00\n        /* \"#utility.yul\":888:912   */\n      tag_220\n        /* \"#utility.yul\":906:911   */\n      dup3\n        /* \"#utility.yul\":888:912   */\n      tag_145\n      jump\t// in\n    tag_220:\n        /* \"#utility.yul\":877:912   */\n      swap1\n      pop\n        /* \"#utility.yul\":822:918   */\n      swap2\n      swap1\n      pop\n      jump\t// out\n        /* \"#utility.yul\":924:1046   */\n    tag_147:\n        /* \"#utility.yul\":997:1021   */\n      tag_222\n        /* \"#utility.yul\":1015:1020   */\n      dup2\n        /* \"#utility.yul\":997:1021   */\n      tag_146\n      jump\t// in\n    tag_222:\n        /* \"#utility.yul\":990:995   */\n      dup2\n        /* \"#utility.yul\":987:1022   */\n      eq\n        /* \"#utility.yul\":977:1040   */\n      tag_223\n      jumpi\n        /* \"#utility.yul\":1036:1037   */\n      0x00\n        /* \"#utility.yul\":1033:1034   */\n      dup1\n        /* \"#utility.yul\":1026:1038   */\n      revert\n        /* \"#utility.yul\":977:1040   */\n    tag_223:\n        /* \"#utility.yul\":924:1046   */\n      pop\n      jump\t// out\n        /* \"#utility.yul\":1052:1191   */\n    tag_148:\n        /* \"#utility.yul\":1098:1103   */\n      0x00\n        /* \"#utility.yul\":1136:1142   */\n      dup2\n        /* \"#utility.yul\":1123:1143   */\n      calldataload\n        /* \"#utility.yul\":1114:1143   */\n      swap1\n      pop\n        /* \"#utility.yul\":1152:1185   */\n      tag_225\n        /* \"#utility.yul\":1179:1184   */\n      dup2\n        /* \"#utility.yul\":1152:1185   */\n      tag_147\n      jump\t// in\n    tag_225:\n        /* \"#utility.yul\":1052:1191   */\n      swap3\n      swap2\n      pop\n      pop\n      jump\t// out\n        /* \"#utility.yul\":1197:1671   */\n    tag_16:\n        /* \"#utility.yul\":1265:1271   */\n      0x00\n        /* \"#utility.yul\":1273:1279   */\n      dup1\n        /* \"#utility.yul\":1322:1324   */\n      0x40\n        /* \"#utility.yul\":1310:1319   */\n      dup4\n        /* \"#utility.yul\":1301:1308   */\n      dup6\n        /* \"#utility.yul\":1297:1320   */\n      sub\n        /* \"#utility.yul\":1293:1325   */\n      slt\n        /* \"#utility.yul\":1290:1409   */\n      iszero\n      tag_227\n      jumpi\n        /* \"#utility.yul\":1328:1407   */\n      tag_228\n      tag_140\n      jump\t// in\n    tag_228:\n        /* \"#utility.yul\":1290:1409   */\n    tag_227:\n        /* \"#utility.yul\":1448:1449   */\n      0x00\n        /* \"#utility.yul\":1473:1526   */\n      tag_229\n        /* \"#utility.yul\":1518:1525   */\n      dup6\n        /* \"#utility.yul\":1509:1515   */\n      dup3\n        /* \"#utility.yul\":1498:1507   */\n      dup7\n        /* \"#utility.yul\":1494:1516   */\n      add\n        /* \"#utility.yul\":1473:1526   */\n      tag_144\n      jump\t// in\n    tag_229:\n        /* \"#utility.yul\":1463:1526   */\n      swap3\n      pop\n        /* \"#utility.yul\":1419:1536   */\n      pop\n        /* \"#utility.yul\":1575:1577   */\n      0x20\n        /* \"#utility.yul\":1601:1654   */\n      tag_230\n        /* \"#utility.yul\":1646:1653   */\n      dup6\n        /* \"#utility.yul\":1637:1643   */\n      dup3\n        /* \"#utility.yul\":1626:1635   */\n      dup7\n        /* \"#utility.yul\":1622:1644   */\n      add\n        /* \"#utility.yul\":1601:1654   */\n      tag_148\n      jump\t// in\n    tag_230:\n        /* \"#utility.yul\":1591:1654   */\n      swap2\n      pop\n        /* \"#utility.yul\":1546:1664   */\n      pop\n        /* \"#utility.yul\":1197:1671   */\n      swap3\n      pop\n      swap3\n      swap1\n      pop\n      jump\t// out\n        /* \"#utility.yul\":1677:1795   */\n    tag_149:\n        /* \"#utility.yul\":1764:1788   */\n      tag_232\n        /* \"#utility.yul\":1782:1787   */\n      dup2\n        /* \"#utility.yul\":1764:1788   */\n      tag_146\n      jump\t// in\n    tag_232:\n        /* \"#utility.yul\":1759:1762   */\n      dup3\n        /* \"#utility.yul\":1752:1789   */\n      mstore\n        /* \"#utility.yul\":1677:1795   */\n      pop\n      pop\n      jump\t// out\n        /* \"#utility.yul\":1801:2023   */\n    tag_24:\n        /* \"#utility.yul\":1894:1898   */\n      0x00\n        /* \"#utility.yul\":1932:1934   */\n      0x20\n        /* \"#utility.yul\":1921:1930   */\n      dup3\n        /* \"#utility.yul\":1917:1935   */\n      add\n        /* \"#utility.yul\":1909:1935   */\n      swap1\n      pop\n        /* \"#utility.yul\":1945:2016   */\n      tag_234\n        /* \"#utility.yul\":2013:2014   */\n      0x00\n        /* \"#utility.yul\":2002:2011   */\n      dup4\n        /* \"#utility.yul\":1998:2015   */\n      add\n        /* \"#utility.yul\":1989:1995   */\n      dup5\n        /* \"#utility.yul\":1945:2016   */\n      tag_149\n      jump\t// in\n    tag_234:\n        /* \"#utility.yul\":1801:2023   */\n      swap3\n      swap2\n      pop\n      pop\n      jump\t// out\n        /* \"#utility.yul\":2029:2358   */\n    tag_27:\n        /* \"#utility.yul\":2088:2094   */\n      0x00\n        /* \"#utility.yul\":2137:2139   */\n      0x20\n        /* \"#utility.yul\":2125:2134   */\n      dup3\n        /* \"#utility.yul\":2116:2123   */\n      dup5\n        /* \"#utility.yul\":2112:2135   */\n      sub\n        /* \"#utility.yul\":2108:2140   */\n      slt\n        /* \"#utility.yul\":2105:2224   */\n      iszero\n      tag_236\n      jumpi\n        /* \"#utility.yul\":2143:2222   */\n      tag_237\n      tag_140\n      jump\t// in\n    tag_237:\n        /* \"#utility.yul\":2105:2224   */\n    tag_236:\n        /* \"#utility.yul\":2263:2264   */\n      0x00\n        /* \"#utility.yul\":2288:2341   */\n      tag_238\n        /* \"#utility.yul\":2333:2340   */\n      dup5\n        /* \"#utility.yul\":2324:2330   */\n      dup3\n        /* \"#utility.yul\":2313:2322   */\n      dup6\n        /* \"#utility.yul\":2309:2331   */\n      add\n        /* \"#utility.yul\":2288:2341   */\n      tag_144\n      jump\t// in\n    tag_238:\n        /* \"#utility.yul\":2278:2341   */\n      swap2\n      pop\n        /* \"#utility.yul\":2234:2351   */\n      pop\n        /* \"#utility.yul\":2029:2358   */\n      swap3\n      swap2\n      pop\n      pop\n      jump\t// out\n        /* \"#utility.yul\":2364:2482   */\n    tag_150:\n        /* \"#utility.yul\":2451:2475   */\n      tag_240\n        /* \"#utility.yul\":2469:2474   */\n      dup2\n        /* \"#utility.yul\":2451:2475   */\n      tag_142\n      jump\t// in\n    tag_240:\n        /* \"#utility.yul\":2446:2449   */\n      dup3\n        /* \"#utility.yul\":2439:2476   */\n      mstore\n        /* \"#utility.yul\":2364:2482   */\n      pop\n      pop\n      jump\t// out\n        /* \"#utility.yul\":2488:2587   */\n    tag_151:\n        /* \"#utility.yul\":2540:2546   */\n      0x00\n        /* \"#utility.yul\":2574:2579   */\n      dup2\n        /* \"#utility.yul\":2568:2580   */\n      mload\n        /* \"#utility.yul\":2558:2580   */\n      swap1\n      pop\n        /* \"#utility.yul\":2488:2587   */\n      swap2\n      swap1\n      pop\n      jump\t// out\n        /* \"#utility.yul\":2593:2762   */\n    tag_152:\n        /* \"#utility.yul\":2677:2688   */\n      0x00\n        /* \"#utility.yul\":2711:2717   */\n      dup3\n        /* \"#utility.yul\":2706:2709   */\n      dup3\n        /* \"#utility.yul\":2699:2718   */\n      mstore\n        /* \"#utility.yul\":2751:2755   */\n      0x20\n        /* \"#utility.yul\":2746:2749   */\n      dup3\n        /* \"#utility.yul\":2742:2756   */\n      add\n        /* \"#utility.yul\":2727:2756   */\n      swap1\n      pop\n        /* \"#utility.yul\":2593:2762   */\n      swap3\n      swap2\n      pop\n      pop\n      jump\t// out\n        /* \"#utility.yul\":2768:2907   */\n    tag_153:\n        /* \"#utility.yul\":2857:2863   */\n      dup3\n        /* \"#utility.yul\":2852:2855   */\n      dup2\n        /* \"#utility.yul\":2847:2850   */\n      dup4\n        /* \"#utility.yul\":2841:2864   */\n      mcopy\n        /* \"#utility.yul\":2898:2899   */\n      0x00\n        /* \"#utility.yul\":2889:2895   */\n      dup4\n        /* \"#utility.yul\":2884:2887   */\n      dup4\n        /* \"#utility.yul\":2880:2896   */\n      add\n        /* \"#utility.yul\":2873:2900   */\n      mstore\n        /* \"#utility.yul\":2768:2907   */\n      pop\n      pop\n      pop\n      jump\t// out\n        /* \"#utility.yul\":2913:3015   */\n    tag_154:\n        /* \"#utility.yul\":2954:2960   */\n      0x00\n        /* \"#utility.yul\":3005:3007   */\n      0x1f\n        /* \"#utility.yul\":3001:3008   */\n      not\n        /* \"#utility.yul\":2996:2998   */\n      0x1f\n        /* \"#utility.yul\":2989:2994   */\n      dup4\n        /* \"#utility.yul\":2985:2999   */\n      add\n        /* \"#utility.yul\":2981:3009   */\n      and\n        /* \"#utility.yul\":2971:3009   */\n      swap1\n      pop\n        /* \"#utility.yul\":2913:3015   */\n      swap2\n      swap1\n      pop\n      jump\t// out\n        /* \"#utility.yul\":3021:3398   */\n    tag_155:\n        /* \"#utility.yul\":3109:3112   */\n      0x00\n        /* \"#utility.yul\":3137:3176   */\n      tag_246\n        /* \"#utility.yul\":3170:3175   */\n      dup3\n        /* \"#utility.yul\":3137:3176   */\n      tag_151\n      jump\t// in\n    tag_246:\n        /* \"#utility.yul\":3192:3263   */\n      tag_247\n        /* \"#utility.yul\":3256:3262   */\n      dup2\n        /* \"#utility.yul\":3251:3254   */\n      dup6\n        /* \"#utility.yul\":3192:3263   */\n      tag_152\n      jump\t// in\n    tag_247:\n        /* \"#utility.yul\":3185:3263   */\n      swap4\n      pop\n        /* \"#utility.yul\":3272:3337   */\n      tag_248\n        /* \"#utility.yul\":3330:3336   */\n      dup2\n        /* \"#utility.yul\":3325:3328   */\n      dup6\n        /* \"#utility.yul\":3318:3322   */\n      0x20\n        /* \"#utility.yul\":3311:3316   */\n      dup7\n        /* \"#utility.yul\":3307:3323   */\n      add\n        /* \"#utility.yul\":3272:3337   */\n      tag_153\n      jump\t// in\n    tag_248:\n        /* \"#utility.yul\":3362:3391   */\n      tag_249\n        /* \"#utility.yul\":3384:3390   */\n      dup2\n        /* \"#utility.yul\":3362:3391   */\n      tag_154\n      jump\t// in\n    tag_249:\n        /* \"#utility.yul\":3357:3360   */\n      dup5\n        /* \"#utility.yul\":3353:3392   */\n      add\n        /* \"#utility.yul\":3346:3392   */\n      swap2\n      pop\n        /* \"#utility.yul\":3113:3398   */\n      pop\n        /* \"#utility.yul\":3021:3398   */\n      swap3\n      swap2\n      pop\n      pop\n      jump\t// out\n        /* \"#utility.yul\":3404:3494   */\n    tag_156:\n        /* \"#utility.yul\":3438:3445   */\n      0x00\n        /* \"#utility.yul\":3481:3486   */\n      dup2\n        /* \"#utility.yul\":3474:3487   */\n      iszero\n        /* \"#utility.yul\":3467:3488   */\n      iszero\n        /* \"#utility.yul\":3456:3488   */\n      swap1\n      pop\n        /* \"#utility.yul\":3404:3494   */\n      swap2\n      swap1\n      pop\n      jump\t// out\n        /* \"#utility.yul\":3500:3609   */\n    tag_157:\n        /* \"#utility.yul\":3581:3602   */\n      tag_252\n        /* \"#utility.yul\":3596:3601   */\n      dup2\n        /* \"#utility.yul\":3581:3602   */\n      tag_156\n      jump\t// in\n    tag_252:\n        /* \"#utility.yul\":3576:3579   */\n      dup3\n        /* \"#utility.yul\":3569:3603   */\n      mstore\n        /* \"#utility.yul\":3500:3609   */\n      pop\n      pop\n      jump\t// out\n        /* \"#utility.yul\":3615:4247   */\n    tag_30:\n        /* \"#utility.yul\":3806:3810   */\n      0x00\n        /* \"#utility.yul\":3844:3847   */\n      0x80\n        /* \"#utility.yul\":3833:3842   */\n      dup3\n        /* \"#utility.yul\":3829:3848   */\n      add\n        /* \"#utility.yul\":3821:3848   */\n      swap1\n      pop\n        /* \"#utility.yul\":3858:3929   */\n      tag_254\n        /* \"#utility.yul\":3926:3927   */\n      0x00\n        /* \"#utility.yul\":3915:3924   */\n      dup4\n        /* \"#utility.yul\":3911:3928   */\n      add\n        /* \"#utility.yul\":3902:3908   */\n      dup8\n        /* \"#utility.yul\":3858:3929   */\n      tag_150\n      jump\t// in\n    tag_254:\n        /* \"#utility.yul\":3976:3985   */\n      dup2\n        /* \"#utility.yul\":3970:3974   */\n      dup2\n        /* \"#utility.yul\":3966:3986   */\n      sub\n        /* \"#utility.yul\":3961:3963   */\n      0x20\n        /* \"#utility.yul\":3950:3959   */\n      dup4\n        /* \"#utility.yul\":3946:3964   */\n      add\n        /* \"#utility.yul\":3939:3987   */\n      mstore\n        /* \"#utility.yul\":4004:4082   */\n      tag_255\n        /* \"#utility.yul\":4077:4081   */\n      dup2\n        /* \"#utility.yul\":4068:4074   */\n      dup7\n        /* \"#utility.yul\":4004:4082   */\n      tag_155\n      jump\t// in\n    tag_255:\n        /* \"#utility.yul\":3996:4082   */\n      swap1\n      pop\n        /* \"#utility.yul\":4092:4158   */\n      tag_256\n        /* \"#utility.yul\":4154:4156   */\n      0x40\n        /* \"#utility.yul\":4143:4152   */\n      dup4\n        /* \"#utility.yul\":4139:4157   */\n      add\n        /* \"#utility.yul\":4130:4136   */\n      dup6\n        /* \"#utility.yul\":4092:4158   */\n      tag_157\n      jump\t// in\n    tag_256:\n        /* \"#utility.yul\":4168:4240   */\n      tag_257\n        /* \"#utility.yul\":4236:4238   */\n      0x60\n        /* \"#utility.yul\":4225:4234   */\n      dup4\n        /* \"#utility.yul\":4221:4239   */\n      add\n        /* \"#utility.yul\":4212:4218   */\n      dup5\n        /* \"#utility.yul\":4168:4240   */\n      tag_149\n      jump\t// in\n    tag_257:\n        /* \"#utility.yul\":3615:4247   */\n      swap6\n      swap5\n      pop\n      pop\n      pop\n      pop\n      pop\n      jump\t// out\n        /* \"#utility.yul\":4253:4582   */\n    tag_36:\n        /* \"#utility.yul\":4312:4318   */\n      0x00\n        /* \"#utility.yul\":4361:4363   */\n      0x20\n        /* \"#utility.yul\":4349:4358   */\n      dup3\n        /* \"#utility.yul\":4340:4347   */\n      dup5\n        /* \"#utility.yul\":4336:4359   */\n      sub\n        /* \"#utility.yul\":4332:4364   */\n      slt\n        /* \"#utility.yul\":4329:4448   */\n      iszero\n      tag_259\n      jumpi\n        /* \"#utility.yul\":4367:4446   */\n      tag_260\n      tag_140\n      jump\t// in\n    tag_260:\n        /* \"#utility.yul\":4329:4448   */\n    tag_259:\n        /* \"#utility.yul\":4487:4488   */\n      0x00\n        /* \"#utility.yul\":4512:4565   */\n      tag_261\n        /* \"#utility.yul\":4557:4564   */\n      dup5\n        /* \"#utility.yul\":4548:4554   */\n      dup3\n        /* \"#utility.yul\":4537:4546   */\n      dup6\n        /* \"#utility.yul\":4533:4555   */\n      add\n        /* \"#utility.yul\":4512:4565   */\n      tag_148\n      jump\t// in\n    tag_261:\n        /* \"#utility.yul\":4502:4565   */\n      swap2\n      pop\n        /* \"#utility.yul\":4458:4575   */\n      pop\n        /* \"#utility.yul\":4253:4582   */\n      swap3\n      swap2\n      pop\n      pop\n      jump\t// out\n        /* \"#utility.yul\":4588:4705   */\n    tag_158:\n        /* \"#utility.yul\":4697:4698   */\n      0x00\n        /* \"#utility.yul\":4694:4695   */\n      dup1\n        /* \"#utility.yul\":4687:4699   */\n      revert\n        /* \"#utility.yul\":4711:4828   */\n    tag_159:\n        /* \"#utility.yul\":4820:4821   */\n      0x00\n        /* \"#utility.yul\":4817:4818   */\n      dup1\n        /* \"#utility.yul\":4810:4822   */\n      revert\n        /* \"#utility.yul\":4834:5014   */\n    tag_65:\n        /* \"#utility.yul\":4882:4959   */\n      0x4e487b7100000000000000000000000000000000000000000000000000000000\n        /* \"#utility.yul\":4879:4880   */\n      0x00\n        /* \"#utility.yul\":4872:4960   */\n      mstore\n        /* \"#utility.yul\":4979:4983   */\n      0x41\n        /* \"#utility.yul\":4976:4977   */\n      0x04\n        /* \"#utility.yul\":4969:4984   */\n      mstore\n        /* \"#utility.yul\":5003:5007   */\n      0x24\n        /* \"#utility.yul\":5000:5001   */\n      0x00\n        /* \"#utility.yul\":4993:5008   */\n      revert\n        /* \"#utility.yul\":5020:5301   */\n    tag_160:\n        /* \"#utility.yul\":5103:5130   */\n      tag_266\n        /* \"#utility.yul\":5125:5129   */\n      dup3\n        /* \"#utility.yul\":5103:5130   */\n      tag_154\n      jump\t// in\n    tag_266:\n        /* \"#utility.yul\":5095:5101   */\n      dup2\n        /* \"#utility.yul\":5091:5131   */\n      add\n        /* \"#utility.yul\":5233:5239   */\n      dup2\n        /* \"#utility.yul\":5221:5231   */\n      dup2\n        /* \"#utility.yul\":5218:5240   */\n      lt\n        /* \"#utility.yul\":5197:5215   */\n      0xffffffffffffffff\n        /* \"#utility.yul\":5185:5195   */\n      dup3\n        /* \"#utility.yul\":5182:5216   */\n      gt\n        /* \"#utility.yul\":5179:5241   */\n      or\n        /* \"#utility.yul\":5176:5264   */\n      iszero\n      tag_267\n      jumpi\n        /* \"#utility.yul\":5244:5262   */\n      tag_268\n      tag_65\n      jump\t// in\n    tag_268:\n        /* \"#utility.yul\":5176:5264   */\n    tag_267:\n        /* \"#utility.yul\":5284:5294   */\n      dup1\n        /* \"#utility.yul\":5280:5282   */\n      0x40\n        /* \"#utility.yul\":5273:5295   */\n      mstore\n        /* \"#utility.yul\":5063:5301   */\n      pop\n        /* \"#utility.yul\":5020:5301   */\n      pop\n      pop\n      jump\t// out\n        /* \"#utility.yul\":5307:5436   */\n    tag_161:\n        /* \"#utility.yul\":5341:5347   */\n      0x00\n        /* \"#utility.yul\":5368:5388   */\n      tag_270\n      tag_139\n      jump\t// in\n    tag_270:\n        /* \"#utility.yul\":5358:5388   */\n      swap1\n      pop\n        /* \"#utility.yul\":5397:5430   */\n      tag_271\n        /* \"#utility.yul\":5425:5429   */\n      dup3\n        /* \"#utility.yul\":5417:5423   */\n      dup3\n        /* \"#utility.yul\":5397:5430   */\n      tag_160\n      jump\t// in\n    tag_271:\n        /* \"#utility.yul\":5307:5436   */\n      swap2\n      swap1\n      pop\n      jump\t// out\n        /* \"#utility.yul\":5442:5750   */\n    tag_162:\n        /* \"#utility.yul\":5504:5508   */\n      0x00\n        /* \"#utility.yul\":5594:5612   */\n      0xffffffffffffffff\n        /* \"#utility.yul\":5586:5592   */\n      dup3\n        /* \"#utility.yul\":5583:5613   */\n      gt\n        /* \"#utility.yul\":5580:5636   */\n      iszero\n      tag_273\n      jumpi\n        /* \"#utility.yul\":5616:5634   */\n      tag_274\n      tag_65\n      jump\t// in\n    tag_274:\n        /* \"#utility.yul\":5580:5636   */\n    tag_273:\n        /* \"#utility.yul\":5654:5683   */\n      tag_275\n        /* \"#utility.yul\":5676:5682   */\n      dup3\n        /* \"#utility.yul\":5654:5683   */\n      tag_154\n      jump\t// in\n    tag_275:\n        /* \"#utility.yul\":5646:5683   */\n      swap1\n      pop\n        /* \"#utility.yul\":5738:5742   */\n      0x20\n        /* \"#utility.yul\":5732:5736   */\n      dup2\n        /* \"#utility.yul\":5728:5743   */\n      add\n        /* \"#utility.yul\":5720:5743   */\n      swap1\n      pop\n        /* \"#utility.yul\":5442:5750   */\n      swap2\n      swap1\n      pop\n      jump\t// out\n        /* \"#utility.yul\":5756:5904   */\n    tag_163:\n        /* \"#utility.yul\":5854:5860   */\n      dup3\n        /* \"#utility.yul\":5849:5852   */\n      dup2\n        /* \"#utility.yul\":5844:5847   */\n      dup4\n        /* \"#utility.yul\":5831:5861   */\n      calldatacopy\n        /* \"#utility.yul\":5895:5896   */\n      0x00\n        /* \"#utility.yul\":5886:5892   */\n      dup4\n        /* \"#utility.yul\":5881:5884   */\n      dup4\n        /* \"#utility.yul\":5877:5893   */\n      add\n        /* \"#utility.yul\":5870:5897   */\n      mstore\n        /* \"#utility.yul\":5756:5904   */\n      pop\n      pop\n      pop\n      jump\t// out\n        /* \"#utility.yul\":5910:6335   */\n    tag_164:\n        /* \"#utility.yul\":5988:5993   */\n      0x00\n        /* \"#utility.yul\":6013:6079   */\n      tag_278\n        /* \"#utility.yul\":6029:6078   */\n      tag_279\n        /* \"#utility.yul\":6071:6077   */\n      dup5\n        /* \"#utility.yul\":6029:6078   */\n      tag_162\n      jump\t// in\n    tag_279:\n        /* \"#utility.yul\":6013:6079   */\n      tag_161\n      jump\t// in\n    tag_278:\n        /* \"#utility.yul\":6004:6079   */\n      swap1\n      pop\n        /* \"#utility.yul\":6102:6108   */\n      dup3\n        /* \"#utility.yul\":6095:6100   */\n      dup2\n        /* \"#utility.yul\":6088:6109   */\n      mstore\n        /* \"#utility.yul\":6140:6144   */\n      0x20\n        /* \"#utility.yul\":6133:6138   */\n      dup2\n        /* \"#utility.yul\":6129:6145   */\n      add\n        /* \"#utility.yul\":6178:6181   */\n      dup5\n        /* \"#utility.yul\":6169:6175   */\n      dup5\n        /* \"#utility.yul\":6164:6167   */\n      dup5\n        /* \"#utility.yul\":6160:6176   */\n      add\n        /* \"#utility.yul\":6157:6182   */\n      gt\n        /* \"#utility.yul\":6154:6266   */\n      iszero\n      tag_280\n      jumpi\n        /* \"#utility.yul\":6185:6264   */\n      tag_281\n      tag_159\n      jump\t// in\n    tag_281:\n        /* \"#utility.yul\":6154:6266   */\n    tag_280:\n        /* \"#utility.yul\":6275:6329   */\n      tag_282\n        /* \"#utility.yul\":6322:6328   */\n      dup5\n        /* \"#utility.yul\":6317:6320   */\n      dup3\n        /* \"#utility.yul\":6312:6315   */\n      dup6\n        /* \"#utility.yul\":6275:6329   */\n      tag_163\n      jump\t// in\n    tag_282:\n        /* \"#utility.yul\":5994:6335   */\n      pop\n        /* \"#utility.yul\":5910:6335   */\n      swap4\n      swap3\n      pop\n      pop\n      pop\n      jump\t// out\n        /* \"#utility.yul\":6355:6695   */\n    tag_165:\n        /* \"#utility.yul\":6411:6416   */\n      0x00\n        /* \"#utility.yul\":6460:6463   */\n      dup3\n        /* \"#utility.yul\":6453:6457   */\n      0x1f\n        /* \"#utility.yul\":6445:6451   */\n      dup4\n        /* \"#utility.yul\":6441:6458   */\n      add\n        /* \"#utility.yul\":6437:6464   */\n      slt\n        /* \"#utility.yul\":6427:6549   */\n      tag_284\n      jumpi\n        /* \"#utility.yul\":6468:6547   */\n      tag_285\n      tag_158\n      jump\t// in\n    tag_285:\n        /* \"#utility.yul\":6427:6549   */\n    tag_284:\n        /* \"#utility.yul\":6585:6591   */\n      dup2\n        /* \"#utility.yul\":6572:6592   */\n      calldataload\n        /* \"#utility.yul\":6610:6689   */\n      tag_286\n        /* \"#utility.yul\":6685:6688   */\n      dup5\n        /* \"#utility.yul\":6677:6683   */\n      dup3\n        /* \"#utility.yul\":6670:6674   */\n      0x20\n        /* \"#utility.yul\":6662:6668   */\n      dup7\n        /* \"#utility.yul\":6658:6675   */\n      add\n        /* \"#utility.yul\":6610:6689   */\n      tag_164\n      jump\t// in\n    tag_286:\n        /* \"#utility.yul\":6601:6689   */\n      swap2\n      pop\n        /* \"#utility.yul\":6417:6695   */\n      pop\n        /* \"#utility.yul\":6355:6695   */\n      swap3\n      swap2\n      pop\n      pop\n      jump\t// out\n        /* \"#utility.yul\":6701:7355   */\n    tag_40:\n        /* \"#utility.yul\":6779:6785   */\n      0x00\n        /* \"#utility.yul\":6787:6793   */\n      dup1\n        /* \"#utility.yul\":6836:6838   */\n      0x40\n        /* \"#utility.yul\":6824:6833   */\n      dup4\n        /* \"#utility.yul\":6815:6822   */\n      dup6\n        /* \"#utility.yul\":6811:6834   */\n      sub\n        /* \"#utility.yul\":6807:6839   */\n      slt\n        /* \"#utility.yul\":6804:6923   */\n      iszero\n      tag_288\n      jumpi\n        /* \"#utility.yul\":6842:6921   */\n      tag_289\n      tag_140\n      jump\t// in\n    tag_289:\n        /* \"#utility.yul\":6804:6923   */\n    tag_288:\n        /* \"#utility.yul\":6962:6963   */\n      0x00\n        /* \"#utility.yul\":6987:7040   */\n      tag_290\n        /* \"#utility.yul\":7032:7039   */\n      dup6\n        /* \"#utility.yul\":7023:7029   */\n      dup3\n        /* \"#utility.yul\":7012:7021   */\n      dup7\n        /* \"#utility.yul\":7008:7030   */\n      add\n        /* \"#utility.yul\":6987:7040   */\n      tag_144\n      jump\t// in\n    tag_290:\n        /* \"#utility.yul\":6977:7040   */\n      swap3\n      pop\n        /* \"#utility.yul\":6933:7050   */\n      pop\n        /* \"#utility.yul\":7117:7119   */\n      0x20\n        /* \"#utility.yul\":7106:7115   */\n      dup4\n        /* \"#utility.yul\":7102:7120   */\n      add\n        /* \"#utility.yul\":7089:7121   */\n      calldataload\n        /* \"#utility.yul\":7148:7166   */\n      0xffffffffffffffff\n        /* \"#utility.yul\":7140:7146   */\n      dup2\n        /* \"#utility.yul\":7137:7167   */\n      gt\n        /* \"#utility.yul\":7134:7251   */\n      iszero\n      tag_291\n      jumpi\n        /* \"#utility.yul\":7170:7249   */\n      tag_292\n      tag_141\n      jump\t// in\n    tag_292:\n        /* \"#utility.yul\":7134:7251   */\n    tag_291:\n        /* \"#utility.yul\":7275:7338   */\n      tag_293\n        /* \"#utility.yul\":7330:7337   */\n      dup6\n        /* \"#utility.yul\":7321:7327   */\n      dup3\n        /* \"#utility.yul\":7310:7319   */\n      dup7\n        /* \"#utility.yul\":7306:7328   */\n      add\n        /* \"#utility.yul\":7275:7338   */\n      tag_165\n      jump\t// in\n    tag_293:\n        /* \"#utility.yul\":7265:7338   */\n      swap2\n      pop\n        /* \"#utility.yul\":7060:7348   */\n      pop\n        /* \"#utility.yul\":6701:7355   */\n      swap3\n      pop\n      swap3\n      swap1\n      pop\n      jump\t// out\n        /* \"#utility.yul\":7361:7475   */\n    tag_166:\n        /* \"#utility.yul\":7428:7434   */\n      0x00\n        /* \"#utility.yul\":7462:7467   */\n      dup2\n        /* \"#utility.yul\":7456:7468   */\n      mload\n        /* \"#utility.yul\":7446:7468   */\n      swap1\n      pop\n        /* \"#utility.yul\":7361:7475   */\n      swap2\n      swap1\n      pop\n      jump\t// out\n        /* \"#utility.yul\":7481:7665   */\n    tag_167:\n        /* \"#utility.yul\":7580:7591   */\n      0x00\n        /* \"#utility.yul\":7614:7620   */\n      dup3\n        /* \"#utility.yul\":7609:7612   */\n      dup3\n        /* \"#utility.yul\":7602:7621   */\n      mstore\n        /* \"#utility.yul\":7654:7658   */\n      0x20\n        /* \"#utility.yul\":7649:7652   */\n      dup3\n        /* \"#utility.yul\":7645:7659   */\n      add\n        /* \"#utility.yul\":7630:7659   */\n      swap1\n      pop\n        /* \"#utility.yul\":7481:7665   */\n      swap3\n      swap2\n      pop\n      pop\n      jump\t// out\n        /* \"#utility.yul\":7671:7803   */\n    tag_168:\n        /* \"#utility.yul\":7738:7742   */\n      0x00\n        /* \"#utility.yul\":7761:7764   */\n      dup2\n        /* \"#utility.yul\":7753:7764   */\n      swap1\n      pop\n        /* \"#utility.yul\":7791:7795   */\n      0x20\n        /* \"#utility.yul\":7786:7789   */\n      dup3\n        /* \"#utility.yul\":7782:7796   */\n      add\n        /* \"#utility.yul\":7774:7796   */\n      swap1\n      pop\n        /* \"#utility.yul\":7671:7803   */\n      swap2\n      swap1\n      pop\n      jump\t// out\n        /* \"#utility.yul\":7809:7917   */\n    tag_169:\n        /* \"#utility.yul\":7886:7910   */\n      tag_298\n        /* \"#utility.yul\":7904:7909   */\n      dup2\n        /* \"#utility.yul\":7886:7910   */\n      tag_146\n      jump\t// in\n    tag_298:\n        /* \"#utility.yul\":7881:7884   */\n      dup3\n        /* \"#utility.yul\":7874:7911   */\n      mstore\n        /* \"#utility.yul\":7809:7917   */\n      pop\n      pop\n      jump\t// out\n        /* \"#utility.yul\":7923:8102   */\n    tag_170:\n        /* \"#utility.yul\":7992:8002   */\n      0x00\n        /* \"#utility.yul\":8013:8059   */\n      tag_300\n        /* \"#utility.yul\":8055:8058   */\n      dup4\n        /* \"#utility.yul\":8047:8053   */\n      dup4\n        /* \"#utility.yul\":8013:8059   */\n      tag_169\n      jump\t// in\n    tag_300:\n        /* \"#utility.yul\":8091:8095   */\n      0x20\n        /* \"#utility.yul\":8086:8089   */\n      dup4\n        /* \"#utility.yul\":8082:8096   */\n      add\n        /* \"#utility.yul\":8068:8096   */\n      swap1\n      pop\n        /* \"#utility.yul\":7923:8102   */\n      swap3\n      swap2\n      pop\n      pop\n      jump\t// out\n        /* \"#utility.yul\":8108:8221   */\n    tag_171:\n        /* \"#utility.yul\":8178:8182   */\n      0x00\n        /* \"#utility.yul\":8210:8214   */\n      0x20\n        /* \"#utility.yul\":8205:8208   */\n      dup3\n        /* \"#utility.yul\":8201:8215   */\n      add\n        /* \"#utility.yul\":8193:8215   */\n      swap1\n      pop\n        /* \"#utility.yul\":8108:8221   */\n      swap2\n      swap1\n      pop\n      jump\t// out\n        /* \"#utility.yul\":8257:8989   */\n    tag_172:\n        /* \"#utility.yul\":8376:8379   */\n      0x00\n        /* \"#utility.yul\":8405:8459   */\n      tag_303\n        /* \"#utility.yul\":8453:8458   */\n      dup3\n        /* \"#utility.yul\":8405:8459   */\n      tag_166\n      jump\t// in\n    tag_303:\n        /* \"#utility.yul\":8475:8561   */\n      tag_304\n        /* \"#utility.yul\":8554:8560   */\n      dup2\n        /* \"#utility.yul\":8549:8552   */\n      dup6\n        /* \"#utility.yul\":8475:8561   */\n      tag_167\n      jump\t// in\n    tag_304:\n        /* \"#utility.yul\":8468:8561   */\n      swap4\n      pop\n        /* \"#utility.yul\":8585:8641   */\n      tag_305\n        /* \"#utility.yul\":8635:8640   */\n      dup4\n        /* \"#utility.yul\":8585:8641   */\n      tag_168\n      jump\t// in\n    tag_305:\n        /* \"#utility.yul\":8664:8671   */\n      dup1\n        /* \"#utility.yul\":8695:8696   */\n      0x00\n        /* \"#utility.yul\":8680:8964   */\n    tag_306:\n        /* \"#utility.yul\":8705:8711   */\n      dup4\n        /* \"#utility.yul\":8702:8703   */\n      dup2\n        /* \"#utility.yul\":8699:8712   */\n      lt\n        /* \"#utility.yul\":8680:8964   */\n      iszero\n      tag_308\n      jumpi\n        /* \"#utility.yul\":8781:8787   */\n      dup2\n        /* \"#utility.yul\":8775:8788   */\n      mload\n        /* \"#utility.yul\":8808:8871   */\n      tag_309\n        /* \"#utility.yul\":8867:8870   */\n      dup9\n        /* \"#utility.yul\":8852:8865   */\n      dup3\n        /* \"#utility.yul\":8808:8871   */\n      tag_170\n      jump\t// in\n    tag_309:\n        /* \"#utility.yul\":8801:8871   */\n      swap8\n      pop\n        /* \"#utility.yul\":8894:8954   */\n      tag_310\n        /* \"#utility.yul\":8947:8953   */\n      dup4\n        /* \"#utility.yul\":8894:8954   */\n      tag_171\n      jump\t// in\n    tag_310:\n        /* \"#utility.yul\":8884:8954   */\n      swap3\n      pop\n        /* \"#utility.yul\":8740:8964   */\n      pop\n        /* \"#utility.yul\":8727:8728   */\n      0x01\n        /* \"#utility.yul\":8724:8725   */\n      dup2\n        /* \"#utility.yul\":8720:8729   */\n      add\n        /* \"#utility.yul\":8715:8729   */\n      swap1\n      pop\n        /* \"#utility.yul\":8680:8964   */\n      jump(tag_306)\n    tag_308:\n        /* \"#utility.yul\":8684:8698   */\n      pop\n        /* \"#utility.yul\":8980:8983   */\n      dup6\n        /* \"#utility.yul\":8973:8983   */\n      swap4\n      pop\n        /* \"#utility.yul\":8381:8989   */\n      pop\n      pop\n      pop\n        /* \"#utility.yul\":8257:8989   */\n      swap3\n      swap2\n      pop\n      pop\n      jump\t// out\n        /* \"#utility.yul\":8995:9368   */\n    tag_46:\n        /* \"#utility.yul\":9138:9142   */\n      0x00\n        /* \"#utility.yul\":9176:9178   */\n      0x20\n        /* \"#utility.yul\":9165:9174   */\n      dup3\n        /* \"#utility.yul\":9161:9179   */\n      add\n        /* \"#utility.yul\":9153:9179   */\n      swap1\n      pop\n        /* \"#utility.yul\":9225:9234   */\n      dup2\n        /* \"#utility.yul\":9219:9223   */\n      dup2\n        /* \"#utility.yul\":9215:9235   */\n      sub\n        /* \"#utility.yul\":9211:9212   */\n      0x00\n        /* \"#utility.yul\":9200:9209   */\n      dup4\n        /* \"#utility.yul\":9196:9213   */\n      add\n        /* \"#utility.yul\":9189:9236   */\n      mstore\n        /* \"#utility.yul\":9253:9361   */\n      tag_312\n        /* \"#utility.yul\":9356:9360   */\n      dup2\n        /* \"#utility.yul\":9347:9353   */\n      dup5\n        /* \"#utility.yul\":9253:9361   */\n      tag_172\n      jump\t// in\n    tag_312:\n        /* \"#utility.yul\":9245:9361   */\n      swap1\n      pop\n        /* \"#utility.yul\":8995:9368   */\n      swap3\n      swap2\n      pop\n      pop\n      jump\t// out\n        /* \"#utility.yul\":9374:9434   */\n    tag_173:\n        /* \"#utility.yul\":9402:9405   */\n      0x00\n        /* \"#utility.yul\":9423:9428   */\n      dup2\n        /* \"#utility.yul\":9416:9428   */\n      swap1\n      pop\n        /* \"#utility.yul\":9374:9434   */\n      swap2\n      swap1\n      pop\n      jump\t// out\n        /* \"#utility.yul\":9440:9582   */\n    tag_174:\n        /* \"#utility.yul\":9490:9499   */\n      0x00\n        /* \"#utility.yul\":9523:9576   */\n      tag_315\n        /* \"#utility.yul\":9541:9575   */\n      tag_316\n        /* \"#utility.yul\":9550:9574   */\n      tag_317\n        /* \"#utility.yul\":9568:9573   */\n      dup5\n        /* \"#utility.yul\":9550:9574   */\n      tag_145\n      jump\t// in\n    tag_317:\n        /* \"#utility.yul\":9541:9575   */\n      tag_173\n      jump\t// in\n    tag_316:\n        /* \"#utility.yul\":9523:9576   */\n      tag_145\n      jump\t// in\n    tag_315:\n        /* \"#utility.yul\":9510:9576   */\n      swap1\n      pop\n        /* \"#utility.yul\":9440:9582   */\n      swap2\n      swap1\n      pop\n      jump\t// out\n        /* \"#utility.yul\":9588:9714   */\n    tag_175:\n        /* \"#utility.yul\":9638:9647   */\n      0x00\n        /* \"#utility.yul\":9671:9708   */\n      tag_319\n        /* \"#utility.yul\":9702:9707   */\n      dup3\n        /* \"#utility.yul\":9671:9708   */\n      tag_174\n      jump\t// in\n    tag_319:\n        /* \"#utility.yul\":9658:9708   */\n      swap1\n      pop\n        /* \"#utility.yul\":9588:9714   */\n      swap2\n      swap1\n      pop\n      jump\t// out\n        /* \"#utility.yul\":9720:9863   */\n    tag_176:\n        /* \"#utility.yul\":9787:9796   */\n      0x00\n        /* \"#utility.yul\":9820:9857   */\n      tag_321\n        /* \"#utility.yul\":9851:9856   */\n      dup3\n        /* \"#utility.yul\":9820:9857   */\n      tag_175\n      jump\t// in\n    tag_321:\n        /* \"#utility.yul\":9807:9857   */\n      swap1\n      pop\n        /* \"#utility.yul\":9720:9863   */\n      swap2\n      swap1\n      pop\n      jump\t// out\n        /* \"#utility.yul\":9869:10034   */\n    tag_177:\n        /* \"#utility.yul\":9973:10027   */\n      tag_323\n        /* \"#utility.yul\":10021:10026   */\n      dup2\n        /* \"#utility.yul\":9973:10027   */\n      tag_176\n      jump\t// in\n    tag_323:\n        /* \"#utility.yul\":9968:9971   */\n      dup3\n        /* \"#utility.yul\":9961:10028   */\n      mstore\n        /* \"#utility.yul\":9869:10034   */\n      pop\n      pop\n      jump\t// out\n        /* \"#utility.yul\":10040:10296   */\n    tag_50:\n        /* \"#utility.yul\":10150:10154   */\n      0x00\n        /* \"#utility.yul\":10188:10190   */\n      0x20\n        /* \"#utility.yul\":10177:10186   */\n      dup3\n        /* \"#utility.yul\":10173:10191   */\n      add\n        /* \"#utility.yul\":10165:10191   */\n      swap1\n      pop\n        /* \"#utility.yul\":10201:10289   */\n      tag_325\n        /* \"#utility.yul\":10286:10287   */\n      0x00\n        /* \"#utility.yul\":10275:10284   */\n      dup4\n        /* \"#utility.yul\":10271:10288   */\n      add\n        /* \"#utility.yul\":10262:10268   */\n      dup5\n        /* \"#utility.yul\":10201:10289   */\n      tag_177\n      jump\t// in\n    tag_325:\n        /* \"#utility.yul\":10040:10296   */\n      swap3\n      swap2\n      pop\n      pop\n      jump\t// out\n        /* \"#utility.yul\":10302:10512   */\n    tag_55:\n        /* \"#utility.yul\":10389:10393   */\n      0x00\n        /* \"#utility.yul\":10427:10429   */\n      0x20\n        /* \"#utility.yul\":10416:10425   */\n      dup3\n        /* \"#utility.yul\":10412:10430   */\n      add\n        /* \"#utility.yul\":10404:10430   */\n      swap1\n      pop\n        /* \"#utility.yul\":10440:10505   */\n      tag_327\n        /* \"#utility.yul\":10502:10503   */\n      0x00\n        /* \"#utility.yul\":10491:10500   */\n      dup4\n        /* \"#utility.yul\":10487:10504   */\n      add\n        /* \"#utility.yul\":10478:10484   */\n      dup5\n        /* \"#utility.yul\":10440:10505   */\n      tag_157\n      jump\t// in\n    tag_327:\n        /* \"#utility.yul\":10302:10512   */\n      swap3\n      swap2\n      pop\n      pop\n      jump\t// out\n        /* \"#utility.yul\":10518:10695   */\n    tag_178:\n        /* \"#utility.yul\":10658:10687   */\n      0x4f6e6c79206d696e7420636f6e74726163742063616e2063616c6c0000000000\n        /* \"#utility.yul\":10654:10655   */\n      0x00\n        /* \"#utility.yul\":10646:10652   */\n      dup3\n        /* \"#utility.yul\":10642:10656   */\n      add\n        /* \"#utility.yul\":10635:10688   */\n      mstore\n        /* \"#utility.yul\":10518:10695   */\n      pop\n      jump\t// out\n        /* \"#utility.yul\":10701:11067   */\n    tag_179:\n        /* \"#utility.yul\":10843:10846   */\n      0x00\n        /* \"#utility.yul\":10864:10931   */\n      tag_330\n        /* \"#utility.yul\":10928:10930   */\n      0x1b\n        /* \"#utility.yul\":10923:10926   */\n      dup4\n        /* \"#utility.yul\":10864:10931   */\n      tag_152\n      jump\t// in\n    tag_330:\n        /* \"#utility.yul\":10857:10931   */\n      swap2\n      pop\n        /* \"#utility.yul\":10940:11033   */\n      tag_331\n        /* \"#utility.yul\":11029:11032   */\n      dup3\n        /* \"#utility.yul\":10940:11033   */\n      tag_178\n      jump\t// in\n    tag_331:\n        /* \"#utility.yul\":11058:11060   */\n      0x20\n        /* \"#utility.yul\":11053:11056   */\n      dup3\n        /* \"#utility.yul\":11049:11061   */\n      add\n        /* \"#utility.yul\":11042:11061   */\n      swap1\n      pop\n        /* \"#utility.yul\":10701:11067   */\n      swap2\n      swap1\n      pop\n      jump\t// out\n        /* \"#utility.yul\":11073:11492   */\n    tag_59:\n        /* \"#utility.yul\":11239:11243   */\n      0x00\n        /* \"#utility.yul\":11277:11279   */\n      0x20\n        /* \"#utility.yul\":11266:11275   */\n      dup3\n        /* \"#utility.yul\":11262:11280   */\n      add\n        /* \"#utility.yul\":11254:11280   */\n      swap1\n      pop\n        /* \"#utility.yul\":11326:11335   */\n      dup2\n        /* \"#utility.yul\":11320:11324   */\n      dup2\n        /* \"#utility.yul\":11316:11336   */\n      sub\n        /* \"#utility.yul\":11312:11313   */\n      0x00\n        /* \"#utility.yul\":11301:11310   */\n      dup4\n        /* \"#utility.yul\":11297:11314   */\n      add\n        /* \"#utility.yul\":11290:11337   */\n      mstore\n        /* \"#utility.yul\":11354:11485   */\n      tag_333\n        /* \"#utility.yul\":11480:11484   */\n      dup2\n        /* \"#utility.yul\":11354:11485   */\n      tag_179\n      jump\t// in\n    tag_333:\n        /* \"#utility.yul\":11346:11485   */\n      swap1\n      pop\n        /* \"#utility.yul\":11073:11492   */\n      swap2\n      swap1\n      pop\n      jump\t// out\n        /* \"#utility.yul\":11498:11666   */\n    tag_180:\n        /* \"#utility.yul\":11638:11658   */\n      0x416c726561647920726567697374657265640000000000000000000000000000\n        /* \"#utility.yul\":11634:11635   */\n      0x00\n        /* \"#utility.yul\":11626:11632   */\n      dup3\n        /* \"#utility.yul\":11622:11636   */\n      add\n        /* \"#utility.yul\":11615:11659   */\n      mstore\n        /* \"#utility.yul\":11498:11666   */\n      pop\n      jump\t// out\n        /* \"#utility.yul\":11672:12038   */\n    tag_181:\n        /* \"#utility.yul\":11814:11817   */\n      0x00\n        /* \"#utility.yul\":11835:11902   */\n      tag_336\n        /* \"#utility.yul\":11899:11901   */\n      0x12\n        /* \"#utility.yul\":11894:11897   */\n      dup4\n        /* \"#utility.yul\":11835:11902   */\n      tag_152\n      jump\t// in\n    tag_336:\n        /* \"#utility.yul\":11828:11902   */\n      swap2\n      pop\n        /* \"#utility.yul\":11911:12004   */\n      tag_337\n        /* \"#utility.yul\":12000:12003   */\n      dup3\n        /* \"#utility.yul\":11911:12004   */\n      tag_180\n      jump\t// in\n    tag_337:\n        /* \"#utility.yul\":12029:12031   */\n      0x20\n        /* \"#utility.yul\":12024:12027   */\n      dup3\n        /* \"#utility.yul\":12020:12032   */\n      add\n        /* \"#utility.yul\":12013:12032   */\n      swap1\n      pop\n        /* \"#utility.yul\":11672:12038   */\n      swap2\n      swap1\n      pop\n      jump\t// out\n        /* \"#utility.yul\":12044:12463   */\n    tag_62:\n        /* \"#utility.yul\":12210:12214   */\n      0x00\n        /* \"#utility.yul\":12248:12250   */\n      0x20\n        /* \"#utility.yul\":12237:12246   */\n      dup3\n        /* \"#utility.yul\":12233:12251   */\n      add\n        /* \"#utility.yul\":12225:12251   */\n      swap1\n      pop\n        /* \"#utility.yul\":12297:12306   */\n      dup2\n        /* \"#utility.yul\":12291:12295   */\n      dup2\n        /* \"#utility.yul\":12287:12307   */\n      sub\n        /* \"#utility.yul\":12283:12284   */\n      0x00\n        /* \"#utility.yul\":12272:12281   */\n      dup4\n        /* \"#utility.yul\":12268:12285   */\n      add\n        /* \"#utility.yul\":12261:12308   */\n      mstore\n        /* \"#utility.yul\":12325:12456   */\n      tag_339\n        /* \"#utility.yul\":12451:12455   */\n      dup2\n        /* \"#utility.yul\":12325:12456   */\n      tag_181\n      jump\t// in\n    tag_339:\n        /* \"#utility.yul\":12317:12456   */\n      swap1\n      pop\n        /* \"#utility.yul\":12044:12463   */\n      swap2\n      swap1\n      pop\n      jump\t// out\n        /* \"#utility.yul\":12469:12649   */\n    tag_182:\n        /* \"#utility.yul\":12517:12594   */\n      0x4e487b7100000000000000000000000000000000000000000000000000000000\n        /* \"#utility.yul\":12514:12515   */\n      0x00\n        /* \"#utility.yul\":12507:12595   */\n      mstore\n        /* \"#utility.yul\":12614:12618   */\n      0x22\n        /* \"#utility.yul\":12611:12612   */\n      0x04\n        /* \"#utility.yul\":12604:12619   */\n      mstore\n        /* \"#utility.yul\":12638:12642   */\n      0x24\n        /* \"#utility.yul\":12635:12636   */\n      0x00\n        /* \"#utility.yul\":12628:12643   */\n      revert\n        /* \"#utility.yul\":12655:12975   */\n    tag_85:\n        /* \"#utility.yul\":12699:12705   */\n      0x00\n        /* \"#utility.yul\":12736:12737   */\n      0x02\n        /* \"#utility.yul\":12730:12734   */\n      dup3\n        /* \"#utility.yul\":12726:12738   */\n      div\n        /* \"#utility.yul\":12716:12738   */\n      swap1\n      pop\n        /* \"#utility.yul\":12783:12784   */\n      0x01\n        /* \"#utility.yul\":12777:12781   */\n      dup3\n        /* \"#utility.yul\":12773:12785   */\n      and\n        /* \"#utility.yul\":12804:12822   */\n      dup1\n        /* \"#utility.yul\":12794:12875   */\n      tag_342\n      jumpi\n        /* \"#utility.yul\":12860:12864   */\n      0x7f\n        /* \"#utility.yul\":12852:12858   */\n      dup3\n        /* \"#utility.yul\":12848:12865   */\n      and\n        /* \"#utility.yul\":12838:12865   */\n      swap2\n      pop\n        /* \"#utility.yul\":12794:12875   */\n    tag_342:\n        /* \"#utility.yul\":12922:12924   */\n      0x20\n        /* \"#utility.yul\":12914:12920   */\n      dup3\n        /* \"#utility.yul\":12911:12925   */\n      lt\n        /* \"#utility.yul\":12891:12909   */\n      dup2\n        /* \"#utility.yul\":12888:12926   */\n      sub\n        /* \"#utility.yul\":12885:12969   */\n      tag_343\n      jumpi\n        /* \"#utility.yul\":12941:12959   */\n      tag_344\n      tag_182\n      jump\t// in\n    tag_344:\n        /* \"#utility.yul\":12885:12969   */\n    tag_343:\n        /* \"#utility.yul\":12706:12975   */\n      pop\n        /* \"#utility.yul\":12655:12975   */\n      swap2\n      swap1\n      pop\n      jump\t// out\n        /* \"#utility.yul\":12981:13122   */\n    tag_183:\n        /* \"#utility.yul\":13030:13034   */\n      0x00\n        /* \"#utility.yul\":13053:13056   */\n      dup2\n        /* \"#utility.yul\":13045:13056   */\n      swap1\n      pop\n        /* \"#utility.yul\":13076:13079   */\n      dup2\n        /* \"#utility.yul\":13073:13074   */\n      0x00\n        /* \"#utility.yul\":13066:13080   */\n      mstore\n        /* \"#utility.yul\":13110:13114   */\n      0x20\n        /* \"#utility.yul\":13107:13108   */\n      0x00\n        /* \"#utility.yul\":13097:13115   */\n      keccak256\n        /* \"#utility.yul\":13089:13115   */\n      swap1\n      pop\n        /* \"#utility.yul\":12981:13122   */\n      swap2\n      swap1\n      pop\n      jump\t// out\n        /* \"#utility.yul\":13128:13221   */\n    tag_184:\n        /* \"#utility.yul\":13165:13171   */\n      0x00\n        /* \"#utility.yul\":13212:13214   */\n      0x20\n        /* \"#utility.yul\":13207:13209   */\n      0x1f\n        /* \"#utility.yul\":13200:13205   */\n      dup4\n        /* \"#utility.yul\":13196:13210   */\n      add\n        /* \"#utility.yul\":13192:13215   */\n      div\n        /* \"#utility.yul\":13182:13215   */\n      swap1\n      pop\n        /* \"#utility.yul\":13128:13221   */\n      swap2\n      swap1\n      pop\n      jump\t// out\n        /* \"#utility.yul\":13227:13334   */\n    tag_185:\n        /* \"#utility.yul\":13271:13279   */\n      0x00\n        /* \"#utility.yul\":13321:13326   */\n      dup3\n        /* \"#utility.yul\":13315:13319   */\n      dup3\n        /* \"#utility.yul\":13311:13327   */\n      shl\n        /* \"#utility.yul\":13290:13327   */\n      swap1\n      pop\n        /* \"#utility.yul\":13227:13334   */\n      swap3\n      swap2\n      pop\n      pop\n      jump\t// out\n        /* \"#utility.yul\":13340:13733   */\n    tag_186:\n        /* \"#utility.yul\":13409:13415   */\n      0x00\n        /* \"#utility.yul\":13459:13460   */\n      0x08\n        /* \"#utility.yul\":13447:13457   */\n      dup4\n        /* \"#utility.yul\":13443:13461   */\n      mul\n        /* \"#utility.yul\":13482:13579   */\n      tag_349\n        /* \"#utility.yul\":13512:13578   */\n      0xffffffffffffffffffffffffffffffffffffffffffffffffffffffffffffffff\n        /* \"#utility.yul\":13501:13510   */\n      dup3\n        /* \"#utility.yul\":13482:13579   */\n      tag_185\n      jump\t// in\n    tag_349:\n        /* \"#utility.yul\":13600:13639   */\n      tag_350\n        /* \"#utility.yul\":13630:13638   */\n      dup7\n        /* \"#utility.yul\":13619:13628   */\n      dup4\n        /* \"#utility.yul\":13600:13639   */\n      tag_185\n      jump\t// in\n    tag_350:\n        /* \"#utility.yul\":13588:13639   */\n      swap6\n      pop\n        /* \"#utility.yul\":13672:13676   */\n      dup1\n        /* \"#utility.yul\":13668:13677   */\n      not\n        /* \"#utility.yul\":13661:13666   */\n      dup5\n        /* \"#utility.yul\":13657:13678   */\n      and\n        /* \"#utility.yul\":13648:13678   */\n      swap4\n      pop\n        /* \"#utility.yul\":13721:13725   */\n      dup1\n        /* \"#utility.yul\":13711:13719   */\n      dup7\n        /* \"#utility.yul\":13707:13726   */\n      and\n        /* \"#utility.yul\":13700:13705   */\n      dup5\n        /* \"#utility.yul\":13697:13727   */\n      or\n        /* \"#utility.yul\":13687:13727   */\n      swap3\n      pop\n        /* \"#utility.yul\":13416:13733   */\n      pop\n      pop\n        /* \"#utility.yul\":13340:13733   */\n      swap4\n      swap3\n      pop\n      pop\n      pop\n      jump\t// out\n        /* \"#utility.yul\":13739:13881   */\n    tag_187:\n        /* \"#utility.yul\":13789:13798   */\n      0x00\n        /* \"#utility.yul\":13822:13875   */\n      tag_352\n        /* \"#utility.yul\":13840:13874   */\n      tag_353\n        /* \"#utility.yul\":13849:13873   */\n      tag_354\n        /* \"#utility.yul\":13867:13872   */\n      dup5\n        /* \"#utility.yul\":13849:13873   */\n      tag_142\n      jump\t// in\n    tag_354:\n        /* \"#utility.yul\":13840:13874   */\n      tag_173\n      jump\t// in\n    tag_353:\n        /* \"#utility.yul\":13822:13875   */\n      tag_142\n      jump\t// in\n    tag_352:\n        /* \"#utility.yul\":13809:13875   */\n      swap1\n      pop\n        /* \"#utility.yul\":13739:13881   */\n      swap2\n      swap1\n      pop\n      jump\t// out\n        /* \"#utility.yul\":13887:13962   */\n    tag_188:\n        /* \"#utility.yul\":13930:13933   */\n      0x00\n        /* \"#utility.yul\":13951:13956   */\n      dup2\n        /* \"#utility.yul\":13944:13956   */\n      swap1\n      pop\n        /* \"#utility.yul\":13887:13962   */\n      swap2\n      swap1\n      pop\n      jump\t// out\n        /* \"#utility.yul\":13968:14237   */\n    tag_189:\n        /* \"#utility.yul\":14078:14117   */\n      tag_357\n        /* \"#utility.yul\":14109:14116   */\n      dup4\n        /* \"#utility.yul\":14078:14117   */\n      tag_187\n      jump\t// in\n    tag_357:\n        /* \"#utility.yul\":14139:14230   */\n      tag_358\n        /* \"#utility.yul\":14188:14229   */\n      tag_359\n        /* \"#utility.yul\":14212:14228   */\n      dup3\n        /* \"#utility.yul\":14188:14229   */\n      tag_188\n      jump\t// in\n    tag_359:\n        /* \"#utility.yul\":14180:14186   */\n      dup5\n        /* \"#utility.yul\":14173:14177   */\n      dup5\n        /* \"#utility.yul\":14167:14178   */\n      sload\n        /* \"#utility.yul\":14139:14230   */\n      tag_186\n      jump\t// in\n    tag_358:\n        /* \"#utility.yul\":14133:14137   */\n      dup3\n        /* \"#utility.yul\":14126:14231   */\n      sstore\n        /* \"#utility.yul\":14044:14237   */\n      pop\n        /* \"#utility.yul\":13968:14237   */\n      pop\n      pop\n      pop\n      jump\t// out\n        /* \"#utility.yul\":14243:14316   */\n    tag_190:\n        /* \"#utility.yul\":14288:14291   */\n      0x00\n        /* \"#utility.yul\":14243:14316   */\n      swap1\n      jump\t// out\n        /* \"#utility.yul\":14322:14511   */\n    tag_191:\n        /* \"#utility.yul\":14399:14431   */\n      tag_362\n      tag_190\n      jump\t// in\n    tag_362:\n        /* \"#utility.yul\":14440:14505   */\n      tag_363\n        /* \"#utility.yul\":14498:14504   */\n      dup2\n        /* \"#utility.yul\":14490:14496   */\n      dup5\n        /* \"#utility.yul\":14484:14488   */\n      dup5\n        /* \"#utility.yul\":14440:14505   */\n      tag_189\n      jump\t// in\n    tag_363:\n        /* \"#utility.yul\":14375:14511   */\n      pop\n        /* \"#utility.yul\":14322:14511   */\n      pop\n      pop\n      jump\t// out\n        /* \"#utility.yul\":14517:14703   */\n    tag_192:\n        /* \"#utility.yul\":14577:14697   */\n    tag_365:\n        /* \"#utility.yul\":14594:14597   */\n      dup2\n        /* \"#utility.yul\":14587:14592   */\n      dup2\n        /* \"#utility.yul\":14584:14598   */\n      lt\n        /* \"#utility.yul\":14577:14697   */\n      iszero\n      tag_367\n      jumpi\n        /* \"#utility.yul\":14648:14687   */\n      tag_368\n        /* \"#utility.yul\":14685:14686   */\n      0x00\n        /* \"#utility.yul\":14678:14683   */\n      dup3\n        /* \"#utility.yul\":14648:14687   */\n      tag_191\n      jump\t// in\n    tag_368:\n        /* \"#utility.yul\":14621:14622   */\n      0x01\n        /* \"#utility.yul\":14614:14619   */\n      dup2\n        /* \"#utility.yul\":14610:14623   */\n      add\n        /* \"#utility.yul\":14601:14623   */\n      swap1\n      pop\n        /* \"#utility.yul\":14577:14697   */\n      jump(tag_365)\n    tag_367:\n        /* \"#utility.yul\":14517:14703   */\n      pop\n      pop\n      jump\t// out\n        /* \"#utility.yul\":14709:15252   */\n    tag_193:\n        /* \"#utility.yul\":14810:14812   */\n      0x1f\n        /* \"#utility.yul\":14805:14808   */\n      dup3\n        /* \"#utility.yul\":14802:14813   */\n      gt\n        /* \"#utility.yul\":14799:15245   */\n      iszero\n      tag_370\n      jumpi\n        /* \"#utility.yul\":14844:14882   */\n      tag_371\n        /* \"#utility.yul\":14876:14881   */\n      dup2\n        /* \"#utility.yul\":14844:14882   */\n      tag_183\n      jump\t// in\n    tag_371:\n        /* \"#utility.yul\":14928:14957   */\n      tag_372\n        /* \"#utility.yul\":14946:14956   */\n      dup5\n        /* \"#utility.yul\":14928:14957   */\n      tag_184\n      jump\t// in\n    tag_372:\n        /* \"#utility.yul\":14918:14926   */\n      dup2\n        /* \"#utility.yul\":14914:14958   */\n      add\n        /* \"#utility.yul\":15111:15113   */\n      0x20\n        /* \"#utility.yul\":15099:15109   */\n      dup6\n        /* \"#utility.yul\":15096:15114   */\n      lt\n        /* \"#utility.yul\":15093:15142   */\n      iszero\n      tag_373\n      jumpi\n        /* \"#utility.yul\":15132:15140   */\n      dup2\n        /* \"#utility.yul\":15117:15140   */\n      swap1\n      pop\n        /* \"#utility.yul\":15093:15142   */\n    tag_373:\n        /* \"#utility.yul\":15155:15235   */\n      tag_374\n        /* \"#utility.yul\":15211:15233   */\n      tag_375\n        /* \"#utility.yul\":15229:15232   */\n      dup6\n        /* \"#utility.yul\":15211:15233   */\n      tag_184\n      jump\t// in\n    tag_375:\n        /* \"#utility.yul\":15201:15209   */\n      dup4\n        /* \"#utility.yul\":15197:15234   */\n      add\n        /* \"#utility.yul\":15184:15195   */\n      dup3\n        /* \"#utility.yul\":15155:15235   */\n      tag_192\n      jump\t// in\n    tag_374:\n        /* \"#utility.yul\":14814:15245   */\n      pop\n      pop\n        /* \"#utility.yul\":14799:15245   */\n    tag_370:\n        /* \"#utility.yul\":14709:15252   */\n      pop\n      pop\n      pop\n      jump\t// out\n        /* \"#utility.yul\":15258:15375   */\n    tag_194:\n        /* \"#utility.yul\":15312:15320   */\n      0x00\n        /* \"#utility.yul\":15362:15367   */\n      dup3\n        /* \"#utility.yul\":15356:15360   */\n      dup3\n        /* \"#utility.yul\":15352:15368   */\n      shr\n        /* \"#utility.yul\":15331:15368   */\n      swap1\n      pop\n        /* \"#utility.yul\":15258:15375   */\n      swap3\n      swap2\n      pop\n      pop\n      jump\t// out\n        /* \"#utility.yul\":15381:15550   */\n    tag_195:\n        /* \"#utility.yul\":15425:15431   */\n      0x00\n        /* \"#utility.yul\":15458:15509   */\n      tag_378\n        /* \"#utility.yul\":15506:15507   */\n      0x00\n        /* \"#utility.yul\":15502:15508   */\n      not\n        /* \"#utility.yul\":15494:15499   */\n      dup5\n        /* \"#utility.yul\":15491:15492   */\n      0x08\n        /* \"#utility.yul\":15487:15500   */\n      mul\n        /* \"#utility.yul\":15458:15509   */\n      tag_194\n      jump\t// in\n    tag_378:\n        /* \"#utility.yul\":15454:15510   */\n      not\n        /* \"#utility.yul\":15539:15543   */\n      dup1\n        /* \"#utility.yul\":15533:15537   */\n      dup4\n        /* \"#utility.yul\":15529:15544   */\n      and\n        /* \"#utility.yul\":15519:15544   */\n      swap2\n      pop\n        /* \"#utility.yul\":15432:15550   */\n      pop\n        /* \"#utility.yul\":15381:15550   */\n      swap3\n      swap2\n      pop\n      pop\n      jump\t// out\n        /* \"#utility.yul\":15555:15850   */\n    tag_196:\n        /* \"#utility.yul\":15631:15635   */\n      0x00\n        /* \"#utility.yul\":15777:15806   */\n      tag_380\n        /* \"#utility.yul\":15802:15805   */\n      dup4\n        /* \"#utility.yul\":15796:15800   */\n      dup4\n        /* \"#utility.yul\":15777:15806   */\n      tag_195\n      jump\t// in\n    tag_380:\n        /* \"#utility.yul\":15769:15806   */\n      swap2\n      pop\n        /* \"#utility.yul\":15839:15842   */\n      dup3\n        /* \"#utility.yul\":15836:15837   */\n      0x02\n        /* \"#utility.yul\":15832:15843   */\n      mul\n        /* \"#utility.yul\":15826:15830   */\n      dup3\n        /* \"#utility.yul\":15823:15844   */\n      or\n        /* \"#utility.yul\":15815:15844   */\n      swap1\n      pop\n        /* \"#utility.yul\":15555:15850   */\n      swap3\n      swap2\n      pop\n      pop\n      jump\t// out\n        /* \"#utility.yul\":15855:17250   */\n    tag_68:\n        /* \"#utility.yul\":15972:16009   */\n      tag_382\n        /* \"#utility.yul\":16005:16008   */\n      dup3\n        /* \"#utility.yul\":15972:16009   */\n      tag_151\n      jump\t// in\n    tag_382:\n        /* \"#utility.yul\":16074:16092   */\n      0xffffffffffffffff\n        /* \"#utility.yul\":16066:16072   */\n      dup2\n        /* \"#utility.yul\":16063:16093   */\n      gt\n        /* \"#utility.yul\":16060:16116   */\n      iszero\n      tag_383\n      jumpi\n        /* \"#utility.yul\":16096:16114   */\n      tag_384\n      tag_65\n      jump\t// in\n    tag_384:\n        /* \"#utility.yul\":16060:16116   */\n    tag_383:\n        /* \"#utility.yul\":16140:16178   */\n      tag_385\n        /* \"#utility.yul\":16172:16176   */\n      dup3\n        /* \"#utility.yul\":16166:16177   */\n      sload\n        /* \"#utility.yul\":16140:16178   */\n      tag_85\n      jump\t// in\n    tag_385:\n        /* \"#utility.yul\":16225:16292   */\n      tag_386\n        /* \"#utility.yul\":16285:16291   */\n      dup3\n        /* \"#utility.yul\":16277:16283   */\n      dup3\n        /* \"#utility.yul\":16271:16275   */\n      dup6\n        /* \"#utility.yul\":16225:16292   */\n      tag_193\n      jump\t// in\n    tag_386:\n        /* \"#utility.yul\":16319:16320   */\n      0x00\n        /* \"#utility.yul\":16343:16347   */\n      0x20\n        /* \"#utility.yul\":16330:16347   */\n      swap1\n      pop\n        /* \"#utility.yul\":16375:16377   */\n      0x1f\n        /* \"#utility.yul\":16367:16373   */\n      dup4\n        /* \"#utility.yul\":16364:16378   */\n      gt\n        /* \"#utility.yul\":16392:16393   */\n      0x01\n        /* \"#utility.yul\":16387:17005   */\n      dup2\n      eq\n      tag_388\n      jumpi\n        /* \"#utility.yul\":17049:17050   */\n      0x00\n        /* \"#utility.yul\":17066:17072   */\n      dup5\n        /* \"#utility.yul\":17063:17140   */\n      iszero\n      tag_389\n      jumpi\n        /* \"#utility.yul\":17115:17124   */\n      dup3\n        /* \"#utility.yul\":17110:17113   */\n      dup8\n        /* \"#utility.yul\":17106:17125   */\n      add\n        /* \"#utility.yul\":17100:17126   */\n      mload\n        /* \"#utility.yul\":17091:17126   */\n      swap1\n      pop\n        /* \"#utility.yul\":17063:17140   */\n    tag_389:\n        /* \"#utility.yul\":17166:17233   */\n      tag_390\n        /* \"#utility.yul\":17226:17232   */\n      dup6\n        /* \"#utility.yul\":17219:17224   */\n      dup3\n        /* \"#utility.yul\":17166:17233   */\n      tag_196\n      jump\t// in\n    tag_390:\n        /* \"#utility.yul\":17160:17164   */\n      dup7\n        /* \"#utility.yul\":17153:17234   */\n      sstore\n        /* \"#utility.yul\":17022:17244   */\n      pop\n        /* \"#utility.yul\":16357:17244   */\n      jump(tag_387)\n        /* \"#utility.yul\":16387:17005   */\n    tag_388:\n        /* \"#utility.yul\":16439:16443   */\n      0x1f\n        /* \"#utility.yul\":16435:16444   */\n      not\n        /* \"#utility.yul\":16427:16433   */\n      dup5\n        /* \"#utility.yul\":16423:16445   */\n      and\n        /* \"#utility.yul\":16473:16510   */\n      tag_391\n        /* \"#utility.yul\":16505:16509   */\n      dup7\n        /* \"#utility.yul\":16473:16510   */\n      tag_183\n      jump\t// in\n    tag_391:\n        /* \"#utility.yul\":16532:16533   */\n      0x00\n        /* \"#utility.yul\":16546:16754   */\n    tag_392:\n        /* \"#utility.yul\":16560:16567   */\n      dup3\n        /* \"#utility.yul\":16557:16558   */\n      dup2\n        /* \"#utility.yul\":16554:16568   */\n      lt\n        /* \"#utility.yul\":16546:16754   */\n      iszero\n      tag_394\n      jumpi\n        /* \"#utility.yul\":16639:16648   */\n      dup5\n        /* \"#utility.yul\":16634:16637   */\n      dup10\n        /* \"#utility.yul\":16630:16649   */\n      add\n        /* \"#utility.yul\":16624:16650   */\n      mload\n        /* \"#utility.yul\":16616:16622   */\n      dup3\n        /* \"#utility.yul\":16609:16651   */\n      sstore\n        /* \"#utility.yul\":16690:16691   */\n      0x01\n        /* \"#utility.yul\":16682:16688   */\n      dup3\n        /* \"#utility.yul\":16678:16692   */\n      add\n        /* \"#utility.yul\":16668:16692   */\n      swap2\n      pop\n        /* \"#utility.yul\":16737:16739   */\n      0x20\n        /* \"#utility.yul\":16726:16735   */\n      dup6\n        /* \"#utility.yul\":16722:16740   */\n      add\n        /* \"#utility.yul\":16709:16740   */\n      swap5\n      pop\n        /* \"#utility.yul\":16583:16587   */\n      0x20\n        /* \"#utility.yul\":16580:16581   */\n      dup2\n        /* \"#utility.yul\":16576:16588   */\n      add\n        /* \"#utility.yul\":16571:16588   */\n      swap1\n      pop\n        /* \"#utility.yul\":16546:16754   */\n      jump(tag_392)\n    tag_394:\n        /* \"#utility.yul\":16782:16788   */\n      dup7\n        /* \"#utility.yul\":16773:16780   */\n      dup4\n        /* \"#utility.yul\":16770:16789   */\n      lt\n        /* \"#utility.yul\":16767:16946   */\n      iszero\n      tag_395\n      jumpi\n        /* \"#utility.yul\":16840:16849   */\n      dup5\n        /* \"#utility.yul\":16835:16838   */\n      dup10\n        /* \"#utility.yul\":16831:16850   */\n      add\n        /* \"#utility.yul\":16825:16851   */\n      mload\n        /* \"#utility.yul\":16883:16931   */\n      tag_396\n        /* \"#utility.yul\":16925:16929   */\n      0x1f\n        /* \"#utility.yul\":16917:16923   */\n      dup10\n        /* \"#utility.yul\":16913:16930   */\n      and\n        /* \"#utility.yul\":16902:16911   */\n      dup3\n        /* \"#utility.yul\":16883:16931   */\n      tag_195\n      jump\t// in\n    tag_396:\n        /* \"#utility.yul\":16875:16881   */\n      dup4\n        /* \"#utility.yul\":16868:16932   */\n      sstore\n        /* \"#utility.yul\":16790:16946   */\n      pop\n        /* \"#utility.yul\":16767:16946   */\n    tag_395:\n        /* \"#utility.yul\":16992:16993   */\n      0x01\n        /* \"#utility.yul\":16988:16989   */\n      0x02\n        /* \"#utility.yul\":16980:16986   */\n      dup9\n        /* \"#utility.yul\":16976:16990   */\n      mul\n        /* \"#utility.yul\":16972:16994   */\n      add\n        /* \"#utility.yul\":16966:16970   */\n      dup9\n        /* \"#utility.yul\":16959:16995   */\n      sstore\n        /* \"#utility.yul\":16394:17005   */\n      pop\n      pop\n      pop\n        /* \"#utility.yul\":16357:17244   */\n    tag_387:\n      pop\n        /* \"#utility.yul\":15947:17250   */\n      pop\n      pop\n      pop\n        /* \"#utility.yul\":15855:17250   */\n      pop\n      pop\n      jump\t// out\n        /* \"#utility.yul\":17256:17436   */\n    tag_73:\n        /* \"#utility.yul\":17304:17381   */\n      0x4e487b7100000000000000000000000000000000000000000000000000000000\n        /* \"#utility.yul\":17301:17302   */\n      0x00\n        /* \"#utility.yul\":17294:17382   */\n      mstore\n        /* \"#utility.yul\":17401:17405   */\n      0x32\n        /* \"#utility.yul\":17398:17399   */\n      0x04\n        /* \"#utility.yul\":17391:17406   */\n      mstore\n        /* \"#utility.yul\":17425:17429   */\n      0x24\n        /* \"#utility.yul\":17422:17423   */\n      0x00\n        /* \"#utility.yul\":17415:17430   */\n      revert\n        /* \"#utility.yul\":17442:17556   */\n    tag_197:\n      pop\n      jump\t// out\n        /* \"#utility.yul\":17562:17926   */\n    tag_198:\n        /* \"#utility.yul\":17704:17707   */\n      0x00\n        /* \"#utility.yul\":17725:17791   */\n      tag_400\n        /* \"#utility.yul\":17789:17790   */\n      0x00\n        /* \"#utility.yul\":17784:17787   */\n      dup4\n        /* \"#utility.yul\":17725:17791   */\n      tag_152\n      jump\t// in\n    tag_400:\n        /* \"#utility.yul\":17718:17791   */\n      swap2\n      pop\n        /* \"#utility.yul\":17800:17893   */\n      tag_401\n        /* \"#utility.yul\":17889:17892   */\n      dup3\n        /* \"#utility.yul\":17800:17893   */\n      tag_197\n      jump\t// in\n    tag_401:\n        /* \"#utility.yul\":17918:17919   */\n      0x00\n        /* \"#utility.yul\":17913:17916   */\n      dup3\n        /* \"#utility.yul\":17909:17920   */\n      add\n        /* \"#utility.yul\":17902:17920   */\n      swap1\n      pop\n        /* \"#utility.yul\":17562:17926   */\n      swap2\n      swap1\n      pop\n      jump\t// out\n        /* \"#utility.yul\":17932:18571   */\n    tag_76:\n        /* \"#utility.yul\":18154:18158   */\n      0x00\n        /* \"#utility.yul\":18192:18194   */\n      0x60\n        /* \"#utility.yul\":18181:18190   */\n      dup3\n        /* \"#utility.yul\":18177:18195   */\n      add\n        /* \"#utility.yul\":18169:18195   */\n      swap1\n      pop\n        /* \"#utility.yul\":18205:18276   */\n      tag_403\n        /* \"#utility.yul\":18273:18274   */\n      0x00\n        /* \"#utility.yul\":18262:18271   */\n      dup4\n        /* \"#utility.yul\":18258:18275   */\n      add\n        /* \"#utility.yul\":18249:18255   */\n      dup6\n        /* \"#utility.yul\":18205:18276   */\n      tag_150\n      jump\t// in\n    tag_403:\n        /* \"#utility.yul\":18323:18332   */\n      dup2\n        /* \"#utility.yul\":18317:18321   */\n      dup2\n        /* \"#utility.yul\":18313:18333   */\n      sub\n        /* \"#utility.yul\":18308:18310   */\n      0x20\n        /* \"#utility.yul\":18297:18306   */\n      dup4\n        /* \"#utility.yul\":18293:18311   */\n      add\n        /* \"#utility.yul\":18286:18334   */\n      mstore\n        /* \"#utility.yul\":18351:18482   */\n      tag_404\n        /* \"#utility.yul\":18477:18481   */\n      dup2\n        /* \"#utility.yul\":18351:18482   */\n      tag_198\n      jump\t// in\n    tag_404:\n        /* \"#utility.yul\":18343:18482   */\n      swap1\n      pop\n        /* \"#utility.yul\":18492:18564   */\n      tag_405\n        /* \"#utility.yul\":18560:18562   */\n      0x40\n        /* \"#utility.yul\":18549:18558   */\n      dup4\n        /* \"#utility.yul\":18545:18563   */\n      add\n        /* \"#utility.yul\":18536:18542   */\n      dup5\n        /* \"#utility.yul\":18492:18564   */\n      tag_149\n      jump\t// in\n    tag_405:\n        /* \"#utility.yul\":17932:18571   */\n      swap4\n      swap3\n      pop\n      pop\n      pop\n      jump\t// out\n        /* \"#utility.yul\":18577:18744   */\n    tag_199:\n        /* \"#utility.yul\":18717:18736   */\n      0x4e6f742063757272656e74206f776e6572000000000000000000000000000000\n        /* \"#utility.yul\":18713:18714   */\n      0x00\n        /* \"#utility.yul\":18705:18711   */\n      dup3\n        /* \"#utility.yul\":18701:18715   */\n      add\n        /* \"#utility.yul\":18694:18737   */\n      mstore\n        /* \"#utility.yul\":18577:18744   */\n      pop\n      jump\t// out\n        /* \"#utility.yul\":18750:19116   */\n    tag_200:\n        /* \"#utility.yul\":18892:18895   */\n      0x00\n        /* \"#utility.yul\":18913:18980   */\n      tag_408\n        /* \"#utility.yul\":18977:18979   */\n      0x11\n        /* \"#utility.yul\":18972:18975   */\n      dup4\n        /* \"#utility.yul\":18913:18980   */\n      tag_152\n      jump\t// in\n    tag_408:\n        /* \"#utility.yul\":18906:18980   */\n      swap2\n      pop\n        /* \"#utility.yul\":18989:19082   */\n      tag_409\n        /* \"#utility.yul\":19078:19081   */\n      dup3\n        /* \"#utility.yul\":18989:19082   */\n      tag_199\n      jump\t// in\n    tag_409:\n        /* \"#utility.yul\":19107:19109   */\n      0x20\n        /* \"#utility.yul\":19102:19105   */\n      dup3\n        /* \"#utility.yul\":19098:19110   */\n      add\n        /* \"#utility.yul\":19091:19110   */\n      swap1\n      pop\n        /* \"#utility.yul\":18750:19116   */\n      swap2\n      swap1\n      pop\n      jump\t// out\n        /* \"#utility.yul\":19122:19541   */\n    tag_80:\n        /* \"#utility.yul\":19288:19292   */\n      0x00\n        /* \"#utility.yul\":19326:19328   */\n      0x20\n        /* \"#utility.yul\":19315:19324   */\n      dup3\n        /* \"#utility.yul\":19311:19329   */\n      add\n        /* \"#utility.yul\":19303:19329   */\n      swap1\n      pop\n        /* \"#utility.yul\":19375:19384   */\n      dup2\n        /* \"#utility.yul\":19369:19373   */\n      dup2\n        /* \"#utility.yul\":19365:19385   */\n      sub\n        /* \"#utility.yul\":19361:19362   */\n      0x00\n        /* \"#utility.yul\":19350:19359   */\n      dup4\n        /* \"#utility.yul\":19346:19363   */\n      add\n        /* \"#utility.yul\":19339:19386   */\n      mstore\n        /* \"#utility.yul\":19403:19534   */\n      tag_411\n        /* \"#utility.yul\":19529:19533   */\n      dup2\n        /* \"#utility.yul\":19403:19534   */\n      tag_200\n      jump\t// in\n    tag_411:\n        /* \"#utility.yul\":19395:19534   */\n      swap1\n      pop\n        /* \"#utility.yul\":19122:19541   */\n      swap2\n      swap1\n      pop\n      jump\t// out\n        /* \"#utility.yul\":19547:19989   */\n    tag_83:\n        /* \"#utility.yul\":19696:19700   */\n      0x00\n        /* \"#utility.yul\":19734:19736   */\n      0x60\n        /* \"#utility.yul\":19723:19732   */\n      dup3\n        /* \"#utility.yul\":19719:19737   */\n      add\n        /* \"#utility.yul\":19711:19737   */\n      swap1\n      pop\n        /* \"#utility.yul\":19747:19818   */\n      tag_413\n        /* \"#utility.yul\":19815:19816   */\n      0x00\n        /* \"#utility.yul\":19804:19813   */\n      dup4\n        /* \"#utility.yul\":19800:19817   */\n      add\n        /* \"#utility.yul\":19791:19797   */\n      dup7\n        /* \"#utility.yul\":19747:19818   */\n      tag_150\n      jump\t// in\n    tag_413:\n        /* \"#utility.yul\":19828:19900   */\n      tag_414\n        /* \"#utility.yul\":19896:19898   */\n      0x20\n        /* \"#utility.yul\":19885:19894   */\n      dup4\n        /* \"#utility.yul\":19881:19899   */\n      add\n        /* \"#utility.yul\":19872:19878   */\n      dup6\n        /* \"#utility.yul\":19828:19900   */\n      tag_149\n      jump\t// in\n    tag_414:\n        /* \"#utility.yul\":19910:19982   */\n      tag_415\n        /* \"#utility.yul\":19978:19980   */\n      0x40\n        /* \"#utility.yul\":19967:19976   */\n      dup4\n        /* \"#utility.yul\":19963:19981   */\n      add\n        /* \"#utility.yul\":19954:19960   */\n      dup5\n        /* \"#utility.yul\":19910:19982   */\n      tag_149\n      jump\t// in\n    tag_415:\n        /* \"#utility.yul\":19547:19989   */\n      swap5\n      swap4\n      pop\n      pop\n      pop\n      pop\n      jump\t// out\n        /* \"#utility.yul\":19995:20169   */\n    tag_201:\n        /* \"#utility.yul\":20135:20161   */\n      0x4e6f7420617574686f726973656420746f207665726966790000000000000000\n        /* \"#utility.yul\":20131:20132   */\n      0x00\n        /* \"#utility.yul\":20123:20129   */\n      dup3\n        /* \"#utility.yul\":20119:20133   */\n      add\n        /* \"#utility.yul\":20112:20162   */\n      mstore\n        /* \"#utility.yul\":19995:20169   */\n      pop\n      jump\t// out\n        /* \"#utility.yul\":20175:20541   */\n    tag_202:\n        /* \"#utility.yul\":20317:20320   */\n      0x00\n        /* \"#utility.yul\":20338:20405   */\n      tag_418\n        /* \"#utility.yul\":20402:20404   */\n      0x18\n        /* \"#utility.yul\":20397:20400   */\n      dup4\n        /* \"#utility.yul\":20338:20405   */\n      tag_152\n      jump\t// in\n    tag_418:\n        /* \"#utility.yul\":20331:20405   */\n      swap2\n      pop\n        /* \"#utility.yul\":20414:20507   */\n      tag_419\n        /* \"#utility.yul\":20503:20506   */\n      dup3\n        /* \"#utility.yul\":20414:20507   */\n      tag_201\n      jump\t// in\n    tag_419:\n        /* \"#utility.yul\":20532:20534   */\n      0x20\n        /* \"#utility.yul\":20527:20530   */\n      dup3\n        /* \"#utility.yul\":20523:20535   */\n      add\n        /* \"#utility.yul\":20516:20535   */\n      swap1\n      pop\n        /* \"#utility.yul\":20175:20541   */\n      swap2\n      swap1\n      pop\n      jump\t// out\n        /* \"#utility.yul\":20547:20966   */\n    tag_93:\n        /* \"#utility.yul\":20713:20717   */\n      0x00\n        /* \"#utility.yul\":20751:20753   */\n      0x20\n        /* \"#utility.yul\":20740:20749   */\n      dup3\n        /* \"#utility.yul\":20736:20754   */\n      add\n        /* \"#utility.yul\":20728:20754   */\n      swap1\n      pop\n        /* \"#utility.yul\":20800:20809   */\n      dup2\n        /* \"#utility.yul\":20794:20798   */\n      dup2\n        /* \"#utility.yul\":20790:20810   */\n      sub\n        /* \"#utility.yul\":20786:20787   */\n      0x00\n        /* \"#utility.yul\":20775:20784   */\n      dup4\n        /* \"#utility.yul\":20771:20788   */\n      add\n        /* \"#utility.yul\":20764:20811   */\n      mstore\n        /* \"#utility.yul\":20828:20959   */\n      tag_421\n        /* \"#utility.yul\":20954:20958   */\n      dup2\n        /* \"#utility.yul\":20828:20959   */\n      tag_202\n      jump\t// in\n    tag_421:\n        /* \"#utility.yul\":20820:20959   */\n      swap1\n      pop\n        /* \"#utility.yul\":20547:20966   */\n      swap2\n      swap1\n      pop\n      jump\t// out\n        /* \"#utility.yul\":20972:21144   */\n    tag_203:\n        /* \"#utility.yul\":21112:21136   */\n      0x50726f64756374206e6f74207265676973746572656400000000000000000000\n        /* \"#utility.yul\":21108:21109   */\n      0x00\n        /* \"#utility.yul\":21100:21106   */\n      dup3\n        /* \"#utility.yul\":21096:21110   */\n      add\n        /* \"#utility.yul\":21089:21137   */\n      mstore\n        /* \"#utility.yul\":20972:21144   */\n      pop\n      jump\t// out\n        /* \"#utility.yul\":21150:21516   */\n    tag_204:\n        /* \"#utility.yul\":21292:21295   */\n      0x00\n        /* \"#utility.yul\":21313:21380   */\n      tag_424\n        /* \"#utility.yul\":21377:21379   */\n      0x16\n        /* \"#utility.yul\":21372:21375   */\n      dup4\n        /* \"#utility.yul\":21313:21380   */\n      tag_152\n      jump\t// in\n    tag_424:\n        /* \"#utility.yul\":21306:21380   */\n      swap2\n      pop\n        /* \"#utility.yul\":21389:21482   */\n      tag_425\n        /* \"#utility.yul\":21478:21481   */\n      dup3\n        /* \"#utility.yul\":21389:21482   */\n      tag_203\n      jump\t// in\n    tag_425:\n        /* \"#utility.yul\":21507:21509   */\n      0x20\n        /* \"#utility.yul\":21502:21505   */\n      dup3\n        /* \"#utility.yul\":21498:21510   */\n      add\n        /* \"#utility.yul\":21491:21510   */\n      swap1\n      pop\n        /* \"#utility.yul\":21150:21516   */\n      swap2\n      swap1\n      pop\n      jump\t// out\n        /* \"#utility.yul\":21522:21941   */\n    tag_97:\n        /* \"#utility.yul\":21688:21692   */\n      0x00\n        /* \"#utility.yul\":21726:21728   */\n      0x20\n        /* \"#utility.yul\":21715:21724   */\n      dup3\n        /* \"#utility.yul\":21711:21729   */\n      add\n        /* \"#utility.yul\":21703:21729   */\n      swap1\n      pop\n        /* \"#utility.yul\":21775:21784   */\n      dup2\n        /* \"#utility.yul\":21769:21773   */\n      dup2\n        /* \"#utility.yul\":21765:21785   */\n      sub\n        /* \"#utility.yul\":21761:21762   */\n      0x00\n        /* \"#utility.yul\":21750:21759   */\n      dup4\n        /* \"#utility.yul\":21746:21763   */\n      add\n        /* \"#utility.yul\":21739:21786   */\n      mstore\n        /* \"#utility.yul\":21803:21934   */\n      tag_427\n        /* \"#utility.yul\":21929:21933   */\n      dup2\n        /* \"#utility.yul\":21803:21934   */\n      tag_204\n      jump\t// in\n    tag_427:\n        /* \"#utility.yul\":21795:21934   */\n      swap1\n      pop\n        /* \"#utility.yul\":21522:21941   */\n      swap2\n      swap1\n      pop\n      jump\t// out\n        /* \"#utility.yul\":21947:22279   */\n    tag_99:\n        /* \"#utility.yul\":22068:22072   */\n      0x00\n        /* \"#utility.yul\":22106:22108   */\n      0x40\n        /* \"#utility.yul\":22095:22104   */\n      dup3\n        /* \"#utility.yul\":22091:22109   */\n      add\n        /* \"#utility.yul\":22083:22109   */\n      swap1\n      pop\n        /* \"#utility.yul\":22119:22190   */\n      tag_429\n        /* \"#utility.yul\":22187:22188   */\n      0x00\n        /* \"#utility.yul\":22176:22185   */\n      dup4\n        /* \"#utility.yul\":22172:22189   */\n      add\n        /* \"#utility.yul\":22163:22169   */\n      dup6\n        /* \"#utility.yul\":22119:22190   */\n      tag_150\n      jump\t// in\n    tag_429:\n        /* \"#utility.yul\":22200:22272   */\n      tag_430\n        /* \"#utility.yul\":22268:22270   */\n      0x20\n        /* \"#utility.yul\":22257:22266   */\n      dup4\n        /* \"#utility.yul\":22253:22271   */\n      add\n        /* \"#utility.yul\":22244:22250   */\n      dup5\n        /* \"#utility.yul\":22200:22272   */\n      tag_149\n      jump\t// in\n    tag_430:\n        /* \"#utility.yul\":21947:22279   */\n      swap4\n      swap3\n      pop\n      pop\n      pop\n      jump\t// out\n        /* \"#utility.yul\":22285:22461   */\n    tag_205:\n        /* \"#utility.yul\":22425:22453   */\n      0x4f6e6c79206d616e7566616374757265722063616e2063616c6c000000000000\n        /* \"#utility.yul\":22421:22422   */\n      0x00\n        /* \"#utility.yul\":22413:22419   */\n      dup3\n        /* \"#utility.yul\":22409:22423   */\n      add\n        /* \"#utility.yul\":22402:22454   */\n      mstore\n        /* \"#utility.yul\":22285:22461   */\n      pop\n      jump\t// out\n        /* \"#utility.yul\":22467:22833   */\n    tag_206:\n        /* \"#utility.yul\":22609:22612   */\n      0x00\n        /* \"#utility.yul\":22630:22697   */\n      tag_433\n        /* \"#utility.yul\":22694:22696   */\n      0x1a\n        /* \"#utility.yul\":22689:22692   */\n      dup4\n        /* \"#utility.yul\":22630:22697   */\n      tag_152\n      jump\t// in\n    tag_433:\n        /* \"#utility.yul\":22623:22697   */\n      swap2\n      pop\n        /* \"#utility.yul\":22706:22799   */\n      tag_434\n        /* \"#utility.yul\":22795:22798   */\n      dup3\n        /* \"#utility.yul\":22706:22799   */\n      tag_205\n      jump\t// in\n    tag_434:\n        /* \"#utility.yul\":22824:22826   */\n      0x20\n        /* \"#utility.yul\":22819:22822   */\n      dup3\n        /* \"#utility.yul\":22815:22827   */\n      add\n        /* \"#utility.yul\":22808:22827   */\n      swap1\n      pop\n        /* \"#utility.yul\":22467:22833   */\n      swap2\n      swap1\n      pop\n      jump\t// out\n        /* \"#utility.yul\":22839:23258   */\n    tag_103:\n        /* \"#utility.yul\":23005:23009   */\n      0x00\n        /* \"#utility.yul\":23043:23045   */\n      0x20\n        /* \"#utility.yul\":23032:23041   */\n      dup3\n        /* \"#utility.yul\":23028:23046   */\n      add\n        /* \"#utility.yul\":23020:23046   */\n      swap1\n      pop\n        /* \"#utility.yul\":23092:23101   */\n      dup2\n        /* \"#utility.yul\":23086:23090   */\n      dup2\n        /* \"#utility.yul\":23082:23102   */\n      sub\n        /* \"#utility.yul\":23078:23079   */\n      0x00\n        /* \"#utility.yul\":23067:23076   */\n      dup4\n        /* \"#utility.yul\":23063:23080   */\n      add\n        /* \"#utility.yul\":23056:23103   */\n      mstore\n        /* \"#utility.yul\":23120:23251   */\n      tag_436\n        /* \"#utility.yul\":23246:23250   */\n      dup2\n        /* \"#utility.yul\":23120:23251   */\n      tag_206\n      jump\t// in\n    tag_436:\n        /* \"#utility.yul\":23112:23251   */\n      swap1\n      pop\n        /* \"#utility.yul\":22839:23258   */\n      swap2\n      swap1\n      pop\n      jump\t// out\n        /* \"#utility.yul\":23264:23486   */\n    tag_110:\n        /* \"#utility.yul\":23357:23361   */\n      0x00\n        /* \"#utility.yul\":23395:23397   */\n      0x20\n        /* \"#utility.yul\":23384:23393   */\n      dup3\n        /* \"#utility.yul\":23380:23398   */\n      add\n        /* \"#utility.yul\":23372:23398   */\n      swap1\n      pop\n        /* \"#utility.yul\":23408:23479   */\n      tag_438\n        /* \"#utility.yul\":23476:23477   */\n      0x00\n        /* \"#utility.yul\":23465:23474   */\n      dup4\n        /* \"#utility.yul\":23461:23478   */\n      add\n        /* \"#utility.yul\":23452:23458   */\n      dup5\n        /* \"#utility.yul\":23408:23479   */\n      tag_150\n      jump\t// in\n    tag_438:\n        /* \"#utility.yul\":23264:23486   */\n      swap3\n      swap2\n      pop\n      pop\n      jump\t// out\n        /* \"#utility.yul\":23492:23635   */\n    tag_207:\n        /* \"#utility.yul\":23549:23554   */\n      0x00\n        /* \"#utility.yul\":23580:23586   */\n      dup2\n        /* \"#utility.yul\":23574:23587   */\n      mload\n        /* \"#utility.yul\":23565:23587   */\n      swap1\n      pop\n        /* \"#utility.yul\":23596:23629   */\n      tag_440\n        /* \"#utility.yul\":23623:23628   */\n      dup2\n        /* \"#utility.yul\":23596:23629   */\n      tag_147\n      jump\t// in\n    tag_440:\n        /* \"#utility.yul\":23492:23635   */\n      swap3\n      swap2\n      pop\n      pop\n      jump\t// out\n        /* \"#utility.yul\":23641:23992   */\n    tag_114:\n        /* \"#utility.yul\":23711:23717   */\n      0x00\n        /* \"#utility.yul\":23760:23762   */\n      0x20\n        /* \"#utility.yul\":23748:23757   */\n      dup3\n        /* \"#utility.yul\":23739:23746   */\n      dup5\n        /* \"#utility.yul\":23735:23758   */\n      sub\n        /* \"#utility.yul\":23731:23763   */\n      slt\n        /* \"#utility.yul\":23728:23847   */\n      iszero\n      tag_442\n      jumpi\n        /* \"#utility.yul\":23766:23845   */\n      tag_443\n      tag_140\n      jump\t// in\n    tag_443:\n        /* \"#utility.yul\":23728:23847   */\n    tag_442:\n        /* \"#utility.yul\":23886:23887   */\n      0x00\n        /* \"#utility.yul\":23911:23975   */\n      tag_444\n        /* \"#utility.yul\":23967:23974   */\n      dup5\n        /* \"#utility.yul\":23958:23964   */\n      dup3\n        /* \"#utility.yul\":23947:23956   */\n      dup6\n        /* \"#utility.yul\":23943:23965   */\n      add\n        /* \"#utility.yul\":23911:23975   */\n      tag_207\n      jump\t// in\n    tag_444:\n        /* \"#utility.yul\":23901:23975   */\n      swap2\n      pop\n        /* \"#utility.yul\":23857:23985   */\n      pop\n        /* \"#utility.yul\":23641:23992   */\n      swap3\n      swap2\n      pop\n      pop\n      jump\t// out\n        /* \"#utility.yul\":23998:24531   */\n    tag_126:\n        /* \"#utility.yul\":24167:24171   */\n      0x00\n        /* \"#utility.yul\":24205:24207   */\n      0x60\n        /* \"#utility.yul\":24194:24203   */\n      dup3\n        /* \"#utility.yul\":24190:24208   */\n      add\n        /* \"#utility.yul\":24182:24208   */\n      swap1\n      pop\n        /* \"#utility.yul\":24218:24289   */\n      tag_446\n        /* \"#utility.yul\":24286:24287   */\n      0x00\n        /* \"#utility.yul\":24275:24284   */\n      dup4\n        /* \"#utility.yul\":24271:24288   */\n      add\n        /* \"#utility.yul\":24262:24268   */\n      dup7\n        /* \"#utility.yul\":24218:24289   */\n      tag_150\n      jump\t// in\n    tag_446:\n        /* \"#utility.yul\":24336:24345   */\n      dup2\n        /* \"#utility.yul\":24330:24334   */\n      dup2\n        /* \"#utility.yul\":24326:24346   */\n      sub\n        /* \"#utility.yul\":24321:24323   */\n      0x20\n        /* \"#utility.yul\":24310:24319   */\n      dup4\n        /* \"#utility.yul\":24306:24324   */\n      add\n        /* \"#utility.yul\":24299:24347   */\n      mstore\n        /* \"#utility.yul\":24364:24442   */\n      tag_447\n        /* \"#utility.yul\":24437:24441   */\n      dup2\n        /* \"#utility.yul\":24428:24434   */\n      dup6\n        /* \"#utility.yul\":24364:24442   */\n      tag_155\n      jump\t// in\n    tag_447:\n        /* \"#utility.yul\":24356:24442   */\n      swap1\n      pop\n        /* \"#utility.yul\":24452:24524   */\n      tag_448\n        /* \"#utility.yul\":24520:24522   */\n      0x40\n        /* \"#utility.yul\":24509:24518   */\n      dup4\n        /* \"#utility.yul\":24505:24523   */\n      add\n        /* \"#utility.yul\":24496:24502   */\n      dup5\n        /* \"#utility.yul\":24452:24524   */\n      tag_149\n      jump\t// in\n    tag_448:\n        /* \"#utility.yul\":23998:24531   */\n      swap5\n      swap4\n      pop\n      pop\n      pop\n      pop\n      jump\t// out\n\n    auxdata: 0xa26469706673582212203be2da51af185985792cd6860802a38c57484b970420a2d4340c1dea54b631e364736f6c634300081a0033\n}\n",
				"bytecode": {
					"linkReferences": {},
					"object": "608060405234801561000f575f80fd5b50604051611c38380380611c3883398181016040528101906100319190610114565b3360015f6101000a81548173ffffffffffffffffffffffffffffffffffffffff021916908373ffffffffffffffffffffffffffffffffffffffff160217905550805f806101000a81548173ffffffffffffffffffffffffffffffffffffffff021916908373ffffffffffffffffffffffffffffffffffffffff1602179055505061013f565b5f80fd5b5f73ffffffffffffffffffffffffffffffffffffffff82169050919050565b5f6100e3826100ba565b9050919050565b6100f3816100d9565b81146100fd575f80fd5b50565b5f8151905061010e816100ea565b92915050565b5f60208284031215610129576101286100b6565b5b5f61013684828501610100565b91505092915050565b611aec8061014c5f395ff3fe608060405234801561000f575f80fd5b506004361061009c575f3560e01c80639000b3d6116100645780639000b3d614610145578063a00fd3c814610161578063c8691b2a1461017d578063d0b6b6db146101ad578063f9281222146101cb5761009c565b8063154f265f146100a057806329507f73146100bc57806374754282146100d85780637acc0b20146100f65780638753367f14610129575b5f80fd5b6100ba60048036038101906100b59190610f83565b6101fb565b005b6100d660048036038101906100d19190610f83565b6104d1565b005b6100e0610677565b6040516100ed9190610fd0565b60405180910390f35b610110600480360381019061010b9190610fe9565b61069c565b60405161012094939291906110ad565b60405180910390f35b610143600480360381019061013e9190610fe9565b61077a565b005b61015f600480360381019061015a91906110f7565b6108c0565b005b61017b6004803603810190610176919061124e565b6109a7565b005b61019760048036038101906101929190610fe9565b610d0f565b6040516101a4919061135f565b60405180910390f35b6101b5610e03565b6040516101c291906113da565b60405180910390f35b6101e560048036038101906101e091906110f7565b610e26565b6040516101f291906113f3565b60405180910390f35b5f8054906101000a900473ffffffffffffffffffffffffffffffffffffffff1673ffffffffffffffffffffffffffffffffffffffff163373ffffffffffffffffffffffffffffffffffffffff1614610288576040517f08c379a000000000000000000000000000000000000000000000000000000000815260040161027f90611456565b60405180910390fd5b5f60025f8481526020019081526020015f205f0154146102dd576040517f08c379a00000000000000000000000000000000000000000000000000000000081526004016102d4906114be565b60405180910390fd5b6040518060a0016040528083815260200160405180602001604052805f81525081526020015f151581526020018273ffffffffffffffffffffffffffffffffffffffff168152602001600167ffffffffffffffff8111156103415761034061112a565b5b60405190808252806020026020018201604052801561036f5781602001602082028036833780820191505090505b5081525060025f8481526020019081526020015f205f820151815f015560208201518160010190816103a191906116cd565b506040820151816002015f6101000a81548160ff02191690831515021790555060608201518160020160016101000a81548173ffffffffffffffffffffffffffffffffffffffff021916908373ffffffffffffffffffffffffffffffffffffffff1602179055506080820151816003019080519060200190610424929190610e43565b509050508060025f8481526020019081526020015f206003015f8154811061044f5761044e61179c565b5b905f5260205f20015f6101000a81548173ffffffffffffffffffffffffffffffffffffffff021916908373ffffffffffffffffffffffffffffffffffffffff1602179055507fd810998a0248808a33b20218e71759cb2ec1a182b398350ad606d742587c012c82826040516104c59291906117ec565b60405180910390a15050565b3373ffffffffffffffffffffffffffffffffffffffff1660025f8481526020019081526020015f2060020160019054906101000a900473ffffffffffffffffffffffffffffffffffffffff1673ffffffffffffffffffffffffffffffffffffffff1614610573576040517f08c379a000000000000000000000000000000000000000000000000000000000815260040161056a90611870565b60405180910390fd5b8060025f8481526020019081526020015f2060020160016101000a81548173ffffffffffffffffffffffffffffffffffffffff021916908373ffffffffffffffffffffffffffffffffffffffff16021790555060025f8381526020019081526020015f2060030181908060018154018082558091505060019003905f5260205f20015f9091909190916101000a81548173ffffffffffffffffffffffffffffffffffffffff021916908373ffffffffffffffffffffffffffffffffffffffff1602179055507f16b85f49bf01212961345d3016c9a531894accf62eb7680f2045d79185cc0ec082338360405161066b9392919061188e565b60405180910390a15050565b60015f9054906101000a900473ffffffffffffffffffffffffffffffffffffffff1681565b6002602052805f5260405f205f91509050805f0154908060010180546106c190611509565b80601f01602080910402602001604051908101604052809291908181526020018280546106ed90611509565b80156107385780601f1061070f57610100808354040283529160200191610738565b820191905f5260205f20905b81548152906001019060200180831161071b57829003601f168201915b505050505090806002015f9054906101000a900460ff16908060020160019054906101000a900473ffffffffffffffffffffffffffffffffffffffff16905084565b60035f3373ffffffffffffffffffffffffffffffffffffffff1673ffffffffffffffffffffffffffffffffffffffff1681526020019081526020015f205f9054906101000a900460ff16610803576040517f08c379a00000000000000000000000000000000000000000000000000000000081526004016107fa9061190d565b60405180910390fd5b5f60025f8381526020019081526020015f205f015403610858576040517f08c379a000000000000000000000000000000000000000000000000000000000815260040161084f90611975565b60405180910390fd5b600160025f8381526020019081526020015f206002015f6101000a81548160ff0219169083151502179055507fab60911bebc6d3ab48620594e409545834da76f4995297ebc48ca5589f25437b81336040516108b5929190611993565b60405180910390a150565b60015f9054906101000a900473ffffffffffffffffffffffffffffffffffffffff1673ffffffffffffffffffffffffffffffffffffffff163373ffffffffffffffffffffffffffffffffffffffff161461094f576040517f08c379a000000000000000000000000000000000000000000000000000000000815260040161094690611a04565b60405180910390fd5b600160035f8373ffffffffffffffffffffffffffffffffffffffff1673ffffffffffffffffffffffffffffffffffffffff1681526020019081526020015f205f6101000a81548160ff02191690831515021790555050565b60015f9054906101000a900473ffffffffffffffffffffffffffffffffffffffff1673ffffffffffffffffffffffffffffffffffffffff163373ffffffffffffffffffffffffffffffffffffffff1614610a36576040517f08c379a0000000000000000000000000000000000000000000000000000000008152600401610a2d90611a04565b60405180910390fd5b5f805f9054906101000a900473ffffffffffffffffffffffffffffffffffffffff1673ffffffffffffffffffffffffffffffffffffffff16636352211e846040518263ffffffff1660e01b8152600401610a909190611a22565b602060405180830381865afa158015610aab573d5f803e3d5ffd5b505050506040513d601f19601f82011682018060405250810190610acf9190611a4f565b90505f60025f8581526020019081526020015f205f015414610b26576040517f08c379a0000000000000000000000000000000000000000000000000000000008152600401610b1d906114be565b60405180910390fd5b6040518060a001604052808481526020018381526020015f151581526020018273ffffffffffffffffffffffffffffffffffffffff168152602001600167ffffffffffffffff811115610b7c57610b7b61112a565b5b604051908082528060200260200182016040528015610baa5781602001602082028036833780820191505090505b5081525060025f8581526020019081526020015f205f820151815f01556020820151816001019081610bdc91906116cd565b506040820151816002015f6101000a81548160ff02191690831515021790555060608201518160020160016101000a81548173ffffffffffffffffffffffffffffffffffffffff021916908373ffffffffffffffffffffffffffffffffffffffff1602179055506080820151816003019080519060200190610c5f929190610e43565b509050508060025f8581526020019081526020015f206003015f81548110610c8a57610c8961179c565b5b905f5260205f20015f6101000a81548173ffffffffffffffffffffffffffffffffffffffff021916908373ffffffffffffffffffffffffffffffffffffffff1602179055507fd810998a0248808a33b20218e71759cb2ec1a182b398350ad606d742587c012c838383604051610d0293929190611a7a565b60405180910390a1505050565b60605f60025f8481526020019081526020015f205f015403610d66576040517f08c379a0000000000000000000000000000000000000000000000000000000008152600401610d5d90611975565b60405180910390fd5b60025f8381526020019081526020015f20600301805480602002602001604051908101604052809291908181526020018280548015610df757602002820191905f5260205f20905b815f9054906101000a900473ffffffffffffffffffffffffffffffffffffffff1673ffffffffffffffffffffffffffffffffffffffff1681526020019060010190808311610dae575b50505050509050919050565b5f8054906101000a900473ffffffffffffffffffffffffffffffffffffffff1681565b6003602052805f5260405f205f915054906101000a900460ff1681565b828054828255905f5260205f20908101928215610eb9579160200282015b82811115610eb8578251825f6101000a81548173ffffffffffffffffffffffffffffffffffffffff021916908373ffffffffffffffffffffffffffffffffffffffff16021790555091602001919060010190610e61565b5b509050610ec69190610eca565b5090565b5b80821115610ee1575f815f905550600101610ecb565b5090565b5f604051905090565b5f80fd5b5f80fd5b5f819050919050565b610f0881610ef6565b8114610f12575f80fd5b50565b5f81359050610f2381610eff565b92915050565b5f73ffffffffffffffffffffffffffffffffffffffff82169050919050565b5f610f5282610f29565b9050919050565b610f6281610f48565b8114610f6c575f80fd5b50565b5f81359050610f7d81610f59565b92915050565b5f8060408385031215610f9957610f98610eee565b5b5f610fa685828601610f15565b9250506020610fb785828601610f6f565b9150509250929050565b610fca81610f48565b82525050565b5f602082019050610fe35f830184610fc1565b92915050565b5f60208284031215610ffe57610ffd610eee565b5b5f61100b84828501610f15565b91505092915050565b61101d81610ef6565b82525050565b5f81519050919050565b5f82825260208201905092915050565b8281835e5f83830152505050565b5f601f19601f8301169050919050565b5f61106582611023565b61106f818561102d565b935061107f81856020860161103d565b6110888161104b565b840191505092915050565b5f8115159050919050565b6110a781611093565b82525050565b5f6080820190506110c05f830187611014565b81810360208301526110d2818661105b565b90506110e1604083018561109e565b6110ee6060830184610fc1565b95945050505050565b5f6020828403121561110c5761110b610eee565b5b5f61111984828501610f6f565b91505092915050565b5f80fd5b5f80fd5b7f4e487b71000000000000000000000000000000000000000000000000000000005f52604160045260245ffd5b6111608261104b565b810181811067ffffffffffffffff8211171561117f5761117e61112a565b5b80604052505050565b5f611191610ee5565b905061119d8282611157565b919050565b5f67ffffffffffffffff8211156111bc576111bb61112a565b5b6111c58261104b565b9050602081019050919050565b828183375f83830152505050565b5f6111f26111ed846111a2565b611188565b90508281526020810184848401111561120e5761120d611126565b5b6112198482856111d2565b509392505050565b5f82601f83011261123557611234611122565b5b81356112458482602086016111e0565b91505092915050565b5f806040838503121561126457611263610eee565b5b5f61127185828601610f15565b925050602083013567ffffffffffffffff81111561129257611291610ef2565b5b61129e85828601611221565b9150509250929050565b5f81519050919050565b5f82825260208201905092915050565b5f819050602082019050919050565b6112da81610f48565b82525050565b5f6112eb83836112d1565b60208301905092915050565b5f602082019050919050565b5f61130d826112a8565b61131781856112b2565b9350611322836112c2565b805f5b8381101561135257815161133988826112e0565b9750611344836112f7565b925050600181019050611325565b5085935050505092915050565b5f6020820190508181035f8301526113778184611303565b905092915050565b5f819050919050565b5f6113a261139d61139884610f29565b61137f565b610f29565b9050919050565b5f6113b382611388565b9050919050565b5f6113c4826113a9565b9050919050565b6113d4816113ba565b82525050565b5f6020820190506113ed5f8301846113cb565b92915050565b5f6020820190506114065f83018461109e565b92915050565b7f4f6e6c79206d696e7420636f6e74726163742063616e2063616c6c00000000005f82015250565b5f611440601b8361102d565b915061144b8261140c565b602082019050919050565b5f6020820190508181035f83015261146d81611434565b9050919050565b7f416c7265616479207265676973746572656400000000000000000000000000005f82015250565b5f6114a860128361102d565b91506114b382611474565b602082019050919050565b5f6020820190508181035f8301526114d58161149c565b9050919050565b7f4e487b71000000000000000000000000000000000000000000000000000000005f52602260045260245ffd5b5f600282049050600182168061152057607f821691505b602082108103611533576115326114dc565b5b50919050565b5f819050815f5260205f209050919050565b5f6020601f8301049050919050565b5f82821b905092915050565b5f600883026115957fffffffffffffffffffffffffffffffffffffffffffffffffffffffffffffffff8261155a565b61159f868361155a565b95508019841693508086168417925050509392505050565b5f6115d16115cc6115c784610ef6565b61137f565b610ef6565b9050919050565b5f819050919050565b6115ea836115b7565b6115fe6115f6826115d8565b848454611566565b825550505050565b5f90565b611612611606565b61161d8184846115e1565b505050565b5b81811015611640576116355f8261160a565b600181019050611623565b5050565b601f8211156116855761165681611539565b61165f8461154b565b8101602085101561166e578190505b61168261167a8561154b565b830182611622565b50505b505050565b5f82821c905092915050565b5f6116a55f198460080261168a565b1980831691505092915050565b5f6116bd8383611696565b9150826002028217905092915050565b6116d682611023565b67ffffffffffffffff8111156116ef576116ee61112a565b5b6116f98254611509565b611704828285611644565b5f60209050601f831160018114611735575f8415611723578287015190505b61172d85826116b2565b865550611794565b601f19841661174386611539565b5f5b8281101561176a57848901518255600182019150602085019450602081019050611745565b868310156117875784890151611783601f891682611696565b8355505b6001600288020188555050505b505050505050565b7f4e487b71000000000000000000000000000000000000000000000000000000005f52603260045260245ffd5b50565b5f6117d75f8361102d565b91506117e2826117c9565b5f82019050919050565b5f6060820190506117ff5f830185611014565b8181036020830152611810816117cc565b905061181f6040830184610fc1565b9392505050565b7f4e6f742063757272656e74206f776e65720000000000000000000000000000005f82015250565b5f61185a60118361102d565b915061186582611826565b602082019050919050565b5f6020820190508181035f8301526118878161184e565b9050919050565b5f6060820190506118a15f830186611014565b6118ae6020830185610fc1565b6118bb6040830184610fc1565b949350505050565b7f4e6f7420617574686f726973656420746f2076657269667900000000000000005f82015250565b5f6118f760188361102d565b9150611902826118c3565b602082019050919050565b5f6020820190508181035f830152611924816118eb565b9050919050565b7f50726f64756374206e6f742072656769737465726564000000000000000000005f82015250565b5f61195f60168361102d565b915061196a8261192b565b602082019050919050565b5f6020820190508181035f83015261198c81611953565b9050919050565b5f6040820190506119a65f830185611014565b6119b36020830184610fc1565b9392505050565b7f4f6e6c79206d616e7566616374757265722063616e2063616c6c0000000000005f82015250565b5f6119ee601a8361102d565b91506119f9826119ba565b602082019050919050565b5f6020820190508181035f830152611a1b816119e2565b9050919050565b5f602082019050611a355f830184611014565b92915050565b5f81519050611a4981610f59565b92915050565b5f60208284031215611a6457611a63610eee565b5b5f611a7184828501611a3b565b91505092915050565b5f606082019050611a8d5f830186611014565b8181036020830152611a9f818561105b565b9050611aae6040830184610fc1565b94935050505056fea26469706673582212203be2da51af185985792cd6860802a38c57484b970420a2d4340c1dea54b631e364736f6c634300081a0033",
					"opcodes": "PUSH1 0x80 PUSH1 0x40 MSTORE CALLVALUE DUP1 ISZERO PUSH2 0xF JUMPI PUSH0 DUP1 REVERT JUMPDEST POP PUSH1 0x40 MLOAD PUSH2 0x1C38 CODESIZE SUB DUP1 PUSH2 0x1C38 DUP4 CODECOPY DUP2 DUP2 ADD PUSH1 0x40 MSTORE DUP2 ADD SWAP1 PUSH2 0x31 SWAP2 SWAP1 PUSH2 0x114 JUMP JUMPDEST CALLER PUSH1 0x1 PUSH0 PUSH2 0x100 EXP DUP2 SLOAD DUP2 PUSH20 0xFFFFFFFFFFFFFFFFFFFFFFFFFFFFFFFFFFFFFFFF MUL NOT AND SWAP1 DUP4 PUSH20 0xFFFFFFFFFFFFFFFFFFFFFFFFFFFFFFFFFFFFFFFF AND MUL OR SWAP1 SSTORE POP DUP1 PUSH0 DUP1 PUSH2 0x100 EXP DUP2 SLOAD DUP2 PUSH20 0xFFFFFFFFFFFFFFFFFFFFFFFFFFFFFFFFFFFFFFFF MUL NOT AND SWAP1 DUP4 PUSH20 0xFFFFFFFFFFFFFFFFFFFFFFFFFFFFFFFFFFFFFFFF AND MUL OR SWAP1 SSTORE POP POP PUSH2 0x13F JUMP JUMPDEST PUSH0 DUP1 REVERT JUMPDEST PUSH0 PUSH20 0xFFFFFFFFFFFFFFFFFFFFFFFFFFFFFFFFFFFFFFFF DUP3 AND SWAP1 POP SWAP2 SWAP1 POP JUMP JUMPDEST PUSH0 PUSH2 0xE3 DUP3 PUSH2 0xBA JUMP JUMPDEST SWAP1 POP SWAP2 SWAP1 POP JUMP JUMPDEST PUSH2 0xF3 DUP2 PUSH2 0xD9 JUMP JUMPDEST DUP2 EQ PUSH2 0xFD JUMPI PUSH0 DUP1 REVERT JUMPDEST POP JUMP JUMPDEST PUSH0 DUP2 MLOAD SWAP1 POP PUSH2 0x10E DUP2 PUSH2 0xEA JUMP JUMPDEST SWAP3 SWAP2 POP POP JUMP JUMPDEST PUSH0 PUSH1 0x20 DUP3 DUP5 SUB SLT ISZERO PUSH2 0x129 JUMPI PUSH2 0x128 PUSH2 0xB6 JUMP JUMPDEST JUMPDEST PUSH0 PUSH2 0x136 DUP5 DUP3 DUP6 ADD PUSH2 0x100 JUMP JUMPDEST SWAP2 POP POP SWAP3 SWAP2 POP POP JUMP JUMPDEST PUSH2 0x1AEC DUP1 PUSH2 0x14C PUSH0 CODECOPY PUSH0 RETURN INVALID PUSH1 0x80 PUSH1 0x40 MSTORE CALLVALUE DUP1 ISZERO PUSH2 0xF JUMPI PUSH0 DUP1 REVERT JUMPDEST POP PUSH1 0x4 CALLDATASIZE LT PUSH2 0x9C JUMPI PUSH0 CALLDATALOAD PUSH1 0xE0 SHR DUP1 PUSH4 0x9000B3D6 GT PUSH2 0x64 JUMPI DUP1 PUSH4 0x9000B3D6 EQ PUSH2 0x145 JUMPI DUP1 PUSH4 0xA00FD3C8 EQ PUSH2 0x161 JUMPI DUP1 PUSH4 0xC8691B2A EQ PUSH2 0x17D JUMPI DUP1 PUSH4 0xD0B6B6DB EQ PUSH2 0x1AD JUMPI DUP1 PUSH4 0xF9281222 EQ PUSH2 0x1CB JUMPI PUSH2 0x9C JUMP JUMPDEST DUP1 PUSH4 0x154F265F EQ PUSH2 0xA0 JUMPI DUP1 PUSH4 0x29507F73 EQ PUSH2 0xBC JUMPI DUP1 PUSH4 0x74754282 EQ PUSH2 0xD8 JUMPI DUP1 PUSH4 0x7ACC0B20 EQ PUSH2 0xF6 JUMPI DUP1 PUSH4 0x8753367F EQ PUSH2 0x129 JUMPI JUMPDEST PUSH0 DUP1 REVERT JUMPDEST PUSH2 0xBA PUSH1 0x4 DUP1 CALLDATASIZE SUB DUP2 ADD SWAP1 PUSH2 0xB5 SWAP2 SWAP1 PUSH2 0xF83 JUMP JUMPDEST PUSH2 0x1FB JUMP JUMPDEST STOP JUMPDEST PUSH2 0xD6 PUSH1 0x4 DUP1 CALLDATASIZE SUB DUP2 ADD SWAP1 PUSH2 0xD1 SWAP2 SWAP1 PUSH2 0xF83 JUMP JUMPDEST PUSH2 0x4D1 JUMP JUMPDEST STOP JUMPDEST PUSH2 0xE0 PUSH2 0x677 JUMP JUMPDEST PUSH1 0x40 MLOAD PUSH2 0xED SWAP2 SWAP1 PUSH2 0xFD0 JUMP JUMPDEST PUSH1 0x40 MLOAD DUP1 SWAP2 SUB SWAP1 RETURN JUMPDEST PUSH2 0x110 PUSH1 0x4 DUP1 CALLDATASIZE SUB DUP2 ADD SWAP1 PUSH2 0x10B SWAP2 SWAP1 PUSH2 0xFE9 JUMP JUMPDEST PUSH2 0x69C JUMP JUMPDEST PUSH1 0x40 MLOAD PUSH2 0x120 SWAP5 SWAP4 SWAP3 SWAP2 SWAP1 PUSH2 0x10AD JUMP JUMPDEST PUSH1 0x40 MLOAD DUP1 SWAP2 SUB SWAP1 RETURN JUMPDEST PUSH2 0x143 PUSH1 0x4 DUP1 CALLDATASIZE SUB DUP2 ADD SWAP1 PUSH2 0x13E SWAP2 SWAP1 PUSH2 0xFE9 JUMP JUMPDEST PUSH2 0x77A JUMP JUMPDEST STOP JUMPDEST PUSH2 0x15F PUSH1 0x4 DUP1 CALLDATASIZE SUB DUP2 ADD SWAP1 PUSH2 0x15A SWAP2 SWAP1 PUSH2 0x10F7 JUMP JUMPDEST PUSH2 0x8C0 JUMP JUMPDEST STOP JUMPDEST PUSH2 0x17B PUSH1 0x4 DUP1 CALLDATASIZE SUB DUP2 ADD SWAP1 PUSH2 0x176 SWAP2 SWAP1 PUSH2 0x124E JUMP JUMPDEST PUSH2 0x9A7 JUMP JUMPDEST STOP JUMPDEST PUSH2 0x197 PUSH1 0x4 DUP1 CALLDATASIZE SUB DUP2 ADD SWAP1 PUSH2 0x192 SWAP2 SWAP1 PUSH2 0xFE9 JUMP JUMPDEST PUSH2 0xD0F JUMP JUMPDEST PUSH1 0x40 MLOAD PUSH2 0x1A4 SWAP2 SWAP1 PUSH2 0x135F JUMP JUMPDEST PUSH1 0x40 MLOAD DUP1 SWAP2 SUB SWAP1 RETURN JUMPDEST PUSH2 0x1B5 PUSH2 0xE03 JUMP JUMPDEST PUSH1 0x40 MLOAD PUSH2 0x1C2 SWAP2 SWAP1 PUSH2 0x13DA JUMP JUMPDEST PUSH1 0x40 MLOAD DUP1 SWAP2 SUB SWAP1 RETURN JUMPDEST PUSH2 0x1E5 PUSH1 0x4 DUP1 CALLDATASIZE SUB DUP2 ADD SWAP1 PUSH2 0x1E0 SWAP2 SWAP1 PUSH2 0x10F7 JUMP JUMPDEST PUSH2 0xE26 JUMP JUMPDEST PUSH1 0x40 MLOAD PUSH2 0x1F2 SWAP2 SWAP1 PUSH2 0x13F3 JUMP JUMPDEST PUSH1 0x40 MLOAD DUP1 SWAP2 SUB SWAP1 RETURN JUMPDEST PUSH0 DUP1 SLOAD SWAP1 PUSH2 0x100 EXP SWAP1 DIV PUSH20 0xFFFFFFFFFFFFFFFFFFFFFFFFFFFFFFFFFFFFFFFF AND PUSH20 0xFFFFFFFFFFFFFFFFFFFFFFFFFFFFFFFFFFFFFFFF AND CALLER PUSH20 0xFFFFFFFFFFFFFFFFFFFFFFFFFFFFFFFFFFFFFFFF AND EQ PUSH2 0x288 JUMPI PUSH1 0x40 MLOAD PUSH32 0x8C379A000000000000000000000000000000000000000000000000000000000 DUP2 MSTORE PUSH1 0x4 ADD PUSH2 0x27F SWAP1 PUSH2 0x1456 JUMP JUMPDEST PUSH1 0x40 MLOAD DUP1 SWAP2 SUB SWAP1 REVERT JUMPDEST PUSH0 PUSH1 0x2 PUSH0 DUP5 DUP2 MSTORE PUSH1 0x20 ADD SWAP1 DUP2 MSTORE PUSH1 0x20 ADD PUSH0 KECCAK256 PUSH0 ADD SLOAD EQ PUSH2 0x2DD JUMPI PUSH1 0x40 MLOAD PUSH32 0x8C379A000000000000000000000000000000000000000000000000000000000 DUP2 MSTORE PUSH1 0x4 ADD PUSH2 0x2D4 SWAP1 PUSH2 0x14BE JUMP JUMPDEST PUSH1 0x40 MLOAD DUP1 SWAP2 SUB SWAP1 REVERT JUMPDEST PUSH1 0x40 MLOAD DUP1 PUSH1 0xA0 ADD PUSH1 0x40 MSTORE DUP1 DUP4 DUP2 MSTORE PUSH1 0x20 ADD PUSH1 0x40 MLOAD DUP1 PUSH1 0x20 ADD PUSH1 0x40 MSTORE DUP1 PUSH0 DUP2 MSTORE POP DUP2 MSTORE PUSH1 0x20 ADD PUSH0 ISZERO ISZERO DUP2 MSTORE PUSH1 0x20 ADD DUP3 PUSH20 0xFFFFFFFFFFFFFFFFFFFFFFFFFFFFFFFFFFFFFFFF AND DUP2 MSTORE PUSH1 0x20 ADD PUSH1 0x1 PUSH8 0xFFFFFFFFFFFFFFFF DUP2 GT ISZERO PUSH2 0x341 JUMPI PUSH2 0x340 PUSH2 0x112A JUMP JUMPDEST JUMPDEST PUSH1 0x40 MLOAD SWAP1 DUP1 DUP3 MSTORE DUP1 PUSH1 0x20 MUL PUSH1 0x20 ADD DUP3 ADD PUSH1 0x40 MSTORE DUP1 ISZERO PUSH2 0x36F JUMPI DUP2 PUSH1 0x20 ADD PUSH1 0x20 DUP3 MUL DUP1 CALLDATASIZE DUP4 CALLDATACOPY DUP1 DUP3 ADD SWAP2 POP POP SWAP1 POP JUMPDEST POP DUP2 MSTORE POP PUSH1 0x2 PUSH0 DUP5 DUP2 MSTORE PUSH1 0x20 ADD SWAP1 DUP2 MSTORE PUSH1 0x20 ADD PUSH0 KECCAK256 PUSH0 DUP3 ADD MLOAD DUP2 PUSH0 ADD SSTORE PUSH1 0x20 DUP3 ADD MLOAD DUP2 PUSH1 0x1 ADD SWAP1 DUP2 PUSH2 0x3A1 SWAP2 SWAP1 PUSH2 0x16CD JUMP JUMPDEST POP PUSH1 0x40 DUP3 ADD MLOAD DUP2 PUSH1 0x2 ADD PUSH0 PUSH2 0x100 EXP DUP2 SLOAD DUP2 PUSH1 0xFF MUL NOT AND SWAP1 DUP4 ISZERO ISZERO MUL OR SWAP1 SSTORE POP PUSH1 0x60 DUP3 ADD MLOAD DUP2 PUSH1 0x2 ADD PUSH1 0x1 PUSH2 0x100 EXP DUP2 SLOAD DUP2 PUSH20 0xFFFFFFFFFFFFFFFFFFFFFFFFFFFFFFFFFFFFFFFF MUL NOT AND SWAP1 DUP4 PUSH20 0xFFFFFFFFFFFFFFFFFFFFFFFFFFFFFFFFFFFFFFFF AND MUL OR SWAP1 SSTORE POP PUSH1 0x80 DUP3 ADD MLOAD DUP2 PUSH1 0x3 ADD SWAP1 DUP1 MLOAD SWAP1 PUSH1 0x20 ADD SWAP1 PUSH2 0x424 SWAP3 SWAP2 SWAP1 PUSH2 0xE43 JUMP JUMPDEST POP SWAP1 POP POP DUP1 PUSH1 0x2 PUSH0 DUP5 DUP2 MSTORE PUSH1 0x20 ADD SWAP1 DUP2 MSTORE PUSH1 0x20 ADD PUSH0 KECCAK256 PUSH1 0x3 ADD PUSH0 DUP2 SLOAD DUP2 LT PUSH2 0x44F JUMPI PUSH2 0x44E PUSH2 0x179C JUMP JUMPDEST JUMPDEST SWAP1 PUSH0 MSTORE PUSH1 0x20 PUSH0 KECCAK256 ADD PUSH0 PUSH2 0x100 EXP DUP2 SLOAD DUP2 PUSH20 0xFFFFFFFFFFFFFFFFFFFFFFFFFFFFFFFFFFFFFFFF MUL NOT AND SWAP1 DUP4 PUSH20 0xFFFFFFFFFFFFFFFFFFFFFFFFFFFFFFFFFFFFFFFF AND MUL OR SWAP1 SSTORE POP PUSH32 0xD810998A0248808A33B20218E71759CB2EC1A182B398350AD606D742587C012C DUP3 DUP3 PUSH1 0x40 MLOAD PUSH2 0x4C5 SWAP3 SWAP2 SWAP1 PUSH2 0x17EC JUMP JUMPDEST PUSH1 0x40 MLOAD DUP1 SWAP2 SUB SWAP1 LOG1 POP POP JUMP JUMPDEST CALLER PUSH20 0xFFFFFFFFFFFFFFFFFFFFFFFFFFFFFFFFFFFFFFFF AND PUSH1 0x2 PUSH0 DUP5 DUP2 MSTORE PUSH1 0x20 ADD SWAP1 DUP2 MSTORE PUSH1 0x20 ADD PUSH0 KECCAK256 PUSH1 0x2 ADD PUSH1 0x1 SWAP1 SLOAD SWAP1 PUSH2 0x100 EXP SWAP1 DIV PUSH20 0xFFFFFFFFFFFFFFFFFFFFFFFFFFFFFFFFFFFFFFFF AND PUSH20 0xFFFFFFFFFFFFFFFFFFFFFFFFFFFFFFFFFFFFFFFF AND EQ PUSH2 0x573 JUMPI PUSH1 0x40 MLOAD PUSH32 0x8C379A000000000000000000000000000000000000000000000000000000000 DUP2 MSTORE PUSH1 0x4 ADD PUSH2 0x56A SWAP1 PUSH2 0x1870 JUMP JUMPDEST PUSH1 0x40 MLOAD DUP1 SWAP2 SUB SWAP1 REVERT JUMPDEST DUP1 PUSH1 0x2 PUSH0 DUP5 DUP2 MSTORE PUSH1 0x20 ADD SWAP1 DUP2 MSTORE PUSH1 0x20 ADD PUSH0 KECCAK256 PUSH1 0x2 ADD PUSH1 0x1 PUSH2 0x100 EXP DUP2 SLOAD DUP2 PUSH20 0xFFFFFFFFFFFFFFFFFFFFFFFFFFFFFFFFFFFFFFFF MUL NOT AND SWAP1 DUP4 PUSH20 0xFFFFFFFFFFFFFFFFFFFFFFFFFFFFFFFFFFFFFFFF AND MUL OR SWAP1 SSTORE POP PUSH1 0x2 PUSH0 DUP4 DUP2 MSTORE PUSH1 0x20 ADD SWAP1 DUP2 MSTORE PUSH1 0x20 ADD PUSH0 KECCAK256 PUSH1 0x3 ADD DUP2 SWAP1 DUP1 PUSH1 0x1 DUP2 SLOAD ADD DUP1 DUP3 SSTORE DUP1 SWAP2 POP POP PUSH1 0x1 SWAP1 SUB SWAP1 PUSH0 MSTORE PUSH1 0x20 PUSH0 KECCAK256 ADD PUSH0 SWAP1 SWAP2 SWAP1 SWAP2 SWAP1 SWAP2 PUSH2 0x100 EXP DUP2 SLOAD DUP2 PUSH20 0xFFFFFFFFFFFFFFFFFFFFFFFFFFFFFFFFFFFFFFFF MUL NOT AND SWAP1 DUP4 PUSH20 0xFFFFFFFFFFFFFFFFFFFFFFFFFFFFFFFFFFFFFFFF AND MUL OR SWAP1 SSTORE POP PUSH32 0x16B85F49BF01212961345D3016C9A531894ACCF62EB7680F2045D79185CC0EC0 DUP3 CALLER DUP4 PUSH1 0x40 MLOAD PUSH2 0x66B SWAP4 SWAP3 SWAP2 SWAP1 PUSH2 0x188E JUMP JUMPDEST PUSH1 0x40 MLOAD DUP1 SWAP2 SUB SWAP1 LOG1 POP POP JUMP JUMPDEST PUSH1 0x1 PUSH0 SWAP1 SLOAD SWAP1 PUSH2 0x100 EXP SWAP1 DIV PUSH20 0xFFFFFFFFFFFFFFFFFFFFFFFFFFFFFFFFFFFFFFFF AND DUP2 JUMP JUMPDEST PUSH1 0x2 PUSH1 0x20 MSTORE DUP1 PUSH0 MSTORE PUSH1 0x40 PUSH0 KECCAK256 PUSH0 SWAP2 POP SWAP1 POP DUP1 PUSH0 ADD SLOAD SWAP1 DUP1 PUSH1 0x1 ADD DUP1 SLOAD PUSH2 0x6C1 SWAP1 PUSH2 0x1509 JUMP JUMPDEST DUP1 PUSH1 0x1F ADD PUSH1 0x20 DUP1 SWAP2 DIV MUL PUSH1 0x20 ADD PUSH1 0x40 MLOAD SWAP1 DUP2 ADD PUSH1 0x40 MSTORE DUP1 SWAP3 SWAP2 SWAP1 DUP2 DUP2 MSTORE PUSH1 0x20 ADD DUP3 DUP1 SLOAD PUSH2 0x6ED SWAP1 PUSH2 0x1509 JUMP JUMPDEST DUP1 ISZERO PUSH2 0x738 JUMPI DUP1 PUSH1 0x1F LT PUSH2 0x70F JUMPI PUSH2 0x100 DUP1 DUP4 SLOAD DIV MUL DUP4 MSTORE SWAP2 PUSH1 0x20 ADD SWAP2 PUSH2 0x738 JUMP JUMPDEST DUP3 ADD SWAP2 SWAP1 PUSH0 MSTORE PUSH1 0x20 PUSH0 KECCAK256 SWAP1 JUMPDEST DUP2 SLOAD DUP2 MSTORE SWAP1 PUSH1 0x1 ADD SWAP1 PUSH1 0x20 ADD DUP1 DUP4 GT PUSH2 0x71B JUMPI DUP3 SWAP1 SUB PUSH1 0x1F AND DUP3 ADD SWAP2 JUMPDEST POP POP POP POP POP SWAP1 DUP1 PUSH1 0x2 ADD PUSH0 SWAP1 SLOAD SWAP1 PUSH2 0x100 EXP SWAP1 DIV PUSH1 0xFF AND SWAP1 DUP1 PUSH1 0x2 ADD PUSH1 0x1 SWAP1 SLOAD SWAP1 PUSH2 0x100 EXP SWAP1 DIV PUSH20 0xFFFFFFFFFFFFFFFFFFFFFFFFFFFFFFFFFFFFFFFF AND SWAP1 POP DUP5 JUMP JUMPDEST PUSH1 0x3 PUSH0 CALLER PUSH20 0xFFFFFFFFFFFFFFFFFFFFFFFFFFFFFFFFFFFFFFFF AND PUSH20 0xFFFFFFFFFFFFFFFFFFFFFFFFFFFFFFFFFFFFFFFF AND DUP2 MSTORE PUSH1 0x20 ADD SWAP1 DUP2 MSTORE PUSH1 0x20 ADD PUSH0 KECCAK256 PUSH0 SWAP1 SLOAD SWAP1 PUSH2 0x100 EXP SWAP1 DIV PUSH1 0xFF AND PUSH2 0x803 JUMPI PUSH1 0x40 MLOAD PUSH32 0x8C379A000000000000000000000000000000000000000000000000000000000 DUP2 MSTORE PUSH1 0x4 ADD PUSH2 0x7FA SWAP1 PUSH2 0x190D JUMP JUMPDEST PUSH1 0x40 MLOAD DUP1 SWAP2 SUB SWAP1 REVERT JUMPDEST PUSH0 PUSH1 0x2 PUSH0 DUP4 DUP2 MSTORE PUSH1 0x20 ADD SWAP1 DUP2 MSTORE PUSH1 0x20 ADD PUSH0 KECCAK256 PUSH0 ADD SLOAD SUB PUSH2 0x858 JUMPI PUSH1 0x40 MLOAD PUSH32 0x8C379A000000000000000000000000000000000000000000000000000000000 DUP2 MSTORE PUSH1 0x4 ADD PUSH2 0x84F SWAP1 PUSH2 0x1975 JUMP JUMPDEST PUSH1 0x40 MLOAD DUP1 SWAP2 SUB SWAP1 REVERT JUMPDEST PUSH1 0x1 PUSH1 0x2 PUSH0 DUP4 DUP2 MSTORE PUSH1 0x20 ADD SWAP1 DUP2 MSTORE PUSH1 0x20 ADD PUSH0 KECCAK256 PUSH1 0x2 ADD PUSH0 PUSH2 0x100 EXP DUP2 SLOAD DUP2 PUSH1 0xFF MUL NOT AND SWAP1 DUP4 ISZERO ISZERO MUL OR SWAP1 SSTORE POP PUSH32 0xAB60911BEBC6D3AB48620594E409545834DA76F4995297EBC48CA5589F25437B DUP2 CALLER PUSH1 0x40 MLOAD PUSH2 0x8B5 SWAP3 SWAP2 SWAP1 PUSH2 0x1993 JUMP JUMPDEST PUSH1 0x40 MLOAD DUP1 SWAP2 SUB SWAP1 LOG1 POP JUMP JUMPDEST PUSH1 0x1 PUSH0 SWAP1 SLOAD SWAP1 PUSH2 0x100 EXP SWAP1 DIV PUSH20 0xFFFFFFFFFFFFFFFFFFFFFFFFFFFFFFFFFFFFFFFF AND PUSH20 0xFFFFFFFFFFFFFFFFFFFFFFFFFFFFFFFFFFFFFFFF AND CALLER PUSH20 0xFFFFFFFFFFFFFFFFFFFFFFFFFFFFFFFFFFFFFFFF AND EQ PUSH2 0x94F JUMPI PUSH1 0x40 MLOAD PUSH32 0x8C379A000000000000000000000000000000000000000000000000000000000 DUP2 MSTORE PUSH1 0x4 ADD PUSH2 0x946 SWAP1 PUSH2 0x1A04 JUMP JUMPDEST PUSH1 0x40 MLOAD DUP1 SWAP2 SUB SWAP1 REVERT JUMPDEST PUSH1 0x1 PUSH1 0x3 PUSH0 DUP4 PUSH20 0xFFFFFFFFFFFFFFFFFFFFFFFFFFFFFFFFFFFFFFFF AND PUSH20 0xFFFFFFFFFFFFFFFFFFFFFFFFFFFFFFFFFFFFFFFF AND DUP2 MSTORE PUSH1 0x20 ADD SWAP1 DUP2 MSTORE PUSH1 0x20 ADD PUSH0 KECCAK256 PUSH0 PUSH2 0x100 EXP DUP2 SLOAD DUP2 PUSH1 0xFF MUL NOT AND SWAP1 DUP4 ISZERO ISZERO MUL OR SWAP1 SSTORE POP POP JUMP JUMPDEST PUSH1 0x1 PUSH0 SWAP1 SLOAD SWAP1 PUSH2 0x100 EXP SWAP1 DIV PUSH20 0xFFFFFFFFFFFFFFFFFFFFFFFFFFFFFFFFFFFFFFFF AND PUSH20 0xFFFFFFFFFFFFFFFFFFFFFFFFFFFFFFFFFFFFFFFF AND CALLER PUSH20 0xFFFFFFFFFFFFFFFFFFFFFFFFFFFFFFFFFFFFFFFF AND EQ PUSH2 0xA36 JUMPI PUSH1 0x40 MLOAD PUSH32 0x8C379A000000000000000000000000000000000000000000000000000000000 DUP2 MSTORE PUSH1 0x4 ADD PUSH2 0xA2D SWAP1 PUSH2 0x1A04 JUMP JUMPDEST PUSH1 0x40 MLOAD DUP1 SWAP2 SUB SWAP1 REVERT JUMPDEST PUSH0 DUP1 PUSH0 SWAP1 SLOAD SWAP1 PUSH2 0x100 EXP SWAP1 DIV PUSH20 0xFFFFFFFFFFFFFFFFFFFFFFFFFFFFFFFFFFFFFFFF AND PUSH20 0xFFFFFFFFFFFFFFFFFFFFFFFFFFFFFFFFFFFFFFFF AND PUSH4 0x6352211E DUP5 PUSH1 0x40 MLOAD DUP3 PUSH4 0xFFFFFFFF AND PUSH1 0xE0 SHL DUP2 MSTORE PUSH1 0x4 ADD PUSH2 0xA90 SWAP2 SWAP1 PUSH2 0x1A22 JUMP JUMPDEST PUSH1 0x20 PUSH1 0x40 MLOAD DUP1 DUP4 SUB DUP2 DUP7 GAS STATICCALL ISZERO DUP1 ISZERO PUSH2 0xAAB JUMPI RETURNDATASIZE PUSH0 DUP1 RETURNDATACOPY RETURNDATASIZE PUSH0 REVERT JUMPDEST POP POP POP POP PUSH1 0x40 MLOAD RETURNDATASIZE PUSH1 0x1F NOT PUSH1 0x1F DUP3 ADD AND DUP3 ADD DUP1 PUSH1 0x40 MSTORE POP DUP2 ADD SWAP1 PUSH2 0xACF SWAP2 SWAP1 PUSH2 0x1A4F JUMP JUMPDEST SWAP1 POP PUSH0 PUSH1 0x2 PUSH0 DUP6 DUP2 MSTORE PUSH1 0x20 ADD SWAP1 DUP2 MSTORE PUSH1 0x20 ADD PUSH0 KECCAK256 PUSH0 ADD SLOAD EQ PUSH2 0xB26 JUMPI PUSH1 0x40 MLOAD PUSH32 0x8C379A000000000000000000000000000000000000000000000000000000000 DUP2 MSTORE PUSH1 0x4 ADD PUSH2 0xB1D SWAP1 PUSH2 0x14BE JUMP JUMPDEST PUSH1 0x40 MLOAD DUP1 SWAP2 SUB SWAP1 REVERT JUMPDEST PUSH1 0x40 MLOAD DUP1 PUSH1 0xA0 ADD PUSH1 0x40 MSTORE DUP1 DUP5 DUP2 MSTORE PUSH1 0x20 ADD DUP4 DUP2 MSTORE PUSH1 0x20 ADD PUSH0 ISZERO ISZERO DUP2 MSTORE PUSH1 0x20 ADD DUP3 PUSH20 0xFFFFFFFFFFFFFFFFFFFFFFFFFFFFFFFFFFFFFFFF AND DUP2 MSTORE PUSH1 0x20 ADD PUSH1 0x1 PUSH8 0xFFFFFFFFFFFFFFFF DUP2 GT ISZERO PUSH2 0xB7C JUMPI PUSH2 0xB7B PUSH2 0x112A JUMP JUMPDEST JUMPDEST PUSH1 0x40 MLOAD SWAP1 DUP1 DUP3 MSTORE DUP1 PUSH1 0x20 MUL PUSH1 0x20 ADD DUP3 ADD PUSH1 0x40 MSTORE DUP1 ISZERO PUSH2 0xBAA JUMPI DUP2 PUSH1 0x20 ADD PUSH1 0x20 DUP3 MUL DUP1 CALLDATASIZE DUP4 CALLDATACOPY DUP1 DUP3 ADD SWAP2 POP POP SWAP1 POP JUMPDEST POP DUP2 MSTORE POP PUSH1 0x2 PUSH0 DUP6 DUP2 MSTORE PUSH1 0x20 ADD SWAP1 DUP2 MSTORE PUSH1 0x20 ADD PUSH0 KECCAK256 PUSH0 DUP3 ADD MLOAD DUP2 PUSH0 ADD SSTORE PUSH1 0x20 DUP3 ADD MLOAD DUP2 PUSH1 0x1 ADD SWAP1 DUP2 PUSH2 0xBDC SWAP2 SWAP1 PUSH2 0x16CD JUMP JUMPDEST POP PUSH1 0x40 DUP3 ADD MLOAD DUP2 PUSH1 0x2 ADD PUSH0 PUSH2 0x100 EXP DUP2 SLOAD DUP2 PUSH1 0xFF MUL NOT AND SWAP1 DUP4 ISZERO ISZERO MUL OR SWAP1 SSTORE POP PUSH1 0x60 DUP3 ADD MLOAD DUP2 PUSH1 0x2 ADD PUSH1 0x1 PUSH2 0x100 EXP DUP2 SLOAD DUP2 PUSH20 0xFFFFFFFFFFFFFFFFFFFFFFFFFFFFFFFFFFFFFFFF MUL NOT AND SWAP1 DUP4 PUSH20 0xFFFFFFFFFFFFFFFFFFFFFFFFFFFFFFFFFFFFFFFF AND MUL OR SWAP1 SSTORE POP PUSH1 0x80 DUP3 ADD MLOAD DUP2 PUSH1 0x3 ADD SWAP1 DUP1 MLOAD SWAP1 PUSH1 0x20 ADD SWAP1 PUSH2 0xC5F SWAP3 SWAP2 SWAP1 PUSH2 0xE43 JUMP JUMPDEST POP SWAP1 POP POP DUP1 PUSH1 0x2 PUSH0 DUP6 DUP2 MSTORE PUSH1 0x20 ADD SWAP1 DUP2 MSTORE PUSH1 0x20 ADD PUSH0 KECCAK256 PUSH1 0x3 ADD PUSH0 DUP2 SLOAD DUP2 LT PUSH2 0xC8A JUMPI PUSH2 0xC89 PUSH2 0x179C JUMP JUMPDEST JUMPDEST SWAP1 PUSH0 MSTORE PUSH1 0x20 PUSH0 KECCAK256 ADD PUSH0 PUSH2 0x100 EXP DUP2 SLOAD DUP2 PUSH20 0xFFFFFFFFFFFFFFFFFFFFFFFFFFFFFFFFFFFFFFFF MUL NOT AND SWAP1 DUP4 PUSH20 0xFFFFFFFFFFFFFFFFFFFFFFFFFFFFFFFFFFFFFFFF AND MUL OR SWAP1 SSTORE POP PUSH32 0xD810998A0248808A33B20218E71759CB2EC1A182B398350AD606D742587C012C DUP4 DUP4 DUP4 PUSH1 0x40 MLOAD PUSH2 0xD02 SWAP4 SWAP3 SWAP2 SWAP1 PUSH2 0x1A7A JUMP JUMPDEST PUSH1 0x40 MLOAD DUP1 SWAP2 SUB SWAP1 LOG1 POP POP POP JUMP JUMPDEST PUSH1 0x60 PUSH0 PUSH1 0x2 PUSH0 DUP5 DUP2 MSTORE PUSH1 0x20 ADD SWAP1 DUP2 MSTORE PUSH1 0x20 ADD PUSH0 KECCAK256 PUSH0 ADD SLOAD SUB PUSH2 0xD66 JUMPI PUSH1 0x40 MLOAD PUSH32 0x8C379A000000000000000000000000000000000000000000000000000000000 DUP2 MSTORE PUSH1 0x4 ADD PUSH2 0xD5D SWAP1 PUSH2 0x1975 JUMP JUMPDEST PUSH1 0x40 MLOAD DUP1 SWAP2 SUB SWAP1 REVERT JUMPDEST PUSH1 0x2 PUSH0 DUP4 DUP2 MSTORE PUSH1 0x20 ADD SWAP1 DUP2 MSTORE PUSH1 0x20 ADD PUSH0 KECCAK256 PUSH1 0x3 ADD DUP1 SLOAD DUP1 PUSH1 0x20 MUL PUSH1 0x20 ADD PUSH1 0x40 MLOAD SWAP1 DUP2 ADD PUSH1 0x40 MSTORE DUP1 SWAP3 SWAP2 SWAP1 DUP2 DUP2 MSTORE PUSH1 0x20 ADD DUP3 DUP1 SLOAD DUP1 ISZERO PUSH2 0xDF7 JUMPI PUSH1 0x20 MUL DUP3 ADD SWAP2 SWAP1 PUSH0 MSTORE PUSH1 0x20 PUSH0 KECCAK256 SWAP1 JUMPDEST DUP2 PUSH0 SWAP1 SLOAD SWAP1 PUSH2 0x100 EXP SWAP1 DIV PUSH20 0xFFFFFFFFFFFFFFFFFFFFFFFFFFFFFFFFFFFFFFFF AND PUSH20 0xFFFFFFFFFFFFFFFFFFFFFFFFFFFFFFFFFFFFFFFF AND DUP2 MSTORE PUSH1 0x20 ADD SWAP1 PUSH1 0x1 ADD SWAP1 DUP1 DUP4 GT PUSH2 0xDAE JUMPI JUMPDEST POP POP POP POP POP SWAP1 POP SWAP2 SWAP1 POP JUMP JUMPDEST PUSH0 DUP1 SLOAD SWAP1 PUSH2 0x100 EXP SWAP1 DIV PUSH20 0xFFFFFFFFFFFFFFFFFFFFFFFFFFFFFFFFFFFFFFFF AND DUP2 JUMP JUMPDEST PUSH1 0x3 PUSH1 0x20 MSTORE DUP1 PUSH0 MSTORE PUSH1 0x40 PUSH0 KECCAK256 PUSH0 SWAP2 POP SLOAD SWAP1 PUSH2 0x100 EXP SWAP1 DIV PUSH1 0xFF AND DUP2 JUMP JUMPDEST DUP3 DUP1 SLOAD DUP3 DUP3 SSTORE SWAP1 PUSH0 MSTORE PUSH1 0x20 PUSH0 KECCAK256 SWAP1 DUP2 ADD SWAP3 DUP3 ISZERO PUSH2 0xEB9 JUMPI SWAP2 PUSH1 0x20 MUL DUP3 ADD JUMPDEST DUP3 DUP2 GT ISZERO PUSH2 0xEB8 JUMPI DUP3 MLOAD DUP3 PUSH0 PUSH2 0x100 EXP DUP2 SLOAD DUP2 PUSH20 0xFFFFFFFFFFFFFFFFFFFFFFFFFFFFFFFFFFFFFFFF MUL NOT AND SWAP1 DUP4 PUSH20 0xFFFFFFFFFFFFFFFFFFFFFFFFFFFFFFFFFFFFFFFF AND MUL OR SWAP1 SSTORE POP SWAP2 PUSH1 0x20 ADD SWAP2 SWAP1 PUSH1 0x1 ADD SWAP1 PUSH2 0xE61 JUMP JUMPDEST JUMPDEST POP SWAP1 POP PUSH2 0xEC6 SWAP2 SWAP1 PUSH2 0xECA JUMP JUMPDEST POP SWAP1 JUMP JUMPDEST JUMPDEST DUP1 DUP3 GT ISZERO PUSH2 0xEE1 JUMPI PUSH0 DUP2 PUSH0 SWAP1 SSTORE POP PUSH1 0x1 ADD PUSH2 0xECB JUMP JUMPDEST POP SWAP1 JUMP JUMPDEST PUSH0 PUSH1 0x40 MLOAD SWAP1 POP SWAP1 JUMP JUMPDEST PUSH0 DUP1 REVERT JUMPDEST PUSH0 DUP1 REVERT JUMPDEST PUSH0 DUP2 SWAP1 POP SWAP2 SWAP1 POP JUMP JUMPDEST PUSH2 0xF08 DUP2 PUSH2 0xEF6 JUMP JUMPDEST DUP2 EQ PUSH2 0xF12 JUMPI PUSH0 DUP1 REVERT JUMPDEST POP JUMP JUMPDEST PUSH0 DUP2 CALLDATALOAD SWAP1 POP PUSH2 0xF23 DUP2 PUSH2 0xEFF JUMP JUMPDEST SWAP3 SWAP2 POP POP JUMP JUMPDEST PUSH0 PUSH20 0xFFFFFFFFFFFFFFFFFFFFFFFFFFFFFFFFFFFFFFFF DUP3 AND SWAP1 POP SWAP2 SWAP1 POP JUMP JUMPDEST PUSH0 PUSH2 0xF52 DUP3 PUSH2 0xF29 JUMP JUMPDEST SWAP1 POP SWAP2 SWAP1 POP JUMP JUMPDEST PUSH2 0xF62 DUP2 PUSH2 0xF48 JUMP JUMPDEST DUP2 EQ PUSH2 0xF6C JUMPI PUSH0 DUP1 REVERT JUMPDEST POP JUMP JUMPDEST PUSH0 DUP2 CALLDATALOAD SWAP1 POP PUSH2 0xF7D DUP2 PUSH2 0xF59 JUMP JUMPDEST SWAP3 SWAP2 POP POP JUMP JUMPDEST PUSH0 DUP1 PUSH1 0x40 DUP4 DUP6 SUB SLT ISZERO PUSH2 0xF99 JUMPI PUSH2 0xF98 PUSH2 0xEEE JUMP JUMPDEST JUMPDEST PUSH0 PUSH2 0xFA6 DUP6 DUP3 DUP7 ADD PUSH2 0xF15 JUMP JUMPDEST SWAP3 POP POP PUSH1 0x20 PUSH2 0xFB7 DUP6 DUP3 DUP7 ADD PUSH2 0xF6F JUMP JUMPDEST SWAP2 POP POP SWAP3 POP SWAP3 SWAP1 POP JUMP JUMPDEST PUSH2 0xFCA DUP2 PUSH2 0xF48 JUMP JUMPDEST DUP3 MSTORE POP POP JUMP JUMPDEST PUSH0 PUSH1 0x20 DUP3 ADD SWAP1 POP PUSH2 0xFE3 PUSH0 DUP4 ADD DUP5 PUSH2 0xFC1 JUMP JUMPDEST SWAP3 SWAP2 POP POP JUMP JUMPDEST PUSH0 PUSH1 0x20 DUP3 DUP5 SUB SLT ISZERO PUSH2 0xFFE JUMPI PUSH2 0xFFD PUSH2 0xEEE JUMP JUMPDEST JUMPDEST PUSH0 PUSH2 0x100B DUP5 DUP3 DUP6 ADD PUSH2 0xF15 JUMP JUMPDEST SWAP2 POP POP SWAP3 SWAP2 POP POP JUMP JUMPDEST PUSH2 0x101D DUP2 PUSH2 0xEF6 JUMP JUMPDEST DUP3 MSTORE POP POP JUMP JUMPDEST PUSH0 DUP2 MLOAD SWAP1 POP SWAP2 SWAP1 POP JUMP JUMPDEST PUSH0 DUP3 DUP3 MSTORE PUSH1 0x20 DUP3 ADD SWAP1 POP SWAP3 SWAP2 POP POP JUMP JUMPDEST DUP3 DUP2 DUP4 MCOPY PUSH0 DUP4 DUP4 ADD MSTORE POP POP POP JUMP JUMPDEST PUSH0 PUSH1 0x1F NOT PUSH1 0x1F DUP4 ADD AND SWAP1 POP SWAP2 SWAP1 POP JUMP JUMPDEST PUSH0 PUSH2 0x1065 DUP3 PUSH2 0x1023 JUMP JUMPDEST PUSH2 0x106F DUP2 DUP6 PUSH2 0x102D JUMP JUMPDEST SWAP4 POP PUSH2 0x107F DUP2 DUP6 PUSH1 0x20 DUP7 ADD PUSH2 0x103D JUMP JUMPDEST PUSH2 0x1088 DUP2 PUSH2 0x104B JUMP JUMPDEST DUP5 ADD SWAP2 POP POP SWAP3 SWAP2 POP POP JUMP JUMPDEST PUSH0 DUP2 ISZERO ISZERO SWAP1 POP SWAP2 SWAP1 POP JUMP JUMPDEST PUSH2 0x10A7 DUP2 PUSH2 0x1093 JUMP JUMPDEST DUP3 MSTORE POP POP JUMP JUMPDEST PUSH0 PUSH1 0x80 DUP3 ADD SWAP1 POP PUSH2 0x10C0 PUSH0 DUP4 ADD DUP8 PUSH2 0x1014 JUMP JUMPDEST DUP2 DUP2 SUB PUSH1 0x20 DUP4 ADD MSTORE PUSH2 0x10D2 DUP2 DUP7 PUSH2 0x105B JUMP JUMPDEST SWAP1 POP PUSH2 0x10E1 PUSH1 0x40 DUP4 ADD DUP6 PUSH2 0x109E JUMP JUMPDEST PUSH2 0x10EE PUSH1 0x60 DUP4 ADD DUP5 PUSH2 0xFC1 JUMP JUMPDEST SWAP6 SWAP5 POP POP POP POP POP JUMP JUMPDEST PUSH0 PUSH1 0x20 DUP3 DUP5 SUB SLT ISZERO PUSH2 0x110C JUMPI PUSH2 0x110B PUSH2 0xEEE JUMP JUMPDEST JUMPDEST PUSH0 PUSH2 0x1119 DUP5 DUP3 DUP6 ADD PUSH2 0xF6F JUMP JUMPDEST SWAP2 POP POP SWAP3 SWAP2 POP POP JUMP JUMPDEST PUSH0 DUP1 REVERT JUMPDEST PUSH0 DUP1 REVERT JUMPDEST PUSH32 0x4E487B7100000000000000000000000000000000000000000000000000000000 PUSH0 MSTORE PUSH1 0x41 PUSH1 0x4 MSTORE PUSH1 0x24 PUSH0 REVERT JUMPDEST PUSH2 0x1160 DUP3 PUSH2 0x104B JUMP JUMPDEST DUP2 ADD DUP2 DUP2 LT PUSH8 0xFFFFFFFFFFFFFFFF DUP3 GT OR ISZERO PUSH2 0x117F JUMPI PUSH2 0x117E PUSH2 0x112A JUMP JUMPDEST JUMPDEST DUP1 PUSH1 0x40 MSTORE POP POP POP JUMP JUMPDEST PUSH0 PUSH2 0x1191 PUSH2 0xEE5 JUMP JUMPDEST SWAP1 POP PUSH2 0x119D DUP3 DUP3 PUSH2 0x1157 JUMP JUMPDEST SWAP2 SWAP1 POP JUMP JUMPDEST PUSH0 PUSH8 0xFFFFFFFFFFFFFFFF DUP3 GT ISZERO PUSH2 0x11BC JUMPI PUSH2 0x11BB PUSH2 0x112A JUMP JUMPDEST JUMPDEST PUSH2 0x11C5 DUP3 PUSH2 0x104B JUMP JUMPDEST SWAP1 POP PUSH1 0x20 DUP2 ADD SWAP1 POP SWAP2 SWAP1 POP JUMP JUMPDEST DUP3 DUP2 DUP4 CALLDATACOPY PUSH0 DUP4 DUP4 ADD MSTORE POP POP POP JUMP JUMPDEST PUSH0 PUSH2 0x11F2 PUSH2 0x11ED DUP5 PUSH2 0x11A2 JUMP JUMPDEST PUSH2 0x1188 JUMP JUMPDEST SWAP1 POP DUP3 DUP2 MSTORE PUSH1 0x20 DUP2 ADD DUP5 DUP5 DUP5 ADD GT ISZERO PUSH2 0x120E JUMPI PUSH2 0x120D PUSH2 0x1126 JUMP JUMPDEST JUMPDEST PUSH2 0x1219 DUP5 DUP3 DUP6 PUSH2 0x11D2 JUMP JUMPDEST POP SWAP4 SWAP3 POP POP POP JUMP JUMPDEST PUSH0 DUP3 PUSH1 0x1F DUP4 ADD SLT PUSH2 0x1235 JUMPI PUSH2 0x1234 PUSH2 0x1122 JUMP JUMPDEST JUMPDEST DUP2 CALLDATALOAD PUSH2 0x1245 DUP5 DUP3 PUSH1 0x20 DUP7 ADD PUSH2 0x11E0 JUMP JUMPDEST SWAP2 POP POP SWAP3 SWAP2 POP POP JUMP JUMPDEST PUSH0 DUP1 PUSH1 0x40 DUP4 DUP6 SUB SLT ISZERO PUSH2 0x1264 JUMPI PUSH2 0x1263 PUSH2 0xEEE JUMP JUMPDEST JUMPDEST PUSH0 PUSH2 0x1271 DUP6 DUP3 DUP7 ADD PUSH2 0xF15 JUMP JUMPDEST SWAP3 POP POP PUSH1 0x20 DUP4 ADD CALLDATALOAD PUSH8 0xFFFFFFFFFFFFFFFF DUP2 GT ISZERO PUSH2 0x1292 JUMPI PUSH2 0x1291 PUSH2 0xEF2 JUMP JUMPDEST JUMPDEST PUSH2 0x129E DUP6 DUP3 DUP7 ADD PUSH2 0x1221 JUMP JUMPDEST SWAP2 POP POP SWAP3 POP SWAP3 SWAP1 POP JUMP JUMPDEST PUSH0 DUP2 MLOAD SWAP1 POP SWAP2 SWAP1 POP JUMP JUMPDEST PUSH0 DUP3 DUP3 MSTORE PUSH1 0x20 DUP3 ADD SWAP1 POP SWAP3 SWAP2 POP POP JUMP JUMPDEST PUSH0 DUP2 SWAP1 POP PUSH1 0x20 DUP3 ADD SWAP1 POP SWAP2 SWAP1 POP JUMP JUMPDEST PUSH2 0x12DA DUP2 PUSH2 0xF48 JUMP JUMPDEST DUP3 MSTORE POP POP JUMP JUMPDEST PUSH0 PUSH2 0x12EB DUP4 DUP4 PUSH2 0x12D1 JUMP JUMPDEST PUSH1 0x20 DUP4 ADD SWAP1 POP SWAP3 SWAP2 POP POP JUMP JUMPDEST PUSH0 PUSH1 0x20 DUP3 ADD SWAP1 POP SWAP2 SWAP1 POP JUMP JUMPDEST PUSH0 PUSH2 0x130D DUP3 PUSH2 0x12A8 JUMP JUMPDEST PUSH2 0x1317 DUP2 DUP6 PUSH2 0x12B2 JUMP JUMPDEST SWAP4 POP PUSH2 0x1322 DUP4 PUSH2 0x12C2 JUMP JUMPDEST DUP1 PUSH0 JUMPDEST DUP4 DUP2 LT ISZERO PUSH2 0x1352 JUMPI DUP2 MLOAD PUSH2 0x1339 DUP9 DUP3 PUSH2 0x12E0 JUMP JUMPDEST SWAP8 POP PUSH2 0x1344 DUP4 PUSH2 0x12F7 JUMP JUMPDEST SWAP3 POP POP PUSH1 0x1 DUP2 ADD SWAP1 POP PUSH2 0x1325 JUMP JUMPDEST POP DUP6 SWAP4 POP POP POP POP SWAP3 SWAP2 POP POP JUMP JUMPDEST PUSH0 PUSH1 0x20 DUP3 ADD SWAP1 POP DUP2 DUP2 SUB PUSH0 DUP4 ADD MSTORE PUSH2 0x1377 DUP2 DUP5 PUSH2 0x1303 JUMP JUMPDEST SWAP1 POP SWAP3 SWAP2 POP POP JUMP JUMPDEST PUSH0 DUP2 SWAP1 POP SWAP2 SWAP1 POP JUMP JUMPDEST PUSH0 PUSH2 0x13A2 PUSH2 0x139D PUSH2 0x1398 DUP5 PUSH2 0xF29 JUMP JUMPDEST PUSH2 0x137F JUMP JUMPDEST PUSH2 0xF29 JUMP JUMPDEST SWAP1 POP SWAP2 SWAP1 POP JUMP JUMPDEST PUSH0 PUSH2 0x13B3 DUP3 PUSH2 0x1388 JUMP JUMPDEST SWAP1 POP SWAP2 SWAP1 POP JUMP JUMPDEST PUSH0 PUSH2 0x13C4 DUP3 PUSH2 0x13A9 JUMP JUMPDEST SWAP1 POP SWAP2 SWAP1 POP JUMP JUMPDEST PUSH2 0x13D4 DUP2 PUSH2 0x13BA JUMP JUMPDEST DUP3 MSTORE POP POP JUMP JUMPDEST PUSH0 PUSH1 0x20 DUP3 ADD SWAP1 POP PUSH2 0x13ED PUSH0 DUP4 ADD DUP5 PUSH2 0x13CB JUMP JUMPDEST SWAP3 SWAP2 POP POP JUMP JUMPDEST PUSH0 PUSH1 0x20 DUP3 ADD SWAP1 POP PUSH2 0x1406 PUSH0 DUP4 ADD DUP5 PUSH2 0x109E JUMP JUMPDEST SWAP3 SWAP2 POP POP JUMP JUMPDEST PUSH32 0x4F6E6C79206D696E7420636F6E74726163742063616E2063616C6C0000000000 PUSH0 DUP3 ADD MSTORE POP JUMP JUMPDEST PUSH0 PUSH2 0x1440 PUSH1 0x1B DUP4 PUSH2 0x102D JUMP JUMPDEST SWAP2 POP PUSH2 0x144B DUP3 PUSH2 0x140C JUMP JUMPDEST PUSH1 0x20 DUP3 ADD SWAP1 POP SWAP2 SWAP1 POP JUMP JUMPDEST PUSH0 PUSH1 0x20 DUP3 ADD SWAP1 POP DUP2 DUP2 SUB PUSH0 DUP4 ADD MSTORE PUSH2 0x146D DUP2 PUSH2 0x1434 JUMP JUMPDEST SWAP1 POP SWAP2 SWAP1 POP JUMP JUMPDEST PUSH32 0x416C726561647920726567697374657265640000000000000000000000000000 PUSH0 DUP3 ADD MSTORE POP JUMP JUMPDEST PUSH0 PUSH2 0x14A8 PUSH1 0x12 DUP4 PUSH2 0x102D JUMP JUMPDEST SWAP2 POP PUSH2 0x14B3 DUP3 PUSH2 0x1474 JUMP JUMPDEST PUSH1 0x20 DUP3 ADD SWAP1 POP SWAP2 SWAP1 POP JUMP JUMPDEST PUSH0 PUSH1 0x20 DUP3 ADD SWAP1 POP DUP2 DUP2 SUB PUSH0 DUP4 ADD MSTORE PUSH2 0x14D5 DUP2 PUSH2 0x149C JUMP JUMPDEST SWAP1 POP SWAP2 SWAP1 POP JUMP JUMPDEST PUSH32 0x4E487B7100000000000000000000000000000000000000000000000000000000 PUSH0 MSTORE PUSH1 0x22 PUSH1 0x4 MSTORE PUSH1 0x24 PUSH0 REVERT JUMPDEST PUSH0 PUSH1 0x2 DUP3 DIV SWAP1 POP PUSH1 0x1 DUP3 AND DUP1 PUSH2 0x1520 JUMPI PUSH1 0x7F DUP3 AND SWAP2 POP JUMPDEST PUSH1 0x20 DUP3 LT DUP2 SUB PUSH2 0x1533 JUMPI PUSH2 0x1532 PUSH2 0x14DC JUMP JUMPDEST JUMPDEST POP SWAP2 SWAP1 POP JUMP JUMPDEST PUSH0 DUP2 SWAP1 POP DUP2 PUSH0 MSTORE PUSH1 0x20 PUSH0 KECCAK256 SWAP1 POP SWAP2 SWAP1 POP JUMP JUMPDEST PUSH0 PUSH1 0x20 PUSH1 0x1F DUP4 ADD DIV SWAP1 POP SWAP2 SWAP1 POP JUMP JUMPDEST PUSH0 DUP3 DUP3 SHL SWAP1 POP SWAP3 SWAP2 POP POP JUMP JUMPDEST PUSH0 PUSH1 0x8 DUP4 MUL PUSH2 0x1595 PUSH32 0xFFFFFFFFFFFFFFFFFFFFFFFFFFFFFFFFFFFFFFFFFFFFFFFFFFFFFFFFFFFFFFFF DUP3 PUSH2 0x155A JUMP JUMPDEST PUSH2 0x159F DUP7 DUP4 PUSH2 0x155A JUMP JUMPDEST SWAP6 POP DUP1 NOT DUP5 AND SWAP4 POP DUP1 DUP7 AND DUP5 OR SWAP3 POP POP POP SWAP4 SWAP3 POP POP POP JUMP JUMPDEST PUSH0 PUSH2 0x15D1 PUSH2 0x15CC PUSH2 0x15C7 DUP5 PUSH2 0xEF6 JUMP JUMPDEST PUSH2 0x137F JUMP JUMPDEST PUSH2 0xEF6 JUMP JUMPDEST SWAP1 POP SWAP2 SWAP1 POP JUMP JUMPDEST PUSH0 DUP2 SWAP1 POP SWAP2 SWAP1 POP JUMP JUMPDEST PUSH2 0x15EA DUP4 PUSH2 0x15B7 JUMP JUMPDEST PUSH2 0x15FE PUSH2 0x15F6 DUP3 PUSH2 0x15D8 JUMP JUMPDEST DUP5 DUP5 SLOAD PUSH2 0x1566 JUMP JUMPDEST DUP3 SSTORE POP POP POP POP JUMP JUMPDEST PUSH0 SWAP1 JUMP JUMPDEST PUSH2 0x1612 PUSH2 0x1606 JUMP JUMPDEST PUSH2 0x161D DUP2 DUP5 DUP5 PUSH2 0x15E1 JUMP JUMPDEST POP POP POP JUMP JUMPDEST JUMPDEST DUP2 DUP2 LT ISZERO PUSH2 0x1640 JUMPI PUSH2 0x1635 PUSH0 DUP3 PUSH2 0x160A JUMP JUMPDEST PUSH1 0x1 DUP2 ADD SWAP1 POP PUSH2 0x1623 JUMP JUMPDEST POP POP JUMP JUMPDEST PUSH1 0x1F DUP3 GT ISZERO PUSH2 0x1685 JUMPI PUSH2 0x1656 DUP2 PUSH2 0x1539 JUMP JUMPDEST PUSH2 0x165F DUP5 PUSH2 0x154B JUMP JUMPDEST DUP2 ADD PUSH1 0x20 DUP6 LT ISZERO PUSH2 0x166E JUMPI DUP2 SWAP1 POP JUMPDEST PUSH2 0x1682 PUSH2 0x167A DUP6 PUSH2 0x154B JUMP JUMPDEST DUP4 ADD DUP3 PUSH2 0x1622 JUMP JUMPDEST POP POP JUMPDEST POP POP POP JUMP JUMPDEST PUSH0 DUP3 DUP3 SHR SWAP1 POP SWAP3 SWAP2 POP POP JUMP JUMPDEST PUSH0 PUSH2 0x16A5 PUSH0 NOT DUP5 PUSH1 0x8 MUL PUSH2 0x168A JUMP JUMPDEST NOT DUP1 DUP4 AND SWAP2 POP POP SWAP3 SWAP2 POP POP JUMP JUMPDEST PUSH0 PUSH2 0x16BD DUP4 DUP4 PUSH2 0x1696 JUMP JUMPDEST SWAP2 POP DUP3 PUSH1 0x2 MUL DUP3 OR SWAP1 POP SWAP3 SWAP2 POP POP JUMP JUMPDEST PUSH2 0x16D6 DUP3 PUSH2 0x1023 JUMP JUMPDEST PUSH8 0xFFFFFFFFFFFFFFFF DUP2 GT ISZERO PUSH2 0x16EF JUMPI PUSH2 0x16EE PUSH2 0x112A JUMP JUMPDEST JUMPDEST PUSH2 0x16F9 DUP3 SLOAD PUSH2 0x1509 JUMP JUMPDEST PUSH2 0x1704 DUP3 DUP3 DUP6 PUSH2 0x1644 JUMP JUMPDEST PUSH0 PUSH1 0x20 SWAP1 POP PUSH1 0x1F DUP4 GT PUSH1 0x1 DUP2 EQ PUSH2 0x1735 JUMPI PUSH0 DUP5 ISZERO PUSH2 0x1723 JUMPI DUP3 DUP8 ADD MLOAD SWAP1 POP JUMPDEST PUSH2 0x172D DUP6 DUP3 PUSH2 0x16B2 JUMP JUMPDEST DUP7 SSTORE POP PUSH2 0x1794 JUMP JUMPDEST PUSH1 0x1F NOT DUP5 AND PUSH2 0x1743 DUP7 PUSH2 0x1539 JUMP JUMPDEST PUSH0 JUMPDEST DUP3 DUP2 LT ISZERO PUSH2 0x176A JUMPI DUP5 DUP10 ADD MLOAD DUP3 SSTORE PUSH1 0x1 DUP3 ADD SWAP2 POP PUSH1 0x20 DUP6 ADD SWAP5 POP PUSH1 0x20 DUP2 ADD SWAP1 POP PUSH2 0x1745 JUMP JUMPDEST DUP7 DUP4 LT ISZERO PUSH2 0x1787 JUMPI DUP5 DUP10 ADD MLOAD PUSH2 0x1783 PUSH1 0x1F DUP10 AND DUP3 PUSH2 0x1696 JUMP JUMPDEST DUP4 SSTORE POP JUMPDEST PUSH1 0x1 PUSH1 0x2 DUP9 MUL ADD DUP9 SSTORE POP POP POP JUMPDEST POP POP POP POP POP POP JUMP JUMPDEST PUSH32 0x4E487B7100000000000000000000000000000000000000000000000000000000 PUSH0 MSTORE PUSH1 0x32 PUSH1 0x4 MSTORE PUSH1 0x24 PUSH0 REVERT JUMPDEST POP JUMP JUMPDEST PUSH0 PUSH2 0x17D7 PUSH0 DUP4 PUSH2 0x102D JUMP JUMPDEST SWAP2 POP PUSH2 0x17E2 DUP3 PUSH2 0x17C9 JUMP JUMPDEST PUSH0 DUP3 ADD SWAP1 POP SWAP2 SWAP1 POP JUMP JUMPDEST PUSH0 PUSH1 0x60 DUP3 ADD SWAP1 POP PUSH2 0x17FF PUSH0 DUP4 ADD DUP6 PUSH2 0x1014 JUMP JUMPDEST DUP2 DUP2 SUB PUSH1 0x20 DUP4 ADD MSTORE PUSH2 0x1810 DUP2 PUSH2 0x17CC JUMP JUMPDEST SWAP1 POP PUSH2 0x181F PUSH1 0x40 DUP4 ADD DUP5 PUSH2 0xFC1 JUMP JUMPDEST SWAP4 SWAP3 POP POP POP JUMP JUMPDEST PUSH32 0x4E6F742063757272656E74206F776E6572000000000000000000000000000000 PUSH0 DUP3 ADD MSTORE POP JUMP JUMPDEST PUSH0 PUSH2 0x185A PUSH1 0x11 DUP4 PUSH2 0x102D JUMP JUMPDEST SWAP2 POP PUSH2 0x1865 DUP3 PUSH2 0x1826 JUMP JUMPDEST PUSH1 0x20 DUP3 ADD SWAP1 POP SWAP2 SWAP1 POP JUMP JUMPDEST PUSH0 PUSH1 0x20 DUP3 ADD SWAP1 POP DUP2 DUP2 SUB PUSH0 DUP4 ADD MSTORE PUSH2 0x1887 DUP2 PUSH2 0x184E JUMP JUMPDEST SWAP1 POP SWAP2 SWAP1 POP JUMP JUMPDEST PUSH0 PUSH1 0x60 DUP3 ADD SWAP1 POP PUSH2 0x18A1 PUSH0 DUP4 ADD DUP7 PUSH2 0x1014 JUMP JUMPDEST PUSH2 0x18AE PUSH1 0x20 DUP4 ADD DUP6 PUSH2 0xFC1 JUMP JUMPDEST PUSH2 0x18BB PUSH1 0x40 DUP4 ADD DUP5 PUSH2 0xFC1 JUMP JUMPDEST SWAP5 SWAP4 POP POP POP POP JUMP JUMPDEST PUSH32 0x4E6F7420617574686F726973656420746F207665726966790000000000000000 PUSH0 DUP3 ADD MSTORE POP JUMP JUMPDEST PUSH0 PUSH2 0x18F7 PUSH1 0x18 DUP4 PUSH2 0x102D JUMP JUMPDEST SWAP2 POP PUSH2 0x1902 DUP3 PUSH2 0x18C3 JUMP JUMPDEST PUSH1 0x20 DUP3 ADD SWAP1 POP SWAP2 SWAP1 POP JUMP JUMPDEST PUSH0 PUSH1 0x20 DUP3 ADD SWAP1 POP DUP2 DUP2 SUB PUSH0 DUP4 ADD MSTORE PUSH2 0x1924 DUP2 PUSH2 0x18EB JUMP JUMPDEST SWAP1 POP SWAP2 SWAP1 POP JUMP JUMPDEST PUSH32 0x50726F64756374206E6F74207265676973746572656400000000000000000000 PUSH0 DUP3 ADD MSTORE POP JUMP JUMPDEST PUSH0 PUSH2 0x195F PUSH1 0x16 DUP4 PUSH2 0x102D JUMP JUMPDEST SWAP2 POP PUSH2 0x196A DUP3 PUSH2 0x192B JUMP JUMPDEST PUSH1 0x20 DUP3 ADD SWAP1 POP SWAP2 SWAP1 POP JUMP JUMPDEST PUSH0 PUSH1 0x20 DUP3 ADD SWAP1 POP DUP2 DUP2 SUB PUSH0 DUP4 ADD MSTORE PUSH2 0x198C DUP2 PUSH2 0x1953 JUMP JUMPDEST SWAP1 POP SWAP2 SWAP1 POP JUMP JUMPDEST PUSH0 PUSH1 0x40 DUP3 ADD SWAP1 POP PUSH2 0x19A6 PUSH0 DUP4 ADD DUP6 PUSH2 0x1014 JUMP JUMPDEST PUSH2 0x19B3 PUSH1 0x20 DUP4 ADD DUP5 PUSH2 0xFC1 JUMP JUMPDEST SWAP4 SWAP3 POP POP POP JUMP JUMPDEST PUSH32 0x4F6E6C79206D616E7566616374757265722063616E2063616C6C000000000000 PUSH0 DUP3 ADD MSTORE POP JUMP JUMPDEST PUSH0 PUSH2 0x19EE PUSH1 0x1A DUP4 PUSH2 0x102D JUMP JUMPDEST SWAP2 POP PUSH2 0x19F9 DUP3 PUSH2 0x19BA JUMP JUMPDEST PUSH1 0x20 DUP3 ADD SWAP1 POP SWAP2 SWAP1 POP JUMP JUMPDEST PUSH0 PUSH1 0x20 DUP3 ADD SWAP1 POP DUP2 DUP2 SUB PUSH0 DUP4 ADD MSTORE PUSH2 0x1A1B DUP2 PUSH2 0x19E2 JUMP JUMPDEST SWAP1 POP SWAP2 SWAP1 POP JUMP JUMPDEST PUSH0 PUSH1 0x20 DUP3 ADD SWAP1 POP PUSH2 0x1A35 PUSH0 DUP4 ADD DUP5 PUSH2 0x1014 JUMP JUMPDEST SWAP3 SWAP2 POP POP JUMP JUMPDEST PUSH0 DUP2 MLOAD SWAP1 POP PUSH2 0x1A49 DUP2 PUSH2 0xF59 JUMP JUMPDEST SWAP3 SWAP2 POP POP JUMP JUMPDEST PUSH0 PUSH1 0x20 DUP3 DUP5 SUB SLT ISZERO PUSH2 0x1A64 JUMPI PUSH2 0x1A63 PUSH2 0xEEE JUMP JUMPDEST JUMPDEST PUSH0 PUSH2 0x1A71 DUP5 DUP3 DUP6 ADD PUSH2 0x1A3B JUMP JUMPDEST SWAP2 POP POP SWAP3 SWAP2 POP POP JUMP JUMPDEST PUSH0 PUSH1 0x60 DUP3 ADD SWAP1 POP PUSH2 0x1A8D PUSH0 DUP4 ADD DUP7 PUSH2 0x1014 JUMP JUMPDEST DUP2 DUP2 SUB PUSH1 0x20 DUP4 ADD MSTORE PUSH2 0x1A9F DUP2 DUP6 PUSH2 0x105B JUMP JUMPDEST SWAP1 POP PUSH2 0x1AAE PUSH1 0x40 DUP4 ADD DUP5 PUSH2 0xFC1 JUMP JUMPDEST SWAP5 SWAP4 POP POP POP POP JUMP INVALID LOG2 PUSH5 0x6970667358 0x22 SLT KECCAK256 EXTCODESIZE 0xE2 0xDA MLOAD 0xAF XOR MSIZE DUP6 PUSH26 0x2CD6860802A38C57484B970420A2D4340C1DEA54B631E364736F PUSH13 0x634300081A0033000000000000 "
				},
				"gasEstimates": {
					"creation": {
						"codeDepositCost": "1378400",
						"executionCost": "infinite",
						"totalCost": "infinite"
					},
					"external": {
						"addVerifier(address)": "26972",
						"authorisedVerifiers(address)": "2921",
						"getHistory(uint256)": "infinite",
						"manufacturer()": "2553",
						"mintContract()": "infinite",
						"onMint(uint256,address)": "infinite",
						"products(uint256)": "infinite",
						"register(uint256,string)": "infinite",
						"transferOwnership(uint256,address)": "infinite",
						"verify(uint256)": "infinite"
					}
				},
				"methodIdentifiers": {
					"addVerifier(address)": "9000b3d6",
					"authorisedVerifiers(address)": "f9281222",
					"getHistory(uint256)": "c8691b2a",
					"manufacturer()": "74754282",
					"mintContract()": "d0b6b6db",
					"onMint(uint256,address)": "154f265f",
					"products(uint256)": "7acc0b20",
					"register(uint256,string)": "a00fd3c8",
					"transferOwnership(uint256,address)": "29507f73",
					"verify(uint256)": "8753367f"
				}
			},
			"storageLayout": {
				"storage": [
					{
						"astId": 12,
						"contract": "Control.sol:ControlContract",
						"label": "mintContract",
						"offset": 0,
						"slot": "0",
						"type": "t_contract(ISimpleMint)9"
					},
					{
						"astId": 14,
						"contract": "Control.sol:ControlContract",
						"label": "manufacturer",
						"offset": 0,
						"slot": "1",
						"type": "t_address"
					},
					{
						"astId": 31,
						"contract": "Control.sol:ControlContract",
						"label": "products",
						"offset": 0,
						"slot": "2",
						"type": "t_mapping(t_uint256,t_struct(Product)26_storage)"
					},
					{
						"astId": 35,
						"contract": "Control.sol:ControlContract",
						"label": "authorisedVerifiers",
						"offset": 0,
						"slot": "3",
						"type": "t_mapping(t_address,t_bool)"
					}
				],
				"types": {
					"t_address": {
						"encoding": "inplace",
						"label": "address",
						"numberOfBytes": "20"
					},
					"t_array(t_address)dyn_storage": {
						"base": "t_address",
						"encoding": "dynamic_array",
						"label": "address[]",
						"numberOfBytes": "32"
					},
					"t_bool": {
						"encoding": "inplace",
						"label": "bool",
						"numberOfBytes": "1"
					},
					"t_contract(ISimpleMint)9": {
						"encoding": "inplace",
						"label": "contract ISimpleMint",
						"numberOfBytes": "20"
					},
					"t_mapping(t_address,t_bool)": {
						"encoding": "mapping",
						"key": "t_address",
						"label": "mapping(address => bool)",
						"numberOfBytes": "32",
						"value": "t_bool"
					},
					"t_mapping(t_uint256,t_struct(Product)26_storage)": {
						"encoding": "mapping",
						"key": "t_uint256",
						"label": "mapping(uint256 => struct ControlContract.Product)",
						"numberOfBytes": "32",
						"value": "t_struct(Product)26_storage"
					},
					"t_string_storage": {
						"encoding": "bytes",
						"label": "string",
						"numberOfBytes": "32"
					},
					"t_struct(Product)26_storage": {
						"encoding": "inplace",
						"label": "struct ControlContract.Product",
						"members": [
							{
								"astId": 16,
								"contract": "Control.sol:ControlContract",
								"label": "tokenID",
								"offset": 0,
								"slot": "0",
								"type": "t_uint256"
							},
							{
								"astId": 18,
								"contract": "Control.sol:ControlContract",
								"label": "qrCode",
								"offset": 0,
								"slot": "1",
								"type": "t_string_storage"
							},
							{
								"astId": 20,
								"contract": "Control.sol:ControlContract",
								"label": "verified",
								"offset": 0,
								"slot": "2",
								"type": "t_bool"
							},
							{
								"astId": 22,
								"contract": "Control.sol:ControlContract",
								"label": "currentOwner",
								"offset": 1,
								"slot": "2",
								"type": "t_address"
							},
							{
								"astId": 25,
								"contract": "Control.sol:ControlContract",
								"label": "history",
								"offset": 0,
								"slot": "3",
								"type": "t_array(t_address)dyn_storage"
							}
						],
						"numberOfBytes": "128"
					},
					"t_uint256": {
						"encoding": "inplace",
						"label": "uint256",
						"numberOfBytes": "32"
					}
				}
			},
			"userdoc": {
				"kind": "user",
				"methods": {},
				"version": 1
			}
		}
	}
}