{
	"Sale.sol": {
		"SaleContract": {
			"abi": [
				{
					"inputs": [
						{
							"internalType": "address",
							"name": "_nftAddress",
							"type": "address"
						}
					],
					"stateMutability": "nonpayable",
					"type": "constructor"
				},
				{
					"anonymous": false,
					"inputs": [
						{
							"indexed": false,
							"internalType": "uint256",
							"name": "tokenId",
							"type": "uint256"
						},
						{
							"indexed": false,
							"internalType": "string",
							"name": "productName",
							"type": "string"
						},
						{
							"indexed": false,
							"internalType": "address",
							"name": "seller",
							"type": "address"
						},
						{
							"indexed": false,
							"internalType": "address",
							"name": "buyer",
							"type": "address"
						},
						{
							"indexed": false,
							"internalType": "uint256",
							"name": "price",
							"type": "uint256"
						}
					],
					"name": "ProductTransfer",
					"type": "event"
				},
				{
					"anonymous": false,
					"inputs": [
						{
							"indexed": false,
							"internalType": "uint256",
							"name": "tokenId",
							"type": "uint256"
						},
						{
							"indexed": false,
							"internalType": "string",
							"name": "productName",
							"type": "string"
						},
						{
							"indexed": false,
							"internalType": "address",
							"name": "seller",
							"type": "address"
						},
						{
							"indexed": false,
							"internalType": "uint256",
							"name": "price",
							"type": "uint256"
						}
					],
					"name": "SaleListed",
					"type": "event"
				},
				{
					"inputs": [],
					"name": "nft",
					"outputs": [
						{
							"internalType": "contract IProductNFT",
							"name": "",
							"type": "address"
						}
					],
					"stateMutability": "view",
					"type": "function"
				},
				{
					"inputs": [],
					"name": "nftAddress",
					"outputs": [
						{
							"internalType": "address",
							"name": "",
							"type": "address"
						}
					],
					"stateMutability": "view",
					"type": "function"
				},
				{
					"inputs": [
						{
							"internalType": "uint256",
							"name": "tokenId",
							"type": "uint256"
						},
						{
							"internalType": "string",
							"name": "_productName",
							"type": "string"
						},
						{
							"internalType": "uint256",
							"name": "price",
							"type": "uint256"
						}
					],
					"name": "sale",
					"outputs": [],
					"stateMutability": "nonpayable",
					"type": "function"
				},
				{
					"inputs": [
						{
							"internalType": "uint256",
							"name": "",
							"type": "uint256"
						}
					],
					"name": "sales",
					"outputs": [
						{
							"internalType": "string",
							"name": "productName",
							"type": "string"
						},
						{
							"internalType": "address",
							"name": "seller",
							"type": "address"
						},
						{
							"internalType": "uint256",
							"name": "price",
							"type": "uint256"
						},
						{
							"internalType": "bool",
							"name": "isActive",
							"type": "bool"
						}
					],
					"stateMutability": "view",
					"type": "function"
				},
				{
					"inputs": [
						{
							"internalType": "uint256",
							"name": "tokenId",
							"type": "uint256"
						},
						{
							"internalType": "address",
							"name": "buyer",
							"type": "address"
						}
					],
					"name": "transfer",
					"outputs": [],
					"stateMutability": "nonpayable",
					"type": "function"
				}
			],
			"devdoc": {
				"kind": "dev",
				"methods": {},
				"version": 1
			},
			"evm": {
				"assembly": "    /* \"Sale.sol\":308:2773  contract SaleContract {... */\n  mstore(0x40, 0x80)\n    /* \"Sale.sol\":1280:1396  constructor(address _nftAddress) {... */\n  callvalue\n  dup1\n  iszero\n  tag_1\n  jumpi\n  0x00\n  dup1\n  revert\ntag_1:\n  pop\n  mload(0x40)\n  sub(codesize, bytecodeSize)\n  dup1\n  bytecodeSize\n  dup4\n  codecopy\n  dup2\n  dup2\n  add\n  0x40\n  mstore\n  dup2\n  add\n  swap1\n  tag_2\n  swap2\n  swap1\n  tag_3\n  jump\t// in\ntag_2:\n    /* \"Sale.sol\":1337:1348  _nftAddress */\n  dup1\n    /* \"Sale.sol\":1324:1334  nftAddress */\n  0x00\n  dup1\n    /* \"Sale.sol\":1324:1348  nftAddress = _nftAddress */\n  0x0100\n  exp\n  dup2\n  sload\n  dup2\n  0xffffffffffffffffffffffffffffffffffffffff\n  mul\n  not\n  and\n  swap1\n  dup4\n  0xffffffffffffffffffffffffffffffffffffffff\n  and\n  mul\n  or\n  swap1\n  sstore\n  pop\n    /* \"Sale.sol\":1377:1387  nftAddress */\n  0x00\n  dup1\n  sload\n  swap1\n  0x0100\n  exp\n  swap1\n  div\n  0xffffffffffffffffffffffffffffffffffffffff\n  and\n    /* \"Sale.sol\":1359:1362  nft */\n  0x01\n  0x00\n    /* \"Sale.sol\":1359:1388  nft = IProductNFT(nftAddress) */\n  0x0100\n  exp\n  dup2\n  sload\n  dup2\n  0xffffffffffffffffffffffffffffffffffffffff\n  mul\n  not\n  and\n  swap1\n  dup4\n  0xffffffffffffffffffffffffffffffffffffffff\n  and\n  mul\n  or\n  swap1\n  sstore\n  pop\n    /* \"Sale.sol\":1280:1396  constructor(address _nftAddress) {... */\n  pop\n    /* \"Sale.sol\":308:2773  contract SaleContract {... */\n  jump(tag_6)\n    /* \"#utility.yul\":88:205   */\ntag_8:\n    /* \"#utility.yul\":197:198   */\n  0x00\n    /* \"#utility.yul\":194:195   */\n  dup1\n    /* \"#utility.yul\":187:199   */\n  revert\n    /* \"#utility.yul\":334:460   */\ntag_10:\n    /* \"#utility.yul\":371:378   */\n  0x00\n    /* \"#utility.yul\":411:453   */\n  0xffffffffffffffffffffffffffffffffffffffff\n    /* \"#utility.yul\":404:409   */\n  dup3\n    /* \"#utility.yul\":400:454   */\n  and\n    /* \"#utility.yul\":389:454   */\n  swap1\n  pop\n    /* \"#utility.yul\":334:460   */\n  swap2\n  swap1\n  pop\n  jump\t// out\n    /* \"#utility.yul\":466:562   */\ntag_11:\n    /* \"#utility.yul\":503:510   */\n  0x00\n    /* \"#utility.yul\":532:556   */\n  tag_20\n    /* \"#utility.yul\":550:555   */\n  dup3\n    /* \"#utility.yul\":532:556   */\n  tag_10\n  jump\t// in\ntag_20:\n    /* \"#utility.yul\":521:556   */\n  swap1\n  pop\n    /* \"#utility.yul\":466:562   */\n  swap2\n  swap1\n  pop\n  jump\t// out\n    /* \"#utility.yul\":568:690   */\ntag_12:\n    /* \"#utility.yul\":641:665   */\n  tag_22\n    /* \"#utility.yul\":659:664   */\n  dup2\n    /* \"#utility.yul\":641:665   */\n  tag_11\n  jump\t// in\ntag_22:\n    /* \"#utility.yul\":634:639   */\n  dup2\n    /* \"#utility.yul\":631:666   */\n  eq\n    /* \"#utility.yul\":621:684   */\n  tag_23\n  jumpi\n    /* \"#utility.yul\":680:681   */\n  0x00\n    /* \"#utility.yul\":677:678   */\n  dup1\n    /* \"#utility.yul\":670:682   */\n  revert\n    /* \"#utility.yul\":621:684   */\ntag_23:\n    /* \"#utility.yul\":568:690   */\n  pop\n  jump\t// out\n    /* \"#utility.yul\":696:839   */\ntag_13:\n    /* \"#utility.yul\":753:758   */\n  0x00\n    /* \"#utility.yul\":784:790   */\n  dup2\n    /* \"#utility.yul\":778:791   */\n  mload\n    /* \"#utility.yul\":769:791   */\n  swap1\n  pop\n    /* \"#utility.yul\":800:833   */\n  tag_25\n    /* \"#utility.yul\":827:832   */\n  dup2\n    /* \"#utility.yul\":800:833   */\n  tag_12\n  jump\t// in\ntag_25:\n    /* \"#utility.yul\":696:839   */\n  swap3\n  swap2\n  pop\n  pop\n  jump\t// out\n    /* \"#utility.yul\":845:1196   */\ntag_3:\n    /* \"#utility.yul\":915:921   */\n  0x00\n    /* \"#utility.yul\":964:966   */\n  0x20\n    /* \"#utility.yul\":952:961   */\n  dup3\n    /* \"#utility.yul\":943:950   */\n  dup5\n    /* \"#utility.yul\":939:962   */\n  sub\n    /* \"#utility.yul\":935:967   */\n  slt\n    /* \"#utility.yul\":932:1051   */\n  iszero\n  tag_27\n  jumpi\n    /* \"#utility.yul\":970:1049   */\n  tag_28\n  tag_8\n  jump\t// in\ntag_28:\n    /* \"#utility.yul\":932:1051   */\ntag_27:\n    /* \"#utility.yul\":1090:1091   */\n  0x00\n    /* \"#utility.yul\":1115:1179   */\n  tag_29\n    /* \"#utility.yul\":1171:1178   */\n  dup5\n    /* \"#utility.yul\":1162:1168   */\n  dup3\n    /* \"#utility.yul\":1151:1160   */\n  dup6\n    /* \"#utility.yul\":1147:1169   */\n  add\n    /* \"#utility.yul\":1115:1179   */\n  tag_13\n  jump\t// in\ntag_29:\n    /* \"#utility.yul\":1105:1179   */\n  swap2\n  pop\n    /* \"#utility.yul\":1061:1189   */\n  pop\n    /* \"#utility.yul\":845:1196   */\n  swap3\n  swap2\n  pop\n  pop\n  jump\t// out\n    /* \"Sale.sol\":308:2773  contract SaleContract {... */\ntag_6:\n  dataSize(sub_0)\n  dup1\n  dataOffset(sub_0)\n  0x00\n  codecopy\n  0x00\n  return\nstop\n\nsub_0: assembly {\n        /* \"Sale.sol\":308:2773  contract SaleContract {... */\n      mstore(0x40, 0x80)\n      callvalue\n      dup1\n      iszero\n      tag_1\n      jumpi\n      0x00\n      dup1\n      revert\n    tag_1:\n      pop\n      jumpi(tag_2, lt(calldatasize, 0x04))\n      shr(0xe0, calldataload(0x00))\n      dup1\n      0x47ccca02\n      eq\n      tag_3\n      jumpi\n      dup1\n      0x5bf8633a\n      eq\n      tag_4\n      jumpi\n      dup1\n      0xa08b37a8\n      eq\n      tag_5\n      jumpi\n      dup1\n      0xb5f522f7\n      eq\n      tag_6\n      jumpi\n      dup1\n      0xb7760c8f\n      eq\n      tag_7\n      jumpi\n    tag_2:\n      0x00\n      dup1\n      revert\n        /* \"Sale.sol\":415:437  IProductNFT public nft */\n    tag_3:\n      tag_8\n      tag_9\n      jump\t// in\n    tag_8:\n      mload(0x40)\n      tag_10\n      swap2\n      swap1\n      tag_11\n      jump\t// in\n    tag_10:\n      mload(0x40)\n      dup1\n      swap2\n      sub\n      swap1\n      return\n        /* \"Sale.sol\":337:362  address public nftAddress */\n    tag_4:\n      tag_12\n      tag_13\n      jump\t// in\n    tag_12:\n      mload(0x40)\n      tag_14\n      swap2\n      swap1\n      tag_15\n      jump\t// in\n    tag_14:\n      mload(0x40)\n      dup1\n      swap2\n      sub\n      swap1\n      return\n        /* \"Sale.sol\":1881:2128  function sale(uint256 tokenId, string memory _productName, uint256 price) public onlyOwner(tokenId) {... */\n    tag_5:\n      tag_16\n      0x04\n      dup1\n      calldatasize\n      sub\n      dup2\n      add\n      swap1\n      tag_17\n      swap2\n      swap1\n      tag_18\n      jump\t// in\n    tag_17:\n      tag_19\n      jump\t// in\n    tag_16:\n      stop\n        /* \"Sale.sol\":860:897  mapping(uint256 => Sale) public sales */\n    tag_6:\n      tag_20\n      0x04\n      dup1\n      calldatasize\n      sub\n      dup2\n      add\n      swap1\n      tag_21\n      swap2\n      swap1\n      tag_22\n      jump\t// in\n    tag_21:\n      tag_23\n      jump\t// in\n    tag_20:\n      mload(0x40)\n      tag_24\n      swap5\n      swap4\n      swap3\n      swap2\n      swap1\n      tag_25\n      jump\t// in\n    tag_24:\n      mload(0x40)\n      dup1\n      swap2\n      sub\n      swap1\n      return\n        /* \"Sale.sol\":2210:2770  function transfer(uint256 tokenId, address buyer) public onlySeller(tokenId) {... */\n    tag_7:\n      tag_26\n      0x04\n      dup1\n      calldatasize\n      sub\n      dup2\n      add\n      swap1\n      tag_27\n      swap2\n      swap1\n      tag_28\n      jump\t// in\n    tag_27:\n      tag_29\n      jump\t// in\n    tag_26:\n      stop\n        /* \"Sale.sol\":415:437  IProductNFT public nft */\n    tag_9:\n      0x01\n      0x00\n      swap1\n      sload\n      swap1\n      0x0100\n      exp\n      swap1\n      div\n      0xffffffffffffffffffffffffffffffffffffffff\n      and\n      dup2\n      jump\t// out\n        /* \"Sale.sol\":337:362  address public nftAddress */\n    tag_13:\n      0x00\n      dup1\n      sload\n      swap1\n      0x0100\n      exp\n      swap1\n      div\n      0xffffffffffffffffffffffffffffffffffffffff\n      and\n      dup2\n      jump\t// out\n        /* \"Sale.sol\":1881:2128  function sale(uint256 tokenId, string memory _productName, uint256 price) public onlyOwner(tokenId) {... */\n    tag_19:\n        /* \"Sale.sol\":1972:1979  tokenId */\n      dup3\n        /* \"Sale.sol\":1539:1549  msg.sender */\n      caller\n        /* \"Sale.sol\":1515:1549  nft.ownerOf(tokenId) == msg.sender */\n      0xffffffffffffffffffffffffffffffffffffffff\n      and\n        /* \"Sale.sol\":1515:1518  nft */\n      0x01\n      0x00\n      swap1\n      sload\n      swap1\n      0x0100\n      exp\n      swap1\n      div\n      0xffffffffffffffffffffffffffffffffffffffff\n      and\n        /* \"Sale.sol\":1515:1526  nft.ownerOf */\n      0xffffffffffffffffffffffffffffffffffffffff\n      and\n      0x6352211e\n        /* \"Sale.sol\":1527:1534  tokenId */\n      dup4\n        /* \"Sale.sol\":1515:1535  nft.ownerOf(tokenId) */\n      mload(0x40)\n      dup3\n      0xffffffff\n      and\n      0xe0\n      shl\n      dup2\n      mstore\n      0x04\n      add\n      tag_31\n      swap2\n      swap1\n      tag_32\n      jump\t// in\n    tag_31:\n      0x20\n      mload(0x40)\n      dup1\n      dup4\n      sub\n      dup2\n      dup7\n      gas\n      staticcall\n      iszero\n      dup1\n      iszero\n      tag_34\n      jumpi\n      returndatasize\n      0x00\n      dup1\n      returndatacopy\n      revert(0x00, returndatasize)\n    tag_34:\n      pop\n      pop\n      pop\n      pop\n      mload(0x40)\n      returndatasize\n      not(0x1f)\n      0x1f\n      dup3\n      add\n      and\n      dup3\n      add\n      dup1\n      0x40\n      mstore\n      pop\n      dup2\n      add\n      swap1\n      tag_35\n      swap2\n      swap1\n      tag_36\n      jump\t// in\n    tag_35:\n        /* \"Sale.sol\":1515:1549  nft.ownerOf(tokenId) == msg.sender */\n      0xffffffffffffffffffffffffffffffffffffffff\n      and\n      eq\n        /* \"Sale.sol\":1507:1581  require(nft.ownerOf(tokenId) == msg.sender, \"Caller is not the NFT owner\") */\n      tag_37\n      jumpi\n      mload(0x40)\n      0x08c379a000000000000000000000000000000000000000000000000000000000\n      dup2\n      mstore\n      0x04\n      add\n      tag_38\n      swap1\n      tag_39\n      jump\t// in\n    tag_38:\n      mload(0x40)\n      dup1\n      swap2\n      sub\n      swap1\n      revert\n    tag_37:\n        /* \"Sale.sol\":2009:2052  Sale(_productName, msg.sender, price, true) */\n      mload(0x40)\n      dup1\n      0x80\n      add\n      0x40\n      mstore\n      dup1\n        /* \"Sale.sol\":2014:2026  _productName */\n      dup5\n        /* \"Sale.sol\":2009:2052  Sale(_productName, msg.sender, price, true) */\n      dup2\n      mstore\n      0x20\n      add\n        /* \"Sale.sol\":2028:2038  msg.sender */\n      caller\n        /* \"Sale.sol\":2009:2052  Sale(_productName, msg.sender, price, true) */\n      0xffffffffffffffffffffffffffffffffffffffff\n      and\n      dup2\n      mstore\n      0x20\n      add\n        /* \"Sale.sol\":2040:2045  price */\n      dup4\n        /* \"Sale.sol\":2009:2052  Sale(_productName, msg.sender, price, true) */\n      dup2\n      mstore\n      0x20\n      add\n        /* \"Sale.sol\":2047:2051  true */\n      0x01\n        /* \"Sale.sol\":2009:2052  Sale(_productName, msg.sender, price, true) */\n      iszero\n      iszero\n      dup2\n      mstore\n      pop\n        /* \"Sale.sol\":1992:1997  sales */\n      0x02\n        /* \"Sale.sol\":1992:2006  sales[tokenId] */\n      0x00\n        /* \"Sale.sol\":1998:2005  tokenId */\n      dup7\n        /* \"Sale.sol\":1992:2006  sales[tokenId] */\n      dup2\n      mstore\n      0x20\n      add\n      swap1\n      dup2\n      mstore\n      0x20\n      add\n      0x00\n      keccak256\n        /* \"Sale.sol\":1992:2052  sales[tokenId] = Sale(_productName, msg.sender, price, true) */\n      0x00\n      dup3\n      add\n      mload\n      dup2\n      0x00\n      add\n      swap1\n      dup2\n      tag_41\n      swap2\n      swap1\n      tag_42\n      jump\t// in\n    tag_41:\n      pop\n      0x20\n      dup3\n      add\n      mload\n      dup2\n      0x01\n      add\n      exp(0x0100, 0x00)\n      dup2\n      sload\n      dup2\n      0xffffffffffffffffffffffffffffffffffffffff\n      mul\n      not\n      and\n      swap1\n      dup4\n      0xffffffffffffffffffffffffffffffffffffffff\n      and\n      mul\n      or\n      swap1\n      sstore\n      pop\n      0x40\n      dup3\n      add\n      mload\n      dup2\n      0x02\n      add\n      sstore\n      0x60\n      dup3\n      add\n      mload\n      dup2\n      0x03\n      add\n      exp(0x0100, 0x00)\n      dup2\n      sload\n      dup2\n      0xff\n      mul\n      not\n      and\n      swap1\n      dup4\n      iszero\n      iszero\n      mul\n      or\n      swap1\n      sstore\n      pop\n      swap1\n      pop\n      pop\n        /* \"Sale.sol\":2068:2120  SaleListed(tokenId, _productName, msg.sender, price) */\n      0x6cab171a787150168d99b20632c18c8f88dc9e6fae803e9b74b269aeb318f4d6\n        /* \"Sale.sol\":2079:2086  tokenId */\n      dup5\n        /* \"Sale.sol\":2088:2100  _productName */\n      dup5\n        /* \"Sale.sol\":2102:2112  msg.sender */\n      caller\n        /* \"Sale.sol\":2114:2119  price */\n      dup6\n        /* \"Sale.sol\":2068:2120  SaleListed(tokenId, _productName, msg.sender, price) */\n      mload(0x40)\n      tag_43\n      swap5\n      swap4\n      swap3\n      swap2\n      swap1\n      tag_44\n      jump\t// in\n    tag_43:\n      mload(0x40)\n      dup1\n      swap2\n      sub\n      swap1\n      log1\n        /* \"Sale.sol\":1881:2128  function sale(uint256 tokenId, string memory _productName, uint256 price) public onlyOwner(tokenId) {... */\n      pop\n      pop\n      pop\n      pop\n      jump\t// out\n        /* \"Sale.sol\":860:897  mapping(uint256 => Sale) public sales */\n    tag_23:\n      mstore(0x20, 0x02)\n      dup1\n      0x00\n      mstore\n      keccak256(0x00, 0x40)\n      0x00\n      swap2\n      pop\n      swap1\n      pop\n      dup1\n      0x00\n      add\n      dup1\n      sload\n      tag_45\n      swap1\n      tag_46\n      jump\t// in\n    tag_45:\n      dup1\n      0x1f\n      add\n      0x20\n      dup1\n      swap2\n      div\n      mul\n      0x20\n      add\n      mload(0x40)\n      swap1\n      dup2\n      add\n      0x40\n      mstore\n      dup1\n      swap3\n      swap2\n      swap1\n      dup2\n      dup2\n      mstore\n      0x20\n      add\n      dup3\n      dup1\n      sload\n      tag_47\n      swap1\n      tag_46\n      jump\t// in\n    tag_47:\n      dup1\n      iszero\n      tag_48\n      jumpi\n      dup1\n      0x1f\n      lt\n      tag_49\n      jumpi\n      0x0100\n      dup1\n      dup4\n      sload\n      div\n      mul\n      dup4\n      mstore\n      swap2\n      0x20\n      add\n      swap2\n      jump(tag_48)\n    tag_49:\n      dup3\n      add\n      swap2\n      swap1\n      0x00\n      mstore\n      keccak256(0x00, 0x20)\n      swap1\n    tag_50:\n      dup2\n      sload\n      dup2\n      mstore\n      swap1\n      0x01\n      add\n      swap1\n      0x20\n      add\n      dup1\n      dup4\n      gt\n      tag_50\n      jumpi\n      dup3\n      swap1\n      sub\n      0x1f\n      and\n      dup3\n      add\n      swap2\n    tag_48:\n      pop\n      pop\n      pop\n      pop\n      pop\n      swap1\n      dup1\n      0x01\n      add\n      0x00\n      swap1\n      sload\n      swap1\n      0x0100\n      exp\n      swap1\n      div\n      0xffffffffffffffffffffffffffffffffffffffff\n      and\n      swap1\n      dup1\n      0x02\n      add\n      sload\n      swap1\n      dup1\n      0x03\n      add\n      0x00\n      swap1\n      sload\n      swap1\n      0x0100\n      exp\n      swap1\n      div\n      0xff\n      and\n      swap1\n      pop\n      dup5\n      jump\t// out\n        /* \"Sale.sol\":2210:2770  function transfer(uint256 tokenId, address buyer) public onlySeller(tokenId) {... */\n    tag_29:\n        /* \"Sale.sol\":2278:2285  tokenId */\n      dup2\n        /* \"Sale.sol\":1770:1780  msg.sender */\n      caller\n        /* \"Sale.sol\":1745:1780  sales[tokenId].seller == msg.sender */\n      0xffffffffffffffffffffffffffffffffffffffff\n      and\n        /* \"Sale.sol\":1745:1750  sales */\n      0x02\n        /* \"Sale.sol\":1745:1759  sales[tokenId] */\n      0x00\n        /* \"Sale.sol\":1751:1758  tokenId */\n      dup4\n        /* \"Sale.sol\":1745:1759  sales[tokenId] */\n      dup2\n      mstore\n      0x20\n      add\n      swap1\n      dup2\n      mstore\n      0x20\n      add\n      0x00\n      keccak256\n        /* \"Sale.sol\":1745:1766  sales[tokenId].seller */\n      0x01\n      add\n      0x00\n      swap1\n      sload\n      swap1\n      0x0100\n      exp\n      swap1\n      div\n      0xffffffffffffffffffffffffffffffffffffffff\n      and\n        /* \"Sale.sol\":1745:1780  sales[tokenId].seller == msg.sender */\n      0xffffffffffffffffffffffffffffffffffffffff\n      and\n      eq\n        /* \"Sale.sol\":1737:1809  require(sales[tokenId].seller == msg.sender, \"Caller is not the seller\") */\n      tag_52\n      jumpi\n      mload(0x40)\n      0x08c379a000000000000000000000000000000000000000000000000000000000\n      dup2\n      mstore\n      0x04\n      add\n      tag_53\n      swap1\n      tag_54\n      jump\t// in\n    tag_53:\n      mload(0x40)\n      dup1\n      swap2\n      sub\n      swap1\n      revert\n    tag_52:\n        /* \"Sale.sol\":2298:2312  Sale storage s */\n      0x00\n        /* \"Sale.sol\":2315:2320  sales */\n      0x02\n        /* \"Sale.sol\":2315:2329  sales[tokenId] */\n      0x00\n        /* \"Sale.sol\":2321:2328  tokenId */\n      dup6\n        /* \"Sale.sol\":2315:2329  sales[tokenId] */\n      dup2\n      mstore\n      0x20\n      add\n      swap1\n      dup2\n      mstore\n      0x20\n      add\n      0x00\n      keccak256\n        /* \"Sale.sol\":2298:2329  Sale storage s = sales[tokenId] */\n      swap1\n      pop\n        /* \"Sale.sol\":2409:2410  s */\n      dup1\n        /* \"Sale.sol\":2409:2419  s.isActive */\n      0x03\n      add\n      0x00\n      swap1\n      sload\n      swap1\n      0x0100\n      exp\n      swap1\n      div\n      0xff\n      and\n        /* \"Sale.sol\":2401:2442  require(s.isActive, \"Sale is not active\") */\n      tag_56\n      jumpi\n      mload(0x40)\n      0x08c379a000000000000000000000000000000000000000000000000000000000\n      dup2\n      mstore\n      0x04\n      add\n      tag_57\n      swap1\n      tag_58\n      jump\t// in\n    tag_57:\n      mload(0x40)\n      dup1\n      swap2\n      sub\n      swap1\n      revert\n    tag_56:\n        /* \"Sale.sol\":2478:2479  0 */\n      0x00\n        /* \"Sale.sol\":2461:2480  buyer != address(0) */\n      0xffffffffffffffffffffffffffffffffffffffff\n      and\n        /* \"Sale.sol\":2461:2466  buyer */\n      dup4\n        /* \"Sale.sol\":2461:2480  buyer != address(0) */\n      0xffffffffffffffffffffffffffffffffffffffff\n      and\n      sub\n        /* \"Sale.sol\":2453:2498  require(buyer != address(0), \"Invalid buyer\") */\n      tag_59\n      jumpi\n      mload(0x40)\n      0x08c379a000000000000000000000000000000000000000000000000000000000\n      dup2\n      mstore\n      0x04\n      add\n      tag_60\n      swap1\n      tag_61\n      jump\t// in\n    tag_60:\n      mload(0x40)\n      dup1\n      swap2\n      sub\n      swap1\n      revert\n    tag_59:\n        /* \"Sale.sol\":2561:2564  nft */\n      0x01\n      0x00\n      swap1\n      sload\n      swap1\n      0x0100\n      exp\n      swap1\n      div\n      0xffffffffffffffffffffffffffffffffffffffff\n      and\n        /* \"Sale.sol\":2561:2577  nft.transferFrom */\n      0xffffffffffffffffffffffffffffffffffffffff\n      and\n      0x23b872dd\n        /* \"Sale.sol\":2578:2588  msg.sender */\n      caller\n        /* \"Sale.sol\":2590:2595  buyer */\n      dup6\n        /* \"Sale.sol\":2597:2604  tokenId */\n      dup8\n        /* \"Sale.sol\":2561:2605  nft.transferFrom(msg.sender, buyer, tokenId) */\n      mload(0x40)\n      dup5\n      0xffffffff\n      and\n      0xe0\n      shl\n      dup2\n      mstore\n      0x04\n      add\n      tag_62\n      swap4\n      swap3\n      swap2\n      swap1\n      tag_63\n      jump\t// in\n    tag_62:\n      0x00\n      mload(0x40)\n      dup1\n      dup4\n      sub\n      dup2\n      0x00\n      dup8\n      dup1\n      extcodesize\n      iszero\n      dup1\n      iszero\n      tag_64\n      jumpi\n      0x00\n      dup1\n      revert\n    tag_64:\n      pop\n      gas\n      call\n      iszero\n      dup1\n      iszero\n      tag_66\n      jumpi\n      returndatasize\n      0x00\n      dup1\n      returndatacopy\n      revert(0x00, returndatasize)\n    tag_66:\n      pop\n      pop\n      pop\n      pop\n        /* \"Sale.sol\":2672:2677  false */\n      0x00\n        /* \"Sale.sol\":2659:2660  s */\n      dup2\n        /* \"Sale.sol\":2659:2669  s.isActive */\n      0x03\n      add\n      0x00\n        /* \"Sale.sol\":2659:2677  s.isActive = false */\n      0x0100\n      exp\n      dup2\n      sload\n      dup2\n      0xff\n      mul\n      not\n      and\n      swap1\n      dup4\n      iszero\n      iszero\n      mul\n      or\n      swap1\n      sstore\n      pop\n        /* \"Sale.sol\":2695:2762  ProductTransfer(tokenId, s.productName, msg.sender, buyer, s.price) */\n      0x085c5497f28421ac7c93ea4c5460956bcdb6f116d9dd86a8543937a5ce133bb9\n        /* \"Sale.sol\":2711:2718  tokenId */\n      dup5\n        /* \"Sale.sol\":2720:2721  s */\n      dup3\n        /* \"Sale.sol\":2720:2733  s.productName */\n      0x00\n      add\n        /* \"Sale.sol\":2735:2745  msg.sender */\n      caller\n        /* \"Sale.sol\":2747:2752  buyer */\n      dup7\n        /* \"Sale.sol\":2754:2755  s */\n      dup6\n        /* \"Sale.sol\":2754:2761  s.price */\n      0x02\n      add\n      sload\n        /* \"Sale.sol\":2695:2762  ProductTransfer(tokenId, s.productName, msg.sender, buyer, s.price) */\n      mload(0x40)\n      tag_67\n      swap6\n      swap5\n      swap4\n      swap3\n      swap2\n      swap1\n      tag_68\n      jump\t// in\n    tag_67:\n      mload(0x40)\n      dup1\n      swap2\n      sub\n      swap1\n      log1\n        /* \"Sale.sol\":2287:2770  {... */\n      pop\n        /* \"Sale.sol\":2210:2770  function transfer(uint256 tokenId, address buyer) public onlySeller(tokenId) {... */\n      pop\n      pop\n      pop\n      jump\t// out\n        /* \"#utility.yul\":7:133   */\n    tag_69:\n        /* \"#utility.yul\":44:51   */\n      0x00\n        /* \"#utility.yul\":84:126   */\n      0xffffffffffffffffffffffffffffffffffffffff\n        /* \"#utility.yul\":77:82   */\n      dup3\n        /* \"#utility.yul\":73:127   */\n      and\n        /* \"#utility.yul\":62:127   */\n      swap1\n      pop\n        /* \"#utility.yul\":7:133   */\n      swap2\n      swap1\n      pop\n      jump\t// out\n        /* \"#utility.yul\":139:199   */\n    tag_70:\n        /* \"#utility.yul\":167:170   */\n      0x00\n        /* \"#utility.yul\":188:193   */\n      dup2\n        /* \"#utility.yul\":181:193   */\n      swap1\n      pop\n        /* \"#utility.yul\":139:199   */\n      swap2\n      swap1\n      pop\n      jump\t// out\n        /* \"#utility.yul\":205:347   */\n    tag_71:\n        /* \"#utility.yul\":255:264   */\n      0x00\n        /* \"#utility.yul\":288:341   */\n      tag_131\n        /* \"#utility.yul\":306:340   */\n      tag_132\n        /* \"#utility.yul\":315:339   */\n      tag_133\n        /* \"#utility.yul\":333:338   */\n      dup5\n        /* \"#utility.yul\":315:339   */\n      tag_69\n      jump\t// in\n    tag_133:\n        /* \"#utility.yul\":306:340   */\n      tag_70\n      jump\t// in\n    tag_132:\n        /* \"#utility.yul\":288:341   */\n      tag_69\n      jump\t// in\n    tag_131:\n        /* \"#utility.yul\":275:341   */\n      swap1\n      pop\n        /* \"#utility.yul\":205:347   */\n      swap2\n      swap1\n      pop\n      jump\t// out\n        /* \"#utility.yul\":353:479   */\n    tag_72:\n        /* \"#utility.yul\":403:412   */\n      0x00\n        /* \"#utility.yul\":436:473   */\n      tag_135\n        /* \"#utility.yul\":467:472   */\n      dup3\n        /* \"#utility.yul\":436:473   */\n      tag_71\n      jump\t// in\n    tag_135:\n        /* \"#utility.yul\":423:473   */\n      swap1\n      pop\n        /* \"#utility.yul\":353:479   */\n      swap2\n      swap1\n      pop\n      jump\t// out\n        /* \"#utility.yul\":485:629   */\n    tag_73:\n        /* \"#utility.yul\":553:562   */\n      0x00\n        /* \"#utility.yul\":586:623   */\n      tag_137\n        /* \"#utility.yul\":617:622   */\n      dup3\n        /* \"#utility.yul\":586:623   */\n      tag_72\n      jump\t// in\n    tag_137:\n        /* \"#utility.yul\":573:623   */\n      swap1\n      pop\n        /* \"#utility.yul\":485:629   */\n      swap2\n      swap1\n      pop\n      jump\t// out\n        /* \"#utility.yul\":635:802   */\n    tag_74:\n        /* \"#utility.yul\":740:795   */\n      tag_139\n        /* \"#utility.yul\":789:794   */\n      dup2\n        /* \"#utility.yul\":740:795   */\n      tag_73\n      jump\t// in\n    tag_139:\n        /* \"#utility.yul\":735:738   */\n      dup3\n        /* \"#utility.yul\":728:796   */\n      mstore\n        /* \"#utility.yul\":635:802   */\n      pop\n      pop\n      jump\t// out\n        /* \"#utility.yul\":808:1066   */\n    tag_11:\n        /* \"#utility.yul\":919:923   */\n      0x00\n        /* \"#utility.yul\":957:959   */\n      0x20\n        /* \"#utility.yul\":946:955   */\n      dup3\n        /* \"#utility.yul\":942:960   */\n      add\n        /* \"#utility.yul\":934:960   */\n      swap1\n      pop\n        /* \"#utility.yul\":970:1059   */\n      tag_141\n        /* \"#utility.yul\":1056:1057   */\n      0x00\n        /* \"#utility.yul\":1045:1054   */\n      dup4\n        /* \"#utility.yul\":1041:1058   */\n      add\n        /* \"#utility.yul\":1032:1038   */\n      dup5\n        /* \"#utility.yul\":970:1059   */\n      tag_74\n      jump\t// in\n    tag_141:\n        /* \"#utility.yul\":808:1066   */\n      swap3\n      swap2\n      pop\n      pop\n      jump\t// out\n        /* \"#utility.yul\":1072:1168   */\n    tag_75:\n        /* \"#utility.yul\":1109:1116   */\n      0x00\n        /* \"#utility.yul\":1138:1162   */\n      tag_143\n        /* \"#utility.yul\":1156:1161   */\n      dup3\n        /* \"#utility.yul\":1138:1162   */\n      tag_69\n      jump\t// in\n    tag_143:\n        /* \"#utility.yul\":1127:1162   */\n      swap1\n      pop\n        /* \"#utility.yul\":1072:1168   */\n      swap2\n      swap1\n      pop\n      jump\t// out\n        /* \"#utility.yul\":1174:1292   */\n    tag_76:\n        /* \"#utility.yul\":1261:1285   */\n      tag_145\n        /* \"#utility.yul\":1279:1284   */\n      dup2\n        /* \"#utility.yul\":1261:1285   */\n      tag_75\n      jump\t// in\n    tag_145:\n        /* \"#utility.yul\":1256:1259   */\n      dup3\n        /* \"#utility.yul\":1249:1286   */\n      mstore\n        /* \"#utility.yul\":1174:1292   */\n      pop\n      pop\n      jump\t// out\n        /* \"#utility.yul\":1298:1520   */\n    tag_15:\n        /* \"#utility.yul\":1391:1395   */\n      0x00\n        /* \"#utility.yul\":1429:1431   */\n      0x20\n        /* \"#utility.yul\":1418:1427   */\n      dup3\n        /* \"#utility.yul\":1414:1432   */\n      add\n        /* \"#utility.yul\":1406:1432   */\n      swap1\n      pop\n        /* \"#utility.yul\":1442:1513   */\n      tag_147\n        /* \"#utility.yul\":1510:1511   */\n      0x00\n        /* \"#utility.yul\":1499:1508   */\n      dup4\n        /* \"#utility.yul\":1495:1512   */\n      add\n        /* \"#utility.yul\":1486:1492   */\n      dup5\n        /* \"#utility.yul\":1442:1513   */\n      tag_76\n      jump\t// in\n    tag_147:\n        /* \"#utility.yul\":1298:1520   */\n      swap3\n      swap2\n      pop\n      pop\n      jump\t// out\n        /* \"#utility.yul\":1526:1601   */\n    tag_77:\n        /* \"#utility.yul\":1559:1565   */\n      0x00\n        /* \"#utility.yul\":1592:1594   */\n      0x40\n        /* \"#utility.yul\":1586:1595   */\n      mload\n        /* \"#utility.yul\":1576:1595   */\n      swap1\n      pop\n        /* \"#utility.yul\":1526:1601   */\n      swap1\n      jump\t// out\n        /* \"#utility.yul\":1607:1724   */\n    tag_78:\n        /* \"#utility.yul\":1716:1717   */\n      0x00\n        /* \"#utility.yul\":1713:1714   */\n      dup1\n        /* \"#utility.yul\":1706:1718   */\n      revert\n        /* \"#utility.yul\":1730:1847   */\n    tag_79:\n        /* \"#utility.yul\":1839:1840   */\n      0x00\n        /* \"#utility.yul\":1836:1837   */\n      dup1\n        /* \"#utility.yul\":1829:1841   */\n      revert\n        /* \"#utility.yul\":1853:1930   */\n    tag_80:\n        /* \"#utility.yul\":1890:1897   */\n      0x00\n        /* \"#utility.yul\":1919:1924   */\n      dup2\n        /* \"#utility.yul\":1908:1924   */\n      swap1\n      pop\n        /* \"#utility.yul\":1853:1930   */\n      swap2\n      swap1\n      pop\n      jump\t// out\n        /* \"#utility.yul\":1936:2058   */\n    tag_81:\n        /* \"#utility.yul\":2009:2033   */\n      tag_153\n        /* \"#utility.yul\":2027:2032   */\n      dup2\n        /* \"#utility.yul\":2009:2033   */\n      tag_80\n      jump\t// in\n    tag_153:\n        /* \"#utility.yul\":2002:2007   */\n      dup2\n        /* \"#utility.yul\":1999:2034   */\n      eq\n        /* \"#utility.yul\":1989:2052   */\n      tag_154\n      jumpi\n        /* \"#utility.yul\":2048:2049   */\n      0x00\n        /* \"#utility.yul\":2045:2046   */\n      dup1\n        /* \"#utility.yul\":2038:2050   */\n      revert\n        /* \"#utility.yul\":1989:2052   */\n    tag_154:\n        /* \"#utility.yul\":1936:2058   */\n      pop\n      jump\t// out\n        /* \"#utility.yul\":2064:2203   */\n    tag_82:\n        /* \"#utility.yul\":2110:2115   */\n      0x00\n        /* \"#utility.yul\":2148:2154   */\n      dup2\n        /* \"#utility.yul\":2135:2155   */\n      calldataload\n        /* \"#utility.yul\":2126:2155   */\n      swap1\n      pop\n        /* \"#utility.yul\":2164:2197   */\n      tag_156\n        /* \"#utility.yul\":2191:2196   */\n      dup2\n        /* \"#utility.yul\":2164:2197   */\n      tag_81\n      jump\t// in\n    tag_156:\n        /* \"#utility.yul\":2064:2203   */\n      swap3\n      swap2\n      pop\n      pop\n      jump\t// out\n        /* \"#utility.yul\":2209:2326   */\n    tag_83:\n        /* \"#utility.yul\":2318:2319   */\n      0x00\n        /* \"#utility.yul\":2315:2316   */\n      dup1\n        /* \"#utility.yul\":2308:2320   */\n      revert\n        /* \"#utility.yul\":2332:2449   */\n    tag_84:\n        /* \"#utility.yul\":2441:2442   */\n      0x00\n        /* \"#utility.yul\":2438:2439   */\n      dup1\n        /* \"#utility.yul\":2431:2443   */\n      revert\n        /* \"#utility.yul\":2455:2557   */\n    tag_85:\n        /* \"#utility.yul\":2496:2502   */\n      0x00\n        /* \"#utility.yul\":2547:2549   */\n      0x1f\n        /* \"#utility.yul\":2543:2550   */\n      not\n        /* \"#utility.yul\":2538:2540   */\n      0x1f\n        /* \"#utility.yul\":2531:2536   */\n      dup4\n        /* \"#utility.yul\":2527:2541   */\n      add\n        /* \"#utility.yul\":2523:2551   */\n      and\n        /* \"#utility.yul\":2513:2551   */\n      swap1\n      pop\n        /* \"#utility.yul\":2455:2557   */\n      swap2\n      swap1\n      pop\n      jump\t// out\n        /* \"#utility.yul\":2563:2743   */\n    tag_86:\n        /* \"#utility.yul\":2611:2688   */\n      0x4e487b7100000000000000000000000000000000000000000000000000000000\n        /* \"#utility.yul\":2608:2609   */\n      0x00\n        /* \"#utility.yul\":2601:2689   */\n      mstore\n        /* \"#utility.yul\":2708:2712   */\n      0x41\n        /* \"#utility.yul\":2705:2706   */\n      0x04\n        /* \"#utility.yul\":2698:2713   */\n      mstore\n        /* \"#utility.yul\":2732:2736   */\n      0x24\n        /* \"#utility.yul\":2729:2730   */\n      0x00\n        /* \"#utility.yul\":2722:2737   */\n      revert\n        /* \"#utility.yul\":2749:3030   */\n    tag_87:\n        /* \"#utility.yul\":2832:2859   */\n      tag_162\n        /* \"#utility.yul\":2854:2858   */\n      dup3\n        /* \"#utility.yul\":2832:2859   */\n      tag_85\n      jump\t// in\n    tag_162:\n        /* \"#utility.yul\":2824:2830   */\n      dup2\n        /* \"#utility.yul\":2820:2860   */\n      add\n        /* \"#utility.yul\":2962:2968   */\n      dup2\n        /* \"#utility.yul\":2950:2960   */\n      dup2\n        /* \"#utility.yul\":2947:2969   */\n      lt\n        /* \"#utility.yul\":2926:2944   */\n      0xffffffffffffffff\n        /* \"#utility.yul\":2914:2924   */\n      dup3\n        /* \"#utility.yul\":2911:2945   */\n      gt\n        /* \"#utility.yul\":2908:2970   */\n      or\n        /* \"#utility.yul\":2905:2993   */\n      iszero\n      tag_163\n      jumpi\n        /* \"#utility.yul\":2973:2991   */\n      tag_164\n      tag_86\n      jump\t// in\n    tag_164:\n        /* \"#utility.yul\":2905:2993   */\n    tag_163:\n        /* \"#utility.yul\":3013:3023   */\n      dup1\n        /* \"#utility.yul\":3009:3011   */\n      0x40\n        /* \"#utility.yul\":3002:3024   */\n      mstore\n        /* \"#utility.yul\":2792:3030   */\n      pop\n        /* \"#utility.yul\":2749:3030   */\n      pop\n      pop\n      jump\t// out\n        /* \"#utility.yul\":3036:3165   */\n    tag_88:\n        /* \"#utility.yul\":3070:3076   */\n      0x00\n        /* \"#utility.yul\":3097:3117   */\n      tag_166\n      tag_77\n      jump\t// in\n    tag_166:\n        /* \"#utility.yul\":3087:3117   */\n      swap1\n      pop\n        /* \"#utility.yul\":3126:3159   */\n      tag_167\n        /* \"#utility.yul\":3154:3158   */\n      dup3\n        /* \"#utility.yul\":3146:3152   */\n      dup3\n        /* \"#utility.yul\":3126:3159   */\n      tag_87\n      jump\t// in\n    tag_167:\n        /* \"#utility.yul\":3036:3165   */\n      swap2\n      swap1\n      pop\n      jump\t// out\n        /* \"#utility.yul\":3171:3479   */\n    tag_89:\n        /* \"#utility.yul\":3233:3237   */\n      0x00\n        /* \"#utility.yul\":3323:3341   */\n      0xffffffffffffffff\n        /* \"#utility.yul\":3315:3321   */\n      dup3\n        /* \"#utility.yul\":3312:3342   */\n      gt\n        /* \"#utility.yul\":3309:3365   */\n      iszero\n      tag_169\n      jumpi\n        /* \"#utility.yul\":3345:3363   */\n      tag_170\n      tag_86\n      jump\t// in\n    tag_170:\n        /* \"#utility.yul\":3309:3365   */\n    tag_169:\n        /* \"#utility.yul\":3383:3412   */\n      tag_171\n        /* \"#utility.yul\":3405:3411   */\n      dup3\n        /* \"#utility.yul\":3383:3412   */\n      tag_85\n      jump\t// in\n    tag_171:\n        /* \"#utility.yul\":3375:3412   */\n      swap1\n      pop\n        /* \"#utility.yul\":3467:3471   */\n      0x20\n        /* \"#utility.yul\":3461:3465   */\n      dup2\n        /* \"#utility.yul\":3457:3472   */\n      add\n        /* \"#utility.yul\":3449:3472   */\n      swap1\n      pop\n        /* \"#utility.yul\":3171:3479   */\n      swap2\n      swap1\n      pop\n      jump\t// out\n        /* \"#utility.yul\":3485:3633   */\n    tag_90:\n        /* \"#utility.yul\":3583:3589   */\n      dup3\n        /* \"#utility.yul\":3578:3581   */\n      dup2\n        /* \"#utility.yul\":3573:3576   */\n      dup4\n        /* \"#utility.yul\":3560:3590   */\n      calldatacopy\n        /* \"#utility.yul\":3624:3625   */\n      0x00\n        /* \"#utility.yul\":3615:3621   */\n      dup4\n        /* \"#utility.yul\":3610:3613   */\n      dup4\n        /* \"#utility.yul\":3606:3622   */\n      add\n        /* \"#utility.yul\":3599:3626   */\n      mstore\n        /* \"#utility.yul\":3485:3633   */\n      pop\n      pop\n      pop\n      jump\t// out\n        /* \"#utility.yul\":3639:4064   */\n    tag_91:\n        /* \"#utility.yul\":3717:3722   */\n      0x00\n        /* \"#utility.yul\":3742:3808   */\n      tag_174\n        /* \"#utility.yul\":3758:3807   */\n      tag_175\n        /* \"#utility.yul\":3800:3806   */\n      dup5\n        /* \"#utility.yul\":3758:3807   */\n      tag_89\n      jump\t// in\n    tag_175:\n        /* \"#utility.yul\":3742:3808   */\n      tag_88\n      jump\t// in\n    tag_174:\n        /* \"#utility.yul\":3733:3808   */\n      swap1\n      pop\n        /* \"#utility.yul\":3831:3837   */\n      dup3\n        /* \"#utility.yul\":3824:3829   */\n      dup2\n        /* \"#utility.yul\":3817:3838   */\n      mstore\n        /* \"#utility.yul\":3869:3873   */\n      0x20\n        /* \"#utility.yul\":3862:3867   */\n      dup2\n        /* \"#utility.yul\":3858:3874   */\n      add\n        /* \"#utility.yul\":3907:3910   */\n      dup5\n        /* \"#utility.yul\":3898:3904   */\n      dup5\n        /* \"#utility.yul\":3893:3896   */\n      dup5\n        /* \"#utility.yul\":3889:3905   */\n      add\n        /* \"#utility.yul\":3886:3911   */\n      gt\n        /* \"#utility.yul\":3883:3995   */\n      iszero\n      tag_176\n      jumpi\n        /* \"#utility.yul\":3914:3993   */\n      tag_177\n      tag_84\n      jump\t// in\n    tag_177:\n        /* \"#utility.yul\":3883:3995   */\n    tag_176:\n        /* \"#utility.yul\":4004:4058   */\n      tag_178\n        /* \"#utility.yul\":4051:4057   */\n      dup5\n        /* \"#utility.yul\":4046:4049   */\n      dup3\n        /* \"#utility.yul\":4041:4044   */\n      dup6\n        /* \"#utility.yul\":4004:4058   */\n      tag_90\n      jump\t// in\n    tag_178:\n        /* \"#utility.yul\":3723:4064   */\n      pop\n        /* \"#utility.yul\":3639:4064   */\n      swap4\n      swap3\n      pop\n      pop\n      pop\n      jump\t// out\n        /* \"#utility.yul\":4084:4424   */\n    tag_92:\n        /* \"#utility.yul\":4140:4145   */\n      0x00\n        /* \"#utility.yul\":4189:4192   */\n      dup3\n        /* \"#utility.yul\":4182:4186   */\n      0x1f\n        /* \"#utility.yul\":4174:4180   */\n      dup4\n        /* \"#utility.yul\":4170:4187   */\n      add\n        /* \"#utility.yul\":4166:4193   */\n      slt\n        /* \"#utility.yul\":4156:4278   */\n      tag_180\n      jumpi\n        /* \"#utility.yul\":4197:4276   */\n      tag_181\n      tag_83\n      jump\t// in\n    tag_181:\n        /* \"#utility.yul\":4156:4278   */\n    tag_180:\n        /* \"#utility.yul\":4314:4320   */\n      dup2\n        /* \"#utility.yul\":4301:4321   */\n      calldataload\n        /* \"#utility.yul\":4339:4418   */\n      tag_182\n        /* \"#utility.yul\":4414:4417   */\n      dup5\n        /* \"#utility.yul\":4406:4412   */\n      dup3\n        /* \"#utility.yul\":4399:4403   */\n      0x20\n        /* \"#utility.yul\":4391:4397   */\n      dup7\n        /* \"#utility.yul\":4387:4404   */\n      add\n        /* \"#utility.yul\":4339:4418   */\n      tag_91\n      jump\t// in\n    tag_182:\n        /* \"#utility.yul\":4330:4418   */\n      swap2\n      pop\n        /* \"#utility.yul\":4146:4424   */\n      pop\n        /* \"#utility.yul\":4084:4424   */\n      swap3\n      swap2\n      pop\n      pop\n      jump\t// out\n        /* \"#utility.yul\":4430:5229   */\n    tag_18:\n        /* \"#utility.yul\":4517:4523   */\n      0x00\n        /* \"#utility.yul\":4525:4531   */\n      dup1\n        /* \"#utility.yul\":4533:4539   */\n      0x00\n        /* \"#utility.yul\":4582:4584   */\n      0x60\n        /* \"#utility.yul\":4570:4579   */\n      dup5\n        /* \"#utility.yul\":4561:4568   */\n      dup7\n        /* \"#utility.yul\":4557:4580   */\n      sub\n        /* \"#utility.yul\":4553:4585   */\n      slt\n        /* \"#utility.yul\":4550:4669   */\n      iszero\n      tag_184\n      jumpi\n        /* \"#utility.yul\":4588:4667   */\n      tag_185\n      tag_78\n      jump\t// in\n    tag_185:\n        /* \"#utility.yul\":4550:4669   */\n    tag_184:\n        /* \"#utility.yul\":4708:4709   */\n      0x00\n        /* \"#utility.yul\":4733:4786   */\n      tag_186\n        /* \"#utility.yul\":4778:4785   */\n      dup7\n        /* \"#utility.yul\":4769:4775   */\n      dup3\n        /* \"#utility.yul\":4758:4767   */\n      dup8\n        /* \"#utility.yul\":4754:4776   */\n      add\n        /* \"#utility.yul\":4733:4786   */\n      tag_82\n      jump\t// in\n    tag_186:\n        /* \"#utility.yul\":4723:4786   */\n      swap4\n      pop\n        /* \"#utility.yul\":4679:4796   */\n      pop\n        /* \"#utility.yul\":4863:4865   */\n      0x20\n        /* \"#utility.yul\":4852:4861   */\n      dup5\n        /* \"#utility.yul\":4848:4866   */\n      add\n        /* \"#utility.yul\":4835:4867   */\n      calldataload\n        /* \"#utility.yul\":4894:4912   */\n      0xffffffffffffffff\n        /* \"#utility.yul\":4886:4892   */\n      dup2\n        /* \"#utility.yul\":4883:4913   */\n      gt\n        /* \"#utility.yul\":4880:4997   */\n      iszero\n      tag_187\n      jumpi\n        /* \"#utility.yul\":4916:4995   */\n      tag_188\n      tag_79\n      jump\t// in\n    tag_188:\n        /* \"#utility.yul\":4880:4997   */\n    tag_187:\n        /* \"#utility.yul\":5021:5084   */\n      tag_189\n        /* \"#utility.yul\":5076:5083   */\n      dup7\n        /* \"#utility.yul\":5067:5073   */\n      dup3\n        /* \"#utility.yul\":5056:5065   */\n      dup8\n        /* \"#utility.yul\":5052:5074   */\n      add\n        /* \"#utility.yul\":5021:5084   */\n      tag_92\n      jump\t// in\n    tag_189:\n        /* \"#utility.yul\":5011:5084   */\n      swap3\n      pop\n        /* \"#utility.yul\":4806:5094   */\n      pop\n        /* \"#utility.yul\":5133:5135   */\n      0x40\n        /* \"#utility.yul\":5159:5212   */\n      tag_190\n        /* \"#utility.yul\":5204:5211   */\n      dup7\n        /* \"#utility.yul\":5195:5201   */\n      dup3\n        /* \"#utility.yul\":5184:5193   */\n      dup8\n        /* \"#utility.yul\":5180:5202   */\n      add\n        /* \"#utility.yul\":5159:5212   */\n      tag_82\n      jump\t// in\n    tag_190:\n        /* \"#utility.yul\":5149:5212   */\n      swap2\n      pop\n        /* \"#utility.yul\":5104:5222   */\n      pop\n        /* \"#utility.yul\":4430:5229   */\n      swap3\n      pop\n      swap3\n      pop\n      swap3\n      jump\t// out\n        /* \"#utility.yul\":5235:5564   */\n    tag_22:\n        /* \"#utility.yul\":5294:5300   */\n      0x00\n        /* \"#utility.yul\":5343:5345   */\n      0x20\n        /* \"#utility.yul\":5331:5340   */\n      dup3\n        /* \"#utility.yul\":5322:5329   */\n      dup5\n        /* \"#utility.yul\":5318:5341   */\n      sub\n        /* \"#utility.yul\":5314:5346   */\n      slt\n        /* \"#utility.yul\":5311:5430   */\n      iszero\n      tag_192\n      jumpi\n        /* \"#utility.yul\":5349:5428   */\n      tag_193\n      tag_78\n      jump\t// in\n    tag_193:\n        /* \"#utility.yul\":5311:5430   */\n    tag_192:\n        /* \"#utility.yul\":5469:5470   */\n      0x00\n        /* \"#utility.yul\":5494:5547   */\n      tag_194\n        /* \"#utility.yul\":5539:5546   */\n      dup5\n        /* \"#utility.yul\":5530:5536   */\n      dup3\n        /* \"#utility.yul\":5519:5528   */\n      dup6\n        /* \"#utility.yul\":5515:5537   */\n      add\n        /* \"#utility.yul\":5494:5547   */\n      tag_82\n      jump\t// in\n    tag_194:\n        /* \"#utility.yul\":5484:5547   */\n      swap2\n      pop\n        /* \"#utility.yul\":5440:5557   */\n      pop\n        /* \"#utility.yul\":5235:5564   */\n      swap3\n      swap2\n      pop\n      pop\n      jump\t// out\n        /* \"#utility.yul\":5570:5669   */\n    tag_93:\n        /* \"#utility.yul\":5622:5628   */\n      0x00\n        /* \"#utility.yul\":5656:5661   */\n      dup2\n        /* \"#utility.yul\":5650:5662   */\n      mload\n        /* \"#utility.yul\":5640:5662   */\n      swap1\n      pop\n        /* \"#utility.yul\":5570:5669   */\n      swap2\n      swap1\n      pop\n      jump\t// out\n        /* \"#utility.yul\":5675:5844   */\n    tag_94:\n        /* \"#utility.yul\":5759:5770   */\n      0x00\n        /* \"#utility.yul\":5793:5799   */\n      dup3\n        /* \"#utility.yul\":5788:5791   */\n      dup3\n        /* \"#utility.yul\":5781:5800   */\n      mstore\n        /* \"#utility.yul\":5833:5837   */\n      0x20\n        /* \"#utility.yul\":5828:5831   */\n      dup3\n        /* \"#utility.yul\":5824:5838   */\n      add\n        /* \"#utility.yul\":5809:5838   */\n      swap1\n      pop\n        /* \"#utility.yul\":5675:5844   */\n      swap3\n      swap2\n      pop\n      pop\n      jump\t// out\n        /* \"#utility.yul\":5850:5989   */\n    tag_95:\n        /* \"#utility.yul\":5939:5945   */\n      dup3\n        /* \"#utility.yul\":5934:5937   */\n      dup2\n        /* \"#utility.yul\":5929:5932   */\n      dup4\n        /* \"#utility.yul\":5923:5946   */\n      mcopy\n        /* \"#utility.yul\":5980:5981   */\n      0x00\n        /* \"#utility.yul\":5971:5977   */\n      dup4\n        /* \"#utility.yul\":5966:5969   */\n      dup4\n        /* \"#utility.yul\":5962:5978   */\n      add\n        /* \"#utility.yul\":5955:5982   */\n      mstore\n        /* \"#utility.yul\":5850:5989   */\n      pop\n      pop\n      pop\n      jump\t// out\n        /* \"#utility.yul\":5995:6372   */\n    tag_96:\n        /* \"#utility.yul\":6083:6086   */\n      0x00\n        /* \"#utility.yul\":6111:6150   */\n      tag_199\n        /* \"#utility.yul\":6144:6149   */\n      dup3\n        /* \"#utility.yul\":6111:6150   */\n      tag_93\n      jump\t// in\n    tag_199:\n        /* \"#utility.yul\":6166:6237   */\n      tag_200\n        /* \"#utility.yul\":6230:6236   */\n      dup2\n        /* \"#utility.yul\":6225:6228   */\n      dup6\n        /* \"#utility.yul\":6166:6237   */\n      tag_94\n      jump\t// in\n    tag_200:\n        /* \"#utility.yul\":6159:6237   */\n      swap4\n      pop\n        /* \"#utility.yul\":6246:6311   */\n      tag_201\n        /* \"#utility.yul\":6304:6310   */\n      dup2\n        /* \"#utility.yul\":6299:6302   */\n      dup6\n        /* \"#utility.yul\":6292:6296   */\n      0x20\n        /* \"#utility.yul\":6285:6290   */\n      dup7\n        /* \"#utility.yul\":6281:6297   */\n      add\n        /* \"#utility.yul\":6246:6311   */\n      tag_95\n      jump\t// in\n    tag_201:\n        /* \"#utility.yul\":6336:6365   */\n      tag_202\n        /* \"#utility.yul\":6358:6364   */\n      dup2\n        /* \"#utility.yul\":6336:6365   */\n      tag_85\n      jump\t// in\n    tag_202:\n        /* \"#utility.yul\":6331:6334   */\n      dup5\n        /* \"#utility.yul\":6327:6366   */\n      add\n        /* \"#utility.yul\":6320:6366   */\n      swap2\n      pop\n        /* \"#utility.yul\":6087:6372   */\n      pop\n        /* \"#utility.yul\":5995:6372   */\n      swap3\n      swap2\n      pop\n      pop\n      jump\t// out\n        /* \"#utility.yul\":6378:6496   */\n    tag_97:\n        /* \"#utility.yul\":6465:6489   */\n      tag_204\n        /* \"#utility.yul\":6483:6488   */\n      dup2\n        /* \"#utility.yul\":6465:6489   */\n      tag_80\n      jump\t// in\n    tag_204:\n        /* \"#utility.yul\":6460:6463   */\n      dup3\n        /* \"#utility.yul\":6453:6490   */\n      mstore\n        /* \"#utility.yul\":6378:6496   */\n      pop\n      pop\n      jump\t// out\n        /* \"#utility.yul\":6502:6592   */\n    tag_98:\n        /* \"#utility.yul\":6536:6543   */\n      0x00\n        /* \"#utility.yul\":6579:6584   */\n      dup2\n        /* \"#utility.yul\":6572:6585   */\n      iszero\n        /* \"#utility.yul\":6565:6586   */\n      iszero\n        /* \"#utility.yul\":6554:6586   */\n      swap1\n      pop\n        /* \"#utility.yul\":6502:6592   */\n      swap2\n      swap1\n      pop\n      jump\t// out\n        /* \"#utility.yul\":6598:6707   */\n    tag_99:\n        /* \"#utility.yul\":6679:6700   */\n      tag_207\n        /* \"#utility.yul\":6694:6699   */\n      dup2\n        /* \"#utility.yul\":6679:6700   */\n      tag_98\n      jump\t// in\n    tag_207:\n        /* \"#utility.yul\":6674:6677   */\n      dup3\n        /* \"#utility.yul\":6667:6701   */\n      mstore\n        /* \"#utility.yul\":6598:6707   */\n      pop\n      pop\n      jump\t// out\n        /* \"#utility.yul\":6713:7345   */\n    tag_25:\n        /* \"#utility.yul\":6904:6908   */\n      0x00\n        /* \"#utility.yul\":6942:6945   */\n      0x80\n        /* \"#utility.yul\":6931:6940   */\n      dup3\n        /* \"#utility.yul\":6927:6946   */\n      add\n        /* \"#utility.yul\":6919:6946   */\n      swap1\n      pop\n        /* \"#utility.yul\":6992:7001   */\n      dup2\n        /* \"#utility.yul\":6986:6990   */\n      dup2\n        /* \"#utility.yul\":6982:7002   */\n      sub\n        /* \"#utility.yul\":6978:6979   */\n      0x00\n        /* \"#utility.yul\":6967:6976   */\n      dup4\n        /* \"#utility.yul\":6963:6980   */\n      add\n        /* \"#utility.yul\":6956:7003   */\n      mstore\n        /* \"#utility.yul\":7020:7098   */\n      tag_209\n        /* \"#utility.yul\":7093:7097   */\n      dup2\n        /* \"#utility.yul\":7084:7090   */\n      dup8\n        /* \"#utility.yul\":7020:7098   */\n      tag_96\n      jump\t// in\n    tag_209:\n        /* \"#utility.yul\":7012:7098   */\n      swap1\n      pop\n        /* \"#utility.yul\":7108:7180   */\n      tag_210\n        /* \"#utility.yul\":7176:7178   */\n      0x20\n        /* \"#utility.yul\":7165:7174   */\n      dup4\n        /* \"#utility.yul\":7161:7179   */\n      add\n        /* \"#utility.yul\":7152:7158   */\n      dup7\n        /* \"#utility.yul\":7108:7180   */\n      tag_76\n      jump\t// in\n    tag_210:\n        /* \"#utility.yul\":7190:7262   */\n      tag_211\n        /* \"#utility.yul\":7258:7260   */\n      0x40\n        /* \"#utility.yul\":7247:7256   */\n      dup4\n        /* \"#utility.yul\":7243:7261   */\n      add\n        /* \"#utility.yul\":7234:7240   */\n      dup6\n        /* \"#utility.yul\":7190:7262   */\n      tag_97\n      jump\t// in\n    tag_211:\n        /* \"#utility.yul\":7272:7338   */\n      tag_212\n        /* \"#utility.yul\":7334:7336   */\n      0x60\n        /* \"#utility.yul\":7323:7332   */\n      dup4\n        /* \"#utility.yul\":7319:7337   */\n      add\n        /* \"#utility.yul\":7310:7316   */\n      dup5\n        /* \"#utility.yul\":7272:7338   */\n      tag_99\n      jump\t// in\n    tag_212:\n        /* \"#utility.yul\":6713:7345   */\n      swap6\n      swap5\n      pop\n      pop\n      pop\n      pop\n      pop\n      jump\t// out\n        /* \"#utility.yul\":7351:7473   */\n    tag_100:\n        /* \"#utility.yul\":7424:7448   */\n      tag_214\n        /* \"#utility.yul\":7442:7447   */\n      dup2\n        /* \"#utility.yul\":7424:7448   */\n      tag_75\n      jump\t// in\n    tag_214:\n        /* \"#utility.yul\":7417:7422   */\n      dup2\n        /* \"#utility.yul\":7414:7449   */\n      eq\n        /* \"#utility.yul\":7404:7467   */\n      tag_215\n      jumpi\n        /* \"#utility.yul\":7463:7464   */\n      0x00\n        /* \"#utility.yul\":7460:7461   */\n      dup1\n        /* \"#utility.yul\":7453:7465   */\n      revert\n        /* \"#utility.yul\":7404:7467   */\n    tag_215:\n        /* \"#utility.yul\":7351:7473   */\n      pop\n      jump\t// out\n        /* \"#utility.yul\":7479:7618   */\n    tag_101:\n        /* \"#utility.yul\":7525:7530   */\n      0x00\n        /* \"#utility.yul\":7563:7569   */\n      dup2\n        /* \"#utility.yul\":7550:7570   */\n      calldataload\n        /* \"#utility.yul\":7541:7570   */\n      swap1\n      pop\n        /* \"#utility.yul\":7579:7612   */\n      tag_217\n        /* \"#utility.yul\":7606:7611   */\n      dup2\n        /* \"#utility.yul\":7579:7612   */\n      tag_100\n      jump\t// in\n    tag_217:\n        /* \"#utility.yul\":7479:7618   */\n      swap3\n      swap2\n      pop\n      pop\n      jump\t// out\n        /* \"#utility.yul\":7624:8098   */\n    tag_28:\n        /* \"#utility.yul\":7692:7698   */\n      0x00\n        /* \"#utility.yul\":7700:7706   */\n      dup1\n        /* \"#utility.yul\":7749:7751   */\n      0x40\n        /* \"#utility.yul\":7737:7746   */\n      dup4\n        /* \"#utility.yul\":7728:7735   */\n      dup6\n        /* \"#utility.yul\":7724:7747   */\n      sub\n        /* \"#utility.yul\":7720:7752   */\n      slt\n        /* \"#utility.yul\":7717:7836   */\n      iszero\n      tag_219\n      jumpi\n        /* \"#utility.yul\":7755:7834   */\n      tag_220\n      tag_78\n      jump\t// in\n    tag_220:\n        /* \"#utility.yul\":7717:7836   */\n    tag_219:\n        /* \"#utility.yul\":7875:7876   */\n      0x00\n        /* \"#utility.yul\":7900:7953   */\n      tag_221\n        /* \"#utility.yul\":7945:7952   */\n      dup6\n        /* \"#utility.yul\":7936:7942   */\n      dup3\n        /* \"#utility.yul\":7925:7934   */\n      dup7\n        /* \"#utility.yul\":7921:7943   */\n      add\n        /* \"#utility.yul\":7900:7953   */\n      tag_82\n      jump\t// in\n    tag_221:\n        /* \"#utility.yul\":7890:7953   */\n      swap3\n      pop\n        /* \"#utility.yul\":7846:7963   */\n      pop\n        /* \"#utility.yul\":8002:8004   */\n      0x20\n        /* \"#utility.yul\":8028:8081   */\n      tag_222\n        /* \"#utility.yul\":8073:8080   */\n      dup6\n        /* \"#utility.yul\":8064:8070   */\n      dup3\n        /* \"#utility.yul\":8053:8062   */\n      dup7\n        /* \"#utility.yul\":8049:8071   */\n      add\n        /* \"#utility.yul\":8028:8081   */\n      tag_101\n      jump\t// in\n    tag_222:\n        /* \"#utility.yul\":8018:8081   */\n      swap2\n      pop\n        /* \"#utility.yul\":7973:8091   */\n      pop\n        /* \"#utility.yul\":7624:8098   */\n      swap3\n      pop\n      swap3\n      swap1\n      pop\n      jump\t// out\n        /* \"#utility.yul\":8104:8326   */\n    tag_32:\n        /* \"#utility.yul\":8197:8201   */\n      0x00\n        /* \"#utility.yul\":8235:8237   */\n      0x20\n        /* \"#utility.yul\":8224:8233   */\n      dup3\n        /* \"#utility.yul\":8220:8238   */\n      add\n        /* \"#utility.yul\":8212:8238   */\n      swap1\n      pop\n        /* \"#utility.yul\":8248:8319   */\n      tag_224\n        /* \"#utility.yul\":8316:8317   */\n      0x00\n        /* \"#utility.yul\":8305:8314   */\n      dup4\n        /* \"#utility.yul\":8301:8318   */\n      add\n        /* \"#utility.yul\":8292:8298   */\n      dup5\n        /* \"#utility.yul\":8248:8319   */\n      tag_97\n      jump\t// in\n    tag_224:\n        /* \"#utility.yul\":8104:8326   */\n      swap3\n      swap2\n      pop\n      pop\n      jump\t// out\n        /* \"#utility.yul\":8332:8475   */\n    tag_102:\n        /* \"#utility.yul\":8389:8394   */\n      0x00\n        /* \"#utility.yul\":8420:8426   */\n      dup2\n        /* \"#utility.yul\":8414:8427   */\n      mload\n        /* \"#utility.yul\":8405:8427   */\n      swap1\n      pop\n        /* \"#utility.yul\":8436:8469   */\n      tag_226\n        /* \"#utility.yul\":8463:8468   */\n      dup2\n        /* \"#utility.yul\":8436:8469   */\n      tag_100\n      jump\t// in\n    tag_226:\n        /* \"#utility.yul\":8332:8475   */\n      swap3\n      swap2\n      pop\n      pop\n      jump\t// out\n        /* \"#utility.yul\":8481:8832   */\n    tag_36:\n        /* \"#utility.yul\":8551:8557   */\n      0x00\n        /* \"#utility.yul\":8600:8602   */\n      0x20\n        /* \"#utility.yul\":8588:8597   */\n      dup3\n        /* \"#utility.yul\":8579:8586   */\n      dup5\n        /* \"#utility.yul\":8575:8598   */\n      sub\n        /* \"#utility.yul\":8571:8603   */\n      slt\n        /* \"#utility.yul\":8568:8687   */\n      iszero\n      tag_228\n      jumpi\n        /* \"#utility.yul\":8606:8685   */\n      tag_229\n      tag_78\n      jump\t// in\n    tag_229:\n        /* \"#utility.yul\":8568:8687   */\n    tag_228:\n        /* \"#utility.yul\":8726:8727   */\n      0x00\n        /* \"#utility.yul\":8751:8815   */\n      tag_230\n        /* \"#utility.yul\":8807:8814   */\n      dup5\n        /* \"#utility.yul\":8798:8804   */\n      dup3\n        /* \"#utility.yul\":8787:8796   */\n      dup6\n        /* \"#utility.yul\":8783:8805   */\n      add\n        /* \"#utility.yul\":8751:8815   */\n      tag_102\n      jump\t// in\n    tag_230:\n        /* \"#utility.yul\":8741:8815   */\n      swap2\n      pop\n        /* \"#utility.yul\":8697:8825   */\n      pop\n        /* \"#utility.yul\":8481:8832   */\n      swap3\n      swap2\n      pop\n      pop\n      jump\t// out\n        /* \"#utility.yul\":8838:9015   */\n    tag_103:\n        /* \"#utility.yul\":8978:9007   */\n      0x43616c6c6572206973206e6f7420746865204e4654206f776e65720000000000\n        /* \"#utility.yul\":8974:8975   */\n      0x00\n        /* \"#utility.yul\":8966:8972   */\n      dup3\n        /* \"#utility.yul\":8962:8976   */\n      add\n        /* \"#utility.yul\":8955:9008   */\n      mstore\n        /* \"#utility.yul\":8838:9015   */\n      pop\n      jump\t// out\n        /* \"#utility.yul\":9021:9387   */\n    tag_104:\n        /* \"#utility.yul\":9163:9166   */\n      0x00\n        /* \"#utility.yul\":9184:9251   */\n      tag_233\n        /* \"#utility.yul\":9248:9250   */\n      0x1b\n        /* \"#utility.yul\":9243:9246   */\n      dup4\n        /* \"#utility.yul\":9184:9251   */\n      tag_94\n      jump\t// in\n    tag_233:\n        /* \"#utility.yul\":9177:9251   */\n      swap2\n      pop\n        /* \"#utility.yul\":9260:9353   */\n      tag_234\n        /* \"#utility.yul\":9349:9352   */\n      dup3\n        /* \"#utility.yul\":9260:9353   */\n      tag_103\n      jump\t// in\n    tag_234:\n        /* \"#utility.yul\":9378:9380   */\n      0x20\n        /* \"#utility.yul\":9373:9376   */\n      dup3\n        /* \"#utility.yul\":9369:9381   */\n      add\n        /* \"#utility.yul\":9362:9381   */\n      swap1\n      pop\n        /* \"#utility.yul\":9021:9387   */\n      swap2\n      swap1\n      pop\n      jump\t// out\n        /* \"#utility.yul\":9393:9812   */\n    tag_39:\n        /* \"#utility.yul\":9559:9563   */\n      0x00\n        /* \"#utility.yul\":9597:9599   */\n      0x20\n        /* \"#utility.yul\":9586:9595   */\n      dup3\n        /* \"#utility.yul\":9582:9600   */\n      add\n        /* \"#utility.yul\":9574:9600   */\n      swap1\n      pop\n        /* \"#utility.yul\":9646:9655   */\n      dup2\n        /* \"#utility.yul\":9640:9644   */\n      dup2\n        /* \"#utility.yul\":9636:9656   */\n      sub\n        /* \"#utility.yul\":9632:9633   */\n      0x00\n        /* \"#utility.yul\":9621:9630   */\n      dup4\n        /* \"#utility.yul\":9617:9634   */\n      add\n        /* \"#utility.yul\":9610:9657   */\n      mstore\n        /* \"#utility.yul\":9674:9805   */\n      tag_236\n        /* \"#utility.yul\":9800:9804   */\n      dup2\n        /* \"#utility.yul\":9674:9805   */\n      tag_104\n      jump\t// in\n    tag_236:\n        /* \"#utility.yul\":9666:9805   */\n      swap1\n      pop\n        /* \"#utility.yul\":9393:9812   */\n      swap2\n      swap1\n      pop\n      jump\t// out\n        /* \"#utility.yul\":9818:9998   */\n    tag_105:\n        /* \"#utility.yul\":9866:9943   */\n      0x4e487b7100000000000000000000000000000000000000000000000000000000\n        /* \"#utility.yul\":9863:9864   */\n      0x00\n        /* \"#utility.yul\":9856:9944   */\n      mstore\n        /* \"#utility.yul\":9963:9967   */\n      0x22\n        /* \"#utility.yul\":9960:9961   */\n      0x04\n        /* \"#utility.yul\":9953:9968   */\n      mstore\n        /* \"#utility.yul\":9987:9991   */\n      0x24\n        /* \"#utility.yul\":9984:9985   */\n      0x00\n        /* \"#utility.yul\":9977:9992   */\n      revert\n        /* \"#utility.yul\":10004:10324   */\n    tag_46:\n        /* \"#utility.yul\":10048:10054   */\n      0x00\n        /* \"#utility.yul\":10085:10086   */\n      0x02\n        /* \"#utility.yul\":10079:10083   */\n      dup3\n        /* \"#utility.yul\":10075:10087   */\n      div\n        /* \"#utility.yul\":10065:10087   */\n      swap1\n      pop\n        /* \"#utility.yul\":10132:10133   */\n      0x01\n        /* \"#utility.yul\":10126:10130   */\n      dup3\n        /* \"#utility.yul\":10122:10134   */\n      and\n        /* \"#utility.yul\":10153:10171   */\n      dup1\n        /* \"#utility.yul\":10143:10224   */\n      tag_239\n      jumpi\n        /* \"#utility.yul\":10209:10213   */\n      0x7f\n        /* \"#utility.yul\":10201:10207   */\n      dup3\n        /* \"#utility.yul\":10197:10214   */\n      and\n        /* \"#utility.yul\":10187:10214   */\n      swap2\n      pop\n        /* \"#utility.yul\":10143:10224   */\n    tag_239:\n        /* \"#utility.yul\":10271:10273   */\n      0x20\n        /* \"#utility.yul\":10263:10269   */\n      dup3\n        /* \"#utility.yul\":10260:10274   */\n      lt\n        /* \"#utility.yul\":10240:10258   */\n      dup2\n        /* \"#utility.yul\":10237:10275   */\n      sub\n        /* \"#utility.yul\":10234:10318   */\n      tag_240\n      jumpi\n        /* \"#utility.yul\":10290:10308   */\n      tag_241\n      tag_105\n      jump\t// in\n    tag_241:\n        /* \"#utility.yul\":10234:10318   */\n    tag_240:\n        /* \"#utility.yul\":10055:10324   */\n      pop\n        /* \"#utility.yul\":10004:10324   */\n      swap2\n      swap1\n      pop\n      jump\t// out\n        /* \"#utility.yul\":10330:10471   */\n    tag_106:\n        /* \"#utility.yul\":10379:10383   */\n      0x00\n        /* \"#utility.yul\":10402:10405   */\n      dup2\n        /* \"#utility.yul\":10394:10405   */\n      swap1\n      pop\n        /* \"#utility.yul\":10425:10428   */\n      dup2\n        /* \"#utility.yul\":10422:10423   */\n      0x00\n        /* \"#utility.yul\":10415:10429   */\n      mstore\n        /* \"#utility.yul\":10459:10463   */\n      0x20\n        /* \"#utility.yul\":10456:10457   */\n      0x00\n        /* \"#utility.yul\":10446:10464   */\n      keccak256\n        /* \"#utility.yul\":10438:10464   */\n      swap1\n      pop\n        /* \"#utility.yul\":10330:10471   */\n      swap2\n      swap1\n      pop\n      jump\t// out\n        /* \"#utility.yul\":10477:10570   */\n    tag_107:\n        /* \"#utility.yul\":10514:10520   */\n      0x00\n        /* \"#utility.yul\":10561:10563   */\n      0x20\n        /* \"#utility.yul\":10556:10558   */\n      0x1f\n        /* \"#utility.yul\":10549:10554   */\n      dup4\n        /* \"#utility.yul\":10545:10559   */\n      add\n        /* \"#utility.yul\":10541:10564   */\n      div\n        /* \"#utility.yul\":10531:10564   */\n      swap1\n      pop\n        /* \"#utility.yul\":10477:10570   */\n      swap2\n      swap1\n      pop\n      jump\t// out\n        /* \"#utility.yul\":10576:10683   */\n    tag_108:\n        /* \"#utility.yul\":10620:10628   */\n      0x00\n        /* \"#utility.yul\":10670:10675   */\n      dup3\n        /* \"#utility.yul\":10664:10668   */\n      dup3\n        /* \"#utility.yul\":10660:10676   */\n      shl\n        /* \"#utility.yul\":10639:10676   */\n      swap1\n      pop\n        /* \"#utility.yul\":10576:10683   */\n      swap3\n      swap2\n      pop\n      pop\n      jump\t// out\n        /* \"#utility.yul\":10689:11082   */\n    tag_109:\n        /* \"#utility.yul\":10758:10764   */\n      0x00\n        /* \"#utility.yul\":10808:10809   */\n      0x08\n        /* \"#utility.yul\":10796:10806   */\n      dup4\n        /* \"#utility.yul\":10792:10810   */\n      mul\n        /* \"#utility.yul\":10831:10928   */\n      tag_246\n        /* \"#utility.yul\":10861:10927   */\n      0xffffffffffffffffffffffffffffffffffffffffffffffffffffffffffffffff\n        /* \"#utility.yul\":10850:10859   */\n      dup3\n        /* \"#utility.yul\":10831:10928   */\n      tag_108\n      jump\t// in\n    tag_246:\n        /* \"#utility.yul\":10949:10988   */\n      tag_247\n        /* \"#utility.yul\":10979:10987   */\n      dup7\n        /* \"#utility.yul\":10968:10977   */\n      dup4\n        /* \"#utility.yul\":10949:10988   */\n      tag_108\n      jump\t// in\n    tag_247:\n        /* \"#utility.yul\":10937:10988   */\n      swap6\n      pop\n        /* \"#utility.yul\":11021:11025   */\n      dup1\n        /* \"#utility.yul\":11017:11026   */\n      not\n        /* \"#utility.yul\":11010:11015   */\n      dup5\n        /* \"#utility.yul\":11006:11027   */\n      and\n        /* \"#utility.yul\":10997:11027   */\n      swap4\n      pop\n        /* \"#utility.yul\":11070:11074   */\n      dup1\n        /* \"#utility.yul\":11060:11068   */\n      dup7\n        /* \"#utility.yul\":11056:11075   */\n      and\n        /* \"#utility.yul\":11049:11054   */\n      dup5\n        /* \"#utility.yul\":11046:11076   */\n      or\n        /* \"#utility.yul\":11036:11076   */\n      swap3\n      pop\n        /* \"#utility.yul\":10765:11082   */\n      pop\n      pop\n        /* \"#utility.yul\":10689:11082   */\n      swap4\n      swap3\n      pop\n      pop\n      pop\n      jump\t// out\n        /* \"#utility.yul\":11088:11230   */\n    tag_110:\n        /* \"#utility.yul\":11138:11147   */\n      0x00\n        /* \"#utility.yul\":11171:11224   */\n      tag_249\n        /* \"#utility.yul\":11189:11223   */\n      tag_250\n        /* \"#utility.yul\":11198:11222   */\n      tag_251\n        /* \"#utility.yul\":11216:11221   */\n      dup5\n        /* \"#utility.yul\":11198:11222   */\n      tag_80\n      jump\t// in\n    tag_251:\n        /* \"#utility.yul\":11189:11223   */\n      tag_70\n      jump\t// in\n    tag_250:\n        /* \"#utility.yul\":11171:11224   */\n      tag_80\n      jump\t// in\n    tag_249:\n        /* \"#utility.yul\":11158:11224   */\n      swap1\n      pop\n        /* \"#utility.yul\":11088:11230   */\n      swap2\n      swap1\n      pop\n      jump\t// out\n        /* \"#utility.yul\":11236:11311   */\n    tag_111:\n        /* \"#utility.yul\":11279:11282   */\n      0x00\n        /* \"#utility.yul\":11300:11305   */\n      dup2\n        /* \"#utility.yul\":11293:11305   */\n      swap1\n      pop\n        /* \"#utility.yul\":11236:11311   */\n      swap2\n      swap1\n      pop\n      jump\t// out\n        /* \"#utility.yul\":11317:11586   */\n    tag_112:\n        /* \"#utility.yul\":11427:11466   */\n      tag_254\n        /* \"#utility.yul\":11458:11465   */\n      dup4\n        /* \"#utility.yul\":11427:11466   */\n      tag_110\n      jump\t// in\n    tag_254:\n        /* \"#utility.yul\":11488:11579   */\n      tag_255\n        /* \"#utility.yul\":11537:11578   */\n      tag_256\n        /* \"#utility.yul\":11561:11577   */\n      dup3\n        /* \"#utility.yul\":11537:11578   */\n      tag_111\n      jump\t// in\n    tag_256:\n        /* \"#utility.yul\":11529:11535   */\n      dup5\n        /* \"#utility.yul\":11522:11526   */\n      dup5\n        /* \"#utility.yul\":11516:11527   */\n      sload\n        /* \"#utility.yul\":11488:11579   */\n      tag_109\n      jump\t// in\n    tag_255:\n        /* \"#utility.yul\":11482:11486   */\n      dup3\n        /* \"#utility.yul\":11475:11580   */\n      sstore\n        /* \"#utility.yul\":11393:11586   */\n      pop\n        /* \"#utility.yul\":11317:11586   */\n      pop\n      pop\n      pop\n      jump\t// out\n        /* \"#utility.yul\":11592:11665   */\n    tag_113:\n        /* \"#utility.yul\":11637:11640   */\n      0x00\n        /* \"#utility.yul\":11592:11665   */\n      swap1\n      jump\t// out\n        /* \"#utility.yul\":11671:11860   */\n    tag_114:\n        /* \"#utility.yul\":11748:11780   */\n      tag_259\n      tag_113\n      jump\t// in\n    tag_259:\n        /* \"#utility.yul\":11789:11854   */\n      tag_260\n        /* \"#utility.yul\":11847:11853   */\n      dup2\n        /* \"#utility.yul\":11839:11845   */\n      dup5\n        /* \"#utility.yul\":11833:11837   */\n      dup5\n        /* \"#utility.yul\":11789:11854   */\n      tag_112\n      jump\t// in\n    tag_260:\n        /* \"#utility.yul\":11724:11860   */\n      pop\n        /* \"#utility.yul\":11671:11860   */\n      pop\n      pop\n      jump\t// out\n        /* \"#utility.yul\":11866:12052   */\n    tag_115:\n        /* \"#utility.yul\":11926:12046   */\n    tag_262:\n        /* \"#utility.yul\":11943:11946   */\n      dup2\n        /* \"#utility.yul\":11936:11941   */\n      dup2\n        /* \"#utility.yul\":11933:11947   */\n      lt\n        /* \"#utility.yul\":11926:12046   */\n      iszero\n      tag_264\n      jumpi\n        /* \"#utility.yul\":11997:12036   */\n      tag_265\n        /* \"#utility.yul\":12034:12035   */\n      0x00\n        /* \"#utility.yul\":12027:12032   */\n      dup3\n        /* \"#utility.yul\":11997:12036   */\n      tag_114\n      jump\t// in\n    tag_265:\n        /* \"#utility.yul\":11970:11971   */\n      0x01\n        /* \"#utility.yul\":11963:11968   */\n      dup2\n        /* \"#utility.yul\":11959:11972   */\n      add\n        /* \"#utility.yul\":11950:11972   */\n      swap1\n      pop\n        /* \"#utility.yul\":11926:12046   */\n      jump(tag_262)\n    tag_264:\n        /* \"#utility.yul\":11866:12052   */\n      pop\n      pop\n      jump\t// out\n        /* \"#utility.yul\":12058:12601   */\n    tag_116:\n        /* \"#utility.yul\":12159:12161   */\n      0x1f\n        /* \"#utility.yul\":12154:12157   */\n      dup3\n        /* \"#utility.yul\":12151:12162   */\n      gt\n        /* \"#utility.yul\":12148:12594   */\n      iszero\n      tag_267\n      jumpi\n        /* \"#utility.yul\":12193:12231   */\n      tag_268\n        /* \"#utility.yul\":12225:12230   */\n      dup2\n        /* \"#utility.yul\":12193:12231   */\n      tag_106\n      jump\t// in\n    tag_268:\n        /* \"#utility.yul\":12277:12306   */\n      tag_269\n        /* \"#utility.yul\":12295:12305   */\n      dup5\n        /* \"#utility.yul\":12277:12306   */\n      tag_107\n      jump\t// in\n    tag_269:\n        /* \"#utility.yul\":12267:12275   */\n      dup2\n        /* \"#utility.yul\":12263:12307   */\n      add\n        /* \"#utility.yul\":12460:12462   */\n      0x20\n        /* \"#utility.yul\":12448:12458   */\n      dup6\n        /* \"#utility.yul\":12445:12463   */\n      lt\n        /* \"#utility.yul\":12442:12491   */\n      iszero\n      tag_270\n      jumpi\n        /* \"#utility.yul\":12481:12489   */\n      dup2\n        /* \"#utility.yul\":12466:12489   */\n      swap1\n      pop\n        /* \"#utility.yul\":12442:12491   */\n    tag_270:\n        /* \"#utility.yul\":12504:12584   */\n      tag_271\n        /* \"#utility.yul\":12560:12582   */\n      tag_272\n        /* \"#utility.yul\":12578:12581   */\n      dup6\n        /* \"#utility.yul\":12560:12582   */\n      tag_107\n      jump\t// in\n    tag_272:\n        /* \"#utility.yul\":12550:12558   */\n      dup4\n        /* \"#utility.yul\":12546:12583   */\n      add\n        /* \"#utility.yul\":12533:12544   */\n      dup3\n        /* \"#utility.yul\":12504:12584   */\n      tag_115\n      jump\t// in\n    tag_271:\n        /* \"#utility.yul\":12163:12594   */\n      pop\n      pop\n        /* \"#utility.yul\":12148:12594   */\n    tag_267:\n        /* \"#utility.yul\":12058:12601   */\n      pop\n      pop\n      pop\n      jump\t// out\n        /* \"#utility.yul\":12607:12724   */\n    tag_117:\n        /* \"#utility.yul\":12661:12669   */\n      0x00\n        /* \"#utility.yul\":12711:12716   */\n      dup3\n        /* \"#utility.yul\":12705:12709   */\n      dup3\n        /* \"#utility.yul\":12701:12717   */\n      shr\n        /* \"#utility.yul\":12680:12717   */\n      swap1\n      pop\n        /* \"#utility.yul\":12607:12724   */\n      swap3\n      swap2\n      pop\n      pop\n      jump\t// out\n        /* \"#utility.yul\":12730:12899   */\n    tag_118:\n        /* \"#utility.yul\":12774:12780   */\n      0x00\n        /* \"#utility.yul\":12807:12858   */\n      tag_275\n        /* \"#utility.yul\":12855:12856   */\n      0x00\n        /* \"#utility.yul\":12851:12857   */\n      not\n        /* \"#utility.yul\":12843:12848   */\n      dup5\n        /* \"#utility.yul\":12840:12841   */\n      0x08\n        /* \"#utility.yul\":12836:12849   */\n      mul\n        /* \"#utility.yul\":12807:12858   */\n      tag_117\n      jump\t// in\n    tag_275:\n        /* \"#utility.yul\":12803:12859   */\n      not\n        /* \"#utility.yul\":12888:12892   */\n      dup1\n        /* \"#utility.yul\":12882:12886   */\n      dup4\n        /* \"#utility.yul\":12878:12893   */\n      and\n        /* \"#utility.yul\":12868:12893   */\n      swap2\n      pop\n        /* \"#utility.yul\":12781:12899   */\n      pop\n        /* \"#utility.yul\":12730:12899   */\n      swap3\n      swap2\n      pop\n      pop\n      jump\t// out\n        /* \"#utility.yul\":12904:13199   */\n    tag_119:\n        /* \"#utility.yul\":12980:12984   */\n      0x00\n        /* \"#utility.yul\":13126:13155   */\n      tag_277\n        /* \"#utility.yul\":13151:13154   */\n      dup4\n        /* \"#utility.yul\":13145:13149   */\n      dup4\n        /* \"#utility.yul\":13126:13155   */\n      tag_118\n      jump\t// in\n    tag_277:\n        /* \"#utility.yul\":13118:13155   */\n      swap2\n      pop\n        /* \"#utility.yul\":13188:13191   */\n      dup3\n        /* \"#utility.yul\":13185:13186   */\n      0x02\n        /* \"#utility.yul\":13181:13192   */\n      mul\n        /* \"#utility.yul\":13175:13179   */\n      dup3\n        /* \"#utility.yul\":13172:13193   */\n      or\n        /* \"#utility.yul\":13164:13193   */\n      swap1\n      pop\n        /* \"#utility.yul\":12904:13199   */\n      swap3\n      swap2\n      pop\n      pop\n      jump\t// out\n        /* \"#utility.yul\":13204:14599   */\n    tag_42:\n        /* \"#utility.yul\":13321:13358   */\n      tag_279\n        /* \"#utility.yul\":13354:13357   */\n      dup3\n        /* \"#utility.yul\":13321:13358   */\n      tag_93\n      jump\t// in\n    tag_279:\n        /* \"#utility.yul\":13423:13441   */\n      0xffffffffffffffff\n        /* \"#utility.yul\":13415:13421   */\n      dup2\n        /* \"#utility.yul\":13412:13442   */\n      gt\n        /* \"#utility.yul\":13409:13465   */\n      iszero\n      tag_280\n      jumpi\n        /* \"#utility.yul\":13445:13463   */\n      tag_281\n      tag_86\n      jump\t// in\n    tag_281:\n        /* \"#utility.yul\":13409:13465   */\n    tag_280:\n        /* \"#utility.yul\":13489:13527   */\n      tag_282\n        /* \"#utility.yul\":13521:13525   */\n      dup3\n        /* \"#utility.yul\":13515:13526   */\n      sload\n        /* \"#utility.yul\":13489:13527   */\n      tag_46\n      jump\t// in\n    tag_282:\n        /* \"#utility.yul\":13574:13641   */\n      tag_283\n        /* \"#utility.yul\":13634:13640   */\n      dup3\n        /* \"#utility.yul\":13626:13632   */\n      dup3\n        /* \"#utility.yul\":13620:13624   */\n      dup6\n        /* \"#utility.yul\":13574:13641   */\n      tag_116\n      jump\t// in\n    tag_283:\n        /* \"#utility.yul\":13668:13669   */\n      0x00\n        /* \"#utility.yul\":13692:13696   */\n      0x20\n        /* \"#utility.yul\":13679:13696   */\n      swap1\n      pop\n        /* \"#utility.yul\":13724:13726   */\n      0x1f\n        /* \"#utility.yul\":13716:13722   */\n      dup4\n        /* \"#utility.yul\":13713:13727   */\n      gt\n        /* \"#utility.yul\":13741:13742   */\n      0x01\n        /* \"#utility.yul\":13736:14354   */\n      dup2\n      eq\n      tag_285\n      jumpi\n        /* \"#utility.yul\":14398:14399   */\n      0x00\n        /* \"#utility.yul\":14415:14421   */\n      dup5\n        /* \"#utility.yul\":14412:14489   */\n      iszero\n      tag_286\n      jumpi\n        /* \"#utility.yul\":14464:14473   */\n      dup3\n        /* \"#utility.yul\":14459:14462   */\n      dup8\n        /* \"#utility.yul\":14455:14474   */\n      add\n        /* \"#utility.yul\":14449:14475   */\n      mload\n        /* \"#utility.yul\":14440:14475   */\n      swap1\n      pop\n        /* \"#utility.yul\":14412:14489   */\n    tag_286:\n        /* \"#utility.yul\":14515:14582   */\n      tag_287\n        /* \"#utility.yul\":14575:14581   */\n      dup6\n        /* \"#utility.yul\":14568:14573   */\n      dup3\n        /* \"#utility.yul\":14515:14582   */\n      tag_119\n      jump\t// in\n    tag_287:\n        /* \"#utility.yul\":14509:14513   */\n      dup7\n        /* \"#utility.yul\":14502:14583   */\n      sstore\n        /* \"#utility.yul\":14371:14593   */\n      pop\n        /* \"#utility.yul\":13706:14593   */\n      jump(tag_284)\n        /* \"#utility.yul\":13736:14354   */\n    tag_285:\n        /* \"#utility.yul\":13788:13792   */\n      0x1f\n        /* \"#utility.yul\":13784:13793   */\n      not\n        /* \"#utility.yul\":13776:13782   */\n      dup5\n        /* \"#utility.yul\":13772:13794   */\n      and\n        /* \"#utility.yul\":13822:13859   */\n      tag_288\n        /* \"#utility.yul\":13854:13858   */\n      dup7\n        /* \"#utility.yul\":13822:13859   */\n      tag_106\n      jump\t// in\n    tag_288:\n        /* \"#utility.yul\":13881:13882   */\n      0x00\n        /* \"#utility.yul\":13895:14103   */\n    tag_289:\n        /* \"#utility.yul\":13909:13916   */\n      dup3\n        /* \"#utility.yul\":13906:13907   */\n      dup2\n        /* \"#utility.yul\":13903:13917   */\n      lt\n        /* \"#utility.yul\":13895:14103   */\n      iszero\n      tag_291\n      jumpi\n        /* \"#utility.yul\":13988:13997   */\n      dup5\n        /* \"#utility.yul\":13983:13986   */\n      dup10\n        /* \"#utility.yul\":13979:13998   */\n      add\n        /* \"#utility.yul\":13973:13999   */\n      mload\n        /* \"#utility.yul\":13965:13971   */\n      dup3\n        /* \"#utility.yul\":13958:14000   */\n      sstore\n        /* \"#utility.yul\":14039:14040   */\n      0x01\n        /* \"#utility.yul\":14031:14037   */\n      dup3\n        /* \"#utility.yul\":14027:14041   */\n      add\n        /* \"#utility.yul\":14017:14041   */\n      swap2\n      pop\n        /* \"#utility.yul\":14086:14088   */\n      0x20\n        /* \"#utility.yul\":14075:14084   */\n      dup6\n        /* \"#utility.yul\":14071:14089   */\n      add\n        /* \"#utility.yul\":14058:14089   */\n      swap5\n      pop\n        /* \"#utility.yul\":13932:13936   */\n      0x20\n        /* \"#utility.yul\":13929:13930   */\n      dup2\n        /* \"#utility.yul\":13925:13937   */\n      add\n        /* \"#utility.yul\":13920:13937   */\n      swap1\n      pop\n        /* \"#utility.yul\":13895:14103   */\n      jump(tag_289)\n    tag_291:\n        /* \"#utility.yul\":14131:14137   */\n      dup7\n        /* \"#utility.yul\":14122:14129   */\n      dup4\n        /* \"#utility.yul\":14119:14138   */\n      lt\n        /* \"#utility.yul\":14116:14295   */\n      iszero\n      tag_292\n      jumpi\n        /* \"#utility.yul\":14189:14198   */\n      dup5\n        /* \"#utility.yul\":14184:14187   */\n      dup10\n        /* \"#utility.yul\":14180:14199   */\n      add\n        /* \"#utility.yul\":14174:14200   */\n      mload\n        /* \"#utility.yul\":14232:14280   */\n      tag_293\n        /* \"#utility.yul\":14274:14278   */\n      0x1f\n        /* \"#utility.yul\":14266:14272   */\n      dup10\n        /* \"#utility.yul\":14262:14279   */\n      and\n        /* \"#utility.yul\":14251:14260   */\n      dup3\n        /* \"#utility.yul\":14232:14280   */\n      tag_118\n      jump\t// in\n    tag_293:\n        /* \"#utility.yul\":14224:14230   */\n      dup4\n        /* \"#utility.yul\":14217:14281   */\n      sstore\n        /* \"#utility.yul\":14139:14295   */\n      pop\n        /* \"#utility.yul\":14116:14295   */\n    tag_292:\n        /* \"#utility.yul\":14341:14342   */\n      0x01\n        /* \"#utility.yul\":14337:14338   */\n      0x02\n        /* \"#utility.yul\":14329:14335   */\n      dup9\n        /* \"#utility.yul\":14325:14339   */\n      mul\n        /* \"#utility.yul\":14321:14343   */\n      add\n        /* \"#utility.yul\":14315:14319   */\n      dup9\n        /* \"#utility.yul\":14308:14344   */\n      sstore\n        /* \"#utility.yul\":13743:14354   */\n      pop\n      pop\n      pop\n        /* \"#utility.yul\":13706:14593   */\n    tag_284:\n      pop\n        /* \"#utility.yul\":13296:14599   */\n      pop\n      pop\n      pop\n        /* \"#utility.yul\":13204:14599   */\n      pop\n      pop\n      jump\t// out\n        /* \"#utility.yul\":14605:15249   */\n    tag_44:\n        /* \"#utility.yul\":14802:14806   */\n      0x00\n        /* \"#utility.yul\":14840:14843   */\n      0x80\n        /* \"#utility.yul\":14829:14838   */\n      dup3\n        /* \"#utility.yul\":14825:14844   */\n      add\n        /* \"#utility.yul\":14817:14844   */\n      swap1\n      pop\n        /* \"#utility.yul\":14854:14925   */\n      tag_295\n        /* \"#utility.yul\":14922:14923   */\n      0x00\n        /* \"#utility.yul\":14911:14920   */\n      dup4\n        /* \"#utility.yul\":14907:14924   */\n      add\n        /* \"#utility.yul\":14898:14904   */\n      dup8\n        /* \"#utility.yul\":14854:14925   */\n      tag_97\n      jump\t// in\n    tag_295:\n        /* \"#utility.yul\":14972:14981   */\n      dup2\n        /* \"#utility.yul\":14966:14970   */\n      dup2\n        /* \"#utility.yul\":14962:14982   */\n      sub\n        /* \"#utility.yul\":14957:14959   */\n      0x20\n        /* \"#utility.yul\":14946:14955   */\n      dup4\n        /* \"#utility.yul\":14942:14960   */\n      add\n        /* \"#utility.yul\":14935:14983   */\n      mstore\n        /* \"#utility.yul\":15000:15078   */\n      tag_296\n        /* \"#utility.yul\":15073:15077   */\n      dup2\n        /* \"#utility.yul\":15064:15070   */\n      dup7\n        /* \"#utility.yul\":15000:15078   */\n      tag_96\n      jump\t// in\n    tag_296:\n        /* \"#utility.yul\":14992:15078   */\n      swap1\n      pop\n        /* \"#utility.yul\":15088:15160   */\n      tag_297\n        /* \"#utility.yul\":15156:15158   */\n      0x40\n        /* \"#utility.yul\":15145:15154   */\n      dup4\n        /* \"#utility.yul\":15141:15159   */\n      add\n        /* \"#utility.yul\":15132:15138   */\n      dup6\n        /* \"#utility.yul\":15088:15160   */\n      tag_76\n      jump\t// in\n    tag_297:\n        /* \"#utility.yul\":15170:15242   */\n      tag_298\n        /* \"#utility.yul\":15238:15240   */\n      0x60\n        /* \"#utility.yul\":15227:15236   */\n      dup4\n        /* \"#utility.yul\":15223:15241   */\n      add\n        /* \"#utility.yul\":15214:15220   */\n      dup5\n        /* \"#utility.yul\":15170:15242   */\n      tag_97\n      jump\t// in\n    tag_298:\n        /* \"#utility.yul\":14605:15249   */\n      swap6\n      swap5\n      pop\n      pop\n      pop\n      pop\n      pop\n      jump\t// out\n        /* \"#utility.yul\":15255:15429   */\n    tag_120:\n        /* \"#utility.yul\":15395:15421   */\n      0x43616c6c6572206973206e6f74207468652073656c6c65720000000000000000\n        /* \"#utility.yul\":15391:15392   */\n      0x00\n        /* \"#utility.yul\":15383:15389   */\n      dup3\n        /* \"#utility.yul\":15379:15393   */\n      add\n        /* \"#utility.yul\":15372:15422   */\n      mstore\n        /* \"#utility.yul\":15255:15429   */\n      pop\n      jump\t// out\n        /* \"#utility.yul\":15435:15801   */\n    tag_121:\n        /* \"#utility.yul\":15577:15580   */\n      0x00\n        /* \"#utility.yul\":15598:15665   */\n      tag_301\n        /* \"#utility.yul\":15662:15664   */\n      0x18\n        /* \"#utility.yul\":15657:15660   */\n      dup4\n        /* \"#utility.yul\":15598:15665   */\n      tag_94\n      jump\t// in\n    tag_301:\n        /* \"#utility.yul\":15591:15665   */\n      swap2\n      pop\n        /* \"#utility.yul\":15674:15767   */\n      tag_302\n        /* \"#utility.yul\":15763:15766   */\n      dup3\n        /* \"#utility.yul\":15674:15767   */\n      tag_120\n      jump\t// in\n    tag_302:\n        /* \"#utility.yul\":15792:15794   */\n      0x20\n        /* \"#utility.yul\":15787:15790   */\n      dup3\n        /* \"#utility.yul\":15783:15795   */\n      add\n        /* \"#utility.yul\":15776:15795   */\n      swap1\n      pop\n        /* \"#utility.yul\":15435:15801   */\n      swap2\n      swap1\n      pop\n      jump\t// out\n        /* \"#utility.yul\":15807:16226   */\n    tag_54:\n        /* \"#utility.yul\":15973:15977   */\n      0x00\n        /* \"#utility.yul\":16011:16013   */\n      0x20\n        /* \"#utility.yul\":16000:16009   */\n      dup3\n        /* \"#utility.yul\":15996:16014   */\n      add\n        /* \"#utility.yul\":15988:16014   */\n      swap1\n      pop\n        /* \"#utility.yul\":16060:16069   */\n      dup2\n        /* \"#utility.yul\":16054:16058   */\n      dup2\n        /* \"#utility.yul\":16050:16070   */\n      sub\n        /* \"#utility.yul\":16046:16047   */\n      0x00\n        /* \"#utility.yul\":16035:16044   */\n      dup4\n        /* \"#utility.yul\":16031:16048   */\n      add\n        /* \"#utility.yul\":16024:16071   */\n      mstore\n        /* \"#utility.yul\":16088:16219   */\n      tag_304\n        /* \"#utility.yul\":16214:16218   */\n      dup2\n        /* \"#utility.yul\":16088:16219   */\n      tag_121\n      jump\t// in\n    tag_304:\n        /* \"#utility.yul\":16080:16219   */\n      swap1\n      pop\n        /* \"#utility.yul\":15807:16226   */\n      swap2\n      swap1\n      pop\n      jump\t// out\n        /* \"#utility.yul\":16232:16400   */\n    tag_122:\n        /* \"#utility.yul\":16372:16392   */\n      0x53616c65206973206e6f74206163746976650000000000000000000000000000\n        /* \"#utility.yul\":16368:16369   */\n      0x00\n        /* \"#utility.yul\":16360:16366   */\n      dup3\n        /* \"#utility.yul\":16356:16370   */\n      add\n        /* \"#utility.yul\":16349:16393   */\n      mstore\n        /* \"#utility.yul\":16232:16400   */\n      pop\n      jump\t// out\n        /* \"#utility.yul\":16406:16772   */\n    tag_123:\n        /* \"#utility.yul\":16548:16551   */\n      0x00\n        /* \"#utility.yul\":16569:16636   */\n      tag_307\n        /* \"#utility.yul\":16633:16635   */\n      0x12\n        /* \"#utility.yul\":16628:16631   */\n      dup4\n        /* \"#utility.yul\":16569:16636   */\n      tag_94\n      jump\t// in\n    tag_307:\n        /* \"#utility.yul\":16562:16636   */\n      swap2\n      pop\n        /* \"#utility.yul\":16645:16738   */\n      tag_308\n        /* \"#utility.yul\":16734:16737   */\n      dup3\n        /* \"#utility.yul\":16645:16738   */\n      tag_122\n      jump\t// in\n    tag_308:\n        /* \"#utility.yul\":16763:16765   */\n      0x20\n        /* \"#utility.yul\":16758:16761   */\n      dup3\n        /* \"#utility.yul\":16754:16766   */\n      add\n        /* \"#utility.yul\":16747:16766   */\n      swap1\n      pop\n        /* \"#utility.yul\":16406:16772   */\n      swap2\n      swap1\n      pop\n      jump\t// out\n        /* \"#utility.yul\":16778:17197   */\n    tag_58:\n        /* \"#utility.yul\":16944:16948   */\n      0x00\n        /* \"#utility.yul\":16982:16984   */\n      0x20\n        /* \"#utility.yul\":16971:16980   */\n      dup3\n        /* \"#utility.yul\":16967:16985   */\n      add\n        /* \"#utility.yul\":16959:16985   */\n      swap1\n      pop\n        /* \"#utility.yul\":17031:17040   */\n      dup2\n        /* \"#utility.yul\":17025:17029   */\n      dup2\n        /* \"#utility.yul\":17021:17041   */\n      sub\n        /* \"#utility.yul\":17017:17018   */\n      0x00\n        /* \"#utility.yul\":17006:17015   */\n      dup4\n        /* \"#utility.yul\":17002:17019   */\n      add\n        /* \"#utility.yul\":16995:17042   */\n      mstore\n        /* \"#utility.yul\":17059:17190   */\n      tag_310\n        /* \"#utility.yul\":17185:17189   */\n      dup2\n        /* \"#utility.yul\":17059:17190   */\n      tag_123\n      jump\t// in\n    tag_310:\n        /* \"#utility.yul\":17051:17190   */\n      swap1\n      pop\n        /* \"#utility.yul\":16778:17197   */\n      swap2\n      swap1\n      pop\n      jump\t// out\n        /* \"#utility.yul\":17203:17366   */\n    tag_124:\n        /* \"#utility.yul\":17343:17358   */\n      0x496e76616c696420627579657200000000000000000000000000000000000000\n        /* \"#utility.yul\":17339:17340   */\n      0x00\n        /* \"#utility.yul\":17331:17337   */\n      dup3\n        /* \"#utility.yul\":17327:17341   */\n      add\n        /* \"#utility.yul\":17320:17359   */\n      mstore\n        /* \"#utility.yul\":17203:17366   */\n      pop\n      jump\t// out\n        /* \"#utility.yul\":17372:17738   */\n    tag_125:\n        /* \"#utility.yul\":17514:17517   */\n      0x00\n        /* \"#utility.yul\":17535:17602   */\n      tag_313\n        /* \"#utility.yul\":17599:17601   */\n      0x0d\n        /* \"#utility.yul\":17594:17597   */\n      dup4\n        /* \"#utility.yul\":17535:17602   */\n      tag_94\n      jump\t// in\n    tag_313:\n        /* \"#utility.yul\":17528:17602   */\n      swap2\n      pop\n        /* \"#utility.yul\":17611:17704   */\n      tag_314\n        /* \"#utility.yul\":17700:17703   */\n      dup3\n        /* \"#utility.yul\":17611:17704   */\n      tag_124\n      jump\t// in\n    tag_314:\n        /* \"#utility.yul\":17729:17731   */\n      0x20\n        /* \"#utility.yul\":17724:17727   */\n      dup3\n        /* \"#utility.yul\":17720:17732   */\n      add\n        /* \"#utility.yul\":17713:17732   */\n      swap1\n      pop\n        /* \"#utility.yul\":17372:17738   */\n      swap2\n      swap1\n      pop\n      jump\t// out\n        /* \"#utility.yul\":17744:18163   */\n    tag_61:\n        /* \"#utility.yul\":17910:17914   */\n      0x00\n        /* \"#utility.yul\":17948:17950   */\n      0x20\n        /* \"#utility.yul\":17937:17946   */\n      dup3\n        /* \"#utility.yul\":17933:17951   */\n      add\n        /* \"#utility.yul\":17925:17951   */\n      swap1\n      pop\n        /* \"#utility.yul\":17997:18006   */\n      dup2\n        /* \"#utility.yul\":17991:17995   */\n      dup2\n        /* \"#utility.yul\":17987:18007   */\n      sub\n        /* \"#utility.yul\":17983:17984   */\n      0x00\n        /* \"#utility.yul\":17972:17981   */\n      dup4\n        /* \"#utility.yul\":17968:17985   */\n      add\n        /* \"#utility.yul\":17961:18008   */\n      mstore\n        /* \"#utility.yul\":18025:18156   */\n      tag_316\n        /* \"#utility.yul\":18151:18155   */\n      dup2\n        /* \"#utility.yul\":18025:18156   */\n      tag_125\n      jump\t// in\n    tag_316:\n        /* \"#utility.yul\":18017:18156   */\n      swap1\n      pop\n        /* \"#utility.yul\":17744:18163   */\n      swap2\n      swap1\n      pop\n      jump\t// out\n        /* \"#utility.yul\":18169:18611   */\n    tag_63:\n        /* \"#utility.yul\":18318:18322   */\n      0x00\n        /* \"#utility.yul\":18356:18358   */\n      0x60\n        /* \"#utility.yul\":18345:18354   */\n      dup3\n        /* \"#utility.yul\":18341:18359   */\n      add\n        /* \"#utility.yul\":18333:18359   */\n      swap1\n      pop\n        /* \"#utility.yul\":18369:18440   */\n      tag_318\n        /* \"#utility.yul\":18437:18438   */\n      0x00\n        /* \"#utility.yul\":18426:18435   */\n      dup4\n        /* \"#utility.yul\":18422:18439   */\n      add\n        /* \"#utility.yul\":18413:18419   */\n      dup7\n        /* \"#utility.yul\":18369:18440   */\n      tag_76\n      jump\t// in\n    tag_318:\n        /* \"#utility.yul\":18450:18522   */\n      tag_319\n        /* \"#utility.yul\":18518:18520   */\n      0x20\n        /* \"#utility.yul\":18507:18516   */\n      dup4\n        /* \"#utility.yul\":18503:18521   */\n      add\n        /* \"#utility.yul\":18494:18500   */\n      dup6\n        /* \"#utility.yul\":18450:18522   */\n      tag_76\n      jump\t// in\n    tag_319:\n        /* \"#utility.yul\":18532:18604   */\n      tag_320\n        /* \"#utility.yul\":18600:18602   */\n      0x40\n        /* \"#utility.yul\":18589:18598   */\n      dup4\n        /* \"#utility.yul\":18585:18603   */\n      add\n        /* \"#utility.yul\":18576:18582   */\n      dup5\n        /* \"#utility.yul\":18532:18604   */\n      tag_97\n      jump\t// in\n    tag_320:\n        /* \"#utility.yul\":18169:18611   */\n      swap5\n      swap4\n      pop\n      pop\n      pop\n      pop\n      jump\t// out\n        /* \"#utility.yul\":18641:19472   */\n    tag_126:\n        /* \"#utility.yul\":18726:18729   */\n      0x00\n        /* \"#utility.yul\":18763:18768   */\n      dup2\n        /* \"#utility.yul\":18757:18769   */\n      sload\n        /* \"#utility.yul\":18792:18828   */\n      tag_322\n        /* \"#utility.yul\":18818:18827   */\n      dup2\n        /* \"#utility.yul\":18792:18828   */\n      tag_46\n      jump\t// in\n    tag_322:\n        /* \"#utility.yul\":18844:18915   */\n      tag_323\n        /* \"#utility.yul\":18908:18914   */\n      dup2\n        /* \"#utility.yul\":18903:18906   */\n      dup7\n        /* \"#utility.yul\":18844:18915   */\n      tag_94\n      jump\t// in\n    tag_323:\n        /* \"#utility.yul\":18837:18915   */\n      swap5\n      pop\n        /* \"#utility.yul\":18946:18947   */\n      0x01\n        /* \"#utility.yul\":18935:18944   */\n      dup3\n        /* \"#utility.yul\":18931:18948   */\n      and\n        /* \"#utility.yul\":18962:18963   */\n      0x00\n        /* \"#utility.yul\":18957:19121   */\n      dup2\n      eq\n      tag_325\n      jumpi\n        /* \"#utility.yul\":19135:19136   */\n      0x01\n        /* \"#utility.yul\":19130:19466   */\n      dup2\n      eq\n      tag_326\n      jumpi\n        /* \"#utility.yul\":18924:19466   */\n      jump(tag_324)\n        /* \"#utility.yul\":18957:19121   */\n    tag_325:\n        /* \"#utility.yul\":19041:19045   */\n      0xff\n        /* \"#utility.yul\":19037:19046   */\n      not\n        /* \"#utility.yul\":19026:19035   */\n      dup4\n        /* \"#utility.yul\":19022:19047   */\n      and\n        /* \"#utility.yul\":19017:19020   */\n      dup7\n        /* \"#utility.yul\":19010:19048   */\n      mstore\n        /* \"#utility.yul\":19101:19107   */\n      dup2\n        /* \"#utility.yul\":19094:19108   */\n      iszero\n        /* \"#utility.yul\":19087:19109   */\n      iszero\n        /* \"#utility.yul\":19081:19085   */\n      0x20\n        /* \"#utility.yul\":19077:19110   */\n      mul\n        /* \"#utility.yul\":19072:19075   */\n      dup7\n        /* \"#utility.yul\":19068:19111   */\n      add\n        /* \"#utility.yul\":19061:19111   */\n      swap4\n      pop\n        /* \"#utility.yul\":18957:19121   */\n      jump(tag_324)\n        /* \"#utility.yul\":19130:19466   */\n    tag_326:\n        /* \"#utility.yul\":19197:19235   */\n      tag_327\n        /* \"#utility.yul\":19229:19234   */\n      dup6\n        /* \"#utility.yul\":19197:19235   */\n      tag_106\n      jump\t// in\n    tag_327:\n        /* \"#utility.yul\":19257:19258   */\n      0x00\n        /* \"#utility.yul\":19271:19425   */\n    tag_328:\n        /* \"#utility.yul\":19285:19291   */\n      dup4\n        /* \"#utility.yul\":19282:19283   */\n      dup2\n        /* \"#utility.yul\":19279:19292   */\n      lt\n        /* \"#utility.yul\":19271:19425   */\n      iszero\n      tag_330\n      jumpi\n        /* \"#utility.yul\":19359:19366   */\n      dup2\n        /* \"#utility.yul\":19353:19367   */\n      sload\n        /* \"#utility.yul\":19349:19350   */\n      dup2\n        /* \"#utility.yul\":19344:19347   */\n      dup10\n        /* \"#utility.yul\":19340:19351   */\n      add\n        /* \"#utility.yul\":19333:19368   */\n      mstore\n        /* \"#utility.yul\":19409:19410   */\n      0x01\n        /* \"#utility.yul\":19400:19407   */\n      dup3\n        /* \"#utility.yul\":19396:19411   */\n      add\n        /* \"#utility.yul\":19385:19411   */\n      swap2\n      pop\n        /* \"#utility.yul\":19307:19311   */\n      0x20\n        /* \"#utility.yul\":19304:19305   */\n      dup2\n        /* \"#utility.yul\":19300:19312   */\n      add\n        /* \"#utility.yul\":19295:19312   */\n      swap1\n      pop\n        /* \"#utility.yul\":19271:19425   */\n      jump(tag_328)\n    tag_330:\n        /* \"#utility.yul\":19454:19455   */\n      dup1\n        /* \"#utility.yul\":19449:19452   */\n      dup9\n        /* \"#utility.yul\":19445:19456   */\n      add\n        /* \"#utility.yul\":19438:19456   */\n      swap6\n      pop\n        /* \"#utility.yul\":19137:19466   */\n      pop\n      pop\n        /* \"#utility.yul\":18924:19466   */\n    tag_324:\n      pop\n        /* \"#utility.yul\":18730:19472   */\n      pop\n      pop\n        /* \"#utility.yul\":18641:19472   */\n      swap3\n      swap2\n      pop\n      pop\n      jump\t// out\n        /* \"#utility.yul\":19478:20227   */\n    tag_68:\n        /* \"#utility.yul\":19700:19704   */\n      0x00\n        /* \"#utility.yul\":19738:19741   */\n      0xa0\n        /* \"#utility.yul\":19727:19736   */\n      dup3\n        /* \"#utility.yul\":19723:19742   */\n      add\n        /* \"#utility.yul\":19715:19742   */\n      swap1\n      pop\n        /* \"#utility.yul\":19752:19823   */\n      tag_332\n        /* \"#utility.yul\":19820:19821   */\n      0x00\n        /* \"#utility.yul\":19809:19818   */\n      dup4\n        /* \"#utility.yul\":19805:19822   */\n      add\n        /* \"#utility.yul\":19796:19802   */\n      dup9\n        /* \"#utility.yul\":19752:19823   */\n      tag_97\n      jump\t// in\n    tag_332:\n        /* \"#utility.yul\":19870:19879   */\n      dup2\n        /* \"#utility.yul\":19864:19868   */\n      dup2\n        /* \"#utility.yul\":19860:19880   */\n      sub\n        /* \"#utility.yul\":19855:19857   */\n      0x20\n        /* \"#utility.yul\":19844:19853   */\n      dup4\n        /* \"#utility.yul\":19840:19858   */\n      add\n        /* \"#utility.yul\":19833:19881   */\n      mstore\n        /* \"#utility.yul\":19898:19973   */\n      tag_333\n        /* \"#utility.yul\":19968:19972   */\n      dup2\n        /* \"#utility.yul\":19959:19965   */\n      dup8\n        /* \"#utility.yul\":19898:19973   */\n      tag_126\n      jump\t// in\n    tag_333:\n        /* \"#utility.yul\":19890:19973   */\n      swap1\n      pop\n        /* \"#utility.yul\":19983:20055   */\n      tag_334\n        /* \"#utility.yul\":20051:20053   */\n      0x40\n        /* \"#utility.yul\":20040:20049   */\n      dup4\n        /* \"#utility.yul\":20036:20054   */\n      add\n        /* \"#utility.yul\":20027:20033   */\n      dup7\n        /* \"#utility.yul\":19983:20055   */\n      tag_76\n      jump\t// in\n    tag_334:\n        /* \"#utility.yul\":20065:20137   */\n      tag_335\n        /* \"#utility.yul\":20133:20135   */\n      0x60\n        /* \"#utility.yul\":20122:20131   */\n      dup4\n        /* \"#utility.yul\":20118:20136   */\n      add\n        /* \"#utility.yul\":20109:20115   */\n      dup6\n        /* \"#utility.yul\":20065:20137   */\n      tag_76\n      jump\t// in\n    tag_335:\n        /* \"#utility.yul\":20147:20220   */\n      tag_336\n        /* \"#utility.yul\":20215:20218   */\n      0x80\n        /* \"#utility.yul\":20204:20213   */\n      dup4\n        /* \"#utility.yul\":20200:20219   */\n      add\n        /* \"#utility.yul\":20191:20197   */\n      dup5\n        /* \"#utility.yul\":20147:20220   */\n      tag_97\n      jump\t// in\n    tag_336:\n        /* \"#utility.yul\":19478:20227   */\n      swap7\n      swap6\n      pop\n      pop\n      pop\n      pop\n      pop\n      pop\n      jump\t// out\n\n    auxdata: 0xa2646970667358221220e8246e1def687997bc4ecaa9da9b585d74ac9cf1284234433e94819140d651af64736f6c634300081a0033\n}\n",
				"bytecode": {
					"linkReferences": {},
					"object": "608060405234801561000f575f80fd5b5060405161127438038061127483398181016040528101906100319190610133565b805f806101000a81548173ffffffffffffffffffffffffffffffffffffffff021916908373ffffffffffffffffffffffffffffffffffffffff1602179055505f8054906101000a900473ffffffffffffffffffffffffffffffffffffffff1660015f6101000a81548173ffffffffffffffffffffffffffffffffffffffff021916908373ffffffffffffffffffffffffffffffffffffffff1602179055505061015e565b5f80fd5b5f73ffffffffffffffffffffffffffffffffffffffff82169050919050565b5f610102826100d9565b9050919050565b610112816100f8565b811461011c575f80fd5b50565b5f8151905061012d81610109565b92915050565b5f60208284031215610148576101476100d5565b5b5f6101558482850161011f565b91505092915050565b6111098061016b5f395ff3fe608060405234801561000f575f80fd5b5060043610610055575f3560e01c806347ccca02146100595780635bf8633a14610077578063a08b37a814610095578063b5f522f7146100b1578063b7760c8f146100e4575b5f80fd5b610061610100565b60405161006e919061071f565b60405180910390f35b61007f610125565b60405161008c9190610758565b60405180910390f35b6100af60048036038101906100aa91906108f1565b610148565b005b6100cb60048036038101906100c6919061095d565b610363565b6040516100db9493929190610a11565b60405180910390f35b6100fe60048036038101906100f99190610a85565b610440565b005b60015f9054906101000a900473ffffffffffffffffffffffffffffffffffffffff1681565b5f8054906101000a900473ffffffffffffffffffffffffffffffffffffffff1681565b823373ffffffffffffffffffffffffffffffffffffffff1660015f9054906101000a900473ffffffffffffffffffffffffffffffffffffffff1673ffffffffffffffffffffffffffffffffffffffff16636352211e836040518263ffffffff1660e01b81526004016101ba9190610ac3565b602060405180830381865afa1580156101d5573d5f803e3d5ffd5b505050506040513d601f19601f820116820180604052508101906101f99190610af0565b73ffffffffffffffffffffffffffffffffffffffff161461024f576040517f08c379a000000000000000000000000000000000000000000000000000000000815260040161024690610b65565b60405180910390fd5b60405180608001604052808481526020013373ffffffffffffffffffffffffffffffffffffffff1681526020018381526020016001151581525060025f8681526020019081526020015f205f820151815f0190816102ad9190610d74565b506020820151816001015f6101000a81548173ffffffffffffffffffffffffffffffffffffffff021916908373ffffffffffffffffffffffffffffffffffffffff160217905550604082015181600201556060820151816003015f6101000a81548160ff0219169083151502179055509050507f6cab171a787150168d99b20632c18c8f88dc9e6fae803e9b74b269aeb318f4d6848433856040516103559493929190610e43565b60405180910390a150505050565b6002602052805f5260405f205f91509050805f01805461038290610bb0565b80601f01602080910402602001604051908101604052809291908181526020018280546103ae90610bb0565b80156103f95780601f106103d0576101008083540402835291602001916103f9565b820191905f5260205f20905b8154815290600101906020018083116103dc57829003601f168201915b505050505090806001015f9054906101000a900473ffffffffffffffffffffffffffffffffffffffff1690806002015490806003015f9054906101000a900460ff16905084565b813373ffffffffffffffffffffffffffffffffffffffff1660025f8381526020019081526020015f206001015f9054906101000a900473ffffffffffffffffffffffffffffffffffffffff1673ffffffffffffffffffffffffffffffffffffffff16146104e2576040517f08c379a00000000000000000000000000000000000000000000000000000000081526004016104d990610ed7565b60405180910390fd5b5f60025f8581526020019081526020015f209050806003015f9054906101000a900460ff16610546576040517f08c379a000000000000000000000000000000000000000000000000000000000815260040161053d90610f3f565b60405180910390fd5b5f73ffffffffffffffffffffffffffffffffffffffff168373ffffffffffffffffffffffffffffffffffffffff16036105b4576040517f08c379a00000000000000000000000000000000000000000000000000000000081526004016105ab90610fa7565b60405180910390fd5b60015f9054906101000a900473ffffffffffffffffffffffffffffffffffffffff1673ffffffffffffffffffffffffffffffffffffffff166323b872dd3385876040518463ffffffff1660e01b815260040161061293929190610fc5565b5f604051808303815f87803b158015610629575f80fd5b505af115801561063b573d5f803e3d5ffd5b505050505f816003015f6101000a81548160ff0219169083151502179055507f085c5497f28421ac7c93ea4c5460956bcdb6f116d9dd86a8543937a5ce133bb984825f013386856002015460405161069795949392919061107b565b60405180910390a150505050565b5f73ffffffffffffffffffffffffffffffffffffffff82169050919050565b5f819050919050565b5f6106e76106e26106dd846106a5565b6106c4565b6106a5565b9050919050565b5f6106f8826106cd565b9050919050565b5f610709826106ee565b9050919050565b610719816106ff565b82525050565b5f6020820190506107325f830184610710565b92915050565b5f610742826106a5565b9050919050565b61075281610738565b82525050565b5f60208201905061076b5f830184610749565b92915050565b5f604051905090565b5f80fd5b5f80fd5b5f819050919050565b61079481610782565b811461079e575f80fd5b50565b5f813590506107af8161078b565b92915050565b5f80fd5b5f80fd5b5f601f19601f8301169050919050565b7f4e487b71000000000000000000000000000000000000000000000000000000005f52604160045260245ffd5b610803826107bd565b810181811067ffffffffffffffff82111715610822576108216107cd565b5b80604052505050565b5f610834610771565b905061084082826107fa565b919050565b5f67ffffffffffffffff82111561085f5761085e6107cd565b5b610868826107bd565b9050602081019050919050565b828183375f83830152505050565b5f61089561089084610845565b61082b565b9050828152602081018484840111156108b1576108b06107b9565b5b6108bc848285610875565b509392505050565b5f82601f8301126108d8576108d76107b5565b5b81356108e8848260208601610883565b91505092915050565b5f805f606084860312156109085761090761077a565b5b5f610915868287016107a1565b935050602084013567ffffffffffffffff8111156109365761093561077e565b5b610942868287016108c4565b9250506040610953868287016107a1565b9150509250925092565b5f602082840312156109725761097161077a565b5b5f61097f848285016107a1565b91505092915050565b5f81519050919050565b5f82825260208201905092915050565b8281835e5f83830152505050565b5f6109ba82610988565b6109c48185610992565b93506109d48185602086016109a2565b6109dd816107bd565b840191505092915050565b6109f181610782565b82525050565b5f8115159050919050565b610a0b816109f7565b82525050565b5f6080820190508181035f830152610a2981876109b0565b9050610a386020830186610749565b610a4560408301856109e8565b610a526060830184610a02565b95945050505050565b610a6481610738565b8114610a6e575f80fd5b50565b5f81359050610a7f81610a5b565b92915050565b5f8060408385031215610a9b57610a9a61077a565b5b5f610aa8858286016107a1565b9250506020610ab985828601610a71565b9150509250929050565b5f602082019050610ad65f8301846109e8565b92915050565b5f81519050610aea81610a5b565b92915050565b5f60208284031215610b0557610b0461077a565b5b5f610b1284828501610adc565b91505092915050565b7f43616c6c6572206973206e6f7420746865204e4654206f776e657200000000005f82015250565b5f610b4f601b83610992565b9150610b5a82610b1b565b602082019050919050565b5f6020820190508181035f830152610b7c81610b43565b9050919050565b7f4e487b71000000000000000000000000000000000000000000000000000000005f52602260045260245ffd5b5f6002820490506001821680610bc757607f821691505b602082108103610bda57610bd9610b83565b5b50919050565b5f819050815f5260205f209050919050565b5f6020601f8301049050919050565b5f82821b905092915050565b5f60088302610c3c7fffffffffffffffffffffffffffffffffffffffffffffffffffffffffffffffff82610c01565b610c468683610c01565b95508019841693508086168417925050509392505050565b5f610c78610c73610c6e84610782565b6106c4565b610782565b9050919050565b5f819050919050565b610c9183610c5e565b610ca5610c9d82610c7f565b848454610c0d565b825550505050565b5f90565b610cb9610cad565b610cc4818484610c88565b505050565b5b81811015610ce757610cdc5f82610cb1565b600181019050610cca565b5050565b601f821115610d2c57610cfd81610be0565b610d0684610bf2565b81016020851015610d15578190505b610d29610d2185610bf2565b830182610cc9565b50505b505050565b5f82821c905092915050565b5f610d4c5f1984600802610d31565b1980831691505092915050565b5f610d648383610d3d565b9150826002028217905092915050565b610d7d82610988565b67ffffffffffffffff811115610d9657610d956107cd565b5b610da08254610bb0565b610dab828285610ceb565b5f60209050601f831160018114610ddc575f8415610dca578287015190505b610dd48582610d59565b865550610e3b565b601f198416610dea86610be0565b5f5b82811015610e1157848901518255600182019150602085019450602081019050610dec565b86831015610e2e5784890151610e2a601f891682610d3d565b8355505b6001600288020188555050505b505050505050565b5f608082019050610e565f8301876109e8565b8181036020830152610e6881866109b0565b9050610e776040830185610749565b610e8460608301846109e8565b95945050505050565b7f43616c6c6572206973206e6f74207468652073656c6c657200000000000000005f82015250565b5f610ec1601883610992565b9150610ecc82610e8d565b602082019050919050565b5f6020820190508181035f830152610eee81610eb5565b9050919050565b7f53616c65206973206e6f742061637469766500000000000000000000000000005f82015250565b5f610f29601283610992565b9150610f3482610ef5565b602082019050919050565b5f6020820190508181035f830152610f5681610f1d565b9050919050565b7f496e76616c6964206275796572000000000000000000000000000000000000005f82015250565b5f610f91600d83610992565b9150610f9c82610f5d565b602082019050919050565b5f6020820190508181035f830152610fbe81610f85565b9050919050565b5f606082019050610fd85f830186610749565b610fe56020830185610749565b610ff260408301846109e8565b949350505050565b5f815461100681610bb0565b6110108186610992565b9450600182165f811461102a576001811461104057611072565b60ff198316865281151560200286019350611072565b61104985610be0565b5f5b8381101561106a5781548189015260018201915060208101905061104b565b808801955050505b50505092915050565b5f60a08201905061108e5f8301886109e8565b81810360208301526110a08187610ffa565b90506110af6040830186610749565b6110bc6060830185610749565b6110c960808301846109e8565b969550505050505056fea2646970667358221220e8246e1def687997bc4ecaa9da9b585d74ac9cf1284234433e94819140d651af64736f6c634300081a0033",
					"opcodes": "PUSH1 0x80 PUSH1 0x40 MSTORE CALLVALUE DUP1 ISZERO PUSH2 0xF JUMPI PUSH0 DUP1 REVERT JUMPDEST POP PUSH1 0x40 MLOAD PUSH2 0x1274 CODESIZE SUB DUP1 PUSH2 0x1274 DUP4 CODECOPY DUP2 DUP2 ADD PUSH1 0x40 MSTORE DUP2 ADD SWAP1 PUSH2 0x31 SWAP2 SWAP1 PUSH2 0x133 JUMP JUMPDEST DUP1 PUSH0 DUP1 PUSH2 0x100 EXP DUP2 SLOAD DUP2 PUSH20 0xFFFFFFFFFFFFFFFFFFFFFFFFFFFFFFFFFFFFFFFF MUL NOT AND SWAP1 DUP4 PUSH20 0xFFFFFFFFFFFFFFFFFFFFFFFFFFFFFFFFFFFFFFFF AND MUL OR SWAP1 SSTORE POP PUSH0 DUP1 SLOAD SWAP1 PUSH2 0x100 EXP SWAP1 DIV PUSH20 0xFFFFFFFFFFFFFFFFFFFFFFFFFFFFFFFFFFFFFFFF AND PUSH1 0x1 PUSH0 PUSH2 0x100 EXP DUP2 SLOAD DUP2 PUSH20 0xFFFFFFFFFFFFFFFFFFFFFFFFFFFFFFFFFFFFFFFF MUL NOT AND SWAP1 DUP4 PUSH20 0xFFFFFFFFFFFFFFFFFFFFFFFFFFFFFFFFFFFFFFFF AND MUL OR SWAP1 SSTORE POP POP PUSH2 0x15E JUMP JUMPDEST PUSH0 DUP1 REVERT JUMPDEST PUSH0 PUSH20 0xFFFFFFFFFFFFFFFFFFFFFFFFFFFFFFFFFFFFFFFF DUP3 AND SWAP1 POP SWAP2 SWAP1 POP JUMP JUMPDEST PUSH0 PUSH2 0x102 DUP3 PUSH2 0xD9 JUMP JUMPDEST SWAP1 POP SWAP2 SWAP1 POP JUMP JUMPDEST PUSH2 0x112 DUP2 PUSH2 0xF8 JUMP JUMPDEST DUP2 EQ PUSH2 0x11C JUMPI PUSH0 DUP1 REVERT JUMPDEST POP JUMP JUMPDEST PUSH0 DUP2 MLOAD SWAP1 POP PUSH2 0x12D DUP2 PUSH2 0x109 JUMP JUMPDEST SWAP3 SWAP2 POP POP JUMP JUMPDEST PUSH0 PUSH1 0x20 DUP3 DUP5 SUB SLT ISZERO PUSH2 0x148 JUMPI PUSH2 0x147 PUSH2 0xD5 JUMP JUMPDEST JUMPDEST PUSH0 PUSH2 0x155 DUP5 DUP3 DUP6 ADD PUSH2 0x11F JUMP JUMPDEST SWAP2 POP POP SWAP3 SWAP2 POP POP JUMP JUMPDEST PUSH2 0x1109 DUP1 PUSH2 0x16B PUSH0 CODECOPY PUSH0 RETURN INVALID PUSH1 0x80 PUSH1 0x40 MSTORE CALLVALUE DUP1 ISZERO PUSH2 0xF JUMPI PUSH0 DUP1 REVERT JUMPDEST POP PUSH1 0x4 CALLDATASIZE LT PUSH2 0x55 JUMPI PUSH0 CALLDATALOAD PUSH1 0xE0 SHR DUP1 PUSH4 0x47CCCA02 EQ PUSH2 0x59 JUMPI DUP1 PUSH4 0x5BF8633A EQ PUSH2 0x77 JUMPI DUP1 PUSH4 0xA08B37A8 EQ PUSH2 0x95 JUMPI DUP1 PUSH4 0xB5F522F7 EQ PUSH2 0xB1 JUMPI DUP1 PUSH4 0xB7760C8F EQ PUSH2 0xE4 JUMPI JUMPDEST PUSH0 DUP1 REVERT JUMPDEST PUSH2 0x61 PUSH2 0x100 JUMP JUMPDEST PUSH1 0x40 MLOAD PUSH2 0x6E SWAP2 SWAP1 PUSH2 0x71F JUMP JUMPDEST PUSH1 0x40 MLOAD DUP1 SWAP2 SUB SWAP1 RETURN JUMPDEST PUSH2 0x7F PUSH2 0x125 JUMP JUMPDEST PUSH1 0x40 MLOAD PUSH2 0x8C SWAP2 SWAP1 PUSH2 0x758 JUMP JUMPDEST PUSH1 0x40 MLOAD DUP1 SWAP2 SUB SWAP1 RETURN JUMPDEST PUSH2 0xAF PUSH1 0x4 DUP1 CALLDATASIZE SUB DUP2 ADD SWAP1 PUSH2 0xAA SWAP2 SWAP1 PUSH2 0x8F1 JUMP JUMPDEST PUSH2 0x148 JUMP JUMPDEST STOP JUMPDEST PUSH2 0xCB PUSH1 0x4 DUP1 CALLDATASIZE SUB DUP2 ADD SWAP1 PUSH2 0xC6 SWAP2 SWAP1 PUSH2 0x95D JUMP JUMPDEST PUSH2 0x363 JUMP JUMPDEST PUSH1 0x40 MLOAD PUSH2 0xDB SWAP5 SWAP4 SWAP3 SWAP2 SWAP1 PUSH2 0xA11 JUMP JUMPDEST PUSH1 0x40 MLOAD DUP1 SWAP2 SUB SWAP1 RETURN JUMPDEST PUSH2 0xFE PUSH1 0x4 DUP1 CALLDATASIZE SUB DUP2 ADD SWAP1 PUSH2 0xF9 SWAP2 SWAP1 PUSH2 0xA85 JUMP JUMPDEST PUSH2 0x440 JUMP JUMPDEST STOP JUMPDEST PUSH1 0x1 PUSH0 SWAP1 SLOAD SWAP1 PUSH2 0x100 EXP SWAP1 DIV PUSH20 0xFFFFFFFFFFFFFFFFFFFFFFFFFFFFFFFFFFFFFFFF AND DUP2 JUMP JUMPDEST PUSH0 DUP1 SLOAD SWAP1 PUSH2 0x100 EXP SWAP1 DIV PUSH20 0xFFFFFFFFFFFFFFFFFFFFFFFFFFFFFFFFFFFFFFFF AND DUP2 JUMP JUMPDEST DUP3 CALLER PUSH20 0xFFFFFFFFFFFFFFFFFFFFFFFFFFFFFFFFFFFFFFFF AND PUSH1 0x1 PUSH0 SWAP1 SLOAD SWAP1 PUSH2 0x100 EXP SWAP1 DIV PUSH20 0xFFFFFFFFFFFFFFFFFFFFFFFFFFFFFFFFFFFFFFFF AND PUSH20 0xFFFFFFFFFFFFFFFFFFFFFFFFFFFFFFFFFFFFFFFF AND PUSH4 0x6352211E DUP4 PUSH1 0x40 MLOAD DUP3 PUSH4 0xFFFFFFFF AND PUSH1 0xE0 SHL DUP2 MSTORE PUSH1 0x4 ADD PUSH2 0x1BA SWAP2 SWAP1 PUSH2 0xAC3 JUMP JUMPDEST PUSH1 0x20 PUSH1 0x40 MLOAD DUP1 DUP4 SUB DUP2 DUP7 GAS STATICCALL ISZERO DUP1 ISZERO PUSH2 0x1D5 JUMPI RETURNDATASIZE PUSH0 DUP1 RETURNDATACOPY RETURNDATASIZE PUSH0 REVERT JUMPDEST POP POP POP POP PUSH1 0x40 MLOAD RETURNDATASIZE PUSH1 0x1F NOT PUSH1 0x1F DUP3 ADD AND DUP3 ADD DUP1 PUSH1 0x40 MSTORE POP DUP2 ADD SWAP1 PUSH2 0x1F9 SWAP2 SWAP1 PUSH2 0xAF0 JUMP JUMPDEST PUSH20 0xFFFFFFFFFFFFFFFFFFFFFFFFFFFFFFFFFFFFFFFF AND EQ PUSH2 0x24F JUMPI PUSH1 0x40 MLOAD PUSH32 0x8C379A000000000000000000000000000000000000000000000000000000000 DUP2 MSTORE PUSH1 0x4 ADD PUSH2 0x246 SWAP1 PUSH2 0xB65 JUMP JUMPDEST PUSH1 0x40 MLOAD DUP1 SWAP2 SUB SWAP1 REVERT JUMPDEST PUSH1 0x40 MLOAD DUP1 PUSH1 0x80 ADD PUSH1 0x40 MSTORE DUP1 DUP5 DUP2 MSTORE PUSH1 0x20 ADD CALLER PUSH20 0xFFFFFFFFFFFFFFFFFFFFFFFFFFFFFFFFFFFFFFFF AND DUP2 MSTORE PUSH1 0x20 ADD DUP4 DUP2 MSTORE PUSH1 0x20 ADD PUSH1 0x1 ISZERO ISZERO DUP2 MSTORE POP PUSH1 0x2 PUSH0 DUP7 DUP2 MSTORE PUSH1 0x20 ADD SWAP1 DUP2 MSTORE PUSH1 0x20 ADD PUSH0 KECCAK256 PUSH0 DUP3 ADD MLOAD DUP2 PUSH0 ADD SWAP1 DUP2 PUSH2 0x2AD SWAP2 SWAP1 PUSH2 0xD74 JUMP JUMPDEST POP PUSH1 0x20 DUP3 ADD MLOAD DUP2 PUSH1 0x1 ADD PUSH0 PUSH2 0x100 EXP DUP2 SLOAD DUP2 PUSH20 0xFFFFFFFFFFFFFFFFFFFFFFFFFFFFFFFFFFFFFFFF MUL NOT AND SWAP1 DUP4 PUSH20 0xFFFFFFFFFFFFFFFFFFFFFFFFFFFFFFFFFFFFFFFF AND MUL OR SWAP1 SSTORE POP PUSH1 0x40 DUP3 ADD MLOAD DUP2 PUSH1 0x2 ADD SSTORE PUSH1 0x60 DUP3 ADD MLOAD DUP2 PUSH1 0x3 ADD PUSH0 PUSH2 0x100 EXP DUP2 SLOAD DUP2 PUSH1 0xFF MUL NOT AND SWAP1 DUP4 ISZERO ISZERO MUL OR SWAP1 SSTORE POP SWAP1 POP POP PUSH32 0x6CAB171A787150168D99B20632C18C8F88DC9E6FAE803E9B74B269AEB318F4D6 DUP5 DUP5 CALLER DUP6 PUSH1 0x40 MLOAD PUSH2 0x355 SWAP5 SWAP4 SWAP3 SWAP2 SWAP1 PUSH2 0xE43 JUMP JUMPDEST PUSH1 0x40 MLOAD DUP1 SWAP2 SUB SWAP1 LOG1 POP POP POP POP JUMP JUMPDEST PUSH1 0x2 PUSH1 0x20 MSTORE DUP1 PUSH0 MSTORE PUSH1 0x40 PUSH0 KECCAK256 PUSH0 SWAP2 POP SWAP1 POP DUP1 PUSH0 ADD DUP1 SLOAD PUSH2 0x382 SWAP1 PUSH2 0xBB0 JUMP JUMPDEST DUP1 PUSH1 0x1F ADD PUSH1 0x20 DUP1 SWAP2 DIV MUL PUSH1 0x20 ADD PUSH1 0x40 MLOAD SWAP1 DUP2 ADD PUSH1 0x40 MSTORE DUP1 SWAP3 SWAP2 SWAP1 DUP2 DUP2 MSTORE PUSH1 0x20 ADD DUP3 DUP1 SLOAD PUSH2 0x3AE SWAP1 PUSH2 0xBB0 JUMP JUMPDEST DUP1 ISZERO PUSH2 0x3F9 JUMPI DUP1 PUSH1 0x1F LT PUSH2 0x3D0 JUMPI PUSH2 0x100 DUP1 DUP4 SLOAD DIV MUL DUP4 MSTORE SWAP2 PUSH1 0x20 ADD SWAP2 PUSH2 0x3F9 JUMP JUMPDEST DUP3 ADD SWAP2 SWAP1 PUSH0 MSTORE PUSH1 0x20 PUSH0 KECCAK256 SWAP1 JUMPDEST DUP2 SLOAD DUP2 MSTORE SWAP1 PUSH1 0x1 ADD SWAP1 PUSH1 0x20 ADD DUP1 DUP4 GT PUSH2 0x3DC JUMPI DUP3 SWAP1 SUB PUSH1 0x1F AND DUP3 ADD SWAP2 JUMPDEST POP POP POP POP POP SWAP1 DUP1 PUSH1 0x1 ADD PUSH0 SWAP1 SLOAD SWAP1 PUSH2 0x100 EXP SWAP1 DIV PUSH20 0xFFFFFFFFFFFFFFFFFFFFFFFFFFFFFFFFFFFFFFFF AND SWAP1 DUP1 PUSH1 0x2 ADD SLOAD SWAP1 DUP1 PUSH1 0x3 ADD PUSH0 SWAP1 SLOAD SWAP1 PUSH2 0x100 EXP SWAP1 DIV PUSH1 0xFF AND SWAP1 POP DUP5 JUMP JUMPDEST DUP2 CALLER PUSH20 0xFFFFFFFFFFFFFFFFFFFFFFFFFFFFFFFFFFFFFFFF AND PUSH1 0x2 PUSH0 DUP4 DUP2 MSTORE PUSH1 0x20 ADD SWAP1 DUP2 MSTORE PUSH1 0x20 ADD PUSH0 KECCAK256 PUSH1 0x1 ADD PUSH0 SWAP1 SLOAD SWAP1 PUSH2 0x100 EXP SWAP1 DIV PUSH20 0xFFFFFFFFFFFFFFFFFFFFFFFFFFFFFFFFFFFFFFFF AND PUSH20 0xFFFFFFFFFFFFFFFFFFFFFFFFFFFFFFFFFFFFFFFF AND EQ PUSH2 0x4E2 JUMPI PUSH1 0x40 MLOAD PUSH32 0x8C379A000000000000000000000000000000000000000000000000000000000 DUP2 MSTORE PUSH1 0x4 ADD PUSH2 0x4D9 SWAP1 PUSH2 0xED7 JUMP JUMPDEST PUSH1 0x40 MLOAD DUP1 SWAP2 SUB SWAP1 REVERT JUMPDEST PUSH0 PUSH1 0x2 PUSH0 DUP6 DUP2 MSTORE PUSH1 0x20 ADD SWAP1 DUP2 MSTORE PUSH1 0x20 ADD PUSH0 KECCAK256 SWAP1 POP DUP1 PUSH1 0x3 ADD PUSH0 SWAP1 SLOAD SWAP1 PUSH2 0x100 EXP SWAP1 DIV PUSH1 0xFF AND PUSH2 0x546 JUMPI PUSH1 0x40 MLOAD PUSH32 0x8C379A000000000000000000000000000000000000000000000000000000000 DUP2 MSTORE PUSH1 0x4 ADD PUSH2 0x53D SWAP1 PUSH2 0xF3F JUMP JUMPDEST PUSH1 0x40 MLOAD DUP1 SWAP2 SUB SWAP1 REVERT JUMPDEST PUSH0 PUSH20 0xFFFFFFFFFFFFFFFFFFFFFFFFFFFFFFFFFFFFFFFF AND DUP4 PUSH20 0xFFFFFFFFFFFFFFFFFFFFFFFFFFFFFFFFFFFFFFFF AND SUB PUSH2 0x5B4 JUMPI PUSH1 0x40 MLOAD PUSH32 0x8C379A000000000000000000000000000000000000000000000000000000000 DUP2 MSTORE PUSH1 0x4 ADD PUSH2 0x5AB SWAP1 PUSH2 0xFA7 JUMP JUMPDEST PUSH1 0x40 MLOAD DUP1 SWAP2 SUB SWAP1 REVERT JUMPDEST PUSH1 0x1 PUSH0 SWAP1 SLOAD SWAP1 PUSH2 0x100 EXP SWAP1 DIV PUSH20 0xFFFFFFFFFFFFFFFFFFFFFFFFFFFFFFFFFFFFFFFF AND PUSH20 0xFFFFFFFFFFFFFFFFFFFFFFFFFFFFFFFFFFFFFFFF AND PUSH4 0x23B872DD CALLER DUP6 DUP8 PUSH1 0x40 MLOAD DUP5 PUSH4 0xFFFFFFFF AND PUSH1 0xE0 SHL DUP2 MSTORE PUSH1 0x4 ADD PUSH2 0x612 SWAP4 SWAP3 SWAP2 SWAP1 PUSH2 0xFC5 JUMP JUMPDEST PUSH0 PUSH1 0x40 MLOAD DUP1 DUP4 SUB DUP2 PUSH0 DUP8 DUP1 EXTCODESIZE ISZERO DUP1 ISZERO PUSH2 0x629 JUMPI PUSH0 DUP1 REVERT JUMPDEST POP GAS CALL ISZERO DUP1 ISZERO PUSH2 0x63B JUMPI RETURNDATASIZE PUSH0 DUP1 RETURNDATACOPY RETURNDATASIZE PUSH0 REVERT JUMPDEST POP POP POP POP PUSH0 DUP2 PUSH1 0x3 ADD PUSH0 PUSH2 0x100 EXP DUP2 SLOAD DUP2 PUSH1 0xFF MUL NOT AND SWAP1 DUP4 ISZERO ISZERO MUL OR SWAP1 SSTORE POP PUSH32 0x85C5497F28421AC7C93EA4C5460956BCDB6F116D9DD86A8543937A5CE133BB9 DUP5 DUP3 PUSH0 ADD CALLER DUP7 DUP6 PUSH1 0x2 ADD SLOAD PUSH1 0x40 MLOAD PUSH2 0x697 SWAP6 SWAP5 SWAP4 SWAP3 SWAP2 SWAP1 PUSH2 0x107B JUMP JUMPDEST PUSH1 0x40 MLOAD DUP1 SWAP2 SUB SWAP1 LOG1 POP POP POP POP JUMP JUMPDEST PUSH0 PUSH20 0xFFFFFFFFFFFFFFFFFFFFFFFFFFFFFFFFFFFFFFFF DUP3 AND SWAP1 POP SWAP2 SWAP1 POP JUMP JUMPDEST PUSH0 DUP2 SWAP1 POP SWAP2 SWAP1 POP JUMP JUMPDEST PUSH0 PUSH2 0x6E7 PUSH2 0x6E2 PUSH2 0x6DD DUP5 PUSH2 0x6A5 JUMP JUMPDEST PUSH2 0x6C4 JUMP JUMPDEST PUSH2 0x6A5 JUMP JUMPDEST SWAP1 POP SWAP2 SWAP1 POP JUMP JUMPDEST PUSH0 PUSH2 0x6F8 DUP3 PUSH2 0x6CD JUMP JUMPDEST SWAP1 POP SWAP2 SWAP1 POP JUMP JUMPDEST PUSH0 PUSH2 0x709 DUP3 PUSH2 0x6EE JUMP JUMPDEST SWAP1 POP SWAP2 SWAP1 POP JUMP JUMPDEST PUSH2 0x719 DUP2 PUSH2 0x6FF JUMP JUMPDEST DUP3 MSTORE POP POP JUMP JUMPDEST PUSH0 PUSH1 0x20 DUP3 ADD SWAP1 POP PUSH2 0x732 PUSH0 DUP4 ADD DUP5 PUSH2 0x710 JUMP JUMPDEST SWAP3 SWAP2 POP POP JUMP JUMPDEST PUSH0 PUSH2 0x742 DUP3 PUSH2 0x6A5 JUMP JUMPDEST SWAP1 POP SWAP2 SWAP1 POP JUMP JUMPDEST PUSH2 0x752 DUP2 PUSH2 0x738 JUMP JUMPDEST DUP3 MSTORE POP POP JUMP JUMPDEST PUSH0 PUSH1 0x20 DUP3 ADD SWAP1 POP PUSH2 0x76B PUSH0 DUP4 ADD DUP5 PUSH2 0x749 JUMP JUMPDEST SWAP3 SWAP2 POP POP JUMP JUMPDEST PUSH0 PUSH1 0x40 MLOAD SWAP1 POP SWAP1 JUMP JUMPDEST PUSH0 DUP1 REVERT JUMPDEST PUSH0 DUP1 REVERT JUMPDEST PUSH0 DUP2 SWAP1 POP SWAP2 SWAP1 POP JUMP JUMPDEST PUSH2 0x794 DUP2 PUSH2 0x782 JUMP JUMPDEST DUP2 EQ PUSH2 0x79E JUMPI PUSH0 DUP1 REVERT JUMPDEST POP JUMP JUMPDEST PUSH0 DUP2 CALLDATALOAD SWAP1 POP PUSH2 0x7AF DUP2 PUSH2 0x78B JUMP JUMPDEST SWAP3 SWAP2 POP POP JUMP JUMPDEST PUSH0 DUP1 REVERT JUMPDEST PUSH0 DUP1 REVERT JUMPDEST PUSH0 PUSH1 0x1F NOT PUSH1 0x1F DUP4 ADD AND SWAP1 POP SWAP2 SWAP1 POP JUMP JUMPDEST PUSH32 0x4E487B7100000000000000000000000000000000000000000000000000000000 PUSH0 MSTORE PUSH1 0x41 PUSH1 0x4 MSTORE PUSH1 0x24 PUSH0 REVERT JUMPDEST PUSH2 0x803 DUP3 PUSH2 0x7BD JUMP JUMPDEST DUP2 ADD DUP2 DUP2 LT PUSH8 0xFFFFFFFFFFFFFFFF DUP3 GT OR ISZERO PUSH2 0x822 JUMPI PUSH2 0x821 PUSH2 0x7CD JUMP JUMPDEST JUMPDEST DUP1 PUSH1 0x40 MSTORE POP POP POP JUMP JUMPDEST PUSH0 PUSH2 0x834 PUSH2 0x771 JUMP JUMPDEST SWAP1 POP PUSH2 0x840 DUP3 DUP3 PUSH2 0x7FA JUMP JUMPDEST SWAP2 SWAP1 POP JUMP JUMPDEST PUSH0 PUSH8 0xFFFFFFFFFFFFFFFF DUP3 GT ISZERO PUSH2 0x85F JUMPI PUSH2 0x85E PUSH2 0x7CD JUMP JUMPDEST JUMPDEST PUSH2 0x868 DUP3 PUSH2 0x7BD JUMP JUMPDEST SWAP1 POP PUSH1 0x20 DUP2 ADD SWAP1 POP SWAP2 SWAP1 POP JUMP JUMPDEST DUP3 DUP2 DUP4 CALLDATACOPY PUSH0 DUP4 DUP4 ADD MSTORE POP POP POP JUMP JUMPDEST PUSH0 PUSH2 0x895 PUSH2 0x890 DUP5 PUSH2 0x845 JUMP JUMPDEST PUSH2 0x82B JUMP JUMPDEST SWAP1 POP DUP3 DUP2 MSTORE PUSH1 0x20 DUP2 ADD DUP5 DUP5 DUP5 ADD GT ISZERO PUSH2 0x8B1 JUMPI PUSH2 0x8B0 PUSH2 0x7B9 JUMP JUMPDEST JUMPDEST PUSH2 0x8BC DUP5 DUP3 DUP6 PUSH2 0x875 JUMP JUMPDEST POP SWAP4 SWAP3 POP POP POP JUMP JUMPDEST PUSH0 DUP3 PUSH1 0x1F DUP4 ADD SLT PUSH2 0x8D8 JUMPI PUSH2 0x8D7 PUSH2 0x7B5 JUMP JUMPDEST JUMPDEST DUP2 CALLDATALOAD PUSH2 0x8E8 DUP5 DUP3 PUSH1 0x20 DUP7 ADD PUSH2 0x883 JUMP JUMPDEST SWAP2 POP POP SWAP3 SWAP2 POP POP JUMP JUMPDEST PUSH0 DUP1 PUSH0 PUSH1 0x60 DUP5 DUP7 SUB SLT ISZERO PUSH2 0x908 JUMPI PUSH2 0x907 PUSH2 0x77A JUMP JUMPDEST JUMPDEST PUSH0 PUSH2 0x915 DUP7 DUP3 DUP8 ADD PUSH2 0x7A1 JUMP JUMPDEST SWAP4 POP POP PUSH1 0x20 DUP5 ADD CALLDATALOAD PUSH8 0xFFFFFFFFFFFFFFFF DUP2 GT ISZERO PUSH2 0x936 JUMPI PUSH2 0x935 PUSH2 0x77E JUMP JUMPDEST JUMPDEST PUSH2 0x942 DUP7 DUP3 DUP8 ADD PUSH2 0x8C4 JUMP JUMPDEST SWAP3 POP POP PUSH1 0x40 PUSH2 0x953 DUP7 DUP3 DUP8 ADD PUSH2 0x7A1 JUMP JUMPDEST SWAP2 POP POP SWAP3 POP SWAP3 POP SWAP3 JUMP JUMPDEST PUSH0 PUSH1 0x20 DUP3 DUP5 SUB SLT ISZERO PUSH2 0x972 JUMPI PUSH2 0x971 PUSH2 0x77A JUMP JUMPDEST JUMPDEST PUSH0 PUSH2 0x97F DUP5 DUP3 DUP6 ADD PUSH2 0x7A1 JUMP JUMPDEST SWAP2 POP POP SWAP3 SWAP2 POP POP JUMP JUMPDEST PUSH0 DUP2 MLOAD SWAP1 POP SWAP2 SWAP1 POP JUMP JUMPDEST PUSH0 DUP3 DUP3 MSTORE PUSH1 0x20 DUP3 ADD SWAP1 POP SWAP3 SWAP2 POP POP JUMP JUMPDEST DUP3 DUP2 DUP4 MCOPY PUSH0 DUP4 DUP4 ADD MSTORE POP POP POP JUMP JUMPDEST PUSH0 PUSH2 0x9BA DUP3 PUSH2 0x988 JUMP JUMPDEST PUSH2 0x9C4 DUP2 DUP6 PUSH2 0x992 JUMP JUMPDEST SWAP4 POP PUSH2 0x9D4 DUP2 DUP6 PUSH1 0x20 DUP7 ADD PUSH2 0x9A2 JUMP JUMPDEST PUSH2 0x9DD DUP2 PUSH2 0x7BD JUMP JUMPDEST DUP5 ADD SWAP2 POP POP SWAP3 SWAP2 POP POP JUMP JUMPDEST PUSH2 0x9F1 DUP2 PUSH2 0x782 JUMP JUMPDEST DUP3 MSTORE POP POP JUMP JUMPDEST PUSH0 DUP2 ISZERO ISZERO SWAP1 POP SWAP2 SWAP1 POP JUMP JUMPDEST PUSH2 0xA0B DUP2 PUSH2 0x9F7 JUMP JUMPDEST DUP3 MSTORE POP POP JUMP JUMPDEST PUSH0 PUSH1 0x80 DUP3 ADD SWAP1 POP DUP2 DUP2 SUB PUSH0 DUP4 ADD MSTORE PUSH2 0xA29 DUP2 DUP8 PUSH2 0x9B0 JUMP JUMPDEST SWAP1 POP PUSH2 0xA38 PUSH1 0x20 DUP4 ADD DUP7 PUSH2 0x749 JUMP JUMPDEST PUSH2 0xA45 PUSH1 0x40 DUP4 ADD DUP6 PUSH2 0x9E8 JUMP JUMPDEST PUSH2 0xA52 PUSH1 0x60 DUP4 ADD DUP5 PUSH2 0xA02 JUMP JUMPDEST SWAP6 SWAP5 POP POP POP POP POP JUMP JUMPDEST PUSH2 0xA64 DUP2 PUSH2 0x738 JUMP JUMPDEST DUP2 EQ PUSH2 0xA6E JUMPI PUSH0 DUP1 REVERT JUMPDEST POP JUMP JUMPDEST PUSH0 DUP2 CALLDATALOAD SWAP1 POP PUSH2 0xA7F DUP2 PUSH2 0xA5B JUMP JUMPDEST SWAP3 SWAP2 POP POP JUMP JUMPDEST PUSH0 DUP1 PUSH1 0x40 DUP4 DUP6 SUB SLT ISZERO PUSH2 0xA9B JUMPI PUSH2 0xA9A PUSH2 0x77A JUMP JUMPDEST JUMPDEST PUSH0 PUSH2 0xAA8 DUP6 DUP3 DUP7 ADD PUSH2 0x7A1 JUMP JUMPDEST SWAP3 POP POP PUSH1 0x20 PUSH2 0xAB9 DUP6 DUP3 DUP7 ADD PUSH2 0xA71 JUMP JUMPDEST SWAP2 POP POP SWAP3 POP SWAP3 SWAP1 POP JUMP JUMPDEST PUSH0 PUSH1 0x20 DUP3 ADD SWAP1 POP PUSH2 0xAD6 PUSH0 DUP4 ADD DUP5 PUSH2 0x9E8 JUMP JUMPDEST SWAP3 SWAP2 POP POP JUMP JUMPDEST PUSH0 DUP2 MLOAD SWAP1 POP PUSH2 0xAEA DUP2 PUSH2 0xA5B JUMP JUMPDEST SWAP3 SWAP2 POP POP JUMP JUMPDEST PUSH0 PUSH1 0x20 DUP3 DUP5 SUB SLT ISZERO PUSH2 0xB05 JUMPI PUSH2 0xB04 PUSH2 0x77A JUMP JUMPDEST JUMPDEST PUSH0 PUSH2 0xB12 DUP5 DUP3 DUP6 ADD PUSH2 0xADC JUMP JUMPDEST SWAP2 POP POP SWAP3 SWAP2 POP POP JUMP JUMPDEST PUSH32 0x43616C6C6572206973206E6F7420746865204E4654206F776E65720000000000 PUSH0 DUP3 ADD MSTORE POP JUMP JUMPDEST PUSH0 PUSH2 0xB4F PUSH1 0x1B DUP4 PUSH2 0x992 JUMP JUMPDEST SWAP2 POP PUSH2 0xB5A DUP3 PUSH2 0xB1B JUMP JUMPDEST PUSH1 0x20 DUP3 ADD SWAP1 POP SWAP2 SWAP1 POP JUMP JUMPDEST PUSH0 PUSH1 0x20 DUP3 ADD SWAP1 POP DUP2 DUP2 SUB PUSH0 DUP4 ADD MSTORE PUSH2 0xB7C DUP2 PUSH2 0xB43 JUMP JUMPDEST SWAP1 POP SWAP2 SWAP1 POP JUMP JUMPDEST PUSH32 0x4E487B7100000000000000000000000000000000000000000000000000000000 PUSH0 MSTORE PUSH1 0x22 PUSH1 0x4 MSTORE PUSH1 0x24 PUSH0 REVERT JUMPDEST PUSH0 PUSH1 0x2 DUP3 DIV SWAP1 POP PUSH1 0x1 DUP3 AND DUP1 PUSH2 0xBC7 JUMPI PUSH1 0x7F DUP3 AND SWAP2 POP JUMPDEST PUSH1 0x20 DUP3 LT DUP2 SUB PUSH2 0xBDA JUMPI PUSH2 0xBD9 PUSH2 0xB83 JUMP JUMPDEST JUMPDEST POP SWAP2 SWAP1 POP JUMP JUMPDEST PUSH0 DUP2 SWAP1 POP DUP2 PUSH0 MSTORE PUSH1 0x20 PUSH0 KECCAK256 SWAP1 POP SWAP2 SWAP1 POP JUMP JUMPDEST PUSH0 PUSH1 0x20 PUSH1 0x1F DUP4 ADD DIV SWAP1 POP SWAP2 SWAP1 POP JUMP JUMPDEST PUSH0 DUP3 DUP3 SHL SWAP1 POP SWAP3 SWAP2 POP POP JUMP JUMPDEST PUSH0 PUSH1 0x8 DUP4 MUL PUSH2 0xC3C PUSH32 0xFFFFFFFFFFFFFFFFFFFFFFFFFFFFFFFFFFFFFFFFFFFFFFFFFFFFFFFFFFFFFFFF DUP3 PUSH2 0xC01 JUMP JUMPDEST PUSH2 0xC46 DUP7 DUP4 PUSH2 0xC01 JUMP JUMPDEST SWAP6 POP DUP1 NOT DUP5 AND SWAP4 POP DUP1 DUP7 AND DUP5 OR SWAP3 POP POP POP SWAP4 SWAP3 POP POP POP JUMP JUMPDEST PUSH0 PUSH2 0xC78 PUSH2 0xC73 PUSH2 0xC6E DUP5 PUSH2 0x782 JUMP JUMPDEST PUSH2 0x6C4 JUMP JUMPDEST PUSH2 0x782 JUMP JUMPDEST SWAP1 POP SWAP2 SWAP1 POP JUMP JUMPDEST PUSH0 DUP2 SWAP1 POP SWAP2 SWAP1 POP JUMP JUMPDEST PUSH2 0xC91 DUP4 PUSH2 0xC5E JUMP JUMPDEST PUSH2 0xCA5 PUSH2 0xC9D DUP3 PUSH2 0xC7F JUMP JUMPDEST DUP5 DUP5 SLOAD PUSH2 0xC0D JUMP JUMPDEST DUP3 SSTORE POP POP POP POP JUMP JUMPDEST PUSH0 SWAP1 JUMP JUMPDEST PUSH2 0xCB9 PUSH2 0xCAD JUMP JUMPDEST PUSH2 0xCC4 DUP2 DUP5 DUP5 PUSH2 0xC88 JUMP JUMPDEST POP POP POP JUMP JUMPDEST JUMPDEST DUP2 DUP2 LT ISZERO PUSH2 0xCE7 JUMPI PUSH2 0xCDC PUSH0 DUP3 PUSH2 0xCB1 JUMP JUMPDEST PUSH1 0x1 DUP2 ADD SWAP1 POP PUSH2 0xCCA JUMP JUMPDEST POP POP JUMP JUMPDEST PUSH1 0x1F DUP3 GT ISZERO PUSH2 0xD2C JUMPI PUSH2 0xCFD DUP2 PUSH2 0xBE0 JUMP JUMPDEST PUSH2 0xD06 DUP5 PUSH2 0xBF2 JUMP JUMPDEST DUP2 ADD PUSH1 0x20 DUP6 LT ISZERO PUSH2 0xD15 JUMPI DUP2 SWAP1 POP JUMPDEST PUSH2 0xD29 PUSH2 0xD21 DUP6 PUSH2 0xBF2 JUMP JUMPDEST DUP4 ADD DUP3 PUSH2 0xCC9 JUMP JUMPDEST POP POP JUMPDEST POP POP POP JUMP JUMPDEST PUSH0 DUP3 DUP3 SHR SWAP1 POP SWAP3 SWAP2 POP POP JUMP JUMPDEST PUSH0 PUSH2 0xD4C PUSH0 NOT DUP5 PUSH1 0x8 MUL PUSH2 0xD31 JUMP JUMPDEST NOT DUP1 DUP4 AND SWAP2 POP POP SWAP3 SWAP2 POP POP JUMP JUMPDEST PUSH0 PUSH2 0xD64 DUP4 DUP4 PUSH2 0xD3D JUMP JUMPDEST SWAP2 POP DUP3 PUSH1 0x2 MUL DUP3 OR SWAP1 POP SWAP3 SWAP2 POP POP JUMP JUMPDEST PUSH2 0xD7D DUP3 PUSH2 0x988 JUMP JUMPDEST PUSH8 0xFFFFFFFFFFFFFFFF DUP2 GT ISZERO PUSH2 0xD96 JUMPI PUSH2 0xD95 PUSH2 0x7CD JUMP JUMPDEST JUMPDEST PUSH2 0xDA0 DUP3 SLOAD PUSH2 0xBB0 JUMP JUMPDEST PUSH2 0xDAB DUP3 DUP3 DUP6 PUSH2 0xCEB JUMP JUMPDEST PUSH0 PUSH1 0x20 SWAP1 POP PUSH1 0x1F DUP4 GT PUSH1 0x1 DUP2 EQ PUSH2 0xDDC JUMPI PUSH0 DUP5 ISZERO PUSH2 0xDCA JUMPI DUP3 DUP8 ADD MLOAD SWAP1 POP JUMPDEST PUSH2 0xDD4 DUP6 DUP3 PUSH2 0xD59 JUMP JUMPDEST DUP7 SSTORE POP PUSH2 0xE3B JUMP JUMPDEST PUSH1 0x1F NOT DUP5 AND PUSH2 0xDEA DUP7 PUSH2 0xBE0 JUMP JUMPDEST PUSH0 JUMPDEST DUP3 DUP2 LT ISZERO PUSH2 0xE11 JUMPI DUP5 DUP10 ADD MLOAD DUP3 SSTORE PUSH1 0x1 DUP3 ADD SWAP2 POP PUSH1 0x20 DUP6 ADD SWAP5 POP PUSH1 0x20 DUP2 ADD SWAP1 POP PUSH2 0xDEC JUMP JUMPDEST DUP7 DUP4 LT ISZERO PUSH2 0xE2E JUMPI DUP5 DUP10 ADD MLOAD PUSH2 0xE2A PUSH1 0x1F DUP10 AND DUP3 PUSH2 0xD3D JUMP JUMPDEST DUP4 SSTORE POP JUMPDEST PUSH1 0x1 PUSH1 0x2 DUP9 MUL ADD DUP9 SSTORE POP POP POP JUMPDEST POP POP POP POP POP POP JUMP JUMPDEST PUSH0 PUSH1 0x80 DUP3 ADD SWAP1 POP PUSH2 0xE56 PUSH0 DUP4 ADD DUP8 PUSH2 0x9E8 JUMP JUMPDEST DUP2 DUP2 SUB PUSH1 0x20 DUP4 ADD MSTORE PUSH2 0xE68 DUP2 DUP7 PUSH2 0x9B0 JUMP JUMPDEST SWAP1 POP PUSH2 0xE77 PUSH1 0x40 DUP4 ADD DUP6 PUSH2 0x749 JUMP JUMPDEST PUSH2 0xE84 PUSH1 0x60 DUP4 ADD DUP5 PUSH2 0x9E8 JUMP JUMPDEST SWAP6 SWAP5 POP POP POP POP POP JUMP JUMPDEST PUSH32 0x43616C6C6572206973206E6F74207468652073656C6C65720000000000000000 PUSH0 DUP3 ADD MSTORE POP JUMP JUMPDEST PUSH0 PUSH2 0xEC1 PUSH1 0x18 DUP4 PUSH2 0x992 JUMP JUMPDEST SWAP2 POP PUSH2 0xECC DUP3 PUSH2 0xE8D JUMP JUMPDEST PUSH1 0x20 DUP3 ADD SWAP1 POP SWAP2 SWAP1 POP JUMP JUMPDEST PUSH0 PUSH1 0x20 DUP3 ADD SWAP1 POP DUP2 DUP2 SUB PUSH0 DUP4 ADD MSTORE PUSH2 0xEEE DUP2 PUSH2 0xEB5 JUMP JUMPDEST SWAP1 POP SWAP2 SWAP1 POP JUMP JUMPDEST PUSH32 0x53616C65206973206E6F74206163746976650000000000000000000000000000 PUSH0 DUP3 ADD MSTORE POP JUMP JUMPDEST PUSH0 PUSH2 0xF29 PUSH1 0x12 DUP4 PUSH2 0x992 JUMP JUMPDEST SWAP2 POP PUSH2 0xF34 DUP3 PUSH2 0xEF5 JUMP JUMPDEST PUSH1 0x20 DUP3 ADD SWAP1 POP SWAP2 SWAP1 POP JUMP JUMPDEST PUSH0 PUSH1 0x20 DUP3 ADD SWAP1 POP DUP2 DUP2 SUB PUSH0 DUP4 ADD MSTORE PUSH2 0xF56 DUP2 PUSH2 0xF1D JUMP JUMPDEST SWAP1 POP SWAP2 SWAP1 POP JUMP JUMPDEST PUSH32 0x496E76616C696420627579657200000000000000000000000000000000000000 PUSH0 DUP3 ADD MSTORE POP JUMP JUMPDEST PUSH0 PUSH2 0xF91 PUSH1 0xD DUP4 PUSH2 0x992 JUMP JUMPDEST SWAP2 POP PUSH2 0xF9C DUP3 PUSH2 0xF5D JUMP JUMPDEST PUSH1 0x20 DUP3 ADD SWAP1 POP SWAP2 SWAP1 POP JUMP JUMPDEST PUSH0 PUSH1 0x20 DUP3 ADD SWAP1 POP DUP2 DUP2 SUB PUSH0 DUP4 ADD MSTORE PUSH2 0xFBE DUP2 PUSH2 0xF85 JUMP JUMPDEST SWAP1 POP SWAP2 SWAP1 POP JUMP JUMPDEST PUSH0 PUSH1 0x60 DUP3 ADD SWAP1 POP PUSH2 0xFD8 PUSH0 DUP4 ADD DUP7 PUSH2 0x749 JUMP JUMPDEST PUSH2 0xFE5 PUSH1 0x20 DUP4 ADD DUP6 PUSH2 0x749 JUMP JUMPDEST PUSH2 0xFF2 PUSH1 0x40 DUP4 ADD DUP5 PUSH2 0x9E8 JUMP JUMPDEST SWAP5 SWAP4 POP POP POP POP JUMP JUMPDEST PUSH0 DUP2 SLOAD PUSH2 0x1006 DUP2 PUSH2 0xBB0 JUMP JUMPDEST PUSH2 0x1010 DUP2 DUP7 PUSH2 0x992 JUMP JUMPDEST SWAP5 POP PUSH1 0x1 DUP3 AND PUSH0 DUP2 EQ PUSH2 0x102A JUMPI PUSH1 0x1 DUP2 EQ PUSH2 0x1040 JUMPI PUSH2 0x1072 JUMP JUMPDEST PUSH1 0xFF NOT DUP4 AND DUP7 MSTORE DUP2 ISZERO ISZERO PUSH1 0x20 MUL DUP7 ADD SWAP4 POP PUSH2 0x1072 JUMP JUMPDEST PUSH2 0x1049 DUP6 PUSH2 0xBE0 JUMP JUMPDEST PUSH0 JUMPDEST DUP4 DUP2 LT ISZERO PUSH2 0x106A JUMPI DUP2 SLOAD DUP2 DUP10 ADD MSTORE PUSH1 0x1 DUP3 ADD SWAP2 POP PUSH1 0x20 DUP2 ADD SWAP1 POP PUSH2 0x104B JUMP JUMPDEST DUP1 DUP9 ADD SWAP6 POP POP POP JUMPDEST POP POP POP SWAP3 SWAP2 POP POP JUMP JUMPDEST PUSH0 PUSH1 0xA0 DUP3 ADD SWAP1 POP PUSH2 0x108E PUSH0 DUP4 ADD DUP9 PUSH2 0x9E8 JUMP JUMPDEST DUP2 DUP2 SUB PUSH1 0x20 DUP4 ADD MSTORE PUSH2 0x10A0 DUP2 DUP8 PUSH2 0xFFA JUMP JUMPDEST SWAP1 POP PUSH2 0x10AF PUSH1 0x40 DUP4 ADD DUP7 PUSH2 0x749 JUMP JUMPDEST PUSH2 0x10BC PUSH1 0x60 DUP4 ADD DUP6 PUSH2 0x749 JUMP JUMPDEST PUSH2 0x10C9 PUSH1 0x80 DUP4 ADD DUP5 PUSH2 0x9E8 JUMP JUMPDEST SWAP7 SWAP6 POP POP POP POP POP POP JUMP INVALID LOG2 PUSH5 0x6970667358 0x22 SLT KECCAK256 0xE8 0x24 PUSH15 0x1DEF687997BC4ECAA9DA9B585D74AC SWAP13 CALL 0x28 TIMESTAMP CALLVALUE NUMBER RETURNDATACOPY SWAP5 DUP2 SWAP2 BLOCKHASH 0xD6 MLOAD 0xAF PUSH5 0x736F6C6343 STOP ADDMOD BYTE STOP CALLER "
				},
				"gasEstimates": {
					"creation": {
						"codeDepositCost": "872200",
						"executionCost": "infinite",
						"totalCost": "infinite"
					},
					"external": {
						"nft()": "infinite",
						"nftAddress()": "2505",
						"sale(uint256,string,uint256)": "infinite",
						"sales(uint256)": "infinite",
						"transfer(uint256,address)": "infinite"
					}
				},
				"methodIdentifiers": {
					"nft()": "47ccca02",
					"nftAddress()": "5bf8633a",
					"sale(uint256,string,uint256)": "a08b37a8",
					"sales(uint256)": "b5f522f7",
					"transfer(uint256,address)": "b7760c8f"
				}
			},
			"storageLayout": {
				"storage": [
					{
						"astId": 20,
						"contract": "Sale.sol:SaleContract",
						"label": "nftAddress",
						"offset": 0,
						"slot": "0",
						"type": "t_address"
					},
					{
						"astId": 23,
						"contract": "Sale.sol:SaleContract",
						"label": "nft",
						"offset": 0,
						"slot": "1",
						"type": "t_contract(IProductNFT)18"
					},
					{
						"astId": 37,
						"contract": "Sale.sol:SaleContract",
						"label": "sales",
						"offset": 0,
						"slot": "2",
						"type": "t_mapping(t_uint256,t_struct(Sale)32_storage)"
					}
				],
				"types": {
					"t_address": {
						"encoding": "inplace",
						"label": "address",
						"numberOfBytes": "20"
					},
					"t_bool": {
						"encoding": "inplace",
						"label": "bool",
						"numberOfBytes": "1"
					},
					"t_contract(IProductNFT)18": {
						"encoding": "inplace",
						"label": "contract IProductNFT",
						"numberOfBytes": "20"
					},
					"t_mapping(t_uint256,t_struct(Sale)32_storage)": {
						"encoding": "mapping",
						"key": "t_uint256",
						"label": "mapping(uint256 => struct SaleContract.Sale)",
						"numberOfBytes": "32",
						"value": "t_struct(Sale)32_storage"
					},
					"t_string_storage": {
						"encoding": "bytes",
						"label": "string",
						"numberOfBytes": "32"
					},
					"t_struct(Sale)32_storage": {
						"encoding": "inplace",
						"label": "struct SaleContract.Sale",
						"members": [
							{
								"astId": 25,
								"contract": "Sale.sol:SaleContract",
								"label": "productName",
								"offset": 0,
								"slot": "0",
								"type": "t_string_storage"
							},
							{
								"astId": 27,
								"contract": "Sale.sol:SaleContract",
								"label": "seller",
								"offset": 0,
								"slot": "1",
								"type": "t_address"
							},
							{
								"astId": 29,
								"contract": "Sale.sol:SaleContract",
								"label": "price",
								"offset": 0,
								"slot": "2",
								"type": "t_uint256"
							},
							{
								"astId": 31,
								"contract": "Sale.sol:SaleContract",
								"label": "isActive",
								"offset": 0,
								"slot": "3",
								"type": "t_bool"
							}
						],
						"numberOfBytes": "128"
					},
					"t_uint256": {
						"encoding": "inplace",
						"label": "uint256",
						"numberOfBytes": "32"
					}
				}
			},
			"userdoc": {
				"kind": "user",
				"methods": {},
				"version": 1
			}
		}
	}
}