{
	"Control.sol": {
		"ControlContract": {
			"abi": [
				{
					"inputs": [
						{
							"internalType": "address",
							"name": "_mintAddress",
							"type": "address"
						}
					],
					"stateMutability": "nonpayable",
					"type": "constructor"
				},
				{
					"anonymous": false,
					"inputs": [
						{
							"indexed": false,
							"internalType": "uint256",
							"name": "tokenId",
							"type": "uint256"
						},
						{
							"indexed": false,
							"internalType": "address",
							"name": "from",
							"type": "address"
						},
						{
							"indexed": false,
							"internalType": "address",
							"name": "to",
							"type": "address"
						}
					],
					"name": "OwnershipTransferred",
					"type": "event"
				},
				{
					"anonymous": false,
					"inputs": [
						{
							"indexed": false,
							"internalType": "uint256",
							"name": "tokenId",
							"type": "uint256"
						},
						{
							"indexed": false,
							"internalType": "string",
							"name": "qrCode",
							"type": "string"
						},
						{
							"indexed": false,
							"internalType": "address",
							"name": "owner",
							"type": "address"
						}
					],
					"name": "ProductRegistered",
					"type": "event"
				},
				{
					"anonymous": false,
					"inputs": [
						{
							"indexed": false,
							"internalType": "uint256",
							"name": "tokenId",
							"type": "uint256"
						},
						{
							"indexed": false,
							"internalType": "address",
							"name": "verifier",
							"type": "address"
						}
					],
					"name": "ProductVerified",
					"type": "event"
				},
				{
					"inputs": [
						{
							"internalType": "address",
							"name": "verifier",
							"type": "address"
						}
					],
					"name": "addVerifier",
					"outputs": [],
					"stateMutability": "nonpayable",
					"type": "function"
				},
				{
					"inputs": [
						{
							"internalType": "address",
							"name": "",
							"type": "address"
						}
					],
					"name": "authorisedVerifiers",
					"outputs": [
						{
							"internalType": "bool",
							"name": "",
							"type": "bool"
						}
					],
					"stateMutability": "view",
					"type": "function"
				},
				{
					"inputs": [
						{
							"internalType": "uint256",
							"name": "tokenId",
							"type": "uint256"
						}
					],
					"name": "getHistory",
					"outputs": [
						{
							"internalType": "address[]",
							"name": "",
							"type": "address[]"
						}
					],
					"stateMutability": "view",
					"type": "function"
				},
				{
					"inputs": [],
					"name": "manufacturer",
					"outputs": [
						{
							"internalType": "address",
							"name": "",
							"type": "address"
						}
					],
					"stateMutability": "view",
					"type": "function"
				},
				{
					"inputs": [],
					"name": "mintContract",
					"outputs": [
						{
							"internalType": "contract ISimpleMint",
							"name": "",
							"type": "address"
						}
					],
					"stateMutability": "view",
					"type": "function"
				},
				{
					"inputs": [
						{
							"internalType": "uint256",
							"name": "",
							"type": "uint256"
						}
					],
					"name": "products",
					"outputs": [
						{
							"internalType": "uint256",
							"name": "tokenID",
							"type": "uint256"
						},
						{
							"internalType": "string",
							"name": "qrCode",
							"type": "string"
						},
						{
							"internalType": "bool",
							"name": "verified",
							"type": "bool"
						},
						{
							"internalType": "address",
							"name": "currentOwner",
							"type": "address"
						}
					],
					"stateMutability": "view",
					"type": "function"
				},
				{
					"inputs": [
						{
							"internalType": "uint256",
							"name": "tokenId",
							"type": "uint256"
						},
						{
							"internalType": "string",
							"name": "qrCode",
							"type": "string"
						}
					],
					"name": "register",
					"outputs": [],
					"stateMutability": "nonpayable",
					"type": "function"
				},
				{
					"inputs": [],
					"name": "saleContract",
					"outputs": [
						{
							"internalType": "address",
							"name": "",
							"type": "address"
						}
					],
					"stateMutability": "view",
					"type": "function"
				},
				{
					"inputs": [
						{
							"internalType": "address",
							"name": "_saleContract",
							"type": "address"
						}
					],
					"name": "setSaleContract",
					"outputs": [],
					"stateMutability": "nonpayable",
					"type": "function"
				},
				{
					"inputs": [
						{
							"internalType": "uint256",
							"name": "tokenId",
							"type": "uint256"
						},
						{
							"internalType": "address",
							"name": "newOwner",
							"type": "address"
						}
					],
					"name": "transferOwnership",
					"outputs": [],
					"stateMutability": "nonpayable",
					"type": "function"
				},
				{
					"inputs": [
						{
							"internalType": "uint256",
							"name": "tokenId",
							"type": "uint256"
						}
					],
					"name": "verify",
					"outputs": [],
					"stateMutability": "nonpayable",
					"type": "function"
				}
			],
			"devdoc": {
				"kind": "dev",
				"methods": {},
				"version": 1
			},
			"evm": {
				"assembly": "    /* \"Control.sol\":162:3047  contract ControlContract {... */\n  mstore(0x40, 0x80)\n    /* \"Control.sol\":1186:1315  constructor(address _mintAddress) {... */\n  callvalue\n  dup1\n  iszero\n  tag_1\n  jumpi\n  0x00\n  dup1\n  revert\ntag_1:\n  pop\n  mload(0x40)\n  sub(codesize, bytecodeSize)\n  dup1\n  bytecodeSize\n  dup4\n  codecopy\n  dup2\n  dup2\n  add\n  0x40\n  mstore\n  dup2\n  add\n  swap1\n  tag_2\n  swap2\n  swap1\n  tag_3\n  jump\t// in\ntag_2:\n    /* \"Control.sol\":1246:1256  msg.sender */\n  caller\n    /* \"Control.sol\":1231:1243  manufacturer */\n  0x01\n  0x00\n    /* \"Control.sol\":1231:1256  manufacturer = msg.sender */\n  0x0100\n  exp\n  dup2\n  sload\n  dup2\n  0xffffffffffffffffffffffffffffffffffffffff\n  mul\n  not\n  and\n  swap1\n  dup4\n  0xffffffffffffffffffffffffffffffffffffffff\n  and\n  mul\n  or\n  swap1\n  sstore\n  pop\n    /* \"Control.sol\":1294:1306  _mintAddress */\n  dup1\n    /* \"Control.sol\":1267:1279  mintContract */\n  0x00\n  dup1\n    /* \"Control.sol\":1267:1307  mintContract = ISimpleMint(_mintAddress) */\n  0x0100\n  exp\n  dup2\n  sload\n  dup2\n  0xffffffffffffffffffffffffffffffffffffffff\n  mul\n  not\n  and\n  swap1\n  dup4\n  0xffffffffffffffffffffffffffffffffffffffff\n  and\n  mul\n  or\n  swap1\n  sstore\n  pop\n    /* \"Control.sol\":1186:1315  constructor(address _mintAddress) {... */\n  pop\n    /* \"Control.sol\":162:3047  contract ControlContract {... */\n  jump(tag_6)\n    /* \"#utility.yul\":88:205   */\ntag_8:\n    /* \"#utility.yul\":197:198   */\n  0x00\n    /* \"#utility.yul\":194:195   */\n  dup1\n    /* \"#utility.yul\":187:199   */\n  revert\n    /* \"#utility.yul\":334:460   */\ntag_10:\n    /* \"#utility.yul\":371:378   */\n  0x00\n    /* \"#utility.yul\":411:453   */\n  0xffffffffffffffffffffffffffffffffffffffff\n    /* \"#utility.yul\":404:409   */\n  dup3\n    /* \"#utility.yul\":400:454   */\n  and\n    /* \"#utility.yul\":389:454   */\n  swap1\n  pop\n    /* \"#utility.yul\":334:460   */\n  swap2\n  swap1\n  pop\n  jump\t// out\n    /* \"#utility.yul\":466:562   */\ntag_11:\n    /* \"#utility.yul\":503:510   */\n  0x00\n    /* \"#utility.yul\":532:556   */\n  tag_20\n    /* \"#utility.yul\":550:555   */\n  dup3\n    /* \"#utility.yul\":532:556   */\n  tag_10\n  jump\t// in\ntag_20:\n    /* \"#utility.yul\":521:556   */\n  swap1\n  pop\n    /* \"#utility.yul\":466:562   */\n  swap2\n  swap1\n  pop\n  jump\t// out\n    /* \"#utility.yul\":568:690   */\ntag_12:\n    /* \"#utility.yul\":641:665   */\n  tag_22\n    /* \"#utility.yul\":659:664   */\n  dup2\n    /* \"#utility.yul\":641:665   */\n  tag_11\n  jump\t// in\ntag_22:\n    /* \"#utility.yul\":634:639   */\n  dup2\n    /* \"#utility.yul\":631:666   */\n  eq\n    /* \"#utility.yul\":621:684   */\n  tag_23\n  jumpi\n    /* \"#utility.yul\":680:681   */\n  0x00\n    /* \"#utility.yul\":677:678   */\n  dup1\n    /* \"#utility.yul\":670:682   */\n  revert\n    /* \"#utility.yul\":621:684   */\ntag_23:\n    /* \"#utility.yul\":568:690   */\n  pop\n  jump\t// out\n    /* \"#utility.yul\":696:839   */\ntag_13:\n    /* \"#utility.yul\":753:758   */\n  0x00\n    /* \"#utility.yul\":784:790   */\n  dup2\n    /* \"#utility.yul\":778:791   */\n  mload\n    /* \"#utility.yul\":769:791   */\n  swap1\n  pop\n    /* \"#utility.yul\":800:833   */\n  tag_25\n    /* \"#utility.yul\":827:832   */\n  dup2\n    /* \"#utility.yul\":800:833   */\n  tag_12\n  jump\t// in\ntag_25:\n    /* \"#utility.yul\":696:839   */\n  swap3\n  swap2\n  pop\n  pop\n  jump\t// out\n    /* \"#utility.yul\":845:1196   */\ntag_3:\n    /* \"#utility.yul\":915:921   */\n  0x00\n    /* \"#utility.yul\":964:966   */\n  0x20\n    /* \"#utility.yul\":952:961   */\n  dup3\n    /* \"#utility.yul\":943:950   */\n  dup5\n    /* \"#utility.yul\":939:962   */\n  sub\n    /* \"#utility.yul\":935:967   */\n  slt\n    /* \"#utility.yul\":932:1051   */\n  iszero\n  tag_27\n  jumpi\n    /* \"#utility.yul\":970:1049   */\n  tag_28\n  tag_8\n  jump\t// in\ntag_28:\n    /* \"#utility.yul\":932:1051   */\ntag_27:\n    /* \"#utility.yul\":1090:1091   */\n  0x00\n    /* \"#utility.yul\":1115:1179   */\n  tag_29\n    /* \"#utility.yul\":1171:1178   */\n  dup5\n    /* \"#utility.yul\":1162:1168   */\n  dup3\n    /* \"#utility.yul\":1151:1160   */\n  dup6\n    /* \"#utility.yul\":1147:1169   */\n  add\n    /* \"#utility.yul\":1115:1179   */\n  tag_13\n  jump\t// in\ntag_29:\n    /* \"#utility.yul\":1105:1179   */\n  swap2\n  pop\n    /* \"#utility.yul\":1061:1189   */\n  pop\n    /* \"#utility.yul\":845:1196   */\n  swap3\n  swap2\n  pop\n  pop\n  jump\t// out\n    /* \"Control.sol\":162:3047  contract ControlContract {... */\ntag_6:\n  dataSize(sub_0)\n  dup1\n  dataOffset(sub_0)\n  0x00\n  codecopy\n  0x00\n  return\nstop\n\nsub_0: assembly {\n        /* \"Control.sol\":162:3047  contract ControlContract {... */\n      mstore(0x40, 0x80)\n      callvalue\n      dup1\n      iszero\n      tag_1\n      jumpi\n      0x00\n      dup1\n      revert\n    tag_1:\n      pop\n      jumpi(tag_2, lt(calldatasize, 0x04))\n      shr(0xe0, calldataload(0x00))\n      dup1\n      0x9000b3d6\n      gt\n      tag_14\n      jumpi\n      dup1\n      0x9000b3d6\n      eq\n      tag_8\n      jumpi\n      dup1\n      0xa00fd3c8\n      eq\n      tag_9\n      jumpi\n      dup1\n      0xc8691b2a\n      eq\n      tag_10\n      jumpi\n      dup1\n      0xd0b6b6db\n      eq\n      tag_11\n      jumpi\n      dup1\n      0xdaf6ca30\n      eq\n      tag_12\n      jumpi\n      dup1\n      0xf9281222\n      eq\n      tag_13\n      jumpi\n      jump(tag_2)\n    tag_14:\n      dup1\n      0x0593d244\n      eq\n      tag_3\n      jumpi\n      dup1\n      0x29507f73\n      eq\n      tag_4\n      jumpi\n      dup1\n      0x74754282\n      eq\n      tag_5\n      jumpi\n      dup1\n      0x7acc0b20\n      eq\n      tag_6\n      jumpi\n      dup1\n      0x8753367f\n      eq\n      tag_7\n      jumpi\n    tag_2:\n      0x00\n      dup1\n      revert\n        /* \"Control.sol\":1323:1444  function setSaleContract(address _saleContract) external onlyManufacturer {... */\n    tag_3:\n      tag_15\n      0x04\n      dup1\n      calldatasize\n      sub\n      dup2\n      add\n      swap1\n      tag_16\n      swap2\n      swap1\n      tag_17\n      jump\t// in\n    tag_16:\n      tag_18\n      jump\t// in\n    tag_15:\n      stop\n        /* \"Control.sol\":2512:2918  function transferOwnership(uint256 tokenId, address newOwner) external onlySaleContract {... */\n    tag_4:\n      tag_19\n      0x04\n      dup1\n      calldatasize\n      sub\n      dup2\n      add\n      swap1\n      tag_20\n      swap2\n      swap1\n      tag_21\n      jump\t// in\n    tag_20:\n      tag_22\n      jump\t// in\n    tag_19:\n      stop\n        /* \"Control.sol\":232:259  address public manufacturer */\n    tag_5:\n      tag_23\n      tag_24\n      jump\t// in\n    tag_23:\n      mload(0x40)\n      tag_25\n      swap2\n      swap1\n      tag_26\n      jump\t// in\n    tag_25:\n      mload(0x40)\n      dup1\n      swap2\n      sub\n      swap1\n      return\n        /* \"Control.sol\":466:509  mapping(uint256 => Product) public products */\n    tag_6:\n      tag_27\n      0x04\n      dup1\n      calldatasize\n      sub\n      dup2\n      add\n      swap1\n      tag_28\n      swap2\n      swap1\n      tag_29\n      jump\t// in\n    tag_28:\n      tag_30\n      jump\t// in\n    tag_27:\n      mload(0x40)\n      tag_31\n      swap5\n      swap4\n      swap3\n      swap2\n      swap1\n      tag_32\n      jump\t// in\n    tag_31:\n      mload(0x40)\n      dup1\n      swap2\n      sub\n      swap1\n      return\n        /* \"Control.sol\":2058:2293  function verify(uint256 tokenId) public onlyVerifier {... */\n    tag_7:\n      tag_33\n      0x04\n      dup1\n      calldatasize\n      sub\n      dup2\n      add\n      swap1\n      tag_34\n      swap2\n      swap1\n      tag_29\n      jump\t// in\n    tag_34:\n      tag_35\n      jump\t// in\n    tag_33:\n      stop\n        /* \"Control.sol\":2926:3044  function addVerifier(address verifier) public onlyManufacturer {... */\n    tag_8:\n      tag_36\n      0x04\n      dup1\n      calldatasize\n      sub\n      dup2\n      add\n      swap1\n      tag_37\n      swap2\n      swap1\n      tag_17\n      jump\t// in\n    tag_37:\n      tag_38\n      jump\t// in\n    tag_36:\n      stop\n        /* \"Control.sol\":1452:2050  function register(uint256 tokenId, string memory qrCode) public onlyManufacturer {... */\n    tag_9:\n      tag_39\n      0x04\n      dup1\n      calldatasize\n      sub\n      dup2\n      add\n      swap1\n      tag_40\n      swap2\n      swap1\n      tag_41\n      jump\t// in\n    tag_40:\n      tag_42\n      jump\t// in\n    tag_39:\n      stop\n        /* \"Control.sol\":2301:2504  function getHistory(uint256 tokenId) public view returns (address[] memory) {... */\n    tag_10:\n      tag_43\n      0x04\n      dup1\n      calldatasize\n      sub\n      dup2\n      add\n      swap1\n      tag_44\n      swap2\n      swap1\n      tag_29\n      jump\t// in\n    tag_44:\n      tag_45\n      jump\t// in\n    tag_43:\n      mload(0x40)\n      tag_46\n      swap2\n      swap1\n      tag_47\n      jump\t// in\n    tag_46:\n      mload(0x40)\n      dup1\n      swap2\n      sub\n      swap1\n      return\n        /* \"Control.sol\":194:225  ISimpleMint public mintContract */\n    tag_11:\n      tag_48\n      tag_49\n      jump\t// in\n    tag_48:\n      mload(0x40)\n      tag_50\n      swap2\n      swap1\n      tag_51\n      jump\t// in\n    tag_50:\n      mload(0x40)\n      dup1\n      swap2\n      sub\n      swap1\n      return\n        /* \"Control.sol\":266:293  address public saleContract */\n    tag_12:\n      tag_52\n      tag_53\n      jump\t// in\n    tag_52:\n      mload(0x40)\n      tag_54\n      swap2\n      swap1\n      tag_26\n      jump\t// in\n    tag_54:\n      mload(0x40)\n      dup1\n      swap2\n      sub\n      swap1\n      return\n        /* \"Control.sol\":516:567  mapping(address => bool) public authorisedVerifiers */\n    tag_13:\n      tag_55\n      0x04\n      dup1\n      calldatasize\n      sub\n      dup2\n      add\n      swap1\n      tag_56\n      swap2\n      swap1\n      tag_17\n      jump\t// in\n    tag_56:\n      tag_57\n      jump\t// in\n    tag_55:\n      mload(0x40)\n      tag_58\n      swap2\n      swap1\n      tag_59\n      jump\t// in\n    tag_58:\n      mload(0x40)\n      dup1\n      swap2\n      sub\n      swap1\n      return\n        /* \"Control.sol\":1323:1444  function setSaleContract(address _saleContract) external onlyManufacturer {... */\n    tag_18:\n        /* \"Control.sol\":855:867  manufacturer */\n      0x01\n      0x00\n      swap1\n      sload\n      swap1\n      0x0100\n      exp\n      swap1\n      div\n      0xffffffffffffffffffffffffffffffffffffffff\n      and\n        /* \"Control.sol\":841:867  msg.sender == manufacturer */\n      0xffffffffffffffffffffffffffffffffffffffff\n      and\n        /* \"Control.sol\":841:851  msg.sender */\n      caller\n        /* \"Control.sol\":841:867  msg.sender == manufacturer */\n      0xffffffffffffffffffffffffffffffffffffffff\n      and\n      eq\n        /* \"Control.sol\":833:898  require(msg.sender == manufacturer, \"Only manufacturer can call\") */\n      tag_61\n      jumpi\n      mload(0x40)\n      0x08c379a000000000000000000000000000000000000000000000000000000000\n      dup2\n      mstore\n      0x04\n      add\n      tag_62\n      swap1\n      tag_63\n      jump\t// in\n    tag_62:\n      mload(0x40)\n      dup1\n      swap2\n      sub\n      swap1\n      revert\n    tag_61:\n        /* \"Control.sol\":1423:1436  _saleContract */\n      dup1\n        /* \"Control.sol\":1408:1420  saleContract */\n      0x02\n      0x00\n        /* \"Control.sol\":1408:1436  saleContract = _saleContract */\n      0x0100\n      exp\n      dup2\n      sload\n      dup2\n      0xffffffffffffffffffffffffffffffffffffffff\n      mul\n      not\n      and\n      swap1\n      dup4\n      0xffffffffffffffffffffffffffffffffffffffff\n      and\n      mul\n      or\n      swap1\n      sstore\n      pop\n        /* \"Control.sol\":1323:1444  function setSaleContract(address _saleContract) external onlyManufacturer {... */\n      pop\n      jump\t// out\n        /* \"Control.sol\":2512:2918  function transferOwnership(uint256 tokenId, address newOwner) external onlySaleContract {... */\n    tag_22:\n        /* \"Control.sol\":1114:1126  saleContract */\n      0x02\n      0x00\n      swap1\n      sload\n      swap1\n      0x0100\n      exp\n      swap1\n      div\n      0xffffffffffffffffffffffffffffffffffffffff\n      and\n        /* \"Control.sol\":1100:1126  msg.sender == saleContract */\n      0xffffffffffffffffffffffffffffffffffffffff\n      and\n        /* \"Control.sol\":1100:1110  msg.sender */\n      caller\n        /* \"Control.sol\":1100:1126  msg.sender == saleContract */\n      0xffffffffffffffffffffffffffffffffffffffff\n      and\n      eq\n        /* \"Control.sol\":1092:1162  require(msg.sender == saleContract, \"Only SaleContract can call this\") */\n      tag_66\n      jumpi\n      mload(0x40)\n      0x08c379a000000000000000000000000000000000000000000000000000000000\n      dup2\n      mstore\n      0x04\n      add\n      tag_67\n      swap1\n      tag_68\n      jump\t// in\n    tag_67:\n      mload(0x40)\n      dup1\n      swap2\n      sub\n      swap1\n      revert\n    tag_66:\n        /* \"Control.sol\":2648:2649  0 */\n      0x00\n        /* \"Control.sol\":2619:2627  products */\n      0x03\n        /* \"Control.sol\":2619:2636  products[tokenId] */\n      0x00\n        /* \"Control.sol\":2628:2635  tokenId */\n      dup5\n        /* \"Control.sol\":2619:2636  products[tokenId] */\n      dup2\n      mstore\n      0x20\n      add\n      swap1\n      dup2\n      mstore\n      0x20\n      add\n      0x00\n      keccak256\n        /* \"Control.sol\":2619:2644  products[tokenId].tokenID */\n      0x00\n      add\n      sload\n        /* \"Control.sol\":2619:2649  products[tokenId].tokenID != 0 */\n      sub\n        /* \"Control.sol\":2611:2676  require(products[tokenId].tokenID != 0, \"Product not registered\") */\n      tag_70\n      jumpi\n      mload(0x40)\n      0x08c379a000000000000000000000000000000000000000000000000000000000\n      dup2\n      mstore\n      0x04\n      add\n      tag_71\n      swap1\n      tag_72\n      jump\t// in\n    tag_71:\n      mload(0x40)\n      dup1\n      swap2\n      sub\n      swap1\n      revert\n    tag_70:\n        /* \"Control.sol\":2689:2705  address oldOwner */\n      0x00\n        /* \"Control.sol\":2708:2716  products */\n      0x03\n        /* \"Control.sol\":2708:2725  products[tokenId] */\n      0x00\n        /* \"Control.sol\":2717:2724  tokenId */\n      dup5\n        /* \"Control.sol\":2708:2725  products[tokenId] */\n      dup2\n      mstore\n      0x20\n      add\n      swap1\n      dup2\n      mstore\n      0x20\n      add\n      0x00\n      keccak256\n        /* \"Control.sol\":2708:2738  products[tokenId].currentOwner */\n      0x02\n      add\n      0x01\n      swap1\n      sload\n      swap1\n      0x0100\n      exp\n      swap1\n      div\n      0xffffffffffffffffffffffffffffffffffffffff\n      and\n        /* \"Control.sol\":2689:2738  address oldOwner = products[tokenId].currentOwner */\n      swap1\n      pop\n        /* \"Control.sol\":2784:2792  newOwner */\n      dup2\n        /* \"Control.sol\":2751:2759  products */\n      0x03\n        /* \"Control.sol\":2751:2768  products[tokenId] */\n      0x00\n        /* \"Control.sol\":2760:2767  tokenId */\n      dup6\n        /* \"Control.sol\":2751:2768  products[tokenId] */\n      dup2\n      mstore\n      0x20\n      add\n      swap1\n      dup2\n      mstore\n      0x20\n      add\n      0x00\n      keccak256\n        /* \"Control.sol\":2751:2781  products[tokenId].currentOwner */\n      0x02\n      add\n      0x01\n        /* \"Control.sol\":2751:2792  products[tokenId].currentOwner = newOwner */\n      0x0100\n      exp\n      dup2\n      sload\n      dup2\n      0xffffffffffffffffffffffffffffffffffffffff\n      mul\n      not\n      and\n      swap1\n      dup4\n      0xffffffffffffffffffffffffffffffffffffffff\n      and\n      mul\n      or\n      swap1\n      sstore\n      pop\n        /* \"Control.sol\":2803:2811  products */\n      0x03\n        /* \"Control.sol\":2803:2820  products[tokenId] */\n      0x00\n        /* \"Control.sol\":2812:2819  tokenId */\n      dup5\n        /* \"Control.sol\":2803:2820  products[tokenId] */\n      dup2\n      mstore\n      0x20\n      add\n      swap1\n      dup2\n      mstore\n      0x20\n      add\n      0x00\n      keccak256\n        /* \"Control.sol\":2803:2828  products[tokenId].history */\n      0x03\n      add\n        /* \"Control.sol\":2834:2842  newOwner */\n      dup3\n        /* \"Control.sol\":2803:2843  products[tokenId].history.push(newOwner) */\n      swap1\n      dup1\n      0x01\n      dup2\n      sload\n      add\n      dup1\n      dup3\n      sstore\n      dup1\n      swap2\n      pop\n      pop\n      0x01\n      swap1\n      sub\n      swap1\n      0x00\n      mstore\n      keccak256(0x00, 0x20)\n      add\n      0x00\n      swap1\n      swap2\n      swap1\n      swap2\n      swap1\n      swap2\n      0x0100\n      exp\n      dup2\n      sload\n      dup2\n      0xffffffffffffffffffffffffffffffffffffffff\n      mul\n      not\n      and\n      swap1\n      dup4\n      0xffffffffffffffffffffffffffffffffffffffff\n      and\n      mul\n      or\n      swap1\n      sstore\n      pop\n        /* \"Control.sol\":2861:2910  OwnershipTransferred(tokenId, oldOwner, newOwner) */\n      0x16b85f49bf01212961345d3016c9a531894accf62eb7680f2045d79185cc0ec0\n        /* \"Control.sol\":2882:2889  tokenId */\n      dup4\n        /* \"Control.sol\":2891:2899  oldOwner */\n      dup3\n        /* \"Control.sol\":2901:2909  newOwner */\n      dup5\n        /* \"Control.sol\":2861:2910  OwnershipTransferred(tokenId, oldOwner, newOwner) */\n      mload(0x40)\n      tag_74\n      swap4\n      swap3\n      swap2\n      swap1\n      tag_75\n      jump\t// in\n    tag_74:\n      mload(0x40)\n      dup1\n      swap2\n      sub\n      swap1\n      log1\n        /* \"Control.sol\":2600:2918  {... */\n      pop\n        /* \"Control.sol\":2512:2918  function transferOwnership(uint256 tokenId, address newOwner) external onlySaleContract {... */\n      pop\n      pop\n      jump\t// out\n        /* \"Control.sol\":232:259  address public manufacturer */\n    tag_24:\n      0x01\n      0x00\n      swap1\n      sload\n      swap1\n      0x0100\n      exp\n      swap1\n      div\n      0xffffffffffffffffffffffffffffffffffffffff\n      and\n      dup2\n      jump\t// out\n        /* \"Control.sol\":466:509  mapping(uint256 => Product) public products */\n    tag_30:\n      mstore(0x20, 0x03)\n      dup1\n      0x00\n      mstore\n      keccak256(0x00, 0x40)\n      0x00\n      swap2\n      pop\n      swap1\n      pop\n      dup1\n      0x00\n      add\n      sload\n      swap1\n      dup1\n      0x01\n      add\n      dup1\n      sload\n      tag_76\n      swap1\n      tag_77\n      jump\t// in\n    tag_76:\n      dup1\n      0x1f\n      add\n      0x20\n      dup1\n      swap2\n      div\n      mul\n      0x20\n      add\n      mload(0x40)\n      swap1\n      dup2\n      add\n      0x40\n      mstore\n      dup1\n      swap3\n      swap2\n      swap1\n      dup2\n      dup2\n      mstore\n      0x20\n      add\n      dup3\n      dup1\n      sload\n      tag_78\n      swap1\n      tag_77\n      jump\t// in\n    tag_78:\n      dup1\n      iszero\n      tag_79\n      jumpi\n      dup1\n      0x1f\n      lt\n      tag_80\n      jumpi\n      0x0100\n      dup1\n      dup4\n      sload\n      div\n      mul\n      dup4\n      mstore\n      swap2\n      0x20\n      add\n      swap2\n      jump(tag_79)\n    tag_80:\n      dup3\n      add\n      swap2\n      swap1\n      0x00\n      mstore\n      keccak256(0x00, 0x20)\n      swap1\n    tag_81:\n      dup2\n      sload\n      dup2\n      mstore\n      swap1\n      0x01\n      add\n      swap1\n      0x20\n      add\n      dup1\n      dup4\n      gt\n      tag_81\n      jumpi\n      dup3\n      swap1\n      sub\n      0x1f\n      and\n      dup3\n      add\n      swap2\n    tag_79:\n      pop\n      pop\n      pop\n      pop\n      pop\n      swap1\n      dup1\n      0x02\n      add\n      0x00\n      swap1\n      sload\n      swap1\n      0x0100\n      exp\n      swap1\n      div\n      0xff\n      and\n      swap1\n      dup1\n      0x02\n      add\n      0x01\n      swap1\n      sload\n      swap1\n      0x0100\n      exp\n      swap1\n      div\n      0xffffffffffffffffffffffffffffffffffffffff\n      and\n      swap1\n      pop\n      dup5\n      jump\t// out\n        /* \"Control.sol\":2058:2293  function verify(uint256 tokenId) public onlyVerifier {... */\n    tag_35:\n        /* \"Control.sol\":969:988  authorisedVerifiers */\n      0x04\n        /* \"Control.sol\":969:1000  authorisedVerifiers[msg.sender] */\n      0x00\n        /* \"Control.sol\":989:999  msg.sender */\n      caller\n        /* \"Control.sol\":969:1000  authorisedVerifiers[msg.sender] */\n      0xffffffffffffffffffffffffffffffffffffffff\n      and\n      0xffffffffffffffffffffffffffffffffffffffff\n      and\n      dup2\n      mstore\n      0x20\n      add\n      swap1\n      dup2\n      mstore\n      0x20\n      add\n      0x00\n      keccak256\n      0x00\n      swap1\n      sload\n      swap1\n      0x0100\n      exp\n      swap1\n      div\n      0xff\n      and\n        /* \"Control.sol\":961:1029  require(authorisedVerifiers[msg.sender], \"Not authorised to verify\") */\n      tag_83\n      jumpi\n      mload(0x40)\n      0x08c379a000000000000000000000000000000000000000000000000000000000\n      dup2\n      mstore\n      0x04\n      add\n      tag_84\n      swap1\n      tag_85\n      jump\t// in\n    tag_84:\n      mload(0x40)\n      dup1\n      swap2\n      sub\n      swap1\n      revert\n    tag_83:\n        /* \"Control.sol\":2159:2160  0 */\n      0x00\n        /* \"Control.sol\":2130:2138  products */\n      0x03\n        /* \"Control.sol\":2130:2147  products[tokenId] */\n      0x00\n        /* \"Control.sol\":2139:2146  tokenId */\n      dup4\n        /* \"Control.sol\":2130:2147  products[tokenId] */\n      dup2\n      mstore\n      0x20\n      add\n      swap1\n      dup2\n      mstore\n      0x20\n      add\n      0x00\n      keccak256\n        /* \"Control.sol\":2130:2155  products[tokenId].tokenID */\n      0x00\n      add\n      sload\n        /* \"Control.sol\":2130:2160  products[tokenId].tokenID != 0 */\n      sub\n        /* \"Control.sol\":2122:2187  require(products[tokenId].tokenID != 0, \"Product not registered\") */\n      tag_87\n      jumpi\n      mload(0x40)\n      0x08c379a000000000000000000000000000000000000000000000000000000000\n      dup2\n      mstore\n      0x04\n      add\n      tag_88\n      swap1\n      tag_72\n      jump\t// in\n    tag_88:\n      mload(0x40)\n      dup1\n      swap2\n      sub\n      swap1\n      revert\n    tag_87:\n        /* \"Control.sol\":2229:2233  true */\n      0x01\n        /* \"Control.sol\":2200:2208  products */\n      0x03\n        /* \"Control.sol\":2200:2217  products[tokenId] */\n      0x00\n        /* \"Control.sol\":2209:2216  tokenId */\n      dup4\n        /* \"Control.sol\":2200:2217  products[tokenId] */\n      dup2\n      mstore\n      0x20\n      add\n      swap1\n      dup2\n      mstore\n      0x20\n      add\n      0x00\n      keccak256\n        /* \"Control.sol\":2200:2226  products[tokenId].verified */\n      0x02\n      add\n      0x00\n        /* \"Control.sol\":2200:2233  products[tokenId].verified = true */\n      0x0100\n      exp\n      dup2\n      sload\n      dup2\n      0xff\n      mul\n      not\n      and\n      swap1\n      dup4\n      iszero\n      iszero\n      mul\n      or\n      swap1\n      sstore\n      pop\n        /* \"Control.sol\":2249:2285  ProductVerified(tokenId, msg.sender) */\n      0xab60911bebc6d3ab48620594e409545834da76f4995297ebc48ca5589f25437b\n        /* \"Control.sol\":2265:2272  tokenId */\n      dup2\n        /* \"Control.sol\":2274:2284  msg.sender */\n      caller\n        /* \"Control.sol\":2249:2285  ProductVerified(tokenId, msg.sender) */\n      mload(0x40)\n      tag_89\n      swap3\n      swap2\n      swap1\n      tag_90\n      jump\t// in\n    tag_89:\n      mload(0x40)\n      dup1\n      swap2\n      sub\n      swap1\n      log1\n        /* \"Control.sol\":2058:2293  function verify(uint256 tokenId) public onlyVerifier {... */\n      pop\n      jump\t// out\n        /* \"Control.sol\":2926:3044  function addVerifier(address verifier) public onlyManufacturer {... */\n    tag_38:\n        /* \"Control.sol\":855:867  manufacturer */\n      0x01\n      0x00\n      swap1\n      sload\n      swap1\n      0x0100\n      exp\n      swap1\n      div\n      0xffffffffffffffffffffffffffffffffffffffff\n      and\n        /* \"Control.sol\":841:867  msg.sender == manufacturer */\n      0xffffffffffffffffffffffffffffffffffffffff\n      and\n        /* \"Control.sol\":841:851  msg.sender */\n      caller\n        /* \"Control.sol\":841:867  msg.sender == manufacturer */\n      0xffffffffffffffffffffffffffffffffffffffff\n      and\n      eq\n        /* \"Control.sol\":833:898  require(msg.sender == manufacturer, \"Only manufacturer can call\") */\n      tag_92\n      jumpi\n      mload(0x40)\n      0x08c379a000000000000000000000000000000000000000000000000000000000\n      dup2\n      mstore\n      0x04\n      add\n      tag_93\n      swap1\n      tag_63\n      jump\t// in\n    tag_93:\n      mload(0x40)\n      dup1\n      swap2\n      sub\n      swap1\n      revert\n    tag_92:\n        /* \"Control.sol\":3032:3036  true */\n      0x01\n        /* \"Control.sol\":3000:3019  authorisedVerifiers */\n      0x04\n        /* \"Control.sol\":3000:3029  authorisedVerifiers[verifier] */\n      0x00\n        /* \"Control.sol\":3020:3028  verifier */\n      dup4\n        /* \"Control.sol\":3000:3029  authorisedVerifiers[verifier] */\n      0xffffffffffffffffffffffffffffffffffffffff\n      and\n      0xffffffffffffffffffffffffffffffffffffffff\n      and\n      dup2\n      mstore\n      0x20\n      add\n      swap1\n      dup2\n      mstore\n      0x20\n      add\n      0x00\n      keccak256\n      0x00\n        /* \"Control.sol\":3000:3036  authorisedVerifiers[verifier] = true */\n      0x0100\n      exp\n      dup2\n      sload\n      dup2\n      0xff\n      mul\n      not\n      and\n      swap1\n      dup4\n      iszero\n      iszero\n      mul\n      or\n      swap1\n      sstore\n      pop\n        /* \"Control.sol\":2926:3044  function addVerifier(address verifier) public onlyManufacturer {... */\n      pop\n      jump\t// out\n        /* \"Control.sol\":1452:2050  function register(uint256 tokenId, string memory qrCode) public onlyManufacturer {... */\n    tag_42:\n        /* \"Control.sol\":855:867  manufacturer */\n      0x01\n      0x00\n      swap1\n      sload\n      swap1\n      0x0100\n      exp\n      swap1\n      div\n      0xffffffffffffffffffffffffffffffffffffffff\n      and\n        /* \"Control.sol\":841:867  msg.sender == manufacturer */\n      0xffffffffffffffffffffffffffffffffffffffff\n      and\n        /* \"Control.sol\":841:851  msg.sender */\n      caller\n        /* \"Control.sol\":841:867  msg.sender == manufacturer */\n      0xffffffffffffffffffffffffffffffffffffffff\n      and\n      eq\n        /* \"Control.sol\":833:898  require(msg.sender == manufacturer, \"Only manufacturer can call\") */\n      tag_96\n      jumpi\n      mload(0x40)\n      0x08c379a000000000000000000000000000000000000000000000000000000000\n      dup2\n      mstore\n      0x04\n      add\n      tag_97\n      swap1\n      tag_63\n      jump\t// in\n    tag_97:\n      mload(0x40)\n      dup1\n      swap2\n      sub\n      swap1\n      revert\n    tag_96:\n        /* \"Control.sol\":1544:1564  address currentOwner */\n      0x00\n        /* \"Control.sol\":1567:1579  mintContract */\n      dup1\n      0x00\n      swap1\n      sload\n      swap1\n      0x0100\n      exp\n      swap1\n      div\n      0xffffffffffffffffffffffffffffffffffffffff\n      and\n        /* \"Control.sol\":1567:1587  mintContract.ownerOf */\n      0xffffffffffffffffffffffffffffffffffffffff\n      and\n      0x6352211e\n        /* \"Control.sol\":1588:1595  tokenId */\n      dup5\n        /* \"Control.sol\":1567:1596  mintContract.ownerOf(tokenId) */\n      mload(0x40)\n      dup3\n      0xffffffff\n      and\n      0xe0\n      shl\n      dup2\n      mstore\n      0x04\n      add\n      tag_99\n      swap2\n      swap1\n      tag_100\n      jump\t// in\n    tag_99:\n      0x20\n      mload(0x40)\n      dup1\n      dup4\n      sub\n      dup2\n      dup7\n      gas\n      staticcall\n      iszero\n      dup1\n      iszero\n      tag_102\n      jumpi\n      returndatasize\n      0x00\n      dup1\n      returndatacopy\n      revert(0x00, returndatasize)\n    tag_102:\n      pop\n      pop\n      pop\n      pop\n      mload(0x40)\n      returndatasize\n      not(0x1f)\n      0x1f\n      dup3\n      add\n      and\n      dup3\n      add\n      dup1\n      0x40\n      mstore\n      pop\n      dup2\n      add\n      swap1\n      tag_103\n      swap2\n      swap1\n      tag_104\n      jump\t// in\n    tag_103:\n        /* \"Control.sol\":1544:1596  address currentOwner = mintContract.ownerOf(tokenId) */\n      swap1\n      pop\n        /* \"Control.sol\":1644:1645  0 */\n      0x00\n        /* \"Control.sol\":1615:1623  products */\n      0x03\n        /* \"Control.sol\":1615:1632  products[tokenId] */\n      0x00\n        /* \"Control.sol\":1624:1631  tokenId */\n      dup6\n        /* \"Control.sol\":1615:1632  products[tokenId] */\n      dup2\n      mstore\n      0x20\n      add\n      swap1\n      dup2\n      mstore\n      0x20\n      add\n      0x00\n      keccak256\n        /* \"Control.sol\":1615:1640  products[tokenId].tokenID */\n      0x00\n      add\n      sload\n        /* \"Control.sol\":1615:1645  products[tokenId].tokenID == 0 */\n      eq\n        /* \"Control.sol\":1607:1668  require(products[tokenId].tokenID == 0, \"Already registered\") */\n      tag_105\n      jumpi\n      mload(0x40)\n      0x08c379a000000000000000000000000000000000000000000000000000000000\n      dup2\n      mstore\n      0x04\n      add\n      tag_106\n      swap1\n      tag_107\n      jump\t// in\n    tag_106:\n      mload(0x40)\n      dup1\n      swap2\n      sub\n      swap1\n      revert\n    tag_105:\n        /* \"Control.sol\":1731:1922  Product({... */\n      mload(0x40)\n      dup1\n      0xa0\n      add\n      0x40\n      mstore\n      dup1\n        /* \"Control.sol\":1763:1770  tokenId */\n      dup5\n        /* \"Control.sol\":1731:1922  Product({... */\n      dup2\n      mstore\n      0x20\n      add\n        /* \"Control.sol\":1793:1799  qrCode */\n      dup4\n        /* \"Control.sol\":1731:1922  Product({... */\n      dup2\n      mstore\n      0x20\n      add\n        /* \"Control.sol\":1824:1829  false */\n      0x00\n        /* \"Control.sol\":1731:1922  Product({... */\n      iszero\n      iszero\n      dup2\n      mstore\n      0x20\n      add\n        /* \"Control.sol\":1858:1870  currentOwner */\n      dup3\n        /* \"Control.sol\":1731:1922  Product({... */\n      0xffffffffffffffffffffffffffffffffffffffff\n      and\n      dup2\n      mstore\n      0x20\n      add\n        /* \"Control.sol\":1908:1909  1 */\n      0x01\n        /* \"Control.sol\":1894:1910  new address[](1) */\n      0xffffffffffffffff\n      dup2\n      gt\n      iszero\n      tag_108\n      jumpi\n      tag_109\n      tag_110\n      jump\t// in\n    tag_109:\n    tag_108:\n      mload(0x40)\n      swap1\n      dup1\n      dup3\n      mstore\n      dup1\n      0x20\n      mul\n      0x20\n      add\n      dup3\n      add\n      0x40\n      mstore\n      dup1\n      iszero\n      tag_111\n      jumpi\n      dup2\n      0x20\n      add\n      0x20\n      dup3\n      mul\n      dup1\n      calldatasize\n      dup4\n      calldatacopy\n      dup1\n      dup3\n      add\n      swap2\n      pop\n      pop\n      swap1\n      pop\n    tag_111:\n      pop\n        /* \"Control.sol\":1731:1922  Product({... */\n      dup2\n      mstore\n      pop\n        /* \"Control.sol\":1711:1719  products */\n      0x03\n        /* \"Control.sol\":1711:1728  products[tokenId] */\n      0x00\n        /* \"Control.sol\":1720:1727  tokenId */\n      dup6\n        /* \"Control.sol\":1711:1728  products[tokenId] */\n      dup2\n      mstore\n      0x20\n      add\n      swap1\n      dup2\n      mstore\n      0x20\n      add\n      0x00\n      keccak256\n        /* \"Control.sol\":1711:1922  products[tokenId] = Product({... */\n      0x00\n      dup3\n      add\n      mload\n      dup2\n      0x00\n      add\n      sstore\n      0x20\n      dup3\n      add\n      mload\n      dup2\n      0x01\n      add\n      swap1\n      dup2\n      tag_112\n      swap2\n      swap1\n      tag_113\n      jump\t// in\n    tag_112:\n      pop\n      0x40\n      dup3\n      add\n      mload\n      dup2\n      0x02\n      add\n      exp(0x0100, 0x00)\n      dup2\n      sload\n      dup2\n      0xff\n      mul\n      not\n      and\n      swap1\n      dup4\n      iszero\n      iszero\n      mul\n      or\n      swap1\n      sstore\n      pop\n      0x60\n      dup3\n      add\n      mload\n      dup2\n      0x02\n      add\n      exp(0x0100, 0x01)\n      dup2\n      sload\n      dup2\n      0xffffffffffffffffffffffffffffffffffffffff\n      mul\n      not\n      and\n      swap1\n      dup4\n      0xffffffffffffffffffffffffffffffffffffffff\n      and\n      mul\n      or\n      swap1\n      sstore\n      pop\n      0x80\n      dup3\n      add\n      mload\n      dup2\n      0x03\n      add\n      swap1\n      dup1\n      mload\n      swap1\n      0x20\n      add\n      swap1\n      tag_114\n      swap3\n      swap2\n      swap1\n      tag_115\n      jump\t// in\n    tag_114:\n      pop\n      swap1\n      pop\n      pop\n        /* \"Control.sol\":1964:1976  currentOwner */\n      dup1\n        /* \"Control.sol\":1933:1941  products */\n      0x03\n        /* \"Control.sol\":1933:1950  products[tokenId] */\n      0x00\n        /* \"Control.sol\":1942:1949  tokenId */\n      dup6\n        /* \"Control.sol\":1933:1950  products[tokenId] */\n      dup2\n      mstore\n      0x20\n      add\n      swap1\n      dup2\n      mstore\n      0x20\n      add\n      0x00\n      keccak256\n        /* \"Control.sol\":1933:1958  products[tokenId].history */\n      0x03\n      add\n        /* \"Control.sol\":1959:1960  0 */\n      0x00\n        /* \"Control.sol\":1933:1961  products[tokenId].history[0] */\n      dup2\n      sload\n      dup2\n      lt\n      tag_116\n      jumpi\n      tag_117\n      tag_118\n      jump\t// in\n    tag_117:\n    tag_116:\n      swap1\n      0x00\n      mstore\n      keccak256(0x00, 0x20)\n      add\n      0x00\n        /* \"Control.sol\":1933:1976  products[tokenId].history[0] = currentOwner */\n      0x0100\n      exp\n      dup2\n      sload\n      dup2\n      0xffffffffffffffffffffffffffffffffffffffff\n      mul\n      not\n      and\n      swap1\n      dup4\n      0xffffffffffffffffffffffffffffffffffffffff\n      and\n      mul\n      or\n      swap1\n      sstore\n      pop\n        /* \"Control.sol\":1994:2042  ProductRegistered(tokenId, qrCode, currentOwner) */\n      0xd810998a0248808a33b20218e71759cb2ec1a182b398350ad606d742587c012c\n        /* \"Control.sol\":2012:2019  tokenId */\n      dup4\n        /* \"Control.sol\":2021:2027  qrCode */\n      dup4\n        /* \"Control.sol\":2029:2041  currentOwner */\n      dup4\n        /* \"Control.sol\":1994:2042  ProductRegistered(tokenId, qrCode, currentOwner) */\n      mload(0x40)\n      tag_120\n      swap4\n      swap3\n      swap2\n      swap1\n      tag_121\n      jump\t// in\n    tag_120:\n      mload(0x40)\n      dup1\n      swap2\n      sub\n      swap1\n      log1\n        /* \"Control.sol\":1533:2050  {... */\n      pop\n        /* \"Control.sol\":1452:2050  function register(uint256 tokenId, string memory qrCode) public onlyManufacturer {... */\n      pop\n      pop\n      jump\t// out\n        /* \"Control.sol\":2301:2504  function getHistory(uint256 tokenId) public view returns (address[] memory) {... */\n    tag_45:\n        /* \"Control.sol\":2359:2375  address[] memory */\n      0x60\n        /* \"Control.sol\":2425:2426  0 */\n      0x00\n        /* \"Control.sol\":2396:2404  products */\n      0x03\n        /* \"Control.sol\":2396:2413  products[tokenId] */\n      0x00\n        /* \"Control.sol\":2405:2412  tokenId */\n      dup5\n        /* \"Control.sol\":2396:2413  products[tokenId] */\n      dup2\n      mstore\n      0x20\n      add\n      swap1\n      dup2\n      mstore\n      0x20\n      add\n      0x00\n      keccak256\n        /* \"Control.sol\":2396:2421  products[tokenId].tokenID */\n      0x00\n      add\n      sload\n        /* \"Control.sol\":2396:2426  products[tokenId].tokenID != 0 */\n      sub\n        /* \"Control.sol\":2388:2453  require(products[tokenId].tokenID != 0, \"Product not registered\") */\n      tag_123\n      jumpi\n      mload(0x40)\n      0x08c379a000000000000000000000000000000000000000000000000000000000\n      dup2\n      mstore\n      0x04\n      add\n      tag_124\n      swap1\n      tag_72\n      jump\t// in\n    tag_124:\n      mload(0x40)\n      dup1\n      swap2\n      sub\n      swap1\n      revert\n    tag_123:\n        /* \"Control.sol\":2471:2479  products */\n      0x03\n        /* \"Control.sol\":2471:2488  products[tokenId] */\n      0x00\n        /* \"Control.sol\":2480:2487  tokenId */\n      dup4\n        /* \"Control.sol\":2471:2488  products[tokenId] */\n      dup2\n      mstore\n      0x20\n      add\n      swap1\n      dup2\n      mstore\n      0x20\n      add\n      0x00\n      keccak256\n        /* \"Control.sol\":2471:2496  products[tokenId].history */\n      0x03\n      add\n        /* \"Control.sol\":2464:2496  return products[tokenId].history */\n      dup1\n      sload\n      dup1\n      0x20\n      mul\n      0x20\n      add\n      mload(0x40)\n      swap1\n      dup2\n      add\n      0x40\n      mstore\n      dup1\n      swap3\n      swap2\n      swap1\n      dup2\n      dup2\n      mstore\n      0x20\n      add\n      dup3\n      dup1\n      sload\n      dup1\n      iszero\n      tag_125\n      jumpi\n      0x20\n      mul\n      dup3\n      add\n      swap2\n      swap1\n      0x00\n      mstore\n      keccak256(0x00, 0x20)\n      swap1\n    tag_126:\n      dup2\n      0x00\n      swap1\n      sload\n      swap1\n      0x0100\n      exp\n      swap1\n      div\n      0xffffffffffffffffffffffffffffffffffffffff\n      and\n      0xffffffffffffffffffffffffffffffffffffffff\n      and\n      dup2\n      mstore\n      0x20\n      add\n      swap1\n      0x01\n      add\n      swap1\n      dup1\n      dup4\n      gt\n      tag_126\n      jumpi\n    tag_125:\n      pop\n      pop\n      pop\n      pop\n      pop\n      swap1\n      pop\n        /* \"Control.sol\":2301:2504  function getHistory(uint256 tokenId) public view returns (address[] memory) {... */\n      swap2\n      swap1\n      pop\n      jump\t// out\n        /* \"Control.sol\":194:225  ISimpleMint public mintContract */\n    tag_49:\n      0x00\n      dup1\n      sload\n      swap1\n      0x0100\n      exp\n      swap1\n      div\n      0xffffffffffffffffffffffffffffffffffffffff\n      and\n      dup2\n      jump\t// out\n        /* \"Control.sol\":266:293  address public saleContract */\n    tag_53:\n      0x02\n      0x00\n      swap1\n      sload\n      swap1\n      0x0100\n      exp\n      swap1\n      div\n      0xffffffffffffffffffffffffffffffffffffffff\n      and\n      dup2\n      jump\t// out\n        /* \"Control.sol\":516:567  mapping(address => bool) public authorisedVerifiers */\n    tag_57:\n      mstore(0x20, 0x04)\n      dup1\n      0x00\n      mstore\n      keccak256(0x00, 0x40)\n      0x00\n      swap2\n      pop\n      sload\n      swap1\n      0x0100\n      exp\n      swap1\n      div\n      0xff\n      and\n      dup2\n      jump\t// out\n    tag_115:\n      dup3\n      dup1\n      sload\n      dup3\n      dup3\n      sstore\n      swap1\n      0x00\n      mstore\n      keccak256(0x00, 0x20)\n      swap1\n      dup2\n      add\n      swap3\n      dup3\n      iszero\n      tag_127\n      jumpi\n      swap2\n      0x20\n      mul\n      dup3\n      add\n    tag_128:\n      dup3\n      dup2\n      gt\n      iszero\n      tag_129\n      jumpi\n      dup3\n      mload\n      dup3\n      exp(0x0100, 0x00)\n      dup2\n      sload\n      dup2\n      0xffffffffffffffffffffffffffffffffffffffff\n      mul\n      not\n      and\n      swap1\n      dup4\n      0xffffffffffffffffffffffffffffffffffffffff\n      and\n      mul\n      or\n      swap1\n      sstore\n      pop\n      swap2\n      0x20\n      add\n      swap2\n      swap1\n      0x01\n      add\n      swap1\n      jump(tag_128)\n    tag_129:\n    tag_127:\n      pop\n      swap1\n      pop\n      tag_130\n      swap2\n      swap1\n      tag_131\n      jump\t// in\n    tag_130:\n      pop\n      swap1\n      jump\t// out\n    tag_131:\n    tag_132:\n      dup1\n      dup3\n      gt\n      iszero\n      tag_133\n      jumpi\n      0x00\n      dup2\n      0x00\n      swap1\n      sstore\n      pop\n      0x01\n      add\n      jump(tag_132)\n    tag_133:\n      pop\n      swap1\n      jump\t// out\n        /* \"#utility.yul\":7:82   */\n    tag_134:\n        /* \"#utility.yul\":40:46   */\n      0x00\n        /* \"#utility.yul\":73:75   */\n      0x40\n        /* \"#utility.yul\":67:76   */\n      mload\n        /* \"#utility.yul\":57:76   */\n      swap1\n      pop\n        /* \"#utility.yul\":7:82   */\n      swap1\n      jump\t// out\n        /* \"#utility.yul\":88:205   */\n    tag_135:\n        /* \"#utility.yul\":197:198   */\n      0x00\n        /* \"#utility.yul\":194:195   */\n      dup1\n        /* \"#utility.yul\":187:199   */\n      revert\n        /* \"#utility.yul\":211:328   */\n    tag_136:\n        /* \"#utility.yul\":320:321   */\n      0x00\n        /* \"#utility.yul\":317:318   */\n      dup1\n        /* \"#utility.yul\":310:322   */\n      revert\n        /* \"#utility.yul\":334:460   */\n    tag_137:\n        /* \"#utility.yul\":371:378   */\n      0x00\n        /* \"#utility.yul\":411:453   */\n      0xffffffffffffffffffffffffffffffffffffffff\n        /* \"#utility.yul\":404:409   */\n      dup3\n        /* \"#utility.yul\":400:454   */\n      and\n        /* \"#utility.yul\":389:454   */\n      swap1\n      pop\n        /* \"#utility.yul\":334:460   */\n      swap2\n      swap1\n      pop\n      jump\t// out\n        /* \"#utility.yul\":466:562   */\n    tag_138:\n        /* \"#utility.yul\":503:510   */\n      0x00\n        /* \"#utility.yul\":532:556   */\n      tag_205\n        /* \"#utility.yul\":550:555   */\n      dup3\n        /* \"#utility.yul\":532:556   */\n      tag_137\n      jump\t// in\n    tag_205:\n        /* \"#utility.yul\":521:556   */\n      swap1\n      pop\n        /* \"#utility.yul\":466:562   */\n      swap2\n      swap1\n      pop\n      jump\t// out\n        /* \"#utility.yul\":568:690   */\n    tag_139:\n        /* \"#utility.yul\":641:665   */\n      tag_207\n        /* \"#utility.yul\":659:664   */\n      dup2\n        /* \"#utility.yul\":641:665   */\n      tag_138\n      jump\t// in\n    tag_207:\n        /* \"#utility.yul\":634:639   */\n      dup2\n        /* \"#utility.yul\":631:666   */\n      eq\n        /* \"#utility.yul\":621:684   */\n      tag_208\n      jumpi\n        /* \"#utility.yul\":680:681   */\n      0x00\n        /* \"#utility.yul\":677:678   */\n      dup1\n        /* \"#utility.yul\":670:682   */\n      revert\n        /* \"#utility.yul\":621:684   */\n    tag_208:\n        /* \"#utility.yul\":568:690   */\n      pop\n      jump\t// out\n        /* \"#utility.yul\":696:835   */\n    tag_140:\n        /* \"#utility.yul\":742:747   */\n      0x00\n        /* \"#utility.yul\":780:786   */\n      dup2\n        /* \"#utility.yul\":767:787   */\n      calldataload\n        /* \"#utility.yul\":758:787   */\n      swap1\n      pop\n        /* \"#utility.yul\":796:829   */\n      tag_210\n        /* \"#utility.yul\":823:828   */\n      dup2\n        /* \"#utility.yul\":796:829   */\n      tag_139\n      jump\t// in\n    tag_210:\n        /* \"#utility.yul\":696:835   */\n      swap3\n      swap2\n      pop\n      pop\n      jump\t// out\n        /* \"#utility.yul\":841:1170   */\n    tag_17:\n        /* \"#utility.yul\":900:906   */\n      0x00\n        /* \"#utility.yul\":949:951   */\n      0x20\n        /* \"#utility.yul\":937:946   */\n      dup3\n        /* \"#utility.yul\":928:935   */\n      dup5\n        /* \"#utility.yul\":924:947   */\n      sub\n        /* \"#utility.yul\":920:952   */\n      slt\n        /* \"#utility.yul\":917:1036   */\n      iszero\n      tag_212\n      jumpi\n        /* \"#utility.yul\":955:1034   */\n      tag_213\n      tag_135\n      jump\t// in\n    tag_213:\n        /* \"#utility.yul\":917:1036   */\n    tag_212:\n        /* \"#utility.yul\":1075:1076   */\n      0x00\n        /* \"#utility.yul\":1100:1153   */\n      tag_214\n        /* \"#utility.yul\":1145:1152   */\n      dup5\n        /* \"#utility.yul\":1136:1142   */\n      dup3\n        /* \"#utility.yul\":1125:1134   */\n      dup6\n        /* \"#utility.yul\":1121:1143   */\n      add\n        /* \"#utility.yul\":1100:1153   */\n      tag_140\n      jump\t// in\n    tag_214:\n        /* \"#utility.yul\":1090:1153   */\n      swap2\n      pop\n        /* \"#utility.yul\":1046:1163   */\n      pop\n        /* \"#utility.yul\":841:1170   */\n      swap3\n      swap2\n      pop\n      pop\n      jump\t// out\n        /* \"#utility.yul\":1176:1253   */\n    tag_141:\n        /* \"#utility.yul\":1213:1220   */\n      0x00\n        /* \"#utility.yul\":1242:1247   */\n      dup2\n        /* \"#utility.yul\":1231:1247   */\n      swap1\n      pop\n        /* \"#utility.yul\":1176:1253   */\n      swap2\n      swap1\n      pop\n      jump\t// out\n        /* \"#utility.yul\":1259:1381   */\n    tag_142:\n        /* \"#utility.yul\":1332:1356   */\n      tag_217\n        /* \"#utility.yul\":1350:1355   */\n      dup2\n        /* \"#utility.yul\":1332:1356   */\n      tag_141\n      jump\t// in\n    tag_217:\n        /* \"#utility.yul\":1325:1330   */\n      dup2\n        /* \"#utility.yul\":1322:1357   */\n      eq\n        /* \"#utility.yul\":1312:1375   */\n      tag_218\n      jumpi\n        /* \"#utility.yul\":1371:1372   */\n      0x00\n        /* \"#utility.yul\":1368:1369   */\n      dup1\n        /* \"#utility.yul\":1361:1373   */\n      revert\n        /* \"#utility.yul\":1312:1375   */\n    tag_218:\n        /* \"#utility.yul\":1259:1381   */\n      pop\n      jump\t// out\n        /* \"#utility.yul\":1387:1526   */\n    tag_143:\n        /* \"#utility.yul\":1433:1438   */\n      0x00\n        /* \"#utility.yul\":1471:1477   */\n      dup2\n        /* \"#utility.yul\":1458:1478   */\n      calldataload\n        /* \"#utility.yul\":1449:1478   */\n      swap1\n      pop\n        /* \"#utility.yul\":1487:1520   */\n      tag_220\n        /* \"#utility.yul\":1514:1519   */\n      dup2\n        /* \"#utility.yul\":1487:1520   */\n      tag_142\n      jump\t// in\n    tag_220:\n        /* \"#utility.yul\":1387:1526   */\n      swap3\n      swap2\n      pop\n      pop\n      jump\t// out\n        /* \"#utility.yul\":1532:2006   */\n    tag_21:\n        /* \"#utility.yul\":1600:1606   */\n      0x00\n        /* \"#utility.yul\":1608:1614   */\n      dup1\n        /* \"#utility.yul\":1657:1659   */\n      0x40\n        /* \"#utility.yul\":1645:1654   */\n      dup4\n        /* \"#utility.yul\":1636:1643   */\n      dup6\n        /* \"#utility.yul\":1632:1655   */\n      sub\n        /* \"#utility.yul\":1628:1660   */\n      slt\n        /* \"#utility.yul\":1625:1744   */\n      iszero\n      tag_222\n      jumpi\n        /* \"#utility.yul\":1663:1742   */\n      tag_223\n      tag_135\n      jump\t// in\n    tag_223:\n        /* \"#utility.yul\":1625:1744   */\n    tag_222:\n        /* \"#utility.yul\":1783:1784   */\n      0x00\n        /* \"#utility.yul\":1808:1861   */\n      tag_224\n        /* \"#utility.yul\":1853:1860   */\n      dup6\n        /* \"#utility.yul\":1844:1850   */\n      dup3\n        /* \"#utility.yul\":1833:1842   */\n      dup7\n        /* \"#utility.yul\":1829:1851   */\n      add\n        /* \"#utility.yul\":1808:1861   */\n      tag_143\n      jump\t// in\n    tag_224:\n        /* \"#utility.yul\":1798:1861   */\n      swap3\n      pop\n        /* \"#utility.yul\":1754:1871   */\n      pop\n        /* \"#utility.yul\":1910:1912   */\n      0x20\n        /* \"#utility.yul\":1936:1989   */\n      tag_225\n        /* \"#utility.yul\":1981:1988   */\n      dup6\n        /* \"#utility.yul\":1972:1978   */\n      dup3\n        /* \"#utility.yul\":1961:1970   */\n      dup7\n        /* \"#utility.yul\":1957:1979   */\n      add\n        /* \"#utility.yul\":1936:1989   */\n      tag_140\n      jump\t// in\n    tag_225:\n        /* \"#utility.yul\":1926:1989   */\n      swap2\n      pop\n        /* \"#utility.yul\":1881:1999   */\n      pop\n        /* \"#utility.yul\":1532:2006   */\n      swap3\n      pop\n      swap3\n      swap1\n      pop\n      jump\t// out\n        /* \"#utility.yul\":2012:2130   */\n    tag_144:\n        /* \"#utility.yul\":2099:2123   */\n      tag_227\n        /* \"#utility.yul\":2117:2122   */\n      dup2\n        /* \"#utility.yul\":2099:2123   */\n      tag_138\n      jump\t// in\n    tag_227:\n        /* \"#utility.yul\":2094:2097   */\n      dup3\n        /* \"#utility.yul\":2087:2124   */\n      mstore\n        /* \"#utility.yul\":2012:2130   */\n      pop\n      pop\n      jump\t// out\n        /* \"#utility.yul\":2136:2358   */\n    tag_26:\n        /* \"#utility.yul\":2229:2233   */\n      0x00\n        /* \"#utility.yul\":2267:2269   */\n      0x20\n        /* \"#utility.yul\":2256:2265   */\n      dup3\n        /* \"#utility.yul\":2252:2270   */\n      add\n        /* \"#utility.yul\":2244:2270   */\n      swap1\n      pop\n        /* \"#utility.yul\":2280:2351   */\n      tag_229\n        /* \"#utility.yul\":2348:2349   */\n      0x00\n        /* \"#utility.yul\":2337:2346   */\n      dup4\n        /* \"#utility.yul\":2333:2350   */\n      add\n        /* \"#utility.yul\":2324:2330   */\n      dup5\n        /* \"#utility.yul\":2280:2351   */\n      tag_144\n      jump\t// in\n    tag_229:\n        /* \"#utility.yul\":2136:2358   */\n      swap3\n      swap2\n      pop\n      pop\n      jump\t// out\n        /* \"#utility.yul\":2364:2693   */\n    tag_29:\n        /* \"#utility.yul\":2423:2429   */\n      0x00\n        /* \"#utility.yul\":2472:2474   */\n      0x20\n        /* \"#utility.yul\":2460:2469   */\n      dup3\n        /* \"#utility.yul\":2451:2458   */\n      dup5\n        /* \"#utility.yul\":2447:2470   */\n      sub\n        /* \"#utility.yul\":2443:2475   */\n      slt\n        /* \"#utility.yul\":2440:2559   */\n      iszero\n      tag_231\n      jumpi\n        /* \"#utility.yul\":2478:2557   */\n      tag_232\n      tag_135\n      jump\t// in\n    tag_232:\n        /* \"#utility.yul\":2440:2559   */\n    tag_231:\n        /* \"#utility.yul\":2598:2599   */\n      0x00\n        /* \"#utility.yul\":2623:2676   */\n      tag_233\n        /* \"#utility.yul\":2668:2675   */\n      dup5\n        /* \"#utility.yul\":2659:2665   */\n      dup3\n        /* \"#utility.yul\":2648:2657   */\n      dup6\n        /* \"#utility.yul\":2644:2666   */\n      add\n        /* \"#utility.yul\":2623:2676   */\n      tag_143\n      jump\t// in\n    tag_233:\n        /* \"#utility.yul\":2613:2676   */\n      swap2\n      pop\n        /* \"#utility.yul\":2569:2686   */\n      pop\n        /* \"#utility.yul\":2364:2693   */\n      swap3\n      swap2\n      pop\n      pop\n      jump\t// out\n        /* \"#utility.yul\":2699:2817   */\n    tag_145:\n        /* \"#utility.yul\":2786:2810   */\n      tag_235\n        /* \"#utility.yul\":2804:2809   */\n      dup2\n        /* \"#utility.yul\":2786:2810   */\n      tag_141\n      jump\t// in\n    tag_235:\n        /* \"#utility.yul\":2781:2784   */\n      dup3\n        /* \"#utility.yul\":2774:2811   */\n      mstore\n        /* \"#utility.yul\":2699:2817   */\n      pop\n      pop\n      jump\t// out\n        /* \"#utility.yul\":2823:2922   */\n    tag_146:\n        /* \"#utility.yul\":2875:2881   */\n      0x00\n        /* \"#utility.yul\":2909:2914   */\n      dup2\n        /* \"#utility.yul\":2903:2915   */\n      mload\n        /* \"#utility.yul\":2893:2915   */\n      swap1\n      pop\n        /* \"#utility.yul\":2823:2922   */\n      swap2\n      swap1\n      pop\n      jump\t// out\n        /* \"#utility.yul\":2928:3097   */\n    tag_147:\n        /* \"#utility.yul\":3012:3023   */\n      0x00\n        /* \"#utility.yul\":3046:3052   */\n      dup3\n        /* \"#utility.yul\":3041:3044   */\n      dup3\n        /* \"#utility.yul\":3034:3053   */\n      mstore\n        /* \"#utility.yul\":3086:3090   */\n      0x20\n        /* \"#utility.yul\":3081:3084   */\n      dup3\n        /* \"#utility.yul\":3077:3091   */\n      add\n        /* \"#utility.yul\":3062:3091   */\n      swap1\n      pop\n        /* \"#utility.yul\":2928:3097   */\n      swap3\n      swap2\n      pop\n      pop\n      jump\t// out\n        /* \"#utility.yul\":3103:3242   */\n    tag_148:\n        /* \"#utility.yul\":3192:3198   */\n      dup3\n        /* \"#utility.yul\":3187:3190   */\n      dup2\n        /* \"#utility.yul\":3182:3185   */\n      dup4\n        /* \"#utility.yul\":3176:3199   */\n      mcopy\n        /* \"#utility.yul\":3233:3234   */\n      0x00\n        /* \"#utility.yul\":3224:3230   */\n      dup4\n        /* \"#utility.yul\":3219:3222   */\n      dup4\n        /* \"#utility.yul\":3215:3231   */\n      add\n        /* \"#utility.yul\":3208:3235   */\n      mstore\n        /* \"#utility.yul\":3103:3242   */\n      pop\n      pop\n      pop\n      jump\t// out\n        /* \"#utility.yul\":3248:3350   */\n    tag_149:\n        /* \"#utility.yul\":3289:3295   */\n      0x00\n        /* \"#utility.yul\":3340:3342   */\n      0x1f\n        /* \"#utility.yul\":3336:3343   */\n      not\n        /* \"#utility.yul\":3331:3333   */\n      0x1f\n        /* \"#utility.yul\":3324:3329   */\n      dup4\n        /* \"#utility.yul\":3320:3334   */\n      add\n        /* \"#utility.yul\":3316:3344   */\n      and\n        /* \"#utility.yul\":3306:3344   */\n      swap1\n      pop\n        /* \"#utility.yul\":3248:3350   */\n      swap2\n      swap1\n      pop\n      jump\t// out\n        /* \"#utility.yul\":3356:3733   */\n    tag_150:\n        /* \"#utility.yul\":3444:3447   */\n      0x00\n        /* \"#utility.yul\":3472:3511   */\n      tag_241\n        /* \"#utility.yul\":3505:3510   */\n      dup3\n        /* \"#utility.yul\":3472:3511   */\n      tag_146\n      jump\t// in\n    tag_241:\n        /* \"#utility.yul\":3527:3598   */\n      tag_242\n        /* \"#utility.yul\":3591:3597   */\n      dup2\n        /* \"#utility.yul\":3586:3589   */\n      dup6\n        /* \"#utility.yul\":3527:3598   */\n      tag_147\n      jump\t// in\n    tag_242:\n        /* \"#utility.yul\":3520:3598   */\n      swap4\n      pop\n        /* \"#utility.yul\":3607:3672   */\n      tag_243\n        /* \"#utility.yul\":3665:3671   */\n      dup2\n        /* \"#utility.yul\":3660:3663   */\n      dup6\n        /* \"#utility.yul\":3653:3657   */\n      0x20\n        /* \"#utility.yul\":3646:3651   */\n      dup7\n        /* \"#utility.yul\":3642:3658   */\n      add\n        /* \"#utility.yul\":3607:3672   */\n      tag_148\n      jump\t// in\n    tag_243:\n        /* \"#utility.yul\":3697:3726   */\n      tag_244\n        /* \"#utility.yul\":3719:3725   */\n      dup2\n        /* \"#utility.yul\":3697:3726   */\n      tag_149\n      jump\t// in\n    tag_244:\n        /* \"#utility.yul\":3692:3695   */\n      dup5\n        /* \"#utility.yul\":3688:3727   */\n      add\n        /* \"#utility.yul\":3681:3727   */\n      swap2\n      pop\n        /* \"#utility.yul\":3448:3733   */\n      pop\n        /* \"#utility.yul\":3356:3733   */\n      swap3\n      swap2\n      pop\n      pop\n      jump\t// out\n        /* \"#utility.yul\":3739:3829   */\n    tag_151:\n        /* \"#utility.yul\":3773:3780   */\n      0x00\n        /* \"#utility.yul\":3816:3821   */\n      dup2\n        /* \"#utility.yul\":3809:3822   */\n      iszero\n        /* \"#utility.yul\":3802:3823   */\n      iszero\n        /* \"#utility.yul\":3791:3823   */\n      swap1\n      pop\n        /* \"#utility.yul\":3739:3829   */\n      swap2\n      swap1\n      pop\n      jump\t// out\n        /* \"#utility.yul\":3835:3944   */\n    tag_152:\n        /* \"#utility.yul\":3916:3937   */\n      tag_247\n        /* \"#utility.yul\":3931:3936   */\n      dup2\n        /* \"#utility.yul\":3916:3937   */\n      tag_151\n      jump\t// in\n    tag_247:\n        /* \"#utility.yul\":3911:3914   */\n      dup3\n        /* \"#utility.yul\":3904:3938   */\n      mstore\n        /* \"#utility.yul\":3835:3944   */\n      pop\n      pop\n      jump\t// out\n        /* \"#utility.yul\":3950:4582   */\n    tag_32:\n        /* \"#utility.yul\":4141:4145   */\n      0x00\n        /* \"#utility.yul\":4179:4182   */\n      0x80\n        /* \"#utility.yul\":4168:4177   */\n      dup3\n        /* \"#utility.yul\":4164:4183   */\n      add\n        /* \"#utility.yul\":4156:4183   */\n      swap1\n      pop\n        /* \"#utility.yul\":4193:4264   */\n      tag_249\n        /* \"#utility.yul\":4261:4262   */\n      0x00\n        /* \"#utility.yul\":4250:4259   */\n      dup4\n        /* \"#utility.yul\":4246:4263   */\n      add\n        /* \"#utility.yul\":4237:4243   */\n      dup8\n        /* \"#utility.yul\":4193:4264   */\n      tag_145\n      jump\t// in\n    tag_249:\n        /* \"#utility.yul\":4311:4320   */\n      dup2\n        /* \"#utility.yul\":4305:4309   */\n      dup2\n        /* \"#utility.yul\":4301:4321   */\n      sub\n        /* \"#utility.yul\":4296:4298   */\n      0x20\n        /* \"#utility.yul\":4285:4294   */\n      dup4\n        /* \"#utility.yul\":4281:4299   */\n      add\n        /* \"#utility.yul\":4274:4322   */\n      mstore\n        /* \"#utility.yul\":4339:4417   */\n      tag_250\n        /* \"#utility.yul\":4412:4416   */\n      dup2\n        /* \"#utility.yul\":4403:4409   */\n      dup7\n        /* \"#utility.yul\":4339:4417   */\n      tag_150\n      jump\t// in\n    tag_250:\n        /* \"#utility.yul\":4331:4417   */\n      swap1\n      pop\n        /* \"#utility.yul\":4427:4493   */\n      tag_251\n        /* \"#utility.yul\":4489:4491   */\n      0x40\n        /* \"#utility.yul\":4478:4487   */\n      dup4\n        /* \"#utility.yul\":4474:4492   */\n      add\n        /* \"#utility.yul\":4465:4471   */\n      dup6\n        /* \"#utility.yul\":4427:4493   */\n      tag_152\n      jump\t// in\n    tag_251:\n        /* \"#utility.yul\":4503:4575   */\n      tag_252\n        /* \"#utility.yul\":4571:4573   */\n      0x60\n        /* \"#utility.yul\":4560:4569   */\n      dup4\n        /* \"#utility.yul\":4556:4574   */\n      add\n        /* \"#utility.yul\":4547:4553   */\n      dup5\n        /* \"#utility.yul\":4503:4575   */\n      tag_144\n      jump\t// in\n    tag_252:\n        /* \"#utility.yul\":3950:4582   */\n      swap6\n      swap5\n      pop\n      pop\n      pop\n      pop\n      pop\n      jump\t// out\n        /* \"#utility.yul\":4588:4705   */\n    tag_153:\n        /* \"#utility.yul\":4697:4698   */\n      0x00\n        /* \"#utility.yul\":4694:4695   */\n      dup1\n        /* \"#utility.yul\":4687:4699   */\n      revert\n        /* \"#utility.yul\":4711:4828   */\n    tag_154:\n        /* \"#utility.yul\":4820:4821   */\n      0x00\n        /* \"#utility.yul\":4817:4818   */\n      dup1\n        /* \"#utility.yul\":4810:4822   */\n      revert\n        /* \"#utility.yul\":4834:5014   */\n    tag_110:\n        /* \"#utility.yul\":4882:4959   */\n      0x4e487b7100000000000000000000000000000000000000000000000000000000\n        /* \"#utility.yul\":4879:4880   */\n      0x00\n        /* \"#utility.yul\":4872:4960   */\n      mstore\n        /* \"#utility.yul\":4979:4983   */\n      0x41\n        /* \"#utility.yul\":4976:4977   */\n      0x04\n        /* \"#utility.yul\":4969:4984   */\n      mstore\n        /* \"#utility.yul\":5003:5007   */\n      0x24\n        /* \"#utility.yul\":5000:5001   */\n      0x00\n        /* \"#utility.yul\":4993:5008   */\n      revert\n        /* \"#utility.yul\":5020:5301   */\n    tag_155:\n        /* \"#utility.yul\":5103:5130   */\n      tag_257\n        /* \"#utility.yul\":5125:5129   */\n      dup3\n        /* \"#utility.yul\":5103:5130   */\n      tag_149\n      jump\t// in\n    tag_257:\n        /* \"#utility.yul\":5095:5101   */\n      dup2\n        /* \"#utility.yul\":5091:5131   */\n      add\n        /* \"#utility.yul\":5233:5239   */\n      dup2\n        /* \"#utility.yul\":5221:5231   */\n      dup2\n        /* \"#utility.yul\":5218:5240   */\n      lt\n        /* \"#utility.yul\":5197:5215   */\n      0xffffffffffffffff\n        /* \"#utility.yul\":5185:5195   */\n      dup3\n        /* \"#utility.yul\":5182:5216   */\n      gt\n        /* \"#utility.yul\":5179:5241   */\n      or\n        /* \"#utility.yul\":5176:5264   */\n      iszero\n      tag_258\n      jumpi\n        /* \"#utility.yul\":5244:5262   */\n      tag_259\n      tag_110\n      jump\t// in\n    tag_259:\n        /* \"#utility.yul\":5176:5264   */\n    tag_258:\n        /* \"#utility.yul\":5284:5294   */\n      dup1\n        /* \"#utility.yul\":5280:5282   */\n      0x40\n        /* \"#utility.yul\":5273:5295   */\n      mstore\n        /* \"#utility.yul\":5063:5301   */\n      pop\n        /* \"#utility.yul\":5020:5301   */\n      pop\n      pop\n      jump\t// out\n        /* \"#utility.yul\":5307:5436   */\n    tag_156:\n        /* \"#utility.yul\":5341:5347   */\n      0x00\n        /* \"#utility.yul\":5368:5388   */\n      tag_261\n      tag_134\n      jump\t// in\n    tag_261:\n        /* \"#utility.yul\":5358:5388   */\n      swap1\n      pop\n        /* \"#utility.yul\":5397:5430   */\n      tag_262\n        /* \"#utility.yul\":5425:5429   */\n      dup3\n        /* \"#utility.yul\":5417:5423   */\n      dup3\n        /* \"#utility.yul\":5397:5430   */\n      tag_155\n      jump\t// in\n    tag_262:\n        /* \"#utility.yul\":5307:5436   */\n      swap2\n      swap1\n      pop\n      jump\t// out\n        /* \"#utility.yul\":5442:5750   */\n    tag_157:\n        /* \"#utility.yul\":5504:5508   */\n      0x00\n        /* \"#utility.yul\":5594:5612   */\n      0xffffffffffffffff\n        /* \"#utility.yul\":5586:5592   */\n      dup3\n        /* \"#utility.yul\":5583:5613   */\n      gt\n        /* \"#utility.yul\":5580:5636   */\n      iszero\n      tag_264\n      jumpi\n        /* \"#utility.yul\":5616:5634   */\n      tag_265\n      tag_110\n      jump\t// in\n    tag_265:\n        /* \"#utility.yul\":5580:5636   */\n    tag_264:\n        /* \"#utility.yul\":5654:5683   */\n      tag_266\n        /* \"#utility.yul\":5676:5682   */\n      dup3\n        /* \"#utility.yul\":5654:5683   */\n      tag_149\n      jump\t// in\n    tag_266:\n        /* \"#utility.yul\":5646:5683   */\n      swap1\n      pop\n        /* \"#utility.yul\":5738:5742   */\n      0x20\n        /* \"#utility.yul\":5732:5736   */\n      dup2\n        /* \"#utility.yul\":5728:5743   */\n      add\n        /* \"#utility.yul\":5720:5743   */\n      swap1\n      pop\n        /* \"#utility.yul\":5442:5750   */\n      swap2\n      swap1\n      pop\n      jump\t// out\n        /* \"#utility.yul\":5756:5904   */\n    tag_158:\n        /* \"#utility.yul\":5854:5860   */\n      dup3\n        /* \"#utility.yul\":5849:5852   */\n      dup2\n        /* \"#utility.yul\":5844:5847   */\n      dup4\n        /* \"#utility.yul\":5831:5861   */\n      calldatacopy\n        /* \"#utility.yul\":5895:5896   */\n      0x00\n        /* \"#utility.yul\":5886:5892   */\n      dup4\n        /* \"#utility.yul\":5881:5884   */\n      dup4\n        /* \"#utility.yul\":5877:5893   */\n      add\n        /* \"#utility.yul\":5870:5897   */\n      mstore\n        /* \"#utility.yul\":5756:5904   */\n      pop\n      pop\n      pop\n      jump\t// out\n        /* \"#utility.yul\":5910:6335   */\n    tag_159:\n        /* \"#utility.yul\":5988:5993   */\n      0x00\n        /* \"#utility.yul\":6013:6079   */\n      tag_269\n        /* \"#utility.yul\":6029:6078   */\n      tag_270\n        /* \"#utility.yul\":6071:6077   */\n      dup5\n        /* \"#utility.yul\":6029:6078   */\n      tag_157\n      jump\t// in\n    tag_270:\n        /* \"#utility.yul\":6013:6079   */\n      tag_156\n      jump\t// in\n    tag_269:\n        /* \"#utility.yul\":6004:6079   */\n      swap1\n      pop\n        /* \"#utility.yul\":6102:6108   */\n      dup3\n        /* \"#utility.yul\":6095:6100   */\n      dup2\n        /* \"#utility.yul\":6088:6109   */\n      mstore\n        /* \"#utility.yul\":6140:6144   */\n      0x20\n        /* \"#utility.yul\":6133:6138   */\n      dup2\n        /* \"#utility.yul\":6129:6145   */\n      add\n        /* \"#utility.yul\":6178:6181   */\n      dup5\n        /* \"#utility.yul\":6169:6175   */\n      dup5\n        /* \"#utility.yul\":6164:6167   */\n      dup5\n        /* \"#utility.yul\":6160:6176   */\n      add\n        /* \"#utility.yul\":6157:6182   */\n      gt\n        /* \"#utility.yul\":6154:6266   */\n      iszero\n      tag_271\n      jumpi\n        /* \"#utility.yul\":6185:6264   */\n      tag_272\n      tag_154\n      jump\t// in\n    tag_272:\n        /* \"#utility.yul\":6154:6266   */\n    tag_271:\n        /* \"#utility.yul\":6275:6329   */\n      tag_273\n        /* \"#utility.yul\":6322:6328   */\n      dup5\n        /* \"#utility.yul\":6317:6320   */\n      dup3\n        /* \"#utility.yul\":6312:6315   */\n      dup6\n        /* \"#utility.yul\":6275:6329   */\n      tag_158\n      jump\t// in\n    tag_273:\n        /* \"#utility.yul\":5994:6335   */\n      pop\n        /* \"#utility.yul\":5910:6335   */\n      swap4\n      swap3\n      pop\n      pop\n      pop\n      jump\t// out\n        /* \"#utility.yul\":6355:6695   */\n    tag_160:\n        /* \"#utility.yul\":6411:6416   */\n      0x00\n        /* \"#utility.yul\":6460:6463   */\n      dup3\n        /* \"#utility.yul\":6453:6457   */\n      0x1f\n        /* \"#utility.yul\":6445:6451   */\n      dup4\n        /* \"#utility.yul\":6441:6458   */\n      add\n        /* \"#utility.yul\":6437:6464   */\n      slt\n        /* \"#utility.yul\":6427:6549   */\n      tag_275\n      jumpi\n        /* \"#utility.yul\":6468:6547   */\n      tag_276\n      tag_153\n      jump\t// in\n    tag_276:\n        /* \"#utility.yul\":6427:6549   */\n    tag_275:\n        /* \"#utility.yul\":6585:6591   */\n      dup2\n        /* \"#utility.yul\":6572:6592   */\n      calldataload\n        /* \"#utility.yul\":6610:6689   */\n      tag_277\n        /* \"#utility.yul\":6685:6688   */\n      dup5\n        /* \"#utility.yul\":6677:6683   */\n      dup3\n        /* \"#utility.yul\":6670:6674   */\n      0x20\n        /* \"#utility.yul\":6662:6668   */\n      dup7\n        /* \"#utility.yul\":6658:6675   */\n      add\n        /* \"#utility.yul\":6610:6689   */\n      tag_159\n      jump\t// in\n    tag_277:\n        /* \"#utility.yul\":6601:6689   */\n      swap2\n      pop\n        /* \"#utility.yul\":6417:6695   */\n      pop\n        /* \"#utility.yul\":6355:6695   */\n      swap3\n      swap2\n      pop\n      pop\n      jump\t// out\n        /* \"#utility.yul\":6701:7355   */\n    tag_41:\n        /* \"#utility.yul\":6779:6785   */\n      0x00\n        /* \"#utility.yul\":6787:6793   */\n      dup1\n        /* \"#utility.yul\":6836:6838   */\n      0x40\n        /* \"#utility.yul\":6824:6833   */\n      dup4\n        /* \"#utility.yul\":6815:6822   */\n      dup6\n        /* \"#utility.yul\":6811:6834   */\n      sub\n        /* \"#utility.yul\":6807:6839   */\n      slt\n        /* \"#utility.yul\":6804:6923   */\n      iszero\n      tag_279\n      jumpi\n        /* \"#utility.yul\":6842:6921   */\n      tag_280\n      tag_135\n      jump\t// in\n    tag_280:\n        /* \"#utility.yul\":6804:6923   */\n    tag_279:\n        /* \"#utility.yul\":6962:6963   */\n      0x00\n        /* \"#utility.yul\":6987:7040   */\n      tag_281\n        /* \"#utility.yul\":7032:7039   */\n      dup6\n        /* \"#utility.yul\":7023:7029   */\n      dup3\n        /* \"#utility.yul\":7012:7021   */\n      dup7\n        /* \"#utility.yul\":7008:7030   */\n      add\n        /* \"#utility.yul\":6987:7040   */\n      tag_143\n      jump\t// in\n    tag_281:\n        /* \"#utility.yul\":6977:7040   */\n      swap3\n      pop\n        /* \"#utility.yul\":6933:7050   */\n      pop\n        /* \"#utility.yul\":7117:7119   */\n      0x20\n        /* \"#utility.yul\":7106:7115   */\n      dup4\n        /* \"#utility.yul\":7102:7120   */\n      add\n        /* \"#utility.yul\":7089:7121   */\n      calldataload\n        /* \"#utility.yul\":7148:7166   */\n      0xffffffffffffffff\n        /* \"#utility.yul\":7140:7146   */\n      dup2\n        /* \"#utility.yul\":7137:7167   */\n      gt\n        /* \"#utility.yul\":7134:7251   */\n      iszero\n      tag_282\n      jumpi\n        /* \"#utility.yul\":7170:7249   */\n      tag_283\n      tag_136\n      jump\t// in\n    tag_283:\n        /* \"#utility.yul\":7134:7251   */\n    tag_282:\n        /* \"#utility.yul\":7275:7338   */\n      tag_284\n        /* \"#utility.yul\":7330:7337   */\n      dup6\n        /* \"#utility.yul\":7321:7327   */\n      dup3\n        /* \"#utility.yul\":7310:7319   */\n      dup7\n        /* \"#utility.yul\":7306:7328   */\n      add\n        /* \"#utility.yul\":7275:7338   */\n      tag_160\n      jump\t// in\n    tag_284:\n        /* \"#utility.yul\":7265:7338   */\n      swap2\n      pop\n        /* \"#utility.yul\":7060:7348   */\n      pop\n        /* \"#utility.yul\":6701:7355   */\n      swap3\n      pop\n      swap3\n      swap1\n      pop\n      jump\t// out\n        /* \"#utility.yul\":7361:7475   */\n    tag_161:\n        /* \"#utility.yul\":7428:7434   */\n      0x00\n        /* \"#utility.yul\":7462:7467   */\n      dup2\n        /* \"#utility.yul\":7456:7468   */\n      mload\n        /* \"#utility.yul\":7446:7468   */\n      swap1\n      pop\n        /* \"#utility.yul\":7361:7475   */\n      swap2\n      swap1\n      pop\n      jump\t// out\n        /* \"#utility.yul\":7481:7665   */\n    tag_162:\n        /* \"#utility.yul\":7580:7591   */\n      0x00\n        /* \"#utility.yul\":7614:7620   */\n      dup3\n        /* \"#utility.yul\":7609:7612   */\n      dup3\n        /* \"#utility.yul\":7602:7621   */\n      mstore\n        /* \"#utility.yul\":7654:7658   */\n      0x20\n        /* \"#utility.yul\":7649:7652   */\n      dup3\n        /* \"#utility.yul\":7645:7659   */\n      add\n        /* \"#utility.yul\":7630:7659   */\n      swap1\n      pop\n        /* \"#utility.yul\":7481:7665   */\n      swap3\n      swap2\n      pop\n      pop\n      jump\t// out\n        /* \"#utility.yul\":7671:7803   */\n    tag_163:\n        /* \"#utility.yul\":7738:7742   */\n      0x00\n        /* \"#utility.yul\":7761:7764   */\n      dup2\n        /* \"#utility.yul\":7753:7764   */\n      swap1\n      pop\n        /* \"#utility.yul\":7791:7795   */\n      0x20\n        /* \"#utility.yul\":7786:7789   */\n      dup3\n        /* \"#utility.yul\":7782:7796   */\n      add\n        /* \"#utility.yul\":7774:7796   */\n      swap1\n      pop\n        /* \"#utility.yul\":7671:7803   */\n      swap2\n      swap1\n      pop\n      jump\t// out\n        /* \"#utility.yul\":7809:7917   */\n    tag_164:\n        /* \"#utility.yul\":7886:7910   */\n      tag_289\n        /* \"#utility.yul\":7904:7909   */\n      dup2\n        /* \"#utility.yul\":7886:7910   */\n      tag_138\n      jump\t// in\n    tag_289:\n        /* \"#utility.yul\":7881:7884   */\n      dup3\n        /* \"#utility.yul\":7874:7911   */\n      mstore\n        /* \"#utility.yul\":7809:7917   */\n      pop\n      pop\n      jump\t// out\n        /* \"#utility.yul\":7923:8102   */\n    tag_165:\n        /* \"#utility.yul\":7992:8002   */\n      0x00\n        /* \"#utility.yul\":8013:8059   */\n      tag_291\n        /* \"#utility.yul\":8055:8058   */\n      dup4\n        /* \"#utility.yul\":8047:8053   */\n      dup4\n        /* \"#utility.yul\":8013:8059   */\n      tag_164\n      jump\t// in\n    tag_291:\n        /* \"#utility.yul\":8091:8095   */\n      0x20\n        /* \"#utility.yul\":8086:8089   */\n      dup4\n        /* \"#utility.yul\":8082:8096   */\n      add\n        /* \"#utility.yul\":8068:8096   */\n      swap1\n      pop\n        /* \"#utility.yul\":7923:8102   */\n      swap3\n      swap2\n      pop\n      pop\n      jump\t// out\n        /* \"#utility.yul\":8108:8221   */\n    tag_166:\n        /* \"#utility.yul\":8178:8182   */\n      0x00\n        /* \"#utility.yul\":8210:8214   */\n      0x20\n        /* \"#utility.yul\":8205:8208   */\n      dup3\n        /* \"#utility.yul\":8201:8215   */\n      add\n        /* \"#utility.yul\":8193:8215   */\n      swap1\n      pop\n        /* \"#utility.yul\":8108:8221   */\n      swap2\n      swap1\n      pop\n      jump\t// out\n        /* \"#utility.yul\":8257:8989   */\n    tag_167:\n        /* \"#utility.yul\":8376:8379   */\n      0x00\n        /* \"#utility.yul\":8405:8459   */\n      tag_294\n        /* \"#utility.yul\":8453:8458   */\n      dup3\n        /* \"#utility.yul\":8405:8459   */\n      tag_161\n      jump\t// in\n    tag_294:\n        /* \"#utility.yul\":8475:8561   */\n      tag_295\n        /* \"#utility.yul\":8554:8560   */\n      dup2\n        /* \"#utility.yul\":8549:8552   */\n      dup6\n        /* \"#utility.yul\":8475:8561   */\n      tag_162\n      jump\t// in\n    tag_295:\n        /* \"#utility.yul\":8468:8561   */\n      swap4\n      pop\n        /* \"#utility.yul\":8585:8641   */\n      tag_296\n        /* \"#utility.yul\":8635:8640   */\n      dup4\n        /* \"#utility.yul\":8585:8641   */\n      tag_163\n      jump\t// in\n    tag_296:\n        /* \"#utility.yul\":8664:8671   */\n      dup1\n        /* \"#utility.yul\":8695:8696   */\n      0x00\n        /* \"#utility.yul\":8680:8964   */\n    tag_297:\n        /* \"#utility.yul\":8705:8711   */\n      dup4\n        /* \"#utility.yul\":8702:8703   */\n      dup2\n        /* \"#utility.yul\":8699:8712   */\n      lt\n        /* \"#utility.yul\":8680:8964   */\n      iszero\n      tag_299\n      jumpi\n        /* \"#utility.yul\":8781:8787   */\n      dup2\n        /* \"#utility.yul\":8775:8788   */\n      mload\n        /* \"#utility.yul\":8808:8871   */\n      tag_300\n        /* \"#utility.yul\":8867:8870   */\n      dup9\n        /* \"#utility.yul\":8852:8865   */\n      dup3\n        /* \"#utility.yul\":8808:8871   */\n      tag_165\n      jump\t// in\n    tag_300:\n        /* \"#utility.yul\":8801:8871   */\n      swap8\n      pop\n        /* \"#utility.yul\":8894:8954   */\n      tag_301\n        /* \"#utility.yul\":8947:8953   */\n      dup4\n        /* \"#utility.yul\":8894:8954   */\n      tag_166\n      jump\t// in\n    tag_301:\n        /* \"#utility.yul\":8884:8954   */\n      swap3\n      pop\n        /* \"#utility.yul\":8740:8964   */\n      pop\n        /* \"#utility.yul\":8727:8728   */\n      0x01\n        /* \"#utility.yul\":8724:8725   */\n      dup2\n        /* \"#utility.yul\":8720:8729   */\n      add\n        /* \"#utility.yul\":8715:8729   */\n      swap1\n      pop\n        /* \"#utility.yul\":8680:8964   */\n      jump(tag_297)\n    tag_299:\n        /* \"#utility.yul\":8684:8698   */\n      pop\n        /* \"#utility.yul\":8980:8983   */\n      dup6\n        /* \"#utility.yul\":8973:8983   */\n      swap4\n      pop\n        /* \"#utility.yul\":8381:8989   */\n      pop\n      pop\n      pop\n        /* \"#utility.yul\":8257:8989   */\n      swap3\n      swap2\n      pop\n      pop\n      jump\t// out\n        /* \"#utility.yul\":8995:9368   */\n    tag_47:\n        /* \"#utility.yul\":9138:9142   */\n      0x00\n        /* \"#utility.yul\":9176:9178   */\n      0x20\n        /* \"#utility.yul\":9165:9174   */\n      dup3\n        /* \"#utility.yul\":9161:9179   */\n      add\n        /* \"#utility.yul\":9153:9179   */\n      swap1\n      pop\n        /* \"#utility.yul\":9225:9234   */\n      dup2\n        /* \"#utility.yul\":9219:9223   */\n      dup2\n        /* \"#utility.yul\":9215:9235   */\n      sub\n        /* \"#utility.yul\":9211:9212   */\n      0x00\n        /* \"#utility.yul\":9200:9209   */\n      dup4\n        /* \"#utility.yul\":9196:9213   */\n      add\n        /* \"#utility.yul\":9189:9236   */\n      mstore\n        /* \"#utility.yul\":9253:9361   */\n      tag_303\n        /* \"#utility.yul\":9356:9360   */\n      dup2\n        /* \"#utility.yul\":9347:9353   */\n      dup5\n        /* \"#utility.yul\":9253:9361   */\n      tag_167\n      jump\t// in\n    tag_303:\n        /* \"#utility.yul\":9245:9361   */\n      swap1\n      pop\n        /* \"#utility.yul\":8995:9368   */\n      swap3\n      swap2\n      pop\n      pop\n      jump\t// out\n        /* \"#utility.yul\":9374:9434   */\n    tag_168:\n        /* \"#utility.yul\":9402:9405   */\n      0x00\n        /* \"#utility.yul\":9423:9428   */\n      dup2\n        /* \"#utility.yul\":9416:9428   */\n      swap1\n      pop\n        /* \"#utility.yul\":9374:9434   */\n      swap2\n      swap1\n      pop\n      jump\t// out\n        /* \"#utility.yul\":9440:9582   */\n    tag_169:\n        /* \"#utility.yul\":9490:9499   */\n      0x00\n        /* \"#utility.yul\":9523:9576   */\n      tag_306\n        /* \"#utility.yul\":9541:9575   */\n      tag_307\n        /* \"#utility.yul\":9550:9574   */\n      tag_308\n        /* \"#utility.yul\":9568:9573   */\n      dup5\n        /* \"#utility.yul\":9550:9574   */\n      tag_137\n      jump\t// in\n    tag_308:\n        /* \"#utility.yul\":9541:9575   */\n      tag_168\n      jump\t// in\n    tag_307:\n        /* \"#utility.yul\":9523:9576   */\n      tag_137\n      jump\t// in\n    tag_306:\n        /* \"#utility.yul\":9510:9576   */\n      swap1\n      pop\n        /* \"#utility.yul\":9440:9582   */\n      swap2\n      swap1\n      pop\n      jump\t// out\n        /* \"#utility.yul\":9588:9714   */\n    tag_170:\n        /* \"#utility.yul\":9638:9647   */\n      0x00\n        /* \"#utility.yul\":9671:9708   */\n      tag_310\n        /* \"#utility.yul\":9702:9707   */\n      dup3\n        /* \"#utility.yul\":9671:9708   */\n      tag_169\n      jump\t// in\n    tag_310:\n        /* \"#utility.yul\":9658:9708   */\n      swap1\n      pop\n        /* \"#utility.yul\":9588:9714   */\n      swap2\n      swap1\n      pop\n      jump\t// out\n        /* \"#utility.yul\":9720:9863   */\n    tag_171:\n        /* \"#utility.yul\":9787:9796   */\n      0x00\n        /* \"#utility.yul\":9820:9857   */\n      tag_312\n        /* \"#utility.yul\":9851:9856   */\n      dup3\n        /* \"#utility.yul\":9820:9857   */\n      tag_170\n      jump\t// in\n    tag_312:\n        /* \"#utility.yul\":9807:9857   */\n      swap1\n      pop\n        /* \"#utility.yul\":9720:9863   */\n      swap2\n      swap1\n      pop\n      jump\t// out\n        /* \"#utility.yul\":9869:10034   */\n    tag_172:\n        /* \"#utility.yul\":9973:10027   */\n      tag_314\n        /* \"#utility.yul\":10021:10026   */\n      dup2\n        /* \"#utility.yul\":9973:10027   */\n      tag_171\n      jump\t// in\n    tag_314:\n        /* \"#utility.yul\":9968:9971   */\n      dup3\n        /* \"#utility.yul\":9961:10028   */\n      mstore\n        /* \"#utility.yul\":9869:10034   */\n      pop\n      pop\n      jump\t// out\n        /* \"#utility.yul\":10040:10296   */\n    tag_51:\n        /* \"#utility.yul\":10150:10154   */\n      0x00\n        /* \"#utility.yul\":10188:10190   */\n      0x20\n        /* \"#utility.yul\":10177:10186   */\n      dup3\n        /* \"#utility.yul\":10173:10191   */\n      add\n        /* \"#utility.yul\":10165:10191   */\n      swap1\n      pop\n        /* \"#utility.yul\":10201:10289   */\n      tag_316\n        /* \"#utility.yul\":10286:10287   */\n      0x00\n        /* \"#utility.yul\":10275:10284   */\n      dup4\n        /* \"#utility.yul\":10271:10288   */\n      add\n        /* \"#utility.yul\":10262:10268   */\n      dup5\n        /* \"#utility.yul\":10201:10289   */\n      tag_172\n      jump\t// in\n    tag_316:\n        /* \"#utility.yul\":10040:10296   */\n      swap3\n      swap2\n      pop\n      pop\n      jump\t// out\n        /* \"#utility.yul\":10302:10512   */\n    tag_59:\n        /* \"#utility.yul\":10389:10393   */\n      0x00\n        /* \"#utility.yul\":10427:10429   */\n      0x20\n        /* \"#utility.yul\":10416:10425   */\n      dup3\n        /* \"#utility.yul\":10412:10430   */\n      add\n        /* \"#utility.yul\":10404:10430   */\n      swap1\n      pop\n        /* \"#utility.yul\":10440:10505   */\n      tag_318\n        /* \"#utility.yul\":10502:10503   */\n      0x00\n        /* \"#utility.yul\":10491:10500   */\n      dup4\n        /* \"#utility.yul\":10487:10504   */\n      add\n        /* \"#utility.yul\":10478:10484   */\n      dup5\n        /* \"#utility.yul\":10440:10505   */\n      tag_152\n      jump\t// in\n    tag_318:\n        /* \"#utility.yul\":10302:10512   */\n      swap3\n      swap2\n      pop\n      pop\n      jump\t// out\n        /* \"#utility.yul\":10518:10694   */\n    tag_173:\n        /* \"#utility.yul\":10658:10686   */\n      0x4f6e6c79206d616e7566616374757265722063616e2063616c6c000000000000\n        /* \"#utility.yul\":10654:10655   */\n      0x00\n        /* \"#utility.yul\":10646:10652   */\n      dup3\n        /* \"#utility.yul\":10642:10656   */\n      add\n        /* \"#utility.yul\":10635:10687   */\n      mstore\n        /* \"#utility.yul\":10518:10694   */\n      pop\n      jump\t// out\n        /* \"#utility.yul\":10700:11066   */\n    tag_174:\n        /* \"#utility.yul\":10842:10845   */\n      0x00\n        /* \"#utility.yul\":10863:10930   */\n      tag_321\n        /* \"#utility.yul\":10927:10929   */\n      0x1a\n        /* \"#utility.yul\":10922:10925   */\n      dup4\n        /* \"#utility.yul\":10863:10930   */\n      tag_147\n      jump\t// in\n    tag_321:\n        /* \"#utility.yul\":10856:10930   */\n      swap2\n      pop\n        /* \"#utility.yul\":10939:11032   */\n      tag_322\n        /* \"#utility.yul\":11028:11031   */\n      dup3\n        /* \"#utility.yul\":10939:11032   */\n      tag_173\n      jump\t// in\n    tag_322:\n        /* \"#utility.yul\":11057:11059   */\n      0x20\n        /* \"#utility.yul\":11052:11055   */\n      dup3\n        /* \"#utility.yul\":11048:11060   */\n      add\n        /* \"#utility.yul\":11041:11060   */\n      swap1\n      pop\n        /* \"#utility.yul\":10700:11066   */\n      swap2\n      swap1\n      pop\n      jump\t// out\n        /* \"#utility.yul\":11072:11491   */\n    tag_63:\n        /* \"#utility.yul\":11238:11242   */\n      0x00\n        /* \"#utility.yul\":11276:11278   */\n      0x20\n        /* \"#utility.yul\":11265:11274   */\n      dup3\n        /* \"#utility.yul\":11261:11279   */\n      add\n        /* \"#utility.yul\":11253:11279   */\n      swap1\n      pop\n        /* \"#utility.yul\":11325:11334   */\n      dup2\n        /* \"#utility.yul\":11319:11323   */\n      dup2\n        /* \"#utility.yul\":11315:11335   */\n      sub\n        /* \"#utility.yul\":11311:11312   */\n      0x00\n        /* \"#utility.yul\":11300:11309   */\n      dup4\n        /* \"#utility.yul\":11296:11313   */\n      add\n        /* \"#utility.yul\":11289:11336   */\n      mstore\n        /* \"#utility.yul\":11353:11484   */\n      tag_324\n        /* \"#utility.yul\":11479:11483   */\n      dup2\n        /* \"#utility.yul\":11353:11484   */\n      tag_174\n      jump\t// in\n    tag_324:\n        /* \"#utility.yul\":11345:11484   */\n      swap1\n      pop\n        /* \"#utility.yul\":11072:11491   */\n      swap2\n      swap1\n      pop\n      jump\t// out\n        /* \"#utility.yul\":11497:11678   */\n    tag_175:\n        /* \"#utility.yul\":11637:11670   */\n      0x4f6e6c792053616c65436f6e74726163742063616e2063616c6c207468697300\n        /* \"#utility.yul\":11633:11634   */\n      0x00\n        /* \"#utility.yul\":11625:11631   */\n      dup3\n        /* \"#utility.yul\":11621:11635   */\n      add\n        /* \"#utility.yul\":11614:11671   */\n      mstore\n        /* \"#utility.yul\":11497:11678   */\n      pop\n      jump\t// out\n        /* \"#utility.yul\":11684:12050   */\n    tag_176:\n        /* \"#utility.yul\":11826:11829   */\n      0x00\n        /* \"#utility.yul\":11847:11914   */\n      tag_327\n        /* \"#utility.yul\":11911:11913   */\n      0x1f\n        /* \"#utility.yul\":11906:11909   */\n      dup4\n        /* \"#utility.yul\":11847:11914   */\n      tag_147\n      jump\t// in\n    tag_327:\n        /* \"#utility.yul\":11840:11914   */\n      swap2\n      pop\n        /* \"#utility.yul\":11923:12016   */\n      tag_328\n        /* \"#utility.yul\":12012:12015   */\n      dup3\n        /* \"#utility.yul\":11923:12016   */\n      tag_175\n      jump\t// in\n    tag_328:\n        /* \"#utility.yul\":12041:12043   */\n      0x20\n        /* \"#utility.yul\":12036:12039   */\n      dup3\n        /* \"#utility.yul\":12032:12044   */\n      add\n        /* \"#utility.yul\":12025:12044   */\n      swap1\n      pop\n        /* \"#utility.yul\":11684:12050   */\n      swap2\n      swap1\n      pop\n      jump\t// out\n        /* \"#utility.yul\":12056:12475   */\n    tag_68:\n        /* \"#utility.yul\":12222:12226   */\n      0x00\n        /* \"#utility.yul\":12260:12262   */\n      0x20\n        /* \"#utility.yul\":12249:12258   */\n      dup3\n        /* \"#utility.yul\":12245:12263   */\n      add\n        /* \"#utility.yul\":12237:12263   */\n      swap1\n      pop\n        /* \"#utility.yul\":12309:12318   */\n      dup2\n        /* \"#utility.yul\":12303:12307   */\n      dup2\n        /* \"#utility.yul\":12299:12319   */\n      sub\n        /* \"#utility.yul\":12295:12296   */\n      0x00\n        /* \"#utility.yul\":12284:12293   */\n      dup4\n        /* \"#utility.yul\":12280:12297   */\n      add\n        /* \"#utility.yul\":12273:12320   */\n      mstore\n        /* \"#utility.yul\":12337:12468   */\n      tag_330\n        /* \"#utility.yul\":12463:12467   */\n      dup2\n        /* \"#utility.yul\":12337:12468   */\n      tag_176\n      jump\t// in\n    tag_330:\n        /* \"#utility.yul\":12329:12468   */\n      swap1\n      pop\n        /* \"#utility.yul\":12056:12475   */\n      swap2\n      swap1\n      pop\n      jump\t// out\n        /* \"#utility.yul\":12481:12653   */\n    tag_177:\n        /* \"#utility.yul\":12621:12645   */\n      0x50726f64756374206e6f74207265676973746572656400000000000000000000\n        /* \"#utility.yul\":12617:12618   */\n      0x00\n        /* \"#utility.yul\":12609:12615   */\n      dup3\n        /* \"#utility.yul\":12605:12619   */\n      add\n        /* \"#utility.yul\":12598:12646   */\n      mstore\n        /* \"#utility.yul\":12481:12653   */\n      pop\n      jump\t// out\n        /* \"#utility.yul\":12659:13025   */\n    tag_178:\n        /* \"#utility.yul\":12801:12804   */\n      0x00\n        /* \"#utility.yul\":12822:12889   */\n      tag_333\n        /* \"#utility.yul\":12886:12888   */\n      0x16\n        /* \"#utility.yul\":12881:12884   */\n      dup4\n        /* \"#utility.yul\":12822:12889   */\n      tag_147\n      jump\t// in\n    tag_333:\n        /* \"#utility.yul\":12815:12889   */\n      swap2\n      pop\n        /* \"#utility.yul\":12898:12991   */\n      tag_334\n        /* \"#utility.yul\":12987:12990   */\n      dup3\n        /* \"#utility.yul\":12898:12991   */\n      tag_177\n      jump\t// in\n    tag_334:\n        /* \"#utility.yul\":13016:13018   */\n      0x20\n        /* \"#utility.yul\":13011:13014   */\n      dup3\n        /* \"#utility.yul\":13007:13019   */\n      add\n        /* \"#utility.yul\":13000:13019   */\n      swap1\n      pop\n        /* \"#utility.yul\":12659:13025   */\n      swap2\n      swap1\n      pop\n      jump\t// out\n        /* \"#utility.yul\":13031:13450   */\n    tag_72:\n        /* \"#utility.yul\":13197:13201   */\n      0x00\n        /* \"#utility.yul\":13235:13237   */\n      0x20\n        /* \"#utility.yul\":13224:13233   */\n      dup3\n        /* \"#utility.yul\":13220:13238   */\n      add\n        /* \"#utility.yul\":13212:13238   */\n      swap1\n      pop\n        /* \"#utility.yul\":13284:13293   */\n      dup2\n        /* \"#utility.yul\":13278:13282   */\n      dup2\n        /* \"#utility.yul\":13274:13294   */\n      sub\n        /* \"#utility.yul\":13270:13271   */\n      0x00\n        /* \"#utility.yul\":13259:13268   */\n      dup4\n        /* \"#utility.yul\":13255:13272   */\n      add\n        /* \"#utility.yul\":13248:13295   */\n      mstore\n        /* \"#utility.yul\":13312:13443   */\n      tag_336\n        /* \"#utility.yul\":13438:13442   */\n      dup2\n        /* \"#utility.yul\":13312:13443   */\n      tag_178\n      jump\t// in\n    tag_336:\n        /* \"#utility.yul\":13304:13443   */\n      swap1\n      pop\n        /* \"#utility.yul\":13031:13450   */\n      swap2\n      swap1\n      pop\n      jump\t// out\n        /* \"#utility.yul\":13456:13898   */\n    tag_75:\n        /* \"#utility.yul\":13605:13609   */\n      0x00\n        /* \"#utility.yul\":13643:13645   */\n      0x60\n        /* \"#utility.yul\":13632:13641   */\n      dup3\n        /* \"#utility.yul\":13628:13646   */\n      add\n        /* \"#utility.yul\":13620:13646   */\n      swap1\n      pop\n        /* \"#utility.yul\":13656:13727   */\n      tag_338\n        /* \"#utility.yul\":13724:13725   */\n      0x00\n        /* \"#utility.yul\":13713:13722   */\n      dup4\n        /* \"#utility.yul\":13709:13726   */\n      add\n        /* \"#utility.yul\":13700:13706   */\n      dup7\n        /* \"#utility.yul\":13656:13727   */\n      tag_145\n      jump\t// in\n    tag_338:\n        /* \"#utility.yul\":13737:13809   */\n      tag_339\n        /* \"#utility.yul\":13805:13807   */\n      0x20\n        /* \"#utility.yul\":13794:13803   */\n      dup4\n        /* \"#utility.yul\":13790:13808   */\n      add\n        /* \"#utility.yul\":13781:13787   */\n      dup6\n        /* \"#utility.yul\":13737:13809   */\n      tag_144\n      jump\t// in\n    tag_339:\n        /* \"#utility.yul\":13819:13891   */\n      tag_340\n        /* \"#utility.yul\":13887:13889   */\n      0x40\n        /* \"#utility.yul\":13876:13885   */\n      dup4\n        /* \"#utility.yul\":13872:13890   */\n      add\n        /* \"#utility.yul\":13863:13869   */\n      dup5\n        /* \"#utility.yul\":13819:13891   */\n      tag_144\n      jump\t// in\n    tag_340:\n        /* \"#utility.yul\":13456:13898   */\n      swap5\n      swap4\n      pop\n      pop\n      pop\n      pop\n      jump\t// out\n        /* \"#utility.yul\":13904:14084   */\n    tag_179:\n        /* \"#utility.yul\":13952:14029   */\n      0x4e487b7100000000000000000000000000000000000000000000000000000000\n        /* \"#utility.yul\":13949:13950   */\n      0x00\n        /* \"#utility.yul\":13942:14030   */\n      mstore\n        /* \"#utility.yul\":14049:14053   */\n      0x22\n        /* \"#utility.yul\":14046:14047   */\n      0x04\n        /* \"#utility.yul\":14039:14054   */\n      mstore\n        /* \"#utility.yul\":14073:14077   */\n      0x24\n        /* \"#utility.yul\":14070:14071   */\n      0x00\n        /* \"#utility.yul\":14063:14078   */\n      revert\n        /* \"#utility.yul\":14090:14410   */\n    tag_77:\n        /* \"#utility.yul\":14134:14140   */\n      0x00\n        /* \"#utility.yul\":14171:14172   */\n      0x02\n        /* \"#utility.yul\":14165:14169   */\n      dup3\n        /* \"#utility.yul\":14161:14173   */\n      div\n        /* \"#utility.yul\":14151:14173   */\n      swap1\n      pop\n        /* \"#utility.yul\":14218:14219   */\n      0x01\n        /* \"#utility.yul\":14212:14216   */\n      dup3\n        /* \"#utility.yul\":14208:14220   */\n      and\n        /* \"#utility.yul\":14239:14257   */\n      dup1\n        /* \"#utility.yul\":14229:14310   */\n      tag_343\n      jumpi\n        /* \"#utility.yul\":14295:14299   */\n      0x7f\n        /* \"#utility.yul\":14287:14293   */\n      dup3\n        /* \"#utility.yul\":14283:14300   */\n      and\n        /* \"#utility.yul\":14273:14300   */\n      swap2\n      pop\n        /* \"#utility.yul\":14229:14310   */\n    tag_343:\n        /* \"#utility.yul\":14357:14359   */\n      0x20\n        /* \"#utility.yul\":14349:14355   */\n      dup3\n        /* \"#utility.yul\":14346:14360   */\n      lt\n        /* \"#utility.yul\":14326:14344   */\n      dup2\n        /* \"#utility.yul\":14323:14361   */\n      sub\n        /* \"#utility.yul\":14320:14404   */\n      tag_344\n      jumpi\n        /* \"#utility.yul\":14376:14394   */\n      tag_345\n      tag_179\n      jump\t// in\n    tag_345:\n        /* \"#utility.yul\":14320:14404   */\n    tag_344:\n        /* \"#utility.yul\":14141:14410   */\n      pop\n        /* \"#utility.yul\":14090:14410   */\n      swap2\n      swap1\n      pop\n      jump\t// out\n        /* \"#utility.yul\":14416:14590   */\n    tag_180:\n        /* \"#utility.yul\":14556:14582   */\n      0x4e6f7420617574686f726973656420746f207665726966790000000000000000\n        /* \"#utility.yul\":14552:14553   */\n      0x00\n        /* \"#utility.yul\":14544:14550   */\n      dup3\n        /* \"#utility.yul\":14540:14554   */\n      add\n        /* \"#utility.yul\":14533:14583   */\n      mstore\n        /* \"#utility.yul\":14416:14590   */\n      pop\n      jump\t// out\n        /* \"#utility.yul\":14596:14962   */\n    tag_181:\n        /* \"#utility.yul\":14738:14741   */\n      0x00\n        /* \"#utility.yul\":14759:14826   */\n      tag_348\n        /* \"#utility.yul\":14823:14825   */\n      0x18\n        /* \"#utility.yul\":14818:14821   */\n      dup4\n        /* \"#utility.yul\":14759:14826   */\n      tag_147\n      jump\t// in\n    tag_348:\n        /* \"#utility.yul\":14752:14826   */\n      swap2\n      pop\n        /* \"#utility.yul\":14835:14928   */\n      tag_349\n        /* \"#utility.yul\":14924:14927   */\n      dup3\n        /* \"#utility.yul\":14835:14928   */\n      tag_180\n      jump\t// in\n    tag_349:\n        /* \"#utility.yul\":14953:14955   */\n      0x20\n        /* \"#utility.yul\":14948:14951   */\n      dup3\n        /* \"#utility.yul\":14944:14956   */\n      add\n        /* \"#utility.yul\":14937:14956   */\n      swap1\n      pop\n        /* \"#utility.yul\":14596:14962   */\n      swap2\n      swap1\n      pop\n      jump\t// out\n        /* \"#utility.yul\":14968:15387   */\n    tag_85:\n        /* \"#utility.yul\":15134:15138   */\n      0x00\n        /* \"#utility.yul\":15172:15174   */\n      0x20\n        /* \"#utility.yul\":15161:15170   */\n      dup3\n        /* \"#utility.yul\":15157:15175   */\n      add\n        /* \"#utility.yul\":15149:15175   */\n      swap1\n      pop\n        /* \"#utility.yul\":15221:15230   */\n      dup2\n        /* \"#utility.yul\":15215:15219   */\n      dup2\n        /* \"#utility.yul\":15211:15231   */\n      sub\n        /* \"#utility.yul\":15207:15208   */\n      0x00\n        /* \"#utility.yul\":15196:15205   */\n      dup4\n        /* \"#utility.yul\":15192:15209   */\n      add\n        /* \"#utility.yul\":15185:15232   */\n      mstore\n        /* \"#utility.yul\":15249:15380   */\n      tag_351\n        /* \"#utility.yul\":15375:15379   */\n      dup2\n        /* \"#utility.yul\":15249:15380   */\n      tag_181\n      jump\t// in\n    tag_351:\n        /* \"#utility.yul\":15241:15380   */\n      swap1\n      pop\n        /* \"#utility.yul\":14968:15387   */\n      swap2\n      swap1\n      pop\n      jump\t// out\n        /* \"#utility.yul\":15393:15725   */\n    tag_90:\n        /* \"#utility.yul\":15514:15518   */\n      0x00\n        /* \"#utility.yul\":15552:15554   */\n      0x40\n        /* \"#utility.yul\":15541:15550   */\n      dup3\n        /* \"#utility.yul\":15537:15555   */\n      add\n        /* \"#utility.yul\":15529:15555   */\n      swap1\n      pop\n        /* \"#utility.yul\":15565:15636   */\n      tag_353\n        /* \"#utility.yul\":15633:15634   */\n      0x00\n        /* \"#utility.yul\":15622:15631   */\n      dup4\n        /* \"#utility.yul\":15618:15635   */\n      add\n        /* \"#utility.yul\":15609:15615   */\n      dup6\n        /* \"#utility.yul\":15565:15636   */\n      tag_145\n      jump\t// in\n    tag_353:\n        /* \"#utility.yul\":15646:15718   */\n      tag_354\n        /* \"#utility.yul\":15714:15716   */\n      0x20\n        /* \"#utility.yul\":15703:15712   */\n      dup4\n        /* \"#utility.yul\":15699:15717   */\n      add\n        /* \"#utility.yul\":15690:15696   */\n      dup5\n        /* \"#utility.yul\":15646:15718   */\n      tag_144\n      jump\t// in\n    tag_354:\n        /* \"#utility.yul\":15393:15725   */\n      swap4\n      swap3\n      pop\n      pop\n      pop\n      jump\t// out\n        /* \"#utility.yul\":15731:15953   */\n    tag_100:\n        /* \"#utility.yul\":15824:15828   */\n      0x00\n        /* \"#utility.yul\":15862:15864   */\n      0x20\n        /* \"#utility.yul\":15851:15860   */\n      dup3\n        /* \"#utility.yul\":15847:15865   */\n      add\n        /* \"#utility.yul\":15839:15865   */\n      swap1\n      pop\n        /* \"#utility.yul\":15875:15946   */\n      tag_356\n        /* \"#utility.yul\":15943:15944   */\n      0x00\n        /* \"#utility.yul\":15932:15941   */\n      dup4\n        /* \"#utility.yul\":15928:15945   */\n      add\n        /* \"#utility.yul\":15919:15925   */\n      dup5\n        /* \"#utility.yul\":15875:15946   */\n      tag_145\n      jump\t// in\n    tag_356:\n        /* \"#utility.yul\":15731:15953   */\n      swap3\n      swap2\n      pop\n      pop\n      jump\t// out\n        /* \"#utility.yul\":15959:16102   */\n    tag_182:\n        /* \"#utility.yul\":16016:16021   */\n      0x00\n        /* \"#utility.yul\":16047:16053   */\n      dup2\n        /* \"#utility.yul\":16041:16054   */\n      mload\n        /* \"#utility.yul\":16032:16054   */\n      swap1\n      pop\n        /* \"#utility.yul\":16063:16096   */\n      tag_358\n        /* \"#utility.yul\":16090:16095   */\n      dup2\n        /* \"#utility.yul\":16063:16096   */\n      tag_139\n      jump\t// in\n    tag_358:\n        /* \"#utility.yul\":15959:16102   */\n      swap3\n      swap2\n      pop\n      pop\n      jump\t// out\n        /* \"#utility.yul\":16108:16459   */\n    tag_104:\n        /* \"#utility.yul\":16178:16184   */\n      0x00\n        /* \"#utility.yul\":16227:16229   */\n      0x20\n        /* \"#utility.yul\":16215:16224   */\n      dup3\n        /* \"#utility.yul\":16206:16213   */\n      dup5\n        /* \"#utility.yul\":16202:16225   */\n      sub\n        /* \"#utility.yul\":16198:16230   */\n      slt\n        /* \"#utility.yul\":16195:16314   */\n      iszero\n      tag_360\n      jumpi\n        /* \"#utility.yul\":16233:16312   */\n      tag_361\n      tag_135\n      jump\t// in\n    tag_361:\n        /* \"#utility.yul\":16195:16314   */\n    tag_360:\n        /* \"#utility.yul\":16353:16354   */\n      0x00\n        /* \"#utility.yul\":16378:16442   */\n      tag_362\n        /* \"#utility.yul\":16434:16441   */\n      dup5\n        /* \"#utility.yul\":16425:16431   */\n      dup3\n        /* \"#utility.yul\":16414:16423   */\n      dup6\n        /* \"#utility.yul\":16410:16432   */\n      add\n        /* \"#utility.yul\":16378:16442   */\n      tag_182\n      jump\t// in\n    tag_362:\n        /* \"#utility.yul\":16368:16442   */\n      swap2\n      pop\n        /* \"#utility.yul\":16324:16452   */\n      pop\n        /* \"#utility.yul\":16108:16459   */\n      swap3\n      swap2\n      pop\n      pop\n      jump\t// out\n        /* \"#utility.yul\":16465:16633   */\n    tag_183:\n        /* \"#utility.yul\":16605:16625   */\n      0x416c726561647920726567697374657265640000000000000000000000000000\n        /* \"#utility.yul\":16601:16602   */\n      0x00\n        /* \"#utility.yul\":16593:16599   */\n      dup3\n        /* \"#utility.yul\":16589:16603   */\n      add\n        /* \"#utility.yul\":16582:16626   */\n      mstore\n        /* \"#utility.yul\":16465:16633   */\n      pop\n      jump\t// out\n        /* \"#utility.yul\":16639:17005   */\n    tag_184:\n        /* \"#utility.yul\":16781:16784   */\n      0x00\n        /* \"#utility.yul\":16802:16869   */\n      tag_365\n        /* \"#utility.yul\":16866:16868   */\n      0x12\n        /* \"#utility.yul\":16861:16864   */\n      dup4\n        /* \"#utility.yul\":16802:16869   */\n      tag_147\n      jump\t// in\n    tag_365:\n        /* \"#utility.yul\":16795:16869   */\n      swap2\n      pop\n        /* \"#utility.yul\":16878:16971   */\n      tag_366\n        /* \"#utility.yul\":16967:16970   */\n      dup3\n        /* \"#utility.yul\":16878:16971   */\n      tag_183\n      jump\t// in\n    tag_366:\n        /* \"#utility.yul\":16996:16998   */\n      0x20\n        /* \"#utility.yul\":16991:16994   */\n      dup3\n        /* \"#utility.yul\":16987:16999   */\n      add\n        /* \"#utility.yul\":16980:16999   */\n      swap1\n      pop\n        /* \"#utility.yul\":16639:17005   */\n      swap2\n      swap1\n      pop\n      jump\t// out\n        /* \"#utility.yul\":17011:17430   */\n    tag_107:\n        /* \"#utility.yul\":17177:17181   */\n      0x00\n        /* \"#utility.yul\":17215:17217   */\n      0x20\n        /* \"#utility.yul\":17204:17213   */\n      dup3\n        /* \"#utility.yul\":17200:17218   */\n      add\n        /* \"#utility.yul\":17192:17218   */\n      swap1\n      pop\n        /* \"#utility.yul\":17264:17273   */\n      dup2\n        /* \"#utility.yul\":17258:17262   */\n      dup2\n        /* \"#utility.yul\":17254:17274   */\n      sub\n        /* \"#utility.yul\":17250:17251   */\n      0x00\n        /* \"#utility.yul\":17239:17248   */\n      dup4\n        /* \"#utility.yul\":17235:17252   */\n      add\n        /* \"#utility.yul\":17228:17275   */\n      mstore\n        /* \"#utility.yul\":17292:17423   */\n      tag_368\n        /* \"#utility.yul\":17418:17422   */\n      dup2\n        /* \"#utility.yul\":17292:17423   */\n      tag_184\n      jump\t// in\n    tag_368:\n        /* \"#utility.yul\":17284:17423   */\n      swap1\n      pop\n        /* \"#utility.yul\":17011:17430   */\n      swap2\n      swap1\n      pop\n      jump\t// out\n        /* \"#utility.yul\":17436:17577   */\n    tag_185:\n        /* \"#utility.yul\":17485:17489   */\n      0x00\n        /* \"#utility.yul\":17508:17511   */\n      dup2\n        /* \"#utility.yul\":17500:17511   */\n      swap1\n      pop\n        /* \"#utility.yul\":17531:17534   */\n      dup2\n        /* \"#utility.yul\":17528:17529   */\n      0x00\n        /* \"#utility.yul\":17521:17535   */\n      mstore\n        /* \"#utility.yul\":17565:17569   */\n      0x20\n        /* \"#utility.yul\":17562:17563   */\n      0x00\n        /* \"#utility.yul\":17552:17570   */\n      keccak256\n        /* \"#utility.yul\":17544:17570   */\n      swap1\n      pop\n        /* \"#utility.yul\":17436:17577   */\n      swap2\n      swap1\n      pop\n      jump\t// out\n        /* \"#utility.yul\":17583:17676   */\n    tag_186:\n        /* \"#utility.yul\":17620:17626   */\n      0x00\n        /* \"#utility.yul\":17667:17669   */\n      0x20\n        /* \"#utility.yul\":17662:17664   */\n      0x1f\n        /* \"#utility.yul\":17655:17660   */\n      dup4\n        /* \"#utility.yul\":17651:17665   */\n      add\n        /* \"#utility.yul\":17647:17670   */\n      div\n        /* \"#utility.yul\":17637:17670   */\n      swap1\n      pop\n        /* \"#utility.yul\":17583:17676   */\n      swap2\n      swap1\n      pop\n      jump\t// out\n        /* \"#utility.yul\":17682:17789   */\n    tag_187:\n        /* \"#utility.yul\":17726:17734   */\n      0x00\n        /* \"#utility.yul\":17776:17781   */\n      dup3\n        /* \"#utility.yul\":17770:17774   */\n      dup3\n        /* \"#utility.yul\":17766:17782   */\n      shl\n        /* \"#utility.yul\":17745:17782   */\n      swap1\n      pop\n        /* \"#utility.yul\":17682:17789   */\n      swap3\n      swap2\n      pop\n      pop\n      jump\t// out\n        /* \"#utility.yul\":17795:18188   */\n    tag_188:\n        /* \"#utility.yul\":17864:17870   */\n      0x00\n        /* \"#utility.yul\":17914:17915   */\n      0x08\n        /* \"#utility.yul\":17902:17912   */\n      dup4\n        /* \"#utility.yul\":17898:17916   */\n      mul\n        /* \"#utility.yul\":17937:18034   */\n      tag_373\n        /* \"#utility.yul\":17967:18033   */\n      0xffffffffffffffffffffffffffffffffffffffffffffffffffffffffffffffff\n        /* \"#utility.yul\":17956:17965   */\n      dup3\n        /* \"#utility.yul\":17937:18034   */\n      tag_187\n      jump\t// in\n    tag_373:\n        /* \"#utility.yul\":18055:18094   */\n      tag_374\n        /* \"#utility.yul\":18085:18093   */\n      dup7\n        /* \"#utility.yul\":18074:18083   */\n      dup4\n        /* \"#utility.yul\":18055:18094   */\n      tag_187\n      jump\t// in\n    tag_374:\n        /* \"#utility.yul\":18043:18094   */\n      swap6\n      pop\n        /* \"#utility.yul\":18127:18131   */\n      dup1\n        /* \"#utility.yul\":18123:18132   */\n      not\n        /* \"#utility.yul\":18116:18121   */\n      dup5\n        /* \"#utility.yul\":18112:18133   */\n      and\n        /* \"#utility.yul\":18103:18133   */\n      swap4\n      pop\n        /* \"#utility.yul\":18176:18180   */\n      dup1\n        /* \"#utility.yul\":18166:18174   */\n      dup7\n        /* \"#utility.yul\":18162:18181   */\n      and\n        /* \"#utility.yul\":18155:18160   */\n      dup5\n        /* \"#utility.yul\":18152:18182   */\n      or\n        /* \"#utility.yul\":18142:18182   */\n      swap3\n      pop\n        /* \"#utility.yul\":17871:18188   */\n      pop\n      pop\n        /* \"#utility.yul\":17795:18188   */\n      swap4\n      swap3\n      pop\n      pop\n      pop\n      jump\t// out\n        /* \"#utility.yul\":18194:18336   */\n    tag_189:\n        /* \"#utility.yul\":18244:18253   */\n      0x00\n        /* \"#utility.yul\":18277:18330   */\n      tag_376\n        /* \"#utility.yul\":18295:18329   */\n      tag_377\n        /* \"#utility.yul\":18304:18328   */\n      tag_378\n        /* \"#utility.yul\":18322:18327   */\n      dup5\n        /* \"#utility.yul\":18304:18328   */\n      tag_141\n      jump\t// in\n    tag_378:\n        /* \"#utility.yul\":18295:18329   */\n      tag_168\n      jump\t// in\n    tag_377:\n        /* \"#utility.yul\":18277:18330   */\n      tag_141\n      jump\t// in\n    tag_376:\n        /* \"#utility.yul\":18264:18330   */\n      swap1\n      pop\n        /* \"#utility.yul\":18194:18336   */\n      swap2\n      swap1\n      pop\n      jump\t// out\n        /* \"#utility.yul\":18342:18417   */\n    tag_190:\n        /* \"#utility.yul\":18385:18388   */\n      0x00\n        /* \"#utility.yul\":18406:18411   */\n      dup2\n        /* \"#utility.yul\":18399:18411   */\n      swap1\n      pop\n        /* \"#utility.yul\":18342:18417   */\n      swap2\n      swap1\n      pop\n      jump\t// out\n        /* \"#utility.yul\":18423:18692   */\n    tag_191:\n        /* \"#utility.yul\":18533:18572   */\n      tag_381\n        /* \"#utility.yul\":18564:18571   */\n      dup4\n        /* \"#utility.yul\":18533:18572   */\n      tag_189\n      jump\t// in\n    tag_381:\n        /* \"#utility.yul\":18594:18685   */\n      tag_382\n        /* \"#utility.yul\":18643:18684   */\n      tag_383\n        /* \"#utility.yul\":18667:18683   */\n      dup3\n        /* \"#utility.yul\":18643:18684   */\n      tag_190\n      jump\t// in\n    tag_383:\n        /* \"#utility.yul\":18635:18641   */\n      dup5\n        /* \"#utility.yul\":18628:18632   */\n      dup5\n        /* \"#utility.yul\":18622:18633   */\n      sload\n        /* \"#utility.yul\":18594:18685   */\n      tag_188\n      jump\t// in\n    tag_382:\n        /* \"#utility.yul\":18588:18592   */\n      dup3\n        /* \"#utility.yul\":18581:18686   */\n      sstore\n        /* \"#utility.yul\":18499:18692   */\n      pop\n        /* \"#utility.yul\":18423:18692   */\n      pop\n      pop\n      pop\n      jump\t// out\n        /* \"#utility.yul\":18698:18771   */\n    tag_192:\n        /* \"#utility.yul\":18743:18746   */\n      0x00\n        /* \"#utility.yul\":18698:18771   */\n      swap1\n      jump\t// out\n        /* \"#utility.yul\":18777:18966   */\n    tag_193:\n        /* \"#utility.yul\":18854:18886   */\n      tag_386\n      tag_192\n      jump\t// in\n    tag_386:\n        /* \"#utility.yul\":18895:18960   */\n      tag_387\n        /* \"#utility.yul\":18953:18959   */\n      dup2\n        /* \"#utility.yul\":18945:18951   */\n      dup5\n        /* \"#utility.yul\":18939:18943   */\n      dup5\n        /* \"#utility.yul\":18895:18960   */\n      tag_191\n      jump\t// in\n    tag_387:\n        /* \"#utility.yul\":18830:18966   */\n      pop\n        /* \"#utility.yul\":18777:18966   */\n      pop\n      pop\n      jump\t// out\n        /* \"#utility.yul\":18972:19158   */\n    tag_194:\n        /* \"#utility.yul\":19032:19152   */\n    tag_389:\n        /* \"#utility.yul\":19049:19052   */\n      dup2\n        /* \"#utility.yul\":19042:19047   */\n      dup2\n        /* \"#utility.yul\":19039:19053   */\n      lt\n        /* \"#utility.yul\":19032:19152   */\n      iszero\n      tag_391\n      jumpi\n        /* \"#utility.yul\":19103:19142   */\n      tag_392\n        /* \"#utility.yul\":19140:19141   */\n      0x00\n        /* \"#utility.yul\":19133:19138   */\n      dup3\n        /* \"#utility.yul\":19103:19142   */\n      tag_193\n      jump\t// in\n    tag_392:\n        /* \"#utility.yul\":19076:19077   */\n      0x01\n        /* \"#utility.yul\":19069:19074   */\n      dup2\n        /* \"#utility.yul\":19065:19078   */\n      add\n        /* \"#utility.yul\":19056:19078   */\n      swap1\n      pop\n        /* \"#utility.yul\":19032:19152   */\n      jump(tag_389)\n    tag_391:\n        /* \"#utility.yul\":18972:19158   */\n      pop\n      pop\n      jump\t// out\n        /* \"#utility.yul\":19164:19707   */\n    tag_195:\n        /* \"#utility.yul\":19265:19267   */\n      0x1f\n        /* \"#utility.yul\":19260:19263   */\n      dup3\n        /* \"#utility.yul\":19257:19268   */\n      gt\n        /* \"#utility.yul\":19254:19700   */\n      iszero\n      tag_394\n      jumpi\n        /* \"#utility.yul\":19299:19337   */\n      tag_395\n        /* \"#utility.yul\":19331:19336   */\n      dup2\n        /* \"#utility.yul\":19299:19337   */\n      tag_185\n      jump\t// in\n    tag_395:\n        /* \"#utility.yul\":19383:19412   */\n      tag_396\n        /* \"#utility.yul\":19401:19411   */\n      dup5\n        /* \"#utility.yul\":19383:19412   */\n      tag_186\n      jump\t// in\n    tag_396:\n        /* \"#utility.yul\":19373:19381   */\n      dup2\n        /* \"#utility.yul\":19369:19413   */\n      add\n        /* \"#utility.yul\":19566:19568   */\n      0x20\n        /* \"#utility.yul\":19554:19564   */\n      dup6\n        /* \"#utility.yul\":19551:19569   */\n      lt\n        /* \"#utility.yul\":19548:19597   */\n      iszero\n      tag_397\n      jumpi\n        /* \"#utility.yul\":19587:19595   */\n      dup2\n        /* \"#utility.yul\":19572:19595   */\n      swap1\n      pop\n        /* \"#utility.yul\":19548:19597   */\n    tag_397:\n        /* \"#utility.yul\":19610:19690   */\n      tag_398\n        /* \"#utility.yul\":19666:19688   */\n      tag_399\n        /* \"#utility.yul\":19684:19687   */\n      dup6\n        /* \"#utility.yul\":19666:19688   */\n      tag_186\n      jump\t// in\n    tag_399:\n        /* \"#utility.yul\":19656:19664   */\n      dup4\n        /* \"#utility.yul\":19652:19689   */\n      add\n        /* \"#utility.yul\":19639:19650   */\n      dup3\n        /* \"#utility.yul\":19610:19690   */\n      tag_194\n      jump\t// in\n    tag_398:\n        /* \"#utility.yul\":19269:19700   */\n      pop\n      pop\n        /* \"#utility.yul\":19254:19700   */\n    tag_394:\n        /* \"#utility.yul\":19164:19707   */\n      pop\n      pop\n      pop\n      jump\t// out\n        /* \"#utility.yul\":19713:19830   */\n    tag_196:\n        /* \"#utility.yul\":19767:19775   */\n      0x00\n        /* \"#utility.yul\":19817:19822   */\n      dup3\n        /* \"#utility.yul\":19811:19815   */\n      dup3\n        /* \"#utility.yul\":19807:19823   */\n      shr\n        /* \"#utility.yul\":19786:19823   */\n      swap1\n      pop\n        /* \"#utility.yul\":19713:19830   */\n      swap3\n      swap2\n      pop\n      pop\n      jump\t// out\n        /* \"#utility.yul\":19836:20005   */\n    tag_197:\n        /* \"#utility.yul\":19880:19886   */\n      0x00\n        /* \"#utility.yul\":19913:19964   */\n      tag_402\n        /* \"#utility.yul\":19961:19962   */\n      0x00\n        /* \"#utility.yul\":19957:19963   */\n      not\n        /* \"#utility.yul\":19949:19954   */\n      dup5\n        /* \"#utility.yul\":19946:19947   */\n      0x08\n        /* \"#utility.yul\":19942:19955   */\n      mul\n        /* \"#utility.yul\":19913:19964   */\n      tag_196\n      jump\t// in\n    tag_402:\n        /* \"#utility.yul\":19909:19965   */\n      not\n        /* \"#utility.yul\":19994:19998   */\n      dup1\n        /* \"#utility.yul\":19988:19992   */\n      dup4\n        /* \"#utility.yul\":19984:19999   */\n      and\n        /* \"#utility.yul\":19974:19999   */\n      swap2\n      pop\n        /* \"#utility.yul\":19887:20005   */\n      pop\n        /* \"#utility.yul\":19836:20005   */\n      swap3\n      swap2\n      pop\n      pop\n      jump\t// out\n        /* \"#utility.yul\":20010:20305   */\n    tag_198:\n        /* \"#utility.yul\":20086:20090   */\n      0x00\n        /* \"#utility.yul\":20232:20261   */\n      tag_404\n        /* \"#utility.yul\":20257:20260   */\n      dup4\n        /* \"#utility.yul\":20251:20255   */\n      dup4\n        /* \"#utility.yul\":20232:20261   */\n      tag_197\n      jump\t// in\n    tag_404:\n        /* \"#utility.yul\":20224:20261   */\n      swap2\n      pop\n        /* \"#utility.yul\":20294:20297   */\n      dup3\n        /* \"#utility.yul\":20291:20292   */\n      0x02\n        /* \"#utility.yul\":20287:20298   */\n      mul\n        /* \"#utility.yul\":20281:20285   */\n      dup3\n        /* \"#utility.yul\":20278:20299   */\n      or\n        /* \"#utility.yul\":20270:20299   */\n      swap1\n      pop\n        /* \"#utility.yul\":20010:20305   */\n      swap3\n      swap2\n      pop\n      pop\n      jump\t// out\n        /* \"#utility.yul\":20310:21705   */\n    tag_113:\n        /* \"#utility.yul\":20427:20464   */\n      tag_406\n        /* \"#utility.yul\":20460:20463   */\n      dup3\n        /* \"#utility.yul\":20427:20464   */\n      tag_146\n      jump\t// in\n    tag_406:\n        /* \"#utility.yul\":20529:20547   */\n      0xffffffffffffffff\n        /* \"#utility.yul\":20521:20527   */\n      dup2\n        /* \"#utility.yul\":20518:20548   */\n      gt\n        /* \"#utility.yul\":20515:20571   */\n      iszero\n      tag_407\n      jumpi\n        /* \"#utility.yul\":20551:20569   */\n      tag_408\n      tag_110\n      jump\t// in\n    tag_408:\n        /* \"#utility.yul\":20515:20571   */\n    tag_407:\n        /* \"#utility.yul\":20595:20633   */\n      tag_409\n        /* \"#utility.yul\":20627:20631   */\n      dup3\n        /* \"#utility.yul\":20621:20632   */\n      sload\n        /* \"#utility.yul\":20595:20633   */\n      tag_77\n      jump\t// in\n    tag_409:\n        /* \"#utility.yul\":20680:20747   */\n      tag_410\n        /* \"#utility.yul\":20740:20746   */\n      dup3\n        /* \"#utility.yul\":20732:20738   */\n      dup3\n        /* \"#utility.yul\":20726:20730   */\n      dup6\n        /* \"#utility.yul\":20680:20747   */\n      tag_195\n      jump\t// in\n    tag_410:\n        /* \"#utility.yul\":20774:20775   */\n      0x00\n        /* \"#utility.yul\":20798:20802   */\n      0x20\n        /* \"#utility.yul\":20785:20802   */\n      swap1\n      pop\n        /* \"#utility.yul\":20830:20832   */\n      0x1f\n        /* \"#utility.yul\":20822:20828   */\n      dup4\n        /* \"#utility.yul\":20819:20833   */\n      gt\n        /* \"#utility.yul\":20847:20848   */\n      0x01\n        /* \"#utility.yul\":20842:21460   */\n      dup2\n      eq\n      tag_412\n      jumpi\n        /* \"#utility.yul\":21504:21505   */\n      0x00\n        /* \"#utility.yul\":21521:21527   */\n      dup5\n        /* \"#utility.yul\":21518:21595   */\n      iszero\n      tag_413\n      jumpi\n        /* \"#utility.yul\":21570:21579   */\n      dup3\n        /* \"#utility.yul\":21565:21568   */\n      dup8\n        /* \"#utility.yul\":21561:21580   */\n      add\n        /* \"#utility.yul\":21555:21581   */\n      mload\n        /* \"#utility.yul\":21546:21581   */\n      swap1\n      pop\n        /* \"#utility.yul\":21518:21595   */\n    tag_413:\n        /* \"#utility.yul\":21621:21688   */\n      tag_414\n        /* \"#utility.yul\":21681:21687   */\n      dup6\n        /* \"#utility.yul\":21674:21679   */\n      dup3\n        /* \"#utility.yul\":21621:21688   */\n      tag_198\n      jump\t// in\n    tag_414:\n        /* \"#utility.yul\":21615:21619   */\n      dup7\n        /* \"#utility.yul\":21608:21689   */\n      sstore\n        /* \"#utility.yul\":21477:21699   */\n      pop\n        /* \"#utility.yul\":20812:21699   */\n      jump(tag_411)\n        /* \"#utility.yul\":20842:21460   */\n    tag_412:\n        /* \"#utility.yul\":20894:20898   */\n      0x1f\n        /* \"#utility.yul\":20890:20899   */\n      not\n        /* \"#utility.yul\":20882:20888   */\n      dup5\n        /* \"#utility.yul\":20878:20900   */\n      and\n        /* \"#utility.yul\":20928:20965   */\n      tag_415\n        /* \"#utility.yul\":20960:20964   */\n      dup7\n        /* \"#utility.yul\":20928:20965   */\n      tag_185\n      jump\t// in\n    tag_415:\n        /* \"#utility.yul\":20987:20988   */\n      0x00\n        /* \"#utility.yul\":21001:21209   */\n    tag_416:\n        /* \"#utility.yul\":21015:21022   */\n      dup3\n        /* \"#utility.yul\":21012:21013   */\n      dup2\n        /* \"#utility.yul\":21009:21023   */\n      lt\n        /* \"#utility.yul\":21001:21209   */\n      iszero\n      tag_418\n      jumpi\n        /* \"#utility.yul\":21094:21103   */\n      dup5\n        /* \"#utility.yul\":21089:21092   */\n      dup10\n        /* \"#utility.yul\":21085:21104   */\n      add\n        /* \"#utility.yul\":21079:21105   */\n      mload\n        /* \"#utility.yul\":21071:21077   */\n      dup3\n        /* \"#utility.yul\":21064:21106   */\n      sstore\n        /* \"#utility.yul\":21145:21146   */\n      0x01\n        /* \"#utility.yul\":21137:21143   */\n      dup3\n        /* \"#utility.yul\":21133:21147   */\n      add\n        /* \"#utility.yul\":21123:21147   */\n      swap2\n      pop\n        /* \"#utility.yul\":21192:21194   */\n      0x20\n        /* \"#utility.yul\":21181:21190   */\n      dup6\n        /* \"#utility.yul\":21177:21195   */\n      add\n        /* \"#utility.yul\":21164:21195   */\n      swap5\n      pop\n        /* \"#utility.yul\":21038:21042   */\n      0x20\n        /* \"#utility.yul\":21035:21036   */\n      dup2\n        /* \"#utility.yul\":21031:21043   */\n      add\n        /* \"#utility.yul\":21026:21043   */\n      swap1\n      pop\n        /* \"#utility.yul\":21001:21209   */\n      jump(tag_416)\n    tag_418:\n        /* \"#utility.yul\":21237:21243   */\n      dup7\n        /* \"#utility.yul\":21228:21235   */\n      dup4\n        /* \"#utility.yul\":21225:21244   */\n      lt\n        /* \"#utility.yul\":21222:21401   */\n      iszero\n      tag_419\n      jumpi\n        /* \"#utility.yul\":21295:21304   */\n      dup5\n        /* \"#utility.yul\":21290:21293   */\n      dup10\n        /* \"#utility.yul\":21286:21305   */\n      add\n        /* \"#utility.yul\":21280:21306   */\n      mload\n        /* \"#utility.yul\":21338:21386   */\n      tag_420\n        /* \"#utility.yul\":21380:21384   */\n      0x1f\n        /* \"#utility.yul\":21372:21378   */\n      dup10\n        /* \"#utility.yul\":21368:21385   */\n      and\n        /* \"#utility.yul\":21357:21366   */\n      dup3\n        /* \"#utility.yul\":21338:21386   */\n      tag_197\n      jump\t// in\n    tag_420:\n        /* \"#utility.yul\":21330:21336   */\n      dup4\n        /* \"#utility.yul\":21323:21387   */\n      sstore\n        /* \"#utility.yul\":21245:21401   */\n      pop\n        /* \"#utility.yul\":21222:21401   */\n    tag_419:\n        /* \"#utility.yul\":21447:21448   */\n      0x01\n        /* \"#utility.yul\":21443:21444   */\n      0x02\n        /* \"#utility.yul\":21435:21441   */\n      dup9\n        /* \"#utility.yul\":21431:21445   */\n      mul\n        /* \"#utility.yul\":21427:21449   */\n      add\n        /* \"#utility.yul\":21421:21425   */\n      dup9\n        /* \"#utility.yul\":21414:21450   */\n      sstore\n        /* \"#utility.yul\":20849:21460   */\n      pop\n      pop\n      pop\n        /* \"#utility.yul\":20812:21699   */\n    tag_411:\n      pop\n        /* \"#utility.yul\":20402:21705   */\n      pop\n      pop\n      pop\n        /* \"#utility.yul\":20310:21705   */\n      pop\n      pop\n      jump\t// out\n        /* \"#utility.yul\":21711:21891   */\n    tag_118:\n        /* \"#utility.yul\":21759:21836   */\n      0x4e487b7100000000000000000000000000000000000000000000000000000000\n        /* \"#utility.yul\":21756:21757   */\n      0x00\n        /* \"#utility.yul\":21749:21837   */\n      mstore\n        /* \"#utility.yul\":21856:21860   */\n      0x32\n        /* \"#utility.yul\":21853:21854   */\n      0x04\n        /* \"#utility.yul\":21846:21861   */\n      mstore\n        /* \"#utility.yul\":21880:21884   */\n      0x24\n        /* \"#utility.yul\":21877:21878   */\n      0x00\n        /* \"#utility.yul\":21870:21885   */\n      revert\n        /* \"#utility.yul\":21897:22430   */\n    tag_121:\n        /* \"#utility.yul\":22066:22070   */\n      0x00\n        /* \"#utility.yul\":22104:22106   */\n      0x60\n        /* \"#utility.yul\":22093:22102   */\n      dup3\n        /* \"#utility.yul\":22089:22107   */\n      add\n        /* \"#utility.yul\":22081:22107   */\n      swap1\n      pop\n        /* \"#utility.yul\":22117:22188   */\n      tag_423\n        /* \"#utility.yul\":22185:22186   */\n      0x00\n        /* \"#utility.yul\":22174:22183   */\n      dup4\n        /* \"#utility.yul\":22170:22187   */\n      add\n        /* \"#utility.yul\":22161:22167   */\n      dup7\n        /* \"#utility.yul\":22117:22188   */\n      tag_145\n      jump\t// in\n    tag_423:\n        /* \"#utility.yul\":22235:22244   */\n      dup2\n        /* \"#utility.yul\":22229:22233   */\n      dup2\n        /* \"#utility.yul\":22225:22245   */\n      sub\n        /* \"#utility.yul\":22220:22222   */\n      0x20\n        /* \"#utility.yul\":22209:22218   */\n      dup4\n        /* \"#utility.yul\":22205:22223   */\n      add\n        /* \"#utility.yul\":22198:22246   */\n      mstore\n        /* \"#utility.yul\":22263:22341   */\n      tag_424\n        /* \"#utility.yul\":22336:22340   */\n      dup2\n        /* \"#utility.yul\":22327:22333   */\n      dup6\n        /* \"#utility.yul\":22263:22341   */\n      tag_150\n      jump\t// in\n    tag_424:\n        /* \"#utility.yul\":22255:22341   */\n      swap1\n      pop\n        /* \"#utility.yul\":22351:22423   */\n      tag_425\n        /* \"#utility.yul\":22419:22421   */\n      0x40\n        /* \"#utility.yul\":22408:22417   */\n      dup4\n        /* \"#utility.yul\":22404:22422   */\n      add\n        /* \"#utility.yul\":22395:22401   */\n      dup5\n        /* \"#utility.yul\":22351:22423   */\n      tag_144\n      jump\t// in\n    tag_425:\n        /* \"#utility.yul\":21897:22430   */\n      swap5\n      swap4\n      pop\n      pop\n      pop\n      pop\n      jump\t// out\n\n    auxdata: 0xa26469706673582212209ed434184ba837b96811c5c9c955e49a90e63e53e9c5c1b2f23266697432d79664736f6c634300081a0033\n}\n",
				"bytecode": {
					"linkReferences": {},
					"object": "608060405234801561000f575f80fd5b50604051611a38380380611a3883398181016040528101906100319190610114565b3360015f6101000a81548173ffffffffffffffffffffffffffffffffffffffff021916908373ffffffffffffffffffffffffffffffffffffffff160217905550805f806101000a81548173ffffffffffffffffffffffffffffffffffffffff021916908373ffffffffffffffffffffffffffffffffffffffff1602179055505061013f565b5f80fd5b5f73ffffffffffffffffffffffffffffffffffffffff82169050919050565b5f6100e3826100ba565b9050919050565b6100f3816100d9565b81146100fd575f80fd5b50565b5f8151905061010e816100ea565b92915050565b5f60208284031215610129576101286100b6565b5b5f61013684828501610100565b91505092915050565b6118ec8061014c5f395ff3fe608060405234801561000f575f80fd5b50600436106100a7575f3560e01c80639000b3d61161006f5780639000b3d614610150578063a00fd3c81461016c578063c8691b2a14610188578063d0b6b6db146101b8578063daf6ca30146101d6578063f9281222146101f4576100a7565b80630593d244146100ab57806329507f73146100c757806374754282146100e35780637acc0b20146101015780638753367f14610134575b5f80fd5b6100c560048036038101906100c09190610e15565b610224565b005b6100e160048036038101906100dc9190610e73565b6102f6565b005b6100eb610517565b6040516100f89190610ec0565b60405180910390f35b61011b60048036038101906101169190610ed9565b61053c565b60405161012b9493929190610f9d565b60405180910390f35b61014e60048036038101906101499190610ed9565b61061a565b005b61016a60048036038101906101659190610e15565b610760565b005b61018660048036038101906101819190611113565b610847565b005b6101a2600480360381019061019d9190610ed9565b610baf565b6040516101af9190611224565b60405180910390f35b6101c0610ca3565b6040516101cd919061129f565b60405180910390f35b6101de610cc6565b6040516101eb9190610ec0565b60405180910390f35b61020e60048036038101906102099190610e15565b610ceb565b60405161021b91906112b8565b60405180910390f35b60015f9054906101000a900473ffffffffffffffffffffffffffffffffffffffff1673ffffffffffffffffffffffffffffffffffffffff163373ffffffffffffffffffffffffffffffffffffffff16146102b3576040517f08c379a00000000000000000000000000000000000000000000000000000000081526004016102aa9061131b565b60405180910390fd5b8060025f6101000a81548173ffffffffffffffffffffffffffffffffffffffff021916908373ffffffffffffffffffffffffffffffffffffffff16021790555050565b60025f9054906101000a900473ffffffffffffffffffffffffffffffffffffffff1673ffffffffffffffffffffffffffffffffffffffff163373ffffffffffffffffffffffffffffffffffffffff1614610385576040517f08c379a000000000000000000000000000000000000000000000000000000000815260040161037c90611383565b60405180910390fd5b5f60035f8481526020019081526020015f205f0154036103da576040517f08c379a00000000000000000000000000000000000000000000000000000000081526004016103d1906113eb565b60405180910390fd5b5f60035f8481526020019081526020015f2060020160019054906101000a900473ffffffffffffffffffffffffffffffffffffffff1690508160035f8581526020019081526020015f2060020160016101000a81548173ffffffffffffffffffffffffffffffffffffffff021916908373ffffffffffffffffffffffffffffffffffffffff16021790555060035f8481526020019081526020015f2060030182908060018154018082558091505060019003905f5260205f20015f9091909190916101000a81548173ffffffffffffffffffffffffffffffffffffffff021916908373ffffffffffffffffffffffffffffffffffffffff1602179055507f16b85f49bf01212961345d3016c9a531894accf62eb7680f2045d79185cc0ec083828460405161050a93929190611409565b60405180910390a1505050565b60015f9054906101000a900473ffffffffffffffffffffffffffffffffffffffff1681565b6003602052805f5260405f205f91509050805f0154908060010180546105619061146b565b80601f016020809104026020016040519081016040528092919081815260200182805461058d9061146b565b80156105d85780601f106105af576101008083540402835291602001916105d8565b820191905f5260205f20905b8154815290600101906020018083116105bb57829003601f168201915b505050505090806002015f9054906101000a900460ff16908060020160019054906101000a900473ffffffffffffffffffffffffffffffffffffffff16905084565b60045f3373ffffffffffffffffffffffffffffffffffffffff1673ffffffffffffffffffffffffffffffffffffffff1681526020019081526020015f205f9054906101000a900460ff166106a3576040517f08c379a000000000000000000000000000000000000000000000000000000000815260040161069a906114e5565b60405180910390fd5b5f60035f8381526020019081526020015f205f0154036106f8576040517f08c379a00000000000000000000000000000000000000000000000000000000081526004016106ef906113eb565b60405180910390fd5b600160035f8381526020019081526020015f206002015f6101000a81548160ff0219169083151502179055507fab60911bebc6d3ab48620594e409545834da76f4995297ebc48ca5589f25437b8133604051610755929190611503565b60405180910390a150565b60015f9054906101000a900473ffffffffffffffffffffffffffffffffffffffff1673ffffffffffffffffffffffffffffffffffffffff163373ffffffffffffffffffffffffffffffffffffffff16146107ef576040517f08c379a00000000000000000000000000000000000000000000000000000000081526004016107e69061131b565b60405180910390fd5b600160045f8373ffffffffffffffffffffffffffffffffffffffff1673ffffffffffffffffffffffffffffffffffffffff1681526020019081526020015f205f6101000a81548160ff02191690831515021790555050565b60015f9054906101000a900473ffffffffffffffffffffffffffffffffffffffff1673ffffffffffffffffffffffffffffffffffffffff163373ffffffffffffffffffffffffffffffffffffffff16146108d6576040517f08c379a00000000000000000000000000000000000000000000000000000000081526004016108cd9061131b565b60405180910390fd5b5f805f9054906101000a900473ffffffffffffffffffffffffffffffffffffffff1673ffffffffffffffffffffffffffffffffffffffff16636352211e846040518263ffffffff1660e01b8152600401610930919061152a565b602060405180830381865afa15801561094b573d5f803e3d5ffd5b505050506040513d601f19601f8201168201806040525081019061096f9190611557565b90505f60035f8581526020019081526020015f205f0154146109c6576040517f08c379a00000000000000000000000000000000000000000000000000000000081526004016109bd906115cc565b60405180910390fd5b6040518060a001604052808481526020018381526020015f151581526020018273ffffffffffffffffffffffffffffffffffffffff168152602001600167ffffffffffffffff811115610a1c57610a1b610fef565b5b604051908082528060200260200182016040528015610a4a5781602001602082028036833780820191505090505b5081525060035f8581526020019081526020015f205f820151815f01556020820151816001019081610a7c919061177e565b506040820151816002015f6101000a81548160ff02191690831515021790555060608201518160020160016101000a81548173ffffffffffffffffffffffffffffffffffffffff021916908373ffffffffffffffffffffffffffffffffffffffff1602179055506080820151816003019080519060200190610aff929190610d08565b509050508060035f8581526020019081526020015f206003015f81548110610b2a57610b2961184d565b5b905f5260205f20015f6101000a81548173ffffffffffffffffffffffffffffffffffffffff021916908373ffffffffffffffffffffffffffffffffffffffff1602179055507fd810998a0248808a33b20218e71759cb2ec1a182b398350ad606d742587c012c838383604051610ba29392919061187a565b60405180910390a1505050565b60605f60035f8481526020019081526020015f205f015403610c06576040517f08c379a0000000000000000000000000000000000000000000000000000000008152600401610bfd906113eb565b60405180910390fd5b60035f8381526020019081526020015f20600301805480602002602001604051908101604052809291908181526020018280548015610c9757602002820191905f5260205f20905b815f9054906101000a900473ffffffffffffffffffffffffffffffffffffffff1673ffffffffffffffffffffffffffffffffffffffff1681526020019060010190808311610c4e575b50505050509050919050565b5f8054906101000a900473ffffffffffffffffffffffffffffffffffffffff1681565b60025f9054906101000a900473ffffffffffffffffffffffffffffffffffffffff1681565b6004602052805f5260405f205f915054906101000a900460ff1681565b828054828255905f5260205f20908101928215610d7e579160200282015b82811115610d7d578251825f6101000a81548173ffffffffffffffffffffffffffffffffffffffff021916908373ffffffffffffffffffffffffffffffffffffffff16021790555091602001919060010190610d26565b5b509050610d8b9190610d8f565b5090565b5b80821115610da6575f815f905550600101610d90565b5090565b5f604051905090565b5f80fd5b5f80fd5b5f73ffffffffffffffffffffffffffffffffffffffff82169050919050565b5f610de482610dbb565b9050919050565b610df481610dda565b8114610dfe575f80fd5b50565b5f81359050610e0f81610deb565b92915050565b5f60208284031215610e2a57610e29610db3565b5b5f610e3784828501610e01565b91505092915050565b5f819050919050565b610e5281610e40565b8114610e5c575f80fd5b50565b5f81359050610e6d81610e49565b92915050565b5f8060408385031215610e8957610e88610db3565b5b5f610e9685828601610e5f565b9250506020610ea785828601610e01565b9150509250929050565b610eba81610dda565b82525050565b5f602082019050610ed35f830184610eb1565b92915050565b5f60208284031215610eee57610eed610db3565b5b5f610efb84828501610e5f565b91505092915050565b610f0d81610e40565b82525050565b5f81519050919050565b5f82825260208201905092915050565b8281835e5f83830152505050565b5f601f19601f8301169050919050565b5f610f5582610f13565b610f5f8185610f1d565b9350610f6f818560208601610f2d565b610f7881610f3b565b840191505092915050565b5f8115159050919050565b610f9781610f83565b82525050565b5f608082019050610fb05f830187610f04565b8181036020830152610fc28186610f4b565b9050610fd16040830185610f8e565b610fde6060830184610eb1565b95945050505050565b5f80fd5b5f80fd5b7f4e487b71000000000000000000000000000000000000000000000000000000005f52604160045260245ffd5b61102582610f3b565b810181811067ffffffffffffffff8211171561104457611043610fef565b5b80604052505050565b5f611056610daa565b9050611062828261101c565b919050565b5f67ffffffffffffffff82111561108157611080610fef565b5b61108a82610f3b565b9050602081019050919050565b828183375f83830152505050565b5f6110b76110b284611067565b61104d565b9050828152602081018484840111156110d3576110d2610feb565b5b6110de848285611097565b509392505050565b5f82601f8301126110fa576110f9610fe7565b5b813561110a8482602086016110a5565b91505092915050565b5f806040838503121561112957611128610db3565b5b5f61113685828601610e5f565b925050602083013567ffffffffffffffff81111561115757611156610db7565b5b611163858286016110e6565b9150509250929050565b5f81519050919050565b5f82825260208201905092915050565b5f819050602082019050919050565b61119f81610dda565b82525050565b5f6111b08383611196565b60208301905092915050565b5f602082019050919050565b5f6111d28261116d565b6111dc8185611177565b93506111e783611187565b805f5b838110156112175781516111fe88826111a5565b9750611209836111bc565b9250506001810190506111ea565b5085935050505092915050565b5f6020820190508181035f83015261123c81846111c8565b905092915050565b5f819050919050565b5f61126761126261125d84610dbb565b611244565b610dbb565b9050919050565b5f6112788261124d565b9050919050565b5f6112898261126e565b9050919050565b6112998161127f565b82525050565b5f6020820190506112b25f830184611290565b92915050565b5f6020820190506112cb5f830184610f8e565b92915050565b7f4f6e6c79206d616e7566616374757265722063616e2063616c6c0000000000005f82015250565b5f611305601a83610f1d565b9150611310826112d1565b602082019050919050565b5f6020820190508181035f830152611332816112f9565b9050919050565b7f4f6e6c792053616c65436f6e74726163742063616e2063616c6c2074686973005f82015250565b5f61136d601f83610f1d565b915061137882611339565b602082019050919050565b5f6020820190508181035f83015261139a81611361565b9050919050565b7f50726f64756374206e6f742072656769737465726564000000000000000000005f82015250565b5f6113d5601683610f1d565b91506113e0826113a1565b602082019050919050565b5f6020820190508181035f830152611402816113c9565b9050919050565b5f60608201905061141c5f830186610f04565b6114296020830185610eb1565b6114366040830184610eb1565b949350505050565b7f4e487b71000000000000000000000000000000000000000000000000000000005f52602260045260245ffd5b5f600282049050600182168061148257607f821691505b6020821081036114955761149461143e565b5b50919050565b7f4e6f7420617574686f726973656420746f2076657269667900000000000000005f82015250565b5f6114cf601883610f1d565b91506114da8261149b565b602082019050919050565b5f6020820190508181035f8301526114fc816114c3565b9050919050565b5f6040820190506115165f830185610f04565b6115236020830184610eb1565b9392505050565b5f60208201905061153d5f830184610f04565b92915050565b5f8151905061155181610deb565b92915050565b5f6020828403121561156c5761156b610db3565b5b5f61157984828501611543565b91505092915050565b7f416c7265616479207265676973746572656400000000000000000000000000005f82015250565b5f6115b6601283610f1d565b91506115c182611582565b602082019050919050565b5f6020820190508181035f8301526115e3816115aa565b9050919050565b5f819050815f5260205f209050919050565b5f6020601f8301049050919050565b5f82821b905092915050565b5f600883026116467fffffffffffffffffffffffffffffffffffffffffffffffffffffffffffffffff8261160b565b611650868361160b565b95508019841693508086168417925050509392505050565b5f61168261167d61167884610e40565b611244565b610e40565b9050919050565b5f819050919050565b61169b83611668565b6116af6116a782611689565b848454611617565b825550505050565b5f90565b6116c36116b7565b6116ce818484611692565b505050565b5b818110156116f1576116e65f826116bb565b6001810190506116d4565b5050565b601f82111561173657611707816115ea565b611710846115fc565b8101602085101561171f578190505b61173361172b856115fc565b8301826116d3565b50505b505050565b5f82821c905092915050565b5f6117565f198460080261173b565b1980831691505092915050565b5f61176e8383611747565b9150826002028217905092915050565b61178782610f13565b67ffffffffffffffff8111156117a05761179f610fef565b5b6117aa825461146b565b6117b58282856116f5565b5f60209050601f8311600181146117e6575f84156117d4578287015190505b6117de8582611763565b865550611845565b601f1984166117f4866115ea565b5f5b8281101561181b578489015182556001820191506020850194506020810190506117f6565b868310156118385784890151611834601f891682611747565b8355505b6001600288020188555050505b505050505050565b7f4e487b71000000000000000000000000000000000000000000000000000000005f52603260045260245ffd5b5f60608201905061188d5f830186610f04565b818103602083015261189f8185610f4b565b90506118ae6040830184610eb1565b94935050505056fea26469706673582212209ed434184ba837b96811c5c9c955e49a90e63e53e9c5c1b2f23266697432d79664736f6c634300081a0033",
					"opcodes": "PUSH1 0x80 PUSH1 0x40 MSTORE CALLVALUE DUP1 ISZERO PUSH2 0xF JUMPI PUSH0 DUP1 REVERT JUMPDEST POP PUSH1 0x40 MLOAD PUSH2 0x1A38 CODESIZE SUB DUP1 PUSH2 0x1A38 DUP4 CODECOPY DUP2 DUP2 ADD PUSH1 0x40 MSTORE DUP2 ADD SWAP1 PUSH2 0x31 SWAP2 SWAP1 PUSH2 0x114 JUMP JUMPDEST CALLER PUSH1 0x1 PUSH0 PUSH2 0x100 EXP DUP2 SLOAD DUP2 PUSH20 0xFFFFFFFFFFFFFFFFFFFFFFFFFFFFFFFFFFFFFFFF MUL NOT AND SWAP1 DUP4 PUSH20 0xFFFFFFFFFFFFFFFFFFFFFFFFFFFFFFFFFFFFFFFF AND MUL OR SWAP1 SSTORE POP DUP1 PUSH0 DUP1 PUSH2 0x100 EXP DUP2 SLOAD DUP2 PUSH20 0xFFFFFFFFFFFFFFFFFFFFFFFFFFFFFFFFFFFFFFFF MUL NOT AND SWAP1 DUP4 PUSH20 0xFFFFFFFFFFFFFFFFFFFFFFFFFFFFFFFFFFFFFFFF AND MUL OR SWAP1 SSTORE POP POP PUSH2 0x13F JUMP JUMPDEST PUSH0 DUP1 REVERT JUMPDEST PUSH0 PUSH20 0xFFFFFFFFFFFFFFFFFFFFFFFFFFFFFFFFFFFFFFFF DUP3 AND SWAP1 POP SWAP2 SWAP1 POP JUMP JUMPDEST PUSH0 PUSH2 0xE3 DUP3 PUSH2 0xBA JUMP JUMPDEST SWAP1 POP SWAP2 SWAP1 POP JUMP JUMPDEST PUSH2 0xF3 DUP2 PUSH2 0xD9 JUMP JUMPDEST DUP2 EQ PUSH2 0xFD JUMPI PUSH0 DUP1 REVERT JUMPDEST POP JUMP JUMPDEST PUSH0 DUP2 MLOAD SWAP1 POP PUSH2 0x10E DUP2 PUSH2 0xEA JUMP JUMPDEST SWAP3 SWAP2 POP POP JUMP JUMPDEST PUSH0 PUSH1 0x20 DUP3 DUP5 SUB SLT ISZERO PUSH2 0x129 JUMPI PUSH2 0x128 PUSH2 0xB6 JUMP JUMPDEST JUMPDEST PUSH0 PUSH2 0x136 DUP5 DUP3 DUP6 ADD PUSH2 0x100 JUMP JUMPDEST SWAP2 POP POP SWAP3 SWAP2 POP POP JUMP JUMPDEST PUSH2 0x18EC DUP1 PUSH2 0x14C PUSH0 CODECOPY PUSH0 RETURN INVALID PUSH1 0x80 PUSH1 0x40 MSTORE CALLVALUE DUP1 ISZERO PUSH2 0xF JUMPI PUSH0 DUP1 REVERT JUMPDEST POP PUSH1 0x4 CALLDATASIZE LT PUSH2 0xA7 JUMPI PUSH0 CALLDATALOAD PUSH1 0xE0 SHR DUP1 PUSH4 0x9000B3D6 GT PUSH2 0x6F JUMPI DUP1 PUSH4 0x9000B3D6 EQ PUSH2 0x150 JUMPI DUP1 PUSH4 0xA00FD3C8 EQ PUSH2 0x16C JUMPI DUP1 PUSH4 0xC8691B2A EQ PUSH2 0x188 JUMPI DUP1 PUSH4 0xD0B6B6DB EQ PUSH2 0x1B8 JUMPI DUP1 PUSH4 0xDAF6CA30 EQ PUSH2 0x1D6 JUMPI DUP1 PUSH4 0xF9281222 EQ PUSH2 0x1F4 JUMPI PUSH2 0xA7 JUMP JUMPDEST DUP1 PUSH4 0x593D244 EQ PUSH2 0xAB JUMPI DUP1 PUSH4 0x29507F73 EQ PUSH2 0xC7 JUMPI DUP1 PUSH4 0x74754282 EQ PUSH2 0xE3 JUMPI DUP1 PUSH4 0x7ACC0B20 EQ PUSH2 0x101 JUMPI DUP1 PUSH4 0x8753367F EQ PUSH2 0x134 JUMPI JUMPDEST PUSH0 DUP1 REVERT JUMPDEST PUSH2 0xC5 PUSH1 0x4 DUP1 CALLDATASIZE SUB DUP2 ADD SWAP1 PUSH2 0xC0 SWAP2 SWAP1 PUSH2 0xE15 JUMP JUMPDEST PUSH2 0x224 JUMP JUMPDEST STOP JUMPDEST PUSH2 0xE1 PUSH1 0x4 DUP1 CALLDATASIZE SUB DUP2 ADD SWAP1 PUSH2 0xDC SWAP2 SWAP1 PUSH2 0xE73 JUMP JUMPDEST PUSH2 0x2F6 JUMP JUMPDEST STOP JUMPDEST PUSH2 0xEB PUSH2 0x517 JUMP JUMPDEST PUSH1 0x40 MLOAD PUSH2 0xF8 SWAP2 SWAP1 PUSH2 0xEC0 JUMP JUMPDEST PUSH1 0x40 MLOAD DUP1 SWAP2 SUB SWAP1 RETURN JUMPDEST PUSH2 0x11B PUSH1 0x4 DUP1 CALLDATASIZE SUB DUP2 ADD SWAP1 PUSH2 0x116 SWAP2 SWAP1 PUSH2 0xED9 JUMP JUMPDEST PUSH2 0x53C JUMP JUMPDEST PUSH1 0x40 MLOAD PUSH2 0x12B SWAP5 SWAP4 SWAP3 SWAP2 SWAP1 PUSH2 0xF9D JUMP JUMPDEST PUSH1 0x40 MLOAD DUP1 SWAP2 SUB SWAP1 RETURN JUMPDEST PUSH2 0x14E PUSH1 0x4 DUP1 CALLDATASIZE SUB DUP2 ADD SWAP1 PUSH2 0x149 SWAP2 SWAP1 PUSH2 0xED9 JUMP JUMPDEST PUSH2 0x61A JUMP JUMPDEST STOP JUMPDEST PUSH2 0x16A PUSH1 0x4 DUP1 CALLDATASIZE SUB DUP2 ADD SWAP1 PUSH2 0x165 SWAP2 SWAP1 PUSH2 0xE15 JUMP JUMPDEST PUSH2 0x760 JUMP JUMPDEST STOP JUMPDEST PUSH2 0x186 PUSH1 0x4 DUP1 CALLDATASIZE SUB DUP2 ADD SWAP1 PUSH2 0x181 SWAP2 SWAP1 PUSH2 0x1113 JUMP JUMPDEST PUSH2 0x847 JUMP JUMPDEST STOP JUMPDEST PUSH2 0x1A2 PUSH1 0x4 DUP1 CALLDATASIZE SUB DUP2 ADD SWAP1 PUSH2 0x19D SWAP2 SWAP1 PUSH2 0xED9 JUMP JUMPDEST PUSH2 0xBAF JUMP JUMPDEST PUSH1 0x40 MLOAD PUSH2 0x1AF SWAP2 SWAP1 PUSH2 0x1224 JUMP JUMPDEST PUSH1 0x40 MLOAD DUP1 SWAP2 SUB SWAP1 RETURN JUMPDEST PUSH2 0x1C0 PUSH2 0xCA3 JUMP JUMPDEST PUSH1 0x40 MLOAD PUSH2 0x1CD SWAP2 SWAP1 PUSH2 0x129F JUMP JUMPDEST PUSH1 0x40 MLOAD DUP1 SWAP2 SUB SWAP1 RETURN JUMPDEST PUSH2 0x1DE PUSH2 0xCC6 JUMP JUMPDEST PUSH1 0x40 MLOAD PUSH2 0x1EB SWAP2 SWAP1 PUSH2 0xEC0 JUMP JUMPDEST PUSH1 0x40 MLOAD DUP1 SWAP2 SUB SWAP1 RETURN JUMPDEST PUSH2 0x20E PUSH1 0x4 DUP1 CALLDATASIZE SUB DUP2 ADD SWAP1 PUSH2 0x209 SWAP2 SWAP1 PUSH2 0xE15 JUMP JUMPDEST PUSH2 0xCEB JUMP JUMPDEST PUSH1 0x40 MLOAD PUSH2 0x21B SWAP2 SWAP1 PUSH2 0x12B8 JUMP JUMPDEST PUSH1 0x40 MLOAD DUP1 SWAP2 SUB SWAP1 RETURN JUMPDEST PUSH1 0x1 PUSH0 SWAP1 SLOAD SWAP1 PUSH2 0x100 EXP SWAP1 DIV PUSH20 0xFFFFFFFFFFFFFFFFFFFFFFFFFFFFFFFFFFFFFFFF AND PUSH20 0xFFFFFFFFFFFFFFFFFFFFFFFFFFFFFFFFFFFFFFFF AND CALLER PUSH20 0xFFFFFFFFFFFFFFFFFFFFFFFFFFFFFFFFFFFFFFFF AND EQ PUSH2 0x2B3 JUMPI PUSH1 0x40 MLOAD PUSH32 0x8C379A000000000000000000000000000000000000000000000000000000000 DUP2 MSTORE PUSH1 0x4 ADD PUSH2 0x2AA SWAP1 PUSH2 0x131B JUMP JUMPDEST PUSH1 0x40 MLOAD DUP1 SWAP2 SUB SWAP1 REVERT JUMPDEST DUP1 PUSH1 0x2 PUSH0 PUSH2 0x100 EXP DUP2 SLOAD DUP2 PUSH20 0xFFFFFFFFFFFFFFFFFFFFFFFFFFFFFFFFFFFFFFFF MUL NOT AND SWAP1 DUP4 PUSH20 0xFFFFFFFFFFFFFFFFFFFFFFFFFFFFFFFFFFFFFFFF AND MUL OR SWAP1 SSTORE POP POP JUMP JUMPDEST PUSH1 0x2 PUSH0 SWAP1 SLOAD SWAP1 PUSH2 0x100 EXP SWAP1 DIV PUSH20 0xFFFFFFFFFFFFFFFFFFFFFFFFFFFFFFFFFFFFFFFF AND PUSH20 0xFFFFFFFFFFFFFFFFFFFFFFFFFFFFFFFFFFFFFFFF AND CALLER PUSH20 0xFFFFFFFFFFFFFFFFFFFFFFFFFFFFFFFFFFFFFFFF AND EQ PUSH2 0x385 JUMPI PUSH1 0x40 MLOAD PUSH32 0x8C379A000000000000000000000000000000000000000000000000000000000 DUP2 MSTORE PUSH1 0x4 ADD PUSH2 0x37C SWAP1 PUSH2 0x1383 JUMP JUMPDEST PUSH1 0x40 MLOAD DUP1 SWAP2 SUB SWAP1 REVERT JUMPDEST PUSH0 PUSH1 0x3 PUSH0 DUP5 DUP2 MSTORE PUSH1 0x20 ADD SWAP1 DUP2 MSTORE PUSH1 0x20 ADD PUSH0 KECCAK256 PUSH0 ADD SLOAD SUB PUSH2 0x3DA JUMPI PUSH1 0x40 MLOAD PUSH32 0x8C379A000000000000000000000000000000000000000000000000000000000 DUP2 MSTORE PUSH1 0x4 ADD PUSH2 0x3D1 SWAP1 PUSH2 0x13EB JUMP JUMPDEST PUSH1 0x40 MLOAD DUP1 SWAP2 SUB SWAP1 REVERT JUMPDEST PUSH0 PUSH1 0x3 PUSH0 DUP5 DUP2 MSTORE PUSH1 0x20 ADD SWAP1 DUP2 MSTORE PUSH1 0x20 ADD PUSH0 KECCAK256 PUSH1 0x2 ADD PUSH1 0x1 SWAP1 SLOAD SWAP1 PUSH2 0x100 EXP SWAP1 DIV PUSH20 0xFFFFFFFFFFFFFFFFFFFFFFFFFFFFFFFFFFFFFFFF AND SWAP1 POP DUP2 PUSH1 0x3 PUSH0 DUP6 DUP2 MSTORE PUSH1 0x20 ADD SWAP1 DUP2 MSTORE PUSH1 0x20 ADD PUSH0 KECCAK256 PUSH1 0x2 ADD PUSH1 0x1 PUSH2 0x100 EXP DUP2 SLOAD DUP2 PUSH20 0xFFFFFFFFFFFFFFFFFFFFFFFFFFFFFFFFFFFFFFFF MUL NOT AND SWAP1 DUP4 PUSH20 0xFFFFFFFFFFFFFFFFFFFFFFFFFFFFFFFFFFFFFFFF AND MUL OR SWAP1 SSTORE POP PUSH1 0x3 PUSH0 DUP5 DUP2 MSTORE PUSH1 0x20 ADD SWAP1 DUP2 MSTORE PUSH1 0x20 ADD PUSH0 KECCAK256 PUSH1 0x3 ADD DUP3 SWAP1 DUP1 PUSH1 0x1 DUP2 SLOAD ADD DUP1 DUP3 SSTORE DUP1 SWAP2 POP POP PUSH1 0x1 SWAP1 SUB SWAP1 PUSH0 MSTORE PUSH1 0x20 PUSH0 KECCAK256 ADD PUSH0 SWAP1 SWAP2 SWAP1 SWAP2 SWAP1 SWAP2 PUSH2 0x100 EXP DUP2 SLOAD DUP2 PUSH20 0xFFFFFFFFFFFFFFFFFFFFFFFFFFFFFFFFFFFFFFFF MUL NOT AND SWAP1 DUP4 PUSH20 0xFFFFFFFFFFFFFFFFFFFFFFFFFFFFFFFFFFFFFFFF AND MUL OR SWAP1 SSTORE POP PUSH32 0x16B85F49BF01212961345D3016C9A531894ACCF62EB7680F2045D79185CC0EC0 DUP4 DUP3 DUP5 PUSH1 0x40 MLOAD PUSH2 0x50A SWAP4 SWAP3 SWAP2 SWAP1 PUSH2 0x1409 JUMP JUMPDEST PUSH1 0x40 MLOAD DUP1 SWAP2 SUB SWAP1 LOG1 POP POP POP JUMP JUMPDEST PUSH1 0x1 PUSH0 SWAP1 SLOAD SWAP1 PUSH2 0x100 EXP SWAP1 DIV PUSH20 0xFFFFFFFFFFFFFFFFFFFFFFFFFFFFFFFFFFFFFFFF AND DUP2 JUMP JUMPDEST PUSH1 0x3 PUSH1 0x20 MSTORE DUP1 PUSH0 MSTORE PUSH1 0x40 PUSH0 KECCAK256 PUSH0 SWAP2 POP SWAP1 POP DUP1 PUSH0 ADD SLOAD SWAP1 DUP1 PUSH1 0x1 ADD DUP1 SLOAD PUSH2 0x561 SWAP1 PUSH2 0x146B JUMP JUMPDEST DUP1 PUSH1 0x1F ADD PUSH1 0x20 DUP1 SWAP2 DIV MUL PUSH1 0x20 ADD PUSH1 0x40 MLOAD SWAP1 DUP2 ADD PUSH1 0x40 MSTORE DUP1 SWAP3 SWAP2 SWAP1 DUP2 DUP2 MSTORE PUSH1 0x20 ADD DUP3 DUP1 SLOAD PUSH2 0x58D SWAP1 PUSH2 0x146B JUMP JUMPDEST DUP1 ISZERO PUSH2 0x5D8 JUMPI DUP1 PUSH1 0x1F LT PUSH2 0x5AF JUMPI PUSH2 0x100 DUP1 DUP4 SLOAD DIV MUL DUP4 MSTORE SWAP2 PUSH1 0x20 ADD SWAP2 PUSH2 0x5D8 JUMP JUMPDEST DUP3 ADD SWAP2 SWAP1 PUSH0 MSTORE PUSH1 0x20 PUSH0 KECCAK256 SWAP1 JUMPDEST DUP2 SLOAD DUP2 MSTORE SWAP1 PUSH1 0x1 ADD SWAP1 PUSH1 0x20 ADD DUP1 DUP4 GT PUSH2 0x5BB JUMPI DUP3 SWAP1 SUB PUSH1 0x1F AND DUP3 ADD SWAP2 JUMPDEST POP POP POP POP POP SWAP1 DUP1 PUSH1 0x2 ADD PUSH0 SWAP1 SLOAD SWAP1 PUSH2 0x100 EXP SWAP1 DIV PUSH1 0xFF AND SWAP1 DUP1 PUSH1 0x2 ADD PUSH1 0x1 SWAP1 SLOAD SWAP1 PUSH2 0x100 EXP SWAP1 DIV PUSH20 0xFFFFFFFFFFFFFFFFFFFFFFFFFFFFFFFFFFFFFFFF AND SWAP1 POP DUP5 JUMP JUMPDEST PUSH1 0x4 PUSH0 CALLER PUSH20 0xFFFFFFFFFFFFFFFFFFFFFFFFFFFFFFFFFFFFFFFF AND PUSH20 0xFFFFFFFFFFFFFFFFFFFFFFFFFFFFFFFFFFFFFFFF AND DUP2 MSTORE PUSH1 0x20 ADD SWAP1 DUP2 MSTORE PUSH1 0x20 ADD PUSH0 KECCAK256 PUSH0 SWAP1 SLOAD SWAP1 PUSH2 0x100 EXP SWAP1 DIV PUSH1 0xFF AND PUSH2 0x6A3 JUMPI PUSH1 0x40 MLOAD PUSH32 0x8C379A000000000000000000000000000000000000000000000000000000000 DUP2 MSTORE PUSH1 0x4 ADD PUSH2 0x69A SWAP1 PUSH2 0x14E5 JUMP JUMPDEST PUSH1 0x40 MLOAD DUP1 SWAP2 SUB SWAP1 REVERT JUMPDEST PUSH0 PUSH1 0x3 PUSH0 DUP4 DUP2 MSTORE PUSH1 0x20 ADD SWAP1 DUP2 MSTORE PUSH1 0x20 ADD PUSH0 KECCAK256 PUSH0 ADD SLOAD SUB PUSH2 0x6F8 JUMPI PUSH1 0x40 MLOAD PUSH32 0x8C379A000000000000000000000000000000000000000000000000000000000 DUP2 MSTORE PUSH1 0x4 ADD PUSH2 0x6EF SWAP1 PUSH2 0x13EB JUMP JUMPDEST PUSH1 0x40 MLOAD DUP1 SWAP2 SUB SWAP1 REVERT JUMPDEST PUSH1 0x1 PUSH1 0x3 PUSH0 DUP4 DUP2 MSTORE PUSH1 0x20 ADD SWAP1 DUP2 MSTORE PUSH1 0x20 ADD PUSH0 KECCAK256 PUSH1 0x2 ADD PUSH0 PUSH2 0x100 EXP DUP2 SLOAD DUP2 PUSH1 0xFF MUL NOT AND SWAP1 DUP4 ISZERO ISZERO MUL OR SWAP1 SSTORE POP PUSH32 0xAB60911BEBC6D3AB48620594E409545834DA76F4995297EBC48CA5589F25437B DUP2 CALLER PUSH1 0x40 MLOAD PUSH2 0x755 SWAP3 SWAP2 SWAP1 PUSH2 0x1503 JUMP JUMPDEST PUSH1 0x40 MLOAD DUP1 SWAP2 SUB SWAP1 LOG1 POP JUMP JUMPDEST PUSH1 0x1 PUSH0 SWAP1 SLOAD SWAP1 PUSH2 0x100 EXP SWAP1 DIV PUSH20 0xFFFFFFFFFFFFFFFFFFFFFFFFFFFFFFFFFFFFFFFF AND PUSH20 0xFFFFFFFFFFFFFFFFFFFFFFFFFFFFFFFFFFFFFFFF AND CALLER PUSH20 0xFFFFFFFFFFFFFFFFFFFFFFFFFFFFFFFFFFFFFFFF AND EQ PUSH2 0x7EF JUMPI PUSH1 0x40 MLOAD PUSH32 0x8C379A000000000000000000000000000000000000000000000000000000000 DUP2 MSTORE PUSH1 0x4 ADD PUSH2 0x7E6 SWAP1 PUSH2 0x131B JUMP JUMPDEST PUSH1 0x40 MLOAD DUP1 SWAP2 SUB SWAP1 REVERT JUMPDEST PUSH1 0x1 PUSH1 0x4 PUSH0 DUP4 PUSH20 0xFFFFFFFFFFFFFFFFFFFFFFFFFFFFFFFFFFFFFFFF AND PUSH20 0xFFFFFFFFFFFFFFFFFFFFFFFFFFFFFFFFFFFFFFFF AND DUP2 MSTORE PUSH1 0x20 ADD SWAP1 DUP2 MSTORE PUSH1 0x20 ADD PUSH0 KECCAK256 PUSH0 PUSH2 0x100 EXP DUP2 SLOAD DUP2 PUSH1 0xFF MUL NOT AND SWAP1 DUP4 ISZERO ISZERO MUL OR SWAP1 SSTORE POP POP JUMP JUMPDEST PUSH1 0x1 PUSH0 SWAP1 SLOAD SWAP1 PUSH2 0x100 EXP SWAP1 DIV PUSH20 0xFFFFFFFFFFFFFFFFFFFFFFFFFFFFFFFFFFFFFFFF AND PUSH20 0xFFFFFFFFFFFFFFFFFFFFFFFFFFFFFFFFFFFFFFFF AND CALLER PUSH20 0xFFFFFFFFFFFFFFFFFFFFFFFFFFFFFFFFFFFFFFFF AND EQ PUSH2 0x8D6 JUMPI PUSH1 0x40 MLOAD PUSH32 0x8C379A000000000000000000000000000000000000000000000000000000000 DUP2 MSTORE PUSH1 0x4 ADD PUSH2 0x8CD SWAP1 PUSH2 0x131B JUMP JUMPDEST PUSH1 0x40 MLOAD DUP1 SWAP2 SUB SWAP1 REVERT JUMPDEST PUSH0 DUP1 PUSH0 SWAP1 SLOAD SWAP1 PUSH2 0x100 EXP SWAP1 DIV PUSH20 0xFFFFFFFFFFFFFFFFFFFFFFFFFFFFFFFFFFFFFFFF AND PUSH20 0xFFFFFFFFFFFFFFFFFFFFFFFFFFFFFFFFFFFFFFFF AND PUSH4 0x6352211E DUP5 PUSH1 0x40 MLOAD DUP3 PUSH4 0xFFFFFFFF AND PUSH1 0xE0 SHL DUP2 MSTORE PUSH1 0x4 ADD PUSH2 0x930 SWAP2 SWAP1 PUSH2 0x152A JUMP JUMPDEST PUSH1 0x20 PUSH1 0x40 MLOAD DUP1 DUP4 SUB DUP2 DUP7 GAS STATICCALL ISZERO DUP1 ISZERO PUSH2 0x94B JUMPI RETURNDATASIZE PUSH0 DUP1 RETURNDATACOPY RETURNDATASIZE PUSH0 REVERT JUMPDEST POP POP POP POP PUSH1 0x40 MLOAD RETURNDATASIZE PUSH1 0x1F NOT PUSH1 0x1F DUP3 ADD AND DUP3 ADD DUP1 PUSH1 0x40 MSTORE POP DUP2 ADD SWAP1 PUSH2 0x96F SWAP2 SWAP1 PUSH2 0x1557 JUMP JUMPDEST SWAP1 POP PUSH0 PUSH1 0x3 PUSH0 DUP6 DUP2 MSTORE PUSH1 0x20 ADD SWAP1 DUP2 MSTORE PUSH1 0x20 ADD PUSH0 KECCAK256 PUSH0 ADD SLOAD EQ PUSH2 0x9C6 JUMPI PUSH1 0x40 MLOAD PUSH32 0x8C379A000000000000000000000000000000000000000000000000000000000 DUP2 MSTORE PUSH1 0x4 ADD PUSH2 0x9BD SWAP1 PUSH2 0x15CC JUMP JUMPDEST PUSH1 0x40 MLOAD DUP1 SWAP2 SUB SWAP1 REVERT JUMPDEST PUSH1 0x40 MLOAD DUP1 PUSH1 0xA0 ADD PUSH1 0x40 MSTORE DUP1 DUP5 DUP2 MSTORE PUSH1 0x20 ADD DUP4 DUP2 MSTORE PUSH1 0x20 ADD PUSH0 ISZERO ISZERO DUP2 MSTORE PUSH1 0x20 ADD DUP3 PUSH20 0xFFFFFFFFFFFFFFFFFFFFFFFFFFFFFFFFFFFFFFFF AND DUP2 MSTORE PUSH1 0x20 ADD PUSH1 0x1 PUSH8 0xFFFFFFFFFFFFFFFF DUP2 GT ISZERO PUSH2 0xA1C JUMPI PUSH2 0xA1B PUSH2 0xFEF JUMP JUMPDEST JUMPDEST PUSH1 0x40 MLOAD SWAP1 DUP1 DUP3 MSTORE DUP1 PUSH1 0x20 MUL PUSH1 0x20 ADD DUP3 ADD PUSH1 0x40 MSTORE DUP1 ISZERO PUSH2 0xA4A JUMPI DUP2 PUSH1 0x20 ADD PUSH1 0x20 DUP3 MUL DUP1 CALLDATASIZE DUP4 CALLDATACOPY DUP1 DUP3 ADD SWAP2 POP POP SWAP1 POP JUMPDEST POP DUP2 MSTORE POP PUSH1 0x3 PUSH0 DUP6 DUP2 MSTORE PUSH1 0x20 ADD SWAP1 DUP2 MSTORE PUSH1 0x20 ADD PUSH0 KECCAK256 PUSH0 DUP3 ADD MLOAD DUP2 PUSH0 ADD SSTORE PUSH1 0x20 DUP3 ADD MLOAD DUP2 PUSH1 0x1 ADD SWAP1 DUP2 PUSH2 0xA7C SWAP2 SWAP1 PUSH2 0x177E JUMP JUMPDEST POP PUSH1 0x40 DUP3 ADD MLOAD DUP2 PUSH1 0x2 ADD PUSH0 PUSH2 0x100 EXP DUP2 SLOAD DUP2 PUSH1 0xFF MUL NOT AND SWAP1 DUP4 ISZERO ISZERO MUL OR SWAP1 SSTORE POP PUSH1 0x60 DUP3 ADD MLOAD DUP2 PUSH1 0x2 ADD PUSH1 0x1 PUSH2 0x100 EXP DUP2 SLOAD DUP2 PUSH20 0xFFFFFFFFFFFFFFFFFFFFFFFFFFFFFFFFFFFFFFFF MUL NOT AND SWAP1 DUP4 PUSH20 0xFFFFFFFFFFFFFFFFFFFFFFFFFFFFFFFFFFFFFFFF AND MUL OR SWAP1 SSTORE POP PUSH1 0x80 DUP3 ADD MLOAD DUP2 PUSH1 0x3 ADD SWAP1 DUP1 MLOAD SWAP1 PUSH1 0x20 ADD SWAP1 PUSH2 0xAFF SWAP3 SWAP2 SWAP1 PUSH2 0xD08 JUMP JUMPDEST POP SWAP1 POP POP DUP1 PUSH1 0x3 PUSH0 DUP6 DUP2 MSTORE PUSH1 0x20 ADD SWAP1 DUP2 MSTORE PUSH1 0x20 ADD PUSH0 KECCAK256 PUSH1 0x3 ADD PUSH0 DUP2 SLOAD DUP2 LT PUSH2 0xB2A JUMPI PUSH2 0xB29 PUSH2 0x184D JUMP JUMPDEST JUMPDEST SWAP1 PUSH0 MSTORE PUSH1 0x20 PUSH0 KECCAK256 ADD PUSH0 PUSH2 0x100 EXP DUP2 SLOAD DUP2 PUSH20 0xFFFFFFFFFFFFFFFFFFFFFFFFFFFFFFFFFFFFFFFF MUL NOT AND SWAP1 DUP4 PUSH20 0xFFFFFFFFFFFFFFFFFFFFFFFFFFFFFFFFFFFFFFFF AND MUL OR SWAP1 SSTORE POP PUSH32 0xD810998A0248808A33B20218E71759CB2EC1A182B398350AD606D742587C012C DUP4 DUP4 DUP4 PUSH1 0x40 MLOAD PUSH2 0xBA2 SWAP4 SWAP3 SWAP2 SWAP1 PUSH2 0x187A JUMP JUMPDEST PUSH1 0x40 MLOAD DUP1 SWAP2 SUB SWAP1 LOG1 POP POP POP JUMP JUMPDEST PUSH1 0x60 PUSH0 PUSH1 0x3 PUSH0 DUP5 DUP2 MSTORE PUSH1 0x20 ADD SWAP1 DUP2 MSTORE PUSH1 0x20 ADD PUSH0 KECCAK256 PUSH0 ADD SLOAD SUB PUSH2 0xC06 JUMPI PUSH1 0x40 MLOAD PUSH32 0x8C379A000000000000000000000000000000000000000000000000000000000 DUP2 MSTORE PUSH1 0x4 ADD PUSH2 0xBFD SWAP1 PUSH2 0x13EB JUMP JUMPDEST PUSH1 0x40 MLOAD DUP1 SWAP2 SUB SWAP1 REVERT JUMPDEST PUSH1 0x3 PUSH0 DUP4 DUP2 MSTORE PUSH1 0x20 ADD SWAP1 DUP2 MSTORE PUSH1 0x20 ADD PUSH0 KECCAK256 PUSH1 0x3 ADD DUP1 SLOAD DUP1 PUSH1 0x20 MUL PUSH1 0x20 ADD PUSH1 0x40 MLOAD SWAP1 DUP2 ADD PUSH1 0x40 MSTORE DUP1 SWAP3 SWAP2 SWAP1 DUP2 DUP2 MSTORE PUSH1 0x20 ADD DUP3 DUP1 SLOAD DUP1 ISZERO PUSH2 0xC97 JUMPI PUSH1 0x20 MUL DUP3 ADD SWAP2 SWAP1 PUSH0 MSTORE PUSH1 0x20 PUSH0 KECCAK256 SWAP1 JUMPDEST DUP2 PUSH0 SWAP1 SLOAD SWAP1 PUSH2 0x100 EXP SWAP1 DIV PUSH20 0xFFFFFFFFFFFFFFFFFFFFFFFFFFFFFFFFFFFFFFFF AND PUSH20 0xFFFFFFFFFFFFFFFFFFFFFFFFFFFFFFFFFFFFFFFF AND DUP2 MSTORE PUSH1 0x20 ADD SWAP1 PUSH1 0x1 ADD SWAP1 DUP1 DUP4 GT PUSH2 0xC4E JUMPI JUMPDEST POP POP POP POP POP SWAP1 POP SWAP2 SWAP1 POP JUMP JUMPDEST PUSH0 DUP1 SLOAD SWAP1 PUSH2 0x100 EXP SWAP1 DIV PUSH20 0xFFFFFFFFFFFFFFFFFFFFFFFFFFFFFFFFFFFFFFFF AND DUP2 JUMP JUMPDEST PUSH1 0x2 PUSH0 SWAP1 SLOAD SWAP1 PUSH2 0x100 EXP SWAP1 DIV PUSH20 0xFFFFFFFFFFFFFFFFFFFFFFFFFFFFFFFFFFFFFFFF AND DUP2 JUMP JUMPDEST PUSH1 0x4 PUSH1 0x20 MSTORE DUP1 PUSH0 MSTORE PUSH1 0x40 PUSH0 KECCAK256 PUSH0 SWAP2 POP SLOAD SWAP1 PUSH2 0x100 EXP SWAP1 DIV PUSH1 0xFF AND DUP2 JUMP JUMPDEST DUP3 DUP1 SLOAD DUP3 DUP3 SSTORE SWAP1 PUSH0 MSTORE PUSH1 0x20 PUSH0 KECCAK256 SWAP1 DUP2 ADD SWAP3 DUP3 ISZERO PUSH2 0xD7E JUMPI SWAP2 PUSH1 0x20 MUL DUP3 ADD JUMPDEST DUP3 DUP2 GT ISZERO PUSH2 0xD7D JUMPI DUP3 MLOAD DUP3 PUSH0 PUSH2 0x100 EXP DUP2 SLOAD DUP2 PUSH20 0xFFFFFFFFFFFFFFFFFFFFFFFFFFFFFFFFFFFFFFFF MUL NOT AND SWAP1 DUP4 PUSH20 0xFFFFFFFFFFFFFFFFFFFFFFFFFFFFFFFFFFFFFFFF AND MUL OR SWAP1 SSTORE POP SWAP2 PUSH1 0x20 ADD SWAP2 SWAP1 PUSH1 0x1 ADD SWAP1 PUSH2 0xD26 JUMP JUMPDEST JUMPDEST POP SWAP1 POP PUSH2 0xD8B SWAP2 SWAP1 PUSH2 0xD8F JUMP JUMPDEST POP SWAP1 JUMP JUMPDEST JUMPDEST DUP1 DUP3 GT ISZERO PUSH2 0xDA6 JUMPI PUSH0 DUP2 PUSH0 SWAP1 SSTORE POP PUSH1 0x1 ADD PUSH2 0xD90 JUMP JUMPDEST POP SWAP1 JUMP JUMPDEST PUSH0 PUSH1 0x40 MLOAD SWAP1 POP SWAP1 JUMP JUMPDEST PUSH0 DUP1 REVERT JUMPDEST PUSH0 DUP1 REVERT JUMPDEST PUSH0 PUSH20 0xFFFFFFFFFFFFFFFFFFFFFFFFFFFFFFFFFFFFFFFF DUP3 AND SWAP1 POP SWAP2 SWAP1 POP JUMP JUMPDEST PUSH0 PUSH2 0xDE4 DUP3 PUSH2 0xDBB JUMP JUMPDEST SWAP1 POP SWAP2 SWAP1 POP JUMP JUMPDEST PUSH2 0xDF4 DUP2 PUSH2 0xDDA JUMP JUMPDEST DUP2 EQ PUSH2 0xDFE JUMPI PUSH0 DUP1 REVERT JUMPDEST POP JUMP JUMPDEST PUSH0 DUP2 CALLDATALOAD SWAP1 POP PUSH2 0xE0F DUP2 PUSH2 0xDEB JUMP JUMPDEST SWAP3 SWAP2 POP POP JUMP JUMPDEST PUSH0 PUSH1 0x20 DUP3 DUP5 SUB SLT ISZERO PUSH2 0xE2A JUMPI PUSH2 0xE29 PUSH2 0xDB3 JUMP JUMPDEST JUMPDEST PUSH0 PUSH2 0xE37 DUP5 DUP3 DUP6 ADD PUSH2 0xE01 JUMP JUMPDEST SWAP2 POP POP SWAP3 SWAP2 POP POP JUMP JUMPDEST PUSH0 DUP2 SWAP1 POP SWAP2 SWAP1 POP JUMP JUMPDEST PUSH2 0xE52 DUP2 PUSH2 0xE40 JUMP JUMPDEST DUP2 EQ PUSH2 0xE5C JUMPI PUSH0 DUP1 REVERT JUMPDEST POP JUMP JUMPDEST PUSH0 DUP2 CALLDATALOAD SWAP1 POP PUSH2 0xE6D DUP2 PUSH2 0xE49 JUMP JUMPDEST SWAP3 SWAP2 POP POP JUMP JUMPDEST PUSH0 DUP1 PUSH1 0x40 DUP4 DUP6 SUB SLT ISZERO PUSH2 0xE89 JUMPI PUSH2 0xE88 PUSH2 0xDB3 JUMP JUMPDEST JUMPDEST PUSH0 PUSH2 0xE96 DUP6 DUP3 DUP7 ADD PUSH2 0xE5F JUMP JUMPDEST SWAP3 POP POP PUSH1 0x20 PUSH2 0xEA7 DUP6 DUP3 DUP7 ADD PUSH2 0xE01 JUMP JUMPDEST SWAP2 POP POP SWAP3 POP SWAP3 SWAP1 POP JUMP JUMPDEST PUSH2 0xEBA DUP2 PUSH2 0xDDA JUMP JUMPDEST DUP3 MSTORE POP POP JUMP JUMPDEST PUSH0 PUSH1 0x20 DUP3 ADD SWAP1 POP PUSH2 0xED3 PUSH0 DUP4 ADD DUP5 PUSH2 0xEB1 JUMP JUMPDEST SWAP3 SWAP2 POP POP JUMP JUMPDEST PUSH0 PUSH1 0x20 DUP3 DUP5 SUB SLT ISZERO PUSH2 0xEEE JUMPI PUSH2 0xEED PUSH2 0xDB3 JUMP JUMPDEST JUMPDEST PUSH0 PUSH2 0xEFB DUP5 DUP3 DUP6 ADD PUSH2 0xE5F JUMP JUMPDEST SWAP2 POP POP SWAP3 SWAP2 POP POP JUMP JUMPDEST PUSH2 0xF0D DUP2 PUSH2 0xE40 JUMP JUMPDEST DUP3 MSTORE POP POP JUMP JUMPDEST PUSH0 DUP2 MLOAD SWAP1 POP SWAP2 SWAP1 POP JUMP JUMPDEST PUSH0 DUP3 DUP3 MSTORE PUSH1 0x20 DUP3 ADD SWAP1 POP SWAP3 SWAP2 POP POP JUMP JUMPDEST DUP3 DUP2 DUP4 MCOPY PUSH0 DUP4 DUP4 ADD MSTORE POP POP POP JUMP JUMPDEST PUSH0 PUSH1 0x1F NOT PUSH1 0x1F DUP4 ADD AND SWAP1 POP SWAP2 SWAP1 POP JUMP JUMPDEST PUSH0 PUSH2 0xF55 DUP3 PUSH2 0xF13 JUMP JUMPDEST PUSH2 0xF5F DUP2 DUP6 PUSH2 0xF1D JUMP JUMPDEST SWAP4 POP PUSH2 0xF6F DUP2 DUP6 PUSH1 0x20 DUP7 ADD PUSH2 0xF2D JUMP JUMPDEST PUSH2 0xF78 DUP2 PUSH2 0xF3B JUMP JUMPDEST DUP5 ADD SWAP2 POP POP SWAP3 SWAP2 POP POP JUMP JUMPDEST PUSH0 DUP2 ISZERO ISZERO SWAP1 POP SWAP2 SWAP1 POP JUMP JUMPDEST PUSH2 0xF97 DUP2 PUSH2 0xF83 JUMP JUMPDEST DUP3 MSTORE POP POP JUMP JUMPDEST PUSH0 PUSH1 0x80 DUP3 ADD SWAP1 POP PUSH2 0xFB0 PUSH0 DUP4 ADD DUP8 PUSH2 0xF04 JUMP JUMPDEST DUP2 DUP2 SUB PUSH1 0x20 DUP4 ADD MSTORE PUSH2 0xFC2 DUP2 DUP7 PUSH2 0xF4B JUMP JUMPDEST SWAP1 POP PUSH2 0xFD1 PUSH1 0x40 DUP4 ADD DUP6 PUSH2 0xF8E JUMP JUMPDEST PUSH2 0xFDE PUSH1 0x60 DUP4 ADD DUP5 PUSH2 0xEB1 JUMP JUMPDEST SWAP6 SWAP5 POP POP POP POP POP JUMP JUMPDEST PUSH0 DUP1 REVERT JUMPDEST PUSH0 DUP1 REVERT JUMPDEST PUSH32 0x4E487B7100000000000000000000000000000000000000000000000000000000 PUSH0 MSTORE PUSH1 0x41 PUSH1 0x4 MSTORE PUSH1 0x24 PUSH0 REVERT JUMPDEST PUSH2 0x1025 DUP3 PUSH2 0xF3B JUMP JUMPDEST DUP2 ADD DUP2 DUP2 LT PUSH8 0xFFFFFFFFFFFFFFFF DUP3 GT OR ISZERO PUSH2 0x1044 JUMPI PUSH2 0x1043 PUSH2 0xFEF JUMP JUMPDEST JUMPDEST DUP1 PUSH1 0x40 MSTORE POP POP POP JUMP JUMPDEST PUSH0 PUSH2 0x1056 PUSH2 0xDAA JUMP JUMPDEST SWAP1 POP PUSH2 0x1062 DUP3 DUP3 PUSH2 0x101C JUMP JUMPDEST SWAP2 SWAP1 POP JUMP JUMPDEST PUSH0 PUSH8 0xFFFFFFFFFFFFFFFF DUP3 GT ISZERO PUSH2 0x1081 JUMPI PUSH2 0x1080 PUSH2 0xFEF JUMP JUMPDEST JUMPDEST PUSH2 0x108A DUP3 PUSH2 0xF3B JUMP JUMPDEST SWAP1 POP PUSH1 0x20 DUP2 ADD SWAP1 POP SWAP2 SWAP1 POP JUMP JUMPDEST DUP3 DUP2 DUP4 CALLDATACOPY PUSH0 DUP4 DUP4 ADD MSTORE POP POP POP JUMP JUMPDEST PUSH0 PUSH2 0x10B7 PUSH2 0x10B2 DUP5 PUSH2 0x1067 JUMP JUMPDEST PUSH2 0x104D JUMP JUMPDEST SWAP1 POP DUP3 DUP2 MSTORE PUSH1 0x20 DUP2 ADD DUP5 DUP5 DUP5 ADD GT ISZERO PUSH2 0x10D3 JUMPI PUSH2 0x10D2 PUSH2 0xFEB JUMP JUMPDEST JUMPDEST PUSH2 0x10DE DUP5 DUP3 DUP6 PUSH2 0x1097 JUMP JUMPDEST POP SWAP4 SWAP3 POP POP POP JUMP JUMPDEST PUSH0 DUP3 PUSH1 0x1F DUP4 ADD SLT PUSH2 0x10FA JUMPI PUSH2 0x10F9 PUSH2 0xFE7 JUMP JUMPDEST JUMPDEST DUP2 CALLDATALOAD PUSH2 0x110A DUP5 DUP3 PUSH1 0x20 DUP7 ADD PUSH2 0x10A5 JUMP JUMPDEST SWAP2 POP POP SWAP3 SWAP2 POP POP JUMP JUMPDEST PUSH0 DUP1 PUSH1 0x40 DUP4 DUP6 SUB SLT ISZERO PUSH2 0x1129 JUMPI PUSH2 0x1128 PUSH2 0xDB3 JUMP JUMPDEST JUMPDEST PUSH0 PUSH2 0x1136 DUP6 DUP3 DUP7 ADD PUSH2 0xE5F JUMP JUMPDEST SWAP3 POP POP PUSH1 0x20 DUP4 ADD CALLDATALOAD PUSH8 0xFFFFFFFFFFFFFFFF DUP2 GT ISZERO PUSH2 0x1157 JUMPI PUSH2 0x1156 PUSH2 0xDB7 JUMP JUMPDEST JUMPDEST PUSH2 0x1163 DUP6 DUP3 DUP7 ADD PUSH2 0x10E6 JUMP JUMPDEST SWAP2 POP POP SWAP3 POP SWAP3 SWAP1 POP JUMP JUMPDEST PUSH0 DUP2 MLOAD SWAP1 POP SWAP2 SWAP1 POP JUMP JUMPDEST PUSH0 DUP3 DUP3 MSTORE PUSH1 0x20 DUP3 ADD SWAP1 POP SWAP3 SWAP2 POP POP JUMP JUMPDEST PUSH0 DUP2 SWAP1 POP PUSH1 0x20 DUP3 ADD SWAP1 POP SWAP2 SWAP1 POP JUMP JUMPDEST PUSH2 0x119F DUP2 PUSH2 0xDDA JUMP JUMPDEST DUP3 MSTORE POP POP JUMP JUMPDEST PUSH0 PUSH2 0x11B0 DUP4 DUP4 PUSH2 0x1196 JUMP JUMPDEST PUSH1 0x20 DUP4 ADD SWAP1 POP SWAP3 SWAP2 POP POP JUMP JUMPDEST PUSH0 PUSH1 0x20 DUP3 ADD SWAP1 POP SWAP2 SWAP1 POP JUMP JUMPDEST PUSH0 PUSH2 0x11D2 DUP3 PUSH2 0x116D JUMP JUMPDEST PUSH2 0x11DC DUP2 DUP6 PUSH2 0x1177 JUMP JUMPDEST SWAP4 POP PUSH2 0x11E7 DUP4 PUSH2 0x1187 JUMP JUMPDEST DUP1 PUSH0 JUMPDEST DUP4 DUP2 LT ISZERO PUSH2 0x1217 JUMPI DUP2 MLOAD PUSH2 0x11FE DUP9 DUP3 PUSH2 0x11A5 JUMP JUMPDEST SWAP8 POP PUSH2 0x1209 DUP4 PUSH2 0x11BC JUMP JUMPDEST SWAP3 POP POP PUSH1 0x1 DUP2 ADD SWAP1 POP PUSH2 0x11EA JUMP JUMPDEST POP DUP6 SWAP4 POP POP POP POP SWAP3 SWAP2 POP POP JUMP JUMPDEST PUSH0 PUSH1 0x20 DUP3 ADD SWAP1 POP DUP2 DUP2 SUB PUSH0 DUP4 ADD MSTORE PUSH2 0x123C DUP2 DUP5 PUSH2 0x11C8 JUMP JUMPDEST SWAP1 POP SWAP3 SWAP2 POP POP JUMP JUMPDEST PUSH0 DUP2 SWAP1 POP SWAP2 SWAP1 POP JUMP JUMPDEST PUSH0 PUSH2 0x1267 PUSH2 0x1262 PUSH2 0x125D DUP5 PUSH2 0xDBB JUMP JUMPDEST PUSH2 0x1244 JUMP JUMPDEST PUSH2 0xDBB JUMP JUMPDEST SWAP1 POP SWAP2 SWAP1 POP JUMP JUMPDEST PUSH0 PUSH2 0x1278 DUP3 PUSH2 0x124D JUMP JUMPDEST SWAP1 POP SWAP2 SWAP1 POP JUMP JUMPDEST PUSH0 PUSH2 0x1289 DUP3 PUSH2 0x126E JUMP JUMPDEST SWAP1 POP SWAP2 SWAP1 POP JUMP JUMPDEST PUSH2 0x1299 DUP2 PUSH2 0x127F JUMP JUMPDEST DUP3 MSTORE POP POP JUMP JUMPDEST PUSH0 PUSH1 0x20 DUP3 ADD SWAP1 POP PUSH2 0x12B2 PUSH0 DUP4 ADD DUP5 PUSH2 0x1290 JUMP JUMPDEST SWAP3 SWAP2 POP POP JUMP JUMPDEST PUSH0 PUSH1 0x20 DUP3 ADD SWAP1 POP PUSH2 0x12CB PUSH0 DUP4 ADD DUP5 PUSH2 0xF8E JUMP JUMPDEST SWAP3 SWAP2 POP POP JUMP JUMPDEST PUSH32 0x4F6E6C79206D616E7566616374757265722063616E2063616C6C000000000000 PUSH0 DUP3 ADD MSTORE POP JUMP JUMPDEST PUSH0 PUSH2 0x1305 PUSH1 0x1A DUP4 PUSH2 0xF1D JUMP JUMPDEST SWAP2 POP PUSH2 0x1310 DUP3 PUSH2 0x12D1 JUMP JUMPDEST PUSH1 0x20 DUP3 ADD SWAP1 POP SWAP2 SWAP1 POP JUMP JUMPDEST PUSH0 PUSH1 0x20 DUP3 ADD SWAP1 POP DUP2 DUP2 SUB PUSH0 DUP4 ADD MSTORE PUSH2 0x1332 DUP2 PUSH2 0x12F9 JUMP JUMPDEST SWAP1 POP SWAP2 SWAP1 POP JUMP JUMPDEST PUSH32 0x4F6E6C792053616C65436F6E74726163742063616E2063616C6C207468697300 PUSH0 DUP3 ADD MSTORE POP JUMP JUMPDEST PUSH0 PUSH2 0x136D PUSH1 0x1F DUP4 PUSH2 0xF1D JUMP JUMPDEST SWAP2 POP PUSH2 0x1378 DUP3 PUSH2 0x1339 JUMP JUMPDEST PUSH1 0x20 DUP3 ADD SWAP1 POP SWAP2 SWAP1 POP JUMP JUMPDEST PUSH0 PUSH1 0x20 DUP3 ADD SWAP1 POP DUP2 DUP2 SUB PUSH0 DUP4 ADD MSTORE PUSH2 0x139A DUP2 PUSH2 0x1361 JUMP JUMPDEST SWAP1 POP SWAP2 SWAP1 POP JUMP JUMPDEST PUSH32 0x50726F64756374206E6F74207265676973746572656400000000000000000000 PUSH0 DUP3 ADD MSTORE POP JUMP JUMPDEST PUSH0 PUSH2 0x13D5 PUSH1 0x16 DUP4 PUSH2 0xF1D JUMP JUMPDEST SWAP2 POP PUSH2 0x13E0 DUP3 PUSH2 0x13A1 JUMP JUMPDEST PUSH1 0x20 DUP3 ADD SWAP1 POP SWAP2 SWAP1 POP JUMP JUMPDEST PUSH0 PUSH1 0x20 DUP3 ADD SWAP1 POP DUP2 DUP2 SUB PUSH0 DUP4 ADD MSTORE PUSH2 0x1402 DUP2 PUSH2 0x13C9 JUMP JUMPDEST SWAP1 POP SWAP2 SWAP1 POP JUMP JUMPDEST PUSH0 PUSH1 0x60 DUP3 ADD SWAP1 POP PUSH2 0x141C PUSH0 DUP4 ADD DUP7 PUSH2 0xF04 JUMP JUMPDEST PUSH2 0x1429 PUSH1 0x20 DUP4 ADD DUP6 PUSH2 0xEB1 JUMP JUMPDEST PUSH2 0x1436 PUSH1 0x40 DUP4 ADD DUP5 PUSH2 0xEB1 JUMP JUMPDEST SWAP5 SWAP4 POP POP POP POP JUMP JUMPDEST PUSH32 0x4E487B7100000000000000000000000000000000000000000000000000000000 PUSH0 MSTORE PUSH1 0x22 PUSH1 0x4 MSTORE PUSH1 0x24 PUSH0 REVERT JUMPDEST PUSH0 PUSH1 0x2 DUP3 DIV SWAP1 POP PUSH1 0x1 DUP3 AND DUP1 PUSH2 0x1482 JUMPI PUSH1 0x7F DUP3 AND SWAP2 POP JUMPDEST PUSH1 0x20 DUP3 LT DUP2 SUB PUSH2 0x1495 JUMPI PUSH2 0x1494 PUSH2 0x143E JUMP JUMPDEST JUMPDEST POP SWAP2 SWAP1 POP JUMP JUMPDEST PUSH32 0x4E6F7420617574686F726973656420746F207665726966790000000000000000 PUSH0 DUP3 ADD MSTORE POP JUMP JUMPDEST PUSH0 PUSH2 0x14CF PUSH1 0x18 DUP4 PUSH2 0xF1D JUMP JUMPDEST SWAP2 POP PUSH2 0x14DA DUP3 PUSH2 0x149B JUMP JUMPDEST PUSH1 0x20 DUP3 ADD SWAP1 POP SWAP2 SWAP1 POP JUMP JUMPDEST PUSH0 PUSH1 0x20 DUP3 ADD SWAP1 POP DUP2 DUP2 SUB PUSH0 DUP4 ADD MSTORE PUSH2 0x14FC DUP2 PUSH2 0x14C3 JUMP JUMPDEST SWAP1 POP SWAP2 SWAP1 POP JUMP JUMPDEST PUSH0 PUSH1 0x40 DUP3 ADD SWAP1 POP PUSH2 0x1516 PUSH0 DUP4 ADD DUP6 PUSH2 0xF04 JUMP JUMPDEST PUSH2 0x1523 PUSH1 0x20 DUP4 ADD DUP5 PUSH2 0xEB1 JUMP JUMPDEST SWAP4 SWAP3 POP POP POP JUMP JUMPDEST PUSH0 PUSH1 0x20 DUP3 ADD SWAP1 POP PUSH2 0x153D PUSH0 DUP4 ADD DUP5 PUSH2 0xF04 JUMP JUMPDEST SWAP3 SWAP2 POP POP JUMP JUMPDEST PUSH0 DUP2 MLOAD SWAP1 POP PUSH2 0x1551 DUP2 PUSH2 0xDEB JUMP JUMPDEST SWAP3 SWAP2 POP POP JUMP JUMPDEST PUSH0 PUSH1 0x20 DUP3 DUP5 SUB SLT ISZERO PUSH2 0x156C JUMPI PUSH2 0x156B PUSH2 0xDB3 JUMP JUMPDEST JUMPDEST PUSH0 PUSH2 0x1579 DUP5 DUP3 DUP6 ADD PUSH2 0x1543 JUMP JUMPDEST SWAP2 POP POP SWAP3 SWAP2 POP POP JUMP JUMPDEST PUSH32 0x416C726561647920726567697374657265640000000000000000000000000000 PUSH0 DUP3 ADD MSTORE POP JUMP JUMPDEST PUSH0 PUSH2 0x15B6 PUSH1 0x12 DUP4 PUSH2 0xF1D JUMP JUMPDEST SWAP2 POP PUSH2 0x15C1 DUP3 PUSH2 0x1582 JUMP JUMPDEST PUSH1 0x20 DUP3 ADD SWAP1 POP SWAP2 SWAP1 POP JUMP JUMPDEST PUSH0 PUSH1 0x20 DUP3 ADD SWAP1 POP DUP2 DUP2 SUB PUSH0 DUP4 ADD MSTORE PUSH2 0x15E3 DUP2 PUSH2 0x15AA JUMP JUMPDEST SWAP1 POP SWAP2 SWAP1 POP JUMP JUMPDEST PUSH0 DUP2 SWAP1 POP DUP2 PUSH0 MSTORE PUSH1 0x20 PUSH0 KECCAK256 SWAP1 POP SWAP2 SWAP1 POP JUMP JUMPDEST PUSH0 PUSH1 0x20 PUSH1 0x1F DUP4 ADD DIV SWAP1 POP SWAP2 SWAP1 POP JUMP JUMPDEST PUSH0 DUP3 DUP3 SHL SWAP1 POP SWAP3 SWAP2 POP POP JUMP JUMPDEST PUSH0 PUSH1 0x8 DUP4 MUL PUSH2 0x1646 PUSH32 0xFFFFFFFFFFFFFFFFFFFFFFFFFFFFFFFFFFFFFFFFFFFFFFFFFFFFFFFFFFFFFFFF DUP3 PUSH2 0x160B JUMP JUMPDEST PUSH2 0x1650 DUP7 DUP4 PUSH2 0x160B JUMP JUMPDEST SWAP6 POP DUP1 NOT DUP5 AND SWAP4 POP DUP1 DUP7 AND DUP5 OR SWAP3 POP POP POP SWAP4 SWAP3 POP POP POP JUMP JUMPDEST PUSH0 PUSH2 0x1682 PUSH2 0x167D PUSH2 0x1678 DUP5 PUSH2 0xE40 JUMP JUMPDEST PUSH2 0x1244 JUMP JUMPDEST PUSH2 0xE40 JUMP JUMPDEST SWAP1 POP SWAP2 SWAP1 POP JUMP JUMPDEST PUSH0 DUP2 SWAP1 POP SWAP2 SWAP1 POP JUMP JUMPDEST PUSH2 0x169B DUP4 PUSH2 0x1668 JUMP JUMPDEST PUSH2 0x16AF PUSH2 0x16A7 DUP3 PUSH2 0x1689 JUMP JUMPDEST DUP5 DUP5 SLOAD PUSH2 0x1617 JUMP JUMPDEST DUP3 SSTORE POP POP POP POP JUMP JUMPDEST PUSH0 SWAP1 JUMP JUMPDEST PUSH2 0x16C3 PUSH2 0x16B7 JUMP JUMPDEST PUSH2 0x16CE DUP2 DUP5 DUP5 PUSH2 0x1692 JUMP JUMPDEST POP POP POP JUMP JUMPDEST JUMPDEST DUP2 DUP2 LT ISZERO PUSH2 0x16F1 JUMPI PUSH2 0x16E6 PUSH0 DUP3 PUSH2 0x16BB JUMP JUMPDEST PUSH1 0x1 DUP2 ADD SWAP1 POP PUSH2 0x16D4 JUMP JUMPDEST POP POP JUMP JUMPDEST PUSH1 0x1F DUP3 GT ISZERO PUSH2 0x1736 JUMPI PUSH2 0x1707 DUP2 PUSH2 0x15EA JUMP JUMPDEST PUSH2 0x1710 DUP5 PUSH2 0x15FC JUMP JUMPDEST DUP2 ADD PUSH1 0x20 DUP6 LT ISZERO PUSH2 0x171F JUMPI DUP2 SWAP1 POP JUMPDEST PUSH2 0x1733 PUSH2 0x172B DUP6 PUSH2 0x15FC JUMP JUMPDEST DUP4 ADD DUP3 PUSH2 0x16D3 JUMP JUMPDEST POP POP JUMPDEST POP POP POP JUMP JUMPDEST PUSH0 DUP3 DUP3 SHR SWAP1 POP SWAP3 SWAP2 POP POP JUMP JUMPDEST PUSH0 PUSH2 0x1756 PUSH0 NOT DUP5 PUSH1 0x8 MUL PUSH2 0x173B JUMP JUMPDEST NOT DUP1 DUP4 AND SWAP2 POP POP SWAP3 SWAP2 POP POP JUMP JUMPDEST PUSH0 PUSH2 0x176E DUP4 DUP4 PUSH2 0x1747 JUMP JUMPDEST SWAP2 POP DUP3 PUSH1 0x2 MUL DUP3 OR SWAP1 POP SWAP3 SWAP2 POP POP JUMP JUMPDEST PUSH2 0x1787 DUP3 PUSH2 0xF13 JUMP JUMPDEST PUSH8 0xFFFFFFFFFFFFFFFF DUP2 GT ISZERO PUSH2 0x17A0 JUMPI PUSH2 0x179F PUSH2 0xFEF JUMP JUMPDEST JUMPDEST PUSH2 0x17AA DUP3 SLOAD PUSH2 0x146B JUMP JUMPDEST PUSH2 0x17B5 DUP3 DUP3 DUP6 PUSH2 0x16F5 JUMP JUMPDEST PUSH0 PUSH1 0x20 SWAP1 POP PUSH1 0x1F DUP4 GT PUSH1 0x1 DUP2 EQ PUSH2 0x17E6 JUMPI PUSH0 DUP5 ISZERO PUSH2 0x17D4 JUMPI DUP3 DUP8 ADD MLOAD SWAP1 POP JUMPDEST PUSH2 0x17DE DUP6 DUP3 PUSH2 0x1763 JUMP JUMPDEST DUP7 SSTORE POP PUSH2 0x1845 JUMP JUMPDEST PUSH1 0x1F NOT DUP5 AND PUSH2 0x17F4 DUP7 PUSH2 0x15EA JUMP JUMPDEST PUSH0 JUMPDEST DUP3 DUP2 LT ISZERO PUSH2 0x181B JUMPI DUP5 DUP10 ADD MLOAD DUP3 SSTORE PUSH1 0x1 DUP3 ADD SWAP2 POP PUSH1 0x20 DUP6 ADD SWAP5 POP PUSH1 0x20 DUP2 ADD SWAP1 POP PUSH2 0x17F6 JUMP JUMPDEST DUP7 DUP4 LT ISZERO PUSH2 0x1838 JUMPI DUP5 DUP10 ADD MLOAD PUSH2 0x1834 PUSH1 0x1F DUP10 AND DUP3 PUSH2 0x1747 JUMP JUMPDEST DUP4 SSTORE POP JUMPDEST PUSH1 0x1 PUSH1 0x2 DUP9 MUL ADD DUP9 SSTORE POP POP POP JUMPDEST POP POP POP POP POP POP JUMP JUMPDEST PUSH32 0x4E487B7100000000000000000000000000000000000000000000000000000000 PUSH0 MSTORE PUSH1 0x32 PUSH1 0x4 MSTORE PUSH1 0x24 PUSH0 REVERT JUMPDEST PUSH0 PUSH1 0x60 DUP3 ADD SWAP1 POP PUSH2 0x188D PUSH0 DUP4 ADD DUP7 PUSH2 0xF04 JUMP JUMPDEST DUP2 DUP2 SUB PUSH1 0x20 DUP4 ADD MSTORE PUSH2 0x189F DUP2 DUP6 PUSH2 0xF4B JUMP JUMPDEST SWAP1 POP PUSH2 0x18AE PUSH1 0x40 DUP4 ADD DUP5 PUSH2 0xEB1 JUMP JUMPDEST SWAP5 SWAP4 POP POP POP POP JUMP INVALID LOG2 PUSH5 0x6970667358 0x22 SLT KECCAK256 SWAP15 0xD4 CALLVALUE XOR 0x4B 0xA8 CALLDATACOPY 0xB9 PUSH9 0x11C5C9C955E49A90E6 RETURNDATACOPY MSTORE8 0xE9 0xC5 0xC1 0xB2 CALLCODE ORIGIN PUSH7 0x697432D7966473 PUSH16 0x6C634300081A00330000000000000000 "
				},
				"gasEstimates": {
					"creation": {
						"codeDepositCost": "1276000",
						"executionCost": "infinite",
						"totalCost": "infinite"
					},
					"external": {
						"addVerifier(address)": "26972",
						"authorisedVerifiers(address)": "2943",
						"getHistory(uint256)": "infinite",
						"manufacturer()": "2553",
						"mintContract()": "infinite",
						"products(uint256)": "infinite",
						"register(uint256,string)": "infinite",
						"saleContract()": "2596",
						"setSaleContract(address)": "26885",
						"transferOwnership(uint256,address)": "infinite",
						"verify(uint256)": "infinite"
					}
				},
				"methodIdentifiers": {
					"addVerifier(address)": "9000b3d6",
					"authorisedVerifiers(address)": "f9281222",
					"getHistory(uint256)": "c8691b2a",
					"manufacturer()": "74754282",
					"mintContract()": "d0b6b6db",
					"products(uint256)": "7acc0b20",
					"register(uint256,string)": "a00fd3c8",
					"saleContract()": "daf6ca30",
					"setSaleContract(address)": "0593d244",
					"transferOwnership(uint256,address)": "29507f73",
					"verify(uint256)": "8753367f"
				}
			},
			"storageLayout": {
				"storage": [
					{
						"astId": 12,
						"contract": "Control.sol:ControlContract",
						"label": "mintContract",
						"offset": 0,
						"slot": "0",
						"type": "t_contract(ISimpleMint)9"
					},
					{
						"astId": 14,
						"contract": "Control.sol:ControlContract",
						"label": "manufacturer",
						"offset": 0,
						"slot": "1",
						"type": "t_address"
					},
					{
						"astId": 16,
						"contract": "Control.sol:ControlContract",
						"label": "saleContract",
						"offset": 0,
						"slot": "2",
						"type": "t_address"
					},
					{
						"astId": 33,
						"contract": "Control.sol:ControlContract",
						"label": "products",
						"offset": 0,
						"slot": "3",
						"type": "t_mapping(t_uint256,t_struct(Product)28_storage)"
					},
					{
						"astId": 37,
						"contract": "Control.sol:ControlContract",
						"label": "authorisedVerifiers",
						"offset": 0,
						"slot": "4",
						"type": "t_mapping(t_address,t_bool)"
					}
				],
				"types": {
					"t_address": {
						"encoding": "inplace",
						"label": "address",
						"numberOfBytes": "20"
					},
					"t_array(t_address)dyn_storage": {
						"base": "t_address",
						"encoding": "dynamic_array",
						"label": "address[]",
						"numberOfBytes": "32"
					},
					"t_bool": {
						"encoding": "inplace",
						"label": "bool",
						"numberOfBytes": "1"
					},
					"t_contract(ISimpleMint)9": {
						"encoding": "inplace",
						"label": "contract ISimpleMint",
						"numberOfBytes": "20"
					},
					"t_mapping(t_address,t_bool)": {
						"encoding": "mapping",
						"key": "t_address",
						"label": "mapping(address => bool)",
						"numberOfBytes": "32",
						"value": "t_bool"
					},
					"t_mapping(t_uint256,t_struct(Product)28_storage)": {
						"encoding": "mapping",
						"key": "t_uint256",
						"label": "mapping(uint256 => struct ControlContract.Product)",
						"numberOfBytes": "32",
						"value": "t_struct(Product)28_storage"
					},
					"t_string_storage": {
						"encoding": "bytes",
						"label": "string",
						"numberOfBytes": "32"
					},
					"t_struct(Product)28_storage": {
						"encoding": "inplace",
						"label": "struct ControlContract.Product",
						"members": [
							{
								"astId": 18,
								"contract": "Control.sol:ControlContract",
								"label": "tokenID",
								"offset": 0,
								"slot": "0",
								"type": "t_uint256"
							},
							{
								"astId": 20,
								"contract": "Control.sol:ControlContract",
								"label": "qrCode",
								"offset": 0,
								"slot": "1",
								"type": "t_string_storage"
							},
							{
								"astId": 22,
								"contract": "Control.sol:ControlContract",
								"label": "verified",
								"offset": 0,
								"slot": "2",
								"type": "t_bool"
							},
							{
								"astId": 24,
								"contract": "Control.sol:ControlContract",
								"label": "currentOwner",
								"offset": 1,
								"slot": "2",
								"type": "t_address"
							},
							{
								"astId": 27,
								"contract": "Control.sol:ControlContract",
								"label": "history",
								"offset": 0,
								"slot": "3",
								"type": "t_array(t_address)dyn_storage"
							}
						],
						"numberOfBytes": "128"
					},
					"t_uint256": {
						"encoding": "inplace",
						"label": "uint256",
						"numberOfBytes": "32"
					}
				}
			},
			"userdoc": {
				"kind": "user",
				"methods": {},
				"version": 1
			}
		}
	}
}