{
	"MintContract.sol": {
		"SimpleMint": {
			"abi": [
				{
					"inputs": [],
					"stateMutability": "nonpayable",
					"type": "constructor"
				},
				{
					"anonymous": false,
					"inputs": [
						{
							"indexed": false,
							"internalType": "uint256",
							"name": "tokenId",
							"type": "uint256"
						},
						{
							"indexed": false,
							"internalType": "address",
							"name": "owner",
							"type": "address"
						}
					],
					"name": "Minted",
					"type": "event"
				},
				{
					"inputs": [
						{
							"internalType": "address",
							"name": "",
							"type": "address"
						}
					],
					"name": "approvedOperators",
					"outputs": [
						{
							"internalType": "bool",
							"name": "",
							"type": "bool"
						}
					],
					"stateMutability": "view",
					"type": "function"
				},
				{
					"inputs": [],
					"name": "controlContract",
					"outputs": [
						{
							"internalType": "address",
							"name": "",
							"type": "address"
						}
					],
					"stateMutability": "view",
					"type": "function"
				},
				{
					"inputs": [
						{
							"internalType": "uint256",
							"name": "tokenId",
							"type": "uint256"
						}
					],
					"name": "getMetadata",
					"outputs": [
						{
							"internalType": "string",
							"name": "",
							"type": "string"
						},
						{
							"internalType": "string",
							"name": "",
							"type": "string"
						},
						{
							"internalType": "string",
							"name": "",
							"type": "string"
						},
						{
							"internalType": "string",
							"name": "",
							"type": "string"
						}
					],
					"stateMutability": "view",
					"type": "function"
				},
				{
					"inputs": [],
					"name": "manufacturer",
					"outputs": [
						{
							"internalType": "address",
							"name": "",
							"type": "address"
						}
					],
					"stateMutability": "view",
					"type": "function"
				},
				{
					"inputs": [
						{
							"internalType": "string",
							"name": "brand",
							"type": "string"
						},
						{
							"internalType": "string",
							"name": "serialNumber",
							"type": "string"
						},
						{
							"internalType": "string",
							"name": "productType",
							"type": "string"
						},
						{
							"internalType": "string",
							"name": "material",
							"type": "string"
						}
					],
					"name": "mint",
					"outputs": [],
					"stateMutability": "nonpayable",
					"type": "function"
				},
				{
					"inputs": [
						{
							"internalType": "uint256",
							"name": "tokenId",
							"type": "uint256"
						}
					],
					"name": "ownerOf",
					"outputs": [
						{
							"internalType": "address",
							"name": "",
							"type": "address"
						}
					],
					"stateMutability": "view",
					"type": "function"
				},
				{
					"inputs": [],
					"name": "saleContract",
					"outputs": [
						{
							"internalType": "address",
							"name": "",
							"type": "address"
						}
					],
					"stateMutability": "view",
					"type": "function"
				},
				{
					"inputs": [
						{
							"internalType": "address",
							"name": "_controlContract",
							"type": "address"
						}
					],
					"name": "setControlContract",
					"outputs": [],
					"stateMutability": "nonpayable",
					"type": "function"
				},
				{
					"inputs": [
						{
							"internalType": "address",
							"name": "_saleContract",
							"type": "address"
						}
					],
					"name": "setSaleContract",
					"outputs": [],
					"stateMutability": "nonpayable",
					"type": "function"
				},
				{
					"inputs": [],
					"name": "tokenCounter",
					"outputs": [
						{
							"internalType": "uint256",
							"name": "",
							"type": "uint256"
						}
					],
					"stateMutability": "view",
					"type": "function"
				},
				{
					"inputs": [
						{
							"internalType": "uint256",
							"name": "",
							"type": "uint256"
						}
					],
					"name": "tokenMetadata",
					"outputs": [
						{
							"internalType": "string",
							"name": "brand",
							"type": "string"
						},
						{
							"internalType": "string",
							"name": "serialNumber",
							"type": "string"
						},
						{
							"internalType": "string",
							"name": "productType",
							"type": "string"
						},
						{
							"internalType": "string",
							"name": "material",
							"type": "string"
						}
					],
					"stateMutability": "view",
					"type": "function"
				},
				{
					"inputs": [
						{
							"internalType": "uint256",
							"name": "",
							"type": "uint256"
						}
					],
					"name": "tokenOwner",
					"outputs": [
						{
							"internalType": "address",
							"name": "",
							"type": "address"
						}
					],
					"stateMutability": "view",
					"type": "function"
				},
				{
					"inputs": [
						{
							"internalType": "address",
							"name": "from",
							"type": "address"
						},
						{
							"internalType": "address",
							"name": "to",
							"type": "address"
						},
						{
							"internalType": "uint256",
							"name": "tokenId",
							"type": "uint256"
						}
					],
					"name": "transferFrom",
					"outputs": [],
					"stateMutability": "nonpayable",
					"type": "function"
				}
			],
			"devdoc": {
				"kind": "dev",
				"methods": {},
				"version": 1
			},
			"evm": {
				"assembly": "    /* \"MintContract.sol\":158:2642  contract SimpleMint {... */\n  mstore(0x40, 0x80)\n    /* \"MintContract.sol\":699:784  constructor() {... */\n  callvalue\n  dup1\n  iszero\n  tag_1\n  jumpi\n  0x00\n  dup1\n  revert\ntag_1:\n  pop\n    /* \"MintContract.sol\":739:749  msg.sender */\n  caller\n    /* \"MintContract.sol\":724:736  manufacturer */\n  0x01\n  0x00\n    /* \"MintContract.sol\":724:749  manufacturer = msg.sender */\n  0x0100\n  exp\n  dup2\n  sload\n  dup2\n  0xffffffffffffffffffffffffffffffffffffffff\n  mul\n  not\n  and\n  swap1\n  dup4\n  0xffffffffffffffffffffffffffffffffffffffff\n  and\n  mul\n  or\n  swap1\n  sstore\n  pop\n    /* \"MintContract.sol\":775:776  0 */\n  0x00\n    /* \"MintContract.sol\":760:772  tokenCounter */\n  dup1\n    /* \"MintContract.sol\":760:776  tokenCounter = 0 */\n  dup2\n  swap1\n  sstore\n  pop\n    /* \"MintContract.sol\":158:2642  contract SimpleMint {... */\n  dataSize(sub_0)\n  dup1\n  dataOffset(sub_0)\n  0x00\n  codecopy\n  0x00\n  return\nstop\n\nsub_0: assembly {\n        /* \"MintContract.sol\":158:2642  contract SimpleMint {... */\n      mstore(0x40, 0x80)\n      callvalue\n      dup1\n      iszero\n      tag_1\n      jumpi\n      0x00\n      dup1\n      revert\n    tag_1:\n      pop\n      jumpi(tag_2, lt(calldatasize, 0x04))\n      shr(0xe0, calldataload(0x00))\n      dup1\n      0x6914db60\n      gt\n      tag_16\n      jumpi\n      dup1\n      0xca35e8a0\n      gt\n      tag_17\n      jumpi\n      dup1\n      0xca35e8a0\n      eq\n      tag_12\n      jumpi\n      dup1\n      0xd082e381\n      eq\n      tag_13\n      jumpi\n      dup1\n      0xdaf6ca30\n      eq\n      tag_14\n      jumpi\n      dup1\n      0xff721aba\n      eq\n      tag_15\n      jumpi\n      jump(tag_2)\n    tag_17:\n      dup1\n      0x6914db60\n      eq\n      tag_9\n      jumpi\n      dup1\n      0x74754282\n      eq\n      tag_10\n      jumpi\n      dup1\n      0xa574cea4\n      eq\n      tag_11\n      jumpi\n      jump(tag_2)\n    tag_16:\n      dup1\n      0x02341c71\n      eq\n      tag_3\n      jumpi\n      dup1\n      0x0593d244\n      eq\n      tag_4\n      jumpi\n      dup1\n      0x1caaa487\n      eq\n      tag_5\n      jumpi\n      dup1\n      0x23b872dd\n      eq\n      tag_6\n      jumpi\n      dup1\n      0x48ccfe47\n      eq\n      tag_7\n      jumpi\n      dup1\n      0x6352211e\n      eq\n      tag_8\n      jumpi\n    tag_2:\n      0x00\n      dup1\n      revert\n        /* \"MintContract.sol\":1382:1883  function mint(... */\n    tag_3:\n      tag_18\n      0x04\n      dup1\n      calldatasize\n      sub\n      dup2\n      add\n      swap1\n      tag_19\n      swap2\n      swap1\n      tag_20\n      jump\t// in\n    tag_19:\n      tag_21\n      jump\t// in\n    tag_18:\n      stop\n        /* \"MintContract.sol\":1122:1374  function setSaleContract(address _saleContract) public {... */\n    tag_4:\n      tag_22\n      0x04\n      dup1\n      calldatasize\n      sub\n      dup2\n      add\n      swap1\n      tag_23\n      swap2\n      swap1\n      tag_24\n      jump\t// in\n    tag_23:\n      tag_25\n      jump\t// in\n    tag_22:\n      stop\n        /* \"MintContract.sol\":536:581  mapping(uint256 => address) public tokenOwner */\n    tag_5:\n      tag_26\n      0x04\n      dup1\n      calldatasize\n      sub\n      dup2\n      add\n      swap1\n      tag_27\n      swap2\n      swap1\n      tag_28\n      jump\t// in\n    tag_27:\n      tag_29\n      jump\t// in\n    tag_26:\n      mload(0x40)\n      tag_30\n      swap2\n      swap1\n      tag_31\n      jump\t// in\n    tag_30:\n      mload(0x40)\n      dup1\n      swap2\n      sub\n      swap1\n      return\n        /* \"MintContract.sol\":1891:2158  function transferFrom(address from, address to, uint256 tokenId) public {... */\n    tag_6:\n      tag_32\n      0x04\n      dup1\n      calldatasize\n      sub\n      dup2\n      add\n      swap1\n      tag_33\n      swap2\n      swap1\n      tag_34\n      jump\t// in\n    tag_33:\n      tag_35\n      jump\t// in\n    tag_32:\n      stop\n        /* \"MintContract.sol\":253:283  address public controlContract */\n    tag_7:\n      tag_36\n      tag_37\n      jump\t// in\n    tag_36:\n      mload(0x40)\n      tag_38\n      swap2\n      swap1\n      tag_31\n      jump\t// in\n    tag_38:\n      mload(0x40)\n      dup1\n      swap2\n      sub\n      swap1\n      return\n        /* \"MintContract.sol\":2166:2357  function ownerOf(uint256 tokenId) public view returns (address) {... */\n    tag_8:\n      tag_39\n      0x04\n      dup1\n      calldatasize\n      sub\n      dup2\n      add\n      swap1\n      tag_40\n      swap2\n      swap1\n      tag_28\n      jump\t// in\n    tag_40:\n      tag_41\n      jump\t// in\n    tag_39:\n      mload(0x40)\n      tag_42\n      swap2\n      swap1\n      tag_31\n      jump\t// in\n    tag_42:\n      mload(0x40)\n      dup1\n      swap2\n      sub\n      swap1\n      return\n        /* \"MintContract.sol\":473:529  mapping(uint256 => ProductMetadata) public tokenMetadata */\n    tag_9:\n      tag_43\n      0x04\n      dup1\n      calldatasize\n      sub\n      dup2\n      add\n      swap1\n      tag_44\n      swap2\n      swap1\n      tag_28\n      jump\t// in\n    tag_44:\n      tag_45\n      jump\t// in\n    tag_43:\n      mload(0x40)\n      tag_46\n      swap5\n      swap4\n      swap3\n      swap2\n      swap1\n      tag_47\n      jump\t// in\n    tag_46:\n      mload(0x40)\n      dup1\n      swap2\n      sub\n      swap1\n      return\n        /* \"MintContract.sol\":219:246  address public manufacturer */\n    tag_10:\n      tag_48\n      tag_49\n      jump\t// in\n    tag_48:\n      mload(0x40)\n      tag_50\n      swap2\n      swap1\n      tag_31\n      jump\t// in\n    tag_50:\n      mload(0x40)\n      dup1\n      swap2\n      sub\n      swap1\n      return\n        /* \"MintContract.sol\":2365:2637  function getMetadata(uint256 tokenId) public view returns (string memory, string memory, string memory, string memory) {... */\n    tag_11:\n      tag_51\n      0x04\n      dup1\n      calldatasize\n      sub\n      dup2\n      add\n      swap1\n      tag_52\n      swap2\n      swap1\n      tag_28\n      jump\t// in\n    tag_52:\n      tag_53\n      jump\t// in\n    tag_51:\n      mload(0x40)\n      tag_54\n      swap5\n      swap4\n      swap3\n      swap2\n      swap1\n      tag_47\n      jump\t// in\n    tag_54:\n      mload(0x40)\n      dup1\n      swap2\n      sub\n      swap1\n      return\n        /* \"MintContract.sol\":844:1114  function setControlContract(address _controlContract) public {... */\n    tag_12:\n      tag_55\n      0x04\n      dup1\n      calldatasize\n      sub\n      dup2\n      add\n      swap1\n      tag_56\n      swap2\n      swap1\n      tag_24\n      jump\t// in\n    tag_56:\n      tag_57\n      jump\t// in\n    tag_55:\n      stop\n        /* \"MintContract.sol\":185:212  uint256 public tokenCounter */\n    tag_13:\n      tag_58\n      tag_59\n      jump\t// in\n    tag_58:\n      mload(0x40)\n      tag_60\n      swap2\n      swap1\n      tag_61\n      jump\t// in\n    tag_60:\n      mload(0x40)\n      dup1\n      swap2\n      sub\n      swap1\n      return\n        /* \"MintContract.sol\":290:317  address public saleContract */\n    tag_14:\n      tag_62\n      tag_63\n      jump\t// in\n    tag_62:\n      mload(0x40)\n      tag_64\n      swap2\n      swap1\n      tag_31\n      jump\t// in\n    tag_64:\n      mload(0x40)\n      dup1\n      swap2\n      sub\n      swap1\n      return\n        /* \"MintContract.sol\":588:637  mapping(address => bool) public approvedOperators */\n    tag_15:\n      tag_65\n      0x04\n      dup1\n      calldatasize\n      sub\n      dup2\n      add\n      swap1\n      tag_66\n      swap2\n      swap1\n      tag_24\n      jump\t// in\n    tag_66:\n      tag_67\n      jump\t// in\n    tag_65:\n      mload(0x40)\n      tag_68\n      swap2\n      swap1\n      tag_69\n      jump\t// in\n    tag_68:\n      mload(0x40)\n      dup1\n      swap2\n      sub\n      swap1\n      return\n        /* \"MintContract.sol\":1382:1883  function mint(... */\n    tag_21:\n        /* \"MintContract.sol\":1579:1591  manufacturer */\n      0x01\n      0x00\n      swap1\n      sload\n      swap1\n      0x0100\n      exp\n      swap1\n      div\n      0xffffffffffffffffffffffffffffffffffffffff\n      and\n        /* \"MintContract.sol\":1565:1591  msg.sender == manufacturer */\n      0xffffffffffffffffffffffffffffffffffffffff\n      and\n        /* \"MintContract.sol\":1565:1575  msg.sender */\n      caller\n        /* \"MintContract.sol\":1565:1591  msg.sender == manufacturer */\n      0xffffffffffffffffffffffffffffffffffffffff\n      and\n      eq\n        /* \"MintContract.sol\":1557:1622  require(msg.sender == manufacturer, \"Only manufacturer can mint\") */\n      tag_71\n      jumpi\n      mload(0x40)\n      0x08c379a000000000000000000000000000000000000000000000000000000000\n      dup2\n      mstore\n      0x04\n      add\n      tag_72\n      swap1\n      tag_73\n      jump\t// in\n    tag_72:\n      mload(0x40)\n      dup1\n      swap2\n      sub\n      swap1\n      revert\n    tag_71:\n        /* \"MintContract.sol\":1635:1647  tokenCounter */\n      0x00\n      dup1\n        /* \"MintContract.sol\":1635:1649  tokenCounter++ */\n      dup2\n      sload\n      dup1\n      swap3\n      swap2\n      swap1\n      tag_74\n      swap1\n      tag_75\n      jump\t// in\n    tag_74:\n      swap2\n      swap1\n      pop\n      sstore\n      pop\n        /* \"MintContract.sol\":1660:1675  uint256 tokenId */\n      0x00\n        /* \"MintContract.sol\":1678:1690  tokenCounter */\n      dup1\n      sload\n        /* \"MintContract.sol\":1660:1690  uint256 tokenId = tokenCounter */\n      swap1\n      pop\n        /* \"MintContract.sol\":1728:1787  ProductMetadata(brand, serialNumber, productType, material) */\n      mload(0x40)\n      dup1\n      0x80\n      add\n      0x40\n      mstore\n      dup1\n        /* \"MintContract.sol\":1744:1749  brand */\n      dup7\n        /* \"MintContract.sol\":1728:1787  ProductMetadata(brand, serialNumber, productType, material) */\n      dup2\n      mstore\n      0x20\n      add\n        /* \"MintContract.sol\":1751:1763  serialNumber */\n      dup6\n        /* \"MintContract.sol\":1728:1787  ProductMetadata(brand, serialNumber, productType, material) */\n      dup2\n      mstore\n      0x20\n      add\n        /* \"MintContract.sol\":1765:1776  productType */\n      dup5\n        /* \"MintContract.sol\":1728:1787  ProductMetadata(brand, serialNumber, productType, material) */\n      dup2\n      mstore\n      0x20\n      add\n        /* \"MintContract.sol\":1778:1786  material */\n      dup4\n        /* \"MintContract.sol\":1728:1787  ProductMetadata(brand, serialNumber, productType, material) */\n      dup2\n      mstore\n      pop\n        /* \"MintContract.sol\":1703:1716  tokenMetadata */\n      0x04\n        /* \"MintContract.sol\":1703:1725  tokenMetadata[tokenId] */\n      0x00\n        /* \"MintContract.sol\":1717:1724  tokenId */\n      dup4\n        /* \"MintContract.sol\":1703:1725  tokenMetadata[tokenId] */\n      dup2\n      mstore\n      0x20\n      add\n      swap1\n      dup2\n      mstore\n      0x20\n      add\n      0x00\n      keccak256\n        /* \"MintContract.sol\":1703:1787  tokenMetadata[tokenId] = ProductMetadata(brand, serialNumber, productType, material) */\n      0x00\n      dup3\n      add\n      mload\n      dup2\n      0x00\n      add\n      swap1\n      dup2\n      tag_76\n      swap2\n      swap1\n      tag_77\n      jump\t// in\n    tag_76:\n      pop\n      0x20\n      dup3\n      add\n      mload\n      dup2\n      0x01\n      add\n      swap1\n      dup2\n      tag_78\n      swap2\n      swap1\n      tag_77\n      jump\t// in\n    tag_78:\n      pop\n      0x40\n      dup3\n      add\n      mload\n      dup2\n      0x02\n      add\n      swap1\n      dup2\n      tag_79\n      swap2\n      swap1\n      tag_77\n      jump\t// in\n    tag_79:\n      pop\n      0x60\n      dup3\n      add\n      mload\n      dup2\n      0x03\n      add\n      swap1\n      dup2\n      tag_80\n      swap2\n      swap1\n      tag_77\n      jump\t// in\n    tag_80:\n      pop\n      swap1\n      pop\n      pop\n        /* \"MintContract.sol\":1820:1830  msg.sender */\n      caller\n        /* \"MintContract.sol\":1798:1808  tokenOwner */\n      0x05\n        /* \"MintContract.sol\":1798:1817  tokenOwner[tokenId] */\n      0x00\n        /* \"MintContract.sol\":1809:1816  tokenId */\n      dup4\n        /* \"MintContract.sol\":1798:1817  tokenOwner[tokenId] */\n      dup2\n      mstore\n      0x20\n      add\n      swap1\n      dup2\n      mstore\n      0x20\n      add\n      0x00\n      keccak256\n      0x00\n        /* \"MintContract.sol\":1798:1830  tokenOwner[tokenId] = msg.sender */\n      0x0100\n      exp\n      dup2\n      sload\n      dup2\n      0xffffffffffffffffffffffffffffffffffffffff\n      mul\n      not\n      and\n      swap1\n      dup4\n      0xffffffffffffffffffffffffffffffffffffffff\n      and\n      mul\n      or\n      swap1\n      sstore\n      pop\n        /* \"MintContract.sol\":1848:1875  Minted(tokenId, msg.sender) */\n      0xb9203d657e9c0ec8274c818292ab0f58b04e1970050716891770eb1bab5d655e\n        /* \"MintContract.sol\":1855:1862  tokenId */\n      dup2\n        /* \"MintContract.sol\":1864:1874  msg.sender */\n      caller\n        /* \"MintContract.sol\":1848:1875  Minted(tokenId, msg.sender) */\n      mload(0x40)\n      tag_81\n      swap3\n      swap2\n      swap1\n      tag_82\n      jump\t// in\n    tag_81:\n      mload(0x40)\n      dup1\n      swap2\n      sub\n      swap1\n      log1\n        /* \"MintContract.sol\":1546:1883  {... */\n      pop\n        /* \"MintContract.sol\":1382:1883  function mint(... */\n      pop\n      pop\n      pop\n      pop\n      jump\t// out\n        /* \"MintContract.sol\":1122:1374  function setSaleContract(address _saleContract) public {... */\n    tag_25:\n        /* \"MintContract.sol\":1210:1222  manufacturer */\n      0x01\n      0x00\n      swap1\n      sload\n      swap1\n      0x0100\n      exp\n      swap1\n      div\n      0xffffffffffffffffffffffffffffffffffffffff\n      and\n        /* \"MintContract.sol\":1196:1222  msg.sender == manufacturer */\n      0xffffffffffffffffffffffffffffffffffffffff\n      and\n        /* \"MintContract.sol\":1196:1206  msg.sender */\n      caller\n        /* \"MintContract.sol\":1196:1222  msg.sender == manufacturer */\n      0xffffffffffffffffffffffffffffffffffffffff\n      and\n      eq\n        /* \"MintContract.sol\":1188:1252  require(msg.sender == manufacturer, \"Only manufacturer can set\") */\n      tag_84\n      jumpi\n      mload(0x40)\n      0x08c379a000000000000000000000000000000000000000000000000000000000\n      dup2\n      mstore\n      0x04\n      add\n      tag_85\n      swap1\n      tag_86\n      jump\t// in\n    tag_85:\n      mload(0x40)\n      dup1\n      swap2\n      sub\n      swap1\n      revert\n    tag_84:\n        /* \"MintContract.sol\":1295:1296  0 */\n      0x00\n        /* \"MintContract.sol\":1271:1297  saleContract == address(0) */\n      0xffffffffffffffffffffffffffffffffffffffff\n      and\n        /* \"MintContract.sol\":1271:1283  saleContract */\n      0x03\n      0x00\n      swap1\n      sload\n      swap1\n      0x0100\n      exp\n      swap1\n      div\n      0xffffffffffffffffffffffffffffffffffffffff\n      and\n        /* \"MintContract.sol\":1271:1297  saleContract == address(0) */\n      0xffffffffffffffffffffffffffffffffffffffff\n      and\n      eq\n        /* \"MintContract.sol\":1263:1327  require(saleContract == address(0), \"Sale contract already set\") */\n      tag_87\n      jumpi\n      mload(0x40)\n      0x08c379a000000000000000000000000000000000000000000000000000000000\n      dup2\n      mstore\n      0x04\n      add\n      tag_88\n      swap1\n      tag_89\n      jump\t// in\n    tag_88:\n      mload(0x40)\n      dup1\n      swap2\n      sub\n      swap1\n      revert\n    tag_87:\n        /* \"MintContract.sol\":1353:1366  _saleContract */\n      dup1\n        /* \"MintContract.sol\":1338:1350  saleContract */\n      0x03\n      0x00\n        /* \"MintContract.sol\":1338:1366  saleContract = _saleContract */\n      0x0100\n      exp\n      dup2\n      sload\n      dup2\n      0xffffffffffffffffffffffffffffffffffffffff\n      mul\n      not\n      and\n      swap1\n      dup4\n      0xffffffffffffffffffffffffffffffffffffffff\n      and\n      mul\n      or\n      swap1\n      sstore\n      pop\n        /* \"MintContract.sol\":1122:1374  function setSaleContract(address _saleContract) public {... */\n      pop\n      jump\t// out\n        /* \"MintContract.sol\":536:581  mapping(uint256 => address) public tokenOwner */\n    tag_29:\n      mstore(0x20, 0x05)\n      dup1\n      0x00\n      mstore\n      keccak256(0x00, 0x40)\n      0x00\n      swap2\n      pop\n      sload\n      swap1\n      0x0100\n      exp\n      swap1\n      div\n      0xffffffffffffffffffffffffffffffffffffffff\n      and\n      dup2\n      jump\t// out\n        /* \"MintContract.sol\":1891:2158  function transferFrom(address from, address to, uint256 tokenId) public {... */\n    tag_35:\n        /* \"MintContract.sol\":1996:2008  saleContract */\n      0x03\n      0x00\n      swap1\n      sload\n      swap1\n      0x0100\n      exp\n      swap1\n      div\n      0xffffffffffffffffffffffffffffffffffffffff\n      and\n        /* \"MintContract.sol\":1982:2008  msg.sender == saleContract */\n      0xffffffffffffffffffffffffffffffffffffffff\n      and\n        /* \"MintContract.sol\":1982:1992  msg.sender */\n      caller\n        /* \"MintContract.sol\":1982:2008  msg.sender == saleContract */\n      0xffffffffffffffffffffffffffffffffffffffff\n      and\n      eq\n        /* \"MintContract.sol\":1974:2043  require(msg.sender == saleContract, \"Only SaleContract can transfer\") */\n      tag_91\n      jumpi\n      mload(0x40)\n      0x08c379a000000000000000000000000000000000000000000000000000000000\n      dup2\n      mstore\n      0x04\n      add\n      tag_92\n      swap1\n      tag_93\n      jump\t// in\n    tag_92:\n      mload(0x40)\n      dup1\n      swap2\n      sub\n      swap1\n      revert\n    tag_91:\n        /* \"MintContract.sol\":2085:2089  from */\n      dup3\n        /* \"MintContract.sol\":2062:2089  tokenOwner[tokenId] == from */\n      0xffffffffffffffffffffffffffffffffffffffff\n      and\n        /* \"MintContract.sol\":2062:2072  tokenOwner */\n      0x05\n        /* \"MintContract.sol\":2062:2081  tokenOwner[tokenId] */\n      0x00\n        /* \"MintContract.sol\":2073:2080  tokenId */\n      dup4\n        /* \"MintContract.sol\":2062:2081  tokenOwner[tokenId] */\n      dup2\n      mstore\n      0x20\n      add\n      swap1\n      dup2\n      mstore\n      0x20\n      add\n      0x00\n      keccak256\n      0x00\n      swap1\n      sload\n      swap1\n      0x0100\n      exp\n      swap1\n      div\n      0xffffffffffffffffffffffffffffffffffffffff\n      and\n        /* \"MintContract.sol\":2062:2089  tokenOwner[tokenId] == from */\n      0xffffffffffffffffffffffffffffffffffffffff\n      and\n      eq\n        /* \"MintContract.sol\":2054:2113  require(tokenOwner[tokenId] == from, \"Not the token owner\") */\n      tag_94\n      jumpi\n      mload(0x40)\n      0x08c379a000000000000000000000000000000000000000000000000000000000\n      dup2\n      mstore\n      0x04\n      add\n      tag_95\n      swap1\n      tag_96\n      jump\t// in\n    tag_95:\n      mload(0x40)\n      dup1\n      swap2\n      sub\n      swap1\n      revert\n    tag_94:\n        /* \"MintContract.sol\":2148:2150  to */\n      dup2\n        /* \"MintContract.sol\":2126:2136  tokenOwner */\n      0x05\n        /* \"MintContract.sol\":2126:2145  tokenOwner[tokenId] */\n      0x00\n        /* \"MintContract.sol\":2137:2144  tokenId */\n      dup4\n        /* \"MintContract.sol\":2126:2145  tokenOwner[tokenId] */\n      dup2\n      mstore\n      0x20\n      add\n      swap1\n      dup2\n      mstore\n      0x20\n      add\n      0x00\n      keccak256\n      0x00\n        /* \"MintContract.sol\":2126:2150  tokenOwner[tokenId] = to */\n      0x0100\n      exp\n      dup2\n      sload\n      dup2\n      0xffffffffffffffffffffffffffffffffffffffff\n      mul\n      not\n      and\n      swap1\n      dup4\n      0xffffffffffffffffffffffffffffffffffffffff\n      and\n      mul\n      or\n      swap1\n      sstore\n      pop\n        /* \"MintContract.sol\":1891:2158  function transferFrom(address from, address to, uint256 tokenId) public {... */\n      pop\n      pop\n      pop\n      jump\t// out\n        /* \"MintContract.sol\":253:283  address public controlContract */\n    tag_37:\n      0x02\n      0x00\n      swap1\n      sload\n      swap1\n      0x0100\n      exp\n      swap1\n      div\n      0xffffffffffffffffffffffffffffffffffffffff\n      and\n      dup2\n      jump\t// out\n        /* \"MintContract.sol\":2166:2357  function ownerOf(uint256 tokenId) public view returns (address) {... */\n    tag_41:\n        /* \"MintContract.sol\":2221:2228  address */\n      0x00\n        /* \"MintContract.sol\":2259:2260  0 */\n      dup1\n        /* \"MintContract.sol\":2249:2256  tokenId */\n      dup3\n        /* \"MintContract.sol\":2249:2260  tokenId > 0 */\n      gt\n        /* \"MintContract.sol\":2249:2287  tokenId > 0 && tokenId <= tokenCounter */\n      dup1\n      iszero\n      tag_98\n      jumpi\n      pop\n        /* \"MintContract.sol\":2275:2287  tokenCounter */\n      sload(0x00)\n        /* \"MintContract.sol\":2264:2271  tokenId */\n      dup3\n        /* \"MintContract.sol\":2264:2287  tokenId <= tokenCounter */\n      gt\n      iszero\n        /* \"MintContract.sol\":2249:2287  tokenId > 0 && tokenId <= tokenCounter */\n    tag_98:\n        /* \"MintContract.sol\":2241:2312  require(tokenId > 0 && tokenId <= tokenCounter, \"Token does not exist\") */\n      tag_99\n      jumpi\n      mload(0x40)\n      0x08c379a000000000000000000000000000000000000000000000000000000000\n      dup2\n      mstore\n      0x04\n      add\n      tag_100\n      swap1\n      tag_101\n      jump\t// in\n    tag_100:\n      mload(0x40)\n      dup1\n      swap2\n      sub\n      swap1\n      revert\n    tag_99:\n        /* \"MintContract.sol\":2330:2340  tokenOwner */\n      0x05\n        /* \"MintContract.sol\":2330:2349  tokenOwner[tokenId] */\n      0x00\n        /* \"MintContract.sol\":2341:2348  tokenId */\n      dup4\n        /* \"MintContract.sol\":2330:2349  tokenOwner[tokenId] */\n      dup2\n      mstore\n      0x20\n      add\n      swap1\n      dup2\n      mstore\n      0x20\n      add\n      0x00\n      keccak256\n      0x00\n      swap1\n      sload\n      swap1\n      0x0100\n      exp\n      swap1\n      div\n      0xffffffffffffffffffffffffffffffffffffffff\n      and\n        /* \"MintContract.sol\":2323:2349  return tokenOwner[tokenId] */\n      swap1\n      pop\n        /* \"MintContract.sol\":2166:2357  function ownerOf(uint256 tokenId) public view returns (address) {... */\n      swap2\n      swap1\n      pop\n      jump\t// out\n        /* \"MintContract.sol\":473:529  mapping(uint256 => ProductMetadata) public tokenMetadata */\n    tag_45:\n      mstore(0x20, 0x04)\n      dup1\n      0x00\n      mstore\n      keccak256(0x00, 0x40)\n      0x00\n      swap2\n      pop\n      swap1\n      pop\n      dup1\n      0x00\n      add\n      dup1\n      sload\n      tag_102\n      swap1\n      tag_103\n      jump\t// in\n    tag_102:\n      dup1\n      0x1f\n      add\n      0x20\n      dup1\n      swap2\n      div\n      mul\n      0x20\n      add\n      mload(0x40)\n      swap1\n      dup2\n      add\n      0x40\n      mstore\n      dup1\n      swap3\n      swap2\n      swap1\n      dup2\n      dup2\n      mstore\n      0x20\n      add\n      dup3\n      dup1\n      sload\n      tag_104\n      swap1\n      tag_103\n      jump\t// in\n    tag_104:\n      dup1\n      iszero\n      tag_105\n      jumpi\n      dup1\n      0x1f\n      lt\n      tag_106\n      jumpi\n      0x0100\n      dup1\n      dup4\n      sload\n      div\n      mul\n      dup4\n      mstore\n      swap2\n      0x20\n      add\n      swap2\n      jump(tag_105)\n    tag_106:\n      dup3\n      add\n      swap2\n      swap1\n      0x00\n      mstore\n      keccak256(0x00, 0x20)\n      swap1\n    tag_107:\n      dup2\n      sload\n      dup2\n      mstore\n      swap1\n      0x01\n      add\n      swap1\n      0x20\n      add\n      dup1\n      dup4\n      gt\n      tag_107\n      jumpi\n      dup3\n      swap1\n      sub\n      0x1f\n      and\n      dup3\n      add\n      swap2\n    tag_105:\n      pop\n      pop\n      pop\n      pop\n      pop\n      swap1\n      dup1\n      0x01\n      add\n      dup1\n      sload\n      tag_108\n      swap1\n      tag_103\n      jump\t// in\n    tag_108:\n      dup1\n      0x1f\n      add\n      0x20\n      dup1\n      swap2\n      div\n      mul\n      0x20\n      add\n      mload(0x40)\n      swap1\n      dup2\n      add\n      0x40\n      mstore\n      dup1\n      swap3\n      swap2\n      swap1\n      dup2\n      dup2\n      mstore\n      0x20\n      add\n      dup3\n      dup1\n      sload\n      tag_109\n      swap1\n      tag_103\n      jump\t// in\n    tag_109:\n      dup1\n      iszero\n      tag_110\n      jumpi\n      dup1\n      0x1f\n      lt\n      tag_111\n      jumpi\n      0x0100\n      dup1\n      dup4\n      sload\n      div\n      mul\n      dup4\n      mstore\n      swap2\n      0x20\n      add\n      swap2\n      jump(tag_110)\n    tag_111:\n      dup3\n      add\n      swap2\n      swap1\n      0x00\n      mstore\n      keccak256(0x00, 0x20)\n      swap1\n    tag_112:\n      dup2\n      sload\n      dup2\n      mstore\n      swap1\n      0x01\n      add\n      swap1\n      0x20\n      add\n      dup1\n      dup4\n      gt\n      tag_112\n      jumpi\n      dup3\n      swap1\n      sub\n      0x1f\n      and\n      dup3\n      add\n      swap2\n    tag_110:\n      pop\n      pop\n      pop\n      pop\n      pop\n      swap1\n      dup1\n      0x02\n      add\n      dup1\n      sload\n      tag_113\n      swap1\n      tag_103\n      jump\t// in\n    tag_113:\n      dup1\n      0x1f\n      add\n      0x20\n      dup1\n      swap2\n      div\n      mul\n      0x20\n      add\n      mload(0x40)\n      swap1\n      dup2\n      add\n      0x40\n      mstore\n      dup1\n      swap3\n      swap2\n      swap1\n      dup2\n      dup2\n      mstore\n      0x20\n      add\n      dup3\n      dup1\n      sload\n      tag_114\n      swap1\n      tag_103\n      jump\t// in\n    tag_114:\n      dup1\n      iszero\n      tag_115\n      jumpi\n      dup1\n      0x1f\n      lt\n      tag_116\n      jumpi\n      0x0100\n      dup1\n      dup4\n      sload\n      div\n      mul\n      dup4\n      mstore\n      swap2\n      0x20\n      add\n      swap2\n      jump(tag_115)\n    tag_116:\n      dup3\n      add\n      swap2\n      swap1\n      0x00\n      mstore\n      keccak256(0x00, 0x20)\n      swap1\n    tag_117:\n      dup2\n      sload\n      dup2\n      mstore\n      swap1\n      0x01\n      add\n      swap1\n      0x20\n      add\n      dup1\n      dup4\n      gt\n      tag_117\n      jumpi\n      dup3\n      swap1\n      sub\n      0x1f\n      and\n      dup3\n      add\n      swap2\n    tag_115:\n      pop\n      pop\n      pop\n      pop\n      pop\n      swap1\n      dup1\n      0x03\n      add\n      dup1\n      sload\n      tag_118\n      swap1\n      tag_103\n      jump\t// in\n    tag_118:\n      dup1\n      0x1f\n      add\n      0x20\n      dup1\n      swap2\n      div\n      mul\n      0x20\n      add\n      mload(0x40)\n      swap1\n      dup2\n      add\n      0x40\n      mstore\n      dup1\n      swap3\n      swap2\n      swap1\n      dup2\n      dup2\n      mstore\n      0x20\n      add\n      dup3\n      dup1\n      sload\n      tag_119\n      swap1\n      tag_103\n      jump\t// in\n    tag_119:\n      dup1\n      iszero\n      tag_120\n      jumpi\n      dup1\n      0x1f\n      lt\n      tag_121\n      jumpi\n      0x0100\n      dup1\n      dup4\n      sload\n      div\n      mul\n      dup4\n      mstore\n      swap2\n      0x20\n      add\n      swap2\n      jump(tag_120)\n    tag_121:\n      dup3\n      add\n      swap2\n      swap1\n      0x00\n      mstore\n      keccak256(0x00, 0x20)\n      swap1\n    tag_122:\n      dup2\n      sload\n      dup2\n      mstore\n      swap1\n      0x01\n      add\n      swap1\n      0x20\n      add\n      dup1\n      dup4\n      gt\n      tag_122\n      jumpi\n      dup3\n      swap1\n      sub\n      0x1f\n      and\n      dup3\n      add\n      swap2\n    tag_120:\n      pop\n      pop\n      pop\n      pop\n      pop\n      swap1\n      pop\n      dup5\n      jump\t// out\n        /* \"MintContract.sol\":219:246  address public manufacturer */\n    tag_49:\n      0x01\n      0x00\n      swap1\n      sload\n      swap1\n      0x0100\n      exp\n      swap1\n      div\n      0xffffffffffffffffffffffffffffffffffffffff\n      and\n      dup2\n      jump\t// out\n        /* \"MintContract.sol\":2365:2637  function getMetadata(uint256 tokenId) public view returns (string memory, string memory, string memory, string memory) {... */\n    tag_53:\n        /* \"MintContract.sol\":2424:2437  string memory */\n      0x60\n        /* \"MintContract.sol\":2439:2452  string memory */\n      dup1\n        /* \"MintContract.sol\":2454:2467  string memory */\n      0x60\n        /* \"MintContract.sol\":2469:2482  string memory */\n      dup1\n        /* \"MintContract.sol\":2495:2522  ProductMetadata memory data */\n      0x00\n        /* \"MintContract.sol\":2525:2538  tokenMetadata */\n      0x04\n        /* \"MintContract.sol\":2525:2547  tokenMetadata[tokenId] */\n      0x00\n        /* \"MintContract.sol\":2539:2546  tokenId */\n      dup8\n        /* \"MintContract.sol\":2525:2547  tokenMetadata[tokenId] */\n      dup2\n      mstore\n      0x20\n      add\n      swap1\n      dup2\n      mstore\n      0x20\n      add\n      0x00\n      keccak256\n        /* \"MintContract.sol\":2495:2547  ProductMetadata memory data = tokenMetadata[tokenId] */\n      mload(0x40)\n      dup1\n      0x80\n      add\n      0x40\n      mstore\n      swap1\n      dup2\n      0x00\n      dup3\n      add\n      dup1\n      sload\n      tag_124\n      swap1\n      tag_103\n      jump\t// in\n    tag_124:\n      dup1\n      0x1f\n      add\n      0x20\n      dup1\n      swap2\n      div\n      mul\n      0x20\n      add\n      mload(0x40)\n      swap1\n      dup2\n      add\n      0x40\n      mstore\n      dup1\n      swap3\n      swap2\n      swap1\n      dup2\n      dup2\n      mstore\n      0x20\n      add\n      dup3\n      dup1\n      sload\n      tag_125\n      swap1\n      tag_103\n      jump\t// in\n    tag_125:\n      dup1\n      iszero\n      tag_126\n      jumpi\n      dup1\n      0x1f\n      lt\n      tag_127\n      jumpi\n      0x0100\n      dup1\n      dup4\n      sload\n      div\n      mul\n      dup4\n      mstore\n      swap2\n      0x20\n      add\n      swap2\n      jump(tag_126)\n    tag_127:\n      dup3\n      add\n      swap2\n      swap1\n      0x00\n      mstore\n      keccak256(0x00, 0x20)\n      swap1\n    tag_128:\n      dup2\n      sload\n      dup2\n      mstore\n      swap1\n      0x01\n      add\n      swap1\n      0x20\n      add\n      dup1\n      dup4\n      gt\n      tag_128\n      jumpi\n      dup3\n      swap1\n      sub\n      0x1f\n      and\n      dup3\n      add\n      swap2\n    tag_126:\n      pop\n      pop\n      pop\n      pop\n      pop\n      dup2\n      mstore\n      0x20\n      add\n      0x01\n      dup3\n      add\n      dup1\n      sload\n      tag_129\n      swap1\n      tag_103\n      jump\t// in\n    tag_129:\n      dup1\n      0x1f\n      add\n      0x20\n      dup1\n      swap2\n      div\n      mul\n      0x20\n      add\n      mload(0x40)\n      swap1\n      dup2\n      add\n      0x40\n      mstore\n      dup1\n      swap3\n      swap2\n      swap1\n      dup2\n      dup2\n      mstore\n      0x20\n      add\n      dup3\n      dup1\n      sload\n      tag_130\n      swap1\n      tag_103\n      jump\t// in\n    tag_130:\n      dup1\n      iszero\n      tag_131\n      jumpi\n      dup1\n      0x1f\n      lt\n      tag_132\n      jumpi\n      0x0100\n      dup1\n      dup4\n      sload\n      div\n      mul\n      dup4\n      mstore\n      swap2\n      0x20\n      add\n      swap2\n      jump(tag_131)\n    tag_132:\n      dup3\n      add\n      swap2\n      swap1\n      0x00\n      mstore\n      keccak256(0x00, 0x20)\n      swap1\n    tag_133:\n      dup2\n      sload\n      dup2\n      mstore\n      swap1\n      0x01\n      add\n      swap1\n      0x20\n      add\n      dup1\n      dup4\n      gt\n      tag_133\n      jumpi\n      dup3\n      swap1\n      sub\n      0x1f\n      and\n      dup3\n      add\n      swap2\n    tag_131:\n      pop\n      pop\n      pop\n      pop\n      pop\n      dup2\n      mstore\n      0x20\n      add\n      0x02\n      dup3\n      add\n      dup1\n      sload\n      tag_134\n      swap1\n      tag_103\n      jump\t// in\n    tag_134:\n      dup1\n      0x1f\n      add\n      0x20\n      dup1\n      swap2\n      div\n      mul\n      0x20\n      add\n      mload(0x40)\n      swap1\n      dup2\n      add\n      0x40\n      mstore\n      dup1\n      swap3\n      swap2\n      swap1\n      dup2\n      dup2\n      mstore\n      0x20\n      add\n      dup3\n      dup1\n      sload\n      tag_135\n      swap1\n      tag_103\n      jump\t// in\n    tag_135:\n      dup1\n      iszero\n      tag_136\n      jumpi\n      dup1\n      0x1f\n      lt\n      tag_137\n      jumpi\n      0x0100\n      dup1\n      dup4\n      sload\n      div\n      mul\n      dup4\n      mstore\n      swap2\n      0x20\n      add\n      swap2\n      jump(tag_136)\n    tag_137:\n      dup3\n      add\n      swap2\n      swap1\n      0x00\n      mstore\n      keccak256(0x00, 0x20)\n      swap1\n    tag_138:\n      dup2\n      sload\n      dup2\n      mstore\n      swap1\n      0x01\n      add\n      swap1\n      0x20\n      add\n      dup1\n      dup4\n      gt\n      tag_138\n      jumpi\n      dup3\n      swap1\n      sub\n      0x1f\n      and\n      dup3\n      add\n      swap2\n    tag_136:\n      pop\n      pop\n      pop\n      pop\n      pop\n      dup2\n      mstore\n      0x20\n      add\n      0x03\n      dup3\n      add\n      dup1\n      sload\n      tag_139\n      swap1\n      tag_103\n      jump\t// in\n    tag_139:\n      dup1\n      0x1f\n      add\n      0x20\n      dup1\n      swap2\n      div\n      mul\n      0x20\n      add\n      mload(0x40)\n      swap1\n      dup2\n      add\n      0x40\n      mstore\n      dup1\n      swap3\n      swap2\n      swap1\n      dup2\n      dup2\n      mstore\n      0x20\n      add\n      dup3\n      dup1\n      sload\n      tag_140\n      swap1\n      tag_103\n      jump\t// in\n    tag_140:\n      dup1\n      iszero\n      tag_141\n      jumpi\n      dup1\n      0x1f\n      lt\n      tag_142\n      jumpi\n      0x0100\n      dup1\n      dup4\n      sload\n      div\n      mul\n      dup4\n      mstore\n      swap2\n      0x20\n      add\n      swap2\n      jump(tag_141)\n    tag_142:\n      dup3\n      add\n      swap2\n      swap1\n      0x00\n      mstore\n      keccak256(0x00, 0x20)\n      swap1\n    tag_143:\n      dup2\n      sload\n      dup2\n      mstore\n      swap1\n      0x01\n      add\n      swap1\n      0x20\n      add\n      dup1\n      dup4\n      gt\n      tag_143\n      jumpi\n      dup3\n      swap1\n      sub\n      0x1f\n      and\n      dup3\n      add\n      swap2\n    tag_141:\n      pop\n      pop\n      pop\n      pop\n      pop\n      dup2\n      mstore\n      pop\n      pop\n      swap1\n      pop\n        /* \"MintContract.sol\":2566:2570  data */\n      dup1\n        /* \"MintContract.sol\":2566:2576  data.brand */\n      0x00\n      add\n      mload\n        /* \"MintContract.sol\":2578:2582  data */\n      dup2\n        /* \"MintContract.sol\":2578:2595  data.serialNumber */\n      0x20\n      add\n      mload\n        /* \"MintContract.sol\":2597:2601  data */\n      dup3\n        /* \"MintContract.sol\":2597:2613  data.productType */\n      0x40\n      add\n      mload\n        /* \"MintContract.sol\":2615:2619  data */\n      dup4\n        /* \"MintContract.sol\":2615:2628  data.material */\n      0x60\n      add\n      mload\n        /* \"MintContract.sol\":2558:2629  return (data.brand, data.serialNumber, data.productType, data.material) */\n      swap5\n      pop\n      swap5\n      pop\n      swap5\n      pop\n      swap5\n      pop\n      pop\n        /* \"MintContract.sol\":2365:2637  function getMetadata(uint256 tokenId) public view returns (string memory, string memory, string memory, string memory) {... */\n      swap2\n      swap4\n      pop\n      swap2\n      swap4\n      jump\t// out\n        /* \"MintContract.sol\":844:1114  function setControlContract(address _controlContract) public {... */\n    tag_57:\n        /* \"MintContract.sol\":938:950  manufacturer */\n      0x01\n      0x00\n      swap1\n      sload\n      swap1\n      0x0100\n      exp\n      swap1\n      div\n      0xffffffffffffffffffffffffffffffffffffffff\n      and\n        /* \"MintContract.sol\":924:950  msg.sender == manufacturer */\n      0xffffffffffffffffffffffffffffffffffffffff\n      and\n        /* \"MintContract.sol\":924:934  msg.sender */\n      caller\n        /* \"MintContract.sol\":924:950  msg.sender == manufacturer */\n      0xffffffffffffffffffffffffffffffffffffffff\n      and\n      eq\n        /* \"MintContract.sol\":916:980  require(msg.sender == manufacturer, \"Only manufacturer can set\") */\n      tag_145\n      jumpi\n      mload(0x40)\n      0x08c379a000000000000000000000000000000000000000000000000000000000\n      dup2\n      mstore\n      0x04\n      add\n      tag_146\n      swap1\n      tag_86\n      jump\t// in\n    tag_146:\n      mload(0x40)\n      dup1\n      swap2\n      sub\n      swap1\n      revert\n    tag_145:\n        /* \"MintContract.sol\":1026:1027  0 */\n      0x00\n        /* \"MintContract.sol\":999:1028  controlContract == address(0) */\n      0xffffffffffffffffffffffffffffffffffffffff\n      and\n        /* \"MintContract.sol\":999:1014  controlContract */\n      0x02\n      0x00\n      swap1\n      sload\n      swap1\n      0x0100\n      exp\n      swap1\n      div\n      0xffffffffffffffffffffffffffffffffffffffff\n      and\n        /* \"MintContract.sol\":999:1028  controlContract == address(0) */\n      0xffffffffffffffffffffffffffffffffffffffff\n      and\n      eq\n        /* \"MintContract.sol\":991:1061  require(controlContract == address(0), \"Control contract already set\") */\n      tag_147\n      jumpi\n      mload(0x40)\n      0x08c379a000000000000000000000000000000000000000000000000000000000\n      dup2\n      mstore\n      0x04\n      add\n      tag_148\n      swap1\n      tag_149\n      jump\t// in\n    tag_148:\n      mload(0x40)\n      dup1\n      swap2\n      sub\n      swap1\n      revert\n    tag_147:\n        /* \"MintContract.sol\":1090:1106  _controlContract */\n      dup1\n        /* \"MintContract.sol\":1072:1087  controlContract */\n      0x02\n      0x00\n        /* \"MintContract.sol\":1072:1106  controlContract = _controlContract */\n      0x0100\n      exp\n      dup2\n      sload\n      dup2\n      0xffffffffffffffffffffffffffffffffffffffff\n      mul\n      not\n      and\n      swap1\n      dup4\n      0xffffffffffffffffffffffffffffffffffffffff\n      and\n      mul\n      or\n      swap1\n      sstore\n      pop\n        /* \"MintContract.sol\":844:1114  function setControlContract(address _controlContract) public {... */\n      pop\n      jump\t// out\n        /* \"MintContract.sol\":185:212  uint256 public tokenCounter */\n    tag_59:\n      sload(0x00)\n      dup2\n      jump\t// out\n        /* \"MintContract.sol\":290:317  address public saleContract */\n    tag_63:\n      0x03\n      0x00\n      swap1\n      sload\n      swap1\n      0x0100\n      exp\n      swap1\n      div\n      0xffffffffffffffffffffffffffffffffffffffff\n      and\n      dup2\n      jump\t// out\n        /* \"MintContract.sol\":588:637  mapping(address => bool) public approvedOperators */\n    tag_67:\n      mstore(0x20, 0x06)\n      dup1\n      0x00\n      mstore\n      keccak256(0x00, 0x40)\n      0x00\n      swap2\n      pop\n      sload\n      swap1\n      0x0100\n      exp\n      swap1\n      div\n      0xff\n      and\n      dup2\n      jump\t// out\n        /* \"#utility.yul\":7:82   */\n    tag_150:\n        /* \"#utility.yul\":40:46   */\n      0x00\n        /* \"#utility.yul\":73:75   */\n      0x40\n        /* \"#utility.yul\":67:76   */\n      mload\n        /* \"#utility.yul\":57:76   */\n      swap1\n      pop\n        /* \"#utility.yul\":7:82   */\n      swap1\n      jump\t// out\n        /* \"#utility.yul\":88:205   */\n    tag_151:\n        /* \"#utility.yul\":197:198   */\n      0x00\n        /* \"#utility.yul\":194:195   */\n      dup1\n        /* \"#utility.yul\":187:199   */\n      revert\n        /* \"#utility.yul\":211:328   */\n    tag_152:\n        /* \"#utility.yul\":320:321   */\n      0x00\n        /* \"#utility.yul\":317:318   */\n      dup1\n        /* \"#utility.yul\":310:322   */\n      revert\n        /* \"#utility.yul\":334:451   */\n    tag_153:\n        /* \"#utility.yul\":443:444   */\n      0x00\n        /* \"#utility.yul\":440:441   */\n      dup1\n        /* \"#utility.yul\":433:445   */\n      revert\n        /* \"#utility.yul\":457:574   */\n    tag_154:\n        /* \"#utility.yul\":566:567   */\n      0x00\n        /* \"#utility.yul\":563:564   */\n      dup1\n        /* \"#utility.yul\":556:568   */\n      revert\n        /* \"#utility.yul\":580:682   */\n    tag_155:\n        /* \"#utility.yul\":621:627   */\n      0x00\n        /* \"#utility.yul\":672:674   */\n      0x1f\n        /* \"#utility.yul\":668:675   */\n      not\n        /* \"#utility.yul\":663:665   */\n      0x1f\n        /* \"#utility.yul\":656:661   */\n      dup4\n        /* \"#utility.yul\":652:666   */\n      add\n        /* \"#utility.yul\":648:676   */\n      and\n        /* \"#utility.yul\":638:676   */\n      swap1\n      pop\n        /* \"#utility.yul\":580:682   */\n      swap2\n      swap1\n      pop\n      jump\t// out\n        /* \"#utility.yul\":688:868   */\n    tag_156:\n        /* \"#utility.yul\":736:813   */\n      0x4e487b7100000000000000000000000000000000000000000000000000000000\n        /* \"#utility.yul\":733:734   */\n      0x00\n        /* \"#utility.yul\":726:814   */\n      mstore\n        /* \"#utility.yul\":833:837   */\n      0x41\n        /* \"#utility.yul\":830:831   */\n      0x04\n        /* \"#utility.yul\":823:838   */\n      mstore\n        /* \"#utility.yul\":857:861   */\n      0x24\n        /* \"#utility.yul\":854:855   */\n      0x00\n        /* \"#utility.yul\":847:862   */\n      revert\n        /* \"#utility.yul\":874:1155   */\n    tag_157:\n        /* \"#utility.yul\":957:984   */\n      tag_218\n        /* \"#utility.yul\":979:983   */\n      dup3\n        /* \"#utility.yul\":957:984   */\n      tag_155\n      jump\t// in\n    tag_218:\n        /* \"#utility.yul\":949:955   */\n      dup2\n        /* \"#utility.yul\":945:985   */\n      add\n        /* \"#utility.yul\":1087:1093   */\n      dup2\n        /* \"#utility.yul\":1075:1085   */\n      dup2\n        /* \"#utility.yul\":1072:1094   */\n      lt\n        /* \"#utility.yul\":1051:1069   */\n      0xffffffffffffffff\n        /* \"#utility.yul\":1039:1049   */\n      dup3\n        /* \"#utility.yul\":1036:1070   */\n      gt\n        /* \"#utility.yul\":1033:1095   */\n      or\n        /* \"#utility.yul\":1030:1118   */\n      iszero\n      tag_219\n      jumpi\n        /* \"#utility.yul\":1098:1116   */\n      tag_220\n      tag_156\n      jump\t// in\n    tag_220:\n        /* \"#utility.yul\":1030:1118   */\n    tag_219:\n        /* \"#utility.yul\":1138:1148   */\n      dup1\n        /* \"#utility.yul\":1134:1136   */\n      0x40\n        /* \"#utility.yul\":1127:1149   */\n      mstore\n        /* \"#utility.yul\":917:1155   */\n      pop\n        /* \"#utility.yul\":874:1155   */\n      pop\n      pop\n      jump\t// out\n        /* \"#utility.yul\":1161:1290   */\n    tag_158:\n        /* \"#utility.yul\":1195:1201   */\n      0x00\n        /* \"#utility.yul\":1222:1242   */\n      tag_222\n      tag_150\n      jump\t// in\n    tag_222:\n        /* \"#utility.yul\":1212:1242   */\n      swap1\n      pop\n        /* \"#utility.yul\":1251:1284   */\n      tag_223\n        /* \"#utility.yul\":1279:1283   */\n      dup3\n        /* \"#utility.yul\":1271:1277   */\n      dup3\n        /* \"#utility.yul\":1251:1284   */\n      tag_157\n      jump\t// in\n    tag_223:\n        /* \"#utility.yul\":1161:1290   */\n      swap2\n      swap1\n      pop\n      jump\t// out\n        /* \"#utility.yul\":1296:1604   */\n    tag_159:\n        /* \"#utility.yul\":1358:1362   */\n      0x00\n        /* \"#utility.yul\":1448:1466   */\n      0xffffffffffffffff\n        /* \"#utility.yul\":1440:1446   */\n      dup3\n        /* \"#utility.yul\":1437:1467   */\n      gt\n        /* \"#utility.yul\":1434:1490   */\n      iszero\n      tag_225\n      jumpi\n        /* \"#utility.yul\":1470:1488   */\n      tag_226\n      tag_156\n      jump\t// in\n    tag_226:\n        /* \"#utility.yul\":1434:1490   */\n    tag_225:\n        /* \"#utility.yul\":1508:1537   */\n      tag_227\n        /* \"#utility.yul\":1530:1536   */\n      dup3\n        /* \"#utility.yul\":1508:1537   */\n      tag_155\n      jump\t// in\n    tag_227:\n        /* \"#utility.yul\":1500:1537   */\n      swap1\n      pop\n        /* \"#utility.yul\":1592:1596   */\n      0x20\n        /* \"#utility.yul\":1586:1590   */\n      dup2\n        /* \"#utility.yul\":1582:1597   */\n      add\n        /* \"#utility.yul\":1574:1597   */\n      swap1\n      pop\n        /* \"#utility.yul\":1296:1604   */\n      swap2\n      swap1\n      pop\n      jump\t// out\n        /* \"#utility.yul\":1610:1758   */\n    tag_160:\n        /* \"#utility.yul\":1708:1714   */\n      dup3\n        /* \"#utility.yul\":1703:1706   */\n      dup2\n        /* \"#utility.yul\":1698:1701   */\n      dup4\n        /* \"#utility.yul\":1685:1715   */\n      calldatacopy\n        /* \"#utility.yul\":1749:1750   */\n      0x00\n        /* \"#utility.yul\":1740:1746   */\n      dup4\n        /* \"#utility.yul\":1735:1738   */\n      dup4\n        /* \"#utility.yul\":1731:1747   */\n      add\n        /* \"#utility.yul\":1724:1751   */\n      mstore\n        /* \"#utility.yul\":1610:1758   */\n      pop\n      pop\n      pop\n      jump\t// out\n        /* \"#utility.yul\":1764:2189   */\n    tag_161:\n        /* \"#utility.yul\":1842:1847   */\n      0x00\n        /* \"#utility.yul\":1867:1933   */\n      tag_230\n        /* \"#utility.yul\":1883:1932   */\n      tag_231\n        /* \"#utility.yul\":1925:1931   */\n      dup5\n        /* \"#utility.yul\":1883:1932   */\n      tag_159\n      jump\t// in\n    tag_231:\n        /* \"#utility.yul\":1867:1933   */\n      tag_158\n      jump\t// in\n    tag_230:\n        /* \"#utility.yul\":1858:1933   */\n      swap1\n      pop\n        /* \"#utility.yul\":1956:1962   */\n      dup3\n        /* \"#utility.yul\":1949:1954   */\n      dup2\n        /* \"#utility.yul\":1942:1963   */\n      mstore\n        /* \"#utility.yul\":1994:1998   */\n      0x20\n        /* \"#utility.yul\":1987:1992   */\n      dup2\n        /* \"#utility.yul\":1983:1999   */\n      add\n        /* \"#utility.yul\":2032:2035   */\n      dup5\n        /* \"#utility.yul\":2023:2029   */\n      dup5\n        /* \"#utility.yul\":2018:2021   */\n      dup5\n        /* \"#utility.yul\":2014:2030   */\n      add\n        /* \"#utility.yul\":2011:2036   */\n      gt\n        /* \"#utility.yul\":2008:2120   */\n      iszero\n      tag_232\n      jumpi\n        /* \"#utility.yul\":2039:2118   */\n      tag_233\n      tag_154\n      jump\t// in\n    tag_233:\n        /* \"#utility.yul\":2008:2120   */\n    tag_232:\n        /* \"#utility.yul\":2129:2183   */\n      tag_234\n        /* \"#utility.yul\":2176:2182   */\n      dup5\n        /* \"#utility.yul\":2171:2174   */\n      dup3\n        /* \"#utility.yul\":2166:2169   */\n      dup6\n        /* \"#utility.yul\":2129:2183   */\n      tag_160\n      jump\t// in\n    tag_234:\n        /* \"#utility.yul\":1848:2189   */\n      pop\n        /* \"#utility.yul\":1764:2189   */\n      swap4\n      swap3\n      pop\n      pop\n      pop\n      jump\t// out\n        /* \"#utility.yul\":2209:2549   */\n    tag_162:\n        /* \"#utility.yul\":2265:2270   */\n      0x00\n        /* \"#utility.yul\":2314:2317   */\n      dup3\n        /* \"#utility.yul\":2307:2311   */\n      0x1f\n        /* \"#utility.yul\":2299:2305   */\n      dup4\n        /* \"#utility.yul\":2295:2312   */\n      add\n        /* \"#utility.yul\":2291:2318   */\n      slt\n        /* \"#utility.yul\":2281:2403   */\n      tag_236\n      jumpi\n        /* \"#utility.yul\":2322:2401   */\n      tag_237\n      tag_153\n      jump\t// in\n    tag_237:\n        /* \"#utility.yul\":2281:2403   */\n    tag_236:\n        /* \"#utility.yul\":2439:2445   */\n      dup2\n        /* \"#utility.yul\":2426:2446   */\n      calldataload\n        /* \"#utility.yul\":2464:2543   */\n      tag_238\n        /* \"#utility.yul\":2539:2542   */\n      dup5\n        /* \"#utility.yul\":2531:2537   */\n      dup3\n        /* \"#utility.yul\":2524:2528   */\n      0x20\n        /* \"#utility.yul\":2516:2522   */\n      dup7\n        /* \"#utility.yul\":2512:2529   */\n      add\n        /* \"#utility.yul\":2464:2543   */\n      tag_161\n      jump\t// in\n    tag_238:\n        /* \"#utility.yul\":2455:2543   */\n      swap2\n      pop\n        /* \"#utility.yul\":2271:2549   */\n      pop\n        /* \"#utility.yul\":2209:2549   */\n      swap3\n      swap2\n      pop\n      pop\n      jump\t// out\n        /* \"#utility.yul\":2555:4040   */\n    tag_20:\n        /* \"#utility.yul\":2681:2687   */\n      0x00\n        /* \"#utility.yul\":2689:2695   */\n      dup1\n        /* \"#utility.yul\":2697:2703   */\n      0x00\n        /* \"#utility.yul\":2705:2711   */\n      dup1\n        /* \"#utility.yul\":2754:2757   */\n      0x80\n        /* \"#utility.yul\":2742:2751   */\n      dup6\n        /* \"#utility.yul\":2733:2740   */\n      dup8\n        /* \"#utility.yul\":2729:2752   */\n      sub\n        /* \"#utility.yul\":2725:2758   */\n      slt\n        /* \"#utility.yul\":2722:2842   */\n      iszero\n      tag_240\n      jumpi\n        /* \"#utility.yul\":2761:2840   */\n      tag_241\n      tag_151\n      jump\t// in\n    tag_241:\n        /* \"#utility.yul\":2722:2842   */\n    tag_240:\n        /* \"#utility.yul\":2909:2910   */\n      0x00\n        /* \"#utility.yul\":2898:2907   */\n      dup6\n        /* \"#utility.yul\":2894:2911   */\n      add\n        /* \"#utility.yul\":2881:2912   */\n      calldataload\n        /* \"#utility.yul\":2939:2957   */\n      0xffffffffffffffff\n        /* \"#utility.yul\":2931:2937   */\n      dup2\n        /* \"#utility.yul\":2928:2958   */\n      gt\n        /* \"#utility.yul\":2925:3042   */\n      iszero\n      tag_242\n      jumpi\n        /* \"#utility.yul\":2961:3040   */\n      tag_243\n      tag_152\n      jump\t// in\n    tag_243:\n        /* \"#utility.yul\":2925:3042   */\n    tag_242:\n        /* \"#utility.yul\":3066:3129   */\n      tag_244\n        /* \"#utility.yul\":3121:3128   */\n      dup8\n        /* \"#utility.yul\":3112:3118   */\n      dup3\n        /* \"#utility.yul\":3101:3110   */\n      dup9\n        /* \"#utility.yul\":3097:3119   */\n      add\n        /* \"#utility.yul\":3066:3129   */\n      tag_162\n      jump\t// in\n    tag_244:\n        /* \"#utility.yul\":3056:3129   */\n      swap5\n      pop\n        /* \"#utility.yul\":2852:3139   */\n      pop\n        /* \"#utility.yul\":3206:3208   */\n      0x20\n        /* \"#utility.yul\":3195:3204   */\n      dup6\n        /* \"#utility.yul\":3191:3209   */\n      add\n        /* \"#utility.yul\":3178:3210   */\n      calldataload\n        /* \"#utility.yul\":3237:3255   */\n      0xffffffffffffffff\n        /* \"#utility.yul\":3229:3235   */\n      dup2\n        /* \"#utility.yul\":3226:3256   */\n      gt\n        /* \"#utility.yul\":3223:3340   */\n      iszero\n      tag_245\n      jumpi\n        /* \"#utility.yul\":3259:3338   */\n      tag_246\n      tag_152\n      jump\t// in\n    tag_246:\n        /* \"#utility.yul\":3223:3340   */\n    tag_245:\n        /* \"#utility.yul\":3364:3427   */\n      tag_247\n        /* \"#utility.yul\":3419:3426   */\n      dup8\n        /* \"#utility.yul\":3410:3416   */\n      dup3\n        /* \"#utility.yul\":3399:3408   */\n      dup9\n        /* \"#utility.yul\":3395:3417   */\n      add\n        /* \"#utility.yul\":3364:3427   */\n      tag_162\n      jump\t// in\n    tag_247:\n        /* \"#utility.yul\":3354:3427   */\n      swap4\n      pop\n        /* \"#utility.yul\":3149:3437   */\n      pop\n        /* \"#utility.yul\":3504:3506   */\n      0x40\n        /* \"#utility.yul\":3493:3502   */\n      dup6\n        /* \"#utility.yul\":3489:3507   */\n      add\n        /* \"#utility.yul\":3476:3508   */\n      calldataload\n        /* \"#utility.yul\":3535:3553   */\n      0xffffffffffffffff\n        /* \"#utility.yul\":3527:3533   */\n      dup2\n        /* \"#utility.yul\":3524:3554   */\n      gt\n        /* \"#utility.yul\":3521:3638   */\n      iszero\n      tag_248\n      jumpi\n        /* \"#utility.yul\":3557:3636   */\n      tag_249\n      tag_152\n      jump\t// in\n    tag_249:\n        /* \"#utility.yul\":3521:3638   */\n    tag_248:\n        /* \"#utility.yul\":3662:3725   */\n      tag_250\n        /* \"#utility.yul\":3717:3724   */\n      dup8\n        /* \"#utility.yul\":3708:3714   */\n      dup3\n        /* \"#utility.yul\":3697:3706   */\n      dup9\n        /* \"#utility.yul\":3693:3715   */\n      add\n        /* \"#utility.yul\":3662:3725   */\n      tag_162\n      jump\t// in\n    tag_250:\n        /* \"#utility.yul\":3652:3725   */\n      swap3\n      pop\n        /* \"#utility.yul\":3447:3735   */\n      pop\n        /* \"#utility.yul\":3802:3804   */\n      0x60\n        /* \"#utility.yul\":3791:3800   */\n      dup6\n        /* \"#utility.yul\":3787:3805   */\n      add\n        /* \"#utility.yul\":3774:3806   */\n      calldataload\n        /* \"#utility.yul\":3833:3851   */\n      0xffffffffffffffff\n        /* \"#utility.yul\":3825:3831   */\n      dup2\n        /* \"#utility.yul\":3822:3852   */\n      gt\n        /* \"#utility.yul\":3819:3936   */\n      iszero\n      tag_251\n      jumpi\n        /* \"#utility.yul\":3855:3934   */\n      tag_252\n      tag_152\n      jump\t// in\n    tag_252:\n        /* \"#utility.yul\":3819:3936   */\n    tag_251:\n        /* \"#utility.yul\":3960:4023   */\n      tag_253\n        /* \"#utility.yul\":4015:4022   */\n      dup8\n        /* \"#utility.yul\":4006:4012   */\n      dup3\n        /* \"#utility.yul\":3995:4004   */\n      dup9\n        /* \"#utility.yul\":3991:4013   */\n      add\n        /* \"#utility.yul\":3960:4023   */\n      tag_162\n      jump\t// in\n    tag_253:\n        /* \"#utility.yul\":3950:4023   */\n      swap2\n      pop\n        /* \"#utility.yul\":3745:4033   */\n      pop\n        /* \"#utility.yul\":2555:4040   */\n      swap3\n      swap6\n      swap2\n      swap5\n      pop\n      swap3\n      pop\n      jump\t// out\n        /* \"#utility.yul\":4046:4172   */\n    tag_163:\n        /* \"#utility.yul\":4083:4090   */\n      0x00\n        /* \"#utility.yul\":4123:4165   */\n      0xffffffffffffffffffffffffffffffffffffffff\n        /* \"#utility.yul\":4116:4121   */\n      dup3\n        /* \"#utility.yul\":4112:4166   */\n      and\n        /* \"#utility.yul\":4101:4166   */\n      swap1\n      pop\n        /* \"#utility.yul\":4046:4172   */\n      swap2\n      swap1\n      pop\n      jump\t// out\n        /* \"#utility.yul\":4178:4274   */\n    tag_164:\n        /* \"#utility.yul\":4215:4222   */\n      0x00\n        /* \"#utility.yul\":4244:4268   */\n      tag_256\n        /* \"#utility.yul\":4262:4267   */\n      dup3\n        /* \"#utility.yul\":4244:4268   */\n      tag_163\n      jump\t// in\n    tag_256:\n        /* \"#utility.yul\":4233:4268   */\n      swap1\n      pop\n        /* \"#utility.yul\":4178:4274   */\n      swap2\n      swap1\n      pop\n      jump\t// out\n        /* \"#utility.yul\":4280:4402   */\n    tag_165:\n        /* \"#utility.yul\":4353:4377   */\n      tag_258\n        /* \"#utility.yul\":4371:4376   */\n      dup2\n        /* \"#utility.yul\":4353:4377   */\n      tag_164\n      jump\t// in\n    tag_258:\n        /* \"#utility.yul\":4346:4351   */\n      dup2\n        /* \"#utility.yul\":4343:4378   */\n      eq\n        /* \"#utility.yul\":4333:4396   */\n      tag_259\n      jumpi\n        /* \"#utility.yul\":4392:4393   */\n      0x00\n        /* \"#utility.yul\":4389:4390   */\n      dup1\n        /* \"#utility.yul\":4382:4394   */\n      revert\n        /* \"#utility.yul\":4333:4396   */\n    tag_259:\n        /* \"#utility.yul\":4280:4402   */\n      pop\n      jump\t// out\n        /* \"#utility.yul\":4408:4547   */\n    tag_166:\n        /* \"#utility.yul\":4454:4459   */\n      0x00\n        /* \"#utility.yul\":4492:4498   */\n      dup2\n        /* \"#utility.yul\":4479:4499   */\n      calldataload\n        /* \"#utility.yul\":4470:4499   */\n      swap1\n      pop\n        /* \"#utility.yul\":4508:4541   */\n      tag_261\n        /* \"#utility.yul\":4535:4540   */\n      dup2\n        /* \"#utility.yul\":4508:4541   */\n      tag_165\n      jump\t// in\n    tag_261:\n        /* \"#utility.yul\":4408:4547   */\n      swap3\n      swap2\n      pop\n      pop\n      jump\t// out\n        /* \"#utility.yul\":4553:4882   */\n    tag_24:\n        /* \"#utility.yul\":4612:4618   */\n      0x00\n        /* \"#utility.yul\":4661:4663   */\n      0x20\n        /* \"#utility.yul\":4649:4658   */\n      dup3\n        /* \"#utility.yul\":4640:4647   */\n      dup5\n        /* \"#utility.yul\":4636:4659   */\n      sub\n        /* \"#utility.yul\":4632:4664   */\n      slt\n        /* \"#utility.yul\":4629:4748   */\n      iszero\n      tag_263\n      jumpi\n        /* \"#utility.yul\":4667:4746   */\n      tag_264\n      tag_151\n      jump\t// in\n    tag_264:\n        /* \"#utility.yul\":4629:4748   */\n    tag_263:\n        /* \"#utility.yul\":4787:4788   */\n      0x00\n        /* \"#utility.yul\":4812:4865   */\n      tag_265\n        /* \"#utility.yul\":4857:4864   */\n      dup5\n        /* \"#utility.yul\":4848:4854   */\n      dup3\n        /* \"#utility.yul\":4837:4846   */\n      dup6\n        /* \"#utility.yul\":4833:4855   */\n      add\n        /* \"#utility.yul\":4812:4865   */\n      tag_166\n      jump\t// in\n    tag_265:\n        /* \"#utility.yul\":4802:4865   */\n      swap2\n      pop\n        /* \"#utility.yul\":4758:4875   */\n      pop\n        /* \"#utility.yul\":4553:4882   */\n      swap3\n      swap2\n      pop\n      pop\n      jump\t// out\n        /* \"#utility.yul\":4888:4965   */\n    tag_167:\n        /* \"#utility.yul\":4925:4932   */\n      0x00\n        /* \"#utility.yul\":4954:4959   */\n      dup2\n        /* \"#utility.yul\":4943:4959   */\n      swap1\n      pop\n        /* \"#utility.yul\":4888:4965   */\n      swap2\n      swap1\n      pop\n      jump\t// out\n        /* \"#utility.yul\":4971:5093   */\n    tag_168:\n        /* \"#utility.yul\":5044:5068   */\n      tag_268\n        /* \"#utility.yul\":5062:5067   */\n      dup2\n        /* \"#utility.yul\":5044:5068   */\n      tag_167\n      jump\t// in\n    tag_268:\n        /* \"#utility.yul\":5037:5042   */\n      dup2\n        /* \"#utility.yul\":5034:5069   */\n      eq\n        /* \"#utility.yul\":5024:5087   */\n      tag_269\n      jumpi\n        /* \"#utility.yul\":5083:5084   */\n      0x00\n        /* \"#utility.yul\":5080:5081   */\n      dup1\n        /* \"#utility.yul\":5073:5085   */\n      revert\n        /* \"#utility.yul\":5024:5087   */\n    tag_269:\n        /* \"#utility.yul\":4971:5093   */\n      pop\n      jump\t// out\n        /* \"#utility.yul\":5099:5238   */\n    tag_169:\n        /* \"#utility.yul\":5145:5150   */\n      0x00\n        /* \"#utility.yul\":5183:5189   */\n      dup2\n        /* \"#utility.yul\":5170:5190   */\n      calldataload\n        /* \"#utility.yul\":5161:5190   */\n      swap1\n      pop\n        /* \"#utility.yul\":5199:5232   */\n      tag_271\n        /* \"#utility.yul\":5226:5231   */\n      dup2\n        /* \"#utility.yul\":5199:5232   */\n      tag_168\n      jump\t// in\n    tag_271:\n        /* \"#utility.yul\":5099:5238   */\n      swap3\n      swap2\n      pop\n      pop\n      jump\t// out\n        /* \"#utility.yul\":5244:5573   */\n    tag_28:\n        /* \"#utility.yul\":5303:5309   */\n      0x00\n        /* \"#utility.yul\":5352:5354   */\n      0x20\n        /* \"#utility.yul\":5340:5349   */\n      dup3\n        /* \"#utility.yul\":5331:5338   */\n      dup5\n        /* \"#utility.yul\":5327:5350   */\n      sub\n        /* \"#utility.yul\":5323:5355   */\n      slt\n        /* \"#utility.yul\":5320:5439   */\n      iszero\n      tag_273\n      jumpi\n        /* \"#utility.yul\":5358:5437   */\n      tag_274\n      tag_151\n      jump\t// in\n    tag_274:\n        /* \"#utility.yul\":5320:5439   */\n    tag_273:\n        /* \"#utility.yul\":5478:5479   */\n      0x00\n        /* \"#utility.yul\":5503:5556   */\n      tag_275\n        /* \"#utility.yul\":5548:5555   */\n      dup5\n        /* \"#utility.yul\":5539:5545   */\n      dup3\n        /* \"#utility.yul\":5528:5537   */\n      dup6\n        /* \"#utility.yul\":5524:5546   */\n      add\n        /* \"#utility.yul\":5503:5556   */\n      tag_169\n      jump\t// in\n    tag_275:\n        /* \"#utility.yul\":5493:5556   */\n      swap2\n      pop\n        /* \"#utility.yul\":5449:5566   */\n      pop\n        /* \"#utility.yul\":5244:5573   */\n      swap3\n      swap2\n      pop\n      pop\n      jump\t// out\n        /* \"#utility.yul\":5579:5697   */\n    tag_170:\n        /* \"#utility.yul\":5666:5690   */\n      tag_277\n        /* \"#utility.yul\":5684:5689   */\n      dup2\n        /* \"#utility.yul\":5666:5690   */\n      tag_164\n      jump\t// in\n    tag_277:\n        /* \"#utility.yul\":5661:5664   */\n      dup3\n        /* \"#utility.yul\":5654:5691   */\n      mstore\n        /* \"#utility.yul\":5579:5697   */\n      pop\n      pop\n      jump\t// out\n        /* \"#utility.yul\":5703:5925   */\n    tag_31:\n        /* \"#utility.yul\":5796:5800   */\n      0x00\n        /* \"#utility.yul\":5834:5836   */\n      0x20\n        /* \"#utility.yul\":5823:5832   */\n      dup3\n        /* \"#utility.yul\":5819:5837   */\n      add\n        /* \"#utility.yul\":5811:5837   */\n      swap1\n      pop\n        /* \"#utility.yul\":5847:5918   */\n      tag_279\n        /* \"#utility.yul\":5915:5916   */\n      0x00\n        /* \"#utility.yul\":5904:5913   */\n      dup4\n        /* \"#utility.yul\":5900:5917   */\n      add\n        /* \"#utility.yul\":5891:5897   */\n      dup5\n        /* \"#utility.yul\":5847:5918   */\n      tag_170\n      jump\t// in\n    tag_279:\n        /* \"#utility.yul\":5703:5925   */\n      swap3\n      swap2\n      pop\n      pop\n      jump\t// out\n        /* \"#utility.yul\":5931:6550   */\n    tag_34:\n        /* \"#utility.yul\":6008:6014   */\n      0x00\n        /* \"#utility.yul\":6016:6022   */\n      dup1\n        /* \"#utility.yul\":6024:6030   */\n      0x00\n        /* \"#utility.yul\":6073:6075   */\n      0x60\n        /* \"#utility.yul\":6061:6070   */\n      dup5\n        /* \"#utility.yul\":6052:6059   */\n      dup7\n        /* \"#utility.yul\":6048:6071   */\n      sub\n        /* \"#utility.yul\":6044:6076   */\n      slt\n        /* \"#utility.yul\":6041:6160   */\n      iszero\n      tag_281\n      jumpi\n        /* \"#utility.yul\":6079:6158   */\n      tag_282\n      tag_151\n      jump\t// in\n    tag_282:\n        /* \"#utility.yul\":6041:6160   */\n    tag_281:\n        /* \"#utility.yul\":6199:6200   */\n      0x00\n        /* \"#utility.yul\":6224:6277   */\n      tag_283\n        /* \"#utility.yul\":6269:6276   */\n      dup7\n        /* \"#utility.yul\":6260:6266   */\n      dup3\n        /* \"#utility.yul\":6249:6258   */\n      dup8\n        /* \"#utility.yul\":6245:6267   */\n      add\n        /* \"#utility.yul\":6224:6277   */\n      tag_166\n      jump\t// in\n    tag_283:\n        /* \"#utility.yul\":6214:6277   */\n      swap4\n      pop\n        /* \"#utility.yul\":6170:6287   */\n      pop\n        /* \"#utility.yul\":6326:6328   */\n      0x20\n        /* \"#utility.yul\":6352:6405   */\n      tag_284\n        /* \"#utility.yul\":6397:6404   */\n      dup7\n        /* \"#utility.yul\":6388:6394   */\n      dup3\n        /* \"#utility.yul\":6377:6386   */\n      dup8\n        /* \"#utility.yul\":6373:6395   */\n      add\n        /* \"#utility.yul\":6352:6405   */\n      tag_166\n      jump\t// in\n    tag_284:\n        /* \"#utility.yul\":6342:6405   */\n      swap3\n      pop\n        /* \"#utility.yul\":6297:6415   */\n      pop\n        /* \"#utility.yul\":6454:6456   */\n      0x40\n        /* \"#utility.yul\":6480:6533   */\n      tag_285\n        /* \"#utility.yul\":6525:6532   */\n      dup7\n        /* \"#utility.yul\":6516:6522   */\n      dup3\n        /* \"#utility.yul\":6505:6514   */\n      dup8\n        /* \"#utility.yul\":6501:6523   */\n      add\n        /* \"#utility.yul\":6480:6533   */\n      tag_169\n      jump\t// in\n    tag_285:\n        /* \"#utility.yul\":6470:6533   */\n      swap2\n      pop\n        /* \"#utility.yul\":6425:6543   */\n      pop\n        /* \"#utility.yul\":5931:6550   */\n      swap3\n      pop\n      swap3\n      pop\n      swap3\n      jump\t// out\n        /* \"#utility.yul\":6556:6655   */\n    tag_171:\n        /* \"#utility.yul\":6608:6614   */\n      0x00\n        /* \"#utility.yul\":6642:6647   */\n      dup2\n        /* \"#utility.yul\":6636:6648   */\n      mload\n        /* \"#utility.yul\":6626:6648   */\n      swap1\n      pop\n        /* \"#utility.yul\":6556:6655   */\n      swap2\n      swap1\n      pop\n      jump\t// out\n        /* \"#utility.yul\":6661:6830   */\n    tag_172:\n        /* \"#utility.yul\":6745:6756   */\n      0x00\n        /* \"#utility.yul\":6779:6785   */\n      dup3\n        /* \"#utility.yul\":6774:6777   */\n      dup3\n        /* \"#utility.yul\":6767:6786   */\n      mstore\n        /* \"#utility.yul\":6819:6823   */\n      0x20\n        /* \"#utility.yul\":6814:6817   */\n      dup3\n        /* \"#utility.yul\":6810:6824   */\n      add\n        /* \"#utility.yul\":6795:6824   */\n      swap1\n      pop\n        /* \"#utility.yul\":6661:6830   */\n      swap3\n      swap2\n      pop\n      pop\n      jump\t// out\n        /* \"#utility.yul\":6836:6975   */\n    tag_173:\n        /* \"#utility.yul\":6925:6931   */\n      dup3\n        /* \"#utility.yul\":6920:6923   */\n      dup2\n        /* \"#utility.yul\":6915:6918   */\n      dup4\n        /* \"#utility.yul\":6909:6932   */\n      mcopy\n        /* \"#utility.yul\":6966:6967   */\n      0x00\n        /* \"#utility.yul\":6957:6963   */\n      dup4\n        /* \"#utility.yul\":6952:6955   */\n      dup4\n        /* \"#utility.yul\":6948:6964   */\n      add\n        /* \"#utility.yul\":6941:6968   */\n      mstore\n        /* \"#utility.yul\":6836:6975   */\n      pop\n      pop\n      pop\n      jump\t// out\n        /* \"#utility.yul\":6981:7358   */\n    tag_174:\n        /* \"#utility.yul\":7069:7072   */\n      0x00\n        /* \"#utility.yul\":7097:7136   */\n      tag_290\n        /* \"#utility.yul\":7130:7135   */\n      dup3\n        /* \"#utility.yul\":7097:7136   */\n      tag_171\n      jump\t// in\n    tag_290:\n        /* \"#utility.yul\":7152:7223   */\n      tag_291\n        /* \"#utility.yul\":7216:7222   */\n      dup2\n        /* \"#utility.yul\":7211:7214   */\n      dup6\n        /* \"#utility.yul\":7152:7223   */\n      tag_172\n      jump\t// in\n    tag_291:\n        /* \"#utility.yul\":7145:7223   */\n      swap4\n      pop\n        /* \"#utility.yul\":7232:7297   */\n      tag_292\n        /* \"#utility.yul\":7290:7296   */\n      dup2\n        /* \"#utility.yul\":7285:7288   */\n      dup6\n        /* \"#utility.yul\":7278:7282   */\n      0x20\n        /* \"#utility.yul\":7271:7276   */\n      dup7\n        /* \"#utility.yul\":7267:7283   */\n      add\n        /* \"#utility.yul\":7232:7297   */\n      tag_173\n      jump\t// in\n    tag_292:\n        /* \"#utility.yul\":7322:7351   */\n      tag_293\n        /* \"#utility.yul\":7344:7350   */\n      dup2\n        /* \"#utility.yul\":7322:7351   */\n      tag_155\n      jump\t// in\n    tag_293:\n        /* \"#utility.yul\":7317:7320   */\n      dup5\n        /* \"#utility.yul\":7313:7352   */\n      add\n        /* \"#utility.yul\":7306:7352   */\n      swap2\n      pop\n        /* \"#utility.yul\":7073:7358   */\n      pop\n        /* \"#utility.yul\":6981:7358   */\n      swap3\n      swap2\n      pop\n      pop\n      jump\t// out\n        /* \"#utility.yul\":7364:8281   */\n    tag_47:\n        /* \"#utility.yul\":7621:7625   */\n      0x00\n        /* \"#utility.yul\":7659:7662   */\n      0x80\n        /* \"#utility.yul\":7648:7657   */\n      dup3\n        /* \"#utility.yul\":7644:7663   */\n      add\n        /* \"#utility.yul\":7636:7663   */\n      swap1\n      pop\n        /* \"#utility.yul\":7709:7718   */\n      dup2\n        /* \"#utility.yul\":7703:7707   */\n      dup2\n        /* \"#utility.yul\":7699:7719   */\n      sub\n        /* \"#utility.yul\":7695:7696   */\n      0x00\n        /* \"#utility.yul\":7684:7693   */\n      dup4\n        /* \"#utility.yul\":7680:7697   */\n      add\n        /* \"#utility.yul\":7673:7720   */\n      mstore\n        /* \"#utility.yul\":7737:7815   */\n      tag_295\n        /* \"#utility.yul\":7810:7814   */\n      dup2\n        /* \"#utility.yul\":7801:7807   */\n      dup8\n        /* \"#utility.yul\":7737:7815   */\n      tag_174\n      jump\t// in\n    tag_295:\n        /* \"#utility.yul\":7729:7815   */\n      swap1\n      pop\n        /* \"#utility.yul\":7862:7871   */\n      dup2\n        /* \"#utility.yul\":7856:7860   */\n      dup2\n        /* \"#utility.yul\":7852:7872   */\n      sub\n        /* \"#utility.yul\":7847:7849   */\n      0x20\n        /* \"#utility.yul\":7836:7845   */\n      dup4\n        /* \"#utility.yul\":7832:7850   */\n      add\n        /* \"#utility.yul\":7825:7873   */\n      mstore\n        /* \"#utility.yul\":7890:7968   */\n      tag_296\n        /* \"#utility.yul\":7963:7967   */\n      dup2\n        /* \"#utility.yul\":7954:7960   */\n      dup7\n        /* \"#utility.yul\":7890:7968   */\n      tag_174\n      jump\t// in\n    tag_296:\n        /* \"#utility.yul\":7882:7968   */\n      swap1\n      pop\n        /* \"#utility.yul\":8015:8024   */\n      dup2\n        /* \"#utility.yul\":8009:8013   */\n      dup2\n        /* \"#utility.yul\":8005:8025   */\n      sub\n        /* \"#utility.yul\":8000:8002   */\n      0x40\n        /* \"#utility.yul\":7989:7998   */\n      dup4\n        /* \"#utility.yul\":7985:8003   */\n      add\n        /* \"#utility.yul\":7978:8026   */\n      mstore\n        /* \"#utility.yul\":8043:8121   */\n      tag_297\n        /* \"#utility.yul\":8116:8120   */\n      dup2\n        /* \"#utility.yul\":8107:8113   */\n      dup6\n        /* \"#utility.yul\":8043:8121   */\n      tag_174\n      jump\t// in\n    tag_297:\n        /* \"#utility.yul\":8035:8121   */\n      swap1\n      pop\n        /* \"#utility.yul\":8168:8177   */\n      dup2\n        /* \"#utility.yul\":8162:8166   */\n      dup2\n        /* \"#utility.yul\":8158:8178   */\n      sub\n        /* \"#utility.yul\":8153:8155   */\n      0x60\n        /* \"#utility.yul\":8142:8151   */\n      dup4\n        /* \"#utility.yul\":8138:8156   */\n      add\n        /* \"#utility.yul\":8131:8179   */\n      mstore\n        /* \"#utility.yul\":8196:8274   */\n      tag_298\n        /* \"#utility.yul\":8269:8273   */\n      dup2\n        /* \"#utility.yul\":8260:8266   */\n      dup5\n        /* \"#utility.yul\":8196:8274   */\n      tag_174\n      jump\t// in\n    tag_298:\n        /* \"#utility.yul\":8188:8274   */\n      swap1\n      pop\n        /* \"#utility.yul\":7364:8281   */\n      swap6\n      swap5\n      pop\n      pop\n      pop\n      pop\n      pop\n      jump\t// out\n        /* \"#utility.yul\":8287:8405   */\n    tag_175:\n        /* \"#utility.yul\":8374:8398   */\n      tag_300\n        /* \"#utility.yul\":8392:8397   */\n      dup2\n        /* \"#utility.yul\":8374:8398   */\n      tag_167\n      jump\t// in\n    tag_300:\n        /* \"#utility.yul\":8369:8372   */\n      dup3\n        /* \"#utility.yul\":8362:8399   */\n      mstore\n        /* \"#utility.yul\":8287:8405   */\n      pop\n      pop\n      jump\t// out\n        /* \"#utility.yul\":8411:8633   */\n    tag_61:\n        /* \"#utility.yul\":8504:8508   */\n      0x00\n        /* \"#utility.yul\":8542:8544   */\n      0x20\n        /* \"#utility.yul\":8531:8540   */\n      dup3\n        /* \"#utility.yul\":8527:8545   */\n      add\n        /* \"#utility.yul\":8519:8545   */\n      swap1\n      pop\n        /* \"#utility.yul\":8555:8626   */\n      tag_302\n        /* \"#utility.yul\":8623:8624   */\n      0x00\n        /* \"#utility.yul\":8612:8621   */\n      dup4\n        /* \"#utility.yul\":8608:8625   */\n      add\n        /* \"#utility.yul\":8599:8605   */\n      dup5\n        /* \"#utility.yul\":8555:8626   */\n      tag_175\n      jump\t// in\n    tag_302:\n        /* \"#utility.yul\":8411:8633   */\n      swap3\n      swap2\n      pop\n      pop\n      jump\t// out\n        /* \"#utility.yul\":8639:8729   */\n    tag_176:\n        /* \"#utility.yul\":8673:8680   */\n      0x00\n        /* \"#utility.yul\":8716:8721   */\n      dup2\n        /* \"#utility.yul\":8709:8722   */\n      iszero\n        /* \"#utility.yul\":8702:8723   */\n      iszero\n        /* \"#utility.yul\":8691:8723   */\n      swap1\n      pop\n        /* \"#utility.yul\":8639:8729   */\n      swap2\n      swap1\n      pop\n      jump\t// out\n        /* \"#utility.yul\":8735:8844   */\n    tag_177:\n        /* \"#utility.yul\":8816:8837   */\n      tag_305\n        /* \"#utility.yul\":8831:8836   */\n      dup2\n        /* \"#utility.yul\":8816:8837   */\n      tag_176\n      jump\t// in\n    tag_305:\n        /* \"#utility.yul\":8811:8814   */\n      dup3\n        /* \"#utility.yul\":8804:8838   */\n      mstore\n        /* \"#utility.yul\":8735:8844   */\n      pop\n      pop\n      jump\t// out\n        /* \"#utility.yul\":8850:9060   */\n    tag_69:\n        /* \"#utility.yul\":8937:8941   */\n      0x00\n        /* \"#utility.yul\":8975:8977   */\n      0x20\n        /* \"#utility.yul\":8964:8973   */\n      dup3\n        /* \"#utility.yul\":8960:8978   */\n      add\n        /* \"#utility.yul\":8952:8978   */\n      swap1\n      pop\n        /* \"#utility.yul\":8988:9053   */\n      tag_307\n        /* \"#utility.yul\":9050:9051   */\n      0x00\n        /* \"#utility.yul\":9039:9048   */\n      dup4\n        /* \"#utility.yul\":9035:9052   */\n      add\n        /* \"#utility.yul\":9026:9032   */\n      dup5\n        /* \"#utility.yul\":8988:9053   */\n      tag_177\n      jump\t// in\n    tag_307:\n        /* \"#utility.yul\":8850:9060   */\n      swap3\n      swap2\n      pop\n      pop\n      jump\t// out\n        /* \"#utility.yul\":9066:9242   */\n    tag_178:\n        /* \"#utility.yul\":9206:9234   */\n      0x4f6e6c79206d616e7566616374757265722063616e206d696e74000000000000\n        /* \"#utility.yul\":9202:9203   */\n      0x00\n        /* \"#utility.yul\":9194:9200   */\n      dup3\n        /* \"#utility.yul\":9190:9204   */\n      add\n        /* \"#utility.yul\":9183:9235   */\n      mstore\n        /* \"#utility.yul\":9066:9242   */\n      pop\n      jump\t// out\n        /* \"#utility.yul\":9248:9614   */\n    tag_179:\n        /* \"#utility.yul\":9390:9393   */\n      0x00\n        /* \"#utility.yul\":9411:9478   */\n      tag_310\n        /* \"#utility.yul\":9475:9477   */\n      0x1a\n        /* \"#utility.yul\":9470:9473   */\n      dup4\n        /* \"#utility.yul\":9411:9478   */\n      tag_172\n      jump\t// in\n    tag_310:\n        /* \"#utility.yul\":9404:9478   */\n      swap2\n      pop\n        /* \"#utility.yul\":9487:9580   */\n      tag_311\n        /* \"#utility.yul\":9576:9579   */\n      dup3\n        /* \"#utility.yul\":9487:9580   */\n      tag_178\n      jump\t// in\n    tag_311:\n        /* \"#utility.yul\":9605:9607   */\n      0x20\n        /* \"#utility.yul\":9600:9603   */\n      dup3\n        /* \"#utility.yul\":9596:9608   */\n      add\n        /* \"#utility.yul\":9589:9608   */\n      swap1\n      pop\n        /* \"#utility.yul\":9248:9614   */\n      swap2\n      swap1\n      pop\n      jump\t// out\n        /* \"#utility.yul\":9620:10039   */\n    tag_73:\n        /* \"#utility.yul\":9786:9790   */\n      0x00\n        /* \"#utility.yul\":9824:9826   */\n      0x20\n        /* \"#utility.yul\":9813:9822   */\n      dup3\n        /* \"#utility.yul\":9809:9827   */\n      add\n        /* \"#utility.yul\":9801:9827   */\n      swap1\n      pop\n        /* \"#utility.yul\":9873:9882   */\n      dup2\n        /* \"#utility.yul\":9867:9871   */\n      dup2\n        /* \"#utility.yul\":9863:9883   */\n      sub\n        /* \"#utility.yul\":9859:9860   */\n      0x00\n        /* \"#utility.yul\":9848:9857   */\n      dup4\n        /* \"#utility.yul\":9844:9861   */\n      add\n        /* \"#utility.yul\":9837:9884   */\n      mstore\n        /* \"#utility.yul\":9901:10032   */\n      tag_313\n        /* \"#utility.yul\":10027:10031   */\n      dup2\n        /* \"#utility.yul\":9901:10032   */\n      tag_179\n      jump\t// in\n    tag_313:\n        /* \"#utility.yul\":9893:10032   */\n      swap1\n      pop\n        /* \"#utility.yul\":9620:10039   */\n      swap2\n      swap1\n      pop\n      jump\t// out\n        /* \"#utility.yul\":10045:10225   */\n    tag_180:\n        /* \"#utility.yul\":10093:10170   */\n      0x4e487b7100000000000000000000000000000000000000000000000000000000\n        /* \"#utility.yul\":10090:10091   */\n      0x00\n        /* \"#utility.yul\":10083:10171   */\n      mstore\n        /* \"#utility.yul\":10190:10194   */\n      0x11\n        /* \"#utility.yul\":10187:10188   */\n      0x04\n        /* \"#utility.yul\":10180:10195   */\n      mstore\n        /* \"#utility.yul\":10214:10218   */\n      0x24\n        /* \"#utility.yul\":10211:10212   */\n      0x00\n        /* \"#utility.yul\":10204:10219   */\n      revert\n        /* \"#utility.yul\":10231:10464   */\n    tag_75:\n        /* \"#utility.yul\":10270:10273   */\n      0x00\n        /* \"#utility.yul\":10293:10317   */\n      tag_316\n        /* \"#utility.yul\":10311:10316   */\n      dup3\n        /* \"#utility.yul\":10293:10317   */\n      tag_167\n      jump\t// in\n    tag_316:\n        /* \"#utility.yul\":10284:10317   */\n      swap2\n      pop\n        /* \"#utility.yul\":10339:10405   */\n      0xffffffffffffffffffffffffffffffffffffffffffffffffffffffffffffffff\n        /* \"#utility.yul\":10332:10337   */\n      dup3\n        /* \"#utility.yul\":10329:10406   */\n      sub\n        /* \"#utility.yul\":10326:10429   */\n      tag_317\n      jumpi\n        /* \"#utility.yul\":10409:10427   */\n      tag_318\n      tag_180\n      jump\t// in\n    tag_318:\n        /* \"#utility.yul\":10326:10429   */\n    tag_317:\n        /* \"#utility.yul\":10456:10457   */\n      0x01\n        /* \"#utility.yul\":10449:10454   */\n      dup3\n        /* \"#utility.yul\":10445:10458   */\n      add\n        /* \"#utility.yul\":10438:10458   */\n      swap1\n      pop\n        /* \"#utility.yul\":10231:10464   */\n      swap2\n      swap1\n      pop\n      jump\t// out\n        /* \"#utility.yul\":10470:10650   */\n    tag_181:\n        /* \"#utility.yul\":10518:10595   */\n      0x4e487b7100000000000000000000000000000000000000000000000000000000\n        /* \"#utility.yul\":10515:10516   */\n      0x00\n        /* \"#utility.yul\":10508:10596   */\n      mstore\n        /* \"#utility.yul\":10615:10619   */\n      0x22\n        /* \"#utility.yul\":10612:10613   */\n      0x04\n        /* \"#utility.yul\":10605:10620   */\n      mstore\n        /* \"#utility.yul\":10639:10643   */\n      0x24\n        /* \"#utility.yul\":10636:10637   */\n      0x00\n        /* \"#utility.yul\":10629:10644   */\n      revert\n        /* \"#utility.yul\":10656:10976   */\n    tag_103:\n        /* \"#utility.yul\":10700:10706   */\n      0x00\n        /* \"#utility.yul\":10737:10738   */\n      0x02\n        /* \"#utility.yul\":10731:10735   */\n      dup3\n        /* \"#utility.yul\":10727:10739   */\n      div\n        /* \"#utility.yul\":10717:10739   */\n      swap1\n      pop\n        /* \"#utility.yul\":10784:10785   */\n      0x01\n        /* \"#utility.yul\":10778:10782   */\n      dup3\n        /* \"#utility.yul\":10774:10786   */\n      and\n        /* \"#utility.yul\":10805:10823   */\n      dup1\n        /* \"#utility.yul\":10795:10876   */\n      tag_321\n      jumpi\n        /* \"#utility.yul\":10861:10865   */\n      0x7f\n        /* \"#utility.yul\":10853:10859   */\n      dup3\n        /* \"#utility.yul\":10849:10866   */\n      and\n        /* \"#utility.yul\":10839:10866   */\n      swap2\n      pop\n        /* \"#utility.yul\":10795:10876   */\n    tag_321:\n        /* \"#utility.yul\":10923:10925   */\n      0x20\n        /* \"#utility.yul\":10915:10921   */\n      dup3\n        /* \"#utility.yul\":10912:10926   */\n      lt\n        /* \"#utility.yul\":10892:10910   */\n      dup2\n        /* \"#utility.yul\":10889:10927   */\n      sub\n        /* \"#utility.yul\":10886:10970   */\n      tag_322\n      jumpi\n        /* \"#utility.yul\":10942:10960   */\n      tag_323\n      tag_181\n      jump\t// in\n    tag_323:\n        /* \"#utility.yul\":10886:10970   */\n    tag_322:\n        /* \"#utility.yul\":10707:10976   */\n      pop\n        /* \"#utility.yul\":10656:10976   */\n      swap2\n      swap1\n      pop\n      jump\t// out\n        /* \"#utility.yul\":10982:11123   */\n    tag_182:\n        /* \"#utility.yul\":11031:11035   */\n      0x00\n        /* \"#utility.yul\":11054:11057   */\n      dup2\n        /* \"#utility.yul\":11046:11057   */\n      swap1\n      pop\n        /* \"#utility.yul\":11077:11080   */\n      dup2\n        /* \"#utility.yul\":11074:11075   */\n      0x00\n        /* \"#utility.yul\":11067:11081   */\n      mstore\n        /* \"#utility.yul\":11111:11115   */\n      0x20\n        /* \"#utility.yul\":11108:11109   */\n      0x00\n        /* \"#utility.yul\":11098:11116   */\n      keccak256\n        /* \"#utility.yul\":11090:11116   */\n      swap1\n      pop\n        /* \"#utility.yul\":10982:11123   */\n      swap2\n      swap1\n      pop\n      jump\t// out\n        /* \"#utility.yul\":11129:11222   */\n    tag_183:\n        /* \"#utility.yul\":11166:11172   */\n      0x00\n        /* \"#utility.yul\":11213:11215   */\n      0x20\n        /* \"#utility.yul\":11208:11210   */\n      0x1f\n        /* \"#utility.yul\":11201:11206   */\n      dup4\n        /* \"#utility.yul\":11197:11211   */\n      add\n        /* \"#utility.yul\":11193:11216   */\n      div\n        /* \"#utility.yul\":11183:11216   */\n      swap1\n      pop\n        /* \"#utility.yul\":11129:11222   */\n      swap2\n      swap1\n      pop\n      jump\t// out\n        /* \"#utility.yul\":11228:11335   */\n    tag_184:\n        /* \"#utility.yul\":11272:11280   */\n      0x00\n        /* \"#utility.yul\":11322:11327   */\n      dup3\n        /* \"#utility.yul\":11316:11320   */\n      dup3\n        /* \"#utility.yul\":11312:11328   */\n      shl\n        /* \"#utility.yul\":11291:11328   */\n      swap1\n      pop\n        /* \"#utility.yul\":11228:11335   */\n      swap3\n      swap2\n      pop\n      pop\n      jump\t// out\n        /* \"#utility.yul\":11341:11734   */\n    tag_185:\n        /* \"#utility.yul\":11410:11416   */\n      0x00\n        /* \"#utility.yul\":11460:11461   */\n      0x08\n        /* \"#utility.yul\":11448:11458   */\n      dup4\n        /* \"#utility.yul\":11444:11462   */\n      mul\n        /* \"#utility.yul\":11483:11580   */\n      tag_328\n        /* \"#utility.yul\":11513:11579   */\n      0xffffffffffffffffffffffffffffffffffffffffffffffffffffffffffffffff\n        /* \"#utility.yul\":11502:11511   */\n      dup3\n        /* \"#utility.yul\":11483:11580   */\n      tag_184\n      jump\t// in\n    tag_328:\n        /* \"#utility.yul\":11601:11640   */\n      tag_329\n        /* \"#utility.yul\":11631:11639   */\n      dup7\n        /* \"#utility.yul\":11620:11629   */\n      dup4\n        /* \"#utility.yul\":11601:11640   */\n      tag_184\n      jump\t// in\n    tag_329:\n        /* \"#utility.yul\":11589:11640   */\n      swap6\n      pop\n        /* \"#utility.yul\":11673:11677   */\n      dup1\n        /* \"#utility.yul\":11669:11678   */\n      not\n        /* \"#utility.yul\":11662:11667   */\n      dup5\n        /* \"#utility.yul\":11658:11679   */\n      and\n        /* \"#utility.yul\":11649:11679   */\n      swap4\n      pop\n        /* \"#utility.yul\":11722:11726   */\n      dup1\n        /* \"#utility.yul\":11712:11720   */\n      dup7\n        /* \"#utility.yul\":11708:11727   */\n      and\n        /* \"#utility.yul\":11701:11706   */\n      dup5\n        /* \"#utility.yul\":11698:11728   */\n      or\n        /* \"#utility.yul\":11688:11728   */\n      swap3\n      pop\n        /* \"#utility.yul\":11417:11734   */\n      pop\n      pop\n        /* \"#utility.yul\":11341:11734   */\n      swap4\n      swap3\n      pop\n      pop\n      pop\n      jump\t// out\n        /* \"#utility.yul\":11740:11800   */\n    tag_186:\n        /* \"#utility.yul\":11768:11771   */\n      0x00\n        /* \"#utility.yul\":11789:11794   */\n      dup2\n        /* \"#utility.yul\":11782:11794   */\n      swap1\n      pop\n        /* \"#utility.yul\":11740:11800   */\n      swap2\n      swap1\n      pop\n      jump\t// out\n        /* \"#utility.yul\":11806:11948   */\n    tag_187:\n        /* \"#utility.yul\":11856:11865   */\n      0x00\n        /* \"#utility.yul\":11889:11942   */\n      tag_332\n        /* \"#utility.yul\":11907:11941   */\n      tag_333\n        /* \"#utility.yul\":11916:11940   */\n      tag_334\n        /* \"#utility.yul\":11934:11939   */\n      dup5\n        /* \"#utility.yul\":11916:11940   */\n      tag_167\n      jump\t// in\n    tag_334:\n        /* \"#utility.yul\":11907:11941   */\n      tag_186\n      jump\t// in\n    tag_333:\n        /* \"#utility.yul\":11889:11942   */\n      tag_167\n      jump\t// in\n    tag_332:\n        /* \"#utility.yul\":11876:11942   */\n      swap1\n      pop\n        /* \"#utility.yul\":11806:11948   */\n      swap2\n      swap1\n      pop\n      jump\t// out\n        /* \"#utility.yul\":11954:12029   */\n    tag_188:\n        /* \"#utility.yul\":11997:12000   */\n      0x00\n        /* \"#utility.yul\":12018:12023   */\n      dup2\n        /* \"#utility.yul\":12011:12023   */\n      swap1\n      pop\n        /* \"#utility.yul\":11954:12029   */\n      swap2\n      swap1\n      pop\n      jump\t// out\n        /* \"#utility.yul\":12035:12304   */\n    tag_189:\n        /* \"#utility.yul\":12145:12184   */\n      tag_337\n        /* \"#utility.yul\":12176:12183   */\n      dup4\n        /* \"#utility.yul\":12145:12184   */\n      tag_187\n      jump\t// in\n    tag_337:\n        /* \"#utility.yul\":12206:12297   */\n      tag_338\n        /* \"#utility.yul\":12255:12296   */\n      tag_339\n        /* \"#utility.yul\":12279:12295   */\n      dup3\n        /* \"#utility.yul\":12255:12296   */\n      tag_188\n      jump\t// in\n    tag_339:\n        /* \"#utility.yul\":12247:12253   */\n      dup5\n        /* \"#utility.yul\":12240:12244   */\n      dup5\n        /* \"#utility.yul\":12234:12245   */\n      sload\n        /* \"#utility.yul\":12206:12297   */\n      tag_185\n      jump\t// in\n    tag_338:\n        /* \"#utility.yul\":12200:12204   */\n      dup3\n        /* \"#utility.yul\":12193:12298   */\n      sstore\n        /* \"#utility.yul\":12111:12304   */\n      pop\n        /* \"#utility.yul\":12035:12304   */\n      pop\n      pop\n      pop\n      jump\t// out\n        /* \"#utility.yul\":12310:12383   */\n    tag_190:\n        /* \"#utility.yul\":12355:12358   */\n      0x00\n        /* \"#utility.yul\":12310:12383   */\n      swap1\n      jump\t// out\n        /* \"#utility.yul\":12389:12578   */\n    tag_191:\n        /* \"#utility.yul\":12466:12498   */\n      tag_342\n      tag_190\n      jump\t// in\n    tag_342:\n        /* \"#utility.yul\":12507:12572   */\n      tag_343\n        /* \"#utility.yul\":12565:12571   */\n      dup2\n        /* \"#utility.yul\":12557:12563   */\n      dup5\n        /* \"#utility.yul\":12551:12555   */\n      dup5\n        /* \"#utility.yul\":12507:12572   */\n      tag_189\n      jump\t// in\n    tag_343:\n        /* \"#utility.yul\":12442:12578   */\n      pop\n        /* \"#utility.yul\":12389:12578   */\n      pop\n      pop\n      jump\t// out\n        /* \"#utility.yul\":12584:12770   */\n    tag_192:\n        /* \"#utility.yul\":12644:12764   */\n    tag_345:\n        /* \"#utility.yul\":12661:12664   */\n      dup2\n        /* \"#utility.yul\":12654:12659   */\n      dup2\n        /* \"#utility.yul\":12651:12665   */\n      lt\n        /* \"#utility.yul\":12644:12764   */\n      iszero\n      tag_347\n      jumpi\n        /* \"#utility.yul\":12715:12754   */\n      tag_348\n        /* \"#utility.yul\":12752:12753   */\n      0x00\n        /* \"#utility.yul\":12745:12750   */\n      dup3\n        /* \"#utility.yul\":12715:12754   */\n      tag_191\n      jump\t// in\n    tag_348:\n        /* \"#utility.yul\":12688:12689   */\n      0x01\n        /* \"#utility.yul\":12681:12686   */\n      dup2\n        /* \"#utility.yul\":12677:12690   */\n      add\n        /* \"#utility.yul\":12668:12690   */\n      swap1\n      pop\n        /* \"#utility.yul\":12644:12764   */\n      jump(tag_345)\n    tag_347:\n        /* \"#utility.yul\":12584:12770   */\n      pop\n      pop\n      jump\t// out\n        /* \"#utility.yul\":12776:13319   */\n    tag_193:\n        /* \"#utility.yul\":12877:12879   */\n      0x1f\n        /* \"#utility.yul\":12872:12875   */\n      dup3\n        /* \"#utility.yul\":12869:12880   */\n      gt\n        /* \"#utility.yul\":12866:13312   */\n      iszero\n      tag_350\n      jumpi\n        /* \"#utility.yul\":12911:12949   */\n      tag_351\n        /* \"#utility.yul\":12943:12948   */\n      dup2\n        /* \"#utility.yul\":12911:12949   */\n      tag_182\n      jump\t// in\n    tag_351:\n        /* \"#utility.yul\":12995:13024   */\n      tag_352\n        /* \"#utility.yul\":13013:13023   */\n      dup5\n        /* \"#utility.yul\":12995:13024   */\n      tag_183\n      jump\t// in\n    tag_352:\n        /* \"#utility.yul\":12985:12993   */\n      dup2\n        /* \"#utility.yul\":12981:13025   */\n      add\n        /* \"#utility.yul\":13178:13180   */\n      0x20\n        /* \"#utility.yul\":13166:13176   */\n      dup6\n        /* \"#utility.yul\":13163:13181   */\n      lt\n        /* \"#utility.yul\":13160:13209   */\n      iszero\n      tag_353\n      jumpi\n        /* \"#utility.yul\":13199:13207   */\n      dup2\n        /* \"#utility.yul\":13184:13207   */\n      swap1\n      pop\n        /* \"#utility.yul\":13160:13209   */\n    tag_353:\n        /* \"#utility.yul\":13222:13302   */\n      tag_354\n        /* \"#utility.yul\":13278:13300   */\n      tag_355\n        /* \"#utility.yul\":13296:13299   */\n      dup6\n        /* \"#utility.yul\":13278:13300   */\n      tag_183\n      jump\t// in\n    tag_355:\n        /* \"#utility.yul\":13268:13276   */\n      dup4\n        /* \"#utility.yul\":13264:13301   */\n      add\n        /* \"#utility.yul\":13251:13262   */\n      dup3\n        /* \"#utility.yul\":13222:13302   */\n      tag_192\n      jump\t// in\n    tag_354:\n        /* \"#utility.yul\":12881:13312   */\n      pop\n      pop\n        /* \"#utility.yul\":12866:13312   */\n    tag_350:\n        /* \"#utility.yul\":12776:13319   */\n      pop\n      pop\n      pop\n      jump\t// out\n        /* \"#utility.yul\":13325:13442   */\n    tag_194:\n        /* \"#utility.yul\":13379:13387   */\n      0x00\n        /* \"#utility.yul\":13429:13434   */\n      dup3\n        /* \"#utility.yul\":13423:13427   */\n      dup3\n        /* \"#utility.yul\":13419:13435   */\n      shr\n        /* \"#utility.yul\":13398:13435   */\n      swap1\n      pop\n        /* \"#utility.yul\":13325:13442   */\n      swap3\n      swap2\n      pop\n      pop\n      jump\t// out\n        /* \"#utility.yul\":13448:13617   */\n    tag_195:\n        /* \"#utility.yul\":13492:13498   */\n      0x00\n        /* \"#utility.yul\":13525:13576   */\n      tag_358\n        /* \"#utility.yul\":13573:13574   */\n      0x00\n        /* \"#utility.yul\":13569:13575   */\n      not\n        /* \"#utility.yul\":13561:13566   */\n      dup5\n        /* \"#utility.yul\":13558:13559   */\n      0x08\n        /* \"#utility.yul\":13554:13567   */\n      mul\n        /* \"#utility.yul\":13525:13576   */\n      tag_194\n      jump\t// in\n    tag_358:\n        /* \"#utility.yul\":13521:13577   */\n      not\n        /* \"#utility.yul\":13606:13610   */\n      dup1\n        /* \"#utility.yul\":13600:13604   */\n      dup4\n        /* \"#utility.yul\":13596:13611   */\n      and\n        /* \"#utility.yul\":13586:13611   */\n      swap2\n      pop\n        /* \"#utility.yul\":13499:13617   */\n      pop\n        /* \"#utility.yul\":13448:13617   */\n      swap3\n      swap2\n      pop\n      pop\n      jump\t// out\n        /* \"#utility.yul\":13622:13917   */\n    tag_196:\n        /* \"#utility.yul\":13698:13702   */\n      0x00\n        /* \"#utility.yul\":13844:13873   */\n      tag_360\n        /* \"#utility.yul\":13869:13872   */\n      dup4\n        /* \"#utility.yul\":13863:13867   */\n      dup4\n        /* \"#utility.yul\":13844:13873   */\n      tag_195\n      jump\t// in\n    tag_360:\n        /* \"#utility.yul\":13836:13873   */\n      swap2\n      pop\n        /* \"#utility.yul\":13906:13909   */\n      dup3\n        /* \"#utility.yul\":13903:13904   */\n      0x02\n        /* \"#utility.yul\":13899:13910   */\n      mul\n        /* \"#utility.yul\":13893:13897   */\n      dup3\n        /* \"#utility.yul\":13890:13911   */\n      or\n        /* \"#utility.yul\":13882:13911   */\n      swap1\n      pop\n        /* \"#utility.yul\":13622:13917   */\n      swap3\n      swap2\n      pop\n      pop\n      jump\t// out\n        /* \"#utility.yul\":13922:15317   */\n    tag_77:\n        /* \"#utility.yul\":14039:14076   */\n      tag_362\n        /* \"#utility.yul\":14072:14075   */\n      dup3\n        /* \"#utility.yul\":14039:14076   */\n      tag_171\n      jump\t// in\n    tag_362:\n        /* \"#utility.yul\":14141:14159   */\n      0xffffffffffffffff\n        /* \"#utility.yul\":14133:14139   */\n      dup2\n        /* \"#utility.yul\":14130:14160   */\n      gt\n        /* \"#utility.yul\":14127:14183   */\n      iszero\n      tag_363\n      jumpi\n        /* \"#utility.yul\":14163:14181   */\n      tag_364\n      tag_156\n      jump\t// in\n    tag_364:\n        /* \"#utility.yul\":14127:14183   */\n    tag_363:\n        /* \"#utility.yul\":14207:14245   */\n      tag_365\n        /* \"#utility.yul\":14239:14243   */\n      dup3\n        /* \"#utility.yul\":14233:14244   */\n      sload\n        /* \"#utility.yul\":14207:14245   */\n      tag_103\n      jump\t// in\n    tag_365:\n        /* \"#utility.yul\":14292:14359   */\n      tag_366\n        /* \"#utility.yul\":14352:14358   */\n      dup3\n        /* \"#utility.yul\":14344:14350   */\n      dup3\n        /* \"#utility.yul\":14338:14342   */\n      dup6\n        /* \"#utility.yul\":14292:14359   */\n      tag_193\n      jump\t// in\n    tag_366:\n        /* \"#utility.yul\":14386:14387   */\n      0x00\n        /* \"#utility.yul\":14410:14414   */\n      0x20\n        /* \"#utility.yul\":14397:14414   */\n      swap1\n      pop\n        /* \"#utility.yul\":14442:14444   */\n      0x1f\n        /* \"#utility.yul\":14434:14440   */\n      dup4\n        /* \"#utility.yul\":14431:14445   */\n      gt\n        /* \"#utility.yul\":14459:14460   */\n      0x01\n        /* \"#utility.yul\":14454:15072   */\n      dup2\n      eq\n      tag_368\n      jumpi\n        /* \"#utility.yul\":15116:15117   */\n      0x00\n        /* \"#utility.yul\":15133:15139   */\n      dup5\n        /* \"#utility.yul\":15130:15207   */\n      iszero\n      tag_369\n      jumpi\n        /* \"#utility.yul\":15182:15191   */\n      dup3\n        /* \"#utility.yul\":15177:15180   */\n      dup8\n        /* \"#utility.yul\":15173:15192   */\n      add\n        /* \"#utility.yul\":15167:15193   */\n      mload\n        /* \"#utility.yul\":15158:15193   */\n      swap1\n      pop\n        /* \"#utility.yul\":15130:15207   */\n    tag_369:\n        /* \"#utility.yul\":15233:15300   */\n      tag_370\n        /* \"#utility.yul\":15293:15299   */\n      dup6\n        /* \"#utility.yul\":15286:15291   */\n      dup3\n        /* \"#utility.yul\":15233:15300   */\n      tag_196\n      jump\t// in\n    tag_370:\n        /* \"#utility.yul\":15227:15231   */\n      dup7\n        /* \"#utility.yul\":15220:15301   */\n      sstore\n        /* \"#utility.yul\":15089:15311   */\n      pop\n        /* \"#utility.yul\":14424:15311   */\n      jump(tag_367)\n        /* \"#utility.yul\":14454:15072   */\n    tag_368:\n        /* \"#utility.yul\":14506:14510   */\n      0x1f\n        /* \"#utility.yul\":14502:14511   */\n      not\n        /* \"#utility.yul\":14494:14500   */\n      dup5\n        /* \"#utility.yul\":14490:14512   */\n      and\n        /* \"#utility.yul\":14540:14577   */\n      tag_371\n        /* \"#utility.yul\":14572:14576   */\n      dup7\n        /* \"#utility.yul\":14540:14577   */\n      tag_182\n      jump\t// in\n    tag_371:\n        /* \"#utility.yul\":14599:14600   */\n      0x00\n        /* \"#utility.yul\":14613:14821   */\n    tag_372:\n        /* \"#utility.yul\":14627:14634   */\n      dup3\n        /* \"#utility.yul\":14624:14625   */\n      dup2\n        /* \"#utility.yul\":14621:14635   */\n      lt\n        /* \"#utility.yul\":14613:14821   */\n      iszero\n      tag_374\n      jumpi\n        /* \"#utility.yul\":14706:14715   */\n      dup5\n        /* \"#utility.yul\":14701:14704   */\n      dup10\n        /* \"#utility.yul\":14697:14716   */\n      add\n        /* \"#utility.yul\":14691:14717   */\n      mload\n        /* \"#utility.yul\":14683:14689   */\n      dup3\n        /* \"#utility.yul\":14676:14718   */\n      sstore\n        /* \"#utility.yul\":14757:14758   */\n      0x01\n        /* \"#utility.yul\":14749:14755   */\n      dup3\n        /* \"#utility.yul\":14745:14759   */\n      add\n        /* \"#utility.yul\":14735:14759   */\n      swap2\n      pop\n        /* \"#utility.yul\":14804:14806   */\n      0x20\n        /* \"#utility.yul\":14793:14802   */\n      dup6\n        /* \"#utility.yul\":14789:14807   */\n      add\n        /* \"#utility.yul\":14776:14807   */\n      swap5\n      pop\n        /* \"#utility.yul\":14650:14654   */\n      0x20\n        /* \"#utility.yul\":14647:14648   */\n      dup2\n        /* \"#utility.yul\":14643:14655   */\n      add\n        /* \"#utility.yul\":14638:14655   */\n      swap1\n      pop\n        /* \"#utility.yul\":14613:14821   */\n      jump(tag_372)\n    tag_374:\n        /* \"#utility.yul\":14849:14855   */\n      dup7\n        /* \"#utility.yul\":14840:14847   */\n      dup4\n        /* \"#utility.yul\":14837:14856   */\n      lt\n        /* \"#utility.yul\":14834:15013   */\n      iszero\n      tag_375\n      jumpi\n        /* \"#utility.yul\":14907:14916   */\n      dup5\n        /* \"#utility.yul\":14902:14905   */\n      dup10\n        /* \"#utility.yul\":14898:14917   */\n      add\n        /* \"#utility.yul\":14892:14918   */\n      mload\n        /* \"#utility.yul\":14950:14998   */\n      tag_376\n        /* \"#utility.yul\":14992:14996   */\n      0x1f\n        /* \"#utility.yul\":14984:14990   */\n      dup10\n        /* \"#utility.yul\":14980:14997   */\n      and\n        /* \"#utility.yul\":14969:14978   */\n      dup3\n        /* \"#utility.yul\":14950:14998   */\n      tag_195\n      jump\t// in\n    tag_376:\n        /* \"#utility.yul\":14942:14948   */\n      dup4\n        /* \"#utility.yul\":14935:14999   */\n      sstore\n        /* \"#utility.yul\":14857:15013   */\n      pop\n        /* \"#utility.yul\":14834:15013   */\n    tag_375:\n        /* \"#utility.yul\":15059:15060   */\n      0x01\n        /* \"#utility.yul\":15055:15056   */\n      0x02\n        /* \"#utility.yul\":15047:15053   */\n      dup9\n        /* \"#utility.yul\":15043:15057   */\n      mul\n        /* \"#utility.yul\":15039:15061   */\n      add\n        /* \"#utility.yul\":15033:15037   */\n      dup9\n        /* \"#utility.yul\":15026:15062   */\n      sstore\n        /* \"#utility.yul\":14461:15072   */\n      pop\n      pop\n      pop\n        /* \"#utility.yul\":14424:15311   */\n    tag_367:\n      pop\n        /* \"#utility.yul\":14014:15317   */\n      pop\n      pop\n      pop\n        /* \"#utility.yul\":13922:15317   */\n      pop\n      pop\n      jump\t// out\n        /* \"#utility.yul\":15323:15655   */\n    tag_82:\n        /* \"#utility.yul\":15444:15448   */\n      0x00\n        /* \"#utility.yul\":15482:15484   */\n      0x40\n        /* \"#utility.yul\":15471:15480   */\n      dup3\n        /* \"#utility.yul\":15467:15485   */\n      add\n        /* \"#utility.yul\":15459:15485   */\n      swap1\n      pop\n        /* \"#utility.yul\":15495:15566   */\n      tag_378\n        /* \"#utility.yul\":15563:15564   */\n      0x00\n        /* \"#utility.yul\":15552:15561   */\n      dup4\n        /* \"#utility.yul\":15548:15565   */\n      add\n        /* \"#utility.yul\":15539:15545   */\n      dup6\n        /* \"#utility.yul\":15495:15566   */\n      tag_175\n      jump\t// in\n    tag_378:\n        /* \"#utility.yul\":15576:15648   */\n      tag_379\n        /* \"#utility.yul\":15644:15646   */\n      0x20\n        /* \"#utility.yul\":15633:15642   */\n      dup4\n        /* \"#utility.yul\":15629:15647   */\n      add\n        /* \"#utility.yul\":15620:15626   */\n      dup5\n        /* \"#utility.yul\":15576:15648   */\n      tag_170\n      jump\t// in\n    tag_379:\n        /* \"#utility.yul\":15323:15655   */\n      swap4\n      swap3\n      pop\n      pop\n      pop\n      jump\t// out\n        /* \"#utility.yul\":15661:15836   */\n    tag_197:\n        /* \"#utility.yul\":15801:15828   */\n      0x4f6e6c79206d616e7566616374757265722063616e2073657400000000000000\n        /* \"#utility.yul\":15797:15798   */\n      0x00\n        /* \"#utility.yul\":15789:15795   */\n      dup3\n        /* \"#utility.yul\":15785:15799   */\n      add\n        /* \"#utility.yul\":15778:15829   */\n      mstore\n        /* \"#utility.yul\":15661:15836   */\n      pop\n      jump\t// out\n        /* \"#utility.yul\":15842:16208   */\n    tag_198:\n        /* \"#utility.yul\":15984:15987   */\n      0x00\n        /* \"#utility.yul\":16005:16072   */\n      tag_382\n        /* \"#utility.yul\":16069:16071   */\n      0x19\n        /* \"#utility.yul\":16064:16067   */\n      dup4\n        /* \"#utility.yul\":16005:16072   */\n      tag_172\n      jump\t// in\n    tag_382:\n        /* \"#utility.yul\":15998:16072   */\n      swap2\n      pop\n        /* \"#utility.yul\":16081:16174   */\n      tag_383\n        /* \"#utility.yul\":16170:16173   */\n      dup3\n        /* \"#utility.yul\":16081:16174   */\n      tag_197\n      jump\t// in\n    tag_383:\n        /* \"#utility.yul\":16199:16201   */\n      0x20\n        /* \"#utility.yul\":16194:16197   */\n      dup3\n        /* \"#utility.yul\":16190:16202   */\n      add\n        /* \"#utility.yul\":16183:16202   */\n      swap1\n      pop\n        /* \"#utility.yul\":15842:16208   */\n      swap2\n      swap1\n      pop\n      jump\t// out\n        /* \"#utility.yul\":16214:16633   */\n    tag_86:\n        /* \"#utility.yul\":16380:16384   */\n      0x00\n        /* \"#utility.yul\":16418:16420   */\n      0x20\n        /* \"#utility.yul\":16407:16416   */\n      dup3\n        /* \"#utility.yul\":16403:16421   */\n      add\n        /* \"#utility.yul\":16395:16421   */\n      swap1\n      pop\n        /* \"#utility.yul\":16467:16476   */\n      dup2\n        /* \"#utility.yul\":16461:16465   */\n      dup2\n        /* \"#utility.yul\":16457:16477   */\n      sub\n        /* \"#utility.yul\":16453:16454   */\n      0x00\n        /* \"#utility.yul\":16442:16451   */\n      dup4\n        /* \"#utility.yul\":16438:16455   */\n      add\n        /* \"#utility.yul\":16431:16478   */\n      mstore\n        /* \"#utility.yul\":16495:16626   */\n      tag_385\n        /* \"#utility.yul\":16621:16625   */\n      dup2\n        /* \"#utility.yul\":16495:16626   */\n      tag_198\n      jump\t// in\n    tag_385:\n        /* \"#utility.yul\":16487:16626   */\n      swap1\n      pop\n        /* \"#utility.yul\":16214:16633   */\n      swap2\n      swap1\n      pop\n      jump\t// out\n        /* \"#utility.yul\":16639:16814   */\n    tag_199:\n        /* \"#utility.yul\":16779:16806   */\n      0x53616c6520636f6e747261637420616c72656164792073657400000000000000\n        /* \"#utility.yul\":16775:16776   */\n      0x00\n        /* \"#utility.yul\":16767:16773   */\n      dup3\n        /* \"#utility.yul\":16763:16777   */\n      add\n        /* \"#utility.yul\":16756:16807   */\n      mstore\n        /* \"#utility.yul\":16639:16814   */\n      pop\n      jump\t// out\n        /* \"#utility.yul\":16820:17186   */\n    tag_200:\n        /* \"#utility.yul\":16962:16965   */\n      0x00\n        /* \"#utility.yul\":16983:17050   */\n      tag_388\n        /* \"#utility.yul\":17047:17049   */\n      0x19\n        /* \"#utility.yul\":17042:17045   */\n      dup4\n        /* \"#utility.yul\":16983:17050   */\n      tag_172\n      jump\t// in\n    tag_388:\n        /* \"#utility.yul\":16976:17050   */\n      swap2\n      pop\n        /* \"#utility.yul\":17059:17152   */\n      tag_389\n        /* \"#utility.yul\":17148:17151   */\n      dup3\n        /* \"#utility.yul\":17059:17152   */\n      tag_199\n      jump\t// in\n    tag_389:\n        /* \"#utility.yul\":17177:17179   */\n      0x20\n        /* \"#utility.yul\":17172:17175   */\n      dup3\n        /* \"#utility.yul\":17168:17180   */\n      add\n        /* \"#utility.yul\":17161:17180   */\n      swap1\n      pop\n        /* \"#utility.yul\":16820:17186   */\n      swap2\n      swap1\n      pop\n      jump\t// out\n        /* \"#utility.yul\":17192:17611   */\n    tag_89:\n        /* \"#utility.yul\":17358:17362   */\n      0x00\n        /* \"#utility.yul\":17396:17398   */\n      0x20\n        /* \"#utility.yul\":17385:17394   */\n      dup3\n        /* \"#utility.yul\":17381:17399   */\n      add\n        /* \"#utility.yul\":17373:17399   */\n      swap1\n      pop\n        /* \"#utility.yul\":17445:17454   */\n      dup2\n        /* \"#utility.yul\":17439:17443   */\n      dup2\n        /* \"#utility.yul\":17435:17455   */\n      sub\n        /* \"#utility.yul\":17431:17432   */\n      0x00\n        /* \"#utility.yul\":17420:17429   */\n      dup4\n        /* \"#utility.yul\":17416:17433   */\n      add\n        /* \"#utility.yul\":17409:17456   */\n      mstore\n        /* \"#utility.yul\":17473:17604   */\n      tag_391\n        /* \"#utility.yul\":17599:17603   */\n      dup2\n        /* \"#utility.yul\":17473:17604   */\n      tag_200\n      jump\t// in\n    tag_391:\n        /* \"#utility.yul\":17465:17604   */\n      swap1\n      pop\n        /* \"#utility.yul\":17192:17611   */\n      swap2\n      swap1\n      pop\n      jump\t// out\n        /* \"#utility.yul\":17617:17797   */\n    tag_201:\n        /* \"#utility.yul\":17757:17789   */\n      0x4f6e6c792053616c65436f6e74726163742063616e207472616e736665720000\n        /* \"#utility.yul\":17753:17754   */\n      0x00\n        /* \"#utility.yul\":17745:17751   */\n      dup3\n        /* \"#utility.yul\":17741:17755   */\n      add\n        /* \"#utility.yul\":17734:17790   */\n      mstore\n        /* \"#utility.yul\":17617:17797   */\n      pop\n      jump\t// out\n        /* \"#utility.yul\":17803:18169   */\n    tag_202:\n        /* \"#utility.yul\":17945:17948   */\n      0x00\n        /* \"#utility.yul\":17966:18033   */\n      tag_394\n        /* \"#utility.yul\":18030:18032   */\n      0x1e\n        /* \"#utility.yul\":18025:18028   */\n      dup4\n        /* \"#utility.yul\":17966:18033   */\n      tag_172\n      jump\t// in\n    tag_394:\n        /* \"#utility.yul\":17959:18033   */\n      swap2\n      pop\n        /* \"#utility.yul\":18042:18135   */\n      tag_395\n        /* \"#utility.yul\":18131:18134   */\n      dup3\n        /* \"#utility.yul\":18042:18135   */\n      tag_201\n      jump\t// in\n    tag_395:\n        /* \"#utility.yul\":18160:18162   */\n      0x20\n        /* \"#utility.yul\":18155:18158   */\n      dup3\n        /* \"#utility.yul\":18151:18163   */\n      add\n        /* \"#utility.yul\":18144:18163   */\n      swap1\n      pop\n        /* \"#utility.yul\":17803:18169   */\n      swap2\n      swap1\n      pop\n      jump\t// out\n        /* \"#utility.yul\":18175:18594   */\n    tag_93:\n        /* \"#utility.yul\":18341:18345   */\n      0x00\n        /* \"#utility.yul\":18379:18381   */\n      0x20\n        /* \"#utility.yul\":18368:18377   */\n      dup3\n        /* \"#utility.yul\":18364:18382   */\n      add\n        /* \"#utility.yul\":18356:18382   */\n      swap1\n      pop\n        /* \"#utility.yul\":18428:18437   */\n      dup2\n        /* \"#utility.yul\":18422:18426   */\n      dup2\n        /* \"#utility.yul\":18418:18438   */\n      sub\n        /* \"#utility.yul\":18414:18415   */\n      0x00\n        /* \"#utility.yul\":18403:18412   */\n      dup4\n        /* \"#utility.yul\":18399:18416   */\n      add\n        /* \"#utility.yul\":18392:18439   */\n      mstore\n        /* \"#utility.yul\":18456:18587   */\n      tag_397\n        /* \"#utility.yul\":18582:18586   */\n      dup2\n        /* \"#utility.yul\":18456:18587   */\n      tag_202\n      jump\t// in\n    tag_397:\n        /* \"#utility.yul\":18448:18587   */\n      swap1\n      pop\n        /* \"#utility.yul\":18175:18594   */\n      swap2\n      swap1\n      pop\n      jump\t// out\n        /* \"#utility.yul\":18600:18769   */\n    tag_203:\n        /* \"#utility.yul\":18740:18761   */\n      0x4e6f742074686520746f6b656e206f776e657200000000000000000000000000\n        /* \"#utility.yul\":18736:18737   */\n      0x00\n        /* \"#utility.yul\":18728:18734   */\n      dup3\n        /* \"#utility.yul\":18724:18738   */\n      add\n        /* \"#utility.yul\":18717:18762   */\n      mstore\n        /* \"#utility.yul\":18600:18769   */\n      pop\n      jump\t// out\n        /* \"#utility.yul\":18775:19141   */\n    tag_204:\n        /* \"#utility.yul\":18917:18920   */\n      0x00\n        /* \"#utility.yul\":18938:19005   */\n      tag_400\n        /* \"#utility.yul\":19002:19004   */\n      0x13\n        /* \"#utility.yul\":18997:19000   */\n      dup4\n        /* \"#utility.yul\":18938:19005   */\n      tag_172\n      jump\t// in\n    tag_400:\n        /* \"#utility.yul\":18931:19005   */\n      swap2\n      pop\n        /* \"#utility.yul\":19014:19107   */\n      tag_401\n        /* \"#utility.yul\":19103:19106   */\n      dup3\n        /* \"#utility.yul\":19014:19107   */\n      tag_203\n      jump\t// in\n    tag_401:\n        /* \"#utility.yul\":19132:19134   */\n      0x20\n        /* \"#utility.yul\":19127:19130   */\n      dup3\n        /* \"#utility.yul\":19123:19135   */\n      add\n        /* \"#utility.yul\":19116:19135   */\n      swap1\n      pop\n        /* \"#utility.yul\":18775:19141   */\n      swap2\n      swap1\n      pop\n      jump\t// out\n        /* \"#utility.yul\":19147:19566   */\n    tag_96:\n        /* \"#utility.yul\":19313:19317   */\n      0x00\n        /* \"#utility.yul\":19351:19353   */\n      0x20\n        /* \"#utility.yul\":19340:19349   */\n      dup3\n        /* \"#utility.yul\":19336:19354   */\n      add\n        /* \"#utility.yul\":19328:19354   */\n      swap1\n      pop\n        /* \"#utility.yul\":19400:19409   */\n      dup2\n        /* \"#utility.yul\":19394:19398   */\n      dup2\n        /* \"#utility.yul\":19390:19410   */\n      sub\n        /* \"#utility.yul\":19386:19387   */\n      0x00\n        /* \"#utility.yul\":19375:19384   */\n      dup4\n        /* \"#utility.yul\":19371:19388   */\n      add\n        /* \"#utility.yul\":19364:19411   */\n      mstore\n        /* \"#utility.yul\":19428:19559   */\n      tag_403\n        /* \"#utility.yul\":19554:19558   */\n      dup2\n        /* \"#utility.yul\":19428:19559   */\n      tag_204\n      jump\t// in\n    tag_403:\n        /* \"#utility.yul\":19420:19559   */\n      swap1\n      pop\n        /* \"#utility.yul\":19147:19566   */\n      swap2\n      swap1\n      pop\n      jump\t// out\n        /* \"#utility.yul\":19572:19742   */\n    tag_205:\n        /* \"#utility.yul\":19712:19734   */\n      0x546f6b656e20646f6573206e6f74206578697374000000000000000000000000\n        /* \"#utility.yul\":19708:19709   */\n      0x00\n        /* \"#utility.yul\":19700:19706   */\n      dup3\n        /* \"#utility.yul\":19696:19710   */\n      add\n        /* \"#utility.yul\":19689:19735   */\n      mstore\n        /* \"#utility.yul\":19572:19742   */\n      pop\n      jump\t// out\n        /* \"#utility.yul\":19748:20114   */\n    tag_206:\n        /* \"#utility.yul\":19890:19893   */\n      0x00\n        /* \"#utility.yul\":19911:19978   */\n      tag_406\n        /* \"#utility.yul\":19975:19977   */\n      0x14\n        /* \"#utility.yul\":19970:19973   */\n      dup4\n        /* \"#utility.yul\":19911:19978   */\n      tag_172\n      jump\t// in\n    tag_406:\n        /* \"#utility.yul\":19904:19978   */\n      swap2\n      pop\n        /* \"#utility.yul\":19987:20080   */\n      tag_407\n        /* \"#utility.yul\":20076:20079   */\n      dup3\n        /* \"#utility.yul\":19987:20080   */\n      tag_205\n      jump\t// in\n    tag_407:\n        /* \"#utility.yul\":20105:20107   */\n      0x20\n        /* \"#utility.yul\":20100:20103   */\n      dup3\n        /* \"#utility.yul\":20096:20108   */\n      add\n        /* \"#utility.yul\":20089:20108   */\n      swap1\n      pop\n        /* \"#utility.yul\":19748:20114   */\n      swap2\n      swap1\n      pop\n      jump\t// out\n        /* \"#utility.yul\":20120:20539   */\n    tag_101:\n        /* \"#utility.yul\":20286:20290   */\n      0x00\n        /* \"#utility.yul\":20324:20326   */\n      0x20\n        /* \"#utility.yul\":20313:20322   */\n      dup3\n        /* \"#utility.yul\":20309:20327   */\n      add\n        /* \"#utility.yul\":20301:20327   */\n      swap1\n      pop\n        /* \"#utility.yul\":20373:20382   */\n      dup2\n        /* \"#utility.yul\":20367:20371   */\n      dup2\n        /* \"#utility.yul\":20363:20383   */\n      sub\n        /* \"#utility.yul\":20359:20360   */\n      0x00\n        /* \"#utility.yul\":20348:20357   */\n      dup4\n        /* \"#utility.yul\":20344:20361   */\n      add\n        /* \"#utility.yul\":20337:20384   */\n      mstore\n        /* \"#utility.yul\":20401:20532   */\n      tag_409\n        /* \"#utility.yul\":20527:20531   */\n      dup2\n        /* \"#utility.yul\":20401:20532   */\n      tag_206\n      jump\t// in\n    tag_409:\n        /* \"#utility.yul\":20393:20532   */\n      swap1\n      pop\n        /* \"#utility.yul\":20120:20539   */\n      swap2\n      swap1\n      pop\n      jump\t// out\n        /* \"#utility.yul\":20545:20723   */\n    tag_207:\n        /* \"#utility.yul\":20685:20715   */\n      0x436f6e74726f6c20636f6e747261637420616c72656164792073657400000000\n        /* \"#utility.yul\":20681:20682   */\n      0x00\n        /* \"#utility.yul\":20673:20679   */\n      dup3\n        /* \"#utility.yul\":20669:20683   */\n      add\n        /* \"#utility.yul\":20662:20716   */\n      mstore\n        /* \"#utility.yul\":20545:20723   */\n      pop\n      jump\t// out\n        /* \"#utility.yul\":20729:21095   */\n    tag_208:\n        /* \"#utility.yul\":20871:20874   */\n      0x00\n        /* \"#utility.yul\":20892:20959   */\n      tag_412\n        /* \"#utility.yul\":20956:20958   */\n      0x1c\n        /* \"#utility.yul\":20951:20954   */\n      dup4\n        /* \"#utility.yul\":20892:20959   */\n      tag_172\n      jump\t// in\n    tag_412:\n        /* \"#utility.yul\":20885:20959   */\n      swap2\n      pop\n        /* \"#utility.yul\":20968:21061   */\n      tag_413\n        /* \"#utility.yul\":21057:21060   */\n      dup3\n        /* \"#utility.yul\":20968:21061   */\n      tag_207\n      jump\t// in\n    tag_413:\n        /* \"#utility.yul\":21086:21088   */\n      0x20\n        /* \"#utility.yul\":21081:21084   */\n      dup3\n        /* \"#utility.yul\":21077:21089   */\n      add\n        /* \"#utility.yul\":21070:21089   */\n      swap1\n      pop\n        /* \"#utility.yul\":20729:21095   */\n      swap2\n      swap1\n      pop\n      jump\t// out\n        /* \"#utility.yul\":21101:21520   */\n    tag_149:\n        /* \"#utility.yul\":21267:21271   */\n      0x00\n        /* \"#utility.yul\":21305:21307   */\n      0x20\n        /* \"#utility.yul\":21294:21303   */\n      dup3\n        /* \"#utility.yul\":21290:21308   */\n      add\n        /* \"#utility.yul\":21282:21308   */\n      swap1\n      pop\n        /* \"#utility.yul\":21354:21363   */\n      dup2\n        /* \"#utility.yul\":21348:21352   */\n      dup2\n        /* \"#utility.yul\":21344:21364   */\n      sub\n        /* \"#utility.yul\":21340:21341   */\n      0x00\n        /* \"#utility.yul\":21329:21338   */\n      dup4\n        /* \"#utility.yul\":21325:21342   */\n      add\n        /* \"#utility.yul\":21318:21365   */\n      mstore\n        /* \"#utility.yul\":21382:21513   */\n      tag_415\n        /* \"#utility.yul\":21508:21512   */\n      dup2\n        /* \"#utility.yul\":21382:21513   */\n      tag_208\n      jump\t// in\n    tag_415:\n        /* \"#utility.yul\":21374:21513   */\n      swap1\n      pop\n        /* \"#utility.yul\":21101:21520   */\n      swap2\n      swap1\n      pop\n      jump\t// out\n\n    auxdata: 0xa264697066735822122034dd727fdcc563617764fab19eae2a80bbb32646531ed98f2c4682051d21fd8a64736f6c634300081a0033\n}\n",
				"bytecode": {
					"linkReferences": {},
					"object": "6080604052348015600e575f80fd5b503360015f6101000a81548173ffffffffffffffffffffffffffffffffffffffff021916908373ffffffffffffffffffffffffffffffffffffffff1602179055505f80819055506119d2806100625f395ff3fe608060405234801561000f575f80fd5b50600436106100cd575f3560e01c80636914db601161008a578063ca35e8a011610064578063ca35e8a014610227578063d082e38114610243578063daf6ca3014610261578063ff721aba1461027f576100cd565b80636914db60146101a357806374754282146101d6578063a574cea4146101f4576100cd565b806302341c71146100d15780630593d244146100ed5780631caaa4871461010957806323b872dd1461013957806348ccfe47146101555780636352211e14610173575b5f80fd5b6100eb60048036038101906100e69190611017565b6102af565b005b61010760048036038101906101029190611145565b610473565b005b610123600480360381019061011e91906111a3565b6105d4565b60405161013091906111dd565b60405180910390f35b610153600480360381019061014e91906111f6565b610604565b005b61015d610785565b60405161016a91906111dd565b60405180910390f35b61018d600480360381019061018891906111a3565b6107aa565b60405161019a91906111dd565b60405180910390f35b6101bd60048036038101906101b891906111a3565b610832565b6040516101cd94939291906112a6565b60405180910390f35b6101de610a76565b6040516101eb91906111dd565b60405180910390f35b61020e600480360381019061020991906111a3565b610a9b565b60405161021e94939291906112a6565b60405180910390f35b610241600480360381019061023c9190611145565b610d22565b005b61024b610e83565b6040516102589190611314565b60405180910390f35b610269610e88565b60405161027691906111dd565b60405180910390f35b61029960048036038101906102949190611145565b610ead565b6040516102a69190611347565b60405180910390f35b60015f9054906101000a900473ffffffffffffffffffffffffffffffffffffffff1673ffffffffffffffffffffffffffffffffffffffff163373ffffffffffffffffffffffffffffffffffffffff161461033e576040517f08c379a0000000000000000000000000000000000000000000000000000000008152600401610335906113aa565b60405180910390fd5b5f8081548092919061034f906113f5565b91905055505f8054905060405180608001604052808681526020018581526020018481526020018381525060045f8381526020019081526020015f205f820151815f01908161039e9190611636565b5060208201518160010190816103b49190611636565b5060408201518160020190816103ca9190611636565b5060608201518160030190816103e09190611636565b509050503360055f8381526020019081526020015f205f6101000a81548173ffffffffffffffffffffffffffffffffffffffff021916908373ffffffffffffffffffffffffffffffffffffffff1602179055507fb9203d657e9c0ec8274c818292ab0f58b04e1970050716891770eb1bab5d655e8133604051610464929190611705565b60405180910390a15050505050565b60015f9054906101000a900473ffffffffffffffffffffffffffffffffffffffff1673ffffffffffffffffffffffffffffffffffffffff163373ffffffffffffffffffffffffffffffffffffffff1614610502576040517f08c379a00000000000000000000000000000000000000000000000000000000081526004016104f990611776565b60405180910390fd5b5f73ffffffffffffffffffffffffffffffffffffffff1660035f9054906101000a900473ffffffffffffffffffffffffffffffffffffffff1673ffffffffffffffffffffffffffffffffffffffff1614610591576040517f08c379a0000000000000000000000000000000000000000000000000000000008152600401610588906117de565b60405180910390fd5b8060035f6101000a81548173ffffffffffffffffffffffffffffffffffffffff021916908373ffffffffffffffffffffffffffffffffffffffff16021790555050565b6005602052805f5260405f205f915054906101000a900473ffffffffffffffffffffffffffffffffffffffff1681565b60035f9054906101000a900473ffffffffffffffffffffffffffffffffffffffff1673ffffffffffffffffffffffffffffffffffffffff163373ffffffffffffffffffffffffffffffffffffffff1614610693576040517f08c379a000000000000000000000000000000000000000000000000000000000815260040161068a90611846565b60405180910390fd5b8273ffffffffffffffffffffffffffffffffffffffff1660055f8381526020019081526020015f205f9054906101000a900473ffffffffffffffffffffffffffffffffffffffff1673ffffffffffffffffffffffffffffffffffffffff1614610731576040517f08c379a0000000000000000000000000000000000000000000000000000000008152600401610728906118ae565b60405180910390fd5b8160055f8381526020019081526020015f205f6101000a81548173ffffffffffffffffffffffffffffffffffffffff021916908373ffffffffffffffffffffffffffffffffffffffff160217905550505050565b60025f9054906101000a900473ffffffffffffffffffffffffffffffffffffffff1681565b5f80821180156107bb57505f548211155b6107fa576040517f08c379a00000000000000000000000000000000000000000000000000000000081526004016107f190611916565b60405180910390fd5b60055f8381526020019081526020015f205f9054906101000a900473ffffffffffffffffffffffffffffffffffffffff169050919050565b6004602052805f5260405f205f91509050805f01805461085190611469565b80601f016020809104026020016040519081016040528092919081815260200182805461087d90611469565b80156108c85780601f1061089f576101008083540402835291602001916108c8565b820191905f5260205f20905b8154815290600101906020018083116108ab57829003601f168201915b5050505050908060010180546108dd90611469565b80601f016020809104026020016040519081016040528092919081815260200182805461090990611469565b80156109545780601f1061092b57610100808354040283529160200191610954565b820191905f5260205f20905b81548152906001019060200180831161093757829003601f168201915b50505050509080600201805461096990611469565b80601f016020809104026020016040519081016040528092919081815260200182805461099590611469565b80156109e05780601f106109b7576101008083540402835291602001916109e0565b820191905f5260205f20905b8154815290600101906020018083116109c357829003601f168201915b5050505050908060030180546109f590611469565b80601f0160208091040260200160405190810160405280929190818152602001828054610a2190611469565b8015610a6c5780601f10610a4357610100808354040283529160200191610a6c565b820191905f5260205f20905b815481529060010190602001808311610a4f57829003601f168201915b5050505050905084565b60015f9054906101000a900473ffffffffffffffffffffffffffffffffffffffff1681565b6060806060805f60045f8781526020019081526020015f206040518060800160405290815f82018054610acd90611469565b80601f0160208091040260200160405190810160405280929190818152602001828054610af990611469565b8015610b445780601f10610b1b57610100808354040283529160200191610b44565b820191905f5260205f20905b815481529060010190602001808311610b2757829003601f168201915b50505050508152602001600182018054610b5d90611469565b80601f0160208091040260200160405190810160405280929190818152602001828054610b8990611469565b8015610bd45780601f10610bab57610100808354040283529160200191610bd4565b820191905f5260205f20905b815481529060010190602001808311610bb757829003601f168201915b50505050508152602001600282018054610bed90611469565b80601f0160208091040260200160405190810160405280929190818152602001828054610c1990611469565b8015610c645780601f10610c3b57610100808354040283529160200191610c64565b820191905f5260205f20905b815481529060010190602001808311610c4757829003601f168201915b50505050508152602001600382018054610c7d90611469565b80601f0160208091040260200160405190810160405280929190818152602001828054610ca990611469565b8015610cf45780601f10610ccb57610100808354040283529160200191610cf4565b820191905f5260205f20905b815481529060010190602001808311610cd757829003601f168201915b5050505050815250509050805f01518160200151826040015183606001519450945094509450509193509193565b60015f9054906101000a900473ffffffffffffffffffffffffffffffffffffffff1673ffffffffffffffffffffffffffffffffffffffff163373ffffffffffffffffffffffffffffffffffffffff1614610db1576040517f08c379a0000000000000000000000000000000000000000000000000000000008152600401610da890611776565b60405180910390fd5b5f73ffffffffffffffffffffffffffffffffffffffff1660025f9054906101000a900473ffffffffffffffffffffffffffffffffffffffff1673ffffffffffffffffffffffffffffffffffffffff1614610e40576040517f08c379a0000000000000000000000000000000000000000000000000000000008152600401610e379061197e565b60405180910390fd5b8060025f6101000a81548173ffffffffffffffffffffffffffffffffffffffff021916908373ffffffffffffffffffffffffffffffffffffffff16021790555050565b5f5481565b60035f9054906101000a900473ffffffffffffffffffffffffffffffffffffffff1681565b6006602052805f5260405f205f915054906101000a900460ff1681565b5f604051905090565b5f80fd5b5f80fd5b5f80fd5b5f80fd5b5f601f19601f8301169050919050565b7f4e487b71000000000000000000000000000000000000000000000000000000005f52604160045260245ffd5b610f2982610ee3565b810181811067ffffffffffffffff82111715610f4857610f47610ef3565b5b80604052505050565b5f610f5a610eca565b9050610f668282610f20565b919050565b5f67ffffffffffffffff821115610f8557610f84610ef3565b5b610f8e82610ee3565b9050602081019050919050565b828183375f83830152505050565b5f610fbb610fb684610f6b565b610f51565b905082815260208101848484011115610fd757610fd6610edf565b5b610fe2848285610f9b565b509392505050565b5f82601f830112610ffe57610ffd610edb565b5b813561100e848260208601610fa9565b91505092915050565b5f805f806080858703121561102f5761102e610ed3565b5b5f85013567ffffffffffffffff81111561104c5761104b610ed7565b5b61105887828801610fea565b945050602085013567ffffffffffffffff81111561107957611078610ed7565b5b61108587828801610fea565b935050604085013567ffffffffffffffff8111156110a6576110a5610ed7565b5b6110b287828801610fea565b925050606085013567ffffffffffffffff8111156110d3576110d2610ed7565b5b6110df87828801610fea565b91505092959194509250565b5f73ffffffffffffffffffffffffffffffffffffffff82169050919050565b5f611114826110eb565b9050919050565b6111248161110a565b811461112e575f80fd5b50565b5f8135905061113f8161111b565b92915050565b5f6020828403121561115a57611159610ed3565b5b5f61116784828501611131565b91505092915050565b5f819050919050565b61118281611170565b811461118c575f80fd5b50565b5f8135905061119d81611179565b92915050565b5f602082840312156111b8576111b7610ed3565b5b5f6111c58482850161118f565b91505092915050565b6111d78161110a565b82525050565b5f6020820190506111f05f8301846111ce565b92915050565b5f805f6060848603121561120d5761120c610ed3565b5b5f61121a86828701611131565b935050602061122b86828701611131565b925050604061123c8682870161118f565b9150509250925092565b5f81519050919050565b5f82825260208201905092915050565b8281835e5f83830152505050565b5f61127882611246565b6112828185611250565b9350611292818560208601611260565b61129b81610ee3565b840191505092915050565b5f6080820190508181035f8301526112be818761126e565b905081810360208301526112d2818661126e565b905081810360408301526112e6818561126e565b905081810360608301526112fa818461126e565b905095945050505050565b61130e81611170565b82525050565b5f6020820190506113275f830184611305565b92915050565b5f8115159050919050565b6113418161132d565b82525050565b5f60208201905061135a5f830184611338565b92915050565b7f4f6e6c79206d616e7566616374757265722063616e206d696e740000000000005f82015250565b5f611394601a83611250565b915061139f82611360565b602082019050919050565b5f6020820190508181035f8301526113c181611388565b9050919050565b7f4e487b71000000000000000000000000000000000000000000000000000000005f52601160045260245ffd5b5f6113ff82611170565b91507fffffffffffffffffffffffffffffffffffffffffffffffffffffffffffffffff8203611431576114306113c8565b5b600182019050919050565b7f4e487b71000000000000000000000000000000000000000000000000000000005f52602260045260245ffd5b5f600282049050600182168061148057607f821691505b6020821081036114935761149261143c565b5b50919050565b5f819050815f5260205f209050919050565b5f6020601f8301049050919050565b5f82821b905092915050565b5f600883026114f57fffffffffffffffffffffffffffffffffffffffffffffffffffffffffffffffff826114ba565b6114ff86836114ba565b95508019841693508086168417925050509392505050565b5f819050919050565b5f61153a61153561153084611170565b611517565b611170565b9050919050565b5f819050919050565b61155383611520565b61156761155f82611541565b8484546114c6565b825550505050565b5f90565b61157b61156f565b61158681848461154a565b505050565b5b818110156115a95761159e5f82611573565b60018101905061158c565b5050565b601f8211156115ee576115bf81611499565b6115c8846114ab565b810160208510156115d7578190505b6115eb6115e3856114ab565b83018261158b565b50505b505050565b5f82821c905092915050565b5f61160e5f19846008026115f3565b1980831691505092915050565b5f61162683836115ff565b9150826002028217905092915050565b61163f82611246565b67ffffffffffffffff81111561165857611657610ef3565b5b6116628254611469565b61166d8282856115ad565b5f60209050601f83116001811461169e575f841561168c578287015190505b611696858261161b565b8655506116fd565b601f1984166116ac86611499565b5f5b828110156116d3578489015182556001820191506020850194506020810190506116ae565b868310156116f057848901516116ec601f8916826115ff565b8355505b6001600288020188555050505b505050505050565b5f6040820190506117185f830185611305565b61172560208301846111ce565b9392505050565b7f4f6e6c79206d616e7566616374757265722063616e20736574000000000000005f82015250565b5f611760601983611250565b915061176b8261172c565b602082019050919050565b5f6020820190508181035f83015261178d81611754565b9050919050565b7f53616c6520636f6e747261637420616c726561647920736574000000000000005f82015250565b5f6117c8601983611250565b91506117d382611794565b602082019050919050565b5f6020820190508181035f8301526117f5816117bc565b9050919050565b7f4f6e6c792053616c65436f6e74726163742063616e207472616e7366657200005f82015250565b5f611830601e83611250565b915061183b826117fc565b602082019050919050565b5f6020820190508181035f83015261185d81611824565b9050919050565b7f4e6f742074686520746f6b656e206f776e6572000000000000000000000000005f82015250565b5f611898601383611250565b91506118a382611864565b602082019050919050565b5f6020820190508181035f8301526118c58161188c565b9050919050565b7f546f6b656e20646f6573206e6f742065786973740000000000000000000000005f82015250565b5f611900601483611250565b915061190b826118cc565b602082019050919050565b5f6020820190508181035f83015261192d816118f4565b9050919050565b7f436f6e74726f6c20636f6e747261637420616c726561647920736574000000005f82015250565b5f611968601c83611250565b915061197382611934565b602082019050919050565b5f6020820190508181035f8301526119958161195c565b905091905056fea264697066735822122034dd727fdcc563617764fab19eae2a80bbb32646531ed98f2c4682051d21fd8a64736f6c634300081a0033",
					"opcodes": "PUSH1 0x80 PUSH1 0x40 MSTORE CALLVALUE DUP1 ISZERO PUSH1 0xE JUMPI PUSH0 DUP1 REVERT JUMPDEST POP CALLER PUSH1 0x1 PUSH0 PUSH2 0x100 EXP DUP2 SLOAD DUP2 PUSH20 0xFFFFFFFFFFFFFFFFFFFFFFFFFFFFFFFFFFFFFFFF MUL NOT AND SWAP1 DUP4 PUSH20 0xFFFFFFFFFFFFFFFFFFFFFFFFFFFFFFFFFFFFFFFF AND MUL OR SWAP1 SSTORE POP PUSH0 DUP1 DUP2 SWAP1 SSTORE POP PUSH2 0x19D2 DUP1 PUSH2 0x62 PUSH0 CODECOPY PUSH0 RETURN INVALID PUSH1 0x80 PUSH1 0x40 MSTORE CALLVALUE DUP1 ISZERO PUSH2 0xF JUMPI PUSH0 DUP1 REVERT JUMPDEST POP PUSH1 0x4 CALLDATASIZE LT PUSH2 0xCD JUMPI PUSH0 CALLDATALOAD PUSH1 0xE0 SHR DUP1 PUSH4 0x6914DB60 GT PUSH2 0x8A JUMPI DUP1 PUSH4 0xCA35E8A0 GT PUSH2 0x64 JUMPI DUP1 PUSH4 0xCA35E8A0 EQ PUSH2 0x227 JUMPI DUP1 PUSH4 0xD082E381 EQ PUSH2 0x243 JUMPI DUP1 PUSH4 0xDAF6CA30 EQ PUSH2 0x261 JUMPI DUP1 PUSH4 0xFF721ABA EQ PUSH2 0x27F JUMPI PUSH2 0xCD JUMP JUMPDEST DUP1 PUSH4 0x6914DB60 EQ PUSH2 0x1A3 JUMPI DUP1 PUSH4 0x74754282 EQ PUSH2 0x1D6 JUMPI DUP1 PUSH4 0xA574CEA4 EQ PUSH2 0x1F4 JUMPI PUSH2 0xCD JUMP JUMPDEST DUP1 PUSH4 0x2341C71 EQ PUSH2 0xD1 JUMPI DUP1 PUSH4 0x593D244 EQ PUSH2 0xED JUMPI DUP1 PUSH4 0x1CAAA487 EQ PUSH2 0x109 JUMPI DUP1 PUSH4 0x23B872DD EQ PUSH2 0x139 JUMPI DUP1 PUSH4 0x48CCFE47 EQ PUSH2 0x155 JUMPI DUP1 PUSH4 0x6352211E EQ PUSH2 0x173 JUMPI JUMPDEST PUSH0 DUP1 REVERT JUMPDEST PUSH2 0xEB PUSH1 0x4 DUP1 CALLDATASIZE SUB DUP2 ADD SWAP1 PUSH2 0xE6 SWAP2 SWAP1 PUSH2 0x1017 JUMP JUMPDEST PUSH2 0x2AF JUMP JUMPDEST STOP JUMPDEST PUSH2 0x107 PUSH1 0x4 DUP1 CALLDATASIZE SUB DUP2 ADD SWAP1 PUSH2 0x102 SWAP2 SWAP1 PUSH2 0x1145 JUMP JUMPDEST PUSH2 0x473 JUMP JUMPDEST STOP JUMPDEST PUSH2 0x123 PUSH1 0x4 DUP1 CALLDATASIZE SUB DUP2 ADD SWAP1 PUSH2 0x11E SWAP2 SWAP1 PUSH2 0x11A3 JUMP JUMPDEST PUSH2 0x5D4 JUMP JUMPDEST PUSH1 0x40 MLOAD PUSH2 0x130 SWAP2 SWAP1 PUSH2 0x11DD JUMP JUMPDEST PUSH1 0x40 MLOAD DUP1 SWAP2 SUB SWAP1 RETURN JUMPDEST PUSH2 0x153 PUSH1 0x4 DUP1 CALLDATASIZE SUB DUP2 ADD SWAP1 PUSH2 0x14E SWAP2 SWAP1 PUSH2 0x11F6 JUMP JUMPDEST PUSH2 0x604 JUMP JUMPDEST STOP JUMPDEST PUSH2 0x15D PUSH2 0x785 JUMP JUMPDEST PUSH1 0x40 MLOAD PUSH2 0x16A SWAP2 SWAP1 PUSH2 0x11DD JUMP JUMPDEST PUSH1 0x40 MLOAD DUP1 SWAP2 SUB SWAP1 RETURN JUMPDEST PUSH2 0x18D PUSH1 0x4 DUP1 CALLDATASIZE SUB DUP2 ADD SWAP1 PUSH2 0x188 SWAP2 SWAP1 PUSH2 0x11A3 JUMP JUMPDEST PUSH2 0x7AA JUMP JUMPDEST PUSH1 0x40 MLOAD PUSH2 0x19A SWAP2 SWAP1 PUSH2 0x11DD JUMP JUMPDEST PUSH1 0x40 MLOAD DUP1 SWAP2 SUB SWAP1 RETURN JUMPDEST PUSH2 0x1BD PUSH1 0x4 DUP1 CALLDATASIZE SUB DUP2 ADD SWAP1 PUSH2 0x1B8 SWAP2 SWAP1 PUSH2 0x11A3 JUMP JUMPDEST PUSH2 0x832 JUMP JUMPDEST PUSH1 0x40 MLOAD PUSH2 0x1CD SWAP5 SWAP4 SWAP3 SWAP2 SWAP1 PUSH2 0x12A6 JUMP JUMPDEST PUSH1 0x40 MLOAD DUP1 SWAP2 SUB SWAP1 RETURN JUMPDEST PUSH2 0x1DE PUSH2 0xA76 JUMP JUMPDEST PUSH1 0x40 MLOAD PUSH2 0x1EB SWAP2 SWAP1 PUSH2 0x11DD JUMP JUMPDEST PUSH1 0x40 MLOAD DUP1 SWAP2 SUB SWAP1 RETURN JUMPDEST PUSH2 0x20E PUSH1 0x4 DUP1 CALLDATASIZE SUB DUP2 ADD SWAP1 PUSH2 0x209 SWAP2 SWAP1 PUSH2 0x11A3 JUMP JUMPDEST PUSH2 0xA9B JUMP JUMPDEST PUSH1 0x40 MLOAD PUSH2 0x21E SWAP5 SWAP4 SWAP3 SWAP2 SWAP1 PUSH2 0x12A6 JUMP JUMPDEST PUSH1 0x40 MLOAD DUP1 SWAP2 SUB SWAP1 RETURN JUMPDEST PUSH2 0x241 PUSH1 0x4 DUP1 CALLDATASIZE SUB DUP2 ADD SWAP1 PUSH2 0x23C SWAP2 SWAP1 PUSH2 0x1145 JUMP JUMPDEST PUSH2 0xD22 JUMP JUMPDEST STOP JUMPDEST PUSH2 0x24B PUSH2 0xE83 JUMP JUMPDEST PUSH1 0x40 MLOAD PUSH2 0x258 SWAP2 SWAP1 PUSH2 0x1314 JUMP JUMPDEST PUSH1 0x40 MLOAD DUP1 SWAP2 SUB SWAP1 RETURN JUMPDEST PUSH2 0x269 PUSH2 0xE88 JUMP JUMPDEST PUSH1 0x40 MLOAD PUSH2 0x276 SWAP2 SWAP1 PUSH2 0x11DD JUMP JUMPDEST PUSH1 0x40 MLOAD DUP1 SWAP2 SUB SWAP1 RETURN JUMPDEST PUSH2 0x299 PUSH1 0x4 DUP1 CALLDATASIZE SUB DUP2 ADD SWAP1 PUSH2 0x294 SWAP2 SWAP1 PUSH2 0x1145 JUMP JUMPDEST PUSH2 0xEAD JUMP JUMPDEST PUSH1 0x40 MLOAD PUSH2 0x2A6 SWAP2 SWAP1 PUSH2 0x1347 JUMP JUMPDEST PUSH1 0x40 MLOAD DUP1 SWAP2 SUB SWAP1 RETURN JUMPDEST PUSH1 0x1 PUSH0 SWAP1 SLOAD SWAP1 PUSH2 0x100 EXP SWAP1 DIV PUSH20 0xFFFFFFFFFFFFFFFFFFFFFFFFFFFFFFFFFFFFFFFF AND PUSH20 0xFFFFFFFFFFFFFFFFFFFFFFFFFFFFFFFFFFFFFFFF AND CALLER PUSH20 0xFFFFFFFFFFFFFFFFFFFFFFFFFFFFFFFFFFFFFFFF AND EQ PUSH2 0x33E JUMPI PUSH1 0x40 MLOAD PUSH32 0x8C379A000000000000000000000000000000000000000000000000000000000 DUP2 MSTORE PUSH1 0x4 ADD PUSH2 0x335 SWAP1 PUSH2 0x13AA JUMP JUMPDEST PUSH1 0x40 MLOAD DUP1 SWAP2 SUB SWAP1 REVERT JUMPDEST PUSH0 DUP1 DUP2 SLOAD DUP1 SWAP3 SWAP2 SWAP1 PUSH2 0x34F SWAP1 PUSH2 0x13F5 JUMP JUMPDEST SWAP2 SWAP1 POP SSTORE POP PUSH0 DUP1 SLOAD SWAP1 POP PUSH1 0x40 MLOAD DUP1 PUSH1 0x80 ADD PUSH1 0x40 MSTORE DUP1 DUP7 DUP2 MSTORE PUSH1 0x20 ADD DUP6 DUP2 MSTORE PUSH1 0x20 ADD DUP5 DUP2 MSTORE PUSH1 0x20 ADD DUP4 DUP2 MSTORE POP PUSH1 0x4 PUSH0 DUP4 DUP2 MSTORE PUSH1 0x20 ADD SWAP1 DUP2 MSTORE PUSH1 0x20 ADD PUSH0 KECCAK256 PUSH0 DUP3 ADD MLOAD DUP2 PUSH0 ADD SWAP1 DUP2 PUSH2 0x39E SWAP2 SWAP1 PUSH2 0x1636 JUMP JUMPDEST POP PUSH1 0x20 DUP3 ADD MLOAD DUP2 PUSH1 0x1 ADD SWAP1 DUP2 PUSH2 0x3B4 SWAP2 SWAP1 PUSH2 0x1636 JUMP JUMPDEST POP PUSH1 0x40 DUP3 ADD MLOAD DUP2 PUSH1 0x2 ADD SWAP1 DUP2 PUSH2 0x3CA SWAP2 SWAP1 PUSH2 0x1636 JUMP JUMPDEST POP PUSH1 0x60 DUP3 ADD MLOAD DUP2 PUSH1 0x3 ADD SWAP1 DUP2 PUSH2 0x3E0 SWAP2 SWAP1 PUSH2 0x1636 JUMP JUMPDEST POP SWAP1 POP POP CALLER PUSH1 0x5 PUSH0 DUP4 DUP2 MSTORE PUSH1 0x20 ADD SWAP1 DUP2 MSTORE PUSH1 0x20 ADD PUSH0 KECCAK256 PUSH0 PUSH2 0x100 EXP DUP2 SLOAD DUP2 PUSH20 0xFFFFFFFFFFFFFFFFFFFFFFFFFFFFFFFFFFFFFFFF MUL NOT AND SWAP1 DUP4 PUSH20 0xFFFFFFFFFFFFFFFFFFFFFFFFFFFFFFFFFFFFFFFF AND MUL OR SWAP1 SSTORE POP PUSH32 0xB9203D657E9C0EC8274C818292AB0F58B04E1970050716891770EB1BAB5D655E DUP2 CALLER PUSH1 0x40 MLOAD PUSH2 0x464 SWAP3 SWAP2 SWAP1 PUSH2 0x1705 JUMP JUMPDEST PUSH1 0x40 MLOAD DUP1 SWAP2 SUB SWAP1 LOG1 POP POP POP POP POP JUMP JUMPDEST PUSH1 0x1 PUSH0 SWAP1 SLOAD SWAP1 PUSH2 0x100 EXP SWAP1 DIV PUSH20 0xFFFFFFFFFFFFFFFFFFFFFFFFFFFFFFFFFFFFFFFF AND PUSH20 0xFFFFFFFFFFFFFFFFFFFFFFFFFFFFFFFFFFFFFFFF AND CALLER PUSH20 0xFFFFFFFFFFFFFFFFFFFFFFFFFFFFFFFFFFFFFFFF AND EQ PUSH2 0x502 JUMPI PUSH1 0x40 MLOAD PUSH32 0x8C379A000000000000000000000000000000000000000000000000000000000 DUP2 MSTORE PUSH1 0x4 ADD PUSH2 0x4F9 SWAP1 PUSH2 0x1776 JUMP JUMPDEST PUSH1 0x40 MLOAD DUP1 SWAP2 SUB SWAP1 REVERT JUMPDEST PUSH0 PUSH20 0xFFFFFFFFFFFFFFFFFFFFFFFFFFFFFFFFFFFFFFFF AND PUSH1 0x3 PUSH0 SWAP1 SLOAD SWAP1 PUSH2 0x100 EXP SWAP1 DIV PUSH20 0xFFFFFFFFFFFFFFFFFFFFFFFFFFFFFFFFFFFFFFFF AND PUSH20 0xFFFFFFFFFFFFFFFFFFFFFFFFFFFFFFFFFFFFFFFF AND EQ PUSH2 0x591 JUMPI PUSH1 0x40 MLOAD PUSH32 0x8C379A000000000000000000000000000000000000000000000000000000000 DUP2 MSTORE PUSH1 0x4 ADD PUSH2 0x588 SWAP1 PUSH2 0x17DE JUMP JUMPDEST PUSH1 0x40 MLOAD DUP1 SWAP2 SUB SWAP1 REVERT JUMPDEST DUP1 PUSH1 0x3 PUSH0 PUSH2 0x100 EXP DUP2 SLOAD DUP2 PUSH20 0xFFFFFFFFFFFFFFFFFFFFFFFFFFFFFFFFFFFFFFFF MUL NOT AND SWAP1 DUP4 PUSH20 0xFFFFFFFFFFFFFFFFFFFFFFFFFFFFFFFFFFFFFFFF AND MUL OR SWAP1 SSTORE POP POP JUMP JUMPDEST PUSH1 0x5 PUSH1 0x20 MSTORE DUP1 PUSH0 MSTORE PUSH1 0x40 PUSH0 KECCAK256 PUSH0 SWAP2 POP SLOAD SWAP1 PUSH2 0x100 EXP SWAP1 DIV PUSH20 0xFFFFFFFFFFFFFFFFFFFFFFFFFFFFFFFFFFFFFFFF AND DUP2 JUMP JUMPDEST PUSH1 0x3 PUSH0 SWAP1 SLOAD SWAP1 PUSH2 0x100 EXP SWAP1 DIV PUSH20 0xFFFFFFFFFFFFFFFFFFFFFFFFFFFFFFFFFFFFFFFF AND PUSH20 0xFFFFFFFFFFFFFFFFFFFFFFFFFFFFFFFFFFFFFFFF AND CALLER PUSH20 0xFFFFFFFFFFFFFFFFFFFFFFFFFFFFFFFFFFFFFFFF AND EQ PUSH2 0x693 JUMPI PUSH1 0x40 MLOAD PUSH32 0x8C379A000000000000000000000000000000000000000000000000000000000 DUP2 MSTORE PUSH1 0x4 ADD PUSH2 0x68A SWAP1 PUSH2 0x1846 JUMP JUMPDEST PUSH1 0x40 MLOAD DUP1 SWAP2 SUB SWAP1 REVERT JUMPDEST DUP3 PUSH20 0xFFFFFFFFFFFFFFFFFFFFFFFFFFFFFFFFFFFFFFFF AND PUSH1 0x5 PUSH0 DUP4 DUP2 MSTORE PUSH1 0x20 ADD SWAP1 DUP2 MSTORE PUSH1 0x20 ADD PUSH0 KECCAK256 PUSH0 SWAP1 SLOAD SWAP1 PUSH2 0x100 EXP SWAP1 DIV PUSH20 0xFFFFFFFFFFFFFFFFFFFFFFFFFFFFFFFFFFFFFFFF AND PUSH20 0xFFFFFFFFFFFFFFFFFFFFFFFFFFFFFFFFFFFFFFFF AND EQ PUSH2 0x731 JUMPI PUSH1 0x40 MLOAD PUSH32 0x8C379A000000000000000000000000000000000000000000000000000000000 DUP2 MSTORE PUSH1 0x4 ADD PUSH2 0x728 SWAP1 PUSH2 0x18AE JUMP JUMPDEST PUSH1 0x40 MLOAD DUP1 SWAP2 SUB SWAP1 REVERT JUMPDEST DUP2 PUSH1 0x5 PUSH0 DUP4 DUP2 MSTORE PUSH1 0x20 ADD SWAP1 DUP2 MSTORE PUSH1 0x20 ADD PUSH0 KECCAK256 PUSH0 PUSH2 0x100 EXP DUP2 SLOAD DUP2 PUSH20 0xFFFFFFFFFFFFFFFFFFFFFFFFFFFFFFFFFFFFFFFF MUL NOT AND SWAP1 DUP4 PUSH20 0xFFFFFFFFFFFFFFFFFFFFFFFFFFFFFFFFFFFFFFFF AND MUL OR SWAP1 SSTORE POP POP POP POP JUMP JUMPDEST PUSH1 0x2 PUSH0 SWAP1 SLOAD SWAP1 PUSH2 0x100 EXP SWAP1 DIV PUSH20 0xFFFFFFFFFFFFFFFFFFFFFFFFFFFFFFFFFFFFFFFF AND DUP2 JUMP JUMPDEST PUSH0 DUP1 DUP3 GT DUP1 ISZERO PUSH2 0x7BB JUMPI POP PUSH0 SLOAD DUP3 GT ISZERO JUMPDEST PUSH2 0x7FA JUMPI PUSH1 0x40 MLOAD PUSH32 0x8C379A000000000000000000000000000000000000000000000000000000000 DUP2 MSTORE PUSH1 0x4 ADD PUSH2 0x7F1 SWAP1 PUSH2 0x1916 JUMP JUMPDEST PUSH1 0x40 MLOAD DUP1 SWAP2 SUB SWAP1 REVERT JUMPDEST PUSH1 0x5 PUSH0 DUP4 DUP2 MSTORE PUSH1 0x20 ADD SWAP1 DUP2 MSTORE PUSH1 0x20 ADD PUSH0 KECCAK256 PUSH0 SWAP1 SLOAD SWAP1 PUSH2 0x100 EXP SWAP1 DIV PUSH20 0xFFFFFFFFFFFFFFFFFFFFFFFFFFFFFFFFFFFFFFFF AND SWAP1 POP SWAP2 SWAP1 POP JUMP JUMPDEST PUSH1 0x4 PUSH1 0x20 MSTORE DUP1 PUSH0 MSTORE PUSH1 0x40 PUSH0 KECCAK256 PUSH0 SWAP2 POP SWAP1 POP DUP1 PUSH0 ADD DUP1 SLOAD PUSH2 0x851 SWAP1 PUSH2 0x1469 JUMP JUMPDEST DUP1 PUSH1 0x1F ADD PUSH1 0x20 DUP1 SWAP2 DIV MUL PUSH1 0x20 ADD PUSH1 0x40 MLOAD SWAP1 DUP2 ADD PUSH1 0x40 MSTORE DUP1 SWAP3 SWAP2 SWAP1 DUP2 DUP2 MSTORE PUSH1 0x20 ADD DUP3 DUP1 SLOAD PUSH2 0x87D SWAP1 PUSH2 0x1469 JUMP JUMPDEST DUP1 ISZERO PUSH2 0x8C8 JUMPI DUP1 PUSH1 0x1F LT PUSH2 0x89F JUMPI PUSH2 0x100 DUP1 DUP4 SLOAD DIV MUL DUP4 MSTORE SWAP2 PUSH1 0x20 ADD SWAP2 PUSH2 0x8C8 JUMP JUMPDEST DUP3 ADD SWAP2 SWAP1 PUSH0 MSTORE PUSH1 0x20 PUSH0 KECCAK256 SWAP1 JUMPDEST DUP2 SLOAD DUP2 MSTORE SWAP1 PUSH1 0x1 ADD SWAP1 PUSH1 0x20 ADD DUP1 DUP4 GT PUSH2 0x8AB JUMPI DUP3 SWAP1 SUB PUSH1 0x1F AND DUP3 ADD SWAP2 JUMPDEST POP POP POP POP POP SWAP1 DUP1 PUSH1 0x1 ADD DUP1 SLOAD PUSH2 0x8DD SWAP1 PUSH2 0x1469 JUMP JUMPDEST DUP1 PUSH1 0x1F ADD PUSH1 0x20 DUP1 SWAP2 DIV MUL PUSH1 0x20 ADD PUSH1 0x40 MLOAD SWAP1 DUP2 ADD PUSH1 0x40 MSTORE DUP1 SWAP3 SWAP2 SWAP1 DUP2 DUP2 MSTORE PUSH1 0x20 ADD DUP3 DUP1 SLOAD PUSH2 0x909 SWAP1 PUSH2 0x1469 JUMP JUMPDEST DUP1 ISZERO PUSH2 0x954 JUMPI DUP1 PUSH1 0x1F LT PUSH2 0x92B JUMPI PUSH2 0x100 DUP1 DUP4 SLOAD DIV MUL DUP4 MSTORE SWAP2 PUSH1 0x20 ADD SWAP2 PUSH2 0x954 JUMP JUMPDEST DUP3 ADD SWAP2 SWAP1 PUSH0 MSTORE PUSH1 0x20 PUSH0 KECCAK256 SWAP1 JUMPDEST DUP2 SLOAD DUP2 MSTORE SWAP1 PUSH1 0x1 ADD SWAP1 PUSH1 0x20 ADD DUP1 DUP4 GT PUSH2 0x937 JUMPI DUP3 SWAP1 SUB PUSH1 0x1F AND DUP3 ADD SWAP2 JUMPDEST POP POP POP POP POP SWAP1 DUP1 PUSH1 0x2 ADD DUP1 SLOAD PUSH2 0x969 SWAP1 PUSH2 0x1469 JUMP JUMPDEST DUP1 PUSH1 0x1F ADD PUSH1 0x20 DUP1 SWAP2 DIV MUL PUSH1 0x20 ADD PUSH1 0x40 MLOAD SWAP1 DUP2 ADD PUSH1 0x40 MSTORE DUP1 SWAP3 SWAP2 SWAP1 DUP2 DUP2 MSTORE PUSH1 0x20 ADD DUP3 DUP1 SLOAD PUSH2 0x995 SWAP1 PUSH2 0x1469 JUMP JUMPDEST DUP1 ISZERO PUSH2 0x9E0 JUMPI DUP1 PUSH1 0x1F LT PUSH2 0x9B7 JUMPI PUSH2 0x100 DUP1 DUP4 SLOAD DIV MUL DUP4 MSTORE SWAP2 PUSH1 0x20 ADD SWAP2 PUSH2 0x9E0 JUMP JUMPDEST DUP3 ADD SWAP2 SWAP1 PUSH0 MSTORE PUSH1 0x20 PUSH0 KECCAK256 SWAP1 JUMPDEST DUP2 SLOAD DUP2 MSTORE SWAP1 PUSH1 0x1 ADD SWAP1 PUSH1 0x20 ADD DUP1 DUP4 GT PUSH2 0x9C3 JUMPI DUP3 SWAP1 SUB PUSH1 0x1F AND DUP3 ADD SWAP2 JUMPDEST POP POP POP POP POP SWAP1 DUP1 PUSH1 0x3 ADD DUP1 SLOAD PUSH2 0x9F5 SWAP1 PUSH2 0x1469 JUMP JUMPDEST DUP1 PUSH1 0x1F ADD PUSH1 0x20 DUP1 SWAP2 DIV MUL PUSH1 0x20 ADD PUSH1 0x40 MLOAD SWAP1 DUP2 ADD PUSH1 0x40 MSTORE DUP1 SWAP3 SWAP2 SWAP1 DUP2 DUP2 MSTORE PUSH1 0x20 ADD DUP3 DUP1 SLOAD PUSH2 0xA21 SWAP1 PUSH2 0x1469 JUMP JUMPDEST DUP1 ISZERO PUSH2 0xA6C JUMPI DUP1 PUSH1 0x1F LT PUSH2 0xA43 JUMPI PUSH2 0x100 DUP1 DUP4 SLOAD DIV MUL DUP4 MSTORE SWAP2 PUSH1 0x20 ADD SWAP2 PUSH2 0xA6C JUMP JUMPDEST DUP3 ADD SWAP2 SWAP1 PUSH0 MSTORE PUSH1 0x20 PUSH0 KECCAK256 SWAP1 JUMPDEST DUP2 SLOAD DUP2 MSTORE SWAP1 PUSH1 0x1 ADD SWAP1 PUSH1 0x20 ADD DUP1 DUP4 GT PUSH2 0xA4F JUMPI DUP3 SWAP1 SUB PUSH1 0x1F AND DUP3 ADD SWAP2 JUMPDEST POP POP POP POP POP SWAP1 POP DUP5 JUMP JUMPDEST PUSH1 0x1 PUSH0 SWAP1 SLOAD SWAP1 PUSH2 0x100 EXP SWAP1 DIV PUSH20 0xFFFFFFFFFFFFFFFFFFFFFFFFFFFFFFFFFFFFFFFF AND DUP2 JUMP JUMPDEST PUSH1 0x60 DUP1 PUSH1 0x60 DUP1 PUSH0 PUSH1 0x4 PUSH0 DUP8 DUP2 MSTORE PUSH1 0x20 ADD SWAP1 DUP2 MSTORE PUSH1 0x20 ADD PUSH0 KECCAK256 PUSH1 0x40 MLOAD DUP1 PUSH1 0x80 ADD PUSH1 0x40 MSTORE SWAP1 DUP2 PUSH0 DUP3 ADD DUP1 SLOAD PUSH2 0xACD SWAP1 PUSH2 0x1469 JUMP JUMPDEST DUP1 PUSH1 0x1F ADD PUSH1 0x20 DUP1 SWAP2 DIV MUL PUSH1 0x20 ADD PUSH1 0x40 MLOAD SWAP1 DUP2 ADD PUSH1 0x40 MSTORE DUP1 SWAP3 SWAP2 SWAP1 DUP2 DUP2 MSTORE PUSH1 0x20 ADD DUP3 DUP1 SLOAD PUSH2 0xAF9 SWAP1 PUSH2 0x1469 JUMP JUMPDEST DUP1 ISZERO PUSH2 0xB44 JUMPI DUP1 PUSH1 0x1F LT PUSH2 0xB1B JUMPI PUSH2 0x100 DUP1 DUP4 SLOAD DIV MUL DUP4 MSTORE SWAP2 PUSH1 0x20 ADD SWAP2 PUSH2 0xB44 JUMP JUMPDEST DUP3 ADD SWAP2 SWAP1 PUSH0 MSTORE PUSH1 0x20 PUSH0 KECCAK256 SWAP1 JUMPDEST DUP2 SLOAD DUP2 MSTORE SWAP1 PUSH1 0x1 ADD SWAP1 PUSH1 0x20 ADD DUP1 DUP4 GT PUSH2 0xB27 JUMPI DUP3 SWAP1 SUB PUSH1 0x1F AND DUP3 ADD SWAP2 JUMPDEST POP POP POP POP POP DUP2 MSTORE PUSH1 0x20 ADD PUSH1 0x1 DUP3 ADD DUP1 SLOAD PUSH2 0xB5D SWAP1 PUSH2 0x1469 JUMP JUMPDEST DUP1 PUSH1 0x1F ADD PUSH1 0x20 DUP1 SWAP2 DIV MUL PUSH1 0x20 ADD PUSH1 0x40 MLOAD SWAP1 DUP2 ADD PUSH1 0x40 MSTORE DUP1 SWAP3 SWAP2 SWAP1 DUP2 DUP2 MSTORE PUSH1 0x20 ADD DUP3 DUP1 SLOAD PUSH2 0xB89 SWAP1 PUSH2 0x1469 JUMP JUMPDEST DUP1 ISZERO PUSH2 0xBD4 JUMPI DUP1 PUSH1 0x1F LT PUSH2 0xBAB JUMPI PUSH2 0x100 DUP1 DUP4 SLOAD DIV MUL DUP4 MSTORE SWAP2 PUSH1 0x20 ADD SWAP2 PUSH2 0xBD4 JUMP JUMPDEST DUP3 ADD SWAP2 SWAP1 PUSH0 MSTORE PUSH1 0x20 PUSH0 KECCAK256 SWAP1 JUMPDEST DUP2 SLOAD DUP2 MSTORE SWAP1 PUSH1 0x1 ADD SWAP1 PUSH1 0x20 ADD DUP1 DUP4 GT PUSH2 0xBB7 JUMPI DUP3 SWAP1 SUB PUSH1 0x1F AND DUP3 ADD SWAP2 JUMPDEST POP POP POP POP POP DUP2 MSTORE PUSH1 0x20 ADD PUSH1 0x2 DUP3 ADD DUP1 SLOAD PUSH2 0xBED SWAP1 PUSH2 0x1469 JUMP JUMPDEST DUP1 PUSH1 0x1F ADD PUSH1 0x20 DUP1 SWAP2 DIV MUL PUSH1 0x20 ADD PUSH1 0x40 MLOAD SWAP1 DUP2 ADD PUSH1 0x40 MSTORE DUP1 SWAP3 SWAP2 SWAP1 DUP2 DUP2 MSTORE PUSH1 0x20 ADD DUP3 DUP1 SLOAD PUSH2 0xC19 SWAP1 PUSH2 0x1469 JUMP JUMPDEST DUP1 ISZERO PUSH2 0xC64 JUMPI DUP1 PUSH1 0x1F LT PUSH2 0xC3B JUMPI PUSH2 0x100 DUP1 DUP4 SLOAD DIV MUL DUP4 MSTORE SWAP2 PUSH1 0x20 ADD SWAP2 PUSH2 0xC64 JUMP JUMPDEST DUP3 ADD SWAP2 SWAP1 PUSH0 MSTORE PUSH1 0x20 PUSH0 KECCAK256 SWAP1 JUMPDEST DUP2 SLOAD DUP2 MSTORE SWAP1 PUSH1 0x1 ADD SWAP1 PUSH1 0x20 ADD DUP1 DUP4 GT PUSH2 0xC47 JUMPI DUP3 SWAP1 SUB PUSH1 0x1F AND DUP3 ADD SWAP2 JUMPDEST POP POP POP POP POP DUP2 MSTORE PUSH1 0x20 ADD PUSH1 0x3 DUP3 ADD DUP1 SLOAD PUSH2 0xC7D SWAP1 PUSH2 0x1469 JUMP JUMPDEST DUP1 PUSH1 0x1F ADD PUSH1 0x20 DUP1 SWAP2 DIV MUL PUSH1 0x20 ADD PUSH1 0x40 MLOAD SWAP1 DUP2 ADD PUSH1 0x40 MSTORE DUP1 SWAP3 SWAP2 SWAP1 DUP2 DUP2 MSTORE PUSH1 0x20 ADD DUP3 DUP1 SLOAD PUSH2 0xCA9 SWAP1 PUSH2 0x1469 JUMP JUMPDEST DUP1 ISZERO PUSH2 0xCF4 JUMPI DUP1 PUSH1 0x1F LT PUSH2 0xCCB JUMPI PUSH2 0x100 DUP1 DUP4 SLOAD DIV MUL DUP4 MSTORE SWAP2 PUSH1 0x20 ADD SWAP2 PUSH2 0xCF4 JUMP JUMPDEST DUP3 ADD SWAP2 SWAP1 PUSH0 MSTORE PUSH1 0x20 PUSH0 KECCAK256 SWAP1 JUMPDEST DUP2 SLOAD DUP2 MSTORE SWAP1 PUSH1 0x1 ADD SWAP1 PUSH1 0x20 ADD DUP1 DUP4 GT PUSH2 0xCD7 JUMPI DUP3 SWAP1 SUB PUSH1 0x1F AND DUP3 ADD SWAP2 JUMPDEST POP POP POP POP POP DUP2 MSTORE POP POP SWAP1 POP DUP1 PUSH0 ADD MLOAD DUP2 PUSH1 0x20 ADD MLOAD DUP3 PUSH1 0x40 ADD MLOAD DUP4 PUSH1 0x60 ADD MLOAD SWAP5 POP SWAP5 POP SWAP5 POP SWAP5 POP POP SWAP2 SWAP4 POP SWAP2 SWAP4 JUMP JUMPDEST PUSH1 0x1 PUSH0 SWAP1 SLOAD SWAP1 PUSH2 0x100 EXP SWAP1 DIV PUSH20 0xFFFFFFFFFFFFFFFFFFFFFFFFFFFFFFFFFFFFFFFF AND PUSH20 0xFFFFFFFFFFFFFFFFFFFFFFFFFFFFFFFFFFFFFFFF AND CALLER PUSH20 0xFFFFFFFFFFFFFFFFFFFFFFFFFFFFFFFFFFFFFFFF AND EQ PUSH2 0xDB1 JUMPI PUSH1 0x40 MLOAD PUSH32 0x8C379A000000000000000000000000000000000000000000000000000000000 DUP2 MSTORE PUSH1 0x4 ADD PUSH2 0xDA8 SWAP1 PUSH2 0x1776 JUMP JUMPDEST PUSH1 0x40 MLOAD DUP1 SWAP2 SUB SWAP1 REVERT JUMPDEST PUSH0 PUSH20 0xFFFFFFFFFFFFFFFFFFFFFFFFFFFFFFFFFFFFFFFF AND PUSH1 0x2 PUSH0 SWAP1 SLOAD SWAP1 PUSH2 0x100 EXP SWAP1 DIV PUSH20 0xFFFFFFFFFFFFFFFFFFFFFFFFFFFFFFFFFFFFFFFF AND PUSH20 0xFFFFFFFFFFFFFFFFFFFFFFFFFFFFFFFFFFFFFFFF AND EQ PUSH2 0xE40 JUMPI PUSH1 0x40 MLOAD PUSH32 0x8C379A000000000000000000000000000000000000000000000000000000000 DUP2 MSTORE PUSH1 0x4 ADD PUSH2 0xE37 SWAP1 PUSH2 0x197E JUMP JUMPDEST PUSH1 0x40 MLOAD DUP1 SWAP2 SUB SWAP1 REVERT JUMPDEST DUP1 PUSH1 0x2 PUSH0 PUSH2 0x100 EXP DUP2 SLOAD DUP2 PUSH20 0xFFFFFFFFFFFFFFFFFFFFFFFFFFFFFFFFFFFFFFFF MUL NOT AND SWAP1 DUP4 PUSH20 0xFFFFFFFFFFFFFFFFFFFFFFFFFFFFFFFFFFFFFFFF AND MUL OR SWAP1 SSTORE POP POP JUMP JUMPDEST PUSH0 SLOAD DUP2 JUMP JUMPDEST PUSH1 0x3 PUSH0 SWAP1 SLOAD SWAP1 PUSH2 0x100 EXP SWAP1 DIV PUSH20 0xFFFFFFFFFFFFFFFFFFFFFFFFFFFFFFFFFFFFFFFF AND DUP2 JUMP JUMPDEST PUSH1 0x6 PUSH1 0x20 MSTORE DUP1 PUSH0 MSTORE PUSH1 0x40 PUSH0 KECCAK256 PUSH0 SWAP2 POP SLOAD SWAP1 PUSH2 0x100 EXP SWAP1 DIV PUSH1 0xFF AND DUP2 JUMP JUMPDEST PUSH0 PUSH1 0x40 MLOAD SWAP1 POP SWAP1 JUMP JUMPDEST PUSH0 DUP1 REVERT JUMPDEST PUSH0 DUP1 REVERT JUMPDEST PUSH0 DUP1 REVERT JUMPDEST PUSH0 DUP1 REVERT JUMPDEST PUSH0 PUSH1 0x1F NOT PUSH1 0x1F DUP4 ADD AND SWAP1 POP SWAP2 SWAP1 POP JUMP JUMPDEST PUSH32 0x4E487B7100000000000000000000000000000000000000000000000000000000 PUSH0 MSTORE PUSH1 0x41 PUSH1 0x4 MSTORE PUSH1 0x24 PUSH0 REVERT JUMPDEST PUSH2 0xF29 DUP3 PUSH2 0xEE3 JUMP JUMPDEST DUP2 ADD DUP2 DUP2 LT PUSH8 0xFFFFFFFFFFFFFFFF DUP3 GT OR ISZERO PUSH2 0xF48 JUMPI PUSH2 0xF47 PUSH2 0xEF3 JUMP JUMPDEST JUMPDEST DUP1 PUSH1 0x40 MSTORE POP POP POP JUMP JUMPDEST PUSH0 PUSH2 0xF5A PUSH2 0xECA JUMP JUMPDEST SWAP1 POP PUSH2 0xF66 DUP3 DUP3 PUSH2 0xF20 JUMP JUMPDEST SWAP2 SWAP1 POP JUMP JUMPDEST PUSH0 PUSH8 0xFFFFFFFFFFFFFFFF DUP3 GT ISZERO PUSH2 0xF85 JUMPI PUSH2 0xF84 PUSH2 0xEF3 JUMP JUMPDEST JUMPDEST PUSH2 0xF8E DUP3 PUSH2 0xEE3 JUMP JUMPDEST SWAP1 POP PUSH1 0x20 DUP2 ADD SWAP1 POP SWAP2 SWAP1 POP JUMP JUMPDEST DUP3 DUP2 DUP4 CALLDATACOPY PUSH0 DUP4 DUP4 ADD MSTORE POP POP POP JUMP JUMPDEST PUSH0 PUSH2 0xFBB PUSH2 0xFB6 DUP5 PUSH2 0xF6B JUMP JUMPDEST PUSH2 0xF51 JUMP JUMPDEST SWAP1 POP DUP3 DUP2 MSTORE PUSH1 0x20 DUP2 ADD DUP5 DUP5 DUP5 ADD GT ISZERO PUSH2 0xFD7 JUMPI PUSH2 0xFD6 PUSH2 0xEDF JUMP JUMPDEST JUMPDEST PUSH2 0xFE2 DUP5 DUP3 DUP6 PUSH2 0xF9B JUMP JUMPDEST POP SWAP4 SWAP3 POP POP POP JUMP JUMPDEST PUSH0 DUP3 PUSH1 0x1F DUP4 ADD SLT PUSH2 0xFFE JUMPI PUSH2 0xFFD PUSH2 0xEDB JUMP JUMPDEST JUMPDEST DUP2 CALLDATALOAD PUSH2 0x100E DUP5 DUP3 PUSH1 0x20 DUP7 ADD PUSH2 0xFA9 JUMP JUMPDEST SWAP2 POP POP SWAP3 SWAP2 POP POP JUMP JUMPDEST PUSH0 DUP1 PUSH0 DUP1 PUSH1 0x80 DUP6 DUP8 SUB SLT ISZERO PUSH2 0x102F JUMPI PUSH2 0x102E PUSH2 0xED3 JUMP JUMPDEST JUMPDEST PUSH0 DUP6 ADD CALLDATALOAD PUSH8 0xFFFFFFFFFFFFFFFF DUP2 GT ISZERO PUSH2 0x104C JUMPI PUSH2 0x104B PUSH2 0xED7 JUMP JUMPDEST JUMPDEST PUSH2 0x1058 DUP8 DUP3 DUP9 ADD PUSH2 0xFEA JUMP JUMPDEST SWAP5 POP POP PUSH1 0x20 DUP6 ADD CALLDATALOAD PUSH8 0xFFFFFFFFFFFFFFFF DUP2 GT ISZERO PUSH2 0x1079 JUMPI PUSH2 0x1078 PUSH2 0xED7 JUMP JUMPDEST JUMPDEST PUSH2 0x1085 DUP8 DUP3 DUP9 ADD PUSH2 0xFEA JUMP JUMPDEST SWAP4 POP POP PUSH1 0x40 DUP6 ADD CALLDATALOAD PUSH8 0xFFFFFFFFFFFFFFFF DUP2 GT ISZERO PUSH2 0x10A6 JUMPI PUSH2 0x10A5 PUSH2 0xED7 JUMP JUMPDEST JUMPDEST PUSH2 0x10B2 DUP8 DUP3 DUP9 ADD PUSH2 0xFEA JUMP JUMPDEST SWAP3 POP POP PUSH1 0x60 DUP6 ADD CALLDATALOAD PUSH8 0xFFFFFFFFFFFFFFFF DUP2 GT ISZERO PUSH2 0x10D3 JUMPI PUSH2 0x10D2 PUSH2 0xED7 JUMP JUMPDEST JUMPDEST PUSH2 0x10DF DUP8 DUP3 DUP9 ADD PUSH2 0xFEA JUMP JUMPDEST SWAP2 POP POP SWAP3 SWAP6 SWAP2 SWAP5 POP SWAP3 POP JUMP JUMPDEST PUSH0 PUSH20 0xFFFFFFFFFFFFFFFFFFFFFFFFFFFFFFFFFFFFFFFF DUP3 AND SWAP1 POP SWAP2 SWAP1 POP JUMP JUMPDEST PUSH0 PUSH2 0x1114 DUP3 PUSH2 0x10EB JUMP JUMPDEST SWAP1 POP SWAP2 SWAP1 POP JUMP JUMPDEST PUSH2 0x1124 DUP2 PUSH2 0x110A JUMP JUMPDEST DUP2 EQ PUSH2 0x112E JUMPI PUSH0 DUP1 REVERT JUMPDEST POP JUMP JUMPDEST PUSH0 DUP2 CALLDATALOAD SWAP1 POP PUSH2 0x113F DUP2 PUSH2 0x111B JUMP JUMPDEST SWAP3 SWAP2 POP POP JUMP JUMPDEST PUSH0 PUSH1 0x20 DUP3 DUP5 SUB SLT ISZERO PUSH2 0x115A JUMPI PUSH2 0x1159 PUSH2 0xED3 JUMP JUMPDEST JUMPDEST PUSH0 PUSH2 0x1167 DUP5 DUP3 DUP6 ADD PUSH2 0x1131 JUMP JUMPDEST SWAP2 POP POP SWAP3 SWAP2 POP POP JUMP JUMPDEST PUSH0 DUP2 SWAP1 POP SWAP2 SWAP1 POP JUMP JUMPDEST PUSH2 0x1182 DUP2 PUSH2 0x1170 JUMP JUMPDEST DUP2 EQ PUSH2 0x118C JUMPI PUSH0 DUP1 REVERT JUMPDEST POP JUMP JUMPDEST PUSH0 DUP2 CALLDATALOAD SWAP1 POP PUSH2 0x119D DUP2 PUSH2 0x1179 JUMP JUMPDEST SWAP3 SWAP2 POP POP JUMP JUMPDEST PUSH0 PUSH1 0x20 DUP3 DUP5 SUB SLT ISZERO PUSH2 0x11B8 JUMPI PUSH2 0x11B7 PUSH2 0xED3 JUMP JUMPDEST JUMPDEST PUSH0 PUSH2 0x11C5 DUP5 DUP3 DUP6 ADD PUSH2 0x118F JUMP JUMPDEST SWAP2 POP POP SWAP3 SWAP2 POP POP JUMP JUMPDEST PUSH2 0x11D7 DUP2 PUSH2 0x110A JUMP JUMPDEST DUP3 MSTORE POP POP JUMP JUMPDEST PUSH0 PUSH1 0x20 DUP3 ADD SWAP1 POP PUSH2 0x11F0 PUSH0 DUP4 ADD DUP5 PUSH2 0x11CE JUMP JUMPDEST SWAP3 SWAP2 POP POP JUMP JUMPDEST PUSH0 DUP1 PUSH0 PUSH1 0x60 DUP5 DUP7 SUB SLT ISZERO PUSH2 0x120D JUMPI PUSH2 0x120C PUSH2 0xED3 JUMP JUMPDEST JUMPDEST PUSH0 PUSH2 0x121A DUP7 DUP3 DUP8 ADD PUSH2 0x1131 JUMP JUMPDEST SWAP4 POP POP PUSH1 0x20 PUSH2 0x122B DUP7 DUP3 DUP8 ADD PUSH2 0x1131 JUMP JUMPDEST SWAP3 POP POP PUSH1 0x40 PUSH2 0x123C DUP7 DUP3 DUP8 ADD PUSH2 0x118F JUMP JUMPDEST SWAP2 POP POP SWAP3 POP SWAP3 POP SWAP3 JUMP JUMPDEST PUSH0 DUP2 MLOAD SWAP1 POP SWAP2 SWAP1 POP JUMP JUMPDEST PUSH0 DUP3 DUP3 MSTORE PUSH1 0x20 DUP3 ADD SWAP1 POP SWAP3 SWAP2 POP POP JUMP JUMPDEST DUP3 DUP2 DUP4 MCOPY PUSH0 DUP4 DUP4 ADD MSTORE POP POP POP JUMP JUMPDEST PUSH0 PUSH2 0x1278 DUP3 PUSH2 0x1246 JUMP JUMPDEST PUSH2 0x1282 DUP2 DUP6 PUSH2 0x1250 JUMP JUMPDEST SWAP4 POP PUSH2 0x1292 DUP2 DUP6 PUSH1 0x20 DUP7 ADD PUSH2 0x1260 JUMP JUMPDEST PUSH2 0x129B DUP2 PUSH2 0xEE3 JUMP JUMPDEST DUP5 ADD SWAP2 POP POP SWAP3 SWAP2 POP POP JUMP JUMPDEST PUSH0 PUSH1 0x80 DUP3 ADD SWAP1 POP DUP2 DUP2 SUB PUSH0 DUP4 ADD MSTORE PUSH2 0x12BE DUP2 DUP8 PUSH2 0x126E JUMP JUMPDEST SWAP1 POP DUP2 DUP2 SUB PUSH1 0x20 DUP4 ADD MSTORE PUSH2 0x12D2 DUP2 DUP7 PUSH2 0x126E JUMP JUMPDEST SWAP1 POP DUP2 DUP2 SUB PUSH1 0x40 DUP4 ADD MSTORE PUSH2 0x12E6 DUP2 DUP6 PUSH2 0x126E JUMP JUMPDEST SWAP1 POP DUP2 DUP2 SUB PUSH1 0x60 DUP4 ADD MSTORE PUSH2 0x12FA DUP2 DUP5 PUSH2 0x126E JUMP JUMPDEST SWAP1 POP SWAP6 SWAP5 POP POP POP POP POP JUMP JUMPDEST PUSH2 0x130E DUP2 PUSH2 0x1170 JUMP JUMPDEST DUP3 MSTORE POP POP JUMP JUMPDEST PUSH0 PUSH1 0x20 DUP3 ADD SWAP1 POP PUSH2 0x1327 PUSH0 DUP4 ADD DUP5 PUSH2 0x1305 JUMP JUMPDEST SWAP3 SWAP2 POP POP JUMP JUMPDEST PUSH0 DUP2 ISZERO ISZERO SWAP1 POP SWAP2 SWAP1 POP JUMP JUMPDEST PUSH2 0x1341 DUP2 PUSH2 0x132D JUMP JUMPDEST DUP3 MSTORE POP POP JUMP JUMPDEST PUSH0 PUSH1 0x20 DUP3 ADD SWAP1 POP PUSH2 0x135A PUSH0 DUP4 ADD DUP5 PUSH2 0x1338 JUMP JUMPDEST SWAP3 SWAP2 POP POP JUMP JUMPDEST PUSH32 0x4F6E6C79206D616E7566616374757265722063616E206D696E74000000000000 PUSH0 DUP3 ADD MSTORE POP JUMP JUMPDEST PUSH0 PUSH2 0x1394 PUSH1 0x1A DUP4 PUSH2 0x1250 JUMP JUMPDEST SWAP2 POP PUSH2 0x139F DUP3 PUSH2 0x1360 JUMP JUMPDEST PUSH1 0x20 DUP3 ADD SWAP1 POP SWAP2 SWAP1 POP JUMP JUMPDEST PUSH0 PUSH1 0x20 DUP3 ADD SWAP1 POP DUP2 DUP2 SUB PUSH0 DUP4 ADD MSTORE PUSH2 0x13C1 DUP2 PUSH2 0x1388 JUMP JUMPDEST SWAP1 POP SWAP2 SWAP1 POP JUMP JUMPDEST PUSH32 0x4E487B7100000000000000000000000000000000000000000000000000000000 PUSH0 MSTORE PUSH1 0x11 PUSH1 0x4 MSTORE PUSH1 0x24 PUSH0 REVERT JUMPDEST PUSH0 PUSH2 0x13FF DUP3 PUSH2 0x1170 JUMP JUMPDEST SWAP2 POP PUSH32 0xFFFFFFFFFFFFFFFFFFFFFFFFFFFFFFFFFFFFFFFFFFFFFFFFFFFFFFFFFFFFFFFF DUP3 SUB PUSH2 0x1431 JUMPI PUSH2 0x1430 PUSH2 0x13C8 JUMP JUMPDEST JUMPDEST PUSH1 0x1 DUP3 ADD SWAP1 POP SWAP2 SWAP1 POP JUMP JUMPDEST PUSH32 0x4E487B7100000000000000000000000000000000000000000000000000000000 PUSH0 MSTORE PUSH1 0x22 PUSH1 0x4 MSTORE PUSH1 0x24 PUSH0 REVERT JUMPDEST PUSH0 PUSH1 0x2 DUP3 DIV SWAP1 POP PUSH1 0x1 DUP3 AND DUP1 PUSH2 0x1480 JUMPI PUSH1 0x7F DUP3 AND SWAP2 POP JUMPDEST PUSH1 0x20 DUP3 LT DUP2 SUB PUSH2 0x1493 JUMPI PUSH2 0x1492 PUSH2 0x143C JUMP JUMPDEST JUMPDEST POP SWAP2 SWAP1 POP JUMP JUMPDEST PUSH0 DUP2 SWAP1 POP DUP2 PUSH0 MSTORE PUSH1 0x20 PUSH0 KECCAK256 SWAP1 POP SWAP2 SWAP1 POP JUMP JUMPDEST PUSH0 PUSH1 0x20 PUSH1 0x1F DUP4 ADD DIV SWAP1 POP SWAP2 SWAP1 POP JUMP JUMPDEST PUSH0 DUP3 DUP3 SHL SWAP1 POP SWAP3 SWAP2 POP POP JUMP JUMPDEST PUSH0 PUSH1 0x8 DUP4 MUL PUSH2 0x14F5 PUSH32 0xFFFFFFFFFFFFFFFFFFFFFFFFFFFFFFFFFFFFFFFFFFFFFFFFFFFFFFFFFFFFFFFF DUP3 PUSH2 0x14BA JUMP JUMPDEST PUSH2 0x14FF DUP7 DUP4 PUSH2 0x14BA JUMP JUMPDEST SWAP6 POP DUP1 NOT DUP5 AND SWAP4 POP DUP1 DUP7 AND DUP5 OR SWAP3 POP POP POP SWAP4 SWAP3 POP POP POP JUMP JUMPDEST PUSH0 DUP2 SWAP1 POP SWAP2 SWAP1 POP JUMP JUMPDEST PUSH0 PUSH2 0x153A PUSH2 0x1535 PUSH2 0x1530 DUP5 PUSH2 0x1170 JUMP JUMPDEST PUSH2 0x1517 JUMP JUMPDEST PUSH2 0x1170 JUMP JUMPDEST SWAP1 POP SWAP2 SWAP1 POP JUMP JUMPDEST PUSH0 DUP2 SWAP1 POP SWAP2 SWAP1 POP JUMP JUMPDEST PUSH2 0x1553 DUP4 PUSH2 0x1520 JUMP JUMPDEST PUSH2 0x1567 PUSH2 0x155F DUP3 PUSH2 0x1541 JUMP JUMPDEST DUP5 DUP5 SLOAD PUSH2 0x14C6 JUMP JUMPDEST DUP3 SSTORE POP POP POP POP JUMP JUMPDEST PUSH0 SWAP1 JUMP JUMPDEST PUSH2 0x157B PUSH2 0x156F JUMP JUMPDEST PUSH2 0x1586 DUP2 DUP5 DUP5 PUSH2 0x154A JUMP JUMPDEST POP POP POP JUMP JUMPDEST JUMPDEST DUP2 DUP2 LT ISZERO PUSH2 0x15A9 JUMPI PUSH2 0x159E PUSH0 DUP3 PUSH2 0x1573 JUMP JUMPDEST PUSH1 0x1 DUP2 ADD SWAP1 POP PUSH2 0x158C JUMP JUMPDEST POP POP JUMP JUMPDEST PUSH1 0x1F DUP3 GT ISZERO PUSH2 0x15EE JUMPI PUSH2 0x15BF DUP2 PUSH2 0x1499 JUMP JUMPDEST PUSH2 0x15C8 DUP5 PUSH2 0x14AB JUMP JUMPDEST DUP2 ADD PUSH1 0x20 DUP6 LT ISZERO PUSH2 0x15D7 JUMPI DUP2 SWAP1 POP JUMPDEST PUSH2 0x15EB PUSH2 0x15E3 DUP6 PUSH2 0x14AB JUMP JUMPDEST DUP4 ADD DUP3 PUSH2 0x158B JUMP JUMPDEST POP POP JUMPDEST POP POP POP JUMP JUMPDEST PUSH0 DUP3 DUP3 SHR SWAP1 POP SWAP3 SWAP2 POP POP JUMP JUMPDEST PUSH0 PUSH2 0x160E PUSH0 NOT DUP5 PUSH1 0x8 MUL PUSH2 0x15F3 JUMP JUMPDEST NOT DUP1 DUP4 AND SWAP2 POP POP SWAP3 SWAP2 POP POP JUMP JUMPDEST PUSH0 PUSH2 0x1626 DUP4 DUP4 PUSH2 0x15FF JUMP JUMPDEST SWAP2 POP DUP3 PUSH1 0x2 MUL DUP3 OR SWAP1 POP SWAP3 SWAP2 POP POP JUMP JUMPDEST PUSH2 0x163F DUP3 PUSH2 0x1246 JUMP JUMPDEST PUSH8 0xFFFFFFFFFFFFFFFF DUP2 GT ISZERO PUSH2 0x1658 JUMPI PUSH2 0x1657 PUSH2 0xEF3 JUMP JUMPDEST JUMPDEST PUSH2 0x1662 DUP3 SLOAD PUSH2 0x1469 JUMP JUMPDEST PUSH2 0x166D DUP3 DUP3 DUP6 PUSH2 0x15AD JUMP JUMPDEST PUSH0 PUSH1 0x20 SWAP1 POP PUSH1 0x1F DUP4 GT PUSH1 0x1 DUP2 EQ PUSH2 0x169E JUMPI PUSH0 DUP5 ISZERO PUSH2 0x168C JUMPI DUP3 DUP8 ADD MLOAD SWAP1 POP JUMPDEST PUSH2 0x1696 DUP6 DUP3 PUSH2 0x161B JUMP JUMPDEST DUP7 SSTORE POP PUSH2 0x16FD JUMP JUMPDEST PUSH1 0x1F NOT DUP5 AND PUSH2 0x16AC DUP7 PUSH2 0x1499 JUMP JUMPDEST PUSH0 JUMPDEST DUP3 DUP2 LT ISZERO PUSH2 0x16D3 JUMPI DUP5 DUP10 ADD MLOAD DUP3 SSTORE PUSH1 0x1 DUP3 ADD SWAP2 POP PUSH1 0x20 DUP6 ADD SWAP5 POP PUSH1 0x20 DUP2 ADD SWAP1 POP PUSH2 0x16AE JUMP JUMPDEST DUP7 DUP4 LT ISZERO PUSH2 0x16F0 JUMPI DUP5 DUP10 ADD MLOAD PUSH2 0x16EC PUSH1 0x1F DUP10 AND DUP3 PUSH2 0x15FF JUMP JUMPDEST DUP4 SSTORE POP JUMPDEST PUSH1 0x1 PUSH1 0x2 DUP9 MUL ADD DUP9 SSTORE POP POP POP JUMPDEST POP POP POP POP POP POP JUMP JUMPDEST PUSH0 PUSH1 0x40 DUP3 ADD SWAP1 POP PUSH2 0x1718 PUSH0 DUP4 ADD DUP6 PUSH2 0x1305 JUMP JUMPDEST PUSH2 0x1725 PUSH1 0x20 DUP4 ADD DUP5 PUSH2 0x11CE JUMP JUMPDEST SWAP4 SWAP3 POP POP POP JUMP JUMPDEST PUSH32 0x4F6E6C79206D616E7566616374757265722063616E2073657400000000000000 PUSH0 DUP3 ADD MSTORE POP JUMP JUMPDEST PUSH0 PUSH2 0x1760 PUSH1 0x19 DUP4 PUSH2 0x1250 JUMP JUMPDEST SWAP2 POP PUSH2 0x176B DUP3 PUSH2 0x172C JUMP JUMPDEST PUSH1 0x20 DUP3 ADD SWAP1 POP SWAP2 SWAP1 POP JUMP JUMPDEST PUSH0 PUSH1 0x20 DUP3 ADD SWAP1 POP DUP2 DUP2 SUB PUSH0 DUP4 ADD MSTORE PUSH2 0x178D DUP2 PUSH2 0x1754 JUMP JUMPDEST SWAP1 POP SWAP2 SWAP1 POP JUMP JUMPDEST PUSH32 0x53616C6520636F6E747261637420616C72656164792073657400000000000000 PUSH0 DUP3 ADD MSTORE POP JUMP JUMPDEST PUSH0 PUSH2 0x17C8 PUSH1 0x19 DUP4 PUSH2 0x1250 JUMP JUMPDEST SWAP2 POP PUSH2 0x17D3 DUP3 PUSH2 0x1794 JUMP JUMPDEST PUSH1 0x20 DUP3 ADD SWAP1 POP SWAP2 SWAP1 POP JUMP JUMPDEST PUSH0 PUSH1 0x20 DUP3 ADD SWAP1 POP DUP2 DUP2 SUB PUSH0 DUP4 ADD MSTORE PUSH2 0x17F5 DUP2 PUSH2 0x17BC JUMP JUMPDEST SWAP1 POP SWAP2 SWAP1 POP JUMP JUMPDEST PUSH32 0x4F6E6C792053616C65436F6E74726163742063616E207472616E736665720000 PUSH0 DUP3 ADD MSTORE POP JUMP JUMPDEST PUSH0 PUSH2 0x1830 PUSH1 0x1E DUP4 PUSH2 0x1250 JUMP JUMPDEST SWAP2 POP PUSH2 0x183B DUP3 PUSH2 0x17FC JUMP JUMPDEST PUSH1 0x20 DUP3 ADD SWAP1 POP SWAP2 SWAP1 POP JUMP JUMPDEST PUSH0 PUSH1 0x20 DUP3 ADD SWAP1 POP DUP2 DUP2 SUB PUSH0 DUP4 ADD MSTORE PUSH2 0x185D DUP2 PUSH2 0x1824 JUMP JUMPDEST SWAP1 POP SWAP2 SWAP1 POP JUMP JUMPDEST PUSH32 0x4E6F742074686520746F6B656E206F776E657200000000000000000000000000 PUSH0 DUP3 ADD MSTORE POP JUMP JUMPDEST PUSH0 PUSH2 0x1898 PUSH1 0x13 DUP4 PUSH2 0x1250 JUMP JUMPDEST SWAP2 POP PUSH2 0x18A3 DUP3 PUSH2 0x1864 JUMP JUMPDEST PUSH1 0x20 DUP3 ADD SWAP1 POP SWAP2 SWAP1 POP JUMP JUMPDEST PUSH0 PUSH1 0x20 DUP3 ADD SWAP1 POP DUP2 DUP2 SUB PUSH0 DUP4 ADD MSTORE PUSH2 0x18C5 DUP2 PUSH2 0x188C JUMP JUMPDEST SWAP1 POP SWAP2 SWAP1 POP JUMP JUMPDEST PUSH32 0x546F6B656E20646F6573206E6F74206578697374000000000000000000000000 PUSH0 DUP3 ADD MSTORE POP JUMP JUMPDEST PUSH0 PUSH2 0x1900 PUSH1 0x14 DUP4 PUSH2 0x1250 JUMP JUMPDEST SWAP2 POP PUSH2 0x190B DUP3 PUSH2 0x18CC JUMP JUMPDEST PUSH1 0x20 DUP3 ADD SWAP1 POP SWAP2 SWAP1 POP JUMP JUMPDEST PUSH0 PUSH1 0x20 DUP3 ADD SWAP1 POP DUP2 DUP2 SUB PUSH0 DUP4 ADD MSTORE PUSH2 0x192D DUP2 PUSH2 0x18F4 JUMP JUMPDEST SWAP1 POP SWAP2 SWAP1 POP JUMP JUMPDEST PUSH32 0x436F6E74726F6C20636F6E747261637420616C72656164792073657400000000 PUSH0 DUP3 ADD MSTORE POP JUMP JUMPDEST PUSH0 PUSH2 0x1968 PUSH1 0x1C DUP4 PUSH2 0x1250 JUMP JUMPDEST SWAP2 POP PUSH2 0x1973 DUP3 PUSH2 0x1934 JUMP JUMPDEST PUSH1 0x20 DUP3 ADD SWAP1 POP SWAP2 SWAP1 POP JUMP JUMPDEST PUSH0 PUSH1 0x20 DUP3 ADD SWAP1 POP DUP2 DUP2 SUB PUSH0 DUP4 ADD MSTORE PUSH2 0x1995 DUP2 PUSH2 0x195C JUMP JUMPDEST SWAP1 POP SWAP2 SWAP1 POP JUMP INVALID LOG2 PUSH5 0x6970667358 0x22 SLT KECCAK256 CALLVALUE 0xDD PUSH19 0x7FDCC563617764FAB19EAE2A80BBB32646531E 0xD9 DUP16 0x2C CHAINID DUP3 SDIV SAR 0x21 REVERT DUP11 PUSH5 0x736F6C6343 STOP ADDMOD BYTE STOP CALLER "
				},
				"gasEstimates": {
					"creation": {
						"codeDepositCost": "1322000",
						"executionCost": "30652",
						"totalCost": "1352652"
					},
					"external": {
						"approvedOperators(address)": "2921",
						"controlContract()": "2597",
						"getMetadata(uint256)": "infinite",
						"manufacturer()": "2553",
						"mint(string,string,string,string)": "infinite",
						"ownerOf(uint256)": "5119",
						"saleContract()": "2574",
						"setControlContract(address)": "29075",
						"setSaleContract(address)": "29076",
						"tokenCounter()": "2468",
						"tokenMetadata(uint256)": "infinite",
						"tokenOwner(uint256)": "2872",
						"transferFrom(address,address,uint256)": "infinite"
					}
				},
				"methodIdentifiers": {
					"approvedOperators(address)": "ff721aba",
					"controlContract()": "48ccfe47",
					"getMetadata(uint256)": "a574cea4",
					"manufacturer()": "74754282",
					"mint(string,string,string,string)": "02341c71",
					"ownerOf(uint256)": "6352211e",
					"saleContract()": "daf6ca30",
					"setControlContract(address)": "ca35e8a0",
					"setSaleContract(address)": "0593d244",
					"tokenCounter()": "d082e381",
					"tokenMetadata(uint256)": "6914db60",
					"tokenOwner(uint256)": "1caaa487",
					"transferFrom(address,address,uint256)": "23b872dd"
				}
			},
			"storageLayout": {
				"storage": [
					{
						"astId": 11,
						"contract": "MintContract.sol:SimpleMint",
						"label": "tokenCounter",
						"offset": 0,
						"slot": "0",
						"type": "t_uint256"
					},
					{
						"astId": 13,
						"contract": "MintContract.sol:SimpleMint",
						"label": "manufacturer",
						"offset": 0,
						"slot": "1",
						"type": "t_address"
					},
					{
						"astId": 15,
						"contract": "MintContract.sol:SimpleMint",
						"label": "controlContract",
						"offset": 0,
						"slot": "2",
						"type": "t_address"
					},
					{
						"astId": 17,
						"contract": "MintContract.sol:SimpleMint",
						"label": "saleContract",
						"offset": 0,
						"slot": "3",
						"type": "t_address"
					},
					{
						"astId": 31,
						"contract": "MintContract.sol:SimpleMint",
						"label": "tokenMetadata",
						"offset": 0,
						"slot": "4",
						"type": "t_mapping(t_uint256,t_struct(ProductMetadata)26_storage)"
					},
					{
						"astId": 35,
						"contract": "MintContract.sol:SimpleMint",
						"label": "tokenOwner",
						"offset": 0,
						"slot": "5",
						"type": "t_mapping(t_uint256,t_address)"
					},
					{
						"astId": 39,
						"contract": "MintContract.sol:SimpleMint",
						"label": "approvedOperators",
						"offset": 0,
						"slot": "6",
						"type": "t_mapping(t_address,t_bool)"
					}
				],
				"types": {
					"t_address": {
						"encoding": "inplace",
						"label": "address",
						"numberOfBytes": "20"
					},
					"t_bool": {
						"encoding": "inplace",
						"label": "bool",
						"numberOfBytes": "1"
					},
					"t_mapping(t_address,t_bool)": {
						"encoding": "mapping",
						"key": "t_address",
						"label": "mapping(address => bool)",
						"numberOfBytes": "32",
						"value": "t_bool"
					},
					"t_mapping(t_uint256,t_address)": {
						"encoding": "mapping",
						"key": "t_uint256",
						"label": "mapping(uint256 => address)",
						"numberOfBytes": "32",
						"value": "t_address"
					},
					"t_mapping(t_uint256,t_struct(ProductMetadata)26_storage)": {
						"encoding": "mapping",
						"key": "t_uint256",
						"label": "mapping(uint256 => struct SimpleMint.ProductMetadata)",
						"numberOfBytes": "32",
						"value": "t_struct(ProductMetadata)26_storage"
					},
					"t_string_storage": {
						"encoding": "bytes",
						"label": "string",
						"numberOfBytes": "32"
					},
					"t_struct(ProductMetadata)26_storage": {
						"encoding": "inplace",
						"label": "struct SimpleMint.ProductMetadata",
						"members": [
							{
								"astId": 19,
								"contract": "MintContract.sol:SimpleMint",
								"label": "brand",
								"offset": 0,
								"slot": "0",
								"type": "t_string_storage"
							},
							{
								"astId": 21,
								"contract": "MintContract.sol:SimpleMint",
								"label": "serialNumber",
								"offset": 0,
								"slot": "1",
								"type": "t_string_storage"
							},
							{
								"astId": 23,
								"contract": "MintContract.sol:SimpleMint",
								"label": "productType",
								"offset": 0,
								"slot": "2",
								"type": "t_string_storage"
							},
							{
								"astId": 25,
								"contract": "MintContract.sol:SimpleMint",
								"label": "material",
								"offset": 0,
								"slot": "3",
								"type": "t_string_storage"
							}
						],
						"numberOfBytes": "128"
					},
					"t_uint256": {
						"encoding": "inplace",
						"label": "uint256",
						"numberOfBytes": "32"
					}
				}
			},
			"userdoc": {
				"kind": "user",
				"methods": {},
				"version": 1
			}
		}
	}
}