{
	"Sale.sol": {
		"SaleContract": {
			"abi": [
				{
					"inputs": [
						{
							"internalType": "address",
							"name": "_nftAddress",
							"type": "address"
						},
						{
							"internalType": "address",
							"name": "_controlAddress",
							"type": "address"
						}
					],
					"stateMutability": "nonpayable",
					"type": "constructor"
				},
				{
					"anonymous": false,
					"inputs": [
						{
							"indexed": false,
							"internalType": "uint256",
							"name": "tokenId",
							"type": "uint256"
						},
						{
							"indexed": false,
							"internalType": "string",
							"name": "productName",
							"type": "string"
						},
						{
							"indexed": false,
							"internalType": "address",
							"name": "seller",
							"type": "address"
						},
						{
							"indexed": false,
							"internalType": "uint256",
							"name": "price",
							"type": "uint256"
						}
					],
					"name": "ProductListed",
					"type": "event"
				},
				{
					"anonymous": false,
					"inputs": [
						{
							"indexed": false,
							"internalType": "uint256",
							"name": "tokenId",
							"type": "uint256"
						},
						{
							"indexed": false,
							"internalType": "string",
							"name": "productName",
							"type": "string"
						},
						{
							"indexed": false,
							"internalType": "address",
							"name": "from",
							"type": "address"
						},
						{
							"indexed": false,
							"internalType": "address",
							"name": "to",
							"type": "address"
						},
						{
							"indexed": false,
							"internalType": "uint256",
							"name": "price",
							"type": "uint256"
						}
					],
					"name": "ProductTransferred",
					"type": "event"
				},
				{
					"inputs": [],
					"name": "control",
					"outputs": [
						{
							"internalType": "contract IControl",
							"name": "",
							"type": "address"
						}
					],
					"stateMutability": "view",
					"type": "function"
				},
				{
					"inputs": [],
					"name": "manufacturer",
					"outputs": [
						{
							"internalType": "address",
							"name": "",
							"type": "address"
						}
					],
					"stateMutability": "view",
					"type": "function"
				},
				{
					"inputs": [],
					"name": "nft",
					"outputs": [
						{
							"internalType": "contract ISimpleMint",
							"name": "",
							"type": "address"
						}
					],
					"stateMutability": "view",
					"type": "function"
				},
				{
					"inputs": [
						{
							"internalType": "uint256",
							"name": "tokenId",
							"type": "uint256"
						},
						{
							"internalType": "string",
							"name": "productName",
							"type": "string"
						},
						{
							"internalType": "uint256",
							"name": "price",
							"type": "uint256"
						}
					],
					"name": "sale",
					"outputs": [],
					"stateMutability": "nonpayable",
					"type": "function"
				},
				{
					"inputs": [
						{
							"internalType": "uint256",
							"name": "",
							"type": "uint256"
						}
					],
					"name": "sales",
					"outputs": [
						{
							"internalType": "string",
							"name": "productName",
							"type": "string"
						},
						{
							"internalType": "uint256",
							"name": "price",
							"type": "uint256"
						},
						{
							"internalType": "bool",
							"name": "isActive",
							"type": "bool"
						},
						{
							"internalType": "address",
							"name": "seller",
							"type": "address"
						}
					],
					"stateMutability": "view",
					"type": "function"
				},
				{
					"inputs": [
						{
							"internalType": "uint256",
							"name": "tokenId",
							"type": "uint256"
						},
						{
							"internalType": "address",
							"name": "buyer",
							"type": "address"
						}
					],
					"name": "transfer",
					"outputs": [],
					"stateMutability": "nonpayable",
					"type": "function"
				}
			],
			"devdoc": {
				"kind": "dev",
				"methods": {},
				"version": 1
			},
			"evm": {
				"assembly": "    /* \"Sale.sol\":414:2582  contract SaleContract {... */\n  mstore(0x40, 0x80)\n    /* \"Sale.sol\":1340:1529  constructor(address _nftAddress, address _controlAddress) {... */\n  callvalue\n  dup1\n  iszero\n  tag_1\n  jumpi\n  0x00\n  dup1\n  revert\ntag_1:\n  pop\n  mload(0x40)\n  sub(codesize, bytecodeSize)\n  dup1\n  bytecodeSize\n  dup4\n  codecopy\n  dup2\n  dup2\n  add\n  0x40\n  mstore\n  dup2\n  add\n  swap1\n  tag_2\n  swap2\n  swap1\n  tag_3\n  jump\t// in\ntag_2:\n    /* \"Sale.sol\":1424:1434  msg.sender */\n  caller\n    /* \"Sale.sol\":1409:1421  manufacturer */\n  0x00\n  dup1\n    /* \"Sale.sol\":1409:1434  manufacturer = msg.sender */\n  0x0100\n  exp\n  dup2\n  sload\n  dup2\n  0xffffffffffffffffffffffffffffffffffffffff\n  mul\n  not\n  and\n  swap1\n  dup4\n  0xffffffffffffffffffffffffffffffffffffffff\n  and\n  mul\n  or\n  swap1\n  sstore\n  pop\n    /* \"Sale.sol\":1463:1474  _nftAddress */\n  dup2\n    /* \"Sale.sol\":1445:1448  nft */\n  0x01\n  0x00\n    /* \"Sale.sol\":1445:1475  nft = ISimpleMint(_nftAddress) */\n  0x0100\n  exp\n  dup2\n  sload\n  dup2\n  0xffffffffffffffffffffffffffffffffffffffff\n  mul\n  not\n  and\n  swap1\n  dup4\n  0xffffffffffffffffffffffffffffffffffffffff\n  and\n  mul\n  or\n  swap1\n  sstore\n  pop\n    /* \"Sale.sol\":1505:1520  _controlAddress */\n  dup1\n    /* \"Sale.sol\":1486:1493  control */\n  0x02\n  0x00\n    /* \"Sale.sol\":1486:1521  control = IControl(_controlAddress) */\n  0x0100\n  exp\n  dup2\n  sload\n  dup2\n  0xffffffffffffffffffffffffffffffffffffffff\n  mul\n  not\n  and\n  swap1\n  dup4\n  0xffffffffffffffffffffffffffffffffffffffff\n  and\n  mul\n  or\n  swap1\n  sstore\n  pop\n    /* \"Sale.sol\":1340:1529  constructor(address _nftAddress, address _controlAddress) {... */\n  pop\n  pop\n    /* \"Sale.sol\":414:2582  contract SaleContract {... */\n  jump(tag_6)\n    /* \"#utility.yul\":88:205   */\ntag_8:\n    /* \"#utility.yul\":197:198   */\n  0x00\n    /* \"#utility.yul\":194:195   */\n  dup1\n    /* \"#utility.yul\":187:199   */\n  revert\n    /* \"#utility.yul\":334:460   */\ntag_10:\n    /* \"#utility.yul\":371:378   */\n  0x00\n    /* \"#utility.yul\":411:453   */\n  0xffffffffffffffffffffffffffffffffffffffff\n    /* \"#utility.yul\":404:409   */\n  dup3\n    /* \"#utility.yul\":400:454   */\n  and\n    /* \"#utility.yul\":389:454   */\n  swap1\n  pop\n    /* \"#utility.yul\":334:460   */\n  swap2\n  swap1\n  pop\n  jump\t// out\n    /* \"#utility.yul\":466:562   */\ntag_11:\n    /* \"#utility.yul\":503:510   */\n  0x00\n    /* \"#utility.yul\":532:556   */\n  tag_20\n    /* \"#utility.yul\":550:555   */\n  dup3\n    /* \"#utility.yul\":532:556   */\n  tag_10\n  jump\t// in\ntag_20:\n    /* \"#utility.yul\":521:556   */\n  swap1\n  pop\n    /* \"#utility.yul\":466:562   */\n  swap2\n  swap1\n  pop\n  jump\t// out\n    /* \"#utility.yul\":568:690   */\ntag_12:\n    /* \"#utility.yul\":641:665   */\n  tag_22\n    /* \"#utility.yul\":659:664   */\n  dup2\n    /* \"#utility.yul\":641:665   */\n  tag_11\n  jump\t// in\ntag_22:\n    /* \"#utility.yul\":634:639   */\n  dup2\n    /* \"#utility.yul\":631:666   */\n  eq\n    /* \"#utility.yul\":621:684   */\n  tag_23\n  jumpi\n    /* \"#utility.yul\":680:681   */\n  0x00\n    /* \"#utility.yul\":677:678   */\n  dup1\n    /* \"#utility.yul\":670:682   */\n  revert\n    /* \"#utility.yul\":621:684   */\ntag_23:\n    /* \"#utility.yul\":568:690   */\n  pop\n  jump\t// out\n    /* \"#utility.yul\":696:839   */\ntag_13:\n    /* \"#utility.yul\":753:758   */\n  0x00\n    /* \"#utility.yul\":784:790   */\n  dup2\n    /* \"#utility.yul\":778:791   */\n  mload\n    /* \"#utility.yul\":769:791   */\n  swap1\n  pop\n    /* \"#utility.yul\":800:833   */\n  tag_25\n    /* \"#utility.yul\":827:832   */\n  dup2\n    /* \"#utility.yul\":800:833   */\n  tag_12\n  jump\t// in\ntag_25:\n    /* \"#utility.yul\":696:839   */\n  swap3\n  swap2\n  pop\n  pop\n  jump\t// out\n    /* \"#utility.yul\":845:1352   */\ntag_3:\n    /* \"#utility.yul\":924:930   */\n  0x00\n    /* \"#utility.yul\":932:938   */\n  dup1\n    /* \"#utility.yul\":981:983   */\n  0x40\n    /* \"#utility.yul\":969:978   */\n  dup4\n    /* \"#utility.yul\":960:967   */\n  dup6\n    /* \"#utility.yul\":956:979   */\n  sub\n    /* \"#utility.yul\":952:984   */\n  slt\n    /* \"#utility.yul\":949:1068   */\n  iszero\n  tag_27\n  jumpi\n    /* \"#utility.yul\":987:1066   */\n  tag_28\n  tag_8\n  jump\t// in\ntag_28:\n    /* \"#utility.yul\":949:1068   */\ntag_27:\n    /* \"#utility.yul\":1107:1108   */\n  0x00\n    /* \"#utility.yul\":1132:1196   */\n  tag_29\n    /* \"#utility.yul\":1188:1195   */\n  dup6\n    /* \"#utility.yul\":1179:1185   */\n  dup3\n    /* \"#utility.yul\":1168:1177   */\n  dup7\n    /* \"#utility.yul\":1164:1186   */\n  add\n    /* \"#utility.yul\":1132:1196   */\n  tag_13\n  jump\t// in\ntag_29:\n    /* \"#utility.yul\":1122:1196   */\n  swap3\n  pop\n    /* \"#utility.yul\":1078:1206   */\n  pop\n    /* \"#utility.yul\":1245:1247   */\n  0x20\n    /* \"#utility.yul\":1271:1335   */\n  tag_30\n    /* \"#utility.yul\":1327:1334   */\n  dup6\n    /* \"#utility.yul\":1318:1324   */\n  dup3\n    /* \"#utility.yul\":1307:1316   */\n  dup7\n    /* \"#utility.yul\":1303:1325   */\n  add\n    /* \"#utility.yul\":1271:1335   */\n  tag_13\n  jump\t// in\ntag_30:\n    /* \"#utility.yul\":1261:1335   */\n  swap2\n  pop\n    /* \"#utility.yul\":1216:1345   */\n  pop\n    /* \"#utility.yul\":845:1352   */\n  swap3\n  pop\n  swap3\n  swap1\n  pop\n  jump\t// out\n    /* \"Sale.sol\":414:2582  contract SaleContract {... */\ntag_6:\n  dataSize(sub_0)\n  dup1\n  dataOffset(sub_0)\n  0x00\n  codecopy\n  0x00\n  return\nstop\n\nsub_0: assembly {\n        /* \"Sale.sol\":414:2582  contract SaleContract {... */\n      mstore(0x40, 0x80)\n      callvalue\n      dup1\n      iszero\n      tag_1\n      jumpi\n      0x00\n      dup1\n      revert\n    tag_1:\n      pop\n      jumpi(tag_2, lt(calldatasize, 0x04))\n      shr(0xe0, calldataload(0x00))\n      dup1\n      0x47ccca02\n      eq\n      tag_3\n      jumpi\n      dup1\n      0x74754282\n      eq\n      tag_4\n      jumpi\n      dup1\n      0xa08b37a8\n      eq\n      tag_5\n      jumpi\n      dup1\n      0xb5f522f7\n      eq\n      tag_6\n      jumpi\n      dup1\n      0xb7760c8f\n      eq\n      tag_7\n      jumpi\n      dup1\n      0xd8de6587\n      eq\n      tag_8\n      jumpi\n    tag_2:\n      0x00\n      dup1\n      revert\n        /* \"Sale.sol\":477:499  ISimpleMint public nft */\n    tag_3:\n      tag_9\n      tag_10\n      jump\t// in\n    tag_9:\n      mload(0x40)\n      tag_11\n      swap2\n      swap1\n      tag_12\n      jump\t// in\n    tag_11:\n      mload(0x40)\n      dup1\n      swap2\n      sub\n      swap1\n      return\n        /* \"Sale.sol\":443:470  address public manufacturer */\n    tag_4:\n      tag_13\n      tag_14\n      jump\t// in\n    tag_13:\n      mload(0x40)\n      tag_15\n      swap2\n      swap1\n      tag_16\n      jump\t// in\n    tag_15:\n      mload(0x40)\n      dup1\n      swap2\n      sub\n      swap1\n      return\n        /* \"Sale.sol\":1537:1882  function sale(uint256 tokenId, string memory productName, uint256 price) public {... */\n    tag_5:\n      tag_17\n      0x04\n      dup1\n      calldatasize\n      sub\n      dup2\n      add\n      swap1\n      tag_18\n      swap2\n      swap1\n      tag_19\n      jump\t// in\n    tag_18:\n      tag_20\n      jump\t// in\n    tag_17:\n      stop\n        /* \"Sale.sol\":861:898  mapping(uint256 => Sale) public sales */\n    tag_6:\n      tag_21\n      0x04\n      dup1\n      calldatasize\n      sub\n      dup2\n      add\n      swap1\n      tag_22\n      swap2\n      swap1\n      tag_23\n      jump\t// in\n    tag_22:\n      tag_24\n      jump\t// in\n    tag_21:\n      mload(0x40)\n      tag_25\n      swap5\n      swap4\n      swap3\n      swap2\n      swap1\n      tag_26\n      jump\t// in\n    tag_25:\n      mload(0x40)\n      dup1\n      swap2\n      sub\n      swap1\n      return\n        /* \"Sale.sol\":1964:2579  function transfer(uint256 tokenId, address buyer) public onlySeller(tokenId) {... */\n    tag_7:\n      tag_27\n      0x04\n      dup1\n      calldatasize\n      sub\n      dup2\n      add\n      swap1\n      tag_28\n      swap2\n      swap1\n      tag_29\n      jump\t// in\n    tag_28:\n      tag_30\n      jump\t// in\n    tag_27:\n      stop\n        /* \"Sale.sol\":506:529  IControl public control */\n    tag_8:\n      tag_31\n      tag_32\n      jump\t// in\n    tag_31:\n      mload(0x40)\n      tag_33\n      swap2\n      swap1\n      tag_34\n      jump\t// in\n    tag_33:\n      mload(0x40)\n      dup1\n      swap2\n      sub\n      swap1\n      return\n        /* \"Sale.sol\":477:499  ISimpleMint public nft */\n    tag_10:\n      0x01\n      0x00\n      swap1\n      sload\n      swap1\n      0x0100\n      exp\n      swap1\n      div\n      0xffffffffffffffffffffffffffffffffffffffff\n      and\n      dup2\n      jump\t// out\n        /* \"Sale.sol\":443:470  address public manufacturer */\n    tag_14:\n      0x00\n      dup1\n      sload\n      swap1\n      0x0100\n      exp\n      swap1\n      div\n      0xffffffffffffffffffffffffffffffffffffffff\n      and\n      dup2\n      jump\t// out\n        /* \"Sale.sol\":1537:1882  function sale(uint256 tokenId, string memory productName, uint256 price) public {... */\n    tag_20:\n        /* \"Sale.sol\":1660:1670  msg.sender */\n      caller\n        /* \"Sale.sol\":1636:1670  nft.ownerOf(tokenId) == msg.sender */\n      0xffffffffffffffffffffffffffffffffffffffff\n      and\n        /* \"Sale.sol\":1636:1639  nft */\n      0x01\n      0x00\n      swap1\n      sload\n      swap1\n      0x0100\n      exp\n      swap1\n      div\n      0xffffffffffffffffffffffffffffffffffffffff\n      and\n        /* \"Sale.sol\":1636:1647  nft.ownerOf */\n      0xffffffffffffffffffffffffffffffffffffffff\n      and\n      0x6352211e\n        /* \"Sale.sol\":1648:1655  tokenId */\n      dup6\n        /* \"Sale.sol\":1636:1656  nft.ownerOf(tokenId) */\n      mload(0x40)\n      dup3\n      0xffffffff\n      and\n      0xe0\n      shl\n      dup2\n      mstore\n      0x04\n      add\n      tag_36\n      swap2\n      swap1\n      tag_37\n      jump\t// in\n    tag_36:\n      0x20\n      mload(0x40)\n      dup1\n      dup4\n      sub\n      dup2\n      dup7\n      gas\n      staticcall\n      iszero\n      dup1\n      iszero\n      tag_39\n      jumpi\n      returndatasize\n      0x00\n      dup1\n      returndatacopy\n      revert(0x00, returndatasize)\n    tag_39:\n      pop\n      pop\n      pop\n      pop\n      mload(0x40)\n      returndatasize\n      not(0x1f)\n      0x1f\n      dup3\n      add\n      and\n      dup3\n      add\n      dup1\n      0x40\n      mstore\n      pop\n      dup2\n      add\n      swap1\n      tag_40\n      swap2\n      swap1\n      tag_41\n      jump\t// in\n    tag_40:\n        /* \"Sale.sol\":1636:1670  nft.ownerOf(tokenId) == msg.sender */\n      0xffffffffffffffffffffffffffffffffffffffff\n      and\n      eq\n        /* \"Sale.sol\":1628:1684  require(nft.ownerOf(tokenId) == msg.sender, \"Not owner\") */\n      tag_42\n      jumpi\n      mload(0x40)\n      0x08c379a000000000000000000000000000000000000000000000000000000000\n      dup2\n      mstore\n      0x04\n      add\n      tag_43\n      swap1\n      tag_44\n      jump\t// in\n    tag_43:\n      mload(0x40)\n      dup1\n      swap2\n      sub\n      swap1\n      revert\n    tag_42:\n        /* \"Sale.sol\":1711:1712  0 */\n      0x00\n        /* \"Sale.sol\":1703:1708  price */\n      dup2\n        /* \"Sale.sol\":1703:1712  price > 0 */\n      gt\n        /* \"Sale.sol\":1695:1730  require(price > 0, \"Invalid price\") */\n      tag_45\n      jumpi\n      mload(0x40)\n      0x08c379a000000000000000000000000000000000000000000000000000000000\n      dup2\n      mstore\n      0x04\n      add\n      tag_46\n      swap1\n      tag_47\n      jump\t// in\n    tag_46:\n      mload(0x40)\n      dup1\n      swap2\n      sub\n      swap1\n      revert\n    tag_45:\n        /* \"Sale.sol\":1760:1802  Sale(productName, price, true, msg.sender) */\n      mload(0x40)\n      dup1\n      0x80\n      add\n      0x40\n      mstore\n      dup1\n        /* \"Sale.sol\":1765:1776  productName */\n      dup4\n        /* \"Sale.sol\":1760:1802  Sale(productName, price, true, msg.sender) */\n      dup2\n      mstore\n      0x20\n      add\n        /* \"Sale.sol\":1778:1783  price */\n      dup3\n        /* \"Sale.sol\":1760:1802  Sale(productName, price, true, msg.sender) */\n      dup2\n      mstore\n      0x20\n      add\n        /* \"Sale.sol\":1785:1789  true */\n      0x01\n        /* \"Sale.sol\":1760:1802  Sale(productName, price, true, msg.sender) */\n      iszero\n      iszero\n      dup2\n      mstore\n      0x20\n      add\n        /* \"Sale.sol\":1791:1801  msg.sender */\n      caller\n        /* \"Sale.sol\":1760:1802  Sale(productName, price, true, msg.sender) */\n      0xffffffffffffffffffffffffffffffffffffffff\n      and\n      dup2\n      mstore\n      pop\n        /* \"Sale.sol\":1743:1748  sales */\n      0x03\n        /* \"Sale.sol\":1743:1757  sales[tokenId] */\n      0x00\n        /* \"Sale.sol\":1749:1756  tokenId */\n      dup6\n        /* \"Sale.sol\":1743:1757  sales[tokenId] */\n      dup2\n      mstore\n      0x20\n      add\n      swap1\n      dup2\n      mstore\n      0x20\n      add\n      0x00\n      keccak256\n        /* \"Sale.sol\":1743:1802  sales[tokenId] = Sale(productName, price, true, msg.sender) */\n      0x00\n      dup3\n      add\n      mload\n      dup2\n      0x00\n      add\n      swap1\n      dup2\n      tag_48\n      swap2\n      swap1\n      tag_49\n      jump\t// in\n    tag_48:\n      pop\n      0x20\n      dup3\n      add\n      mload\n      dup2\n      0x01\n      add\n      sstore\n      0x40\n      dup3\n      add\n      mload\n      dup2\n      0x02\n      add\n      exp(0x0100, 0x00)\n      dup2\n      sload\n      dup2\n      0xff\n      mul\n      not\n      and\n      swap1\n      dup4\n      iszero\n      iszero\n      mul\n      or\n      swap1\n      sstore\n      pop\n      0x60\n      dup3\n      add\n      mload\n      dup2\n      0x02\n      add\n      exp(0x0100, 0x01)\n      dup2\n      sload\n      dup2\n      0xffffffffffffffffffffffffffffffffffffffff\n      mul\n      not\n      and\n      swap1\n      dup4\n      0xffffffffffffffffffffffffffffffffffffffff\n      and\n      mul\n      or\n      swap1\n      sstore\n      pop\n      swap1\n      pop\n      pop\n        /* \"Sale.sol\":1820:1874  ProductListed(tokenId, productName, msg.sender, price) */\n      0x986df755bf08bd645e6e79d6fc7088a1d3f1f84ac7ded45a129e9c4690c29b64\n        /* \"Sale.sol\":1834:1841  tokenId */\n      dup4\n        /* \"Sale.sol\":1843:1854  productName */\n      dup4\n        /* \"Sale.sol\":1856:1866  msg.sender */\n      caller\n        /* \"Sale.sol\":1868:1873  price */\n      dup5\n        /* \"Sale.sol\":1820:1874  ProductListed(tokenId, productName, msg.sender, price) */\n      mload(0x40)\n      tag_50\n      swap5\n      swap4\n      swap3\n      swap2\n      swap1\n      tag_51\n      jump\t// in\n    tag_50:\n      mload(0x40)\n      dup1\n      swap2\n      sub\n      swap1\n      log1\n        /* \"Sale.sol\":1537:1882  function sale(uint256 tokenId, string memory productName, uint256 price) public {... */\n      pop\n      pop\n      pop\n      jump\t// out\n        /* \"Sale.sol\":861:898  mapping(uint256 => Sale) public sales */\n    tag_24:\n      mstore(0x20, 0x03)\n      dup1\n      0x00\n      mstore\n      keccak256(0x00, 0x40)\n      0x00\n      swap2\n      pop\n      swap1\n      pop\n      dup1\n      0x00\n      add\n      dup1\n      sload\n      tag_52\n      swap1\n      tag_53\n      jump\t// in\n    tag_52:\n      dup1\n      0x1f\n      add\n      0x20\n      dup1\n      swap2\n      div\n      mul\n      0x20\n      add\n      mload(0x40)\n      swap1\n      dup2\n      add\n      0x40\n      mstore\n      dup1\n      swap3\n      swap2\n      swap1\n      dup2\n      dup2\n      mstore\n      0x20\n      add\n      dup3\n      dup1\n      sload\n      tag_54\n      swap1\n      tag_53\n      jump\t// in\n    tag_54:\n      dup1\n      iszero\n      tag_55\n      jumpi\n      dup1\n      0x1f\n      lt\n      tag_56\n      jumpi\n      0x0100\n      dup1\n      dup4\n      sload\n      div\n      mul\n      dup4\n      mstore\n      swap2\n      0x20\n      add\n      swap2\n      jump(tag_55)\n    tag_56:\n      dup3\n      add\n      swap2\n      swap1\n      0x00\n      mstore\n      keccak256(0x00, 0x20)\n      swap1\n    tag_57:\n      dup2\n      sload\n      dup2\n      mstore\n      swap1\n      0x01\n      add\n      swap1\n      0x20\n      add\n      dup1\n      dup4\n      gt\n      tag_57\n      jumpi\n      dup3\n      swap1\n      sub\n      0x1f\n      and\n      dup3\n      add\n      swap2\n    tag_55:\n      pop\n      pop\n      pop\n      pop\n      pop\n      swap1\n      dup1\n      0x01\n      add\n      sload\n      swap1\n      dup1\n      0x02\n      add\n      0x00\n      swap1\n      sload\n      swap1\n      0x0100\n      exp\n      swap1\n      div\n      0xff\n      and\n      swap1\n      dup1\n      0x02\n      add\n      0x01\n      swap1\n      sload\n      swap1\n      0x0100\n      exp\n      swap1\n      div\n      0xffffffffffffffffffffffffffffffffffffffff\n      and\n      swap1\n      pop\n      dup5\n      jump\t// out\n        /* \"Sale.sol\":1964:2579  function transfer(uint256 tokenId, address buyer) public onlySeller(tokenId) {... */\n    tag_30:\n        /* \"Sale.sol\":2032:2039  tokenId */\n      dup2\n        /* \"Sale.sol\":1273:1283  msg.sender */\n      caller\n        /* \"Sale.sol\":1248:1283  sales[tokenId].seller == msg.sender */\n      0xffffffffffffffffffffffffffffffffffffffff\n      and\n        /* \"Sale.sol\":1248:1253  sales */\n      0x03\n        /* \"Sale.sol\":1248:1262  sales[tokenId] */\n      0x00\n        /* \"Sale.sol\":1254:1261  tokenId */\n      dup4\n        /* \"Sale.sol\":1248:1262  sales[tokenId] */\n      dup2\n      mstore\n      0x20\n      add\n      swap1\n      dup2\n      mstore\n      0x20\n      add\n      0x00\n      keccak256\n        /* \"Sale.sol\":1248:1269  sales[tokenId].seller */\n      0x02\n      add\n      0x01\n      swap1\n      sload\n      swap1\n      0x0100\n      exp\n      swap1\n      div\n      0xffffffffffffffffffffffffffffffffffffffff\n      and\n        /* \"Sale.sol\":1248:1283  sales[tokenId].seller == msg.sender */\n      0xffffffffffffffffffffffffffffffffffffffff\n      and\n      eq\n        /* \"Sale.sol\":1240:1312  require(sales[tokenId].seller == msg.sender, \"Caller is not the seller\") */\n      tag_59\n      jumpi\n      mload(0x40)\n      0x08c379a000000000000000000000000000000000000000000000000000000000\n      dup2\n      mstore\n      0x04\n      add\n      tag_60\n      swap1\n      tag_61\n      jump\t// in\n    tag_60:\n      mload(0x40)\n      dup1\n      swap2\n      sub\n      swap1\n      revert\n    tag_59:\n        /* \"Sale.sol\":2052:2066  Sale storage s */\n      0x00\n        /* \"Sale.sol\":2069:2074  sales */\n      0x03\n        /* \"Sale.sol\":2069:2083  sales[tokenId] */\n      0x00\n        /* \"Sale.sol\":2075:2082  tokenId */\n      dup6\n        /* \"Sale.sol\":2069:2083  sales[tokenId] */\n      dup2\n      mstore\n      0x20\n      add\n      swap1\n      dup2\n      mstore\n      0x20\n      add\n      0x00\n      keccak256\n        /* \"Sale.sol\":2052:2083  Sale storage s = sales[tokenId] */\n      swap1\n      pop\n        /* \"Sale.sol\":2163:2164  s */\n      dup1\n        /* \"Sale.sol\":2163:2173  s.isActive */\n      0x02\n      add\n      0x00\n      swap1\n      sload\n      swap1\n      0x0100\n      exp\n      swap1\n      div\n      0xff\n      and\n        /* \"Sale.sol\":2155:2196  require(s.isActive, \"Sale is not active\") */\n      tag_63\n      jumpi\n      mload(0x40)\n      0x08c379a000000000000000000000000000000000000000000000000000000000\n      dup2\n      mstore\n      0x04\n      add\n      tag_64\n      swap1\n      tag_65\n      jump\t// in\n    tag_64:\n      mload(0x40)\n      dup1\n      swap2\n      sub\n      swap1\n      revert\n    tag_63:\n        /* \"Sale.sol\":2232:2233  0 */\n      0x00\n        /* \"Sale.sol\":2215:2234  buyer != address(0) */\n      0xffffffffffffffffffffffffffffffffffffffff\n      and\n        /* \"Sale.sol\":2215:2220  buyer */\n      dup4\n        /* \"Sale.sol\":2215:2234  buyer != address(0) */\n      0xffffffffffffffffffffffffffffffffffffffff\n      and\n      sub\n        /* \"Sale.sol\":2207:2252  require(buyer != address(0), \"Invalid buyer\") */\n      tag_66\n      jumpi\n      mload(0x40)\n      0x08c379a000000000000000000000000000000000000000000000000000000000\n      dup2\n      mstore\n      0x04\n      add\n      tag_67\n      swap1\n      tag_68\n      jump\t// in\n    tag_67:\n      mload(0x40)\n      dup1\n      swap2\n      sub\n      swap1\n      revert\n    tag_66:\n        /* \"Sale.sol\":2315:2318  nft */\n      0x01\n      0x00\n      swap1\n      sload\n      swap1\n      0x0100\n      exp\n      swap1\n      div\n      0xffffffffffffffffffffffffffffffffffffffff\n      and\n        /* \"Sale.sol\":2315:2331  nft.transferFrom */\n      0xffffffffffffffffffffffffffffffffffffffff\n      and\n      0x23b872dd\n        /* \"Sale.sol\":2332:2342  msg.sender */\n      caller\n        /* \"Sale.sol\":2344:2349  buyer */\n      dup6\n        /* \"Sale.sol\":2351:2358  tokenId */\n      dup8\n        /* \"Sale.sol\":2315:2359  nft.transferFrom(msg.sender, buyer, tokenId) */\n      mload(0x40)\n      dup5\n      0xffffffff\n      and\n      0xe0\n      shl\n      dup2\n      mstore\n      0x04\n      add\n      tag_69\n      swap4\n      swap3\n      swap2\n      swap1\n      tag_70\n      jump\t// in\n    tag_69:\n      0x00\n      mload(0x40)\n      dup1\n      dup4\n      sub\n      dup2\n      0x00\n      dup8\n      dup1\n      extcodesize\n      iszero\n      dup1\n      iszero\n      tag_71\n      jumpi\n      0x00\n      dup1\n      revert\n    tag_71:\n      pop\n      gas\n      call\n      iszero\n      dup1\n      iszero\n      tag_73\n      jumpi\n      returndatasize\n      0x00\n      dup1\n      returndatacopy\n      revert(0x00, returndatasize)\n    tag_73:\n      pop\n      pop\n      pop\n      pop\n        /* \"Sale.sol\":2370:2377  control */\n      0x02\n      0x00\n      swap1\n      sload\n      swap1\n      0x0100\n      exp\n      swap1\n      div\n      0xffffffffffffffffffffffffffffffffffffffff\n      and\n        /* \"Sale.sol\":2370:2395  control.transferOwnership */\n      0xffffffffffffffffffffffffffffffffffffffff\n      and\n      0x29507f73\n        /* \"Sale.sol\":2396:2403  tokenId */\n      dup6\n        /* \"Sale.sol\":2405:2410  buyer */\n      dup6\n        /* \"Sale.sol\":2370:2411  control.transferOwnership(tokenId, buyer) */\n      mload(0x40)\n      dup4\n      0xffffffff\n      and\n      0xe0\n      shl\n      dup2\n      mstore\n      0x04\n      add\n      tag_74\n      swap3\n      swap2\n      swap1\n      tag_75\n      jump\t// in\n    tag_74:\n      0x00\n      mload(0x40)\n      dup1\n      dup4\n      sub\n      dup2\n      0x00\n      dup8\n      dup1\n      extcodesize\n      iszero\n      dup1\n      iszero\n      tag_76\n      jumpi\n      0x00\n      dup1\n      revert\n    tag_76:\n      pop\n      gas\n      call\n      iszero\n      dup1\n      iszero\n      tag_78\n      jumpi\n      returndatasize\n      0x00\n      dup1\n      returndatacopy\n      revert(0x00, returndatasize)\n    tag_78:\n      pop\n      pop\n      pop\n      pop\n        /* \"Sale.sol\":2478:2483  false */\n      0x00\n        /* \"Sale.sol\":2465:2466  s */\n      dup2\n        /* \"Sale.sol\":2465:2475  s.isActive */\n      0x02\n      add\n      0x00\n        /* \"Sale.sol\":2465:2483  s.isActive = false */\n      0x0100\n      exp\n      dup2\n      sload\n      dup2\n      0xff\n      mul\n      not\n      and\n      swap1\n      dup4\n      iszero\n      iszero\n      mul\n      or\n      swap1\n      sstore\n      pop\n        /* \"Sale.sol\":2501:2571  ProductTransferred(tokenId, s.productName, msg.sender, buyer, s.price) */\n      0xce8b3c5812d057ce2ac6151b274d80541ab26e165ef98765474e54b7dac7ce08\n        /* \"Sale.sol\":2520:2527  tokenId */\n      dup5\n        /* \"Sale.sol\":2529:2530  s */\n      dup3\n        /* \"Sale.sol\":2529:2542  s.productName */\n      0x00\n      add\n        /* \"Sale.sol\":2544:2554  msg.sender */\n      caller\n        /* \"Sale.sol\":2556:2561  buyer */\n      dup7\n        /* \"Sale.sol\":2563:2564  s */\n      dup6\n        /* \"Sale.sol\":2563:2570  s.price */\n      0x01\n      add\n      sload\n        /* \"Sale.sol\":2501:2571  ProductTransferred(tokenId, s.productName, msg.sender, buyer, s.price) */\n      mload(0x40)\n      tag_79\n      swap6\n      swap5\n      swap4\n      swap3\n      swap2\n      swap1\n      tag_80\n      jump\t// in\n    tag_79:\n      mload(0x40)\n      dup1\n      swap2\n      sub\n      swap1\n      log1\n        /* \"Sale.sol\":2041:2579  {... */\n      pop\n        /* \"Sale.sol\":1964:2579  function transfer(uint256 tokenId, address buyer) public onlySeller(tokenId) {... */\n      pop\n      pop\n      pop\n      jump\t// out\n        /* \"Sale.sol\":506:529  IControl public control */\n    tag_32:\n      0x02\n      0x00\n      swap1\n      sload\n      swap1\n      0x0100\n      exp\n      swap1\n      div\n      0xffffffffffffffffffffffffffffffffffffffff\n      and\n      dup2\n      jump\t// out\n        /* \"#utility.yul\":7:133   */\n    tag_81:\n        /* \"#utility.yul\":44:51   */\n      0x00\n        /* \"#utility.yul\":84:126   */\n      0xffffffffffffffffffffffffffffffffffffffff\n        /* \"#utility.yul\":77:82   */\n      dup3\n        /* \"#utility.yul\":73:127   */\n      and\n        /* \"#utility.yul\":62:127   */\n      swap1\n      pop\n        /* \"#utility.yul\":7:133   */\n      swap2\n      swap1\n      pop\n      jump\t// out\n        /* \"#utility.yul\":139:199   */\n    tag_82:\n        /* \"#utility.yul\":167:170   */\n      0x00\n        /* \"#utility.yul\":188:193   */\n      dup2\n        /* \"#utility.yul\":181:193   */\n      swap1\n      pop\n        /* \"#utility.yul\":139:199   */\n      swap2\n      swap1\n      pop\n      jump\t// out\n        /* \"#utility.yul\":205:347   */\n    tag_83:\n        /* \"#utility.yul\":255:264   */\n      0x00\n        /* \"#utility.yul\":288:341   */\n      tag_147\n        /* \"#utility.yul\":306:340   */\n      tag_148\n        /* \"#utility.yul\":315:339   */\n      tag_149\n        /* \"#utility.yul\":333:338   */\n      dup5\n        /* \"#utility.yul\":315:339   */\n      tag_81\n      jump\t// in\n    tag_149:\n        /* \"#utility.yul\":306:340   */\n      tag_82\n      jump\t// in\n    tag_148:\n        /* \"#utility.yul\":288:341   */\n      tag_81\n      jump\t// in\n    tag_147:\n        /* \"#utility.yul\":275:341   */\n      swap1\n      pop\n        /* \"#utility.yul\":205:347   */\n      swap2\n      swap1\n      pop\n      jump\t// out\n        /* \"#utility.yul\":353:479   */\n    tag_84:\n        /* \"#utility.yul\":403:412   */\n      0x00\n        /* \"#utility.yul\":436:473   */\n      tag_151\n        /* \"#utility.yul\":467:472   */\n      dup3\n        /* \"#utility.yul\":436:473   */\n      tag_83\n      jump\t// in\n    tag_151:\n        /* \"#utility.yul\":423:473   */\n      swap1\n      pop\n        /* \"#utility.yul\":353:479   */\n      swap2\n      swap1\n      pop\n      jump\t// out\n        /* \"#utility.yul\":485:629   */\n    tag_85:\n        /* \"#utility.yul\":553:562   */\n      0x00\n        /* \"#utility.yul\":586:623   */\n      tag_153\n        /* \"#utility.yul\":617:622   */\n      dup3\n        /* \"#utility.yul\":586:623   */\n      tag_84\n      jump\t// in\n    tag_153:\n        /* \"#utility.yul\":573:623   */\n      swap1\n      pop\n        /* \"#utility.yul\":485:629   */\n      swap2\n      swap1\n      pop\n      jump\t// out\n        /* \"#utility.yul\":635:802   */\n    tag_86:\n        /* \"#utility.yul\":740:795   */\n      tag_155\n        /* \"#utility.yul\":789:794   */\n      dup2\n        /* \"#utility.yul\":740:795   */\n      tag_85\n      jump\t// in\n    tag_155:\n        /* \"#utility.yul\":735:738   */\n      dup3\n        /* \"#utility.yul\":728:796   */\n      mstore\n        /* \"#utility.yul\":635:802   */\n      pop\n      pop\n      jump\t// out\n        /* \"#utility.yul\":808:1066   */\n    tag_12:\n        /* \"#utility.yul\":919:923   */\n      0x00\n        /* \"#utility.yul\":957:959   */\n      0x20\n        /* \"#utility.yul\":946:955   */\n      dup3\n        /* \"#utility.yul\":942:960   */\n      add\n        /* \"#utility.yul\":934:960   */\n      swap1\n      pop\n        /* \"#utility.yul\":970:1059   */\n      tag_157\n        /* \"#utility.yul\":1056:1057   */\n      0x00\n        /* \"#utility.yul\":1045:1054   */\n      dup4\n        /* \"#utility.yul\":1041:1058   */\n      add\n        /* \"#utility.yul\":1032:1038   */\n      dup5\n        /* \"#utility.yul\":970:1059   */\n      tag_86\n      jump\t// in\n    tag_157:\n        /* \"#utility.yul\":808:1066   */\n      swap3\n      swap2\n      pop\n      pop\n      jump\t// out\n        /* \"#utility.yul\":1072:1168   */\n    tag_87:\n        /* \"#utility.yul\":1109:1116   */\n      0x00\n        /* \"#utility.yul\":1138:1162   */\n      tag_159\n        /* \"#utility.yul\":1156:1161   */\n      dup3\n        /* \"#utility.yul\":1138:1162   */\n      tag_81\n      jump\t// in\n    tag_159:\n        /* \"#utility.yul\":1127:1162   */\n      swap1\n      pop\n        /* \"#utility.yul\":1072:1168   */\n      swap2\n      swap1\n      pop\n      jump\t// out\n        /* \"#utility.yul\":1174:1292   */\n    tag_88:\n        /* \"#utility.yul\":1261:1285   */\n      tag_161\n        /* \"#utility.yul\":1279:1284   */\n      dup2\n        /* \"#utility.yul\":1261:1285   */\n      tag_87\n      jump\t// in\n    tag_161:\n        /* \"#utility.yul\":1256:1259   */\n      dup3\n        /* \"#utility.yul\":1249:1286   */\n      mstore\n        /* \"#utility.yul\":1174:1292   */\n      pop\n      pop\n      jump\t// out\n        /* \"#utility.yul\":1298:1520   */\n    tag_16:\n        /* \"#utility.yul\":1391:1395   */\n      0x00\n        /* \"#utility.yul\":1429:1431   */\n      0x20\n        /* \"#utility.yul\":1418:1427   */\n      dup3\n        /* \"#utility.yul\":1414:1432   */\n      add\n        /* \"#utility.yul\":1406:1432   */\n      swap1\n      pop\n        /* \"#utility.yul\":1442:1513   */\n      tag_163\n        /* \"#utility.yul\":1510:1511   */\n      0x00\n        /* \"#utility.yul\":1499:1508   */\n      dup4\n        /* \"#utility.yul\":1495:1512   */\n      add\n        /* \"#utility.yul\":1486:1492   */\n      dup5\n        /* \"#utility.yul\":1442:1513   */\n      tag_88\n      jump\t// in\n    tag_163:\n        /* \"#utility.yul\":1298:1520   */\n      swap3\n      swap2\n      pop\n      pop\n      jump\t// out\n        /* \"#utility.yul\":1526:1601   */\n    tag_89:\n        /* \"#utility.yul\":1559:1565   */\n      0x00\n        /* \"#utility.yul\":1592:1594   */\n      0x40\n        /* \"#utility.yul\":1586:1595   */\n      mload\n        /* \"#utility.yul\":1576:1595   */\n      swap1\n      pop\n        /* \"#utility.yul\":1526:1601   */\n      swap1\n      jump\t// out\n        /* \"#utility.yul\":1607:1724   */\n    tag_90:\n        /* \"#utility.yul\":1716:1717   */\n      0x00\n        /* \"#utility.yul\":1713:1714   */\n      dup1\n        /* \"#utility.yul\":1706:1718   */\n      revert\n        /* \"#utility.yul\":1730:1847   */\n    tag_91:\n        /* \"#utility.yul\":1839:1840   */\n      0x00\n        /* \"#utility.yul\":1836:1837   */\n      dup1\n        /* \"#utility.yul\":1829:1841   */\n      revert\n        /* \"#utility.yul\":1853:1930   */\n    tag_92:\n        /* \"#utility.yul\":1890:1897   */\n      0x00\n        /* \"#utility.yul\":1919:1924   */\n      dup2\n        /* \"#utility.yul\":1908:1924   */\n      swap1\n      pop\n        /* \"#utility.yul\":1853:1930   */\n      swap2\n      swap1\n      pop\n      jump\t// out\n        /* \"#utility.yul\":1936:2058   */\n    tag_93:\n        /* \"#utility.yul\":2009:2033   */\n      tag_169\n        /* \"#utility.yul\":2027:2032   */\n      dup2\n        /* \"#utility.yul\":2009:2033   */\n      tag_92\n      jump\t// in\n    tag_169:\n        /* \"#utility.yul\":2002:2007   */\n      dup2\n        /* \"#utility.yul\":1999:2034   */\n      eq\n        /* \"#utility.yul\":1989:2052   */\n      tag_170\n      jumpi\n        /* \"#utility.yul\":2048:2049   */\n      0x00\n        /* \"#utility.yul\":2045:2046   */\n      dup1\n        /* \"#utility.yul\":2038:2050   */\n      revert\n        /* \"#utility.yul\":1989:2052   */\n    tag_170:\n        /* \"#utility.yul\":1936:2058   */\n      pop\n      jump\t// out\n        /* \"#utility.yul\":2064:2203   */\n    tag_94:\n        /* \"#utility.yul\":2110:2115   */\n      0x00\n        /* \"#utility.yul\":2148:2154   */\n      dup2\n        /* \"#utility.yul\":2135:2155   */\n      calldataload\n        /* \"#utility.yul\":2126:2155   */\n      swap1\n      pop\n        /* \"#utility.yul\":2164:2197   */\n      tag_172\n        /* \"#utility.yul\":2191:2196   */\n      dup2\n        /* \"#utility.yul\":2164:2197   */\n      tag_93\n      jump\t// in\n    tag_172:\n        /* \"#utility.yul\":2064:2203   */\n      swap3\n      swap2\n      pop\n      pop\n      jump\t// out\n        /* \"#utility.yul\":2209:2326   */\n    tag_95:\n        /* \"#utility.yul\":2318:2319   */\n      0x00\n        /* \"#utility.yul\":2315:2316   */\n      dup1\n        /* \"#utility.yul\":2308:2320   */\n      revert\n        /* \"#utility.yul\":2332:2449   */\n    tag_96:\n        /* \"#utility.yul\":2441:2442   */\n      0x00\n        /* \"#utility.yul\":2438:2439   */\n      dup1\n        /* \"#utility.yul\":2431:2443   */\n      revert\n        /* \"#utility.yul\":2455:2557   */\n    tag_97:\n        /* \"#utility.yul\":2496:2502   */\n      0x00\n        /* \"#utility.yul\":2547:2549   */\n      0x1f\n        /* \"#utility.yul\":2543:2550   */\n      not\n        /* \"#utility.yul\":2538:2540   */\n      0x1f\n        /* \"#utility.yul\":2531:2536   */\n      dup4\n        /* \"#utility.yul\":2527:2541   */\n      add\n        /* \"#utility.yul\":2523:2551   */\n      and\n        /* \"#utility.yul\":2513:2551   */\n      swap1\n      pop\n        /* \"#utility.yul\":2455:2557   */\n      swap2\n      swap1\n      pop\n      jump\t// out\n        /* \"#utility.yul\":2563:2743   */\n    tag_98:\n        /* \"#utility.yul\":2611:2688   */\n      0x4e487b7100000000000000000000000000000000000000000000000000000000\n        /* \"#utility.yul\":2608:2609   */\n      0x00\n        /* \"#utility.yul\":2601:2689   */\n      mstore\n        /* \"#utility.yul\":2708:2712   */\n      0x41\n        /* \"#utility.yul\":2705:2706   */\n      0x04\n        /* \"#utility.yul\":2698:2713   */\n      mstore\n        /* \"#utility.yul\":2732:2736   */\n      0x24\n        /* \"#utility.yul\":2729:2730   */\n      0x00\n        /* \"#utility.yul\":2722:2737   */\n      revert\n        /* \"#utility.yul\":2749:3030   */\n    tag_99:\n        /* \"#utility.yul\":2832:2859   */\n      tag_178\n        /* \"#utility.yul\":2854:2858   */\n      dup3\n        /* \"#utility.yul\":2832:2859   */\n      tag_97\n      jump\t// in\n    tag_178:\n        /* \"#utility.yul\":2824:2830   */\n      dup2\n        /* \"#utility.yul\":2820:2860   */\n      add\n        /* \"#utility.yul\":2962:2968   */\n      dup2\n        /* \"#utility.yul\":2950:2960   */\n      dup2\n        /* \"#utility.yul\":2947:2969   */\n      lt\n        /* \"#utility.yul\":2926:2944   */\n      0xffffffffffffffff\n        /* \"#utility.yul\":2914:2924   */\n      dup3\n        /* \"#utility.yul\":2911:2945   */\n      gt\n        /* \"#utility.yul\":2908:2970   */\n      or\n        /* \"#utility.yul\":2905:2993   */\n      iszero\n      tag_179\n      jumpi\n        /* \"#utility.yul\":2973:2991   */\n      tag_180\n      tag_98\n      jump\t// in\n    tag_180:\n        /* \"#utility.yul\":2905:2993   */\n    tag_179:\n        /* \"#utility.yul\":3013:3023   */\n      dup1\n        /* \"#utility.yul\":3009:3011   */\n      0x40\n        /* \"#utility.yul\":3002:3024   */\n      mstore\n        /* \"#utility.yul\":2792:3030   */\n      pop\n        /* \"#utility.yul\":2749:3030   */\n      pop\n      pop\n      jump\t// out\n        /* \"#utility.yul\":3036:3165   */\n    tag_100:\n        /* \"#utility.yul\":3070:3076   */\n      0x00\n        /* \"#utility.yul\":3097:3117   */\n      tag_182\n      tag_89\n      jump\t// in\n    tag_182:\n        /* \"#utility.yul\":3087:3117   */\n      swap1\n      pop\n        /* \"#utility.yul\":3126:3159   */\n      tag_183\n        /* \"#utility.yul\":3154:3158   */\n      dup3\n        /* \"#utility.yul\":3146:3152   */\n      dup3\n        /* \"#utility.yul\":3126:3159   */\n      tag_99\n      jump\t// in\n    tag_183:\n        /* \"#utility.yul\":3036:3165   */\n      swap2\n      swap1\n      pop\n      jump\t// out\n        /* \"#utility.yul\":3171:3479   */\n    tag_101:\n        /* \"#utility.yul\":3233:3237   */\n      0x00\n        /* \"#utility.yul\":3323:3341   */\n      0xffffffffffffffff\n        /* \"#utility.yul\":3315:3321   */\n      dup3\n        /* \"#utility.yul\":3312:3342   */\n      gt\n        /* \"#utility.yul\":3309:3365   */\n      iszero\n      tag_185\n      jumpi\n        /* \"#utility.yul\":3345:3363   */\n      tag_186\n      tag_98\n      jump\t// in\n    tag_186:\n        /* \"#utility.yul\":3309:3365   */\n    tag_185:\n        /* \"#utility.yul\":3383:3412   */\n      tag_187\n        /* \"#utility.yul\":3405:3411   */\n      dup3\n        /* \"#utility.yul\":3383:3412   */\n      tag_97\n      jump\t// in\n    tag_187:\n        /* \"#utility.yul\":3375:3412   */\n      swap1\n      pop\n        /* \"#utility.yul\":3467:3471   */\n      0x20\n        /* \"#utility.yul\":3461:3465   */\n      dup2\n        /* \"#utility.yul\":3457:3472   */\n      add\n        /* \"#utility.yul\":3449:3472   */\n      swap1\n      pop\n        /* \"#utility.yul\":3171:3479   */\n      swap2\n      swap1\n      pop\n      jump\t// out\n        /* \"#utility.yul\":3485:3633   */\n    tag_102:\n        /* \"#utility.yul\":3583:3589   */\n      dup3\n        /* \"#utility.yul\":3578:3581   */\n      dup2\n        /* \"#utility.yul\":3573:3576   */\n      dup4\n        /* \"#utility.yul\":3560:3590   */\n      calldatacopy\n        /* \"#utility.yul\":3624:3625   */\n      0x00\n        /* \"#utility.yul\":3615:3621   */\n      dup4\n        /* \"#utility.yul\":3610:3613   */\n      dup4\n        /* \"#utility.yul\":3606:3622   */\n      add\n        /* \"#utility.yul\":3599:3626   */\n      mstore\n        /* \"#utility.yul\":3485:3633   */\n      pop\n      pop\n      pop\n      jump\t// out\n        /* \"#utility.yul\":3639:4064   */\n    tag_103:\n        /* \"#utility.yul\":3717:3722   */\n      0x00\n        /* \"#utility.yul\":3742:3808   */\n      tag_190\n        /* \"#utility.yul\":3758:3807   */\n      tag_191\n        /* \"#utility.yul\":3800:3806   */\n      dup5\n        /* \"#utility.yul\":3758:3807   */\n      tag_101\n      jump\t// in\n    tag_191:\n        /* \"#utility.yul\":3742:3808   */\n      tag_100\n      jump\t// in\n    tag_190:\n        /* \"#utility.yul\":3733:3808   */\n      swap1\n      pop\n        /* \"#utility.yul\":3831:3837   */\n      dup3\n        /* \"#utility.yul\":3824:3829   */\n      dup2\n        /* \"#utility.yul\":3817:3838   */\n      mstore\n        /* \"#utility.yul\":3869:3873   */\n      0x20\n        /* \"#utility.yul\":3862:3867   */\n      dup2\n        /* \"#utility.yul\":3858:3874   */\n      add\n        /* \"#utility.yul\":3907:3910   */\n      dup5\n        /* \"#utility.yul\":3898:3904   */\n      dup5\n        /* \"#utility.yul\":3893:3896   */\n      dup5\n        /* \"#utility.yul\":3889:3905   */\n      add\n        /* \"#utility.yul\":3886:3911   */\n      gt\n        /* \"#utility.yul\":3883:3995   */\n      iszero\n      tag_192\n      jumpi\n        /* \"#utility.yul\":3914:3993   */\n      tag_193\n      tag_96\n      jump\t// in\n    tag_193:\n        /* \"#utility.yul\":3883:3995   */\n    tag_192:\n        /* \"#utility.yul\":4004:4058   */\n      tag_194\n        /* \"#utility.yul\":4051:4057   */\n      dup5\n        /* \"#utility.yul\":4046:4049   */\n      dup3\n        /* \"#utility.yul\":4041:4044   */\n      dup6\n        /* \"#utility.yul\":4004:4058   */\n      tag_102\n      jump\t// in\n    tag_194:\n        /* \"#utility.yul\":3723:4064   */\n      pop\n        /* \"#utility.yul\":3639:4064   */\n      swap4\n      swap3\n      pop\n      pop\n      pop\n      jump\t// out\n        /* \"#utility.yul\":4084:4424   */\n    tag_104:\n        /* \"#utility.yul\":4140:4145   */\n      0x00\n        /* \"#utility.yul\":4189:4192   */\n      dup3\n        /* \"#utility.yul\":4182:4186   */\n      0x1f\n        /* \"#utility.yul\":4174:4180   */\n      dup4\n        /* \"#utility.yul\":4170:4187   */\n      add\n        /* \"#utility.yul\":4166:4193   */\n      slt\n        /* \"#utility.yul\":4156:4278   */\n      tag_196\n      jumpi\n        /* \"#utility.yul\":4197:4276   */\n      tag_197\n      tag_95\n      jump\t// in\n    tag_197:\n        /* \"#utility.yul\":4156:4278   */\n    tag_196:\n        /* \"#utility.yul\":4314:4320   */\n      dup2\n        /* \"#utility.yul\":4301:4321   */\n      calldataload\n        /* \"#utility.yul\":4339:4418   */\n      tag_198\n        /* \"#utility.yul\":4414:4417   */\n      dup5\n        /* \"#utility.yul\":4406:4412   */\n      dup3\n        /* \"#utility.yul\":4399:4403   */\n      0x20\n        /* \"#utility.yul\":4391:4397   */\n      dup7\n        /* \"#utility.yul\":4387:4404   */\n      add\n        /* \"#utility.yul\":4339:4418   */\n      tag_103\n      jump\t// in\n    tag_198:\n        /* \"#utility.yul\":4330:4418   */\n      swap2\n      pop\n        /* \"#utility.yul\":4146:4424   */\n      pop\n        /* \"#utility.yul\":4084:4424   */\n      swap3\n      swap2\n      pop\n      pop\n      jump\t// out\n        /* \"#utility.yul\":4430:5229   */\n    tag_19:\n        /* \"#utility.yul\":4517:4523   */\n      0x00\n        /* \"#utility.yul\":4525:4531   */\n      dup1\n        /* \"#utility.yul\":4533:4539   */\n      0x00\n        /* \"#utility.yul\":4582:4584   */\n      0x60\n        /* \"#utility.yul\":4570:4579   */\n      dup5\n        /* \"#utility.yul\":4561:4568   */\n      dup7\n        /* \"#utility.yul\":4557:4580   */\n      sub\n        /* \"#utility.yul\":4553:4585   */\n      slt\n        /* \"#utility.yul\":4550:4669   */\n      iszero\n      tag_200\n      jumpi\n        /* \"#utility.yul\":4588:4667   */\n      tag_201\n      tag_90\n      jump\t// in\n    tag_201:\n        /* \"#utility.yul\":4550:4669   */\n    tag_200:\n        /* \"#utility.yul\":4708:4709   */\n      0x00\n        /* \"#utility.yul\":4733:4786   */\n      tag_202\n        /* \"#utility.yul\":4778:4785   */\n      dup7\n        /* \"#utility.yul\":4769:4775   */\n      dup3\n        /* \"#utility.yul\":4758:4767   */\n      dup8\n        /* \"#utility.yul\":4754:4776   */\n      add\n        /* \"#utility.yul\":4733:4786   */\n      tag_94\n      jump\t// in\n    tag_202:\n        /* \"#utility.yul\":4723:4786   */\n      swap4\n      pop\n        /* \"#utility.yul\":4679:4796   */\n      pop\n        /* \"#utility.yul\":4863:4865   */\n      0x20\n        /* \"#utility.yul\":4852:4861   */\n      dup5\n        /* \"#utility.yul\":4848:4866   */\n      add\n        /* \"#utility.yul\":4835:4867   */\n      calldataload\n        /* \"#utility.yul\":4894:4912   */\n      0xffffffffffffffff\n        /* \"#utility.yul\":4886:4892   */\n      dup2\n        /* \"#utility.yul\":4883:4913   */\n      gt\n        /* \"#utility.yul\":4880:4997   */\n      iszero\n      tag_203\n      jumpi\n        /* \"#utility.yul\":4916:4995   */\n      tag_204\n      tag_91\n      jump\t// in\n    tag_204:\n        /* \"#utility.yul\":4880:4997   */\n    tag_203:\n        /* \"#utility.yul\":5021:5084   */\n      tag_205\n        /* \"#utility.yul\":5076:5083   */\n      dup7\n        /* \"#utility.yul\":5067:5073   */\n      dup3\n        /* \"#utility.yul\":5056:5065   */\n      dup8\n        /* \"#utility.yul\":5052:5074   */\n      add\n        /* \"#utility.yul\":5021:5084   */\n      tag_104\n      jump\t// in\n    tag_205:\n        /* \"#utility.yul\":5011:5084   */\n      swap3\n      pop\n        /* \"#utility.yul\":4806:5094   */\n      pop\n        /* \"#utility.yul\":5133:5135   */\n      0x40\n        /* \"#utility.yul\":5159:5212   */\n      tag_206\n        /* \"#utility.yul\":5204:5211   */\n      dup7\n        /* \"#utility.yul\":5195:5201   */\n      dup3\n        /* \"#utility.yul\":5184:5193   */\n      dup8\n        /* \"#utility.yul\":5180:5202   */\n      add\n        /* \"#utility.yul\":5159:5212   */\n      tag_94\n      jump\t// in\n    tag_206:\n        /* \"#utility.yul\":5149:5212   */\n      swap2\n      pop\n        /* \"#utility.yul\":5104:5222   */\n      pop\n        /* \"#utility.yul\":4430:5229   */\n      swap3\n      pop\n      swap3\n      pop\n      swap3\n      jump\t// out\n        /* \"#utility.yul\":5235:5564   */\n    tag_23:\n        /* \"#utility.yul\":5294:5300   */\n      0x00\n        /* \"#utility.yul\":5343:5345   */\n      0x20\n        /* \"#utility.yul\":5331:5340   */\n      dup3\n        /* \"#utility.yul\":5322:5329   */\n      dup5\n        /* \"#utility.yul\":5318:5341   */\n      sub\n        /* \"#utility.yul\":5314:5346   */\n      slt\n        /* \"#utility.yul\":5311:5430   */\n      iszero\n      tag_208\n      jumpi\n        /* \"#utility.yul\":5349:5428   */\n      tag_209\n      tag_90\n      jump\t// in\n    tag_209:\n        /* \"#utility.yul\":5311:5430   */\n    tag_208:\n        /* \"#utility.yul\":5469:5470   */\n      0x00\n        /* \"#utility.yul\":5494:5547   */\n      tag_210\n        /* \"#utility.yul\":5539:5546   */\n      dup5\n        /* \"#utility.yul\":5530:5536   */\n      dup3\n        /* \"#utility.yul\":5519:5528   */\n      dup6\n        /* \"#utility.yul\":5515:5537   */\n      add\n        /* \"#utility.yul\":5494:5547   */\n      tag_94\n      jump\t// in\n    tag_210:\n        /* \"#utility.yul\":5484:5547   */\n      swap2\n      pop\n        /* \"#utility.yul\":5440:5557   */\n      pop\n        /* \"#utility.yul\":5235:5564   */\n      swap3\n      swap2\n      pop\n      pop\n      jump\t// out\n        /* \"#utility.yul\":5570:5669   */\n    tag_105:\n        /* \"#utility.yul\":5622:5628   */\n      0x00\n        /* \"#utility.yul\":5656:5661   */\n      dup2\n        /* \"#utility.yul\":5650:5662   */\n      mload\n        /* \"#utility.yul\":5640:5662   */\n      swap1\n      pop\n        /* \"#utility.yul\":5570:5669   */\n      swap2\n      swap1\n      pop\n      jump\t// out\n        /* \"#utility.yul\":5675:5844   */\n    tag_106:\n        /* \"#utility.yul\":5759:5770   */\n      0x00\n        /* \"#utility.yul\":5793:5799   */\n      dup3\n        /* \"#utility.yul\":5788:5791   */\n      dup3\n        /* \"#utility.yul\":5781:5800   */\n      mstore\n        /* \"#utility.yul\":5833:5837   */\n      0x20\n        /* \"#utility.yul\":5828:5831   */\n      dup3\n        /* \"#utility.yul\":5824:5838   */\n      add\n        /* \"#utility.yul\":5809:5838   */\n      swap1\n      pop\n        /* \"#utility.yul\":5675:5844   */\n      swap3\n      swap2\n      pop\n      pop\n      jump\t// out\n        /* \"#utility.yul\":5850:5989   */\n    tag_107:\n        /* \"#utility.yul\":5939:5945   */\n      dup3\n        /* \"#utility.yul\":5934:5937   */\n      dup2\n        /* \"#utility.yul\":5929:5932   */\n      dup4\n        /* \"#utility.yul\":5923:5946   */\n      mcopy\n        /* \"#utility.yul\":5980:5981   */\n      0x00\n        /* \"#utility.yul\":5971:5977   */\n      dup4\n        /* \"#utility.yul\":5966:5969   */\n      dup4\n        /* \"#utility.yul\":5962:5978   */\n      add\n        /* \"#utility.yul\":5955:5982   */\n      mstore\n        /* \"#utility.yul\":5850:5989   */\n      pop\n      pop\n      pop\n      jump\t// out\n        /* \"#utility.yul\":5995:6372   */\n    tag_108:\n        /* \"#utility.yul\":6083:6086   */\n      0x00\n        /* \"#utility.yul\":6111:6150   */\n      tag_215\n        /* \"#utility.yul\":6144:6149   */\n      dup3\n        /* \"#utility.yul\":6111:6150   */\n      tag_105\n      jump\t// in\n    tag_215:\n        /* \"#utility.yul\":6166:6237   */\n      tag_216\n        /* \"#utility.yul\":6230:6236   */\n      dup2\n        /* \"#utility.yul\":6225:6228   */\n      dup6\n        /* \"#utility.yul\":6166:6237   */\n      tag_106\n      jump\t// in\n    tag_216:\n        /* \"#utility.yul\":6159:6237   */\n      swap4\n      pop\n        /* \"#utility.yul\":6246:6311   */\n      tag_217\n        /* \"#utility.yul\":6304:6310   */\n      dup2\n        /* \"#utility.yul\":6299:6302   */\n      dup6\n        /* \"#utility.yul\":6292:6296   */\n      0x20\n        /* \"#utility.yul\":6285:6290   */\n      dup7\n        /* \"#utility.yul\":6281:6297   */\n      add\n        /* \"#utility.yul\":6246:6311   */\n      tag_107\n      jump\t// in\n    tag_217:\n        /* \"#utility.yul\":6336:6365   */\n      tag_218\n        /* \"#utility.yul\":6358:6364   */\n      dup2\n        /* \"#utility.yul\":6336:6365   */\n      tag_97\n      jump\t// in\n    tag_218:\n        /* \"#utility.yul\":6331:6334   */\n      dup5\n        /* \"#utility.yul\":6327:6366   */\n      add\n        /* \"#utility.yul\":6320:6366   */\n      swap2\n      pop\n        /* \"#utility.yul\":6087:6372   */\n      pop\n        /* \"#utility.yul\":5995:6372   */\n      swap3\n      swap2\n      pop\n      pop\n      jump\t// out\n        /* \"#utility.yul\":6378:6496   */\n    tag_109:\n        /* \"#utility.yul\":6465:6489   */\n      tag_220\n        /* \"#utility.yul\":6483:6488   */\n      dup2\n        /* \"#utility.yul\":6465:6489   */\n      tag_92\n      jump\t// in\n    tag_220:\n        /* \"#utility.yul\":6460:6463   */\n      dup3\n        /* \"#utility.yul\":6453:6490   */\n      mstore\n        /* \"#utility.yul\":6378:6496   */\n      pop\n      pop\n      jump\t// out\n        /* \"#utility.yul\":6502:6592   */\n    tag_110:\n        /* \"#utility.yul\":6536:6543   */\n      0x00\n        /* \"#utility.yul\":6579:6584   */\n      dup2\n        /* \"#utility.yul\":6572:6585   */\n      iszero\n        /* \"#utility.yul\":6565:6586   */\n      iszero\n        /* \"#utility.yul\":6554:6586   */\n      swap1\n      pop\n        /* \"#utility.yul\":6502:6592   */\n      swap2\n      swap1\n      pop\n      jump\t// out\n        /* \"#utility.yul\":6598:6707   */\n    tag_111:\n        /* \"#utility.yul\":6679:6700   */\n      tag_223\n        /* \"#utility.yul\":6694:6699   */\n      dup2\n        /* \"#utility.yul\":6679:6700   */\n      tag_110\n      jump\t// in\n    tag_223:\n        /* \"#utility.yul\":6674:6677   */\n      dup3\n        /* \"#utility.yul\":6667:6701   */\n      mstore\n        /* \"#utility.yul\":6598:6707   */\n      pop\n      pop\n      jump\t// out\n        /* \"#utility.yul\":6713:7345   */\n    tag_26:\n        /* \"#utility.yul\":6904:6908   */\n      0x00\n        /* \"#utility.yul\":6942:6945   */\n      0x80\n        /* \"#utility.yul\":6931:6940   */\n      dup3\n        /* \"#utility.yul\":6927:6946   */\n      add\n        /* \"#utility.yul\":6919:6946   */\n      swap1\n      pop\n        /* \"#utility.yul\":6992:7001   */\n      dup2\n        /* \"#utility.yul\":6986:6990   */\n      dup2\n        /* \"#utility.yul\":6982:7002   */\n      sub\n        /* \"#utility.yul\":6978:6979   */\n      0x00\n        /* \"#utility.yul\":6967:6976   */\n      dup4\n        /* \"#utility.yul\":6963:6980   */\n      add\n        /* \"#utility.yul\":6956:7003   */\n      mstore\n        /* \"#utility.yul\":7020:7098   */\n      tag_225\n        /* \"#utility.yul\":7093:7097   */\n      dup2\n        /* \"#utility.yul\":7084:7090   */\n      dup8\n        /* \"#utility.yul\":7020:7098   */\n      tag_108\n      jump\t// in\n    tag_225:\n        /* \"#utility.yul\":7012:7098   */\n      swap1\n      pop\n        /* \"#utility.yul\":7108:7180   */\n      tag_226\n        /* \"#utility.yul\":7176:7178   */\n      0x20\n        /* \"#utility.yul\":7165:7174   */\n      dup4\n        /* \"#utility.yul\":7161:7179   */\n      add\n        /* \"#utility.yul\":7152:7158   */\n      dup7\n        /* \"#utility.yul\":7108:7180   */\n      tag_109\n      jump\t// in\n    tag_226:\n        /* \"#utility.yul\":7190:7256   */\n      tag_227\n        /* \"#utility.yul\":7252:7254   */\n      0x40\n        /* \"#utility.yul\":7241:7250   */\n      dup4\n        /* \"#utility.yul\":7237:7255   */\n      add\n        /* \"#utility.yul\":7228:7234   */\n      dup6\n        /* \"#utility.yul\":7190:7256   */\n      tag_111\n      jump\t// in\n    tag_227:\n        /* \"#utility.yul\":7266:7338   */\n      tag_228\n        /* \"#utility.yul\":7334:7336   */\n      0x60\n        /* \"#utility.yul\":7323:7332   */\n      dup4\n        /* \"#utility.yul\":7319:7337   */\n      add\n        /* \"#utility.yul\":7310:7316   */\n      dup5\n        /* \"#utility.yul\":7266:7338   */\n      tag_88\n      jump\t// in\n    tag_228:\n        /* \"#utility.yul\":6713:7345   */\n      swap6\n      swap5\n      pop\n      pop\n      pop\n      pop\n      pop\n      jump\t// out\n        /* \"#utility.yul\":7351:7473   */\n    tag_112:\n        /* \"#utility.yul\":7424:7448   */\n      tag_230\n        /* \"#utility.yul\":7442:7447   */\n      dup2\n        /* \"#utility.yul\":7424:7448   */\n      tag_87\n      jump\t// in\n    tag_230:\n        /* \"#utility.yul\":7417:7422   */\n      dup2\n        /* \"#utility.yul\":7414:7449   */\n      eq\n        /* \"#utility.yul\":7404:7467   */\n      tag_231\n      jumpi\n        /* \"#utility.yul\":7463:7464   */\n      0x00\n        /* \"#utility.yul\":7460:7461   */\n      dup1\n        /* \"#utility.yul\":7453:7465   */\n      revert\n        /* \"#utility.yul\":7404:7467   */\n    tag_231:\n        /* \"#utility.yul\":7351:7473   */\n      pop\n      jump\t// out\n        /* \"#utility.yul\":7479:7618   */\n    tag_113:\n        /* \"#utility.yul\":7525:7530   */\n      0x00\n        /* \"#utility.yul\":7563:7569   */\n      dup2\n        /* \"#utility.yul\":7550:7570   */\n      calldataload\n        /* \"#utility.yul\":7541:7570   */\n      swap1\n      pop\n        /* \"#utility.yul\":7579:7612   */\n      tag_233\n        /* \"#utility.yul\":7606:7611   */\n      dup2\n        /* \"#utility.yul\":7579:7612   */\n      tag_112\n      jump\t// in\n    tag_233:\n        /* \"#utility.yul\":7479:7618   */\n      swap3\n      swap2\n      pop\n      pop\n      jump\t// out\n        /* \"#utility.yul\":7624:8098   */\n    tag_29:\n        /* \"#utility.yul\":7692:7698   */\n      0x00\n        /* \"#utility.yul\":7700:7706   */\n      dup1\n        /* \"#utility.yul\":7749:7751   */\n      0x40\n        /* \"#utility.yul\":7737:7746   */\n      dup4\n        /* \"#utility.yul\":7728:7735   */\n      dup6\n        /* \"#utility.yul\":7724:7747   */\n      sub\n        /* \"#utility.yul\":7720:7752   */\n      slt\n        /* \"#utility.yul\":7717:7836   */\n      iszero\n      tag_235\n      jumpi\n        /* \"#utility.yul\":7755:7834   */\n      tag_236\n      tag_90\n      jump\t// in\n    tag_236:\n        /* \"#utility.yul\":7717:7836   */\n    tag_235:\n        /* \"#utility.yul\":7875:7876   */\n      0x00\n        /* \"#utility.yul\":7900:7953   */\n      tag_237\n        /* \"#utility.yul\":7945:7952   */\n      dup6\n        /* \"#utility.yul\":7936:7942   */\n      dup3\n        /* \"#utility.yul\":7925:7934   */\n      dup7\n        /* \"#utility.yul\":7921:7943   */\n      add\n        /* \"#utility.yul\":7900:7953   */\n      tag_94\n      jump\t// in\n    tag_237:\n        /* \"#utility.yul\":7890:7953   */\n      swap3\n      pop\n        /* \"#utility.yul\":7846:7963   */\n      pop\n        /* \"#utility.yul\":8002:8004   */\n      0x20\n        /* \"#utility.yul\":8028:8081   */\n      tag_238\n        /* \"#utility.yul\":8073:8080   */\n      dup6\n        /* \"#utility.yul\":8064:8070   */\n      dup3\n        /* \"#utility.yul\":8053:8062   */\n      dup7\n        /* \"#utility.yul\":8049:8071   */\n      add\n        /* \"#utility.yul\":8028:8081   */\n      tag_113\n      jump\t// in\n    tag_238:\n        /* \"#utility.yul\":8018:8081   */\n      swap2\n      pop\n        /* \"#utility.yul\":7973:8091   */\n      pop\n        /* \"#utility.yul\":7624:8098   */\n      swap3\n      pop\n      swap3\n      swap1\n      pop\n      jump\t// out\n        /* \"#utility.yul\":8104:8245   */\n    tag_114:\n        /* \"#utility.yul\":8169:8178   */\n      0x00\n        /* \"#utility.yul\":8202:8239   */\n      tag_240\n        /* \"#utility.yul\":8233:8238   */\n      dup3\n        /* \"#utility.yul\":8202:8239   */\n      tag_84\n      jump\t// in\n    tag_240:\n        /* \"#utility.yul\":8189:8239   */\n      swap1\n      pop\n        /* \"#utility.yul\":8104:8245   */\n      swap2\n      swap1\n      pop\n      jump\t// out\n        /* \"#utility.yul\":8251:8412   */\n    tag_115:\n        /* \"#utility.yul\":8353:8405   */\n      tag_242\n        /* \"#utility.yul\":8399:8404   */\n      dup2\n        /* \"#utility.yul\":8353:8405   */\n      tag_114\n      jump\t// in\n    tag_242:\n        /* \"#utility.yul\":8348:8351   */\n      dup3\n        /* \"#utility.yul\":8341:8406   */\n      mstore\n        /* \"#utility.yul\":8251:8412   */\n      pop\n      pop\n      jump\t// out\n        /* \"#utility.yul\":8418:8670   */\n    tag_34:\n        /* \"#utility.yul\":8526:8530   */\n      0x00\n        /* \"#utility.yul\":8564:8566   */\n      0x20\n        /* \"#utility.yul\":8553:8562   */\n      dup3\n        /* \"#utility.yul\":8549:8567   */\n      add\n        /* \"#utility.yul\":8541:8567   */\n      swap1\n      pop\n        /* \"#utility.yul\":8577:8663   */\n      tag_244\n        /* \"#utility.yul\":8660:8661   */\n      0x00\n        /* \"#utility.yul\":8649:8658   */\n      dup4\n        /* \"#utility.yul\":8645:8662   */\n      add\n        /* \"#utility.yul\":8636:8642   */\n      dup5\n        /* \"#utility.yul\":8577:8663   */\n      tag_115\n      jump\t// in\n    tag_244:\n        /* \"#utility.yul\":8418:8670   */\n      swap3\n      swap2\n      pop\n      pop\n      jump\t// out\n        /* \"#utility.yul\":8676:8898   */\n    tag_37:\n        /* \"#utility.yul\":8769:8773   */\n      0x00\n        /* \"#utility.yul\":8807:8809   */\n      0x20\n        /* \"#utility.yul\":8796:8805   */\n      dup3\n        /* \"#utility.yul\":8792:8810   */\n      add\n        /* \"#utility.yul\":8784:8810   */\n      swap1\n      pop\n        /* \"#utility.yul\":8820:8891   */\n      tag_246\n        /* \"#utility.yul\":8888:8889   */\n      0x00\n        /* \"#utility.yul\":8877:8886   */\n      dup4\n        /* \"#utility.yul\":8873:8890   */\n      add\n        /* \"#utility.yul\":8864:8870   */\n      dup5\n        /* \"#utility.yul\":8820:8891   */\n      tag_109\n      jump\t// in\n    tag_246:\n        /* \"#utility.yul\":8676:8898   */\n      swap3\n      swap2\n      pop\n      pop\n      jump\t// out\n        /* \"#utility.yul\":8904:9047   */\n    tag_116:\n        /* \"#utility.yul\":8961:8966   */\n      0x00\n        /* \"#utility.yul\":8992:8998   */\n      dup2\n        /* \"#utility.yul\":8986:8999   */\n      mload\n        /* \"#utility.yul\":8977:8999   */\n      swap1\n      pop\n        /* \"#utility.yul\":9008:9041   */\n      tag_248\n        /* \"#utility.yul\":9035:9040   */\n      dup2\n        /* \"#utility.yul\":9008:9041   */\n      tag_112\n      jump\t// in\n    tag_248:\n        /* \"#utility.yul\":8904:9047   */\n      swap3\n      swap2\n      pop\n      pop\n      jump\t// out\n        /* \"#utility.yul\":9053:9404   */\n    tag_41:\n        /* \"#utility.yul\":9123:9129   */\n      0x00\n        /* \"#utility.yul\":9172:9174   */\n      0x20\n        /* \"#utility.yul\":9160:9169   */\n      dup3\n        /* \"#utility.yul\":9151:9158   */\n      dup5\n        /* \"#utility.yul\":9147:9170   */\n      sub\n        /* \"#utility.yul\":9143:9175   */\n      slt\n        /* \"#utility.yul\":9140:9259   */\n      iszero\n      tag_250\n      jumpi\n        /* \"#utility.yul\":9178:9257   */\n      tag_251\n      tag_90\n      jump\t// in\n    tag_251:\n        /* \"#utility.yul\":9140:9259   */\n    tag_250:\n        /* \"#utility.yul\":9298:9299   */\n      0x00\n        /* \"#utility.yul\":9323:9387   */\n      tag_252\n        /* \"#utility.yul\":9379:9386   */\n      dup5\n        /* \"#utility.yul\":9370:9376   */\n      dup3\n        /* \"#utility.yul\":9359:9368   */\n      dup6\n        /* \"#utility.yul\":9355:9377   */\n      add\n        /* \"#utility.yul\":9323:9387   */\n      tag_116\n      jump\t// in\n    tag_252:\n        /* \"#utility.yul\":9313:9387   */\n      swap2\n      pop\n        /* \"#utility.yul\":9269:9397   */\n      pop\n        /* \"#utility.yul\":9053:9404   */\n      swap3\n      swap2\n      pop\n      pop\n      jump\t// out\n        /* \"#utility.yul\":9410:9569   */\n    tag_117:\n        /* \"#utility.yul\":9550:9561   */\n      0x4e6f74206f776e65720000000000000000000000000000000000000000000000\n        /* \"#utility.yul\":9546:9547   */\n      0x00\n        /* \"#utility.yul\":9538:9544   */\n      dup3\n        /* \"#utility.yul\":9534:9548   */\n      add\n        /* \"#utility.yul\":9527:9562   */\n      mstore\n        /* \"#utility.yul\":9410:9569   */\n      pop\n      jump\t// out\n        /* \"#utility.yul\":9575:9940   */\n    tag_118:\n        /* \"#utility.yul\":9717:9720   */\n      0x00\n        /* \"#utility.yul\":9738:9804   */\n      tag_255\n        /* \"#utility.yul\":9802:9803   */\n      0x09\n        /* \"#utility.yul\":9797:9800   */\n      dup4\n        /* \"#utility.yul\":9738:9804   */\n      tag_106\n      jump\t// in\n    tag_255:\n        /* \"#utility.yul\":9731:9804   */\n      swap2\n      pop\n        /* \"#utility.yul\":9813:9906   */\n      tag_256\n        /* \"#utility.yul\":9902:9905   */\n      dup3\n        /* \"#utility.yul\":9813:9906   */\n      tag_117\n      jump\t// in\n    tag_256:\n        /* \"#utility.yul\":9931:9933   */\n      0x20\n        /* \"#utility.yul\":9926:9929   */\n      dup3\n        /* \"#utility.yul\":9922:9934   */\n      add\n        /* \"#utility.yul\":9915:9934   */\n      swap1\n      pop\n        /* \"#utility.yul\":9575:9940   */\n      swap2\n      swap1\n      pop\n      jump\t// out\n        /* \"#utility.yul\":9946:10365   */\n    tag_44:\n        /* \"#utility.yul\":10112:10116   */\n      0x00\n        /* \"#utility.yul\":10150:10152   */\n      0x20\n        /* \"#utility.yul\":10139:10148   */\n      dup3\n        /* \"#utility.yul\":10135:10153   */\n      add\n        /* \"#utility.yul\":10127:10153   */\n      swap1\n      pop\n        /* \"#utility.yul\":10199:10208   */\n      dup2\n        /* \"#utility.yul\":10193:10197   */\n      dup2\n        /* \"#utility.yul\":10189:10209   */\n      sub\n        /* \"#utility.yul\":10185:10186   */\n      0x00\n        /* \"#utility.yul\":10174:10183   */\n      dup4\n        /* \"#utility.yul\":10170:10187   */\n      add\n        /* \"#utility.yul\":10163:10210   */\n      mstore\n        /* \"#utility.yul\":10227:10358   */\n      tag_258\n        /* \"#utility.yul\":10353:10357   */\n      dup2\n        /* \"#utility.yul\":10227:10358   */\n      tag_118\n      jump\t// in\n    tag_258:\n        /* \"#utility.yul\":10219:10358   */\n      swap1\n      pop\n        /* \"#utility.yul\":9946:10365   */\n      swap2\n      swap1\n      pop\n      jump\t// out\n        /* \"#utility.yul\":10371:10534   */\n    tag_119:\n        /* \"#utility.yul\":10511:10526   */\n      0x496e76616c696420707269636500000000000000000000000000000000000000\n        /* \"#utility.yul\":10507:10508   */\n      0x00\n        /* \"#utility.yul\":10499:10505   */\n      dup3\n        /* \"#utility.yul\":10495:10509   */\n      add\n        /* \"#utility.yul\":10488:10527   */\n      mstore\n        /* \"#utility.yul\":10371:10534   */\n      pop\n      jump\t// out\n        /* \"#utility.yul\":10540:10906   */\n    tag_120:\n        /* \"#utility.yul\":10682:10685   */\n      0x00\n        /* \"#utility.yul\":10703:10770   */\n      tag_261\n        /* \"#utility.yul\":10767:10769   */\n      0x0d\n        /* \"#utility.yul\":10762:10765   */\n      dup4\n        /* \"#utility.yul\":10703:10770   */\n      tag_106\n      jump\t// in\n    tag_261:\n        /* \"#utility.yul\":10696:10770   */\n      swap2\n      pop\n        /* \"#utility.yul\":10779:10872   */\n      tag_262\n        /* \"#utility.yul\":10868:10871   */\n      dup3\n        /* \"#utility.yul\":10779:10872   */\n      tag_119\n      jump\t// in\n    tag_262:\n        /* \"#utility.yul\":10897:10899   */\n      0x20\n        /* \"#utility.yul\":10892:10895   */\n      dup3\n        /* \"#utility.yul\":10888:10900   */\n      add\n        /* \"#utility.yul\":10881:10900   */\n      swap1\n      pop\n        /* \"#utility.yul\":10540:10906   */\n      swap2\n      swap1\n      pop\n      jump\t// out\n        /* \"#utility.yul\":10912:11331   */\n    tag_47:\n        /* \"#utility.yul\":11078:11082   */\n      0x00\n        /* \"#utility.yul\":11116:11118   */\n      0x20\n        /* \"#utility.yul\":11105:11114   */\n      dup3\n        /* \"#utility.yul\":11101:11119   */\n      add\n        /* \"#utility.yul\":11093:11119   */\n      swap1\n      pop\n        /* \"#utility.yul\":11165:11174   */\n      dup2\n        /* \"#utility.yul\":11159:11163   */\n      dup2\n        /* \"#utility.yul\":11155:11175   */\n      sub\n        /* \"#utility.yul\":11151:11152   */\n      0x00\n        /* \"#utility.yul\":11140:11149   */\n      dup4\n        /* \"#utility.yul\":11136:11153   */\n      add\n        /* \"#utility.yul\":11129:11176   */\n      mstore\n        /* \"#utility.yul\":11193:11324   */\n      tag_264\n        /* \"#utility.yul\":11319:11323   */\n      dup2\n        /* \"#utility.yul\":11193:11324   */\n      tag_120\n      jump\t// in\n    tag_264:\n        /* \"#utility.yul\":11185:11324   */\n      swap1\n      pop\n        /* \"#utility.yul\":10912:11331   */\n      swap2\n      swap1\n      pop\n      jump\t// out\n        /* \"#utility.yul\":11337:11517   */\n    tag_121:\n        /* \"#utility.yul\":11385:11462   */\n      0x4e487b7100000000000000000000000000000000000000000000000000000000\n        /* \"#utility.yul\":11382:11383   */\n      0x00\n        /* \"#utility.yul\":11375:11463   */\n      mstore\n        /* \"#utility.yul\":11482:11486   */\n      0x22\n        /* \"#utility.yul\":11479:11480   */\n      0x04\n        /* \"#utility.yul\":11472:11487   */\n      mstore\n        /* \"#utility.yul\":11506:11510   */\n      0x24\n        /* \"#utility.yul\":11503:11504   */\n      0x00\n        /* \"#utility.yul\":11496:11511   */\n      revert\n        /* \"#utility.yul\":11523:11843   */\n    tag_53:\n        /* \"#utility.yul\":11567:11573   */\n      0x00\n        /* \"#utility.yul\":11604:11605   */\n      0x02\n        /* \"#utility.yul\":11598:11602   */\n      dup3\n        /* \"#utility.yul\":11594:11606   */\n      div\n        /* \"#utility.yul\":11584:11606   */\n      swap1\n      pop\n        /* \"#utility.yul\":11651:11652   */\n      0x01\n        /* \"#utility.yul\":11645:11649   */\n      dup3\n        /* \"#utility.yul\":11641:11653   */\n      and\n        /* \"#utility.yul\":11672:11690   */\n      dup1\n        /* \"#utility.yul\":11662:11743   */\n      tag_267\n      jumpi\n        /* \"#utility.yul\":11728:11732   */\n      0x7f\n        /* \"#utility.yul\":11720:11726   */\n      dup3\n        /* \"#utility.yul\":11716:11733   */\n      and\n        /* \"#utility.yul\":11706:11733   */\n      swap2\n      pop\n        /* \"#utility.yul\":11662:11743   */\n    tag_267:\n        /* \"#utility.yul\":11790:11792   */\n      0x20\n        /* \"#utility.yul\":11782:11788   */\n      dup3\n        /* \"#utility.yul\":11779:11793   */\n      lt\n        /* \"#utility.yul\":11759:11777   */\n      dup2\n        /* \"#utility.yul\":11756:11794   */\n      sub\n        /* \"#utility.yul\":11753:11837   */\n      tag_268\n      jumpi\n        /* \"#utility.yul\":11809:11827   */\n      tag_269\n      tag_121\n      jump\t// in\n    tag_269:\n        /* \"#utility.yul\":11753:11837   */\n    tag_268:\n        /* \"#utility.yul\":11574:11843   */\n      pop\n        /* \"#utility.yul\":11523:11843   */\n      swap2\n      swap1\n      pop\n      jump\t// out\n        /* \"#utility.yul\":11849:11990   */\n    tag_122:\n        /* \"#utility.yul\":11898:11902   */\n      0x00\n        /* \"#utility.yul\":11921:11924   */\n      dup2\n        /* \"#utility.yul\":11913:11924   */\n      swap1\n      pop\n        /* \"#utility.yul\":11944:11947   */\n      dup2\n        /* \"#utility.yul\":11941:11942   */\n      0x00\n        /* \"#utility.yul\":11934:11948   */\n      mstore\n        /* \"#utility.yul\":11978:11982   */\n      0x20\n        /* \"#utility.yul\":11975:11976   */\n      0x00\n        /* \"#utility.yul\":11965:11983   */\n      keccak256\n        /* \"#utility.yul\":11957:11983   */\n      swap1\n      pop\n        /* \"#utility.yul\":11849:11990   */\n      swap2\n      swap1\n      pop\n      jump\t// out\n        /* \"#utility.yul\":11996:12089   */\n    tag_123:\n        /* \"#utility.yul\":12033:12039   */\n      0x00\n        /* \"#utility.yul\":12080:12082   */\n      0x20\n        /* \"#utility.yul\":12075:12077   */\n      0x1f\n        /* \"#utility.yul\":12068:12073   */\n      dup4\n        /* \"#utility.yul\":12064:12078   */\n      add\n        /* \"#utility.yul\":12060:12083   */\n      div\n        /* \"#utility.yul\":12050:12083   */\n      swap1\n      pop\n        /* \"#utility.yul\":11996:12089   */\n      swap2\n      swap1\n      pop\n      jump\t// out\n        /* \"#utility.yul\":12095:12202   */\n    tag_124:\n        /* \"#utility.yul\":12139:12147   */\n      0x00\n        /* \"#utility.yul\":12189:12194   */\n      dup3\n        /* \"#utility.yul\":12183:12187   */\n      dup3\n        /* \"#utility.yul\":12179:12195   */\n      shl\n        /* \"#utility.yul\":12158:12195   */\n      swap1\n      pop\n        /* \"#utility.yul\":12095:12202   */\n      swap3\n      swap2\n      pop\n      pop\n      jump\t// out\n        /* \"#utility.yul\":12208:12601   */\n    tag_125:\n        /* \"#utility.yul\":12277:12283   */\n      0x00\n        /* \"#utility.yul\":12327:12328   */\n      0x08\n        /* \"#utility.yul\":12315:12325   */\n      dup4\n        /* \"#utility.yul\":12311:12329   */\n      mul\n        /* \"#utility.yul\":12350:12447   */\n      tag_274\n        /* \"#utility.yul\":12380:12446   */\n      0xffffffffffffffffffffffffffffffffffffffffffffffffffffffffffffffff\n        /* \"#utility.yul\":12369:12378   */\n      dup3\n        /* \"#utility.yul\":12350:12447   */\n      tag_124\n      jump\t// in\n    tag_274:\n        /* \"#utility.yul\":12468:12507   */\n      tag_275\n        /* \"#utility.yul\":12498:12506   */\n      dup7\n        /* \"#utility.yul\":12487:12496   */\n      dup4\n        /* \"#utility.yul\":12468:12507   */\n      tag_124\n      jump\t// in\n    tag_275:\n        /* \"#utility.yul\":12456:12507   */\n      swap6\n      pop\n        /* \"#utility.yul\":12540:12544   */\n      dup1\n        /* \"#utility.yul\":12536:12545   */\n      not\n        /* \"#utility.yul\":12529:12534   */\n      dup5\n        /* \"#utility.yul\":12525:12546   */\n      and\n        /* \"#utility.yul\":12516:12546   */\n      swap4\n      pop\n        /* \"#utility.yul\":12589:12593   */\n      dup1\n        /* \"#utility.yul\":12579:12587   */\n      dup7\n        /* \"#utility.yul\":12575:12594   */\n      and\n        /* \"#utility.yul\":12568:12573   */\n      dup5\n        /* \"#utility.yul\":12565:12595   */\n      or\n        /* \"#utility.yul\":12555:12595   */\n      swap3\n      pop\n        /* \"#utility.yul\":12284:12601   */\n      pop\n      pop\n        /* \"#utility.yul\":12208:12601   */\n      swap4\n      swap3\n      pop\n      pop\n      pop\n      jump\t// out\n        /* \"#utility.yul\":12607:12749   */\n    tag_126:\n        /* \"#utility.yul\":12657:12666   */\n      0x00\n        /* \"#utility.yul\":12690:12743   */\n      tag_277\n        /* \"#utility.yul\":12708:12742   */\n      tag_278\n        /* \"#utility.yul\":12717:12741   */\n      tag_279\n        /* \"#utility.yul\":12735:12740   */\n      dup5\n        /* \"#utility.yul\":12717:12741   */\n      tag_92\n      jump\t// in\n    tag_279:\n        /* \"#utility.yul\":12708:12742   */\n      tag_82\n      jump\t// in\n    tag_278:\n        /* \"#utility.yul\":12690:12743   */\n      tag_92\n      jump\t// in\n    tag_277:\n        /* \"#utility.yul\":12677:12743   */\n      swap1\n      pop\n        /* \"#utility.yul\":12607:12749   */\n      swap2\n      swap1\n      pop\n      jump\t// out\n        /* \"#utility.yul\":12755:12830   */\n    tag_127:\n        /* \"#utility.yul\":12798:12801   */\n      0x00\n        /* \"#utility.yul\":12819:12824   */\n      dup2\n        /* \"#utility.yul\":12812:12824   */\n      swap1\n      pop\n        /* \"#utility.yul\":12755:12830   */\n      swap2\n      swap1\n      pop\n      jump\t// out\n        /* \"#utility.yul\":12836:13105   */\n    tag_128:\n        /* \"#utility.yul\":12946:12985   */\n      tag_282\n        /* \"#utility.yul\":12977:12984   */\n      dup4\n        /* \"#utility.yul\":12946:12985   */\n      tag_126\n      jump\t// in\n    tag_282:\n        /* \"#utility.yul\":13007:13098   */\n      tag_283\n        /* \"#utility.yul\":13056:13097   */\n      tag_284\n        /* \"#utility.yul\":13080:13096   */\n      dup3\n        /* \"#utility.yul\":13056:13097   */\n      tag_127\n      jump\t// in\n    tag_284:\n        /* \"#utility.yul\":13048:13054   */\n      dup5\n        /* \"#utility.yul\":13041:13045   */\n      dup5\n        /* \"#utility.yul\":13035:13046   */\n      sload\n        /* \"#utility.yul\":13007:13098   */\n      tag_125\n      jump\t// in\n    tag_283:\n        /* \"#utility.yul\":13001:13005   */\n      dup3\n        /* \"#utility.yul\":12994:13099   */\n      sstore\n        /* \"#utility.yul\":12912:13105   */\n      pop\n        /* \"#utility.yul\":12836:13105   */\n      pop\n      pop\n      pop\n      jump\t// out\n        /* \"#utility.yul\":13111:13184   */\n    tag_129:\n        /* \"#utility.yul\":13156:13159   */\n      0x00\n        /* \"#utility.yul\":13111:13184   */\n      swap1\n      jump\t// out\n        /* \"#utility.yul\":13190:13379   */\n    tag_130:\n        /* \"#utility.yul\":13267:13299   */\n      tag_287\n      tag_129\n      jump\t// in\n    tag_287:\n        /* \"#utility.yul\":13308:13373   */\n      tag_288\n        /* \"#utility.yul\":13366:13372   */\n      dup2\n        /* \"#utility.yul\":13358:13364   */\n      dup5\n        /* \"#utility.yul\":13352:13356   */\n      dup5\n        /* \"#utility.yul\":13308:13373   */\n      tag_128\n      jump\t// in\n    tag_288:\n        /* \"#utility.yul\":13243:13379   */\n      pop\n        /* \"#utility.yul\":13190:13379   */\n      pop\n      pop\n      jump\t// out\n        /* \"#utility.yul\":13385:13571   */\n    tag_131:\n        /* \"#utility.yul\":13445:13565   */\n    tag_290:\n        /* \"#utility.yul\":13462:13465   */\n      dup2\n        /* \"#utility.yul\":13455:13460   */\n      dup2\n        /* \"#utility.yul\":13452:13466   */\n      lt\n        /* \"#utility.yul\":13445:13565   */\n      iszero\n      tag_292\n      jumpi\n        /* \"#utility.yul\":13516:13555   */\n      tag_293\n        /* \"#utility.yul\":13553:13554   */\n      0x00\n        /* \"#utility.yul\":13546:13551   */\n      dup3\n        /* \"#utility.yul\":13516:13555   */\n      tag_130\n      jump\t// in\n    tag_293:\n        /* \"#utility.yul\":13489:13490   */\n      0x01\n        /* \"#utility.yul\":13482:13487   */\n      dup2\n        /* \"#utility.yul\":13478:13491   */\n      add\n        /* \"#utility.yul\":13469:13491   */\n      swap1\n      pop\n        /* \"#utility.yul\":13445:13565   */\n      jump(tag_290)\n    tag_292:\n        /* \"#utility.yul\":13385:13571   */\n      pop\n      pop\n      jump\t// out\n        /* \"#utility.yul\":13577:14120   */\n    tag_132:\n        /* \"#utility.yul\":13678:13680   */\n      0x1f\n        /* \"#utility.yul\":13673:13676   */\n      dup3\n        /* \"#utility.yul\":13670:13681   */\n      gt\n        /* \"#utility.yul\":13667:14113   */\n      iszero\n      tag_295\n      jumpi\n        /* \"#utility.yul\":13712:13750   */\n      tag_296\n        /* \"#utility.yul\":13744:13749   */\n      dup2\n        /* \"#utility.yul\":13712:13750   */\n      tag_122\n      jump\t// in\n    tag_296:\n        /* \"#utility.yul\":13796:13825   */\n      tag_297\n        /* \"#utility.yul\":13814:13824   */\n      dup5\n        /* \"#utility.yul\":13796:13825   */\n      tag_123\n      jump\t// in\n    tag_297:\n        /* \"#utility.yul\":13786:13794   */\n      dup2\n        /* \"#utility.yul\":13782:13826   */\n      add\n        /* \"#utility.yul\":13979:13981   */\n      0x20\n        /* \"#utility.yul\":13967:13977   */\n      dup6\n        /* \"#utility.yul\":13964:13982   */\n      lt\n        /* \"#utility.yul\":13961:14010   */\n      iszero\n      tag_298\n      jumpi\n        /* \"#utility.yul\":14000:14008   */\n      dup2\n        /* \"#utility.yul\":13985:14008   */\n      swap1\n      pop\n        /* \"#utility.yul\":13961:14010   */\n    tag_298:\n        /* \"#utility.yul\":14023:14103   */\n      tag_299\n        /* \"#utility.yul\":14079:14101   */\n      tag_300\n        /* \"#utility.yul\":14097:14100   */\n      dup6\n        /* \"#utility.yul\":14079:14101   */\n      tag_123\n      jump\t// in\n    tag_300:\n        /* \"#utility.yul\":14069:14077   */\n      dup4\n        /* \"#utility.yul\":14065:14102   */\n      add\n        /* \"#utility.yul\":14052:14063   */\n      dup3\n        /* \"#utility.yul\":14023:14103   */\n      tag_131\n      jump\t// in\n    tag_299:\n        /* \"#utility.yul\":13682:14113   */\n      pop\n      pop\n        /* \"#utility.yul\":13667:14113   */\n    tag_295:\n        /* \"#utility.yul\":13577:14120   */\n      pop\n      pop\n      pop\n      jump\t// out\n        /* \"#utility.yul\":14126:14243   */\n    tag_133:\n        /* \"#utility.yul\":14180:14188   */\n      0x00\n        /* \"#utility.yul\":14230:14235   */\n      dup3\n        /* \"#utility.yul\":14224:14228   */\n      dup3\n        /* \"#utility.yul\":14220:14236   */\n      shr\n        /* \"#utility.yul\":14199:14236   */\n      swap1\n      pop\n        /* \"#utility.yul\":14126:14243   */\n      swap3\n      swap2\n      pop\n      pop\n      jump\t// out\n        /* \"#utility.yul\":14249:14418   */\n    tag_134:\n        /* \"#utility.yul\":14293:14299   */\n      0x00\n        /* \"#utility.yul\":14326:14377   */\n      tag_303\n        /* \"#utility.yul\":14374:14375   */\n      0x00\n        /* \"#utility.yul\":14370:14376   */\n      not\n        /* \"#utility.yul\":14362:14367   */\n      dup5\n        /* \"#utility.yul\":14359:14360   */\n      0x08\n        /* \"#utility.yul\":14355:14368   */\n      mul\n        /* \"#utility.yul\":14326:14377   */\n      tag_133\n      jump\t// in\n    tag_303:\n        /* \"#utility.yul\":14322:14378   */\n      not\n        /* \"#utility.yul\":14407:14411   */\n      dup1\n        /* \"#utility.yul\":14401:14405   */\n      dup4\n        /* \"#utility.yul\":14397:14412   */\n      and\n        /* \"#utility.yul\":14387:14412   */\n      swap2\n      pop\n        /* \"#utility.yul\":14300:14418   */\n      pop\n        /* \"#utility.yul\":14249:14418   */\n      swap3\n      swap2\n      pop\n      pop\n      jump\t// out\n        /* \"#utility.yul\":14423:14718   */\n    tag_135:\n        /* \"#utility.yul\":14499:14503   */\n      0x00\n        /* \"#utility.yul\":14645:14674   */\n      tag_305\n        /* \"#utility.yul\":14670:14673   */\n      dup4\n        /* \"#utility.yul\":14664:14668   */\n      dup4\n        /* \"#utility.yul\":14645:14674   */\n      tag_134\n      jump\t// in\n    tag_305:\n        /* \"#utility.yul\":14637:14674   */\n      swap2\n      pop\n        /* \"#utility.yul\":14707:14710   */\n      dup3\n        /* \"#utility.yul\":14704:14705   */\n      0x02\n        /* \"#utility.yul\":14700:14711   */\n      mul\n        /* \"#utility.yul\":14694:14698   */\n      dup3\n        /* \"#utility.yul\":14691:14712   */\n      or\n        /* \"#utility.yul\":14683:14712   */\n      swap1\n      pop\n        /* \"#utility.yul\":14423:14718   */\n      swap3\n      swap2\n      pop\n      pop\n      jump\t// out\n        /* \"#utility.yul\":14723:16118   */\n    tag_49:\n        /* \"#utility.yul\":14840:14877   */\n      tag_307\n        /* \"#utility.yul\":14873:14876   */\n      dup3\n        /* \"#utility.yul\":14840:14877   */\n      tag_105\n      jump\t// in\n    tag_307:\n        /* \"#utility.yul\":14942:14960   */\n      0xffffffffffffffff\n        /* \"#utility.yul\":14934:14940   */\n      dup2\n        /* \"#utility.yul\":14931:14961   */\n      gt\n        /* \"#utility.yul\":14928:14984   */\n      iszero\n      tag_308\n      jumpi\n        /* \"#utility.yul\":14964:14982   */\n      tag_309\n      tag_98\n      jump\t// in\n    tag_309:\n        /* \"#utility.yul\":14928:14984   */\n    tag_308:\n        /* \"#utility.yul\":15008:15046   */\n      tag_310\n        /* \"#utility.yul\":15040:15044   */\n      dup3\n        /* \"#utility.yul\":15034:15045   */\n      sload\n        /* \"#utility.yul\":15008:15046   */\n      tag_53\n      jump\t// in\n    tag_310:\n        /* \"#utility.yul\":15093:15160   */\n      tag_311\n        /* \"#utility.yul\":15153:15159   */\n      dup3\n        /* \"#utility.yul\":15145:15151   */\n      dup3\n        /* \"#utility.yul\":15139:15143   */\n      dup6\n        /* \"#utility.yul\":15093:15160   */\n      tag_132\n      jump\t// in\n    tag_311:\n        /* \"#utility.yul\":15187:15188   */\n      0x00\n        /* \"#utility.yul\":15211:15215   */\n      0x20\n        /* \"#utility.yul\":15198:15215   */\n      swap1\n      pop\n        /* \"#utility.yul\":15243:15245   */\n      0x1f\n        /* \"#utility.yul\":15235:15241   */\n      dup4\n        /* \"#utility.yul\":15232:15246   */\n      gt\n        /* \"#utility.yul\":15260:15261   */\n      0x01\n        /* \"#utility.yul\":15255:15873   */\n      dup2\n      eq\n      tag_313\n      jumpi\n        /* \"#utility.yul\":15917:15918   */\n      0x00\n        /* \"#utility.yul\":15934:15940   */\n      dup5\n        /* \"#utility.yul\":15931:16008   */\n      iszero\n      tag_314\n      jumpi\n        /* \"#utility.yul\":15983:15992   */\n      dup3\n        /* \"#utility.yul\":15978:15981   */\n      dup8\n        /* \"#utility.yul\":15974:15993   */\n      add\n        /* \"#utility.yul\":15968:15994   */\n      mload\n        /* \"#utility.yul\":15959:15994   */\n      swap1\n      pop\n        /* \"#utility.yul\":15931:16008   */\n    tag_314:\n        /* \"#utility.yul\":16034:16101   */\n      tag_315\n        /* \"#utility.yul\":16094:16100   */\n      dup6\n        /* \"#utility.yul\":16087:16092   */\n      dup3\n        /* \"#utility.yul\":16034:16101   */\n      tag_135\n      jump\t// in\n    tag_315:\n        /* \"#utility.yul\":16028:16032   */\n      dup7\n        /* \"#utility.yul\":16021:16102   */\n      sstore\n        /* \"#utility.yul\":15890:16112   */\n      pop\n        /* \"#utility.yul\":15225:16112   */\n      jump(tag_312)\n        /* \"#utility.yul\":15255:15873   */\n    tag_313:\n        /* \"#utility.yul\":15307:15311   */\n      0x1f\n        /* \"#utility.yul\":15303:15312   */\n      not\n        /* \"#utility.yul\":15295:15301   */\n      dup5\n        /* \"#utility.yul\":15291:15313   */\n      and\n        /* \"#utility.yul\":15341:15378   */\n      tag_316\n        /* \"#utility.yul\":15373:15377   */\n      dup7\n        /* \"#utility.yul\":15341:15378   */\n      tag_122\n      jump\t// in\n    tag_316:\n        /* \"#utility.yul\":15400:15401   */\n      0x00\n        /* \"#utility.yul\":15414:15622   */\n    tag_317:\n        /* \"#utility.yul\":15428:15435   */\n      dup3\n        /* \"#utility.yul\":15425:15426   */\n      dup2\n        /* \"#utility.yul\":15422:15436   */\n      lt\n        /* \"#utility.yul\":15414:15622   */\n      iszero\n      tag_319\n      jumpi\n        /* \"#utility.yul\":15507:15516   */\n      dup5\n        /* \"#utility.yul\":15502:15505   */\n      dup10\n        /* \"#utility.yul\":15498:15517   */\n      add\n        /* \"#utility.yul\":15492:15518   */\n      mload\n        /* \"#utility.yul\":15484:15490   */\n      dup3\n        /* \"#utility.yul\":15477:15519   */\n      sstore\n        /* \"#utility.yul\":15558:15559   */\n      0x01\n        /* \"#utility.yul\":15550:15556   */\n      dup3\n        /* \"#utility.yul\":15546:15560   */\n      add\n        /* \"#utility.yul\":15536:15560   */\n      swap2\n      pop\n        /* \"#utility.yul\":15605:15607   */\n      0x20\n        /* \"#utility.yul\":15594:15603   */\n      dup6\n        /* \"#utility.yul\":15590:15608   */\n      add\n        /* \"#utility.yul\":15577:15608   */\n      swap5\n      pop\n        /* \"#utility.yul\":15451:15455   */\n      0x20\n        /* \"#utility.yul\":15448:15449   */\n      dup2\n        /* \"#utility.yul\":15444:15456   */\n      add\n        /* \"#utility.yul\":15439:15456   */\n      swap1\n      pop\n        /* \"#utility.yul\":15414:15622   */\n      jump(tag_317)\n    tag_319:\n        /* \"#utility.yul\":15650:15656   */\n      dup7\n        /* \"#utility.yul\":15641:15648   */\n      dup4\n        /* \"#utility.yul\":15638:15657   */\n      lt\n        /* \"#utility.yul\":15635:15814   */\n      iszero\n      tag_320\n      jumpi\n        /* \"#utility.yul\":15708:15717   */\n      dup5\n        /* \"#utility.yul\":15703:15706   */\n      dup10\n        /* \"#utility.yul\":15699:15718   */\n      add\n        /* \"#utility.yul\":15693:15719   */\n      mload\n        /* \"#utility.yul\":15751:15799   */\n      tag_321\n        /* \"#utility.yul\":15793:15797   */\n      0x1f\n        /* \"#utility.yul\":15785:15791   */\n      dup10\n        /* \"#utility.yul\":15781:15798   */\n      and\n        /* \"#utility.yul\":15770:15779   */\n      dup3\n        /* \"#utility.yul\":15751:15799   */\n      tag_134\n      jump\t// in\n    tag_321:\n        /* \"#utility.yul\":15743:15749   */\n      dup4\n        /* \"#utility.yul\":15736:15800   */\n      sstore\n        /* \"#utility.yul\":15658:15814   */\n      pop\n        /* \"#utility.yul\":15635:15814   */\n    tag_320:\n        /* \"#utility.yul\":15860:15861   */\n      0x01\n        /* \"#utility.yul\":15856:15857   */\n      0x02\n        /* \"#utility.yul\":15848:15854   */\n      dup9\n        /* \"#utility.yul\":15844:15858   */\n      mul\n        /* \"#utility.yul\":15840:15862   */\n      add\n        /* \"#utility.yul\":15834:15838   */\n      dup9\n        /* \"#utility.yul\":15827:15863   */\n      sstore\n        /* \"#utility.yul\":15262:15873   */\n      pop\n      pop\n      pop\n        /* \"#utility.yul\":15225:16112   */\n    tag_312:\n      pop\n        /* \"#utility.yul\":14815:16118   */\n      pop\n      pop\n      pop\n        /* \"#utility.yul\":14723:16118   */\n      pop\n      pop\n      jump\t// out\n        /* \"#utility.yul\":16124:16768   */\n    tag_51:\n        /* \"#utility.yul\":16321:16325   */\n      0x00\n        /* \"#utility.yul\":16359:16362   */\n      0x80\n        /* \"#utility.yul\":16348:16357   */\n      dup3\n        /* \"#utility.yul\":16344:16363   */\n      add\n        /* \"#utility.yul\":16336:16363   */\n      swap1\n      pop\n        /* \"#utility.yul\":16373:16444   */\n      tag_323\n        /* \"#utility.yul\":16441:16442   */\n      0x00\n        /* \"#utility.yul\":16430:16439   */\n      dup4\n        /* \"#utility.yul\":16426:16443   */\n      add\n        /* \"#utility.yul\":16417:16423   */\n      dup8\n        /* \"#utility.yul\":16373:16444   */\n      tag_109\n      jump\t// in\n    tag_323:\n        /* \"#utility.yul\":16491:16500   */\n      dup2\n        /* \"#utility.yul\":16485:16489   */\n      dup2\n        /* \"#utility.yul\":16481:16501   */\n      sub\n        /* \"#utility.yul\":16476:16478   */\n      0x20\n        /* \"#utility.yul\":16465:16474   */\n      dup4\n        /* \"#utility.yul\":16461:16479   */\n      add\n        /* \"#utility.yul\":16454:16502   */\n      mstore\n        /* \"#utility.yul\":16519:16597   */\n      tag_324\n        /* \"#utility.yul\":16592:16596   */\n      dup2\n        /* \"#utility.yul\":16583:16589   */\n      dup7\n        /* \"#utility.yul\":16519:16597   */\n      tag_108\n      jump\t// in\n    tag_324:\n        /* \"#utility.yul\":16511:16597   */\n      swap1\n      pop\n        /* \"#utility.yul\":16607:16679   */\n      tag_325\n        /* \"#utility.yul\":16675:16677   */\n      0x40\n        /* \"#utility.yul\":16664:16673   */\n      dup4\n        /* \"#utility.yul\":16660:16678   */\n      add\n        /* \"#utility.yul\":16651:16657   */\n      dup6\n        /* \"#utility.yul\":16607:16679   */\n      tag_88\n      jump\t// in\n    tag_325:\n        /* \"#utility.yul\":16689:16761   */\n      tag_326\n        /* \"#utility.yul\":16757:16759   */\n      0x60\n        /* \"#utility.yul\":16746:16755   */\n      dup4\n        /* \"#utility.yul\":16742:16760   */\n      add\n        /* \"#utility.yul\":16733:16739   */\n      dup5\n        /* \"#utility.yul\":16689:16761   */\n      tag_109\n      jump\t// in\n    tag_326:\n        /* \"#utility.yul\":16124:16768   */\n      swap6\n      swap5\n      pop\n      pop\n      pop\n      pop\n      pop\n      jump\t// out\n        /* \"#utility.yul\":16774:16948   */\n    tag_136:\n        /* \"#utility.yul\":16914:16940   */\n      0x43616c6c6572206973206e6f74207468652073656c6c65720000000000000000\n        /* \"#utility.yul\":16910:16911   */\n      0x00\n        /* \"#utility.yul\":16902:16908   */\n      dup3\n        /* \"#utility.yul\":16898:16912   */\n      add\n        /* \"#utility.yul\":16891:16941   */\n      mstore\n        /* \"#utility.yul\":16774:16948   */\n      pop\n      jump\t// out\n        /* \"#utility.yul\":16954:17320   */\n    tag_137:\n        /* \"#utility.yul\":17096:17099   */\n      0x00\n        /* \"#utility.yul\":17117:17184   */\n      tag_329\n        /* \"#utility.yul\":17181:17183   */\n      0x18\n        /* \"#utility.yul\":17176:17179   */\n      dup4\n        /* \"#utility.yul\":17117:17184   */\n      tag_106\n      jump\t// in\n    tag_329:\n        /* \"#utility.yul\":17110:17184   */\n      swap2\n      pop\n        /* \"#utility.yul\":17193:17286   */\n      tag_330\n        /* \"#utility.yul\":17282:17285   */\n      dup3\n        /* \"#utility.yul\":17193:17286   */\n      tag_136\n      jump\t// in\n    tag_330:\n        /* \"#utility.yul\":17311:17313   */\n      0x20\n        /* \"#utility.yul\":17306:17309   */\n      dup3\n        /* \"#utility.yul\":17302:17314   */\n      add\n        /* \"#utility.yul\":17295:17314   */\n      swap1\n      pop\n        /* \"#utility.yul\":16954:17320   */\n      swap2\n      swap1\n      pop\n      jump\t// out\n        /* \"#utility.yul\":17326:17745   */\n    tag_61:\n        /* \"#utility.yul\":17492:17496   */\n      0x00\n        /* \"#utility.yul\":17530:17532   */\n      0x20\n        /* \"#utility.yul\":17519:17528   */\n      dup3\n        /* \"#utility.yul\":17515:17533   */\n      add\n        /* \"#utility.yul\":17507:17533   */\n      swap1\n      pop\n        /* \"#utility.yul\":17579:17588   */\n      dup2\n        /* \"#utility.yul\":17573:17577   */\n      dup2\n        /* \"#utility.yul\":17569:17589   */\n      sub\n        /* \"#utility.yul\":17565:17566   */\n      0x00\n        /* \"#utility.yul\":17554:17563   */\n      dup4\n        /* \"#utility.yul\":17550:17567   */\n      add\n        /* \"#utility.yul\":17543:17590   */\n      mstore\n        /* \"#utility.yul\":17607:17738   */\n      tag_332\n        /* \"#utility.yul\":17733:17737   */\n      dup2\n        /* \"#utility.yul\":17607:17738   */\n      tag_137\n      jump\t// in\n    tag_332:\n        /* \"#utility.yul\":17599:17738   */\n      swap1\n      pop\n        /* \"#utility.yul\":17326:17745   */\n      swap2\n      swap1\n      pop\n      jump\t// out\n        /* \"#utility.yul\":17751:17919   */\n    tag_138:\n        /* \"#utility.yul\":17891:17911   */\n      0x53616c65206973206e6f74206163746976650000000000000000000000000000\n        /* \"#utility.yul\":17887:17888   */\n      0x00\n        /* \"#utility.yul\":17879:17885   */\n      dup3\n        /* \"#utility.yul\":17875:17889   */\n      add\n        /* \"#utility.yul\":17868:17912   */\n      mstore\n        /* \"#utility.yul\":17751:17919   */\n      pop\n      jump\t// out\n        /* \"#utility.yul\":17925:18291   */\n    tag_139:\n        /* \"#utility.yul\":18067:18070   */\n      0x00\n        /* \"#utility.yul\":18088:18155   */\n      tag_335\n        /* \"#utility.yul\":18152:18154   */\n      0x12\n        /* \"#utility.yul\":18147:18150   */\n      dup4\n        /* \"#utility.yul\":18088:18155   */\n      tag_106\n      jump\t// in\n    tag_335:\n        /* \"#utility.yul\":18081:18155   */\n      swap2\n      pop\n        /* \"#utility.yul\":18164:18257   */\n      tag_336\n        /* \"#utility.yul\":18253:18256   */\n      dup3\n        /* \"#utility.yul\":18164:18257   */\n      tag_138\n      jump\t// in\n    tag_336:\n        /* \"#utility.yul\":18282:18284   */\n      0x20\n        /* \"#utility.yul\":18277:18280   */\n      dup3\n        /* \"#utility.yul\":18273:18285   */\n      add\n        /* \"#utility.yul\":18266:18285   */\n      swap1\n      pop\n        /* \"#utility.yul\":17925:18291   */\n      swap2\n      swap1\n      pop\n      jump\t// out\n        /* \"#utility.yul\":18297:18716   */\n    tag_65:\n        /* \"#utility.yul\":18463:18467   */\n      0x00\n        /* \"#utility.yul\":18501:18503   */\n      0x20\n        /* \"#utility.yul\":18490:18499   */\n      dup3\n        /* \"#utility.yul\":18486:18504   */\n      add\n        /* \"#utility.yul\":18478:18504   */\n      swap1\n      pop\n        /* \"#utility.yul\":18550:18559   */\n      dup2\n        /* \"#utility.yul\":18544:18548   */\n      dup2\n        /* \"#utility.yul\":18540:18560   */\n      sub\n        /* \"#utility.yul\":18536:18537   */\n      0x00\n        /* \"#utility.yul\":18525:18534   */\n      dup4\n        /* \"#utility.yul\":18521:18538   */\n      add\n        /* \"#utility.yul\":18514:18561   */\n      mstore\n        /* \"#utility.yul\":18578:18709   */\n      tag_338\n        /* \"#utility.yul\":18704:18708   */\n      dup2\n        /* \"#utility.yul\":18578:18709   */\n      tag_139\n      jump\t// in\n    tag_338:\n        /* \"#utility.yul\":18570:18709   */\n      swap1\n      pop\n        /* \"#utility.yul\":18297:18716   */\n      swap2\n      swap1\n      pop\n      jump\t// out\n        /* \"#utility.yul\":18722:18885   */\n    tag_140:\n        /* \"#utility.yul\":18862:18877   */\n      0x496e76616c696420627579657200000000000000000000000000000000000000\n        /* \"#utility.yul\":18858:18859   */\n      0x00\n        /* \"#utility.yul\":18850:18856   */\n      dup3\n        /* \"#utility.yul\":18846:18860   */\n      add\n        /* \"#utility.yul\":18839:18878   */\n      mstore\n        /* \"#utility.yul\":18722:18885   */\n      pop\n      jump\t// out\n        /* \"#utility.yul\":18891:19257   */\n    tag_141:\n        /* \"#utility.yul\":19033:19036   */\n      0x00\n        /* \"#utility.yul\":19054:19121   */\n      tag_341\n        /* \"#utility.yul\":19118:19120   */\n      0x0d\n        /* \"#utility.yul\":19113:19116   */\n      dup4\n        /* \"#utility.yul\":19054:19121   */\n      tag_106\n      jump\t// in\n    tag_341:\n        /* \"#utility.yul\":19047:19121   */\n      swap2\n      pop\n        /* \"#utility.yul\":19130:19223   */\n      tag_342\n        /* \"#utility.yul\":19219:19222   */\n      dup3\n        /* \"#utility.yul\":19130:19223   */\n      tag_140\n      jump\t// in\n    tag_342:\n        /* \"#utility.yul\":19248:19250   */\n      0x20\n        /* \"#utility.yul\":19243:19246   */\n      dup3\n        /* \"#utility.yul\":19239:19251   */\n      add\n        /* \"#utility.yul\":19232:19251   */\n      swap1\n      pop\n        /* \"#utility.yul\":18891:19257   */\n      swap2\n      swap1\n      pop\n      jump\t// out\n        /* \"#utility.yul\":19263:19682   */\n    tag_68:\n        /* \"#utility.yul\":19429:19433   */\n      0x00\n        /* \"#utility.yul\":19467:19469   */\n      0x20\n        /* \"#utility.yul\":19456:19465   */\n      dup3\n        /* \"#utility.yul\":19452:19470   */\n      add\n        /* \"#utility.yul\":19444:19470   */\n      swap1\n      pop\n        /* \"#utility.yul\":19516:19525   */\n      dup2\n        /* \"#utility.yul\":19510:19514   */\n      dup2\n        /* \"#utility.yul\":19506:19526   */\n      sub\n        /* \"#utility.yul\":19502:19503   */\n      0x00\n        /* \"#utility.yul\":19491:19500   */\n      dup4\n        /* \"#utility.yul\":19487:19504   */\n      add\n        /* \"#utility.yul\":19480:19527   */\n      mstore\n        /* \"#utility.yul\":19544:19675   */\n      tag_344\n        /* \"#utility.yul\":19670:19674   */\n      dup2\n        /* \"#utility.yul\":19544:19675   */\n      tag_141\n      jump\t// in\n    tag_344:\n        /* \"#utility.yul\":19536:19675   */\n      swap1\n      pop\n        /* \"#utility.yul\":19263:19682   */\n      swap2\n      swap1\n      pop\n      jump\t// out\n        /* \"#utility.yul\":19688:20130   */\n    tag_70:\n        /* \"#utility.yul\":19837:19841   */\n      0x00\n        /* \"#utility.yul\":19875:19877   */\n      0x60\n        /* \"#utility.yul\":19864:19873   */\n      dup3\n        /* \"#utility.yul\":19860:19878   */\n      add\n        /* \"#utility.yul\":19852:19878   */\n      swap1\n      pop\n        /* \"#utility.yul\":19888:19959   */\n      tag_346\n        /* \"#utility.yul\":19956:19957   */\n      0x00\n        /* \"#utility.yul\":19945:19954   */\n      dup4\n        /* \"#utility.yul\":19941:19958   */\n      add\n        /* \"#utility.yul\":19932:19938   */\n      dup7\n        /* \"#utility.yul\":19888:19959   */\n      tag_88\n      jump\t// in\n    tag_346:\n        /* \"#utility.yul\":19969:20041   */\n      tag_347\n        /* \"#utility.yul\":20037:20039   */\n      0x20\n        /* \"#utility.yul\":20026:20035   */\n      dup4\n        /* \"#utility.yul\":20022:20040   */\n      add\n        /* \"#utility.yul\":20013:20019   */\n      dup6\n        /* \"#utility.yul\":19969:20041   */\n      tag_88\n      jump\t// in\n    tag_347:\n        /* \"#utility.yul\":20051:20123   */\n      tag_348\n        /* \"#utility.yul\":20119:20121   */\n      0x40\n        /* \"#utility.yul\":20108:20117   */\n      dup4\n        /* \"#utility.yul\":20104:20122   */\n      add\n        /* \"#utility.yul\":20095:20101   */\n      dup5\n        /* \"#utility.yul\":20051:20123   */\n      tag_109\n      jump\t// in\n    tag_348:\n        /* \"#utility.yul\":19688:20130   */\n      swap5\n      swap4\n      pop\n      pop\n      pop\n      pop\n      jump\t// out\n        /* \"#utility.yul\":20136:20468   */\n    tag_75:\n        /* \"#utility.yul\":20257:20261   */\n      0x00\n        /* \"#utility.yul\":20295:20297   */\n      0x40\n        /* \"#utility.yul\":20284:20293   */\n      dup3\n        /* \"#utility.yul\":20280:20298   */\n      add\n        /* \"#utility.yul\":20272:20298   */\n      swap1\n      pop\n        /* \"#utility.yul\":20308:20379   */\n      tag_350\n        /* \"#utility.yul\":20376:20377   */\n      0x00\n        /* \"#utility.yul\":20365:20374   */\n      dup4\n        /* \"#utility.yul\":20361:20378   */\n      add\n        /* \"#utility.yul\":20352:20358   */\n      dup6\n        /* \"#utility.yul\":20308:20379   */\n      tag_109\n      jump\t// in\n    tag_350:\n        /* \"#utility.yul\":20389:20461   */\n      tag_351\n        /* \"#utility.yul\":20457:20459   */\n      0x20\n        /* \"#utility.yul\":20446:20455   */\n      dup4\n        /* \"#utility.yul\":20442:20460   */\n      add\n        /* \"#utility.yul\":20433:20439   */\n      dup5\n        /* \"#utility.yul\":20389:20461   */\n      tag_88\n      jump\t// in\n    tag_351:\n        /* \"#utility.yul\":20136:20468   */\n      swap4\n      swap3\n      pop\n      pop\n      pop\n      jump\t// out\n        /* \"#utility.yul\":20498:21329   */\n    tag_142:\n        /* \"#utility.yul\":20583:20586   */\n      0x00\n        /* \"#utility.yul\":20620:20625   */\n      dup2\n        /* \"#utility.yul\":20614:20626   */\n      sload\n        /* \"#utility.yul\":20649:20685   */\n      tag_353\n        /* \"#utility.yul\":20675:20684   */\n      dup2\n        /* \"#utility.yul\":20649:20685   */\n      tag_53\n      jump\t// in\n    tag_353:\n        /* \"#utility.yul\":20701:20772   */\n      tag_354\n        /* \"#utility.yul\":20765:20771   */\n      dup2\n        /* \"#utility.yul\":20760:20763   */\n      dup7\n        /* \"#utility.yul\":20701:20772   */\n      tag_106\n      jump\t// in\n    tag_354:\n        /* \"#utility.yul\":20694:20772   */\n      swap5\n      pop\n        /* \"#utility.yul\":20803:20804   */\n      0x01\n        /* \"#utility.yul\":20792:20801   */\n      dup3\n        /* \"#utility.yul\":20788:20805   */\n      and\n        /* \"#utility.yul\":20819:20820   */\n      0x00\n        /* \"#utility.yul\":20814:20978   */\n      dup2\n      eq\n      tag_356\n      jumpi\n        /* \"#utility.yul\":20992:20993   */\n      0x01\n        /* \"#utility.yul\":20987:21323   */\n      dup2\n      eq\n      tag_357\n      jumpi\n        /* \"#utility.yul\":20781:21323   */\n      jump(tag_355)\n        /* \"#utility.yul\":20814:20978   */\n    tag_356:\n        /* \"#utility.yul\":20898:20902   */\n      0xff\n        /* \"#utility.yul\":20894:20903   */\n      not\n        /* \"#utility.yul\":20883:20892   */\n      dup4\n        /* \"#utility.yul\":20879:20904   */\n      and\n        /* \"#utility.yul\":20874:20877   */\n      dup7\n        /* \"#utility.yul\":20867:20905   */\n      mstore\n        /* \"#utility.yul\":20958:20964   */\n      dup2\n        /* \"#utility.yul\":20951:20965   */\n      iszero\n        /* \"#utility.yul\":20944:20966   */\n      iszero\n        /* \"#utility.yul\":20938:20942   */\n      0x20\n        /* \"#utility.yul\":20934:20967   */\n      mul\n        /* \"#utility.yul\":20929:20932   */\n      dup7\n        /* \"#utility.yul\":20925:20968   */\n      add\n        /* \"#utility.yul\":20918:20968   */\n      swap4\n      pop\n        /* \"#utility.yul\":20814:20978   */\n      jump(tag_355)\n        /* \"#utility.yul\":20987:21323   */\n    tag_357:\n        /* \"#utility.yul\":21054:21092   */\n      tag_358\n        /* \"#utility.yul\":21086:21091   */\n      dup6\n        /* \"#utility.yul\":21054:21092   */\n      tag_122\n      jump\t// in\n    tag_358:\n        /* \"#utility.yul\":21114:21115   */\n      0x00\n        /* \"#utility.yul\":21128:21282   */\n    tag_359:\n        /* \"#utility.yul\":21142:21148   */\n      dup4\n        /* \"#utility.yul\":21139:21140   */\n      dup2\n        /* \"#utility.yul\":21136:21149   */\n      lt\n        /* \"#utility.yul\":21128:21282   */\n      iszero\n      tag_361\n      jumpi\n        /* \"#utility.yul\":21216:21223   */\n      dup2\n        /* \"#utility.yul\":21210:21224   */\n      sload\n        /* \"#utility.yul\":21206:21207   */\n      dup2\n        /* \"#utility.yul\":21201:21204   */\n      dup10\n        /* \"#utility.yul\":21197:21208   */\n      add\n        /* \"#utility.yul\":21190:21225   */\n      mstore\n        /* \"#utility.yul\":21266:21267   */\n      0x01\n        /* \"#utility.yul\":21257:21264   */\n      dup3\n        /* \"#utility.yul\":21253:21268   */\n      add\n        /* \"#utility.yul\":21242:21268   */\n      swap2\n      pop\n        /* \"#utility.yul\":21164:21168   */\n      0x20\n        /* \"#utility.yul\":21161:21162   */\n      dup2\n        /* \"#utility.yul\":21157:21169   */\n      add\n        /* \"#utility.yul\":21152:21169   */\n      swap1\n      pop\n        /* \"#utility.yul\":21128:21282   */\n      jump(tag_359)\n    tag_361:\n        /* \"#utility.yul\":21311:21312   */\n      dup1\n        /* \"#utility.yul\":21306:21309   */\n      dup9\n        /* \"#utility.yul\":21302:21313   */\n      add\n        /* \"#utility.yul\":21295:21313   */\n      swap6\n      pop\n        /* \"#utility.yul\":20994:21323   */\n      pop\n      pop\n        /* \"#utility.yul\":20781:21323   */\n    tag_355:\n      pop\n        /* \"#utility.yul\":20587:21329   */\n      pop\n      pop\n        /* \"#utility.yul\":20498:21329   */\n      swap3\n      swap2\n      pop\n      pop\n      jump\t// out\n        /* \"#utility.yul\":21335:22084   */\n    tag_80:\n        /* \"#utility.yul\":21557:21561   */\n      0x00\n        /* \"#utility.yul\":21595:21598   */\n      0xa0\n        /* \"#utility.yul\":21584:21593   */\n      dup3\n        /* \"#utility.yul\":21580:21599   */\n      add\n        /* \"#utility.yul\":21572:21599   */\n      swap1\n      pop\n        /* \"#utility.yul\":21609:21680   */\n      tag_363\n        /* \"#utility.yul\":21677:21678   */\n      0x00\n        /* \"#utility.yul\":21666:21675   */\n      dup4\n        /* \"#utility.yul\":21662:21679   */\n      add\n        /* \"#utility.yul\":21653:21659   */\n      dup9\n        /* \"#utility.yul\":21609:21680   */\n      tag_109\n      jump\t// in\n    tag_363:\n        /* \"#utility.yul\":21727:21736   */\n      dup2\n        /* \"#utility.yul\":21721:21725   */\n      dup2\n        /* \"#utility.yul\":21717:21737   */\n      sub\n        /* \"#utility.yul\":21712:21714   */\n      0x20\n        /* \"#utility.yul\":21701:21710   */\n      dup4\n        /* \"#utility.yul\":21697:21715   */\n      add\n        /* \"#utility.yul\":21690:21738   */\n      mstore\n        /* \"#utility.yul\":21755:21830   */\n      tag_364\n        /* \"#utility.yul\":21825:21829   */\n      dup2\n        /* \"#utility.yul\":21816:21822   */\n      dup8\n        /* \"#utility.yul\":21755:21830   */\n      tag_142\n      jump\t// in\n    tag_364:\n        /* \"#utility.yul\":21747:21830   */\n      swap1\n      pop\n        /* \"#utility.yul\":21840:21912   */\n      tag_365\n        /* \"#utility.yul\":21908:21910   */\n      0x40\n        /* \"#utility.yul\":21897:21906   */\n      dup4\n        /* \"#utility.yul\":21893:21911   */\n      add\n        /* \"#utility.yul\":21884:21890   */\n      dup7\n        /* \"#utility.yul\":21840:21912   */\n      tag_88\n      jump\t// in\n    tag_365:\n        /* \"#utility.yul\":21922:21994   */\n      tag_366\n        /* \"#utility.yul\":21990:21992   */\n      0x60\n        /* \"#utility.yul\":21979:21988   */\n      dup4\n        /* \"#utility.yul\":21975:21993   */\n      add\n        /* \"#utility.yul\":21966:21972   */\n      dup6\n        /* \"#utility.yul\":21922:21994   */\n      tag_88\n      jump\t// in\n    tag_366:\n        /* \"#utility.yul\":22004:22077   */\n      tag_367\n        /* \"#utility.yul\":22072:22075   */\n      0x80\n        /* \"#utility.yul\":22061:22070   */\n      dup4\n        /* \"#utility.yul\":22057:22076   */\n      add\n        /* \"#utility.yul\":22048:22054   */\n      dup5\n        /* \"#utility.yul\":22004:22077   */\n      tag_109\n      jump\t// in\n    tag_367:\n        /* \"#utility.yul\":21335:22084   */\n      swap7\n      swap6\n      pop\n      pop\n      pop\n      pop\n      pop\n      pop\n      jump\t// out\n\n    auxdata: 0xa26469706673582212203d2bdab0a2cc09e3546c234110fa55ddbcba19eadfc03428fd88872f5643f6c164736f6c634300081a0033\n}\n",
				"bytecode": {
					"linkReferences": {},
					"object": "608060405234801561000f575f80fd5b5060405161148b38038061148b83398181016040528101906100319190610155565b335f806101000a81548173ffffffffffffffffffffffffffffffffffffffff021916908373ffffffffffffffffffffffffffffffffffffffff1602179055508160015f6101000a81548173ffffffffffffffffffffffffffffffffffffffff021916908373ffffffffffffffffffffffffffffffffffffffff1602179055508060025f6101000a81548173ffffffffffffffffffffffffffffffffffffffff021916908373ffffffffffffffffffffffffffffffffffffffff1602179055505050610193565b5f80fd5b5f73ffffffffffffffffffffffffffffffffffffffff82169050919050565b5f610124826100fb565b9050919050565b6101348161011a565b811461013e575f80fd5b50565b5f8151905061014f8161012b565b92915050565b5f806040838503121561016b5761016a6100f7565b5b5f61017885828601610141565b925050602061018985828601610141565b9150509250929050565b6112eb806101a05f395ff3fe608060405234801561000f575f80fd5b5060043610610060575f3560e01c806347ccca02146100645780637475428214610082578063a08b37a8146100a0578063b5f522f7146100bc578063b7760c8f146100ef578063d8de65871461010b575b5f80fd5b61006c610129565b6040516100799190610839565b60405180910390f35b61008a61014e565b6040516100979190610872565b60405180910390f35b6100ba60048036038101906100b59190610a0b565b610171565b005b6100d660048036038101906100d19190610a77565b6103cd565b6040516100e69493929190610b2b565b60405180910390f35b61010960048036038101906101049190610b9f565b6104ab565b005b61011361079a565b6040516101209190610bfd565b60405180910390f35b60015f9054906101000a900473ffffffffffffffffffffffffffffffffffffffff1681565b5f8054906101000a900473ffffffffffffffffffffffffffffffffffffffff1681565b3373ffffffffffffffffffffffffffffffffffffffff1660015f9054906101000a900473ffffffffffffffffffffffffffffffffffffffff1673ffffffffffffffffffffffffffffffffffffffff16636352211e856040518263ffffffff1660e01b81526004016101e29190610c16565b602060405180830381865afa1580156101fd573d5f803e3d5ffd5b505050506040513d601f19601f820116820180604052508101906102219190610c43565b73ffffffffffffffffffffffffffffffffffffffff1614610277576040517f08c379a000000000000000000000000000000000000000000000000000000000815260040161026e90610cb8565b60405180910390fd5b5f81116102b9576040517f08c379a00000000000000000000000000000000000000000000000000000000081526004016102b090610d20565b60405180910390fd5b60405180608001604052808381526020018281526020016001151581526020013373ffffffffffffffffffffffffffffffffffffffff1681525060035f8581526020019081526020015f205f820151815f0190816103179190610f2f565b50602082015181600101556040820151816002015f6101000a81548160ff02191690831515021790555060608201518160020160016101000a81548173ffffffffffffffffffffffffffffffffffffffff021916908373ffffffffffffffffffffffffffffffffffffffff1602179055509050507f986df755bf08bd645e6e79d6fc7088a1d3f1f84ac7ded45a129e9c4690c29b64838333846040516103c09493929190610ffe565b60405180910390a1505050565b6003602052805f5260405f205f91509050805f0180546103ec90610d6b565b80601f016020809104026020016040519081016040528092919081815260200182805461041890610d6b565b80156104635780601f1061043a57610100808354040283529160200191610463565b820191905f5260205f20905b81548152906001019060200180831161044657829003601f168201915b505050505090806001015490806002015f9054906101000a900460ff16908060020160019054906101000a900473ffffffffffffffffffffffffffffffffffffffff16905084565b813373ffffffffffffffffffffffffffffffffffffffff1660035f8381526020019081526020015f2060020160019054906101000a900473ffffffffffffffffffffffffffffffffffffffff1673ffffffffffffffffffffffffffffffffffffffff161461054e576040517f08c379a000000000000000000000000000000000000000000000000000000000815260040161054590611092565b60405180910390fd5b5f60035f8581526020019081526020015f209050806002015f9054906101000a900460ff166105b2576040517f08c379a00000000000000000000000000000000000000000000000000000000081526004016105a9906110fa565b60405180910390fd5b5f73ffffffffffffffffffffffffffffffffffffffff168373ffffffffffffffffffffffffffffffffffffffff1603610620576040517f08c379a000000000000000000000000000000000000000000000000000000000815260040161061790611162565b60405180910390fd5b60015f9054906101000a900473ffffffffffffffffffffffffffffffffffffffff1673ffffffffffffffffffffffffffffffffffffffff166323b872dd3385876040518463ffffffff1660e01b815260040161067e93929190611180565b5f604051808303815f87803b158015610695575f80fd5b505af11580156106a7573d5f803e3d5ffd5b5050505060025f9054906101000a900473ffffffffffffffffffffffffffffffffffffffff1673ffffffffffffffffffffffffffffffffffffffff166329507f7385856040518363ffffffff1660e01b81526004016107079291906111b5565b5f604051808303815f87803b15801561071e575f80fd5b505af1158015610730573d5f803e3d5ffd5b505050505f816002015f6101000a81548160ff0219169083151502179055507fce8b3c5812d057ce2ac6151b274d80541ab26e165ef98765474e54b7dac7ce0884825f013386856001015460405161078c95949392919061125d565b60405180910390a150505050565b60025f9054906101000a900473ffffffffffffffffffffffffffffffffffffffff1681565b5f73ffffffffffffffffffffffffffffffffffffffff82169050919050565b5f819050919050565b5f6108016107fc6107f7846107bf565b6107de565b6107bf565b9050919050565b5f610812826107e7565b9050919050565b5f61082382610808565b9050919050565b61083381610819565b82525050565b5f60208201905061084c5f83018461082a565b92915050565b5f61085c826107bf565b9050919050565b61086c81610852565b82525050565b5f6020820190506108855f830184610863565b92915050565b5f604051905090565b5f80fd5b5f80fd5b5f819050919050565b6108ae8161089c565b81146108b8575f80fd5b50565b5f813590506108c9816108a5565b92915050565b5f80fd5b5f80fd5b5f601f19601f8301169050919050565b7f4e487b71000000000000000000000000000000000000000000000000000000005f52604160045260245ffd5b61091d826108d7565b810181811067ffffffffffffffff8211171561093c5761093b6108e7565b5b80604052505050565b5f61094e61088b565b905061095a8282610914565b919050565b5f67ffffffffffffffff821115610979576109786108e7565b5b610982826108d7565b9050602081019050919050565b828183375f83830152505050565b5f6109af6109aa8461095f565b610945565b9050828152602081018484840111156109cb576109ca6108d3565b5b6109d684828561098f565b509392505050565b5f82601f8301126109f2576109f16108cf565b5b8135610a0284826020860161099d565b91505092915050565b5f805f60608486031215610a2257610a21610894565b5b5f610a2f868287016108bb565b935050602084013567ffffffffffffffff811115610a5057610a4f610898565b5b610a5c868287016109de565b9250506040610a6d868287016108bb565b9150509250925092565b5f60208284031215610a8c57610a8b610894565b5b5f610a99848285016108bb565b91505092915050565b5f81519050919050565b5f82825260208201905092915050565b8281835e5f83830152505050565b5f610ad482610aa2565b610ade8185610aac565b9350610aee818560208601610abc565b610af7816108d7565b840191505092915050565b610b0b8161089c565b82525050565b5f8115159050919050565b610b2581610b11565b82525050565b5f6080820190508181035f830152610b438187610aca565b9050610b526020830186610b02565b610b5f6040830185610b1c565b610b6c6060830184610863565b95945050505050565b610b7e81610852565b8114610b88575f80fd5b50565b5f81359050610b9981610b75565b92915050565b5f8060408385031215610bb557610bb4610894565b5b5f610bc2858286016108bb565b9250506020610bd385828601610b8b565b9150509250929050565b5f610be782610808565b9050919050565b610bf781610bdd565b82525050565b5f602082019050610c105f830184610bee565b92915050565b5f602082019050610c295f830184610b02565b92915050565b5f81519050610c3d81610b75565b92915050565b5f60208284031215610c5857610c57610894565b5b5f610c6584828501610c2f565b91505092915050565b7f4e6f74206f776e657200000000000000000000000000000000000000000000005f82015250565b5f610ca2600983610aac565b9150610cad82610c6e565b602082019050919050565b5f6020820190508181035f830152610ccf81610c96565b9050919050565b7f496e76616c6964207072696365000000000000000000000000000000000000005f82015250565b5f610d0a600d83610aac565b9150610d1582610cd6565b602082019050919050565b5f6020820190508181035f830152610d3781610cfe565b9050919050565b7f4e487b71000000000000000000000000000000000000000000000000000000005f52602260045260245ffd5b5f6002820490506001821680610d8257607f821691505b602082108103610d9557610d94610d3e565b5b50919050565b5f819050815f5260205f209050919050565b5f6020601f8301049050919050565b5f82821b905092915050565b5f60088302610df77fffffffffffffffffffffffffffffffffffffffffffffffffffffffffffffffff82610dbc565b610e018683610dbc565b95508019841693508086168417925050509392505050565b5f610e33610e2e610e298461089c565b6107de565b61089c565b9050919050565b5f819050919050565b610e4c83610e19565b610e60610e5882610e3a565b848454610dc8565b825550505050565b5f90565b610e74610e68565b610e7f818484610e43565b505050565b5b81811015610ea257610e975f82610e6c565b600181019050610e85565b5050565b601f821115610ee757610eb881610d9b565b610ec184610dad565b81016020851015610ed0578190505b610ee4610edc85610dad565b830182610e84565b50505b505050565b5f82821c905092915050565b5f610f075f1984600802610eec565b1980831691505092915050565b5f610f1f8383610ef8565b9150826002028217905092915050565b610f3882610aa2565b67ffffffffffffffff811115610f5157610f506108e7565b5b610f5b8254610d6b565b610f66828285610ea6565b5f60209050601f831160018114610f97575f8415610f85578287015190505b610f8f8582610f14565b865550610ff6565b601f198416610fa586610d9b565b5f5b82811015610fcc57848901518255600182019150602085019450602081019050610fa7565b86831015610fe95784890151610fe5601f891682610ef8565b8355505b6001600288020188555050505b505050505050565b5f6080820190506110115f830187610b02565b81810360208301526110238186610aca565b90506110326040830185610863565b61103f6060830184610b02565b95945050505050565b7f43616c6c6572206973206e6f74207468652073656c6c657200000000000000005f82015250565b5f61107c601883610aac565b915061108782611048565b602082019050919050565b5f6020820190508181035f8301526110a981611070565b9050919050565b7f53616c65206973206e6f742061637469766500000000000000000000000000005f82015250565b5f6110e4601283610aac565b91506110ef826110b0565b602082019050919050565b5f6020820190508181035f830152611111816110d8565b9050919050565b7f496e76616c6964206275796572000000000000000000000000000000000000005f82015250565b5f61114c600d83610aac565b915061115782611118565b602082019050919050565b5f6020820190508181035f83015261117981611140565b9050919050565b5f6060820190506111935f830186610863565b6111a06020830185610863565b6111ad6040830184610b02565b949350505050565b5f6040820190506111c85f830185610b02565b6111d56020830184610863565b9392505050565b5f81546111e881610d6b565b6111f28186610aac565b9450600182165f811461120c576001811461122257611254565b60ff198316865281151560200286019350611254565b61122b85610d9b565b5f5b8381101561124c5781548189015260018201915060208101905061122d565b808801955050505b50505092915050565b5f60a0820190506112705f830188610b02565b818103602083015261128281876111dc565b90506112916040830186610863565b61129e6060830185610863565b6112ab6080830184610b02565b969550505050505056fea26469706673582212203d2bdab0a2cc09e3546c234110fa55ddbcba19eadfc03428fd88872f5643f6c164736f6c634300081a0033",
					"opcodes": "PUSH1 0x80 PUSH1 0x40 MSTORE CALLVALUE DUP1 ISZERO PUSH2 0xF JUMPI PUSH0 DUP1 REVERT JUMPDEST POP PUSH1 0x40 MLOAD PUSH2 0x148B CODESIZE SUB DUP1 PUSH2 0x148B DUP4 CODECOPY DUP2 DUP2 ADD PUSH1 0x40 MSTORE DUP2 ADD SWAP1 PUSH2 0x31 SWAP2 SWAP1 PUSH2 0x155 JUMP JUMPDEST CALLER PUSH0 DUP1 PUSH2 0x100 EXP DUP2 SLOAD DUP2 PUSH20 0xFFFFFFFFFFFFFFFFFFFFFFFFFFFFFFFFFFFFFFFF MUL NOT AND SWAP1 DUP4 PUSH20 0xFFFFFFFFFFFFFFFFFFFFFFFFFFFFFFFFFFFFFFFF AND MUL OR SWAP1 SSTORE POP DUP2 PUSH1 0x1 PUSH0 PUSH2 0x100 EXP DUP2 SLOAD DUP2 PUSH20 0xFFFFFFFFFFFFFFFFFFFFFFFFFFFFFFFFFFFFFFFF MUL NOT AND SWAP1 DUP4 PUSH20 0xFFFFFFFFFFFFFFFFFFFFFFFFFFFFFFFFFFFFFFFF AND MUL OR SWAP1 SSTORE POP DUP1 PUSH1 0x2 PUSH0 PUSH2 0x100 EXP DUP2 SLOAD DUP2 PUSH20 0xFFFFFFFFFFFFFFFFFFFFFFFFFFFFFFFFFFFFFFFF MUL NOT AND SWAP1 DUP4 PUSH20 0xFFFFFFFFFFFFFFFFFFFFFFFFFFFFFFFFFFFFFFFF AND MUL OR SWAP1 SSTORE POP POP POP PUSH2 0x193 JUMP JUMPDEST PUSH0 DUP1 REVERT JUMPDEST PUSH0 PUSH20 0xFFFFFFFFFFFFFFFFFFFFFFFFFFFFFFFFFFFFFFFF DUP3 AND SWAP1 POP SWAP2 SWAP1 POP JUMP JUMPDEST PUSH0 PUSH2 0x124 DUP3 PUSH2 0xFB JUMP JUMPDEST SWAP1 POP SWAP2 SWAP1 POP JUMP JUMPDEST PUSH2 0x134 DUP2 PUSH2 0x11A JUMP JUMPDEST DUP2 EQ PUSH2 0x13E JUMPI PUSH0 DUP1 REVERT JUMPDEST POP JUMP JUMPDEST PUSH0 DUP2 MLOAD SWAP1 POP PUSH2 0x14F DUP2 PUSH2 0x12B JUMP JUMPDEST SWAP3 SWAP2 POP POP JUMP JUMPDEST PUSH0 DUP1 PUSH1 0x40 DUP4 DUP6 SUB SLT ISZERO PUSH2 0x16B JUMPI PUSH2 0x16A PUSH2 0xF7 JUMP JUMPDEST JUMPDEST PUSH0 PUSH2 0x178 DUP6 DUP3 DUP7 ADD PUSH2 0x141 JUMP JUMPDEST SWAP3 POP POP PUSH1 0x20 PUSH2 0x189 DUP6 DUP3 DUP7 ADD PUSH2 0x141 JUMP JUMPDEST SWAP2 POP POP SWAP3 POP SWAP3 SWAP1 POP JUMP JUMPDEST PUSH2 0x12EB DUP1 PUSH2 0x1A0 PUSH0 CODECOPY PUSH0 RETURN INVALID PUSH1 0x80 PUSH1 0x40 MSTORE CALLVALUE DUP1 ISZERO PUSH2 0xF JUMPI PUSH0 DUP1 REVERT JUMPDEST POP PUSH1 0x4 CALLDATASIZE LT PUSH2 0x60 JUMPI PUSH0 CALLDATALOAD PUSH1 0xE0 SHR DUP1 PUSH4 0x47CCCA02 EQ PUSH2 0x64 JUMPI DUP1 PUSH4 0x74754282 EQ PUSH2 0x82 JUMPI DUP1 PUSH4 0xA08B37A8 EQ PUSH2 0xA0 JUMPI DUP1 PUSH4 0xB5F522F7 EQ PUSH2 0xBC JUMPI DUP1 PUSH4 0xB7760C8F EQ PUSH2 0xEF JUMPI DUP1 PUSH4 0xD8DE6587 EQ PUSH2 0x10B JUMPI JUMPDEST PUSH0 DUP1 REVERT JUMPDEST PUSH2 0x6C PUSH2 0x129 JUMP JUMPDEST PUSH1 0x40 MLOAD PUSH2 0x79 SWAP2 SWAP1 PUSH2 0x839 JUMP JUMPDEST PUSH1 0x40 MLOAD DUP1 SWAP2 SUB SWAP1 RETURN JUMPDEST PUSH2 0x8A PUSH2 0x14E JUMP JUMPDEST PUSH1 0x40 MLOAD PUSH2 0x97 SWAP2 SWAP1 PUSH2 0x872 JUMP JUMPDEST PUSH1 0x40 MLOAD DUP1 SWAP2 SUB SWAP1 RETURN JUMPDEST PUSH2 0xBA PUSH1 0x4 DUP1 CALLDATASIZE SUB DUP2 ADD SWAP1 PUSH2 0xB5 SWAP2 SWAP1 PUSH2 0xA0B JUMP JUMPDEST PUSH2 0x171 JUMP JUMPDEST STOP JUMPDEST PUSH2 0xD6 PUSH1 0x4 DUP1 CALLDATASIZE SUB DUP2 ADD SWAP1 PUSH2 0xD1 SWAP2 SWAP1 PUSH2 0xA77 JUMP JUMPDEST PUSH2 0x3CD JUMP JUMPDEST PUSH1 0x40 MLOAD PUSH2 0xE6 SWAP5 SWAP4 SWAP3 SWAP2 SWAP1 PUSH2 0xB2B JUMP JUMPDEST PUSH1 0x40 MLOAD DUP1 SWAP2 SUB SWAP1 RETURN JUMPDEST PUSH2 0x109 PUSH1 0x4 DUP1 CALLDATASIZE SUB DUP2 ADD SWAP1 PUSH2 0x104 SWAP2 SWAP1 PUSH2 0xB9F JUMP JUMPDEST PUSH2 0x4AB JUMP JUMPDEST STOP JUMPDEST PUSH2 0x113 PUSH2 0x79A JUMP JUMPDEST PUSH1 0x40 MLOAD PUSH2 0x120 SWAP2 SWAP1 PUSH2 0xBFD JUMP JUMPDEST PUSH1 0x40 MLOAD DUP1 SWAP2 SUB SWAP1 RETURN JUMPDEST PUSH1 0x1 PUSH0 SWAP1 SLOAD SWAP1 PUSH2 0x100 EXP SWAP1 DIV PUSH20 0xFFFFFFFFFFFFFFFFFFFFFFFFFFFFFFFFFFFFFFFF AND DUP2 JUMP JUMPDEST PUSH0 DUP1 SLOAD SWAP1 PUSH2 0x100 EXP SWAP1 DIV PUSH20 0xFFFFFFFFFFFFFFFFFFFFFFFFFFFFFFFFFFFFFFFF AND DUP2 JUMP JUMPDEST CALLER PUSH20 0xFFFFFFFFFFFFFFFFFFFFFFFFFFFFFFFFFFFFFFFF AND PUSH1 0x1 PUSH0 SWAP1 SLOAD SWAP1 PUSH2 0x100 EXP SWAP1 DIV PUSH20 0xFFFFFFFFFFFFFFFFFFFFFFFFFFFFFFFFFFFFFFFF AND PUSH20 0xFFFFFFFFFFFFFFFFFFFFFFFFFFFFFFFFFFFFFFFF AND PUSH4 0x6352211E DUP6 PUSH1 0x40 MLOAD DUP3 PUSH4 0xFFFFFFFF AND PUSH1 0xE0 SHL DUP2 MSTORE PUSH1 0x4 ADD PUSH2 0x1E2 SWAP2 SWAP1 PUSH2 0xC16 JUMP JUMPDEST PUSH1 0x20 PUSH1 0x40 MLOAD DUP1 DUP4 SUB DUP2 DUP7 GAS STATICCALL ISZERO DUP1 ISZERO PUSH2 0x1FD JUMPI RETURNDATASIZE PUSH0 DUP1 RETURNDATACOPY RETURNDATASIZE PUSH0 REVERT JUMPDEST POP POP POP POP PUSH1 0x40 MLOAD RETURNDATASIZE PUSH1 0x1F NOT PUSH1 0x1F DUP3 ADD AND DUP3 ADD DUP1 PUSH1 0x40 MSTORE POP DUP2 ADD SWAP1 PUSH2 0x221 SWAP2 SWAP1 PUSH2 0xC43 JUMP JUMPDEST PUSH20 0xFFFFFFFFFFFFFFFFFFFFFFFFFFFFFFFFFFFFFFFF AND EQ PUSH2 0x277 JUMPI PUSH1 0x40 MLOAD PUSH32 0x8C379A000000000000000000000000000000000000000000000000000000000 DUP2 MSTORE PUSH1 0x4 ADD PUSH2 0x26E SWAP1 PUSH2 0xCB8 JUMP JUMPDEST PUSH1 0x40 MLOAD DUP1 SWAP2 SUB SWAP1 REVERT JUMPDEST PUSH0 DUP2 GT PUSH2 0x2B9 JUMPI PUSH1 0x40 MLOAD PUSH32 0x8C379A000000000000000000000000000000000000000000000000000000000 DUP2 MSTORE PUSH1 0x4 ADD PUSH2 0x2B0 SWAP1 PUSH2 0xD20 JUMP JUMPDEST PUSH1 0x40 MLOAD DUP1 SWAP2 SUB SWAP1 REVERT JUMPDEST PUSH1 0x40 MLOAD DUP1 PUSH1 0x80 ADD PUSH1 0x40 MSTORE DUP1 DUP4 DUP2 MSTORE PUSH1 0x20 ADD DUP3 DUP2 MSTORE PUSH1 0x20 ADD PUSH1 0x1 ISZERO ISZERO DUP2 MSTORE PUSH1 0x20 ADD CALLER PUSH20 0xFFFFFFFFFFFFFFFFFFFFFFFFFFFFFFFFFFFFFFFF AND DUP2 MSTORE POP PUSH1 0x3 PUSH0 DUP6 DUP2 MSTORE PUSH1 0x20 ADD SWAP1 DUP2 MSTORE PUSH1 0x20 ADD PUSH0 KECCAK256 PUSH0 DUP3 ADD MLOAD DUP2 PUSH0 ADD SWAP1 DUP2 PUSH2 0x317 SWAP2 SWAP1 PUSH2 0xF2F JUMP JUMPDEST POP PUSH1 0x20 DUP3 ADD MLOAD DUP2 PUSH1 0x1 ADD SSTORE PUSH1 0x40 DUP3 ADD MLOAD DUP2 PUSH1 0x2 ADD PUSH0 PUSH2 0x100 EXP DUP2 SLOAD DUP2 PUSH1 0xFF MUL NOT AND SWAP1 DUP4 ISZERO ISZERO MUL OR SWAP1 SSTORE POP PUSH1 0x60 DUP3 ADD MLOAD DUP2 PUSH1 0x2 ADD PUSH1 0x1 PUSH2 0x100 EXP DUP2 SLOAD DUP2 PUSH20 0xFFFFFFFFFFFFFFFFFFFFFFFFFFFFFFFFFFFFFFFF MUL NOT AND SWAP1 DUP4 PUSH20 0xFFFFFFFFFFFFFFFFFFFFFFFFFFFFFFFFFFFFFFFF AND MUL OR SWAP1 SSTORE POP SWAP1 POP POP PUSH32 0x986DF755BF08BD645E6E79D6FC7088A1D3F1F84AC7DED45A129E9C4690C29B64 DUP4 DUP4 CALLER DUP5 PUSH1 0x40 MLOAD PUSH2 0x3C0 SWAP5 SWAP4 SWAP3 SWAP2 SWAP1 PUSH2 0xFFE JUMP JUMPDEST PUSH1 0x40 MLOAD DUP1 SWAP2 SUB SWAP1 LOG1 POP POP POP JUMP JUMPDEST PUSH1 0x3 PUSH1 0x20 MSTORE DUP1 PUSH0 MSTORE PUSH1 0x40 PUSH0 KECCAK256 PUSH0 SWAP2 POP SWAP1 POP DUP1 PUSH0 ADD DUP1 SLOAD PUSH2 0x3EC SWAP1 PUSH2 0xD6B JUMP JUMPDEST DUP1 PUSH1 0x1F ADD PUSH1 0x20 DUP1 SWAP2 DIV MUL PUSH1 0x20 ADD PUSH1 0x40 MLOAD SWAP1 DUP2 ADD PUSH1 0x40 MSTORE DUP1 SWAP3 SWAP2 SWAP1 DUP2 DUP2 MSTORE PUSH1 0x20 ADD DUP3 DUP1 SLOAD PUSH2 0x418 SWAP1 PUSH2 0xD6B JUMP JUMPDEST DUP1 ISZERO PUSH2 0x463 JUMPI DUP1 PUSH1 0x1F LT PUSH2 0x43A JUMPI PUSH2 0x100 DUP1 DUP4 SLOAD DIV MUL DUP4 MSTORE SWAP2 PUSH1 0x20 ADD SWAP2 PUSH2 0x463 JUMP JUMPDEST DUP3 ADD SWAP2 SWAP1 PUSH0 MSTORE PUSH1 0x20 PUSH0 KECCAK256 SWAP1 JUMPDEST DUP2 SLOAD DUP2 MSTORE SWAP1 PUSH1 0x1 ADD SWAP1 PUSH1 0x20 ADD DUP1 DUP4 GT PUSH2 0x446 JUMPI DUP3 SWAP1 SUB PUSH1 0x1F AND DUP3 ADD SWAP2 JUMPDEST POP POP POP POP POP SWAP1 DUP1 PUSH1 0x1 ADD SLOAD SWAP1 DUP1 PUSH1 0x2 ADD PUSH0 SWAP1 SLOAD SWAP1 PUSH2 0x100 EXP SWAP1 DIV PUSH1 0xFF AND SWAP1 DUP1 PUSH1 0x2 ADD PUSH1 0x1 SWAP1 SLOAD SWAP1 PUSH2 0x100 EXP SWAP1 DIV PUSH20 0xFFFFFFFFFFFFFFFFFFFFFFFFFFFFFFFFFFFFFFFF AND SWAP1 POP DUP5 JUMP JUMPDEST DUP2 CALLER PUSH20 0xFFFFFFFFFFFFFFFFFFFFFFFFFFFFFFFFFFFFFFFF AND PUSH1 0x3 PUSH0 DUP4 DUP2 MSTORE PUSH1 0x20 ADD SWAP1 DUP2 MSTORE PUSH1 0x20 ADD PUSH0 KECCAK256 PUSH1 0x2 ADD PUSH1 0x1 SWAP1 SLOAD SWAP1 PUSH2 0x100 EXP SWAP1 DIV PUSH20 0xFFFFFFFFFFFFFFFFFFFFFFFFFFFFFFFFFFFFFFFF AND PUSH20 0xFFFFFFFFFFFFFFFFFFFFFFFFFFFFFFFFFFFFFFFF AND EQ PUSH2 0x54E JUMPI PUSH1 0x40 MLOAD PUSH32 0x8C379A000000000000000000000000000000000000000000000000000000000 DUP2 MSTORE PUSH1 0x4 ADD PUSH2 0x545 SWAP1 PUSH2 0x1092 JUMP JUMPDEST PUSH1 0x40 MLOAD DUP1 SWAP2 SUB SWAP1 REVERT JUMPDEST PUSH0 PUSH1 0x3 PUSH0 DUP6 DUP2 MSTORE PUSH1 0x20 ADD SWAP1 DUP2 MSTORE PUSH1 0x20 ADD PUSH0 KECCAK256 SWAP1 POP DUP1 PUSH1 0x2 ADD PUSH0 SWAP1 SLOAD SWAP1 PUSH2 0x100 EXP SWAP1 DIV PUSH1 0xFF AND PUSH2 0x5B2 JUMPI PUSH1 0x40 MLOAD PUSH32 0x8C379A000000000000000000000000000000000000000000000000000000000 DUP2 MSTORE PUSH1 0x4 ADD PUSH2 0x5A9 SWAP1 PUSH2 0x10FA JUMP JUMPDEST PUSH1 0x40 MLOAD DUP1 SWAP2 SUB SWAP1 REVERT JUMPDEST PUSH0 PUSH20 0xFFFFFFFFFFFFFFFFFFFFFFFFFFFFFFFFFFFFFFFF AND DUP4 PUSH20 0xFFFFFFFFFFFFFFFFFFFFFFFFFFFFFFFFFFFFFFFF AND SUB PUSH2 0x620 JUMPI PUSH1 0x40 MLOAD PUSH32 0x8C379A000000000000000000000000000000000000000000000000000000000 DUP2 MSTORE PUSH1 0x4 ADD PUSH2 0x617 SWAP1 PUSH2 0x1162 JUMP JUMPDEST PUSH1 0x40 MLOAD DUP1 SWAP2 SUB SWAP1 REVERT JUMPDEST PUSH1 0x1 PUSH0 SWAP1 SLOAD SWAP1 PUSH2 0x100 EXP SWAP1 DIV PUSH20 0xFFFFFFFFFFFFFFFFFFFFFFFFFFFFFFFFFFFFFFFF AND PUSH20 0xFFFFFFFFFFFFFFFFFFFFFFFFFFFFFFFFFFFFFFFF AND PUSH4 0x23B872DD CALLER DUP6 DUP8 PUSH1 0x40 MLOAD DUP5 PUSH4 0xFFFFFFFF AND PUSH1 0xE0 SHL DUP2 MSTORE PUSH1 0x4 ADD PUSH2 0x67E SWAP4 SWAP3 SWAP2 SWAP1 PUSH2 0x1180 JUMP JUMPDEST PUSH0 PUSH1 0x40 MLOAD DUP1 DUP4 SUB DUP2 PUSH0 DUP8 DUP1 EXTCODESIZE ISZERO DUP1 ISZERO PUSH2 0x695 JUMPI PUSH0 DUP1 REVERT JUMPDEST POP GAS CALL ISZERO DUP1 ISZERO PUSH2 0x6A7 JUMPI RETURNDATASIZE PUSH0 DUP1 RETURNDATACOPY RETURNDATASIZE PUSH0 REVERT JUMPDEST POP POP POP POP PUSH1 0x2 PUSH0 SWAP1 SLOAD SWAP1 PUSH2 0x100 EXP SWAP1 DIV PUSH20 0xFFFFFFFFFFFFFFFFFFFFFFFFFFFFFFFFFFFFFFFF AND PUSH20 0xFFFFFFFFFFFFFFFFFFFFFFFFFFFFFFFFFFFFFFFF AND PUSH4 0x29507F73 DUP6 DUP6 PUSH1 0x40 MLOAD DUP4 PUSH4 0xFFFFFFFF AND PUSH1 0xE0 SHL DUP2 MSTORE PUSH1 0x4 ADD PUSH2 0x707 SWAP3 SWAP2 SWAP1 PUSH2 0x11B5 JUMP JUMPDEST PUSH0 PUSH1 0x40 MLOAD DUP1 DUP4 SUB DUP2 PUSH0 DUP8 DUP1 EXTCODESIZE ISZERO DUP1 ISZERO PUSH2 0x71E JUMPI PUSH0 DUP1 REVERT JUMPDEST POP GAS CALL ISZERO DUP1 ISZERO PUSH2 0x730 JUMPI RETURNDATASIZE PUSH0 DUP1 RETURNDATACOPY RETURNDATASIZE PUSH0 REVERT JUMPDEST POP POP POP POP PUSH0 DUP2 PUSH1 0x2 ADD PUSH0 PUSH2 0x100 EXP DUP2 SLOAD DUP2 PUSH1 0xFF MUL NOT AND SWAP1 DUP4 ISZERO ISZERO MUL OR SWAP1 SSTORE POP PUSH32 0xCE8B3C5812D057CE2AC6151B274D80541AB26E165EF98765474E54B7DAC7CE08 DUP5 DUP3 PUSH0 ADD CALLER DUP7 DUP6 PUSH1 0x1 ADD SLOAD PUSH1 0x40 MLOAD PUSH2 0x78C SWAP6 SWAP5 SWAP4 SWAP3 SWAP2 SWAP1 PUSH2 0x125D JUMP JUMPDEST PUSH1 0x40 MLOAD DUP1 SWAP2 SUB SWAP1 LOG1 POP POP POP POP JUMP JUMPDEST PUSH1 0x2 PUSH0 SWAP1 SLOAD SWAP1 PUSH2 0x100 EXP SWAP1 DIV PUSH20 0xFFFFFFFFFFFFFFFFFFFFFFFFFFFFFFFFFFFFFFFF AND DUP2 JUMP JUMPDEST PUSH0 PUSH20 0xFFFFFFFFFFFFFFFFFFFFFFFFFFFFFFFFFFFFFFFF DUP3 AND SWAP1 POP SWAP2 SWAP1 POP JUMP JUMPDEST PUSH0 DUP2 SWAP1 POP SWAP2 SWAP1 POP JUMP JUMPDEST PUSH0 PUSH2 0x801 PUSH2 0x7FC PUSH2 0x7F7 DUP5 PUSH2 0x7BF JUMP JUMPDEST PUSH2 0x7DE JUMP JUMPDEST PUSH2 0x7BF JUMP JUMPDEST SWAP1 POP SWAP2 SWAP1 POP JUMP JUMPDEST PUSH0 PUSH2 0x812 DUP3 PUSH2 0x7E7 JUMP JUMPDEST SWAP1 POP SWAP2 SWAP1 POP JUMP JUMPDEST PUSH0 PUSH2 0x823 DUP3 PUSH2 0x808 JUMP JUMPDEST SWAP1 POP SWAP2 SWAP1 POP JUMP JUMPDEST PUSH2 0x833 DUP2 PUSH2 0x819 JUMP JUMPDEST DUP3 MSTORE POP POP JUMP JUMPDEST PUSH0 PUSH1 0x20 DUP3 ADD SWAP1 POP PUSH2 0x84C PUSH0 DUP4 ADD DUP5 PUSH2 0x82A JUMP JUMPDEST SWAP3 SWAP2 POP POP JUMP JUMPDEST PUSH0 PUSH2 0x85C DUP3 PUSH2 0x7BF JUMP JUMPDEST SWAP1 POP SWAP2 SWAP1 POP JUMP JUMPDEST PUSH2 0x86C DUP2 PUSH2 0x852 JUMP JUMPDEST DUP3 MSTORE POP POP JUMP JUMPDEST PUSH0 PUSH1 0x20 DUP3 ADD SWAP1 POP PUSH2 0x885 PUSH0 DUP4 ADD DUP5 PUSH2 0x863 JUMP JUMPDEST SWAP3 SWAP2 POP POP JUMP JUMPDEST PUSH0 PUSH1 0x40 MLOAD SWAP1 POP SWAP1 JUMP JUMPDEST PUSH0 DUP1 REVERT JUMPDEST PUSH0 DUP1 REVERT JUMPDEST PUSH0 DUP2 SWAP1 POP SWAP2 SWAP1 POP JUMP JUMPDEST PUSH2 0x8AE DUP2 PUSH2 0x89C JUMP JUMPDEST DUP2 EQ PUSH2 0x8B8 JUMPI PUSH0 DUP1 REVERT JUMPDEST POP JUMP JUMPDEST PUSH0 DUP2 CALLDATALOAD SWAP1 POP PUSH2 0x8C9 DUP2 PUSH2 0x8A5 JUMP JUMPDEST SWAP3 SWAP2 POP POP JUMP JUMPDEST PUSH0 DUP1 REVERT JUMPDEST PUSH0 DUP1 REVERT JUMPDEST PUSH0 PUSH1 0x1F NOT PUSH1 0x1F DUP4 ADD AND SWAP1 POP SWAP2 SWAP1 POP JUMP JUMPDEST PUSH32 0x4E487B7100000000000000000000000000000000000000000000000000000000 PUSH0 MSTORE PUSH1 0x41 PUSH1 0x4 MSTORE PUSH1 0x24 PUSH0 REVERT JUMPDEST PUSH2 0x91D DUP3 PUSH2 0x8D7 JUMP JUMPDEST DUP2 ADD DUP2 DUP2 LT PUSH8 0xFFFFFFFFFFFFFFFF DUP3 GT OR ISZERO PUSH2 0x93C JUMPI PUSH2 0x93B PUSH2 0x8E7 JUMP JUMPDEST JUMPDEST DUP1 PUSH1 0x40 MSTORE POP POP POP JUMP JUMPDEST PUSH0 PUSH2 0x94E PUSH2 0x88B JUMP JUMPDEST SWAP1 POP PUSH2 0x95A DUP3 DUP3 PUSH2 0x914 JUMP JUMPDEST SWAP2 SWAP1 POP JUMP JUMPDEST PUSH0 PUSH8 0xFFFFFFFFFFFFFFFF DUP3 GT ISZERO PUSH2 0x979 JUMPI PUSH2 0x978 PUSH2 0x8E7 JUMP JUMPDEST JUMPDEST PUSH2 0x982 DUP3 PUSH2 0x8D7 JUMP JUMPDEST SWAP1 POP PUSH1 0x20 DUP2 ADD SWAP1 POP SWAP2 SWAP1 POP JUMP JUMPDEST DUP3 DUP2 DUP4 CALLDATACOPY PUSH0 DUP4 DUP4 ADD MSTORE POP POP POP JUMP JUMPDEST PUSH0 PUSH2 0x9AF PUSH2 0x9AA DUP5 PUSH2 0x95F JUMP JUMPDEST PUSH2 0x945 JUMP JUMPDEST SWAP1 POP DUP3 DUP2 MSTORE PUSH1 0x20 DUP2 ADD DUP5 DUP5 DUP5 ADD GT ISZERO PUSH2 0x9CB JUMPI PUSH2 0x9CA PUSH2 0x8D3 JUMP JUMPDEST JUMPDEST PUSH2 0x9D6 DUP5 DUP3 DUP6 PUSH2 0x98F JUMP JUMPDEST POP SWAP4 SWAP3 POP POP POP JUMP JUMPDEST PUSH0 DUP3 PUSH1 0x1F DUP4 ADD SLT PUSH2 0x9F2 JUMPI PUSH2 0x9F1 PUSH2 0x8CF JUMP JUMPDEST JUMPDEST DUP2 CALLDATALOAD PUSH2 0xA02 DUP5 DUP3 PUSH1 0x20 DUP7 ADD PUSH2 0x99D JUMP JUMPDEST SWAP2 POP POP SWAP3 SWAP2 POP POP JUMP JUMPDEST PUSH0 DUP1 PUSH0 PUSH1 0x60 DUP5 DUP7 SUB SLT ISZERO PUSH2 0xA22 JUMPI PUSH2 0xA21 PUSH2 0x894 JUMP JUMPDEST JUMPDEST PUSH0 PUSH2 0xA2F DUP7 DUP3 DUP8 ADD PUSH2 0x8BB JUMP JUMPDEST SWAP4 POP POP PUSH1 0x20 DUP5 ADD CALLDATALOAD PUSH8 0xFFFFFFFFFFFFFFFF DUP2 GT ISZERO PUSH2 0xA50 JUMPI PUSH2 0xA4F PUSH2 0x898 JUMP JUMPDEST JUMPDEST PUSH2 0xA5C DUP7 DUP3 DUP8 ADD PUSH2 0x9DE JUMP JUMPDEST SWAP3 POP POP PUSH1 0x40 PUSH2 0xA6D DUP7 DUP3 DUP8 ADD PUSH2 0x8BB JUMP JUMPDEST SWAP2 POP POP SWAP3 POP SWAP3 POP SWAP3 JUMP JUMPDEST PUSH0 PUSH1 0x20 DUP3 DUP5 SUB SLT ISZERO PUSH2 0xA8C JUMPI PUSH2 0xA8B PUSH2 0x894 JUMP JUMPDEST JUMPDEST PUSH0 PUSH2 0xA99 DUP5 DUP3 DUP6 ADD PUSH2 0x8BB JUMP JUMPDEST SWAP2 POP POP SWAP3 SWAP2 POP POP JUMP JUMPDEST PUSH0 DUP2 MLOAD SWAP1 POP SWAP2 SWAP1 POP JUMP JUMPDEST PUSH0 DUP3 DUP3 MSTORE PUSH1 0x20 DUP3 ADD SWAP1 POP SWAP3 SWAP2 POP POP JUMP JUMPDEST DUP3 DUP2 DUP4 MCOPY PUSH0 DUP4 DUP4 ADD MSTORE POP POP POP JUMP JUMPDEST PUSH0 PUSH2 0xAD4 DUP3 PUSH2 0xAA2 JUMP JUMPDEST PUSH2 0xADE DUP2 DUP6 PUSH2 0xAAC JUMP JUMPDEST SWAP4 POP PUSH2 0xAEE DUP2 DUP6 PUSH1 0x20 DUP7 ADD PUSH2 0xABC JUMP JUMPDEST PUSH2 0xAF7 DUP2 PUSH2 0x8D7 JUMP JUMPDEST DUP5 ADD SWAP2 POP POP SWAP3 SWAP2 POP POP JUMP JUMPDEST PUSH2 0xB0B DUP2 PUSH2 0x89C JUMP JUMPDEST DUP3 MSTORE POP POP JUMP JUMPDEST PUSH0 DUP2 ISZERO ISZERO SWAP1 POP SWAP2 SWAP1 POP JUMP JUMPDEST PUSH2 0xB25 DUP2 PUSH2 0xB11 JUMP JUMPDEST DUP3 MSTORE POP POP JUMP JUMPDEST PUSH0 PUSH1 0x80 DUP3 ADD SWAP1 POP DUP2 DUP2 SUB PUSH0 DUP4 ADD MSTORE PUSH2 0xB43 DUP2 DUP8 PUSH2 0xACA JUMP JUMPDEST SWAP1 POP PUSH2 0xB52 PUSH1 0x20 DUP4 ADD DUP7 PUSH2 0xB02 JUMP JUMPDEST PUSH2 0xB5F PUSH1 0x40 DUP4 ADD DUP6 PUSH2 0xB1C JUMP JUMPDEST PUSH2 0xB6C PUSH1 0x60 DUP4 ADD DUP5 PUSH2 0x863 JUMP JUMPDEST SWAP6 SWAP5 POP POP POP POP POP JUMP JUMPDEST PUSH2 0xB7E DUP2 PUSH2 0x852 JUMP JUMPDEST DUP2 EQ PUSH2 0xB88 JUMPI PUSH0 DUP1 REVERT JUMPDEST POP JUMP JUMPDEST PUSH0 DUP2 CALLDATALOAD SWAP1 POP PUSH2 0xB99 DUP2 PUSH2 0xB75 JUMP JUMPDEST SWAP3 SWAP2 POP POP JUMP JUMPDEST PUSH0 DUP1 PUSH1 0x40 DUP4 DUP6 SUB SLT ISZERO PUSH2 0xBB5 JUMPI PUSH2 0xBB4 PUSH2 0x894 JUMP JUMPDEST JUMPDEST PUSH0 PUSH2 0xBC2 DUP6 DUP3 DUP7 ADD PUSH2 0x8BB JUMP JUMPDEST SWAP3 POP POP PUSH1 0x20 PUSH2 0xBD3 DUP6 DUP3 DUP7 ADD PUSH2 0xB8B JUMP JUMPDEST SWAP2 POP POP SWAP3 POP SWAP3 SWAP1 POP JUMP JUMPDEST PUSH0 PUSH2 0xBE7 DUP3 PUSH2 0x808 JUMP JUMPDEST SWAP1 POP SWAP2 SWAP1 POP JUMP JUMPDEST PUSH2 0xBF7 DUP2 PUSH2 0xBDD JUMP JUMPDEST DUP3 MSTORE POP POP JUMP JUMPDEST PUSH0 PUSH1 0x20 DUP3 ADD SWAP1 POP PUSH2 0xC10 PUSH0 DUP4 ADD DUP5 PUSH2 0xBEE JUMP JUMPDEST SWAP3 SWAP2 POP POP JUMP JUMPDEST PUSH0 PUSH1 0x20 DUP3 ADD SWAP1 POP PUSH2 0xC29 PUSH0 DUP4 ADD DUP5 PUSH2 0xB02 JUMP JUMPDEST SWAP3 SWAP2 POP POP JUMP JUMPDEST PUSH0 DUP2 MLOAD SWAP1 POP PUSH2 0xC3D DUP2 PUSH2 0xB75 JUMP JUMPDEST SWAP3 SWAP2 POP POP JUMP JUMPDEST PUSH0 PUSH1 0x20 DUP3 DUP5 SUB SLT ISZERO PUSH2 0xC58 JUMPI PUSH2 0xC57 PUSH2 0x894 JUMP JUMPDEST JUMPDEST PUSH0 PUSH2 0xC65 DUP5 DUP3 DUP6 ADD PUSH2 0xC2F JUMP JUMPDEST SWAP2 POP POP SWAP3 SWAP2 POP POP JUMP JUMPDEST PUSH32 0x4E6F74206F776E65720000000000000000000000000000000000000000000000 PUSH0 DUP3 ADD MSTORE POP JUMP JUMPDEST PUSH0 PUSH2 0xCA2 PUSH1 0x9 DUP4 PUSH2 0xAAC JUMP JUMPDEST SWAP2 POP PUSH2 0xCAD DUP3 PUSH2 0xC6E JUMP JUMPDEST PUSH1 0x20 DUP3 ADD SWAP1 POP SWAP2 SWAP1 POP JUMP JUMPDEST PUSH0 PUSH1 0x20 DUP3 ADD SWAP1 POP DUP2 DUP2 SUB PUSH0 DUP4 ADD MSTORE PUSH2 0xCCF DUP2 PUSH2 0xC96 JUMP JUMPDEST SWAP1 POP SWAP2 SWAP1 POP JUMP JUMPDEST PUSH32 0x496E76616C696420707269636500000000000000000000000000000000000000 PUSH0 DUP3 ADD MSTORE POP JUMP JUMPDEST PUSH0 PUSH2 0xD0A PUSH1 0xD DUP4 PUSH2 0xAAC JUMP JUMPDEST SWAP2 POP PUSH2 0xD15 DUP3 PUSH2 0xCD6 JUMP JUMPDEST PUSH1 0x20 DUP3 ADD SWAP1 POP SWAP2 SWAP1 POP JUMP JUMPDEST PUSH0 PUSH1 0x20 DUP3 ADD SWAP1 POP DUP2 DUP2 SUB PUSH0 DUP4 ADD MSTORE PUSH2 0xD37 DUP2 PUSH2 0xCFE JUMP JUMPDEST SWAP1 POP SWAP2 SWAP1 POP JUMP JUMPDEST PUSH32 0x4E487B7100000000000000000000000000000000000000000000000000000000 PUSH0 MSTORE PUSH1 0x22 PUSH1 0x4 MSTORE PUSH1 0x24 PUSH0 REVERT JUMPDEST PUSH0 PUSH1 0x2 DUP3 DIV SWAP1 POP PUSH1 0x1 DUP3 AND DUP1 PUSH2 0xD82 JUMPI PUSH1 0x7F DUP3 AND SWAP2 POP JUMPDEST PUSH1 0x20 DUP3 LT DUP2 SUB PUSH2 0xD95 JUMPI PUSH2 0xD94 PUSH2 0xD3E JUMP JUMPDEST JUMPDEST POP SWAP2 SWAP1 POP JUMP JUMPDEST PUSH0 DUP2 SWAP1 POP DUP2 PUSH0 MSTORE PUSH1 0x20 PUSH0 KECCAK256 SWAP1 POP SWAP2 SWAP1 POP JUMP JUMPDEST PUSH0 PUSH1 0x20 PUSH1 0x1F DUP4 ADD DIV SWAP1 POP SWAP2 SWAP1 POP JUMP JUMPDEST PUSH0 DUP3 DUP3 SHL SWAP1 POP SWAP3 SWAP2 POP POP JUMP JUMPDEST PUSH0 PUSH1 0x8 DUP4 MUL PUSH2 0xDF7 PUSH32 0xFFFFFFFFFFFFFFFFFFFFFFFFFFFFFFFFFFFFFFFFFFFFFFFFFFFFFFFFFFFFFFFF DUP3 PUSH2 0xDBC JUMP JUMPDEST PUSH2 0xE01 DUP7 DUP4 PUSH2 0xDBC JUMP JUMPDEST SWAP6 POP DUP1 NOT DUP5 AND SWAP4 POP DUP1 DUP7 AND DUP5 OR SWAP3 POP POP POP SWAP4 SWAP3 POP POP POP JUMP JUMPDEST PUSH0 PUSH2 0xE33 PUSH2 0xE2E PUSH2 0xE29 DUP5 PUSH2 0x89C JUMP JUMPDEST PUSH2 0x7DE JUMP JUMPDEST PUSH2 0x89C JUMP JUMPDEST SWAP1 POP SWAP2 SWAP1 POP JUMP JUMPDEST PUSH0 DUP2 SWAP1 POP SWAP2 SWAP1 POP JUMP JUMPDEST PUSH2 0xE4C DUP4 PUSH2 0xE19 JUMP JUMPDEST PUSH2 0xE60 PUSH2 0xE58 DUP3 PUSH2 0xE3A JUMP JUMPDEST DUP5 DUP5 SLOAD PUSH2 0xDC8 JUMP JUMPDEST DUP3 SSTORE POP POP POP POP JUMP JUMPDEST PUSH0 SWAP1 JUMP JUMPDEST PUSH2 0xE74 PUSH2 0xE68 JUMP JUMPDEST PUSH2 0xE7F DUP2 DUP5 DUP5 PUSH2 0xE43 JUMP JUMPDEST POP POP POP JUMP JUMPDEST JUMPDEST DUP2 DUP2 LT ISZERO PUSH2 0xEA2 JUMPI PUSH2 0xE97 PUSH0 DUP3 PUSH2 0xE6C JUMP JUMPDEST PUSH1 0x1 DUP2 ADD SWAP1 POP PUSH2 0xE85 JUMP JUMPDEST POP POP JUMP JUMPDEST PUSH1 0x1F DUP3 GT ISZERO PUSH2 0xEE7 JUMPI PUSH2 0xEB8 DUP2 PUSH2 0xD9B JUMP JUMPDEST PUSH2 0xEC1 DUP5 PUSH2 0xDAD JUMP JUMPDEST DUP2 ADD PUSH1 0x20 DUP6 LT ISZERO PUSH2 0xED0 JUMPI DUP2 SWAP1 POP JUMPDEST PUSH2 0xEE4 PUSH2 0xEDC DUP6 PUSH2 0xDAD JUMP JUMPDEST DUP4 ADD DUP3 PUSH2 0xE84 JUMP JUMPDEST POP POP JUMPDEST POP POP POP JUMP JUMPDEST PUSH0 DUP3 DUP3 SHR SWAP1 POP SWAP3 SWAP2 POP POP JUMP JUMPDEST PUSH0 PUSH2 0xF07 PUSH0 NOT DUP5 PUSH1 0x8 MUL PUSH2 0xEEC JUMP JUMPDEST NOT DUP1 DUP4 AND SWAP2 POP POP SWAP3 SWAP2 POP POP JUMP JUMPDEST PUSH0 PUSH2 0xF1F DUP4 DUP4 PUSH2 0xEF8 JUMP JUMPDEST SWAP2 POP DUP3 PUSH1 0x2 MUL DUP3 OR SWAP1 POP SWAP3 SWAP2 POP POP JUMP JUMPDEST PUSH2 0xF38 DUP3 PUSH2 0xAA2 JUMP JUMPDEST PUSH8 0xFFFFFFFFFFFFFFFF DUP2 GT ISZERO PUSH2 0xF51 JUMPI PUSH2 0xF50 PUSH2 0x8E7 JUMP JUMPDEST JUMPDEST PUSH2 0xF5B DUP3 SLOAD PUSH2 0xD6B JUMP JUMPDEST PUSH2 0xF66 DUP3 DUP3 DUP6 PUSH2 0xEA6 JUMP JUMPDEST PUSH0 PUSH1 0x20 SWAP1 POP PUSH1 0x1F DUP4 GT PUSH1 0x1 DUP2 EQ PUSH2 0xF97 JUMPI PUSH0 DUP5 ISZERO PUSH2 0xF85 JUMPI DUP3 DUP8 ADD MLOAD SWAP1 POP JUMPDEST PUSH2 0xF8F DUP6 DUP3 PUSH2 0xF14 JUMP JUMPDEST DUP7 SSTORE POP PUSH2 0xFF6 JUMP JUMPDEST PUSH1 0x1F NOT DUP5 AND PUSH2 0xFA5 DUP7 PUSH2 0xD9B JUMP JUMPDEST PUSH0 JUMPDEST DUP3 DUP2 LT ISZERO PUSH2 0xFCC JUMPI DUP5 DUP10 ADD MLOAD DUP3 SSTORE PUSH1 0x1 DUP3 ADD SWAP2 POP PUSH1 0x20 DUP6 ADD SWAP5 POP PUSH1 0x20 DUP2 ADD SWAP1 POP PUSH2 0xFA7 JUMP JUMPDEST DUP7 DUP4 LT ISZERO PUSH2 0xFE9 JUMPI DUP5 DUP10 ADD MLOAD PUSH2 0xFE5 PUSH1 0x1F DUP10 AND DUP3 PUSH2 0xEF8 JUMP JUMPDEST DUP4 SSTORE POP JUMPDEST PUSH1 0x1 PUSH1 0x2 DUP9 MUL ADD DUP9 SSTORE POP POP POP JUMPDEST POP POP POP POP POP POP JUMP JUMPDEST PUSH0 PUSH1 0x80 DUP3 ADD SWAP1 POP PUSH2 0x1011 PUSH0 DUP4 ADD DUP8 PUSH2 0xB02 JUMP JUMPDEST DUP2 DUP2 SUB PUSH1 0x20 DUP4 ADD MSTORE PUSH2 0x1023 DUP2 DUP7 PUSH2 0xACA JUMP JUMPDEST SWAP1 POP PUSH2 0x1032 PUSH1 0x40 DUP4 ADD DUP6 PUSH2 0x863 JUMP JUMPDEST PUSH2 0x103F PUSH1 0x60 DUP4 ADD DUP5 PUSH2 0xB02 JUMP JUMPDEST SWAP6 SWAP5 POP POP POP POP POP JUMP JUMPDEST PUSH32 0x43616C6C6572206973206E6F74207468652073656C6C65720000000000000000 PUSH0 DUP3 ADD MSTORE POP JUMP JUMPDEST PUSH0 PUSH2 0x107C PUSH1 0x18 DUP4 PUSH2 0xAAC JUMP JUMPDEST SWAP2 POP PUSH2 0x1087 DUP3 PUSH2 0x1048 JUMP JUMPDEST PUSH1 0x20 DUP3 ADD SWAP1 POP SWAP2 SWAP1 POP JUMP JUMPDEST PUSH0 PUSH1 0x20 DUP3 ADD SWAP1 POP DUP2 DUP2 SUB PUSH0 DUP4 ADD MSTORE PUSH2 0x10A9 DUP2 PUSH2 0x1070 JUMP JUMPDEST SWAP1 POP SWAP2 SWAP1 POP JUMP JUMPDEST PUSH32 0x53616C65206973206E6F74206163746976650000000000000000000000000000 PUSH0 DUP3 ADD MSTORE POP JUMP JUMPDEST PUSH0 PUSH2 0x10E4 PUSH1 0x12 DUP4 PUSH2 0xAAC JUMP JUMPDEST SWAP2 POP PUSH2 0x10EF DUP3 PUSH2 0x10B0 JUMP JUMPDEST PUSH1 0x20 DUP3 ADD SWAP1 POP SWAP2 SWAP1 POP JUMP JUMPDEST PUSH0 PUSH1 0x20 DUP3 ADD SWAP1 POP DUP2 DUP2 SUB PUSH0 DUP4 ADD MSTORE PUSH2 0x1111 DUP2 PUSH2 0x10D8 JUMP JUMPDEST SWAP1 POP SWAP2 SWAP1 POP JUMP JUMPDEST PUSH32 0x496E76616C696420627579657200000000000000000000000000000000000000 PUSH0 DUP3 ADD MSTORE POP JUMP JUMPDEST PUSH0 PUSH2 0x114C PUSH1 0xD DUP4 PUSH2 0xAAC JUMP JUMPDEST SWAP2 POP PUSH2 0x1157 DUP3 PUSH2 0x1118 JUMP JUMPDEST PUSH1 0x20 DUP3 ADD SWAP1 POP SWAP2 SWAP1 POP JUMP JUMPDEST PUSH0 PUSH1 0x20 DUP3 ADD SWAP1 POP DUP2 DUP2 SUB PUSH0 DUP4 ADD MSTORE PUSH2 0x1179 DUP2 PUSH2 0x1140 JUMP JUMPDEST SWAP1 POP SWAP2 SWAP1 POP JUMP JUMPDEST PUSH0 PUSH1 0x60 DUP3 ADD SWAP1 POP PUSH2 0x1193 PUSH0 DUP4 ADD DUP7 PUSH2 0x863 JUMP JUMPDEST PUSH2 0x11A0 PUSH1 0x20 DUP4 ADD DUP6 PUSH2 0x863 JUMP JUMPDEST PUSH2 0x11AD PUSH1 0x40 DUP4 ADD DUP5 PUSH2 0xB02 JUMP JUMPDEST SWAP5 SWAP4 POP POP POP POP JUMP JUMPDEST PUSH0 PUSH1 0x40 DUP3 ADD SWAP1 POP PUSH2 0x11C8 PUSH0 DUP4 ADD DUP6 PUSH2 0xB02 JUMP JUMPDEST PUSH2 0x11D5 PUSH1 0x20 DUP4 ADD DUP5 PUSH2 0x863 JUMP JUMPDEST SWAP4 SWAP3 POP POP POP JUMP JUMPDEST PUSH0 DUP2 SLOAD PUSH2 0x11E8 DUP2 PUSH2 0xD6B JUMP JUMPDEST PUSH2 0x11F2 DUP2 DUP7 PUSH2 0xAAC JUMP JUMPDEST SWAP5 POP PUSH1 0x1 DUP3 AND PUSH0 DUP2 EQ PUSH2 0x120C JUMPI PUSH1 0x1 DUP2 EQ PUSH2 0x1222 JUMPI PUSH2 0x1254 JUMP JUMPDEST PUSH1 0xFF NOT DUP4 AND DUP7 MSTORE DUP2 ISZERO ISZERO PUSH1 0x20 MUL DUP7 ADD SWAP4 POP PUSH2 0x1254 JUMP JUMPDEST PUSH2 0x122B DUP6 PUSH2 0xD9B JUMP JUMPDEST PUSH0 JUMPDEST DUP4 DUP2 LT ISZERO PUSH2 0x124C JUMPI DUP2 SLOAD DUP2 DUP10 ADD MSTORE PUSH1 0x1 DUP3 ADD SWAP2 POP PUSH1 0x20 DUP2 ADD SWAP1 POP PUSH2 0x122D JUMP JUMPDEST DUP1 DUP9 ADD SWAP6 POP POP POP JUMPDEST POP POP POP SWAP3 SWAP2 POP POP JUMP JUMPDEST PUSH0 PUSH1 0xA0 DUP3 ADD SWAP1 POP PUSH2 0x1270 PUSH0 DUP4 ADD DUP9 PUSH2 0xB02 JUMP JUMPDEST DUP2 DUP2 SUB PUSH1 0x20 DUP4 ADD MSTORE PUSH2 0x1282 DUP2 DUP8 PUSH2 0x11DC JUMP JUMPDEST SWAP1 POP PUSH2 0x1291 PUSH1 0x40 DUP4 ADD DUP7 PUSH2 0x863 JUMP JUMPDEST PUSH2 0x129E PUSH1 0x60 DUP4 ADD DUP6 PUSH2 0x863 JUMP JUMPDEST PUSH2 0x12AB PUSH1 0x80 DUP4 ADD DUP5 PUSH2 0xB02 JUMP JUMPDEST SWAP7 SWAP6 POP POP POP POP POP POP JUMP INVALID LOG2 PUSH5 0x6970667358 0x22 SLT KECCAK256 RETURNDATASIZE 0x2B 0xDA 0xB0 LOG2 0xCC MULMOD 0xE3 SLOAD PUSH13 0x234110FA55DDBCBA19EADFC034 0x28 REVERT DUP9 DUP8 0x2F JUMP NUMBER 0xF6 0xC1 PUSH5 0x736F6C6343 STOP ADDMOD BYTE STOP CALLER "
				},
				"gasEstimates": {
					"creation": {
						"codeDepositCost": "968600",
						"executionCost": "infinite",
						"totalCost": "infinite"
					},
					"external": {
						"control()": "infinite",
						"manufacturer()": "2505",
						"nft()": "infinite",
						"sale(uint256,string,uint256)": "infinite",
						"sales(uint256)": "infinite",
						"transfer(uint256,address)": "infinite"
					}
				},
				"methodIdentifiers": {
					"control()": "d8de6587",
					"manufacturer()": "74754282",
					"nft()": "47ccca02",
					"sale(uint256,string,uint256)": "a08b37a8",
					"sales(uint256)": "b5f522f7",
					"transfer(uint256,address)": "b7760c8f"
				}
			},
			"storageLayout": {
				"storage": [
					{
						"astId": 28,
						"contract": "Sale.sol:SaleContract",
						"label": "manufacturer",
						"offset": 0,
						"slot": "0",
						"type": "t_address"
					},
					{
						"astId": 31,
						"contract": "Sale.sol:SaleContract",
						"label": "nft",
						"offset": 0,
						"slot": "1",
						"type": "t_contract(ISimpleMint)18"
					},
					{
						"astId": 34,
						"contract": "Sale.sol:SaleContract",
						"label": "control",
						"offset": 0,
						"slot": "2",
						"type": "t_contract(IControl)26"
					},
					{
						"astId": 48,
						"contract": "Sale.sol:SaleContract",
						"label": "sales",
						"offset": 0,
						"slot": "3",
						"type": "t_mapping(t_uint256,t_struct(Sale)43_storage)"
					}
				],
				"types": {
					"t_address": {
						"encoding": "inplace",
						"label": "address",
						"numberOfBytes": "20"
					},
					"t_bool": {
						"encoding": "inplace",
						"label": "bool",
						"numberOfBytes": "1"
					},
					"t_contract(IControl)26": {
						"encoding": "inplace",
						"label": "contract IControl",
						"numberOfBytes": "20"
					},
					"t_contract(ISimpleMint)18": {
						"encoding": "inplace",
						"label": "contract ISimpleMint",
						"numberOfBytes": "20"
					},
					"t_mapping(t_uint256,t_struct(Sale)43_storage)": {
						"encoding": "mapping",
						"key": "t_uint256",
						"label": "mapping(uint256 => struct SaleContract.Sale)",
						"numberOfBytes": "32",
						"value": "t_struct(Sale)43_storage"
					},
					"t_string_storage": {
						"encoding": "bytes",
						"label": "string",
						"numberOfBytes": "32"
					},
					"t_struct(Sale)43_storage": {
						"encoding": "inplace",
						"label": "struct SaleContract.Sale",
						"members": [
							{
								"astId": 36,
								"contract": "Sale.sol:SaleContract",
								"label": "productName",
								"offset": 0,
								"slot": "0",
								"type": "t_string_storage"
							},
							{
								"astId": 38,
								"contract": "Sale.sol:SaleContract",
								"label": "price",
								"offset": 0,
								"slot": "1",
								"type": "t_uint256"
							},
							{
								"astId": 40,
								"contract": "Sale.sol:SaleContract",
								"label": "isActive",
								"offset": 0,
								"slot": "2",
								"type": "t_bool"
							},
							{
								"astId": 42,
								"contract": "Sale.sol:SaleContract",
								"label": "seller",
								"offset": 1,
								"slot": "2",
								"type": "t_address"
							}
						],
						"numberOfBytes": "96"
					},
					"t_uint256": {
						"encoding": "inplace",
						"label": "uint256",
						"numberOfBytes": "32"
					}
				}
			},
			"userdoc": {
				"kind": "user",
				"methods": {},
				"version": 1
			}
		}
	}
}